:020000040000FA
:060000001AEF74F012007B
:020006001200E6
:060008005AEF6CF012003B
:02000E00475059
:080010004747414750524D43A0
:0600180053EF6CF0120032
:02001E001200CE
:1000200045E9000046090000110000003EE900001B
:10003000B90900000700000038E90000D8090000F5
:100040000600000032E90000D209000006000000AE
:100050001FE9000033090000130000001EE9000042
:10006000E9090000010000001DE90000FF04000094
:100070000100000014E90000A009000009000000D0
:1000800012E90000FE060000020000000CE900007A
:10009000C609000006000000E8E80000DC070000D8
:1000A00024000000C6E80000C20800002200000092
:1000B000C0E80000C009000006000000B4E800002D
:1000C000740F00000C000000A6E8000066090000A4
:1000D0000E000000A4E80000FE0000000200000086
:1000E00082E80000A0080000220000007CE8000078
:0800F000FA0500000600000003
:0800F800D9CFE6FFE1CFD9FFEB
:10010000060EE126730EDE6E030EDD6E760EF36EC6
:10011000020EF3CFDBFF010EF36E030EF3CFDBFF16
:10012000040EDB6A010EF36E050EF3CFDBFF000158
:100130008F518C5DAA6F90518D59AB6F91518E5933
:10014000AC6F040EDBCF3AF0050EDBCF3BF03C6A20
:100150003BBE3C68AAC063F0ABC064F0ACC065F0C5
:100160003AC068F03BC069F03CC06AF0D1EC59F08D
:1001700060C0A1F061C0A2F062C0A3F00001A46B56
:10018000A56BA66B6050A425A76F6150A521A86F31
:100190006250A621A96F080EE66EA7C0E6FFA8C0B0
:1001A000E6FF87EC49F0E552E552E552F3CFA7F0C0
:1001B000F4CFA8F00001A96BA8BFA9699AC03DF0CF
:1001C0009BC03EF03F6A3EBE3F68A9513F18E8AE73
:1001D00002D03F3406D03D50A75D3E50A8593F5055
:1001E000A95909E29AC03AF09BC03BF03C6A3BAE89
:1001F0001AD03C6818D0A935000EA91907E6D88096
:10020000F40EA755010EA855000EA95506E2F40EEE
:100210003A6E010E3B6E3C6A06D0A7C03AF0A8C009
:100220003BF0A9C03CF03AC0AFF03BC0B0F09851F1
:100230003A5CAD6F99513B58AE6F1DC73AF03B6ABF
:100240003ABE3B683A50AD03F3CFB1F0F4CFB2F011
:10025000AE03F350B2273B50AD03F350B227090E63
:10026000E66EB1C0E6FFB2C0E6FF87EC49F0E552AA
:10027000E552E552F3CFB1F0F4CFB2F00001F45003
:100280009D19E8AE02D09D3504D09C51B15D9D51C1
:10029000B25909E29CC03AF09DC03BF03C6A3D6A0D
:1002A0003BAE23D022D0B1C03EF0B2C03FF0406A96
:1002B000416A3FAE02D0406841684134000E4118A7
:1002C00009E6D880300E3E54000E3F54000E4054D4
:1002D000000E415404E2300E3A6E3B6A04D0B1C0C5
:1002E0003AF0B2C03BF03C6A3D6A3AC094F03BC081
:1002F00095F0060EE15C02E2E16AE552E16EE5523C
:10030000E7CFD9FF12000601EDA165D1ED91D3EC45
:100310006EF0F8EC56F00601E9AF0DD081C98FF010
:1003200082C990F00001916B90BF916983C998F0E8
:1003300084C999F016D0060161510601645D00017F
:100340008F6F06016251060165590001906F060129
:100350006351060166590001916F67C698F068C63F
:1003600099F0030EE66E070E646E656ADAC969F0ED
:10037000DBC96AF086EC59F06250000198253A6EAC
:10038000635099213B6E3AC0E6FFE66E87EC49F078
:10039000E552E552E552F3CFDAF9F4CFDBF9060185
:1003A000E7A1F8D0EA51800B05E1035006E00A0E00
:1003B000035C03E0E88D7CEF00F0E851200B1CE1CA
:1003C0000901800EDB1509E0DAC93AF0DBC93BF020
:1003D0003A6C3B1E000E3B2204D0DAC93AF0DBC96E
:1003E0003BF03B342AE23A503E08000E3B5425E2F3
:1003F0000601E851400B21E1E89D8FC08CF090C0D0
:100400008DF091C08EF00001800E951507E0010E71
:100410009425946F000E9521956F120095350AE290
:1004200094510008000E955505E2010E945F000EF0
:10043000955B1200946B956B12000601E88D090123
:10044000DA6BDB6B59DE04013C5100019425B36F7C
:1004500004013D5100019521B46F800E991509E00A
:1004600098C03AF099C03BF03A6C3B1E000E3B221C
:1004700004D098C03AF099C03BF03C6A3D6A3BAE6C
:1004800002D03C683D68D8903D50000A08E6320E24
:100490003A5C000E3B58000E3C58000E3D5801E3FC
:1004A0009AD0B3C03EF0B4C03FF0406A416A3FAE5C
:1004B00002D0406841684134000E411809E6D880F6
:1004C000480E3E54000E3F54000E4054000E41545E
:1004D00001E381D0030EE66E070E646E656A38C4D0
:1004E00069F039C46AF086EC59F062500001B32516
:1004F0003A6E6350B4213B6E3AC0E6FFE66E87EC7D
:1005000049F0E552E552E552F3CF38F4F4CF39F42F
:10051000F3CF3EF0F4CF3FF0406A416A3FAE02D0E5
:1005200040684168D8904150000A08E6480E3E5C99
:10053000000E3F58000E4058000E415802E2480E8F
:1005400019D038C442F039C443F0446A456A43AE16
:1005500002D0446845684534000E451809E6D88045
:10056000900E4254000E4354000E4454000E455465
:1005700004E2900E3A6E3B6A04D038C43AF039C4B3
:100580003BF03AC038F43BC039F43AC036F43BC0D3
:1005900037F4120064C68FF065C690F066C691F01D
:1005A0000001800E951507E0010E9425946F000E52
:1005B0009521956F0ED095350AE294510008000EF2
:1005C000955505E2010E945F000E955B02D0946B89
:1005D000956B0601E89D1200D9CFE6FFE1CFD9FF68
:1005E000010EE66EFB0EDBCF3AF0FC0EDBCF3BF0EC
:1005F0003C6A3D6A3BAE02D03C683D68FD0EDBCFF5
:10060000E9FFFE0EDBCFEAFF200EE926000EEA220C
:10061000EE503A26EE503B22EE503C22EE503D2268
:100620003AC0E6FF3BC0E6FF3CC0E6FF3DC0E6FF48
:10063000D7EC49F03E6E050EE15E3E5062C0B7F069
:1006400063C0B8F064C0B9F065C0BAF0FD0EDBCF8E
:10065000E9FFFE0EDBCFEAFF200EE926000EEA22BC
:10066000EE500001625C3A6EEE5063583B6EEE5005
:1006700064583C6EEE5065583D6EFD0EDBCFE9FFD1
:10068000FE0EDBCFEAFF240EE926000EEA223AC076
:10069000EEFF3BC0EEFF3CC0EEFF3DC0EEFFFD0EA7
:1006A000DBCFE9FFFE0EDBCFEAFF200EE926000ECE
:1006B000EA22B7C0EEFFB8C0EEFFB9C0EEFFBAC085
:1006C000EEFF010EE66EFD0EDBCFE9FFFE0EDBCF87
:1006D000EAFF240EE926000EEA22EECF3EF0EECF2E
:1006E0003FF0EECF40F0EFCF41F0FD0EDBCFE9FF62
:1006F000FE0EDBCFEAFF280EE926000EEA22EE50BE
:100700003E26EE503F22EE504022EE5041223EC0A7
:10071000E6FF3FC0E6FF40C0E6FF41C0E6FFD7EC82
:1007200049F0426E050EE15E425063C03BF064C08A
:100730003CF065C03DF0FD0EDBCFE9FFFE0EDBCFE8
:10074000EAFF240EE926000EEA2262C0EEFF3BC05B
:10075000EEFF3CC0EEFF3DC0EEFFFD0EDBCFE9FF3C
:10076000FE0EDBCFEAFF240EE926000EEA22EECFD2
:100770003AF0EECF3BF0EECF3CF0EFCF3DF0FD0E88
:10078000DBCFE9FFFE0EDBCFEAFF280EE926000EE5
:10079000EA223AC0EEFF3BC0EEFF3CC0EEFF3DC098
:1007A000EEFFE552E7CFD9FF12000001BB6BBB5152
:1007B000010801E2AFD1BB51480DF3CFBCF0F4CF3B
:1007C000BDF0000EBC27030EBD23BCC0E9FFBDC0B9
:1007D000EAFF1C0EE926000EEA22EECFE6FFEFCF7D
:1007E000E6FFBCC0E6FFBDC0E6FFF6DEE552E5521F
:1007F000E552E552090EE66EBCC0E9FFBDC0EAFF56
:10080000080EE926000EEA22EECF46F0EFCF47F0C1
:10081000486A496A47AE02D048684968BCC0E9FFE7
:10082000BDC0EAFF1C0EE926000EEA22EECF42F020
:10083000EECF43F0EECF44F0EFCF45F042C062F090
:1008400043C063F044C064F045C065F046C067F043
:1008500047C068F048C069F049C06AF084EC72F0A3
:100860005EC03EF05FC03FF060C040F061C041F04C
:10087000BCC0E9FFBDC0EAFF0C0EE926000EEA226B
:10088000EECF4EF0EFCF4FF0506A516A4FAE02D02C
:1008900050685168BCC0E9FFBDC0EAFF240EE926DC
:1008A000000EEA22EECF4AF0EECF4BF0EECF4CF046
:1008B000EFCF4DF04AC062F04BC063F04CC064F023
:1008C0004DC065F04EC067F04FC068F050C069F091
:1008D00051C06AF084EC72F03E505E243A6E3F5094
:1008E0005F203B6E405060203C6E415061203D6E69
:1008F0003AC0E6FF3BC0E6FF3CC0E6FFE66ED7EC41
:1009000049F0526E050EE15E62C0BEF063C0BFF0FA
:1009100064C0C0F065C0C1F0060EE66EBCC0E9FF61
:10092000BDC0EAFF0A0EE926000EEA22EECF42F031
:10093000EFCF43F0446A456A43AE02D0446845684D
:10094000BCC0E9FFBDC0EAFF180EE926000EEA228E
:10095000EECF3EF0EFCF3FF0406A416A3FAE02D0AB
:10096000406841683EC062F03FC063F040C064F040
:1009700041C065F042C067F043C068F044C069F010
:1009800045C06AF084EC72F05EC03AF05FC03BF0A4
:1009900060C03CF061C03DF05EC0E6FF5FC0E6FFB6
:1009A00060C0E6FF61C0E6FFD7EC49F0466E050E79
:1009B000E15E62C0C2F063C0C3F064C0C4F065C051
:1009C000C5F0BCC0E9FFBDC0EAFF020EE926000E7B
:1009D000EA22EECF3AF0EFCF3BF03A6C3B1E3B22DF
:1009E0003C6A3D6A3BAE02D03C683D680001C5519F
:1009F0003D18E8AE02D03D3408D03A50C25D3B50BD
:100A0000C3593C50C4593D50C55914E2BCC0E9FF1C
:100A1000BDC0EAFF020EE926000EEA22EECFC2F0C8
:100A2000EFCFC3F0C26DC31FC323C46BC56BC3AF8D
:100A300037D031D0BCC0E9FFBDC0EAFF020EE926C5
:100A4000000EEA22EECF3EF0EFCF3FF0406A416A5F
:100A50003FAE02D0406841684150C519E8AE02D0AF
:100A6000C53508D0C2513E5CC3513F58C4514058AF
:100A7000C551415813E2BCC0E9FFBDC0EAFF020EF8
:100A8000E926000EEA22EECFC2F0EFCFC3F0C46B2E
:100A9000C56BC3AF05D0C469C56902D0C5C0C5F078
:100AA000C20EE96E000EEA6EBE51EE243E6EBF51DC
:100AB000EE203F6EC051EE20406EC151EE20416EDF
:100AC000BCC0E9FFBDC0EAFF380EE926000EEA22ED
:100AD000EECF42F0EFCF43F0446A456A43AE02D016
:100AE0004468456842503E5C3A6E43503F583B6E06
:100AF000445040583C6E455041583D6EBCC0E9FFE3
:100B0000BDC0EAFF440E3AC0EBFF450E3BC0EBFF11
:100B1000BB2B4DD612000001C66BC651010801E285
:100B200039D2C651480DF3CFC7F0F4CFC8F0000E4C
:100B3000C727030EC823C7C0E9FFC8C0EAFF180EC5
:100B4000E926000EEA22EECF3AF0EFCF3BF03C6A06
:100B50003D6A3BAE02D03C683D68C7C0E9FFC8C0F3
:100B6000EAFF380EE926000EEA22EECF62F0EFCF60
:100B700063F0646A656A63AE02D0646865680C0EEF
:100B8000676E686A696A6A6A84EC72F000013A50BA
:100B90005E5C0001D96F00013B505F580001DA6FC5
:100BA00000013C5060580001DB6F00013D5061586E
:100BB0000001DC6FC7C0E9FFC8C0EAFF040EE926E8
:100BC000000EEA22EECF3AF0EFCF3BF03C6A3D6AEE
:100BD0003BAE02D03C683D68D9C062F0DAC063F039
:100BE000DBC064F0DCC065F03AC067F03BC068F081
:100BF0003CC069F03DC06AF084EC72F05EC0C9F0A0
:100C00005FC0CAF060C0CBF061C0CCF0C7C0E9FFE4
:100C1000C8C0EAFF060EE926000EEA22EECF3DF03C
:100C2000EFCF3EF03F6A406A3EAE02D03F68406878
:100C3000D9C062F0DAC063F0DBC064F0DCC065F0FC
:100C40003DC067F03EC068F03FC069F040C06AF048
:100C500084EC72F05FC03BF060C03CF0C7C0E9FFBD
:100C6000C8C0EAFF2C0EE926000EEA225E50EE26EE
:100C70003B50EE223C50EE22C7C0E9FFC8C0EAFF5D
:100C8000020EE926000EEA22EECF3DF0EFCF3EF055
:100C9000030ED8903D363E36E806FBE13D6C3E1E25
:100CA000000E3E223F6A3EBE3F68C7C0E9FFC8C093
:100CB000EAFF2C0EE926000EEA22020EEB503F1846
:100CC000E8AE02D03F3406D03D50EE5C3E50EE58C8
:100CD0003F50EE581AE2C7C0E9FFC8C0EAFF020E53
:100CE000E926000EEA22EECF3AF0EFCF3BF0030EFA
:100CF000D8903A363B36E806FBE13A6C3B1E000ED4
:100D00003B223C6A3BAE53D042D0C7C0E9FFC8C0CB
:100D1000EAFF020EE926000EEA22EECF40F0EFCF06
:100D200041F0030ED89040364136E806FBE1426AB6
:100D300041BE4268C7C0E9FFC8C0EAFF2C0EE926E1
:100D4000000EEA22020EEBCFF3FF4250F318E8AE9A
:100D500002D0F33406D0EE50405CEE504158EE50D5
:100D6000425817E2C7C0E9FFC8C0EAFF020EE926F1
:100D7000000EEA22EECF3AF0EFCF3BF0030ED89010
:100D80003A363B36E806FBE13C6A3BAE10D03C68A5
:100D90000ED0C7C0E9FFC8C0EAFF2C0EE926000E3E
:100DA000EA22EECF3AF0EECF3BF0EFCF3CF0C7C0F7
:100DB000E9FFC8C0EAFF2C0EE926000EEA223AC07D
:100DC000EEFF3BC0EEFF3CC0EEFF0001CD6BCE6BF3
:100DD000CF6BD06B030EE66ECD0EE96E000EEA6EA1
:100DE000C951EE243A6ECA51EE203B6ECB51EE2033
:100DF0003C6ECC51EE203D6E3AC0E6FF3BC0E6FFB4
:100E00003CC0E6FFE66ED7EC49F03E6E050EE15EB3
:100E100062C0D5F063C0D6F064C0D7F065C0D8F02A
:100E2000C7C0E9FFC8C0EAFF1C0EE926000EEA228F
:100E3000EE500001625CDD6FEE506358DE6FEE50E5
:100E40006458DF6FEE506558E06FDDC0E6FFDEC02E
:100E5000E6FFC7C0E6FFC8C0E6FFECEC02F0E552D3
:100E6000E552E552E552090EE66EC7C0E9FFC8C07B
:100E7000EAFF080EE926000EEA22EECF42F0EFCF9D
:100E800043F0446A456A43AE02D044684568DDC019
:100E900062F0DEC063F0DFC064F0E0C065F042C025
:100EA00067F043C068F044C069F045C06AF084EC64
:100EB00072F05EC03EF05FC03FF060C040F061C0C5
:100EC00041F0C7C0E9FFC8C0EAFF0C0EE926000EDA
:100ED000EA22EECF4AF0EFCF4BF04C6A4D6A4BAEB0
:100EE00002D04C684D68C7C0E9FFC8C0EAFF240EB5
:100EF000E926000EEA22EECF46F0EECF47F0EECF25
:100F000048F0EFCF49F046C062F047C063F048C0F8
:100F100064F049C065F04AC067F04BC068F04CC04F
:100F200069F04DC06AF084EC72F03E505E243A6E77
:100F30003F505F203B6E405060203C6E415061202E
:100F40003D6E3AC0E6FF3BC0E6FF3CC0E6FFE66E02
:100F5000D7EC49F04E6E050EE15E62C0D1F063C081
:100F6000D2F064C0D3F065C0D4F0000E0001D16DA2
:100F7000D21FD223D31FD323D41FD423C7C0E9FF4A
:100F8000C8C0EAFF440ED1C0EBFF450ED2C0EBFF54
:100F9000C62BC3D512000301800EC91509E0C8C3D2
:100FA0003AF0C9C33BF03A6C3B1E000E3B2204D022
:100FB000C8C33AF0C9C33BF03B3404E23A501408CA
:100FC000000E3B5402E3000E01D0010E0001F56F4C
:100FD000E85007E1035003E00A0E035C02E1000E53
:100FE00001D0010E0601EE91E8B0EE81EEA113D022
:100FF000035005E00A0E035C02E0000E01D0010E72
:10100000000905E066C468F467C469F404D0A4C5A7
:1010100068F4A5C569F4040166510401685D3A6E7F
:101020006951040167553B6E3AC0E6FFE66E47EC36
:1010300034F0E552E552F3CF86F0F4CF87F00001AB
:10104000D880F45004E7E40E865DFF0E875904E271
:10105000E40E866F87690DD0873509E286511C083A
:10106000000E875504E21C0E866F876B02D087C086
:1010700087F0060EE66E94C342F095C343F0446ACF
:10108000456A43AE02D04468456886C03EF087C0DA
:101090003FF0406A416A3FAE02D0406841683EC0BE
:1010A00062F03FC063F040C064F041C065F042C0F0
:1010B00067F043C068F044C069F045C06AF084EC52
:1010C00072F05EC03AF05FC03BF060C03CF061C0BF
:1010D0003DF05EC0E6FF5FC0E6FF60C0E6FF61C0B6
:1010E000E6FFD7EC49F0466E050EE15E465003017F
:1010F000AC51625C0001ED6F0301AD51635800011A
:10110000EE6F0301AE5164580001EF6F0301AF5160
:1011100065580001F06F0A0EE66E98C33EF099C361
:101120003FF0406A416A3FAE02D040684168EDC07E
:1011300062F0EEC063F0EFC064F0F0C065F03EC056
:1011400067F03FC068F040C069F041C06AF084ECCD
:1011500072F05EC03AF05FC03BF060C03CF061C02E
:101160003DF05EC0E6FF5FC0E6FF60C0E6FF61C025
:10117000E6FFD7EC49F0426E050EE15E425062C0D8
:10118000E5F063C0E6F064C0E7F065C0E8F0060192
:10119000EEA10CD00001E96BEA6BEB6BEC6BE9C0E4
:1011A000BFF3EAC0C0F3EBC0C1F3A9D09AC33AF0D1
:1011B0009BC33BF03C6A3D6A3BAE02D03C683D6855
:1011C000EDC062F0EEC063F0EFC064F0F0C065F017
:1011D0003AC067F03BC068F03CC069F03DC06AF0BF
:1011E00084EC72F05E500301BF275F50C023605053
:1011F000C12392C33AF093C33BF00A0ED8903A361B
:101200003B36E806FBE13A6C3B1E000E3B223C6A93
:101210003BBE3C680301C1513C18E8AE02D03C34EF
:1012200006D03A50BF5D3B50C0593C50C15916E200
:10123000646A040E656E92C369F093C36AF086EC2B
:1012400059F062C0BFF363C0C0F30301BF6DC01F9C
:10125000000EC023C16BC0AF31D02CD092C33DF083
:1012600093C33EF00A0ED8903D363E36E806FBE1C9
:101270003F6A3EBE3F683F500301C119E8AE02D04D
:10128000C13506D0BF513D5CC0513E58C1513F5899
:1012900013E2646A040E656E92C369F093C36AF048
:1012A00086EC59F062C0BFF363C0C0F30301C16BA9
:1012B000C0AF04D0C16902D0C1C3C1F30A0EE66E4B
:1012C000BFC33AF0C0C33BF0C1C33CF03D6A3CBE73
:1012D0003D683AC0E6FF3BC0E6FF3CC0E6FF3DC0CC
:1012E000E6FFD7EC49F03E6E050EE15E3E5062C06F
:1012F000E9F063C0EAF064C0EBF065C0ECF0E90E21
:10130000E96E000EEA6E0001E551EE243A6EE651F8
:10131000EE203B6EE751EE20E851EE203AC0D4F3C8
:101320003BC0D5F3F55105E00301C851D45FC95165
:10133000D55B640E0301C8250001F66F000E0301A2
:10134000C9210001F76F90C33AF091C33BF03A6CAA
:101350003B1E000E3B220301D5513B18E8AE02D0E4
:101360003B3404D03A50D45D3B50D55909E290C388
:10137000D4F391C3D5F3D46DD51F000ED52312003D
:101380009151D519E8AE02D0D53504D0D451905D35
:10139000D551915905E290C3D4F391C3D5F312000E
:1013A00012000001F86BF851020822E3F851480DD1
:1013B000F3CFF9F0F4CFFAF0000EF927030EFA2379
:1013C000F9C0E9FFFAC0EAFF2F0EE926000EEA2273
:1013D000EE6AEE6AEE6AF9C0E9FFFAC0EAFF2C0E87
:1013E000E926000EEA22EE6AEE6AEE6AF82BDBD7F7
:1013F000120056C380F357C381F30EC338F30FC3F3
:1014000039F30601EAAD09D00301825180278351E7
:1014100081233A5138273B5139239EC3C8F39FC3D8
:10142000C9F312008FEC29F0ACEC41F0B5EC33F0CD
:10143000E0DF0601EAA503D0D5EC03F002D08BEC87
:1014400005F0A9DD44C370F045C371F08CC372F0A0
:101450008DC373F0D4C374F0D5C375F00301800E4F
:10146000191509E018C33EF019C33FF03E6C3F1E4A
:10147000000E3F2204D018C33EF019C33FF0800E87
:10148000611509E060C340F061C341F0406C411E4A
:10149000000E412204D060C340F061C341F03F50D0
:1014A0004118E8AE02D0413404D040503E5C415077
:1014B0003F580DE2800E611505E060C33AF061C34C
:1014C0003BF00CD060C33AF061C33BF010D0800E0B
:1014D000191509E018C33AF019C33BF03A6C3B1EEA
:1014E000000E3B2204D018C33AF019C33BF03C6A0B
:1014F0003D6A3BAE02D03C683D68D8903D50000A42
:1015000008E6E80E3A5C030E3B58000E3C58000E0D
:101510003D5802E3000E01D0010E0601E799E8B044
:10152000E789D8EF22F0000E0001966F976B946F59
:10153000956BD00E9C6F9D69FB6BFB51020858E3C5
:10154000FB51480DF3CFFCF0F4CFFDF0000EFC276B
:10155000030EFD23FCC0E9FFFDC0EAFF180EE926DB
:10156000000EEA22EE6AED6A3A6A3B6A3C6A3D6A1C
:101570003BAE02D03C683D68FCC0E9FFFDC0EAFF1D
:10158000240EE926000EEA223AC0EEFF3BC0EEFF31
:101590003CC0EEFF3DC0EEFFFCC0E9FFFDC0EAFF2E
:1015A000280EE926000EEA223AC0EEFF3BC0EEFF0D
:1015B0003CC0EEFF3DC0EEFFFCC0E9FFFDC0EAFF0E
:1015C000200EE926000EEA223AC0EEFF3BC0EEFFF5
:1015D0003CC0EEFF3DC0EEFFFCC0E9FFFDC0EAFFEE
:1015E000460E3AC0EBFF470E3BC0EBFFFB2BA5D7E7
:0415F000D1EF09F03E
:0C15F400D9CFE6FFE1CFD9FFFB0EDBCF23
:1016000062F0FC0EDBCF63F0FD0EDBCF64F0FE0E6C
:10161000DBCF65F07C0E676E2B0E686E696A6A6AB6
:1016200084EC72F05EC062F05FC063F060C064F092
:1016300061C065F0100E676E270E686E696A6A6A8F
:1016400052EC59F0E552E7CFD9FF1200D9CFE6FFAF
:10165000E1CFD9FF0801546B556B566B09019D51C1
:1016600036E1FE0EDBCF53F8FD0EDB500801D880CB
:1016700053552DE354C83AF055C83BF056C83CF0DA
:101680000A0E686E696A6A6A54C863F055C864F0E5
:1016900056C865F0D1EC59F008015351EA6AA90F18
:1016A000E96E050EEA22EFCF3DF03E6A3F6A6050D8
:1016B0003D24546F61503E20556F62503F20566F5D
:1016C000300E545F000E555B565B532BCDD754C87C
:1016D00063F055C864F056C865F0E552E7CFD9FF0E
:1016E0001200D9CFE6FFE1CFD9FF0801636B646B2D
:1016F000656B666B09019D5101E0EBD0FE0EDB507E
:10170000040F0801676F6751EA6AA90FE96E050EB9
:10171000EA22EF502E0802E0672BF5D7030E675D33
:10172000E66EFE0EDBCFE6FF91DFE552E55263C0C9
:1017300057F864C058F865C059F808015A6B59BF8A
:101740005A696705E66E020E675DE66E7FDFE55259
:10175000E55263C05BF864C05CF865C05DF80801E1
:101760005E6B5DBF5E69FD0EDB50D8806755040877
:1017700014E2050E6725E66E6729E66E67DFE5521F
:10178000E55263C05FF864C060F865C061F80801A5
:10179000626B61AF2BD0626929D0040E6725E66EBB
:1017A0006729E66E53DFE552E55263C05FF864C017
:1017B00060F865C061F80801626B61BF62690A0E7A
:1017C000676E686A696A6A6A5FC862F060C863F0D7
:1017D00061C864F062C865F084EC72F05EC05FF8C6
:1017E0005FC060F860C061F861C062F857C863F814
:1017F00058C864F859C865F85AC866F8800E676E0C
:10180000960E686E980E696E6A6A57C862F058C87C
:1018100063F059C864F05AC865F084EC72F05EC099
:1018200063F85FC064F860C065F861C066F85BC8C3
:101830003AF05CC83BF05DC83CF05EC83DF0800EFD
:10184000676E960E686E980E696E6A6A5BC862F083
:101850005CC863F05DC864F05EC865F084EC72F04B
:101860005EC03AF05FC03BF060C03CF061C03DF04C
:101870005FC862F060C863F061C864F062C865F078
:10188000640E676E686A696A6A6A84EC72F03A503C
:101890005E24626E3B505F20636E3C506020646E3D
:1018A0003D506120656E1E0E6226000E632264228A
:1018B00065223C0E676E686A696A6A6A52EC59F082
:1018C00062500801632763506423645065236550A8
:1018D000662363C862F064C863F065C864F066C8D4
:1018E00065F0E552E7CFD9FF1200D9CFE6FFE1CF8F
:1018F000D9FF0801686B696B6A6B6B6B09019D51BD
:1019000001E09AD0FE0EDB28E66EFE0EDBCFE6FF8E
:101910009DDEE552E55263C03AF064C03BF065C01D
:101920003CF03D6A3CBE3D68100E676E0E0E686E60
:10193000696A6A6A3AC062F03BC063F03CC064F016
:101940003DC065F084EC72F05EC03AF05FC03BF0E1
:1019500060C03CF061C03DF05EC0E6FF5FC0E6FFE6
:1019600060C0E6FF61C0E6FFFE0EDB50030FE66ECF
:10197000FE0EDB50020FE66E69DEE552E552E552DF
:10198000E7CF3DF0E552E7CF3CF0E552E7CF3BF043
:10199000E552E7CF3AF063C03EF064C03FF065C067
:1019A00040F03C0E686E696A6A6AD1EC59F060C01A
:1019B0003EF061C03FF062C040F0416A40BE416805
:1019C0003E503A263F503B2240503C2241503D225F
:1019D0003AC0E6FF3BC0E6FF3CC0E6FF3DC0E6FF85
:1019E000FD0EDBCFE6FFFE0EDB50040FE66E2EDEB3
:1019F000E552E552E552E7CF3DF0E552E7CF3CF046
:101A0000E552E7CF3BF0E552E7CF3AF063C042F052
:101A100064C043F065C044F0456A44BE45683A502E
:101A200042240801686F3B504320696F3C504420BA
:101A30006A6F3D5045206B6F68C862F069C863F0FB
:101A40006AC864F06BC865F0E552E7CFD9FF1200B1
:101A50009AC99BF909019A51EA6AA90FE96E050E24
:101A6000EA22EFCF6CF82C0E08016C5D09E02A0E1B
:101A70006C5D06E0090199519A5D02E29A2BEBD761
:101A800009019A059C6F9A2B9B519C5D02E3000E05
:101A900001D0010E9D6F120009019A6BF9C599F9E9
:101AA000D7DFD6DF9CC9E6FF9BC9E6FF1EDFE55204
:101AB000E55262C0D8F363C0D9F364C0DAF365C0FD
:101AC000DBF3C6DF9CC9E6FF9BC9E6FF0ADEE552F1
:101AD000E55262C0E6F363C0E7F364C0E8F365C0B3
:101AE000E9F3B6DF09019B51EA6AA90FE96E050E19
:101AF000EA22EF50530809E1000E0301E66DE71FEB
:101B0000E723E81FE823E91FE923A2DF9CC9E6FFDA
:101B10009BC9E6FFE6DDE552E55262C0EAF363C029
:101B2000EBF364C0ECF365C0EDF392DF09019B5168
:101B3000EA6AA90FE96E050EEA22EF50570809E19B
:101B4000000E0301EA6DEB1FEB23EC1FEC23ED1FEE
:101B5000ED237EDF9CC9E6FF9BC9E6FF77DDE552FA
:101B6000E55263C0FDF374DF9CC9E6FF9BC9E6FF45
:101B70006DDDE552E55263C0FCF36ADF030E090137
:101B80009C5DE66E9BC9E6FF61DDE552E55263C0F0
:101B90003DF064C03EF065C03FF00A0E686E696AB1
:101BA0006A6AD1EC59F060C03DF061C03EF062C09D
:101BB0003FF060C0E6FF61C0E6FF62C0E6FF0901DA
:101BC0009C05E66E9C05E66E41DDE552E552E55268
:101BD000E7CF3FF0E552E7CF3EF0E552E7CF3DF0EB
:101BE0003D5063243A6E3E5064203B6E3F5065206A
:101BF0003C6E3AC0FEF33BC0FFF32ADF020E090140
:101C00009C5DE66E9BC9E6FF21DDE552E55263C0AF
:101C10003AF064C03BF065C03CF03D6A3CBE3D68B4
:101C20000A0E676E686A696A6A6A3AC062F03BC007
:101C300063F03CC064F03DC065F084EC72F05EC0BF
:101C40003AF05FC03BF060C03CF061C03DF05EC068
:101C5000E6FF5FC0E6FF60C0E6FF61C0E6FF9CC92B
:101C6000E6FF9CC9E6FFF2DCE552E552E552E7CF1C
:101C70003DF0E552E7CF3CF0E552E7CF3BF0E552CF
:101C8000E7CF3AF063C03EF064C03FF065C040F07B
:101C90000A0E686E696A6A6AD1EC59F060C03EF05B
:101CA00061C03FF062C040F0416A40BE41683E50B2
:101CB0003A263F503B2240503C2241503D223AC000
:101CC000E0F33BC0E1F33CC0E2F3010E0301FD5D34
:101CD00003E3060EFC5D02E2000E01D0010E0601D8
:101CE000E79DE8B0E78D040E025C63E10401DC517E
:101CF0000301FF19E8AE02D0FF3507D0FE51040101
:101D0000DB5D0301FF510401DC5905E2FEC3DBF496
:101D1000FFC3DCF414D00301FF510401DA19E8AE6B
:101D200002D0DA3507D0D9510301FE5D0401DA5142
:101D30000301FF5904E2FEC3D9F4FFC3DAF403013F
:101D4000FC513A6E3B6A0401D6513B18E8AE02D012
:101D50003B3404D03A50D55D3B50D65906E20301DE
:101D6000FC510401D56FD66B15D00301FC513A6EBE
:101D70003B6A04013B50C619E8AE02D0C63504D018
:101D8000C5513A5CC6513B5805E20301FC510401C0
:101D9000C56FC66B0301FF3504E2FE510F08000E4C
:101DA000FF5502E3000E01D0010E0601E897E8B0EE
:101DB000E887120009019A6BF9C599F949DE48DEF6
:101DC00047DE09019B51EA6AA90FE96E050EEA2276
:101DD000EF50410801E03FD10601E78D39DE9CC993
:101DE000E6FF9BC9E6FF7DDCE552E55262C0E6F303
:101DF00063C0E7F364C0E8F365C0E9F329DE0901D5
:101E00009B51EA6AA90FE96E050EEA22EF505308CA
:101E100009E1000E0301E66DE71FE723E81FE82351
:101E2000E91FE92315DE9CC9E6FF9BC9E6FF59DCE3
:101E3000E552E55262C0EAF363C0EBF364C0ECF331
:101E400065C0EDF305DE09019B51EA6AA90FE96E51
:101E5000050EEA22EF50570809E1000E0301EA6D72
:101E6000EB1FEB23EC1FEC23ED1FED23F1DD080E40
:101E7000E66E9CC9E6FF09019C05E66E26EC0BF0B8
:101E8000E552E55263C03EF064C03FF065C040F0EB
:101E9000416A40BE41683EC0E6FF3FC0E6FF40C029
:101EA000E6FF41C0E6FF030E09019C5DE66E9BC99B
:101EB000E6FF26EC0BF0E552E552E552E7CF41F0A4
:101EC000E552E7CF40F0E552E7CF3FF0E552E7CFEC
:101ED0003EF063C062F064C063F065C064F0656AA0
:101EE00064BE6568640E676E686A696A6A6A84ECD3
:101EF00072F05E5000013E243A6E5F503F203B6E10
:101F0000605040203C6E615041203D6E0D0E676E6A
:101F1000686A696A6A6A3AC062F03BC063F03CC0B2
:101F200064F03DC065F084EC72F05EC03AF05FC0D2
:101F30003BF060C03CF061C03DF05EC0E6FF5FC0BA
:101F4000E6FF60C0E6FF61C0E6FFD7EC49F0426EF5
:101F5000050EE15E425062C0FAF363C0FBF378DD28
:101F6000080EE66E9CC9E6FF09019C05E66E26ECAC
:101F70000BF0E552E55263C03EF064C03FF065C02F
:101F800040F0416A40BE41683EC0E6FF3FC0E6FF08
:101F900040C0E6FF41C0E6FF030E09019C5DE66E0E
:101FA0009BC9E6FF26EC0BF0E552E552E552E7CF80
:101FB00041F0E552E7CF40F0E552E7CF3FF0E55280
:101FC000E7CF3EF063C062F064C063F065C064F0C8
:101FD000656A64BE6568640E676E686A696A6A6A83
:101FE00084EC72F05E5000013E243A6E5F503F2058
:101FF0003B6E605040203C6E615041203D6E2D0E86
:10200000676E686A696A6A6A3AC062F03BC063F0E8
:102010003CC064F03DC065F084EC72F05EC03AF004
:102020005FC03BF060C03CF061C03DF05EC0E6FFC9
:102030005FC0E6FF60C0E6FF61C0E6FFD7EC49F095
:10204000426E050EE15E425062C0F8F363C0F9F3E0
:102050000601ED8912000601ED991200D9CFE6FFC5
:10206000E1CFD9FF295001E198D0020A55E0040AD6
:1020700033E0010A01E09CD0020E305C15E23138F9
:10208000F00B316E410EF36EFE0EDBCFF4FFF3501A
:10209000F45C04E3FE0EDB50C90F03D0FE0EDB50F0
:1020A000D00F3126302A84D02AC0F9F52E50315C69
:1020B00002E0000E01D0010E0601EF97E8B0EF87B5
:1020C000EFA769D009019751010A04E0010A63E111
:1020D000E3DC61D06FDE5FD0FE0EDB502A0804E146
:1020E000316A306A070E63D0FE0EDB50240803E12C
:1020F000000E2E6E59D0FE0EDB502E1A2A502A2AC0
:10210000EA6AA90FE96E050EEA22FE0EDBCFEFFFA9
:102110002A504F084DE23FD0FE0EDB502E1A2B50B6
:10212000050DF3CF3AF0F4CF3BF00E0E3A26000E39
:102130003B222C503A24F66E000E3B20F76E08002E
:10214000F550F36EFE0EDB50F35C05E0020E2B5CE7
:1021500002E22B2AE4D72B50050DF3CF3AF0F4CF4F
:102160003BF00E0E3A26000E3B222C503A24F66E1F
:10217000000E3B20F76E0800F550F36EFE0EDB50AC
:10218000F35C09E1040E2C5C04E12BC097F9060E08
:102190000ED02C2A0DD0296A0BD0FE0EDB5024085D
:1021A00007E1000E2E6E2B6E2C6E2A6E020E296E2B
:1021B000E552E7CFD9FF12009EC93AF09FC93BF024
:1021C0003C6A3D6A3BAE02D03C683D681E0E3A1840
:1021D00001E0FED03B5001E0FBD03C5001E0F8D0E4
:1021E0003D5001E0F5D00601E751400B01E1F0D090
:1021F000FAEC6BF063C021F564C022F565C023F5ED
:10220000D8C3DCF3D9C3DDF3DAC3DEF3DBC3DFF31A
:10221000E6C3EEF3E7C3EFF3E8C3F0F3E9C3F1F38A
:10222000EAC3F2F3EBC3F3F3ECC3F4F3EDC3F5F35A
:10223000E6C371F8E7C372F8E8C373F8E9C374F84A
:10224000400E676E420E686E0F0E696E6A6AE6C3D4
:1022500062F0E7C363F0E8C364F0E9C365F052ECF1
:1022600059F062C071F863C072F864C073F865C059
:1022700074F80801800E651409E0000E716D721F7C
:102280007223731F7323741F742302D074C874F8ED
:1022900071C83AF072C83BF073C83CF074C83DF0A6
:1022A000F60E676E0D0E686E696A6A6A71C862F032
:1022B00072C863F073C864F074C865F084EC72F09F
:1022C0005EC03AF05FC03BF060C03CF061C03DF0E2
:1022D0000B0ED8903D323C323B323A32E806F9E1FF
:1022E0003AC071F83BC072F83CC073F83DC074F856
:1022F0003AC0E6FF3BC0E6FFC7EC4BF0E552E552C3
:10230000F3CFF6F3F4CFF7F3E0C3E3F3E1C3E4F381
:10231000E2C3E5F30301FA6BFB6BE0C33AF0E1C300
:102320003BF0E2C33CF0640E686E696A6A6AE0C31F
:1023300063F0E1C364F0E2C365F025EC59F063C0DB
:102340003AF064C03BF065C03CF063C0E6FF64C097
:10235000E6FF0C0EE66E010EE66E41EC6EF0E55205
:10236000E552E552E552E6C3E6FFE7C3E6FFE8C300
:10237000E6FFE9C3E6FF0E0EE66E010EE66E71ECB7
:102380006EF03A6E060EE15E3A50EAC3E6FFEBC32A
:10239000E6FFECC3E6FFEDC3E6FF120EE66E010EAC
:1023A000E66E71EC6EF03A6E060EE15E3A50060192
:1023B000E7BF0DD0E66A080EE66E02EC2FF0E5529C
:1023C000E552010E0401D76FD86B0601E78FEA8949
:1023D00012000601E7AD1DD1FAEC6BF063C075F891
:1023E00064C076F865C077F8210EE96E050EEA6ED6
:1023F000EE50635C3A6EEE5064583B6EEE5065589A
:102400003AC078F83BC079F863C021F564C022F582
:1024100065C023F59EC93AF09FC93BF03C6A3D6A0E
:102420003BAE02D03C683D68D8903D50000A08E6BB
:102430001E0E3A5C000E3B58000E3C58000E3D58F4
:1024400022E20601E79DFEC33AF0FFC33BF03C6A7F
:102450003D6A3BAE02D03C683D683D34000E3D18FD
:1024600009E6D8800F0E3A54000E3B54000E3C543F
:10247000000E3D5405E309019E2B000E9F2303D05F
:1024800009019E6B9F6B0601E7AF92D0EE0EE96EDD
:10249000030EEA6EEE500301E65D3A6EEE50E75928
:1024A0003B6EEE50E8593C6EEE50E9593D6E3AC035
:1024B000E6FF3BC0E6FF3CC0E6FFE66EFAEC0AF042
:1024C000E552E552E552E55262C05DF563C05EF546
:1024D00064C05FF5080EE66EF6C342F0F7C343F042
:1024E000446A456A43AE02D04468456842C0E6FF8C
:1024F00043C0E6FF44C0E6FF45C0E6FFF20EE96ECA
:10250000030EEA6EEE500301EA5D3E6EEE50EB59AB
:102510003F6EEE50EC59406EEE50ED59416E3EC0AC
:10252000E6FF3FC0E6FF40C0E6FFE66EFAEC0AF0C9
:10253000E552E552E552E552E552E7CF45F0E55266
:10254000E7CF44F0E552E7CF43F0E552E7CF42F062
:1025500042C067F043C068F044C069F045C06AF00B
:1025600084EC72F05EC03AF05FC03BF060C03CF0BB
:1025700061C03DF05EC0E6FF5FC0E6FF60C0E6FF01
:1025800061C0E6FFD7EC49F0050EE15E62C06EF572
:1025900063C06FF564C070F55DC563F55EC564F535
:1025A0005FC565F562C074F563C075F564C076F506
:1025B000040E025C37E1BFC43AF0C0C43BF03C6A91
:1025C0003BBE3C683C500301E219E8AE02D0E23564
:1025D00006D0E0513A5CE1513B58E2513C5804E2EC
:1025E000E0C3BFF4E1C3C0F40401CC510301FB1903
:1025F000E8AE02D0FB3507D0FA510401CB5D0301F0
:10260000FB510401CC590EE2FAC3CBF4FBC3CCF46A
:1026100012009EC9FCF3040E025C04E10401D32BFA
:10262000000ED42312000601EF51080B1BE13450B9
:10263000321802E13550331815E0000E3424E96EEB
:10264000020E3520EA6EEFCF7AF8010E3426000E26
:102650003522FF0E3416000E35167AC8E6FFFEDC72
:10266000E552E1D7EFA748D0020EE66E53EC71F0C9
:10267000E552040EE66E5FEC71F0E5520601EF974D
:10268000A8DE0601E7AD36D0040EE66E5FEC71F011
:10269000E552FAEC6BF063500501425D645043591A
:1026A0006550445902E3000E01D0010E0601EA9D77
:1026B000E8B0EA8DEFBF02D05FEC15F00601EF51F4
:1026C000800B03E0EA51020B02E0000E01D0010E84
:1026D000EE97E8B0EE87D00EE66E070EE66EE66A7D
:1026E000E66A0E0EE66E26EC6CF03A6E050EE15EC2
:1026F0003A5013D0EA9D0CD0FAEC6BF06350050110
:102700002A5D64502B5965502C5907E20601E79D5C
:10271000040EE66E53EC71F0E552020EE66E5FECCD
:1027200071F0E552120009019A6B0301F66B010E7C
:10273000F76FFE6BFF6BFC6BFCC3FDF3FCC3D8F3C0
:10274000D96BDA6BDB6B000EFA6FFB6BF86FF96B12
:10275000E06FE16BE26BE1BFE269E66BE76BE86BB0
:10276000E96BE6C3EEF3E7C3EFF3E8C3F0F3E9C3C5
:10277000F1F3EA6BEB6BEC6BED6BEAC3F2F3EBC3DB
:10278000F3F3ECC3F4F3EDC3F5F3E66AE66AE66A45
:10279000E66A0E0EE66E010EE66E71EC6EF03A6EB3
:1027A000060EE15E3A50E66AE66AE66AE66A120EEC
:1027B000E66E010EE66E71EC6EF03A6E060EE15EAC
:1027C0003A50000EE66EE66A0C0EE66E010EE66EFC
:1027D00041EC6EF0E552E552E552E55209019E6B7F
:0E27E0009F6B0601EF97E79DE79F296A1200A5
:0227EE000001E8
:1027F000800E991509E098C03AF099C03BF03A6C08
:102800003B1E000E3B2204D098C03AF099C03BF02A
:10281000D8903B5004E6040E3A5C000E3B5801E3AE
:10282000000C010CD9CFE6FFE1CFD9FF070EE1265E
:10283000DF6AFAEC6BF03D6A010E63C0DBFF020E4B
:1028400064C0DBFF030E65C0DBFF040E3DC0DBFF91
:10285000D950010FE96EDACFEAFFEE500901485D69
:102860003A6EEE5049593B6EEE504A593C6EEE506E
:102870004B593D6E050E3AC0DBFF060E3BC0DBFF39
:10288000010EDBCF48F9020EDBCF49F9030EDBCF97
:102890004AF9040EDBCF4BF936C43CF437C43DF49F
:1028A0000001180E8C6FFC0E8D6F8E690901465168
:1028B000020A01E1B3D0030A3AE0010A01E0B1D013
:1028C0000001800E911518E08FC03AF090C03BF0E7
:1028D00091C03CF0686869686A688FC063F090C016
:1028E00064F091C065F0D1EC59F060C03AF061C07D
:1028F0003BF062C03CF006D08FC03AF090C03BF095
:1029000091C03CF0D8903C50000A06E6320E3A5C8A
:10291000000E3B58000E3C5801E383D00701B80E6F
:10292000B76F0B0EB86F0901010E466F7AD05FDFEB
:10293000000929E0050EDB500701B75D00013A6E82
:10294000060EDB500701B85900013B6EE8340DE27A
:102950003A500008000E3B5408E2050EDB50070118
:10296000B75F060EDB50B85B03D00701B76BB86BDF
:10297000B83504E2B7510008000EB85534E3090138
:10298000020E466F30D0020E646E656A050EDBCF14
:1029900069F0060EDBCF6AF086EC59F00701B751FB
:1029A00062243A6EB85163203B6ED890E85004E63A
:1029B000B80E3A5C0B0E3B5812E2020E646E656A6A
:1029C000050EDBCF69F0060EDBCF6AF086EC59F01E
:1029D0000701B7516224B76FB851632003D0B80E16
:1029E000B76F0B0EB86FB7C73AF0B8C73BF03C6A89
:1029F0003D6A3BAE02D03C683D683AC0E6FF3BC052
:102A0000E6FF3CC0E6FF3DC0E6FF080EE66E26ECA2
:102A10006CF03E6E050EE15E3E5003D0466B010E3B
:102A2000DF6EDF503A6E070EE15C02E2E16AE552CA
:102A3000E16E3A50E552E7CFD9FF120068EC24F07E
:102A40002E0EE66E5FEC71F0E552036A030E026E25
:102A50001200050EE66EE66A3AC3E6FF3BC3E6FFE8
:102A6000C2EC30F0E552E552E552E552F3CF3AF3CD
:102A7000F4CF3BF3050EE66EE66A82C3E6FF83C33E
:102A8000E6FFC2EC30F0E552E552E552E552F3CFF5
:102A900082F3F4CF83F30301CA6BCB6B1200D9CF5F
:102AA000E6FFE652010E0501906F916B0601E99574
:102AB000E993EE97E552E552E7CFD9FF12005DC5E5
:102AC0005AF55EC55BF55FC55CF56EC56BF56FC508
:102AD0006CF570C56DF50601EA99E995E993EC9DF1
:102AE000036A1200B3C7E6FFB4C7E6FF9BEC4AF0E7
:102AF000E552E552F3CFB9F7F4CFBAF70701D88022
:102B0000F45004E7E40EB95DFF0EBA5904E2E40E96
:102B1000B96FBA690DD0BA3509E2B9511C08000E77
:102B2000BA5504E21C0EB96FBA6B02D0BAC7BAF735
:102B3000090EE66EB5C74AF0B6C74BF04C6A4D6A4F
:102B40004BAE02D04C684D68A8C546F0476A486A4B
:102B5000496A46AE03D0476848684968B9C742F039
:102B6000BAC743F0446A456A43AE02D04468456838
:102B700042C062F043C063F044C064F045C065F0F9
:102B800046C067F047C068F048C069F049C06AF0C5
:102B900084EC72F05EC03EF05FC03FF060C040F079
:102BA00061C041F05EC062F05FC063F060C064F07D
:102BB00061C065F04AC067F04BC068F04CC069F076
:102BC0004DC06AF084EC72F05EC03AF05FC03BF03A
:102BD00060C03CF061C03DF05EC0E6FF5FC0E6FF54
:102BE00060C0E6FF61C0E6FFD7EC49F04E6E050E0F
:102BF000E15E4E5062C0B9F763C0BAF762C0F3FF3E
:102C000063C0F4FF1200D9CFE6FFE1CFD9FF8AC538
:102C10003AF08BC53BF03C6A3D6A3BAE02D03C6863
:102C20003D68480E3A5E000E3B5A3C5A3D5A3AC047
:102C3000B5F73BC0B6F70701800E3B1403E0B56B58
:102C4000B66B0DD0B63509E2B5510008010EB65588
:102C500004E2B56B010EB66F02D0B6C7B6F7FC0E34
:102C6000DBCF57F5FD0EDBCF58F5FE0EDBCF59F568
:102C7000F90EDBCF68F5FA0EDBCF69F5FB0EDBCF83
:102C80006AF505015D51575D606F5E515859616F7E
:102C90005F515959626F6E51685D716F6F5169591B
:102CA000726F70516A59736F71C563F072C564F0C9
:102CB000656E71C568F072C569F06A6ED1EC59F045
:102CC00060C03EF061C03FF062C040F060C563F09C
:102CD00061C564F062C565F060C568F061C569F002
:102CE00062C56AF0D1EC59F03E5060243A6E3F5014
:102CF00061203B6E405062203C6E3D6A3CBE3D68A8
:102D00003AC0E6FF3BC0E6FF3CC0E6FF3DC0E6FF41
:102D1000DCEC4DF0E552E552E552E55262C0C5F7F4
:102D200063C0C6F764C0C7F765C0C8F70501800E69
:102D3000621518E060C5BFF761C5C0F762C5C1F78D
:102D4000686869686A6860C563F061C564F062C5F7
:102D500065F0D1EC59F060C0BFF761C0C0F762C048
:102D6000C1F706D060C5BFF761C5C0F762C5C1F73E
:102D70000501800E731518E071C5C2F772C5C3F75F
:102D800073C5C4F7686869686A6871C563F072C51D
:102D900064F073C565F0D1EC59F060C0C2F761C052
:102DA000C3F762C0C4F706D071C5C2F772C5C3F7D6
:102DB00073C5C4F7BF0EE96E070EEA6E020EEB5044
:102DC0000701C419E8AE02D0C43506D0C251EE5C8A
:102DD000C351EE58C451EE5807E2C2C777F9C3C7D2
:102DE00078F9C4C779F906D0BFC777F9C0C778F9B1
:102DF000C1C779F977C93AF078C93BF079C93CF095
:102E00003D6A3CBE3D68D8903D50000A08E6500E31
:102E10003A5C0B0E3B58000E3C58000E3D5842E207
:102E2000C2C763F0C3C764F0C4C765F0C2C768F027
:102E3000C3C769F0C4C76AF0D1EC59F060C03EF076
:102E400061C03FF062C040F0BFC763F0C0C764F02C
:102E5000C1C765F0BFC768F0C0C769F0C1C76AF0F5
:102E6000D1EC59F03E5060243A6E3F5061203B6EE9
:102E7000405062203C6E3D6A3CBE3D683AC0E6FF71
:102E80003BC0E6FF3CC0E6FF3DC0E6FFDCEC4DF09A
:102E9000E552E552E552E55262C077F963C078F930
:102EA00064C079F960C53AF061C53BF062C53CF099
:102EB0003D6A3CBE3D683AC0E6FF3BC0E6FF3CC011
:102EC000E6FF3DC0E6FF71C53EF072C53FF073C539
:102ED00040F0416A40BE41683EC0E6FF3FC0E6FFA9
:102EE00040C0E6FF41C0E6FFE0EC4BF0426E080E4A
:102EF000E15E4250F3CF7CF9F4CF7DF977C9C5F795
:102F000078C9C6F779C9C7F70701C86BC7BFC869D1
:102F1000020EE66EC50EE96E070EEA6EEE5009016E
:102F20004C5D3A6EEE504D593B6EEE504E593C6E34
:102F3000EE504F593D6E3AC0E6FF3BC0E6FF3CC045
:102F4000E6FFE66ED7EC49F03E6E050EE15E62C02C
:102F5000CBF763C0CCF7C5C74CF9C6C74DF9C7C797
:102F60004EF9C8C74FF9010EE66E625009015025AF
:102F70003A6E635051213B6E3AC0E6FFE66E87EC35
:102F800049F0E552E552E552F3CFCBF7F4CFCCF759
:102F90000701800EF41409E0CBC73AF0CCC73BF030
:102FA0003A6C3B1E000E3B2204D0CBC73AF0CCC794
:102FB0003BF0D8903B5004E6320E3A5C000E3B5892
:102FC00003E2CB6BCC6B22D0CBC750F9CCC751F905
:102FD000020EE66ECBC7E6FFCCC7E6FF87EC49F0F2
:102FE000E552E552E552F3CF3AF0F4CF3BF03C6ABC
:102FF0003D6A3BAE02D03C683D683A500701C55F70
:103000003B50C65B3C50C75B3D50C85BFEC33AF0CB
:10301000FFC33BF0D8903A363B363C6A3BBE3C6837
:1030200005019A513C18E8AE02D03C3406D03A5023
:10303000985D3B5099593C509A5902E3000E01D0DB
:10304000010E0601E995E8B0E985E951040B50E06D
:103050008F0EE96E000EEA6EEE5000018C5D3D6E43
:10306000EE508D593E6EEE508E593F6E800E3F14DD
:103070001EE08F0EE96E000EEA6EEE508C5D3A6E29
:10308000EE508D593B6EEE508E593C6E6868696803
:103090006A683AC063F03BC064F0656ED1EC59F0E9
:1030A00060C03AF061C03BF062C03CF00DD08F0EC2
:1030B000E96E000EEA6EEE508C5D3A6EEE508D5960
:1030C0003B6EEE508E593C6E8CC540F08DC541F084
:1030D000426A41BE42683C504218E8AE02D04234D7
:1030E00006D040503A5C41503B5842503C5802E3B5
:1030F000000E01D0010E0601E993E8B0E983070153
:10310000B63501E350D2B5510008000EB65501E3C3
:103110004AD20401665109017C5D3A6E7D51040179
:1031200067553B6E3AC0E6FFE66E9BEC4AF0E5520F
:10313000E552F3CFB3F7F4CFB4F70901800E791558
:1031400003E03A6A3B6A15D07935000E791907E633
:10315000D880800E77553E0E7855000E795505E2E1
:10316000800E3A6E3E0E3B6E04D077C93AF078C9B5
:103170003BF03AC0D9F73BC0DAF7100EE66E9BC5BC
:1031800040F0416A40BE416807014050D903F3CF87
:103190003EF0F4CF3FF0DA03F3503F264150D9031D
:1031A000F35000013F26B5C7E8FF3E02F3CF3AF0E7
:1031B000F4CF3BF03F02F3503B26B6C7E8FF3E0298
:1031C000F3503B263C6A3D6A3BAE02D03C683D680A
:1031D0003AC0E6FF3BC0E6FF3CC0E6FF3DC0E6FF6D
:1031E000D7EC49F0426E050EE15E62C0C9F763C0DC
:1031F000CAF70701800E631403E0C96BCA6B17D0CE
:10320000050191510701CA19E8AE02D0CA3507D0AD
:10321000C9510501905D0701CA510501915905E2A7
:1032200090C5C9F791C5CAF702D0CAC7CAF7070146
:10323000CB51C95DCD6FCC51CA59CE6F010EE66E30
:10324000E66ACDC73AF0CEC73BF03C6A3D6A3BAE7A
:1032500002D03C683D683AC0E6FF3BC0E6FF3CC098
:10326000E6FF3DC0E6FF52C93EF053C93FF0406A59
:10327000416A3FAE02D0406841683EC0E6FF3FC0B1
:10328000E6FF40C0E6FF41C0E6FFC4EC31F0426E0D
:103290000A0EE15E62C0CDF763C0CEF762C052F99C
:1032A00063C053F99CC53AF03B6A3ABE3B680701DC
:1032B0003A50CD03F3CFCFF7F4CFD0F7CE03F3508E
:1032C000D0273B50CD03F350D027D16BD26BD0AF7A
:1032D00002D0D169D269020EE66ECDC7E6FFCEC735
:1032E000E6FF87EC49F0E552E552E552F3CF3AF0BC
:1032F000F4CF3BF03C6A3D6A3BAE02D03C683D688F
:103300003A500501A0273B50A1233C50A2233D5039
:10331000A3239EC53AF09FC53BF03A6C3B1E000EBE
:103320003B223C6A3D6A3BAE02D03C683D68A351FB
:103330003D18E8AE02D03D3408D03A50A05D3B5075
:10334000A1593C50A2593D50A3590DE29EC5A0F58C
:103350009FC5A1F5A06DA11F000EA123A26BA36BB9
:10336000A1AF27D021D09EC53EF09FC53FF0406A57
:10337000416A3FAE02D0406841684150A319E8AEAF
:1033800002D0A33508D0A0513E5CA1513F58A251B4
:103390004058A35141580BE29EC5A0F59FC5A1F529
:1033A000A26BA36BA1AF05D0A269A36902D0A3C58C
:1033B000A3F50701D36BD46BD56BD66B080EE66E05
:1033C000D30EE96E070EEA6ECF51EE243A6ED0515D
:1033D000EE203B6ED151EE203C6ED251EE203D6E80
:1033E0003AC0E6FF3BC0E6FF87EC49F0E552E55204
:1033F000E552F3CFD7F7F4CFD8F7A6C53AF0A7C573
:103400003BF03A6C3B1E000E3B220701F4503B1888
:10341000E8AE02D03B3404D03A50D75D3B50D85987
:1034200009E2A6C5D7F7A7C5D8F7D76DD81F000EF4
:10343000D82317D00501A7510701D819E8AE02D04B
:10344000D83507D0D7510501A65D0701D851050130
:10345000A75905E2A6C5D7F7A7C5D8F702D0D8C7A0
:10346000D8F7080EE66EB3C7E6FFB4C7E6FFC7ECB1
:103470004BF0E552E552F3CF3EF0F4CF3FF00701B9
:10348000F350D703F3CF3AF0F4CF3BF0D803F35027
:103490003B263F50D703F35000013B263C6A3D6A70
:1034A0003BAE02D03C683D683AC0E6FF3BC0E6FF59
:1034B0003CC0E6FF3DC0E6FFD7EC49F0406E050E8C
:1034C000E15E40506768686869686A6884EC72F019
:1034D0005EC082F35FC083F3080EE66EB3C7E6FFFB
:1034E000B4C7E6FF4EEC4BF0E552E552F3CF3EF0A9
:1034F000F4CF3FF00701F350D703F3CF3AF0F4CF06
:103500003BF0D803F3503B263F50D703F350000164
:103510003B263C6A3D6A3BAE02D03C683D683AC0FF
:10352000E6FF3BC0E6FF3CC0E6FF3DC0E6FFD7EC50
:1035300049F0406E050EE15E62C03AF363C03BF3B2
:103540000301CA6BCB6B0601E751020B27E08EC566
:103550003AF08FC53BF03C6A3D6A3BAE02D03C6816
:103560003D683D500701C819E8AE02D0C83508D003
:10357000C5513A5CC6513B58C7513C58C8513D589B
:103580000DE2B3C7E6FFB4C7E6FF9BEC4AF0E55295
:10359000E552F3CFA4F5F4CFA5F507D068C4A4F5A0
:1035A00069C4A5F502D029EC15F0E552E7CFD9FFA3
:1035B0001200D9CFE6FFE1CFD9FFE6520601ECAF0A
:1035C0000CD0EAAF02D0030E01D0010E046EEA5116
:1035D000800B01E0010EDF6E02D0046ADF6ADF506B
:1035E000E552E552E7CFD9FF1200D9CFE6FFE1CF90
:1035F000D9FF040EE126FAEC6BF03D6A63C0DFFFF1
:10360000010E64C0DBFF020E65C0DBFF030E3DC090
:10361000DBFF54C93AF055C93BF056C93CF03D6A4E
:10362000D9CFE9FFDACFEAFFEE503A5CEE503B58D3
:10363000EE503C58EE503D5842E20001FF51FE5D15
:103640003EE0DC0E3A6E050E3B6E3C6A3D6AD9CF19
:10365000E9FFDACFEAFFEE503A26EE503B22EE5079
:103660003C22EE503D223AC054F93BC055F93CC0D3
:1036700056F9010E0501906F916B0001FE51020A8F
:1036800018E0030A12E0010A18E10601E991E89F37
:10369000EF9F040E025C06E18FC08CF090C08DF0AD
:1036A00091C08EF00A0E036E08D00601EF8FE991EB
:1036B00003D00601E981EF8FE89FFEC0FFF0040E02
:1036C000E15C02E2E16AE552E16EE552E7CFD9FF43
:1036D00012000601EAADD1D0E797EE51080B01E1E7
:1036E000FFD0055001E1FCD0EE9703500A0A01E13A
:1036F000A4D00A0A01E1A1D0010A6EE0030A3CE06D
:10370000010A10E0070A01E0EBD0E66AE66AE66A21
:10371000E66AE66AE66A03EC16F03A6E060EE15EC9
:103720003A5027D0E66AE66AE66AE66AE66AE66A38
:1037300003EC16F03A6E060EE15E3A500601E9A17E
:1037400079D08FC03AF090C03BF091C03CF03D6A18
:103750003CBE3D68D8903D50000A08E62C0E3A5C0D
:10376000010E3B58000E3C58000E3D5802E2040E7C
:10377000036E12EC14F0B4D0E66AE66AE66AE66A12
:10378000E66AE66A03EC16F03A6E060EE15E3A501F
:103790000601E9A14FD0E9A31DD0E951100B01E1C9
:1037A0009FD0FAEC6BF063500501185D6450195915
:1037B00065501A5901E394D0980EE66E3A0EE66E03
:1037C000E66AE66A080EE66E26EC6CF0050EE15E2F
:1037D000030E3CD0EC9D39D0E66AE66AE66AE66AFA
:1037E000E66AE66A03EC16F03A6E060EE15E3A50BF
:1037F0000601E9A11FD0E9A373D07EC93AF07FC9C1
:103800003BF080C93CF03D6A7EC9E6FF7FC9E6FF18
:1038100080C9E6FF3DC0E6FF080EE66E26EC6CF0C0
:10382000050EE15E9EC08CF09FC08DF0A0C08EF0B2
:10383000020E0CD05FEC15F053D0E9A109D09EC068
:103840008CF09FC08DF0A0C08EF0010E036E48D0AA
:10385000E8B902D05FEC15F06BC5E6FF6CC5E6FF7A
:103860006DC5E6FF5AC5E6FF5BC5E6FF5CC5E6FF32
:1038700003EC16F0060EE15E33D04FEC15F003506A
:103880000B0A1CE00B0A1AE00A0A18E0090A03E016
:10389000070A26E013D00601E951010B03E189DE96
:1038A00000090AE00601E7A11BD012EC14F00009A0
:1038B00017E01EEC15F014D00A0E11D00A0E036E9C
:1038C0000601E951010B03E174DE000909E071DE34
:1038D0000601E797E8B0E7870901466B030E036E20
:1038E0000601EB99120009017C6B7D6B000E030150
:1038F000CA6FCB6B826F836B3A6F3B6B0501716B49
:10390000726B736B71C560F572C561F573C562F555
:10391000926B936B946B00018C6B8D6B8E6B036A57
:1039200000018A6B8B6B0001886B896B0601E9953E
:10393000E993EE97320E05018E6F8F6B1E0E8C6F22
:0C3940008D6B0601E993E995EC9D1200E7
:04394C0023C7E9FFA5
:10395000EA6AE9BEEA68D890E936EA36740EE926E2
:103960000F0EEA22EECFE6FFEFCFE6FFA4EC5FF00A
:10397000E552E5521200D9CFE6FFE1CFD9FFFD0EA7
:10398000DBCF3CF0FE0EDBCF3DF0D8903D5004E69F
:10399000010E3C5C000E3D5802E2010E0ED0FD0E01
:1039A000DBCF3EF0FE0EDBCF3FF03F3409E23E506E
:1039B000D008000E3F5404E2D00E3A6E3B6A04D0A9
:1039C000FD0EDBCF3AF0FE0E3A50E552E7CFD9FFBD
:1039D0001200D9CFE6FFE1CFD9FFFE0EDBCF3DF0DD
:1039E000800E3D1402E03A6A19D0FD0EDBCF3EF0A6
:1039F000FE0EDBCF3FF00F012F513F18E8AE02D093
:103A00003F3404D03E502E5D3F502F5903E22ECF5D
:103A10003AF004D0FD0EDBCF3AF0FE0E3A50E552FC
:103A2000E7CFD9FF1200D9CFE6FFE1CFD9FF080ECB
:103A3000E66EF90EDBCF64F0FA0EDBCF65F030CF27
:103A400069F031CF6AF086EC59F062C03EF063C095
:103A50003FF0F70EDBCF64F0F80EDBCF65F032CF2E
:103A600069F033CF6AF086EC59F03E5062243A6E2A
:103A70003F5063203B6E3C6A3D6A3BAE02D03C68DF
:103A80003D683AC0E6FF3BC0E6FF3CC0E6FF3DC0F4
:103A9000E6FFD7EC49F0406E050EE15E405062C093
:103AA00034FF63C035FF080EE66EF90EDBCF42F03F
:103AB000FA0EDBCF43F0426C431E000E432200019E
:103AC00032CFE8FF4202F3CF40F0F4CF41F043029F
:103AD000F350412633CFE8FF4202F3504126F70E60
:103AE000DBCF64F0F80EDBCF65F030CF69F031CF7B
:103AF0006AF086EC59F0405062243C6E41506320DD
:103B00003D6E3E6A3F6A3DAE02D03E683F683CC0B3
:103B1000E6FF3DC0E6FF3EC0E6FF3FC0E6FFD7EC54
:103B200049F0446E050EE15E445062C03AF063C055
:103B30003BF0FB0EDBCFE9FFFC0EDBCFEAFF62C000
:103B4000EEFF3BC0EDFFFD0EDBCFE9FFFE0EDBCF4E
:103B5000EAFF34CFEEFF35CFEDFFE552E7CFD9FFD7
:103B60001200D9CFE6FFE1CFD9FF0901365115E0A8
:103B700070C0E6FF71C0E6FF72C0E6FF73C0E6FFEB
:103B8000700EE66E000EE66E720EE66E000EE66ECB
:103B90004ADF3A6E080EE15E3A50FD0EDBCF06FFBB
:103BA000FE0EDBCF07FF06CF04FF07CF05FF06CFD2
:103BB00002FF07CF03FF06CF00FF07CF01FF6468B6
:103BC000656870C069F071C06AF086EC59F0745095
:103BD000625C3A6E755063583B6E3A500F01022793
:103BE0003B5003237450705C3A6E755071583B6EB5
:103BF0003A5004273B5005236468656872C069F039
:103C000073C06AF086EC59F0625074243A6E6350C7
:103C100075203B6E3A500F0100273B500123725034
:103C200074243A6E735075203B6E3A5006273B5011
:103C30000723E552E7CFD9FF1200D9CFE6FFE1CF46
:103C4000D9FF0F0101510319E8AE02D0033504D0AA
:103C50000251005D0351015905E202CF44FF03CF39
:103C600045FF04D000CF44FF01CF45FF466B45BF61
:103C7000466904CF3AF005CF3BF03C6A3BBE3C6856
:103C800046513C18E8AE02D03C3406D03A50445D70
:103C90003B5045593C50465909E204CF44FF05CFFB
:103CA00045FF466B45AF04D0466902D046CF46FF7C
:103CB00006CF3AF007CF3BF03C6A3BBE3C6846512A
:103CC0003C18E8AE02D03C3406D03A50445D3B503C
:103CD00045593C50465909E206CF44FF07CF45FFFE
:103CE000466B45AF04D0466902D046CF46FFFD0E75
:103CF000DBCF3AF0FE0EDBCF3BF03C6A3BBE3C68CC
:103D0000440EE96E0F0EEA6E3A50EE5C476F3B5080
:103D1000EE58486F3C50EE58496FE834000E491990
:103D200007E6D880000E4755000E4855000E49554D
:103D300001E3DCD1D00E3D6E3E6A3F6AFD0EDBCF63
:103D400040F0FE0EDBCF41F0426A41BE4268405077
:103D50003D5C3A6E41503E583B6E42503F583BC02E
:103D60003CF03AC03BF03A6A3AC063F03BC064F0C2
:103D70003CC065F047CF68F048CF69F049CF6AF0A2
:103D800025EC59F0D8906550000A06E6000E635CF9
:103D9000000E6458000E65583AE2D00E466E476A2F
:103DA000486AFD0EDBCF49F0FE0EDBCF4AF04B6ACE
:103DB0004ABE4B684950465C436E4A504758446E71
:103DC0004B50485844C045F043C044F0436A43C098
:103DD00063F044C064F045C065F047CF68F048CF59
:103DE00069F049CF6AF025EC59F063C03EFF64C02A
:103DF0003FFF65C040FF686869686A68D1EC59F0A8
:103E000060C03EFF61C03FFF62C040FF2ED0D00EB9
:103E10004F6E506A516AFD0EDBCF52F0FE0EDBCFC3
:103E200053F0546A53BE546852504F5C4C6E53501A
:103E300050584D6E545051584DC04EF04CC04DF03E
:103E40004C6A4CC063F04DC064F04EC065F047CF83
:103E500068F048CF69F049CF6AF025EC59F063C0AB
:103E60003EFF64C03FFF65C040FFFD0EDBCF3DF06D
:103E7000FE0EDBCF3EF03F6A3EBE3F683EC440F0E0
:103E80003FC441F0426A41BE426840503D5C3A6ED8
:103E900041503E583B6E42503F583BC03CF03AC008
:103EA0003BF03A6A3AC063F03BC064F03CC065F056
:103EB00047CF68F048CF69F049CF6AF025EC59F058
:103EC000D8906550000A06E6000E635C000E645848
:103ED000000E65583DE2FD0EDBCF46F0FE0EDBCF57
:103EE00047F0486A47BE48683EC449F03FC44AF0BC
:103EF0004B6A4ABE4B684950465C436E4A5047582D
:103F0000446E4B50485844C045F043C044F0436AA7
:103F100043C063F044C064F045C065F047CF68F02B
:103F200048CF69F049CF6AF025EC59F063C041FFF2
:103F300064C042FF65C043FF686869686A68D1EC85
:103F400059F060C041FF61C042FF62C043FF31D001
:103F5000FD0EDBCF4FF0FE0EDBCF50F0516A50BEAE
:103F600051683EC452F03FC453F0546A53BE546883
:103F700052504F5C4C6E535050584D6E54505158E7
:103F80004DC04EF04CC04DF04C6A4CC063F04DC07B
:103F900064F04EC065F047CF68F048CF69F049CF74
:103FA0006AF025EC59F063C041FF64C042FF65C070
:103FB00043FF3E0EE96E0F0EEA6E020EEB500F014C
:103FC0004319E8AE02D0433506D04151EE5C425170
:103FD000EE584351EE5807E23ECF3BFF3FCF3CFF48
:103FE00040CF3DFF06D041CF3BFF42CF3CFF43CF08
:103FF0003DFF3D35000E3D1907E6D880000E3B55CC
:10400000000E3C55000E3D5504E3010E3B6F3C6B2A
:104010003D6BD8903D51000A06E6000E3B5D010E57
:104020003C59000E3D5960E2010E3A6F70C03AF003
:1040300071C03BF03C6A3BBE3C683AC063F03BC099
:1040400064F03CC065F03BCF68F03CCF69F03DCFF9
:104050006AF0D1EC59F060C04AFF61C04BFF62C00A
:104060004CFF61C070F062C071F072C03AF073C072
:104070003BF03C6A3BBE3C683AC063F03BC064F036
:104080003CC065F03BCF68F03CCF69F03DCF6AF0B3
:10409000D1EC59F060C04AFF61C04BFF62C04CFFD9
:1040A00061C072F062C073F074C03AF075C03BF04A
:1040B0003C6A3BBE3C683AC063F03BC064F03CC025
:1040C00065F03BCF68F03CCF69F03DCF6AF0D1ECB2
:1040D00059F060C04AFF61C04BFF62C04CFF61C035
:1040E00074F062C075F003D03A6B01D03A6BE552C0
:1040F000E7CFD9FF120004013D5104013F19E8AE9A
:1041000002D03F3507D03E5104013C5D04013F51D0
:1041100004013D5903E20F012C6B2DD03CC42CFF50
:104120003DC42DFF040E025C2AE1000194510F01F1
:104130002C27000195510F012D232D5104013F190A
:10414000E8AE02D03F3507D03E510F012C5D04018F
:104150003F510F012D5905E23EC42CFF3FC42DFFF6
:104160000ED00F012D3509E22C51BB08000E2D5544
:1041700004E2BB0E2C6F2D6B02D02DCF2DFF04015E
:104180003F510F012D19E8AE02D02D3507D02C512B
:1041900004013E5D0F012D5104013F5919E22CCF5E
:1041A000E6FF2DCFE6FFDDDCE552E5522CCFE6FF42
:1041B0002DCFE6FF42DDE552E5520F013A5118E0FE
:1041C0002CCFE6FF2DCFE6FFCCDCE552E552120006
:1041D0002CCF04FF2DCF05FF2CCF02FF2DCF03FFE7
:1041E0002CCF00FF2DCF01FF2CCF06FF2DCF07FFD7
:1041F000120060C382F061C383F018C380F019C35A
:1042000081F012C73DF03E6A3F6A3DAE02D03E6883
:104210003F6880C03AF081C03BF03C6A3BBE3C68DE
:104220003AC063F03BC064F03CC065F03DC068F04C
:104230003EC069F03FC06AF0D1EC59F060C054FF55
:1042400061C055FF62C056FF27C73AF03B6A3ABECD
:104250003B680F0155513A24576F56513B20586F18
:10426000596B5A6B58AF02D059695A6920CF3AF04E
:1042700021CF3BF03C6A3D6A3BAE02D03C683D68D2
:104280003AC062F03BC063F03CC064F03DC065F0F2
:1042900057CF67F058CF68F059CF69F05ACF6AF01E
:1042A00084EC72F05EC057FF5FC058FF60C059FFDA
:1042B00061C05AFF6F0E0F015727000E5823592374
:1042C0005A23020EE66EE66A57CFE6FF58CFE6FFA6
:1042D00059CFE6FF5ACFE6FF08CF3AF009CF3BF0BF
:1042E0003C6A3D6A3BAE02D03C683D683AC0E6FF9E
:1042F0003BC0E6FF3CC0E6FF3DC0E6FFC4EC31F04A
:104300003E6E0A0EE15E3E5062C008FF63C009FFC8
:1043100019C73DF03E6A3F6A3DAE02D03E683F6835
:1043200082C03AF083C03BF03C6A3BBE3C683AC076
:1043300063F03BC064F03CC065F03DC068F03EC037
:1043400069F03FC06AF0D1EC59F060C054FF61C021
:1043500055FF62C056FF010EE66E44C43AF045C4F4
:104360003BF0030E3B02F3CF3BF03A02F3CF3AF0BF
:10437000F4503B26F3CFE6FF3BC0E6FF87EC49F065
:10438000E552E552E5520F015551F3245B6F56514A
:10439000F4205C6F5D6B5E6B5CAF02D05D695E6943
:1043A00022CF3AF023CF3BF03C6A3D6A3BAE02D0CD
:1043B0003C683D683AC062F03BC063F03CC064F0CA
:1043C0003DC065F05BCF67F05CCF68F05DCF69F012
:1043D0005ECF6AF084EC72F05EC05BFF5FC05CFF92
:1043E00060C05DFF61C05EFF6F0E0F015B27000EB6
:1043F0005C235D235E23020EE66EE66A5BCFE6FF7A
:104400005CCFE6FF5DCFE6FF5ECFE6FF0ACF3AF076
:104410000BCF3BF03C6A3D6A3BAE02D03C683D6846
:104420003AC0E6FF3BC0E6FF3CC0E6FF3DC0E6FF0A
:10443000C4EC31F00A0EE15E62C00AFF63C00BFFFC
:10444000120007012351010A74E0020A31E0010A57
:1044500001E0120024EC6BF0100EE66E40EC6BF005
:10446000E5520F01606F5F6B040E5F5D1AE25F51F2
:10447000E96EEA6AD890E936EA36000EE9260F0EB0
:10448000EA22EECFE6FFEFCFE6FFE9EC1CF0E552C3
:10449000E552E66E40EC6BF0E5520F0160275F2BB2
:1044A000E3D733EC6BF00F016051246F256B1200E2
:1044B0000F015F6B040E5F5D01E379D024EC6BF0BC
:1044C0000F015F51E824620FE66E40EC6BF0E5529D
:1044D0000F01606F5F51E96EEA6AD890E936EA36FB
:1044E000000EE9260F0EEA22EECFE6FFEFCFE6FF41
:1044F000E9EC1CF0E552E552E8407F0BE66E40EC3B
:104500006BF0E5520F01602733EC6BF00F01605147
:10451000E66E5F51E96EEA6AD890E936EA36240E13
:10452000E9260F0EEA22E552E750EE6EED6A5F2BA8
:10453000C1D70F015F6B040E5F5D39E224EC6BF0B5
:104540000F015F51E824520FE66E40EC6BF0E5522C
:104550000F01606F5F51E96EEA6AD890E936EA367A
:10456000000EE9260F0EEA22EECFE6FFEFCFE6FFC0
:10457000E9EC1CF0E552E552E66E40EC6BF0E552DA
:104580000F01602733EC6BF00F016051E66E5F5155
:10459000E96EEA6AD890E936EA36240EE9260F0E6B
:1045A000EA22E552E750EE6EED6A5F2BC4D71200A7
:1045B0000601EAAB8DD906010601EA51020B04E1BE
:1045C00070EC2EF0000918E10EC370F00FC371F00B
:1045D000706C711E000E712256C372F057C373F0D7
:1045E000726C731E000E73229EC374F09FC375F02D
:1045F000746C751E000E7522FAEC6BF063C06AFFD6
:1046000064C06BFF65C06CFF0F016D6B36C53AF07F
:1046100037C53BF038C53CF03D6A3A500F016A5D42
:104620003B500F016B593C500F016C593D500F012D
:104630006D5902E2000E01D0010E0901456F09011A
:1046400045510DE0140EE66EE66AE66AE66A120E61
:10465000E66E26EC6CF03A6E050EE15E3A5007010C
:10466000235101E031D1F29ED7EC6BF062C062FFC2
:1046700063C063FF64C064FF65C065FFC40E0F01C3
:104680006227090E0F016323000E0F016423000E41
:104690000F0165230901455106E03F0E816E0001BF
:1046A0003F0E766F07D00F0E811200010F0E766F4E
:1046B00000000000F28E1FDD9CDD000E0701E76E9A
:1046C0003C19E8AE02D03C3503D0E750D8803C55C9
:1046D00047E20F01616B060E0F01615D41E2010EC1
:1046E000E66E0F016151E96EEA6AD890E936EA3662
:1046F0000C0EE9260F0EEA22EECF3EF0EFCF3FF090
:104700000F016151E96EEA6AD890E936EA36000E87
:10471000E9260F0EEA223E50EE243C6E3F50EE207A
:104720003D6E3CC0E6FF3DC0E6FF87EC49F0E55238
:10473000E552E552F3CF3AF0F4CF3BF00F0161516F
:10474000E96EEA6AD890E936EA360C0EE9260F0ED1
:10475000EA223AC0EEFF3BC0EDFF0F01612BBBD751
:104760000CCFE6FF0DCFE6FFBBEC1CF0E552E552A7
:10477000776E0ECFE6FF0FCFE6FFBBEC1CF0E552E5
:10478000E552786E10CFE6FF11CFE6FFBBEC1CF0D0
:10479000E552E552796E12CFE6FF13CFE6FFBBEC90
:1047A0001CF0E552E5527A6E14CFE6FF15CFE6FF16
:1047B000BBEC1CF0E552E5527B6E16CFE6FF17CF3F
:1047C000E6FFBBEC1CF0E552E5527C6E62CF66FF63
:1047D00063CF67FF64CF68FF65CF69FF8C0E0F0161
:1047E000665F000E0F01675B000E0F01685B000E35
:1047F0000F01695BD7EC6BF00F016651625C0F0132
:10480000675163580F01685164580F016951655829
:1048100001E2F0D7F29EF250200B01E0010E3A6E59
:10482000F250040B01E0010E3A1408E0062A000ED3
:104830000722F2940F016E6B6F6B04D0D6CF6EFF20
:10484000D7CF6FFF06C070FF07C071FF6E0EE96E15
:104850000F0EEA6E0F016251EE5C0F016351EE58CC
:104860000F016451EE580F016551EE58D4E3000179
:104870007651816E3F0B26E0772F40EF24F0769142
:10488000782F44EF24F07693792F48EF24F0769533
:104890007A2F4CEF24F076977B2F50EF24F0769907
:1048A0007C2F54EF24F0769B010EE66E28EC74F01A
:1048B000E552010EE66E28EC74F0E55200000000AF
:1048C00038EF24F0F28E03D016DC93DCBADD120050
:1048D000000E0F01046F056B026F036B006F016B1D
:1048E000066B076B0601EA9B12000F01736B060E45
:1048F000735D1AE27351E96EEA6AD890E936EA36D6
:104900000C0EE9260F0EEA22EE6AED6A7351E96E8B
:10491000EA6AD890E936EA36000EE9260F0EEA2256
:10492000EE6AED6A732BE3D7D3DF6F0E0F01086FCA
:08493000096B0A6F0B6B12000A
:08493800D9CFE6FFE1CFD9FF62
:10494000FE0EEA6ADB34FE0BEA36E96E660EE926F5
:10495000090EEA22EECFE6FFEFCFE6FFA4EC5FF010
:10496000E552E552E552E7CFD9FF12000601006B90
:104970000051020858E30051480DF3CF01F6F4CF7F
:1049800002F6000E0127030E022301C6E9FF02C64C
:10499000EAFF100EE926000EEA22EECF40F0EFCF3C
:1049A00041F001C6E9FF02C6EAFF120EE926000E39
:1049B000EA22EE50405C3E6EEE5041583F6E0801D8
:1049C000F751F76A660FF66EE80EF7220800F5CF8A
:1049D00042F0436A42BE4368000142503E02F3CFB8
:1049E0003AF0F4CF3BF03F02F3503B2643503E02F7
:1049F000F3503B263C6A3D6A3BAE02D03C683D68C2
:104A000001C6E9FF02C6EAFF1C0EE926000EEA22F3
:104A10003AC0EEFF3BC0EEFF3CC0EEFF3DC0EEFFF4
:104A20000601002BA5D71200D9CFE6FFE1CFD9FFB1
:104A30000601036B0351020810E30351040DF3CF89
:104A4000E9FFF4CFEAFF080EE926060EEA22EE6A35
:104A5000EE6AEE6AEE6A032BEDD7066B076BFD0E6E
:104A6000DBCF3AF0FE0EDBCF3BF03A50065D3B5019
:104A700007594BE200B405D0040EE66E53EC71F01A
:104A800004D0040EE66E5FEC71F0E552140EE66E93
:104A9000E66A80EC2EF0E552E552D8EC22F0C8DB55
:104AA0000601036B035102082CE30351480DF3CFB9
:104AB000E9FFF4CFEAFF000EE926030EEA22100E0A
:104AC000E926000EEA22EECF3AF0EFCF3BF03C6A47
:104AD0003D6A3BAE02D03C683D680351040DF3CF04
:104AE000E9FFF4CFEAFF080EE926060EEA223A5063
:104AF000EE263B50EE223C50EE223D50EE22032BA0
:104B0000D1D7062B000E0723AAD7036B0351020847
:104B100001E283D00351480DF3CF04F6F4CF05F63C
:104B2000000E0427030E0523FD0EDBCF40F0FE0E22
:104B3000DBCF41F0426A436A0351040DF3CFE9FF32
:104B4000F4CFEAFF080EE926060EEA22EECF3CF08B
:104B5000EECF3DF0EECF3EF0EFCF3FF03CC062F045
:104B60003DC063F03EC064F03FC065F040C067F0F8
:104B700041C068F042C069F043C06AF052EC59F09D
:104B800063C03BF004C6E9FF05C6EAFF120E62C02F
:104B9000EBFF130E3BC0EBFF04C6E9FF05C6EAFFBF
:104BA000180EE926000EEA22EE6AED6A3A6A3B6ABE
:104BB0003C6A3D6A3BAE02D03C683D6804C6E9FFF2
:104BC00005C6EAFF200EE926000EEA223AC0EEFFF3
:104BD0003BC0EEFF3CC0EEFF3DC0EEFF04C6E9FF68
:104BE00005C6EAFF1C0EE926000EEA223AC0EEFFD7
:104BF0003BC0EEFF3CC0EEFF3DC0EEFF04C6E9FF48
:104C000005C6EAFF140EE926000EEA22EE6AEE6AF5
:104C1000EE6AEE6A0601032B79D7040EE66E5FECAE
:104C200071F0E552E552E7CFD9FF12000901A95111
:104C3000E96EEA6AD890E936EA36C60EE926090E28
:104C4000EA22EECFE6FFEFCFE6FFA4EC5FF0E552FD
:104C5000E55212000601146B1451020822E31451AC
:104C6000480DF3CFE9FFF4CFEAFF000EE926030E6B
:104C7000EA22340EE926000EEA22EE6AED6A1451A9
:104C8000480DF3CFE9FFF4CFEAFF000EE926030E4B
:104C9000EA22360EE926000EEA22EE6AED6A142BAD
:104CA000DBD70301C46B040EC56FE9EF2BF0D9CF3E
:104CB000E6FFE1CFD9FF030EE66ED2C93CF0D3C9BF
:104CC0003DF0070E3D02F3CF3DF03C02F3CF3CF048
:104CD000F4503D26FD0EDB50F3243A6EFE0EDB5001
:104CE0003D203B6E3AC0E6FFE66E87EC49F0E552A8
:104CF000E552E552F3CFD2F9F4CFD3F93A6A3B6AE1
:104D0000800E3C6E3F0E3D6EF3CF48F0F4CF49F07D
:104D1000000E485E040E495A0001800E49140DE051
:104D2000D2C946F0D3C947F0000E465E040E475A7A
:104D3000466C471E000E472208D0D2C946F0D3C9A0
:104D400047F0000E465E040E475A46C064F047C066
:104D500065F062EC57F063C042F064C043F065C098
:104D600044F066C045F0686A696A6A6A3B0E6B6E19
:104D700092EC58F063C03EF064C03FF065C040F074
:104D800066C041F063C068F064C069F065C06AF055
:104D900066C06BF03AC063F03BC064F03CC065F0A5
:104DA0003DC066F0A8EC57F063C015F664C016F677
:104DB00065C017F666C018F6686A696A6A6A6B6A3F
:104DC000A2EC5AF0010A05E10601156B166B176B90
:104DD000186B15C662F016C663F017C664F018C6E5
:104DE00065F0E552E7CFD9FF120006011C6B1D6B81
:104DF0001E6B1F6B196B195102086EE31951480D98
:104E0000F3CF1AF6F4CF1BF6000E1A27030E1B235E
:104E10001AC6E9FF1BC6EAFF340EE926000EEA2295
:104E2000EECF3CF0EFCF3DF01AC6E9FF1BC6EAFF1C
:104E3000360EE926000EEA22EE503C5C3A6EEE5049
:104E40003D583B6E1AC6E9FF1BC6EAFF320E3AC058
:104E5000EBFF330E3BC0EBFF1AC6E9FF1BC6EAFFB0
:104E6000320EE926000EEA22EECF41F0EFCF42F0FB
:104E7000436A42BE43681AC6E9FF1BC6EAFF320E08
:104E8000E926000EEA22EECF3EF0EFCF3FF0406A77
:104E90003FBE40683EC063F03FC064F040C065F074
:104EA00041C068F042C069F043C06AF0D1EC59F0EB
:104EB00060C03AF061C03BF062C03CF03D6A3CBE6D
:104EC0003D683A5006011C273B501D233C501E23D1
:104ED0003D501F23192B8FD71CC6E6FF1DC6E6FFCA
:104EE0001EC6E6FF1FC6E6FFDCEC4DF0E552E552BC
:104EF000E552E55262C020F663C021F662C0E6FFCB
:104F000063C0E6FFD4DEE552E55262C0ABF963C090
:104F1000ACF964C0ADF965C0AEF93A6A3B6A800E7F
:104F20003C6E440E3D6E20C664F021C665F062EC16
:104F300057F063C03EF064C03FF065C040F066C00B
:104F400041F063C068F064C069F065C06AF066C093
:104F50006BF03AC063F03BC064F03CC065F03DC00C
:104F600066F03FEC58F063C022F664C023F665C0DB
:104F700024F666C025F6ABC968F0ACC969F0ADC9C6
:104F80006AF0AEC96BF0F8C863F0F9C864F0FAC80B
:104F900065F0FBC866F092EC58F063C026F664C07A
:104FA00027F665C028F666C029F60601196B195167
:104FB000010801E23CD11951480DF3CF1AF6F4CFA4
:104FC0001BF6000E1A27030E1B231AC6E9FF1BC689
:104FD000EAFF1C0EE926000EEA22EECF42F0EECFE9
:104FE00043F0EECF44F0EFCF45F042C062F043C053
:104FF00063F044C064F045C065F08FEC57F063C0C7
:105000003EF064C03FF065C040F066C041F0FCC8AF
:1050100068F0FDC869F0FEC86AF0FFC86BF092EC5A
:1050200058F063C03AF064C03BF065C03CF066C025
:105030003DF01AC6E9FF1BC6EAFF140EE926000E72
:10504000EA22EECF63F0EECF64F0EECF65F0EFCF63
:1050500066F03AC068F03BC069F03CC06AF03DC001
:105060006BF0A9EC57F066C0EDFF65C0EDFF64C0C2
:10507000EDFF63C0EFFF1AC6E9FF1BC6EAFF140E7F
:10508000E926000EEA22EECF42F0EECF43F0EECF5B
:1050900044F0EFCF45F04A6A4B6A800E4C6E3F0EEB
:1050A0004D6E26C668F027C669F028C66AF029C684
:1050B0006BF04AC063F04BC064F04CC065F0666EA4
:1050C000A8EC57F063C046F064C047F065C048F0F4
:1050D00066C049F063C068F064C069F065C06AF0FA
:1050E00066C06BF042C063F043C064F044C065F03A
:1050F00045C066F092EC58F063C03EF064C03FF0EB
:1051000065C040F066C041F01AC6E9FF1BC6EAFF61
:10511000320EE926000EEA22EECF5AF0EFCF5BF016
:105120005AC064F05BC065F062EC57F063C056F0A3
:1051300064C057F065C058F066C059F022C668F0E8
:1051400023C669F024C66AF025C66BF092EC58F0CD
:1051500063C052F064C053F065C054F066C055F0AF
:1051600026C668F027C669F028C66AF029C66BF023
:1051700092EC58F063C04EF064C04FF065C050F040
:1051800066C051F063C068F064C069F065C06AF041
:1051900066C06BF03EC063F03FC064F040C065F095
:1051A00041C066F0A8EC57F063C03AF064C03BF031
:1051B00065C03CF066C03DF01AC6E9FF1BC6EAFFB9
:1051C000140EE926000EEA2263C0EEFF3BC0EEFF9C
:1051D0003CC0EEFF3DC0EEFF1AC6E9FF1BC6EAFF6A
:1051E000140EE926000EEA22EECF3CF0EECF3DF0A1
:1051F000EECF3EF0EFCF3FF03CC063F03DC064F037
:105200003EC065F03FC066F041EC5AF064C03AF031
:1052100065C03BF01AC6E9FF1BC6EAFF180E64C062
:10522000EBFF190E3BC0EBFF0601192BC0D6120095
:10523000EAEC6BF062C02EF663C02FF664C030F665
:1052400065C031F6D40EE96E090EEA6EEE50060125
:10525000625C2A6FEE5063582B6FEE5064582C6FCF
:10526000EE5065582D6F040E025C25E1100E2A5D8C
:105270000E0E2B59000E2C59000E2D590AE3D88022
:10528000300E2A55110E2B55000E2C55000E2D55A3
:1052900012E208016F0EFC6F120EFD6F830EFE6F9F
:1052A0003B0EFF6F0401EB2B000EEC232AC6EDF43E
:1052B0002BC6EEF424D02AC662F02BC663F02CC6AF
:1052C00064F02DC665F08DEC57F063C03AF064C011
:1052D0003BF065C03CF066C03DF0BD0E686E370E19
:1052E000696E860E6A6E350E6B6E92EC58F063C076
:1052F000FCF864C0FDF865C0FEF866C0FFF82EC675
:10530000D4F92FC6D5F930C6D6F931C6D7F9090177
:10531000235102E094EF29F084DA93EF2BF088DF39
:10532000B6EC24F0F5EF26F0010EE66E070EE66E01
:10533000320EE66E060EE66E3B0EE66EAAC9E6FF7C
:1053400057EC6AF03A6E060EE15E3A50010EE66ED8
:1053500034C6E6FF35C6E6FF87EC49F0E552E55274
:10536000E552F3CF7CF3F4CF7DF3010EE66E32C647
:10537000E6FF33C6E6FF87EC49F0E552E552E55219
:10538000F3CF34F3F4CF35F30301346D351F000E42
:105390003523010EE66E36C6E6FF37C6E6FF87EC1C
:1053A00049F0E552E552E552F3CFC4F3F4CFC5F32B
:1053B000000E0301C427040EC5233CC610F33DC6EE
:1053C00011F3106D111F000E11233AC658F33BC69E
:1053D00059F3586D591F59233EC6A0F33FC6A1F398
:1053E000A06DA11FA1231200D9CFE6FFE1CFD9FF05
:1053F000E652800EE66E6B0EE66EAAC9E6FF32EC50
:105400006AF0E552E552E552050EE66EE66A80EC7A
:105410002EF0E552E552E66A230EE66EAAC9E6FFD3
:1054200032EC6AF0E552E552E552E66A190EE66E94
:10543000AAC9E6FF32EC6AF0E552E552E552010EE8
:10544000E66E6B0EE66EAAC9E6FF32EC6AF0E55234
:10545000E552E5521B0EE66E1C0EE66EAAC9E6FF8B
:1054600032EC6AF0E552E552E552180EE66E1B0E7C
:10547000E66EAAC9E6FF32EC6AF0E552E552E55263
:105480006A0EE66EAAC9E6FF03EC6AF0E552E55241
:10549000DF6E000EDF9ADFCFE6FF6A0EE66EAAC966
:1054A000E6FF32EC6AF0E552E552E552370EE66E61
:1054B000AAC9E6FF03EC6AF0E552E552DF6EDF822F
:1054C000DFCFE6FF370EE66EAAC9E6FF32EC6AF0E0
:1054D000E552E552E5522FC7F6FFF76AF6BEF768C8
:1054E0006D0EF626E80EF7220800F550E66E1A0E4D
:1054F000E66EAAC9E6FF32EC6AF0E552E552E552E3
:105500000A0EE66EE66A80EC2EF0E552E552E552B0
:10551000E552E7CFD9FF12000901D00EAA6FE66E5F
:10552000FAEC6AF0E5520601EB9BE8B0EB8BEBBBC3
:105530000BD00901D20EAA6FE66EFAEC6AF0E552C2
:105540000601EB9BE8B0EB8BEB51200B01E0010E69
:105550001200D9CFE6FFE1CFD9FF9498829A0601D5
:10556000080E406F40511BE08296FE0EDBAE02D06B
:10557000828801D08298DBCFF3FFF39EF346F3CF0E
:10558000DBFF020EE66E28EC74F0E5528286020E16
:10559000E66E28EC74F0E55206014007E3D7E552C9
:1055A000E7CFD9FF1200D9CFE6FFE1CFD9FF82883C
:1055B000FE0EDBCFE6FFCDDFE55294880AD8060168
:1055C000416FFE0EDBAC828A4151E552E7CFD9FF35
:1055D00012000601080E426F425114E08296020E3C
:1055E000E66E28EC74F0E5520601439F434782B80B
:1055F00043818286020EE66E28EC74F0E5520601C5
:105600004207EAD743511200D9CFE6FFE1CFD9FFD5
:10561000FD0EDBCFE6FF9DDFE5520601080E446F6D
:1056200044511BE08296FE0EDBAE02D0828801D090
:105630008298DBCFF3FFF39EF346F3CFDBFF020E3E
:10564000E66E28EC74F0E5528286020EE66E28ECD7
:1056500074F0E55206014407E3D7828A9488E55244
:10566000E7CFD9FF1200F40EE66E010EE66E80EC75
:105670002EF0E552E5528F0EE66E95DFE5520601FB
:10568000456F3A0E455D02E0000E01D0010E0601A5
:10569000EB9BE8B0EB8B200EE66EC70EE66EB4DF38
:1056A000E552E552220EE66EE66AAEDFE552E552BD
:1056B000300EE66E400EE66EA7DFE552E552340E80
:1056C000E66EE66AA1DFE552E552350EE66EFC0EA7
:1056D000E66E9ADFE552E552360EE66EE66894DF36
:1056E000E552E552380EE66EE66A8EDFE552E55287
:1056F0001200828A210EE66E4A0EE66E85DFE552C2
:10570000E5528F0EE66E4FDFE5523A0802E0000EDA
:1057100001D0010E0601EB9BE8B0EB8BEB51200BA7
:1057200001E0010E12008F0EE66E3DDFE5523A08F1
:1057300002E0000E01D0010E0601EB9BE8B0EB8BFE
:10574000E80EE66E30DFE5520601466F42DF0601E5
:10575000476F3FDF0601486F3CDF0601496F39DFC5
:1057600006014A6F36DF06014B6F828A46C634F364
:1057700047C635F34AC67CF3E8CF7DF348C6C4F389
:1057800049C6C5F3120006014E6B4E51020820E3D4
:105790004E51480DF3CFE9FFF4CFEAFF000EE926A2
:1057A000030EEA22360EE926000EEA22EECFE6FFCD
:1057B000EFCFE6FF4E51E824D00FE66EE66A41ECEB
:1057C0006EF0E552E552E552E55206014E2BDDD76B
:1057D000120006014F6B4F51020822E34F51E8249B
:1057E000D00FE66EE66A81EC6DF0E552E552F3CF3C
:1057F0003AF0F4CF3BF006014F51480DF3CFE9FFEB
:10580000F4CFEAFF000EE926030EEA22360EE9265F
:10581000000EEA223AC0EEFF3BC0EDFF4F2BDBD774
:105820001200010EE66EF3EC72F0E552F3CF10F3C6
:10583000F4CF11F30301106D111F000E1123020E9E
:10584000E66EF3EC72F0E552F3CF58F3F4CF59F370
:105850000301586D591F000E5923040EE66EF3EC38
:1058600072F0E552F3CFA0F3F4CFA1F3120022C7F8
:08587000F7F80601EF831200B6
:085878000601EC51200B03E0D6
:10588000EC51040B30E1FAEC6BF063C03AF064C009
:105890003BF065C03CF03D6A63500901A05D645077
:1058A000A1596550A2593D50A3591DE2FAEC6BF085
:1058B00063C0A0F964C0A1F965C0A2F9F40E0901A2
:1058C000A027010EA123000EA223A36B00BA06D0CD
:1058D000200EE66E53EC71F0E5521200200EE66EDB
:1058E0005FEC71F0E552120000BA05D0200EE66EB2
:1058F00053EC71F004D0200EE66E5FEC71F0E552CF
:105900000601EBA105D0080EE66E53EC71F004D051
:10591000080EE66E5FEC71F0E552800EE66E5FEC0D
:1059200071F0E552FAEC6BF063C080F864C081F866
:1059300065C082F8F40E08018027010E8123000E55
:105940008223A6EC50F0010E056EB5EC33F0010E8B
:10595000056EACEC41F00601E89DEBA158D0080EB5
:10596000E66E53EC71F0E5520601EBA75AD096ECC7
:1059700055F042C440F443C441F4000E04013C6FAE
:105980003D6B0401426F436BD8EC22F0FAEC6BF0F4
:1059900063500801805D64508159655082592FE23F
:1059A0000601EA51020B2BE1A8EC3FF00601EB9552
:1059B000E8B0EB85E951010B03E1EB51040B13E176
:1059C00000BE05D0800EE66E53EC71F004D0800E60
:1059D000E66E5FEC71F0E55200B405D0040EE66EA1
:1059E00053EC71F004D0040EE66E5FEC71F0E552FA
:1059F000F40E08018027010E8123000E8223090185
:105A0000A45103E1B0EC3EF00CD0A4070AD0040E80
:105A1000E66E53EC71F0E552080EE66E5FEC71F045
:105A2000E552C2EC3AF00601EB51010B01E189D7D6
:105A300057D9000904E008017B5101E082D7060133
:105A4000EE51400B01E07DD7E951010B01E079D720
:105A5000EB51400B01E175D740C43AF041C43BF033
:105A60003C6A3D6A3BAE02D03C683D68D8903D50F0
:105A7000000A08E6180E3A5C000E3B58000E3C582F
:105A8000000E3D5801E35DD7EB51040B01E159D7FE
:105A9000EB51200B01E155D708017B6B800EE66EC0
:105AA0005FEC71F0E552040EE66E5FEC71F0E552CA
