:020000040000FA
:0600000059EF6FF0120041
:020006001200E6
:060008004EEF67F012004C
:02000E001001DF
:0500100040200408027D
:020015000003E6
:0100170000E8
:0600180047EF67F0120043
:02001E001300CD
:10002000D1DF00007F09000011000000CADF0000DE
:10003000000A000007000000C4DF00001F0A0000E3
:1000400006000000ACDF0000E7060000180000001A
:10005000A6DF0000190A00000600000093DF000080
:100060006C09000013000000EFDE0000FF06000036
:100070000100000017000000FF0400000100000064
:100080008ADF0000EC0900000900000088DF0000A2
:10009000FE0800000200000082DF00000D0A0000E0
:1000A000060000005EDF0000A5080000240000003C
:1000B0003CDF0000000900002200000036DF0000E5
:1000C000070A0000060000002ADF0000740F00008D
:1000D0000C0000001CDF00009F0900000E00000063
:1000E00015000000FE00000002000000FADE000023
:1000F000C908000022000000F4DE0000FA0500003C
:0401000006000000F5
:0C010400D9CFE6FFE1CFD9FF060EE126BF
:10011000730EDE6E030EDD6E760EF36E020EF3CFFF
:10012000DBFF010EF36E030EF3CFDBFF040EDB6A81
:10013000010EF36E050EF3CFDBFF00018F518C5DD6
:10014000AA6F90518D59AB6F91518E59AC6F040EBF
:10015000DBCF3AF0050EDBCF3BF03C6A3BBE3C68A0
:10016000AAC063F0ABC064F0ACC065F03AC068F000
:100170003BC069F03CC06AF04EEC55F060C0A1F0A5
:1001800061C0A2F062C0A3F00001A46BA56BA66BD6
:100190006050A425A76F6150A521A86F6250A621C9
:1001A000A96F080EE66EA7C0E6FFA8C0E6FF60ECE8
:1001B00040F0E552E552E552F3CFA7F0F4CFA8F0B6
:1001C0000001A96BA8BFA9699AC03DF09BC03EF091
:1001D0003F6A3EBE3F68A9513F18E8AE02D03F34A7
:1001E00006D03D50A75D3E50A8593F50A95909E29D
:1001F0009AC03AF09BC03BF03C6A3BAE1AD03C68D8
:1002000018D0A935000EA91907E6D880F40EA75515
:10021000010EA855000EA95506E2F40E3A6E010E25
:100220003B6E3C6A06D0A7C03AF0A8C03BF0A9C01C
:100230003CF03AC0AFF03BC0B0F098513A5CAD6FC3
:1002400099513B58AE6F66C73AF03B6A3ABE3B687D
:100250003A50AD03F3CFB1F0F4CFB2F0AE03F350A8
:10026000B2273B50AD03F350B227090EE66EB1C082
:10027000E6FFB2C0E6FF60EC40F0E552E552E55221
:10028000F3CFB1F0F4CFB2F00001F4509D19E8AE15
:1002900002D09D3504D09C51B15D9D51B25909E207
:1002A0009CC03AF09DC03BF03C6A3D6A3BAE23D017
:1002B00022D0B1C03EF0B2C03FF0406A416A3FAECA
:1002C00002D0406841684134000E411809E6D880E8
:1002D000300E3E54000E3F54000E4054000E415468
:1002E00004E2300E3A6E3B6A04D0B1C03AF0B2C0BC
:1002F0003BF03C6A3D6A3AC094F03BC095F0060E74
:10030000E15C02E2E16AE552E16EE552E7CFD9FF36
:100310001200090148A165D14891C7EC69F075EC5C
:1003200052F0090144AF0DD0BAC98FF0BBC990F0AB
:100330000001916B90BF9169BCC998F0BDC999F05B
:1003400016D0060161510601645D00018F6F060140
:100350006251060165590001906F06016351060163
:1003600066590001916F67C698F068C699F0030E50
:10037000E66E070E646E656A21CA69F022CA6AF0E9
:1003800003EC55F06250000198253A6E63509921B4
:100390003B6E3AC0E6FFE66E60EC40F0E552E55297
:1003A000E552F3CF21FAF4CF22FA090142A1F8D0A5
:1003B0004551800B05E1035006E00A0E035C03E0A3
:1003C000438D82EF00F04351200B1CE10A01800EA7
:1003D000221509E021CA3AF022CA3BF03A6C3B1ED2
:1003E000000E3B2204D021CA3AF022CA3BF03B3433
:1003F0002AE23A503E08000E3B5425E209014351DF
:10040000400B21E1439D8FC08CF090C08DF091C0D6
:100410008EF00001800E951507E0010E9425946F73
:10042000000E9521956F120095350AE2945100084F
:10043000000E955505E2010E945F000E955B1200CB
:10044000946B956B12000901438D0A01216B226B9D
:1004500059DE04013C5100019425B36F04013D5164
:1004600000019521B46F800E991509E098C03AF00B
:1004700099C03BF03A6C3B1E000E3B2204D098C062
:100480003AF099C03BF03C6A3D6A3BAE02D03C6812
:100490003D68D8903D50000A08E6320E3A5C000EE6
:1004A0003B58000E3C58000E3D5801E39AD0B3C0B3
:1004B0003EF0B4C03FF0406A416A3FAE02D04068AF
:1004C00041684134000E411809E6D880480E3E5478
:1004D000000E3F54000E4054000E415401E381D001
:1004E000030EE66E070E646E656A38C469F039C49F
:1004F0006AF003EC55F062500001B3253A6E635088
:10050000B4213B6E3AC0E6FFE66E60EC40F0E55287
:10051000E552E552F3CF38F4F4CF39F4F3CF3EF09F
:10052000F4CF3FF0406A416A3FAE02D04068416874
:10053000D8904150000A08E6480E3E5C000E3F5835
:10054000000E4058000E415802E2480E19D038C43F
:1005500042F039C443F0446A456A43AE02D044686D
:1005600045684534000E451809E6D880900E42547F
:10057000000E4354000E4454000E455404E2900E05
:100580003A6E3B6A04D038C43AF039C43BF03AC002
:1005900038F43BC039F43AC036F43BC037F41200AB
:1005A00064C68FF065C690F066C691F00001800EBB
:1005B000951507E0010E9425946F000E9521956F17
:1005C0000ED095350AE294510008000E955505E2CB
:1005D000010E945F000E955B02D0946B956B090140
:1005E000439D1200D9CFE6FFE1CFD9FF010EE66EA1
:1005F000FB0EDBCF3AF0FC0EDBCF3BF03C6A3D6AF2
:100600003BAE02D03C683D68FD0EDBCFE9FFFE0E3D
:10061000DBCFEAFF200EE926000EEA22EE503A2652
:10062000EE503B22EE503C22EE503D223AC0E6FF17
:100630003BC0E6FF3CC0E6FF3DC0E6FFB0EC40F04B
:100640003E6E050EE15E3E5062C0B7F063C0B8F08A
:1006500064C0B9F065C0BAF0FD0EDBCFE9FFFE0E55
:10066000DBCFEAFF200EE926000EEA22EE50000161
:10067000625C3A6EEE5063583B6EEE5064583C6ECE
:10068000EE5065583D6EFD0EDBCFE9FFFE0EDBCF71
:10069000EAFF240EE926000EEA223AC0EEFF3BC034
:1006A000EEFF3CC0EEFF3DC0EEFFFD0EDBCFE9FFED
:1006B000FE0EDBCFEAFF200EE926000EEA22B7C0CD
:1006C000EEFFB8C0EEFFB9C0EEFFBAC0EEFF010EFC
:1006D000E66EFD0EDBCFE9FFFE0EDBCFEAFF240E58
:1006E000E926000EEA22EECF3EF0EECF3FF0EECF4D
:1006F00040F0EFCF41F0FD0EDBCFE9FFFE0EDBCF88
:10070000EAFF280EE926000EEA22EE503E26EE50C1
:100710003F22EE504022EE5041223EC0E6FF3FC055
:10072000E6FF40C0E6FF41C0E6FFB0EC40F0426E9D
:10073000050EE15E425063C03BF064C03CF065C012
:100740003DF0FD0EDBCFE9FFFE0EDBCFEAFF240E0E
:10075000E926000EEA2262C0EEFF3BC0EEFF3CC07D
:10076000EEFF3DC0EEFFFD0EDBCFE9FFFE0EDBCF5F
:10077000EAFF240EE926000EEA22EECF3AF0EECF91
:100780003BF0EECF3CF0EFCF3DF0FD0EDBCFE9FFCD
:10079000FE0EDBCFEAFF280EE926000EEA223AC061
:1007A000EEFF3BC0EEFF3CC0EEFF3DC0EEFFE5526A
:1007B000E7CFD9FF12000001BB6BBB51010801E27A
:1007C000AFD1BB51480DF3CFBCF0F4CFBDF0000E5C
:1007D000BC27030EBD23BCC0E9FFBDC0EAFF1C0E51
:1007E000E926000EEA22EECFE6FFEFCFE6FFBCC01F
:1007F000E6FFBDC0E6FFF6DEE552E552E552E55202
:10080000090EE66EBCC0E9FFBDC0EAFF080EE9268E
:10081000000EEA22EECF46F0EFCF47F0486A496A71
:1008200047AE02D048684968BCC0E9FFBDC0EAFFD6
:100830001C0EE926000EEA22EECF42F0EECF43F086
:10084000EECF44F0EFCF45F042C062F043C063F01A
:1008500044C064F045C065F046C067F047C068F02A
:1008600048C069F049C06AF0C3EC6DF05EC03EF06C
:100870005FC03FF060C040F061C041F0BCC0E9FF24
:10088000BDC0EAFF0C0EE926000EEA22EECF4EF0C4
:10089000EFCF4FF0506A516A4FAE02D050685168A6
:1008A000BCC0E9FFBDC0EAFF240EE926000EEA2223
:1008B000EECF4AF0EECF4BF0EECF4CF0EFCF4DF055
:1008C0004AC062F04BC063F04CC064F04DC065F0AC
:1008D0004EC067F04FC068F050C069F051C06AF078
:1008E000C3EC6DF03E505E243A6E3F505F203B6E8D
:1008F000405060203C6E415061203D6E3AC0E6FFA2
:100900003BC0E6FF3CC0E6FFE66EB0EC40F0526E46
:10091000050EE15E62C0BEF063C0BFF064C0C0F00F
:1009200065C0C1F0060EE66EBCC0E9FFBDC0EAFFBF
:100930000A0EE926000EEA22EECF42F0EFCF43F096
:10094000446A456A43AE02D044684568BCC0E9FFCA
:10095000BDC0EAFF180EE926000EEA22EECF3EF0F7
:10096000EFCF3FF0406A416A3FAE02D04068416835
:100970003EC062F03FC063F040C064F041C065F02B
:1009800042C067F043C068F044C069F045C06AF0F7
:10099000C3EC6DF05EC03AF05FC03BF060C03CF06D
:1009A00061C03DF05EC0E6FF5FC0E6FF60C0E6FFED
:1009B00061C0E6FFB0EC40F0466E050EE15E62C03D
:1009C000C2F063C0C3F064C0C4F065C0C5F0BCC071
:1009D000E9FFBDC0EAFF020EE926000EEA22EECFD3
:1009E0003AF0EFCF3BF03A6C3B1E3B223C6A3D6A4B
:1009F0003BAE02D03C683D680001C5513D18E8AEF1
:100A000002D03D3408D03A50C25D3B50C3593C50EF
:100A1000C4593D50C55914E2BCC0E9FFBDC0EAFF4E
:100A2000020EE926000EEA22EECFC2F0EFCFC3F0AD
:100A3000C26DC31FC323C46BC56BC3AF37D031D0E6
:100A4000BCC0E9FFBDC0EAFF020EE926000EEA22A3
:100A5000EECF3EF0EFCF3FF0406A416A3FAE02D0AA
:100A6000406841684150C519E8AE02D0C53508D08C
:100A7000C2513E5CC3513F58C4514058C5514158C2
:100A800013E2BCC0E9FFBDC0EAFF020EE926000E7A
:100A9000EA22EECFC2F0EFCFC3F0C46BC56BC3AF99
:100AA00005D0C469C56902D0C5C0C5F0C20EE96EE3
:100AB000000EEA6EBE51EE243E6EBF51EE203F6E38
:100AC000C051EE20406EC151EE20416EBCC0E9FF26
:100AD000BDC0EAFF380EE926000EEA22EECF42F052
:100AE000EFCF43F0446A456A43AE02D0446845689C
:100AF00042503E5C3A6E43503F583B6E4450405823
:100B00003C6E455041583D6EBCC0E9FFBDC0EAFF98
:100B1000440E3AC0EBFF450E3BC0EBFFBB2B4DD65E
:100B200012000001C66BC651010801E239D2C6515C
:100B3000480DF3CFC7F0F4CFC8F0000EC727030E5F
:100B4000C823C7C0E9FFC8C0EAFF180EE926000E97
:100B5000EA22EECF3AF0EFCF3BF03C6A3D6A3BAE83
:100B600002D03C683D68C7C0E9FFC8C0EAFF380E44
:100B7000E926000EEA22EECF62F0EFCF63F0646A5E
:100B8000656A63AE02D0646865680C0E676E686A59
:100B9000696A6A6AC3EC6DF000013A505E5C00015C
:100BA000D96F00013B505F580001DA6F00013C50E3
:100BB00060580001DB6F00013D5061580001DC6F9F
:100BC000C7C0E9FFC8C0EAFF040EE926000EEA220A
:100BD000EECF3AF0EFCF3BF03C6A3D6A3BAE02D03D
:100BE0003C683D68D9C062F0DAC063F0DBC064F0F5
:100BF000DCC065F03AC067F03BC068F03CC069F00B
:100C00003DC06AF0C3EC6DF05EC0C9F05FC0CAF0D1
:100C100060C0CBF061C0CCF0C7C0E9FFC8C0EAFF3C
:100C2000060EE926000EEA22EECF3DF0EFCF3EF0B1
:100C30003F6A406A3EAE02D03F684068D9C062F069
:100C4000DAC063F0DBC064F0DCC065F03DC067F083
:100C50003EC068F03FC069F040C06AF0C3EC6DF080
:100C60005FC03BF060C03CF0C7C0E9FFC8C0EAFF0E
:100C70002C0EE926000EEA225E50EE263B50EE22B4
:100C80003C50EE22C7C0E9FFC8C0EAFF020EE926C9
:100C9000000EEA22EECF3DF0EFCF3EF0030ED890EB
:100CA0003D363E36E806FBE13D6C3E1E000E3E2220
:100CB0003F6A3EBE3F68C7C0E9FFC8C0EAFF2C0ECE
:100CC000E926000EEA22020EEB503F18E8AE02D0F1
:100CD0003F3406D03D50EE5C3E50EE583F50EE584B
:100CE0001AE2C7C0E9FFC8C0EAFF020EE926000EFB
:100CF000EA22EECF3AF0EFCF3BF0030ED8903A362F
:100D00003B36E806FBE13A6C3B1E000E3B223C6A98
:100D10003BAE53D042D0C7C0E9FFC8C0EAFF020EC5
:100D2000E926000EEA22EECF40F0EFCF41F0030EAD
:100D3000D89040364136E806FBE1426A41BE42683F
:100D4000C7C0E9FFC8C0EAFF2C0EE926000EEA2260
:100D5000020EEBCFF3FF4250F318E8AE02D0F334AB
:100D600006D0EE50405CEE504158EE50425817E22B
:100D7000C7C0E9FFC8C0EAFF020EE926000EEA225A
:100D8000EECF3AF0EFCF3BF0030ED8903A363B3639
:100D9000E806FBE13C6A3BAE10D03C680ED0C7C011
:100DA000E9FFC8C0EAFF2C0EE926000EEA22EECFCA
:100DB0003AF0EECF3BF0EFCF3CF0C7C0E9FFC8C040
:100DC000EAFF2C0EE926000EEA223AC0EEFF3BC0F5
:100DD000EEFF3CC0EEFF0001CD6BCE6BCF6BD06B56
:100DE000030EE66ECD0EE96E000EEA6EC951EE24DA
:100DF0003A6ECA51EE203B6ECB51EE203C6ECC5188
:100E0000EE203D6E3AC0E6FF3BC0E6FF3CC0E6FF89
:100E1000E66EB0EC40F03E6E050EE15E62C0D5F0CD
:100E200063C0D6F064C0D7F065C0D8F0C7C0E9FF92
:100E3000C8C0EAFF1C0EE926000EEA22EE500001AF
:100E4000625CDD6FEE506358DE6FEE506458DF6F0A
:100E5000EE506558E06FDDC0E6FFDEC0E6FFC7C0BC
:100E6000E6FFC8C0E6FFF2EC02F0E552E552E552BB
:100E7000E552090EE66EC7C0E9FFC8C0EAFF080EDA
:100E8000E926000EEA22EECF42F0EFCF43F0446AAB
:100E9000456A43AE02D044684568DDC062F0DEC0FA
:100EA00063F0DFC064F0E0C065F042C067F043C0AB
:100EB00068F044C069F045C06AF0C3EC6DF05EC0F4
:100EC0003EF05FC03FF060C040F061C041F0C7C07D
:100ED000E9FFC8C0EAFF0C0EE926000EEA22EECFB9
:100EE0004AF0EFCF4BF04C6A4D6A4BAE02D04C68E3
:100EF0004D68C7C0E9FFC8C0EAFF240EE926000E0E
:100F0000EA22EECF46F0EECF47F0EECF48F0EFCF3B
:100F100049F046C062F047C063F048C064F049C081
:100F200065F04AC067F04BC068F04CC069F04DC036
:100F30006AF0C3EC6DF03E505E243A6E3F505F2085
:100F40003B6E405060203C6E415061203D6E3AC087
:100F5000E6FF3BC0E6FF3CC0E6FFE66EB0EC40F0CB
:100F60004E6E050EE15E62C0D1F063C0D2F064C087
:100F7000D3F065C0D4F0000E0001D16DD21FD22392
:100F8000D31FD323D41FD423C7C0E9FFC8C0EAFFAF
:100F9000440ED1C0EBFF450ED2C0EBFFC62BC3D52C
:100FA00012000301800EC91509E0C8C33AF0C9C395
:100FB0003BF03A6C3B1E000E3B2204D0C8C33AF013
:100FC000C9C33BF03B3404E23A501408000E3B54D2
:100FD00002E3000E01D0010E0001F56FE85007E1B9
:100FE000035003E00A0E035C02E1000E01D0010E83
:100FF00009014991E8B0498149A113D0035005E0A6
:101000000A0E035C02E0000E01D0010E000905E0AB
:1010100066C468F467C469F404D0A4C568F4A5C5BF
:1010200069F4040166510401685D3A6E6951040176
:1010300067553B6E3AC0E6FFE66E20EC2BF0E552BA
:10104000E552F3CF86F0F4CF87F00001D880F4505A
:1010500004E7E40E865DFF0E875904E2E40E866F16
:1010600087690DD0873509E286511C08000E875527
:1010700004E21C0E866F876B02D087C087F0060ED5
:10108000E66E94C342F095C343F0446A456A43AEAA
:1010900002D04468456886C03EF087C03FF0406A91
:1010A000416A3FAE02D0406841683EC062F03FC036
:1010B00063F040C064F041C065F042C067F043C0D7
:1010C00068F044C069F045C06AF0C3EC6DF05EC0E2
:1010D0003AF05FC03BF060C03CF061C03DF05EC0E4
:1010E000E6FF5FC0E6FF60C0E6FF61C0E6FFB0EC70
:1010F00040F0466E050EE15E46500301AC51625C65
:101100000001ED6F0301AD5163580001EE6F030163
:10111000AE5164580001EF6F0301AF5165580001F3
:10112000F06F0A0EE66E98C33EF099C33FF0406A36
:10113000416A3FAE02D040684168EDC062F0EEC047
:1011400063F0EFC064F0F0C065F03EC067F03FC0F0
:1011500068F040C069F041C06AF0C3EC6DF05EC059
:101160003AF05FC03BF060C03CF061C03DF05EC053
:10117000E6FF5FC0E6FF60C0E6FF61C0E6FFB0ECDF
:1011800040F0426E050EE15E425062C0E5F063C081
:10119000E6F064C0E7F065C0E8F0090149A10CD0B1
:1011A0000001E96BEA6BEB6BEC6BE9C0BFF3EAC0E3
:1011B000C0F3EBC0C1F3A9D09AC33AF09BC33BF094
:1011C0003C6A3D6A3BAE02D03C683D68EDC062F0CF
:1011D000EEC063F0EFC064F0F0C065F03AC067F0B5
:1011E0003BC068F03CC069F03DC06AF0C3EC6DF0F4
:1011F0005E500301BF275F50C0236050C12392C3DC
:101200003AF093C33BF00A0ED8903A363B36E806E4
:10121000FBE13A6C3B1E000E3B223C6A3BBE3C6845
:101220000301C1513C18E8AE02D03C3406D03A501C
:10123000BF5D3B50C0593C50C15916E2646A040E70
:10124000656E92C369F093C36AF003EC55F062C017
:10125000BFF363C0C0F30301BF6DC01F000EC02306
:10126000C16BC0AF31D02CD092C33DF093C33EF0E0
:101270000A0ED8903D363E36E806FBE13F6A3EBE98
:101280003F683F500301C119E8AE02D0C13506D016
:10129000BF513D5CC0513E58C1513F5813E2646A92
:1012A000040E656E92C369F093C36AF003EC55F0C7
:1012B00062C0BFF363C0C0F30301C16BC0AF04D011
:1012C000C16902D0C1C3C1F30A0EE66EBFC33AF0D2
:1012D000C0C33BF0C1C33CF03D6A3CBE3D683AC070
:1012E000E6FF3BC0E6FF3CC0E6FF3DC0E6FFB0ECDA
:1012F00040F03E6E050EE15E3E5062C0E9F063C014
:10130000EAF064C0EBF065C0ECF0E90EE96E000EA7
:10131000EA6E0001E551EE243A6EE651EE203B6E96
:10132000E751EE20E851EE203AC0D4F33BC0D5F3AC
:10133000F55105E00301C851D45FC951D55B640E76
:101340000301C8250001F66F000E0301C921000149
:10135000F76F90C33AF091C33BF03A6C3B1E000E1E
:101360003B220301D5513B18E8AE02D03B3404D0F8
:101370003A50D45D3B50D55909E290C3D4F391C3A0
:10138000D5F3D46DD51F000ED52312009151D51978
:10139000E8AE02D0D53504D0D451905DD5519159E5
:1013A00005E290C3D4F391C3D5F3120012000001FB
:1013B000F86BF851020822E3F851480DF3CFF9F029
:1013C000F4CFFAF0000EF927030EFA23F9C0E9FF73
:1013D000FAC0EAFF2F0EE926000EEA22EE6AEE6A54
:1013E000EE6AF9C0E9FFFAC0EAFF2C0EE926000E0A
:1013F000EA22EE6AEE6AEE6AF82BDBD7120056C3D9
:1014000080F357C381F30EC338F30FC339F30901D7
:1014100045AD09D0030182518027835181233A5180
:1014200038273B5139239EC3C8F39FC3C9F3120029
:1014300068EC20F085EC38F08EEC2AF0E0DF090152
:1014400045A503D0DBEC03F002D091EC05F0A9DD5B
:1014500044C370F045C371F08CC372F08DC373F058
:10146000D4C374F0D5C375F00301800E191509E0DB
:1014700018C33EF019C33FF03E6C3F1E000E3F22E2
:1014800004D018C33EF019C33FF0800E611509E087
:1014900060C340F061C341F0406C411E000E412228
:1014A00004D060C340F061C341F03F504118E8AE42
:1014B00002D0413404D040503E5C41503F580DE2D0
:1014C000800E611505E060C33AF061C33BF00CD0BB
:1014D00060C33AF061C33BF010D0800E191509E0EB
:1014E00018C33AF019C33BF03A6C3B1E000E3B2286
:1014F00004D018C33AF019C33BF03C6A3D6A3BAED6
:1015000002D03C683D68D8903D50000A08E6E80EDD
:101510003A5C030E3B58000E3C58000E3D5802E367
:10152000000E01D0010E09014299E8B04289B1EFE5
:1015300019F0000E0001966F976B946F956BD00EAB
:101540009C6F9D69FB6BFB51020858E3FB51480DF2
:10155000F3CFFCF0F4CFFDF0000EFC27030EFD23CB
:10156000FCC0E9FFFDC0EAFF180EE926000EEA22E2
:10157000EE6AED6A3A6A3B6A3C6A3D6A3BAE02D06B
:101580003C683D68FCC0E9FFFDC0EAFF240EE92687
:10159000000EEA223AC0EEFF3BC0EEFF3CC0EEFF79
:1015A0003DC0EEFFFCC0E9FFFDC0EAFF280EE926C2
:1015B000000EEA223AC0EEFF3BC0EEFF3CC0EEFF59
:1015C0003DC0EEFFFCC0E9FFFDC0EAFF200EE926AA
:1015D000000EEA223AC0EEFF3BC0EEFF3CC0EEFF39
:1015E0003DC0EEFFFCC0E9FFFDC0EAFF460E3AC079
:1015F000EBFF470E3BC0EBFFFB2BA5D7D7EF09F066
:101600000001800E991509E098C03AF099C03BF0AE
:101610003A6C3B1E000E3B2204D098C03AF099C0B1
:101620003BF0D8903B5004E6040E3A5C000E3B5869
:1016300001E3000C010CD9CFE6FFE1CFD9FF070E83
:10164000E126DF6AEEEC66F03D6A010E63C0DBFF67
:10165000020E64C0DBFF030E65C0DBFF040E3DC05D
:10166000DBFFD950010FE96EDACFEAFFEE50090136
:10167000815D3A6EEE5082593B6EEE5083593C6E5E
:10168000EE5084593D6E050E3AC0DBFF060E3BC09E
:10169000DBFF010EDBCF81F9020EDBCF82F9030EF7
:1016A000DBCF83F9040EDBCF84F936C43CF437C4B6
:1016B0003DF40001180E8C6FFC0E8D6F8E690901D0
:1016C0007F51020A01E1B3D0030A3AE0010A01E0C6
:1016D000B1D00001800E911518E08FC03AF090C093
:1016E0003BF091C03CF0686869686A688FC063F03D
:1016F00090C064F091C065F04EEC55F060C03AF0D7
:1017000061C03BF062C03CF006D08FC03AF090C0A0
:101710003BF091C03CF0D8903C50000A06E6320EF7
:101720003A5C000E3B58000E3C5801E383D00801A0
:10173000B80E086F0B0E096F0901010E7F6F7AD08A
:101740005FDF000929E0050EDB500801085D00019C
:101750003A6E060EDB500801095900013B6EE83471
:101760000DE23A500008000E3B5408E2050EDB5033
:101770000801085F060EDB50095B03D00801086B07
:10178000096B093504E208510008000E095534E3DD
:101790000901020E7F6F30D0020E646E656A050E7D
:1017A000DBCF69F0060EDBCF6AF003EC55F00801E1
:1017B000085162243A6E095163203B6ED890E8507C
:1017C00004E6B80E3A5C0B0E3B5812E2020E646E51
:1017D000656A050EDBCF69F0060EDBCF6AF003EC1D
:1017E00055F0080108516224086F0951632003D0A5
:1017F000B80E086F0B0E096F08C83AF009C83BF025
:101800003C6A3D6A3BAE02D03C683D683AC0E6FFA8
:101810003BC0E6FF3CC0E6FF3DC0E6FF080EE66EBB
:101820001AEC67F03E6E050EE15E3E5003D07F6B12
:10183000010EDF6EDF503A6E070EE15C02E2E16AF4
:10184000E552E16E3A50E552E7CFD9FF120041EC84
:101850001BF02E0EE66E53EC6CF0E552036A030E9D
:10186000026E1200050EE66EE66A3AC3E6FF3BC35F
:10187000E6FF9BEC27F0E552E552E552E552F3CF47
:101880003AF3F4CF3BF3050EE66EE66A82C3E6FF59
:1018900083C3E6FF9BEC27F0E552E552E552E552A3
:1018A000F3CF82F3F4CF83F30301CA6BCB6B120047
:1018B000D9CFE6FFE652010E0501906F916B090149
:1018C000449544934997E552E552E7CFD9FF12007A
:1018D0005DC55AF55EC55BF55FC55CF56EC56BF51C
:1018E0006FC56CF570C56DF5090145994495449334
:1018F000479D036A120004C8E6FF05C8E6FF74ECC2
:1019000041F0E552E552F3CF0AF8F4CF0BF80801A5
:10191000D880F45004E7E40E0A5DFF0E0B5904E290
:10192000E40E0A6F0B690DD00B3509E20A511C0851
:10193000000E0B5504E21C0E0A6F0B6B02D00BC895
:101940000BF8090EE66E06C84AF007C84BF04C6A61
:101950004D6A4BAE02D04C684D68A8C546F0476A48
:10196000486A496A46AE03D04768486849680AC869
:1019700042F00BC843F0446A456A43AE02D0446863
:10198000456842C062F043C063F044C064F045C0A3
:1019900065F046C067F047C068F048C069F049C0CC
:1019A0006AF0C3EC6DF05EC03EF05FC03FF060C017
:1019B00040F061C041F05EC062F05FC063F060C0A3
:1019C00064F061C065F04AC067F04BC068F04CC07D
:1019D00069F04DC06AF0C3EC6DF05EC03AF05FC0D4
:1019E0003BF060C03CF061C03DF05EC0E6FF5FC010
:1019F000E6FF60C0E6FF61C0E6FFB0EC40F04E6E6F
:101A0000050EE15E4E5062C00AF863C00BF862C07A
:101A1000F3FF63C0F4FF1200D9CFE6FFE1CFD9FF97
:101A20008AC53AF08BC53BF03C6A3D6A3BAE02D0BA
:101A30003C683D68480E3A5E000E3B5A3C5A3D5A9F
:101A40003AC006F83BC007F80801800E3B1403E0DB
:101A5000066B076B0DD0073509E206510008010E31
:101A6000075504E2066B010E076F02D007C807F89E
:101A7000FC0EDBCF57F5FD0EDBCF58F5FE0EDBCFAE
:101A800059F5F90EDBCF68F5FA0EDBCF69F5FB0EE1
:101A9000DBCF6AF505015D51575D606F5E515859A6
:101AA000616F5F515959626F6E51685D716F6F510F
:101AB0006959726F70516A59736F71C563F072C55D
:101AC00064F0656E71C568F072C569F06A6E4EECBF
:101AD00055F060C03EF061C03FF062C040F060C5AC
:101AE00063F061C564F062C565F060C568F061C50A
:101AF00069F062C56AF04EEC55F03E5060243A6ED3
:101B00003F5061203B6E405062203C6E3D6A3CBEBF
:101B10003D683AC0E6FF3BC0E6FF3CC0E6FF3DC083
:101B2000E6FFB5EC44F0E552E552E552E55262C0FD
:101B300016F863C017F864C018F865C019F80501F5
:101B4000800E621518E060C510F861C511F862C515
:101B500012F8686869686A6860C563F061C564F016
:101B600062C565F04EEC55F060C010F861C011F828
:101B700062C012F806D060C510F861C511F862C5E0
:101B800012F80501800E731518E071C513F872C5BF
:101B900014F873C515F8686869686A6871C563F0F8
:101BA00072C564F073C565F04EEC55F060C013F873
:101BB00061C014F862C015F806D071C513F872C57B
:101BC00014F873C515F8100EE96E080EEA6E020ED1
:101BD000EB5008011519E8AE02D0153506D01351A7
:101BE000EE5C1451EE581551EE5807E213C8B0F9E7
:101BF00014C8B1F915C8B2F906D010C8B0F911C8A7
:101C0000B1F912C8B2F9B0C93AF0B1C93BF0B2C9E2
:101C10003CF03D6A3CBE3D68D8903D50000A08E665
:101C2000500E3A5C0B0E3B58000E3C58000E3D58CF
:101C300042E213C863F014C864F015C865F013C815
:101C400068F014C869F015C86AF04EEC55F060C031
:101C50003EF061C03FF062C040F010C863F011C8B0
:101C600064F012C865F010C868F011C869F012C8B5
:101C70006AF04EEC55F03E5060243A6E3F506120C1
:101C80003B6E405062203C6E3D6A3CBE3D683AC0AF
:101C9000E6FF3BC0E6FF3CC0E6FF3DC0E6FFB5EC1B
:101CA00044F0E552E552E552E55262C0B0F963C036
:101CB000B1F964C0B2F960C53AF061C53BF062C5E4
:101CC0003CF03D6A3CBE3D683AC0E6FF3BC0E6FFE3
:101CD0003CC0E6FF3DC0E6FF71C53EF072C53FF077
:101CE00073C540F0416A40BE41683EC0E6FF3FC058
:101CF000E6FF40C0E6FF41C0E6FFB9EC42F0426EAD
:101D0000080EE15E4250F3CFB5F9F4CFB6F9B0C991
:101D100016F8B1C917F8B2C918F80801196B18BF3D
:101D20001969020EE66E160EE96E080EEA6EEE50A6
:101D30000901855D3A6EEE5086593B6EEE5087592B
:101D40003C6EEE5088593D6E3AC0E6FF3BC0E6FF60
:101D50003CC0E6FFE66EB0EC40F03E6E050EE15E84
:101D600062C01CF863C01DF816C885F917C886F94B
:101D700018C887F919C888F9010EE66E6250090182
:101D800089253A6E63508A213B6E3AC0E6FFE66EC3
:101D900060EC40F0E552E552E552F3CF1CF8F4CF89
:101DA0001DF80801800EF41409E01CC83AF01DC8A3
:101DB0003BF03A6C3B1E000E3B2204D01CC83AF0AC
:101DC0001DC83BF0D8903B5004E6320E3A5C000E42
:101DD0003B5803E21C6B1D6B22D01CC889F91DC83F
:101DE0008AF9020EE66E1CC8E6FF1DC8E6FF60EC2D
:101DF00040F0E552E552E552F3CF3AF0F4CF3BF034
:101E00003C6A3D6A3BAE02D03C683D683A500801EE
:101E1000165F3B50175B3C50185B3D50195BFEC38F
:101E20003AF0FFC33BF0D8903A363B363C6A3BBEB3
:101E30003C6805019A513C18E8AE02D03C3406D00B
:101E40003A50985D3B5099593C509A5902E3000E24
:101E500001D0010E09014495E8B044854451040BBA
:101E600050E08F0EE96E000EEA6EEE5000018C5DC0
:101E70003D6EEE508D593E6EEE508E593F6E800E87
:101E80003F141EE08F0EE96E000EEA6EEE508C5D80
:101E90003A6EEE508D593B6EEE508E593C6E68682E
:101EA00069686A683AC063F03BC064F0656E4EECE6
:101EB00055F060C03AF061C03BF062C03CF00DD01C
:101EC0008F0EE96E000EEA6EEE508C5D3A6EEE50AB
:101ED0008D593B6EEE508E593C6E8CC540F08DC5D1
:101EE00041F0426A41BE42683C504218E8AE02D01E
:101EF000423406D040503A5C41503B5842503C5826
:101F000002E3000E01D0010E09014493E8B04483BE
:101F10000801073501E350D206510008000E0755AD
:101F200001E34AD2040166510901B55D3A6EB6512A
:101F3000040167553B6E3AC0E6FFE66E74EC41F073
:101F4000E552E552F3CF04F8F4CF05F80901800E0D
:101F5000B21503E03A6A3B6A15D0B235000EB219E9
:101F600007E6D880800EB0553E0EB155000EB25532
:101F700005E2800E3A6E3E0E3B6E04D0B0C93AF0D8
:101F8000B1C93BF03AC02AF83BC02BF8100EE66E00
:101F90009BC540F0416A40BE4168080140502A0399
:101FA000F3CF3EF0F4CF3FF02B03F3503F264150E8
:101FB0002A03F35000013F2606C8E8FF3E02F3CF94
:101FC0003AF0F4CF3BF03F02F3503B2607C8E8FF5E
:101FD0003E02F3503B263C6A3D6A3BAE02D03C6871
:101FE0003D683AC0E6FF3BC0E6FF3CC0E6FF3DC0AF
:101FF000E6FFB0EC40F0426E050EE15E62C01AF8FA
:1020000063C01BF80801800E631403E01A6B1B6B9E
:1020100017D00501915108011B19E8AE02D01B35FC
:1020200007D01A510501905D08011B510501915916
:1020300005E290C51AF891C51BF802D01BC81BF821
:1020400008011C511A5D1E6F1D511B591F6F010E97
:10205000E66EE66A1EC83AF01FC83BF03C6A3D6A6D
:102060003BAE02D03C683D683AC0E6FF3BC0E6FFAD
:102070003CC0E6FF3DC0E6FF8BC93EF08CC93FF097
:10208000406A416A3FAE02D0406841683EC0E6FF08
:102090003FC0E6FF40C0E6FF41C0E6FF9DEC28F0F0
:1020A000426E0A0EE15E62C01EF863C01FF862C095
:1020B0008BF963C08CF99CC53AF03B6A3ABE3B6829
:1020C00008013A501E03F3CF20F8F4CF21F81F0384
:1020D000F35021273B501E03F3502127226B236B23
:1020E00021AF02D022692369020EE66E1EC8E6FF08
:1020F0001FC8E6FF60EC40F0E552E552E552F3CF31
:102100003AF0F4CF3BF03C6A3D6A3BAE02D03C680B
:102110003D683A500501A0273B50A1233C50A22323
:102120003D50A3239EC53AF09FC53BF03A6C3B1E41
:10213000000E3B223C6A3D6A3BAE02D03C683D68E3
:10214000A3513D18E8AE02D03D3408D03A50A05D0E
:102150003B50A1593C50A2593D50A3590DE29EC598
:10216000A0F59FC5A1F5A06DA11F000EA123A26B34
:10217000A36BA1AF27D021D09EC53EF09FC53FF0F5
:10218000406A416A3FAE02D0406841684150A3199D
:10219000E8AE02D0A33508D0A0513E5CA1513F5813
:1021A000A2514058A35141580BE29EC5A0F59FC5CE
:1021B000A1F5A26BA36BA1AF05D0A269A36902D060
:1021C000A3C5A3F50801246B256B266B276B080EAE
:1021D000E66E240EE96E080EEA6E2051EE243A6E89
:1021E0002151EE203B6E2251EE203C6E2351EE2019
:1021F0003D6E3AC0E6FF3BC0E6FF60EC40F0E552C2
:10220000E552E552F3CF28F8F4CF29F8A6C53AF005
:10221000A7C53BF03A6C3B1E000E3B220801F45070
:102220003B18E8AE02D03B3404D03A50285D3B5016
:10223000295909E2A6C528F8A7C529F8286D291F3C
:10224000000E292317D00501A75108012919E8AE6E
:1022500002D0293507D028510501A65D0801295172
:102260000501A75905E2A6C528F8A7C529F802D097
:1022700029C829F8080EE66E04C8E6FF05C8E6FF7F
:10228000A0EC42F0E552E552F3CF3EF0F4CF3FF040
:102290000801F3502803F3CF3AF0F4CF3BF02903C1
:1022A000F3503B263F502803F35000013B263C6A85
:1022B0003D6A3BAE02D03C683D683AC0E6FF3BC099
:1022C000E6FF3CC0E6FF3DC0E6FFB0EC40F0406EEC
:1022D000050EE15E40506768686869686A68C3EC2B
:1022E0006DF05EC082F35FC083F3080EE66E04C833
:1022F000E6FF05C8E6FF27EC42F0E552E552F3CFD2
:102300003EF0F4CF3FF00801F3502803F3CF3AF04A
:10231000F4CF3BF02903F3503B263F502803F35002
:1023200000013B263C6A3D6A3BAE02D03C683D68FA
:102330003AC0E6FF3BC0E6FF3CC0E6FF3DC0E6FF1B
:10234000B0EC40F0406E050EE15E62C03AF363C04F
:102350003BF30301CA6BCB6B09014251020B27E02F
:102360008EC53AF08FC53BF03C6A3D6A3BAE02D069
:102370003C683D683D5008011919E8AE02D0193596
:1023800008D016513A5C17513B5818513C58195116
:102390003D580DE204C8E6FF05C8E6FF74EC41F0C5
:1023A000E552E552F3CFA4F5F4CFA5F507D068C404
:1023B000A4F569C4A5F502D032EC0CF0E552E7CFE4
:1023C000D9FF1200D9CFE6FFE1CFD9FFE6520901CC
:1023D00047AF0CD045AF02D0030E01D0010E046E02
:1023E0004551800B01E0010EDF6E02D0046ADF6A06
:1023F000DF50E552E552E7CFD9FF1200D9CFE6FF13
:10240000E1CFD9FF040EE126EEEC66F03D6A63C031
:10241000DFFF010E64C0DBFF020E65C0DBFF030EB1
:102420003DC0DBFF8DC93AF08EC93BF08FC93CF04F
:102430003D6AD9CFE9FFDACFEAFFEE503A5CEE50C1
:102440003B58EE503C58EE503D5842E20001FF51DF
:10245000FE5D3EE0DC0E3A6E050E3B6E3C6A3D6A68
:10246000D9CFE9FFDACFEAFFEE503A26EE503B2211
:10247000EE503C22EE503D223AC08DF93BC08EF921
:102480003CC08FF9010E0501906F916B0001FE5168
:10249000020A18E0030A12E0010A18E10901449156
:1024A000439F4A9F040E025C06E18FC08CF090C0EF
:1024B0008DF091C08EF00A0E036E08D009014A8F8C
:1024C000449103D0090144814A8F439FFEC0FFF02D
:1024D000040EE15C02E2E16AE552E16EE552E7CF0B
:1024E000D9FF1200090145ADD1D042974951080BDF
:1024F00001E1FFD0055001E1FCD0499703500A0AE1
:1025000001E1A4D00A0A01E1A1D0010A6EE0030AA8
:102510003CE0010A10E0070A01E0EBD0E66AE66A57
:10252000E66AE66AE66AE66A0CEC0DF03A6E060EBA
:10253000E15E3A5027D0E66AE66AE66AE66AE66A4B
:10254000E66A0CEC0DF03A6E060EE15E3A500901B7
:1025500044A179D08FC03AF090C03BF091C03CF0DC
:102560003D6A3CBE3D68D8903D50000A08E62C0EFE
:102570003A5C010E3B58000E3C58000E3D5802E2FA
:10258000040E036E1BEC0BF0B4D0E66AE66AE66A52
:10259000E66AE66AE66A0CEC0DF03A6E060EE15E5B
:1025A0003A50090144A14FD044A31DD04451100B0F
:1025B00001E19FD0EEEC66F063500501185D6450B8
:1025C000195965501A5901E394D0980EE66E3A0EE7
:1025D000E66EE66AE66A080EE66E1AEC67F0050E2D
:1025E000E15E030E3CD0479D39D0E66AE66AE66AB2
:1025F000E66AE66AE66A0CEC0DF03A6E060EE15EFB
:102600003A50090144A11FD044A373D0B7C93AF08E
:10261000B8C93BF0B9C93CF03D6AB7C9E6FFB8C9D3
:10262000E6FFB9C9E6FF3DC0E6FF080EE66E1AEC0C
:1026300067F0050EE15E9EC08CF09FC08DF0A0C0DB
:102640008EF0020E0CD068EC0CF053D044A109D0EF
:102650009EC08CF09FC08DF0A0C08EF0010E036E66
:1026600048D043B902D068EC0CF06BC5E6FF6CC5EE
:10267000E6FF6DC5E6FF5AC5E6FF5BC5E6FF5CC534
:10268000E6FF0CEC0DF0060EE15E33D058EC0CF0DA
:1026900003500B0A1CE00B0A1AE00A0A18E0090AA8
:1026A00003E0070A26E013D009014451010B03E1BE
:1026B00089DE00090AE0090142A11BD01BEC0BF0E6
:1026C000000917E027EC0CF014D00A0E11D00A0E06
:1026D000036E09014451010B03E174DE000909E0B6
:1026E00071DE09014297E8B0428709017F6B030E52
:1026F000036E0901469912000901B56BB66B000E15
:102700000301CA6FCB6B826F836B3A6F3B6B050122
:10271000716B726B736B71C560F572C561F573C5D2
:1027200062F5926B936B946B00018C6B8D6B8E6B6F
:10273000036A00018A6B8B6B0001886B896B09014E
:10274000449544934997320E05018E6F8F6B1E0E90
:0E2750008C6F8D6B090144934495479D1200D8
:02275E006CC746
:10276000E9FFEA6AE9BEEA68D890E936EA36740E0B
:10277000E9260F0EEA22EECFE6FFEFCFE6FF21ECCF
:102780005BF0E552E5521200D9CFE6FFE1CFD9FF69
:10279000FD0EDBCF3CF0FE0EDBCF3DF0D8903D5080
:1027A00004E6010E3C5C000E3D5802E2010E0ED024
:1027B000FD0EDBCF3EF0FE0EDBCF3FF03F3409E2F3
:1027C0003E50D008000E3F5404E2D00E3A6E3B6AF1
:1027D00004D0FD0EDBCF3AF0FE0E3A50E552E7CFC3
:1027E000D9FF1200D9CFE6FFE1CFD9FFFE0EDBCF34
:1027F0003DF0800E3D1402E03A6A19D0FD0EDBCFA9
:102800003EF0FE0EDBCF3FF00F012F513F18E8AE38
:1028100002D03F3404D03E502E5D3F502F5903E28A
:102820002ECF3AF004D0FD0EDBCF3AF0FE0E3A5038
:10283000E552E7CFD9FF1200D9CFE6FFE1CFD9FFAC
:10284000080EE66EF90EDBCF64F0FA0EDBCF65F012
:1028500030CF69F031CF6AF003EC55F062C03EF042
:1028600063C03FF0F70EDBCF64F0F80EDBCF65F00E
:1028700032CF69F033CF6AF003EC55F03E5062245A
:102880003A6E3F5063203B6E3C6A3D6A3BAE02D0DD
:102890003C683D683AC0E6FF3BC0E6FF3CC0E6FF4F
:1028A0003DC0E6FFB0EC40F0406E050EE15E4050EA
:1028B00062C034FF63C035FF080EE66EF90EDBCF51
:1028C00042F0FA0EDBCF43F0426C431E000E43226F
:1028D000000132CFE8FF4202F3CF40F0F4CF41F0E5
:1028E0004302F350412633CFE8FF4202F350412622
:1028F000F70EDBCF64F0F80EDBCF65F030CF69F078
:1029000031CF6AF003EC55F0405062243C6E4150E8
:1029100063203D6E3E6A3F6A3DAE02D03E683F682E
:102920003CC0E6FF3DC0E6FF3EC0E6FF3FC0E6FF1D
:10293000B0EC40F0446E050EE15E445062C03AF0E7
:1029400063C03BF0FB0EDBCFE9FFFC0EDBCFEAFF01
:1029500062C0EEFF3BC0EDFFFD0EDBCFE9FFFE0ED8
:10296000DBCFEAFF34CFEEFF35CFEDFFE552E7CF07
:10297000D9FF1200D9CFE6FFE1CFD9FF090170518D
:1029800015E070C0E6FF71C0E6FF72C0E6FF73C0DD
:10299000E6FF700EE66E000EE66E720EE66E000E3C
:1029A000E66E4ADF3A6E080EE15E3A50FD0EDBCF6E
:1029B00006FFFE0EDBCF07FF06CF04FF07CF05FFA4
:1029C00006CF02FF07CF03FF06CF00FF07CF01FFAF
:1029D0006468656870C069F071C06AF003EC55F016
:1029E0007450625C3A6E755063583B6E3A500F01FA
:1029F00002273B5003237450705C3A6E7550715837
:102A00003B6E3A5004273B5005236468656872C0EA
:102A100069F073C06AF003EC55F0625074243A6EAA
:102A2000635075203B6E3A500F0100273B50012345
:102A3000725074243A6E735075203B6E3A500627DC
:102A40003B500723E552E7CFD9FF1200D9CFE6FF6D
:102A5000E1CFD9FF0F0101510319E8AE02D00335D0
:102A600004D00251005D0351015905E202CF44FF39
:102A700003CF45FF04D000CF44FF01CF45FF466B95
:102A800045BF466904CF3AF005CF3BF03C6A3BBEF8
:102A90003C6846513C18E8AE02D03C3406D03A506F
:102AA000445D3B5045593C50465909E204CF44FF30
:102AB00005CF45FF466B45AF04D0466902D046CFEF
:102AC00046FF06CF3AF007CF3BF03C6A3BBE3C687E
:102AD00046513C18E8AE02D03C3406D03A50445D32
:102AE0003B5045593C50465909E206CF44FF07CFB9
:102AF00045FF466B45AF04D0466902D046CF46FF3E
:102B0000FD0EDBCF3AF0FE0EDBCF3BF03C6A3BBE66
:102B10003C68440EE96E0F0EEA6E3A50EE5C476F69
:102B20003B50EE58486F3C50EE58496FE834000E69
:102B3000491907E6D880000E4755000E4855000E8B
:102B4000495501E3DCD1D00E3D6E3E6A3F6AFD0E71
:102B5000DBCF40F0FE0EDBCF41F0426A41BE42685F
:102B600040503D5C3A6E41503E583B6E42503F589B
:102B70003BC03CF03AC03BF03A6A3AC063F03BC01D
:102B800064F03CC065F047CF68F048CF69F049CFAA
:102B90006AF0A2EC54F0D8906550000A06E6000EE8
:102BA000635C000E6458000E65583AE2D00E466E23
:102BB000476A486AFD0EDBCF49F0FE0EDBCF4AF0D4
:102BC0004B6A4ABE4B684950465C436E4A50475870
:102BD000446E4B50485844C045F043C044F0436AEB
:102BE00043C063F044C064F045C065F047CF68F06F
:102BF00048CF69F049CF6AF0A2EC54F063C03EFFC1
:102C000064C03FFF65C040FF686869686A684EEC51
:102C100055F060C03EFF61C03FFF62C040FF2ED054
:102C2000D00E4F6E506A516AFD0EDBCF52F0FE0E91
:102C3000DBCF53F0546A53BE546852504F5C4C6E15
:102C4000535050584D6E545051584DC04EF04CC0DA
:102C50004DF04C6A4CC063F04DC064F04EC065F05E
:102C600047CF68F048CF69F049CF6AF0A2EC54F042
:102C700063C03EFF64C03FFF65C040FFFD0EDBCF79
:102C80003DF0FE0EDBCF3EF03F6A3EBE3F683EC4E5
:102C900040F03FC441F0426A41BE426840503D5C52
:102CA0003A6E41503E583B6E42503F583BC03CF05C
:102CB0003AC03BF03A6A3AC063F03BC064F03CC0B3
:102CC00065F047CF68F048CF69F049CF6AF0A2ECD1
:102CD00054F0D8906550000A06E6000E635C000EC2
:102CE0006458000E65583DE2FD0EDBCF46F0FE0E47
:102CF000DBCF47F0486A47BE48683EC449F03FC44E
:102D00004AF04B6A4ABE4B684950465C436E4A5093
:102D10004758446E4B50485844C045F043C044F0B7
:102D2000436A43C063F044C064F045C065F047CFD8
:102D300068F048CF69F049CF6AF0A2EC54F063C064
:102D400041FF64C042FF65C043FF686869686A6804
:102D50004EEC55F060C041FF61C042FF62C043FFCE
:102D600031D0FD0EDBCF4FF0FE0EDBCF50F0516ABD
:102D700050BE51683EC452F03FC453F0546A53BE33
:102D8000546852504F5C4C6E535050584D6E5450D6
:102D900051584DC04EF04CC04DF04C6A4CC063F0E1
:102DA0004DC064F04EC065F047CF68F048CF69F081
:102DB00049CF6AF0A2EC54F063C041FF64C042FF07
:102DC00065C043FF3E0EE96E0F0EEA6E020EEB5039
:102DD0000F014319E8AE02D0433506D04151EE5CF5
:102DE0004251EE584351EE5807E23ECF3BFF3FCFF2
:102DF0003CFF40CF3DFF06D041CF3BFF42CF3CFFE1
:102E000043CF3DFF3D35000E3D1907E6D880000E4B
:102E10003B55000E3C55000E3D5504E3010E3B6F43
:102E20003C6B3D6BD8903D51000A06E6000E3B5DC1
:102E3000010E3C59000E3D5960E2010E3A6F70C020
:102E40003AF071C03BF03C6A3BBE3C683AC063F06C
:102E50003BC064F03CC065F03BCF68F03CCF69F00C
:102E60003DCF6AF04EEC55F060C04AFF61C04BFFA9
:102E700062C04CFF61C070F062C071F072C03AF085
:102E800073C03BF03C6A3BBE3C683AC063F03BC059
:102E900064F03CC065F03BCF68F03CCF69F03DCFBB
:102EA0006AF04EEC55F060C04AFF61C04BFF62C053
:102EB0004CFF61C072F062C073F074C03AF075C02C
:102EC0003BF03C6A3BBE3C683AC063F03BC064F0F8
:102ED0003CC065F03BCF68F03CCF69F03DCF6AF075
:102EE0004EEC55F060C04AFF61C04BFF62C04CFF22
:102EF00061C074F062C075F003D03A6B01D03A6BD8
:102F0000E552E7CFD9FF120004013D5104013F19FA
:102F1000E8AE02D03F3507D03E5104013C5D0401CC
:102F20003F5104013D5903E20F012C6B2DD03CC4ED
:102F30002CFF3DC42DFF040E025C2AE100019451D8
:102F40000F012C27000195510F012D232D51040154
:102F50003F19E8AE02D03F3507D03E510F012C5D3E
:102F600004013F510F012D5905E23EC42CFF3FC41F
:102F70002DFF0ED00F012D3509E22C51BB08000E9C
:102F80002D5504E2BB0E2C6F2D6B02D02DCF2DFFE3
:102F900004013F510F012D19E8AE02D02D3507D0A5
:102FA0002C5104013E5D0F012D5104013F5919E2DE
:102FB0002CCFE6FF2DCFE6FFDDDCE552E5522CCF2E
:102FC000E6FF2DCFE6FF42DDE552E5520F013A5113
:102FD00018E02CCFE6FF2DCFE6FFCCDCE552E55222
:102FE00012002CCF04FF2DCF05FF2CCF02FF2DCFD9
:102FF00003FF2CCF00FF2DCF01FF2CCF06FF2DCFDD
:1030000007FF120060C382F061C383F018C380F031
:1030100019C381F05BC73DF03E6A3F6A3DAE02D006
:103020003E683F6880C03AF081C03BF03C6A3BBEDE
:103030003C683AC063F03BC064F03CC065F03DC002
:1030400068F03EC069F03FC06AF04EEC55F060C0D9
:1030500054FF61C055FF62C056FF70C73AF03B6A2B
:103060003ABE3B680F0155513A24576F56513B20E9
:10307000586F596B5A6B58AF02D059695A6920CFB3
:103080003AF021CF3BF03C6A3D6A3BAE02D03C684F
:103090003D683AC062F03BC063F03CC064F03DC0A4
:1030A00065F057CF67F058CF68F059CF69F05ACF25
:1030B0006AF0C3EC6DF05EC057FF5FC058FF60C0A0
:1030C00059FF61C05AFF6F0E0F015727000E58239A
:1030D00059235A23020EE66EE66A57CFE6FF58CF11
:1030E000E6FF59CFE6FF5ACFE6FF08CF3AF009CF07
:1030F0003BF03C6A3D6A3BAE02D03C683D683AC05A
:10310000E6FF3BC0E6FF3CC0E6FF3DC0E6FF9DECAE
:1031100028F03E6E0A0EE15E3E5062C008FF63C0BA
:1031200009FF62C73DF03E6A3F6A3DAE02D03E688D
:103130003F6882C03AF083C03BF03C6A3BBE3C68CB
:103140003AC063F03BC064F03CC065F03DC068F03D
:103150003EC069F03FC06AF04EEC55F060C054FFCD
:1031600061C055FF62C056FF010EE66E44C43AF0DE
:1031700045C43BF0030E3B02F3CF3BF03A02F3CFE2
:103180003AF0F4503B26F3CFE6FF3BC0E6FF60EC9D
:1031900040F0E552E552E5520F015551F3245B6FC3
:1031A0005651F4205C6F5D6B5E6B5CAF02D05D6965
:1031B0005E6922CF3AF023CF3BF03C6A3D6A3BAEDA
:1031C00002D03C683D683AC062F03BC063F03CC04E
:1031D00064F03DC065F05BCF67F05CCF68F05DCF19
:1031E00069F05ECF6AF0C3EC6DF05EC05BFF5FC05C
:1031F0005CFF60C05DFF61C05EFF6F0E0F015B276B
:10320000000E5C235D235E23020EE66EE66A5BCF52
:10321000E6FF5CCFE6FF5DCFE6FF5ECFE6FF0ACFBD
:103220003AF00BCF3BF03C6A3D6A3BAE02D03C68C3
:103230003D683AC0E6FF3BC0E6FF3CC0E6FF3DC04C
:10324000E6FF9DEC28F00A0EE15E62C00AFF63C053
:103250000BFF120007016C51010A44E0020A01E071
:1032600012000F015F6B040E5F5D01E379D018EC73
:1032700066F00F015F51E824620FE66E34EC66F0F1
:10328000E5520F01606F5F51E96EEA6AD890E93646
:10329000EA36000EE9260F0EEA22EECFE6FFEFCF68
:1032A000E6FFF2EC13F0E552E552E8407F0BE66EE4
:1032B00034EC66F0E5520F01602727EC66F00F0151
:1032C0006051E66E5F51E96EEA6AD890E936EA36F7
:1032D000240EE9260F0EEA22E552E750EE6EED6A63
:1032E0005F2BC1D70F015F6B040E5F5D39E218ECF5
:1032F00066F00F015F51E824520FE66E34EC66F081
:10330000E5520F01606F5F51E96EEA6AD890E936C5
:10331000EA36000EE9260F0EEA22EECFE6FFEFCFE7
:10332000E6FFF2EC13F0E552E552E66E34EC66F09F
:10333000E5520F01602727EC66F00F016051E66E41
:103340005F51E96EEA6AD890E936EA36240EE9263A
:103350000F0EEA22E552E750EE6EED6A5F2BC4D7FE
:103360001200090145AB8DD9090109014551020B34
:1033700004E149EC25F0000918E10EC370F00FC319
:1033800071F0706C711E000E712256C372F057C33B
:1033900073F0726C731E000E73229EC374F09FC391
:1033A00075F0746C751E000E7522EEEC66F063C04D
:1033B0006AFF64C06BFF65C06CFF0F016D6B36C5A3
:1033C0003AF037C53BF038C53CF03D6A3A500F0142
:1033D0006A5D3B500F016B593C500F016C593D50D9
:1033E0000F016D5902E2000E01D0010E09017E6F3E
:1033F00009017E510DE0140EE66EE66AE66AE66AA1
:10340000120EE66E1AEC67F03A6E050EE15E3A5067
:1034100007016C5101E031D1F29ECBEC66F062C045
:1034200062FF63C063FF64C064FF65C065FFC40ED4
:103430000F016227090E0F016323000E0F016423A1
:10344000000E0F01652309017E5106E03F0E816EDB
:1034500000013F0E766F07D00F0E811200010F0E94
:10346000766F00000000F28E4FDDCCDD000E07010C
:10347000E76E8519E8AE02D0853503D0E750D880D5
:10348000855547E20F01616B060E0F01615D41E258
:10349000010EE66E0F016151E96EEA6AD890E936D5
:1034A000EA360C0EE9260F0EEA22EECF3EF0EFCF01
:1034B0003FF00F016151E96EEA6AD890E936EA36C9
:1034C000000EE9260F0EEA223E50EE243C6E3F50DD
:1034D000EE203D6E3CC0E6FF3DC0E6FF60EC40F0F4
:1034E000E552E552E552F3CF3AF0F4CF3BF00F014D
:1034F0006151E96EEA6AD890E936EA360C0EE9269F
:103500000F0EEA223AC0EEFF3BC0EDFF0F01612B28
:10351000BBD70CCFE6FF0DCFE6FFC4EC13F0E552AE
:10352000E552776E0ECFE6FF0FCFE6FFC4EC13F047
:10353000E552E552786E10CFE6FF11CFE6FFC4ECFE
:1035400013F0E552E552796E12CFE6FF13CFE6FF96
:10355000C4EC13F0E552E5527A6E14CFE6FF15CFB6
:10356000E6FFC4EC13F0E552E5527B6E16CFE6FFA2
:1035700017CFE6FFC4EC13F0E552E5527C6E62CF44
:1035800066FF63CF67FF64CF68FF65CF69FF8C0E6E
:103590000F01665F000E0F01675B000E0F01685B95
:1035A000000E0F01695BCBEC66F00F016651625CA7
:1035B0000F01675163580F01685164580F01695139
:1035C000655801E2F0D7F29EF250200B01E0010EA7
:1035D0003A6EF250040B01E0010E3A1408E0062A9C
:1035E000000E0722F2940F016E6B6F6B04D0D6CFE2
:1035F0006EFFD7CF6FFF06C070FF07C071FF6E0E62
:10360000E96E0F0EEA6E0F016251EE5C0F0163511D
:10361000EE580F016451EE580F016551EE58D4E396
:1036200000017651816E3F0B26E0772F19EF1BF0DA
:103630007691782F1DEF1BF07693792F21EF1BF0F9
:1036400076957A2F25EF1BF076977B2F29EF1BF0CD
:1036500076997C2F2DEF1BF0769B010EE66E67ECC2
:103660006FF0E552010EE66E67EC6FF0E552000078
:10367000000011EF1BF0F28E03D046DCC3DCEADD64
:103680001200000E0F01046F056B026F036B006FD9
:10369000016B066B076B0901459B12000F01736BF1
:1036A000060E735D1AE27351E96EEA6AD890E93644
:1036B000EA360C0EE9260F0EEA22EE6AED6A735125
:1036C000E96EEA6AD890E936EA36000EE9260F0E6E
:1036D000EA22EE6AED6A732BE3D7D3DF6F0E0F0198
:0A36E000086F096B0A6F0B6B1200F4
:0636EA00D9CFE6FFE1CF9D
:1036F000D9FFFE0EEA6ADB34FE0BEA36E96E9F0E56
:10370000E926090EEA22EECFE6FFEFCFE6FF21EC35
:103710005BF0E552E552E552E7CFD9FF1200060112
:10372000006B0051020858E30051480DF3CF01F639
:10373000F4CF02F6000E0127030E022301C6E9FFB3
:1037400002C6EAFF100EE926000EEA22EECF40F094
:10375000EFCF41F001C6E9FF02C6EAFF120EE926EB
:10376000000EEA22EE50405C3E6EEE5041583F6E35
:103770000901DA51F76AE40FF66EDE0EF72208004F
:10378000F5CF42F0436A42BE4368000142503E0218
:10379000F3CF3AF0F4CF3BF03F02F3503B264350D7
:1037A0003E02F3503B263C6A3D6A3BAE02D03C6889
:1037B0003D6801C6E9FF02C6EAFF1C0EE926000EBD
:1037C000EA223AC0EEFF3BC0EEFF3CC0EEFF3DC038
:1037D000EEFF0601002BA5D71200D9CFE6FFE1CFFF
:1037E000D9FF0601036B0351020810E30351040DD6
:1037F000F3CFE9FFF4CFEAFF080EE926060EEA222E
:10380000EE6AEE6AEE6AEE6A032BEDD7066B076B83
:10381000FD0EDBCF3AF0FE0EDBCF3BF03A50065DFB
:103820003B5007594BE200B405D0040EE66E47EC5E
:103830006CF004D0040EE66E53EC6CF0E552140EFE
:10384000E66EE66A59EC25F0E552E552B1EC19F066
:10385000C8DB0601036B035102082CE30351480D3A
:10386000F3CFE9FFF4CFEAFF000EE926030EEA22C8
:10387000100EE926000EEA22EECF3AF0EFCF3BF031
:103880003C6A3D6A3BAE02D03C683D680351040D82
:10389000F3CFE9FFF4CFEAFF080EE926060EEA228D
:1038A0003A50EE263B50EE223C50EE223D50EE22A6
:1038B000032BD1D7062B000E0723AAD7036B035186
:1038C000020801E283D00351480DF3CF04F6F4CF90
:1038D00005F6000E0427030E0523FD0EDBCF40F096
:1038E000FE0EDBCF41F0426A436A0351040DF3CF71
:1038F000E9FFF4CFEAFF080EE926060EEA22EECF32
:103900003CF0EECF3DF0EECF3EF0EFCF3FF03CC0CD
:1039100062F03DC063F03EC064F03FC065F040C05F
:1039200067F041C068F042C069F043C06AF0CFEC74
:1039300054F063C03BF004C6E9FF05C6EAFF120E6F
:1039400062C0EBFF130E3BC0EBFF04C6E9FF05C6E8
:10395000EAFF180EE926000EEA22EE6AED6A3A6ADC
:103960003B6A3C6A3D6A3BAE02D03C683D6804C697
:10397000E9FF05C6EAFF200EE926000EEA223AC05A
:10398000EEFF3BC0EEFF3CC0EEFF3DC0EEFF04C6C5
:10399000E9FF05C6EAFF1C0EE926000EEA223AC03E
:1039A000EEFF3BC0EEFF3CC0EEFF3DC0EEFF04C6A5
:1039B000E9FF05C6EAFF140EE926000EEA22EE6AC8
:1039C000EE6AEE6AEE6A0601032B79D7040EE66E04
:1039D00053EC6CF0E552E552E7CFD9FF1200070136
:1039E000F851E96EEA6AD890E936EA360D0EE92612
:1039F0000A0EEA22EECFE6FFEFCFE6FF21EC5BF006
:103A0000E552E55212000601146B1451020822E33C
:103A10001451480DF3CFE9FFF4CFEAFF000EE92679
:103A2000030EEA22340EE926000EEA22EE6AED6A5F
:103A30001451480DF3CFE9FFF4CFEAFF000EE92659
:103A4000030EEA22360EE926000EEA22EE6AED6A3D
:103A5000142BDBD70301C46B040EC56FC2EF22F039
:103A6000D9CFE6FFE1CFD9FF030EE66E19CA3CF0CD
:103A70001ACA3DF0070E3D02F3CF3DF03C02F3CFF2
:103A80003CF0F4503D26FD0EDB50F3243A6EFE0E62
:103A9000DB503D203B6E3AC0E6FFE66E60EC40F046
:103AA000E552E552E552F3CF19FAF4CF1AFA3A6A21
:103AB0003B6A800E3C6E3F0E3D6EF3CF48F0F4CF74
:103AC00049F0000E485E040E495A0001800E491468
:103AD0000DE019CA46F01ACA47F0000E465E040E01
:103AE000475A466C471E000E472208D019CA46F0B6
:103AF0001ACA47F0000E465E040E475A46C064F0EC
:103B000047C065F0DFEC52F063C042F064C043F0A0
:103B100065C044F066C045F0686A696A6A6A3B0E2F
:103B20006B6E0FEC54F063C03EF064C03FF065C0B4
:103B300040F066C041F063C068F064C069F065C0E1
:103B40006AF066C06BF03AC063F03BC064F03CC002
:103B500065F03DC066F025EC53F063C015F664C017
:103B600016F665C017F666C018F6686A696A6A6A6A
:103B70006B6A1FEC56F0010A05E10601156B166B26
:103B8000176B186B15C662F016C663F017C664F0A3
:103B900018C665F0E552E7CFD9FF120006011C6B8D
:103BA0001D6B1E6B1F6B196B195102086EE31951C7
:103BB000480DF3CF1AF6F4CF1BF6000E1A27030EAA
:103BC0001B231AC6E9FF1BC6EAFF340EE926000EC6
:103BD000EA22EECF3CF0EFCF3DF01AC6E9FF1BC65C
:103BE000EAFF360EE926000EEA22EE503C5C3A6E01
:103BF000EE503D583B6E1AC6E9FF1BC6EAFF320E77
:103C00003AC0EBFF330E3BC0EBFF1AC6E9FF1BC601
:103C1000EAFF320EE926000EEA22EECF41F0EFCFA6
:103C200042F0436A42BE43681AC6E9FF1BC6EAFF78
:103C3000320EE926000EEA22EECF3EF0EFCF3FF043
:103C4000406A3FBE40683EC063F03FC064F040C081
:103C500065F041C068F042C069F043C06AF04EECC4
:103C600055F060C03AF061C03BF062C03CF03D6A84
:103C70003CBE3D683A5006011C273B501D233C507A
:103C80001E233D501F23192B8FD71CC6E6FF1DC6D0
:103C9000E6FF1EC6E6FF1FC6E6FFB5EC44F0E552A0
:103CA000E552E552E55262C020F663C021F662C0DB
:103CB000E6FF63C0E6FFD4DEE552E55262C0FAF7E4
:103CC00063C0FBF764C0FCF765C0FDF73A6A3B6A66
:103CD000800E3C6E440E3D6E20C664F021C665F039
:103CE000DFEC52F063C03EF064C03FF065C040F0CE
:103CF00066C041F063C068F064C069F065C06AF0F6
:103D000066C06BF03AC063F03BC064F03CC065F045
:103D10003DC066F0BCEC53F063C022F664C023F6ED
:103D200065C024F666C025F6FAC768F0FBC769F0DF
:103D3000FCC76AF0FDC76BF0DBC963F0DCC964F057
:103D4000DDC965F0DEC966F00FEC54F063C026F6FD
:103D500064C027F665C028F666C029F60601196B0F
:103D60001951010801E23CD11951480DF3CF1AF65F
:103D7000F4CF1BF6000E1A27030E1B231AC6E9FF09
:103D80001BC6EAFF1C0EE926000EEA22EECF42F027
:103D9000EECF43F0EECF44F0EFCF45F042C062F0FB
:103DA00043C063F044C064F045C065F00CEC53F0D0
:103DB00063C03EF064C03FF065C040F066C041F0B3
:103DC000DFC968F0E0C969F0E1C96AF0E2C96BF0E7
:103DD0000FEC54F063C03AF064C03BF065C03CF0B7
:103DE00066C03DF01AC6E9FF1BC6EAFF140EE926BD
:103DF000000EEA22EECF63F0EECF64F0EECF65F076
:103E0000EFCF66F03AC068F03BC069F03CC06AF0A2
:103E10003DC06BF026EC53F066C0EDFF65C0EDFFD2
:103E200064C0EDFF63C0EFFF1AC6E9FF1BC6EAFFDF
:103E3000140EE926000EEA22EECF42F0EECF43F058
:103E4000EECF44F0EFCF45F04A6A4B6A800E4C6EDD
:103E50003F0E4D6E26C668F027C669F028C66AF088
:103E600029C66BF04AC063F04BC064F04CC065F0EB
:103E7000666E25EC53F063C046F064C047F065C041
:103E800048F066C049F063C068F064C069F065C07E
:103E90006AF066C06BF042C063F043C064F044C097
:103EA00065F045C066F00FEC54F063C03EF064C0AE
:103EB0003FF065C040F066C041F01AC6E9FF1BC67E
:103EC000EAFF320EE926000EEA22EECF5AF0EFCFDB
:103ED0005BF05AC064F05BC065F0DFEC52F063C089
:103EE00056F064C057F065C058F066C059F022C65D
:103EF00068F023C669F024C66AF025C66BF00FECA3
:103F000054F063C052F064C053F065C054F066C012
:103F100055F026C668F027C669F028C66AF029C69B
:103F20006BF00FEC54F063C04EF064C04FF065C00E
:103F300050F066C051F063C068F064C069F065C0BD
:103F40006AF066C06BF03EC063F03FC064F040C0F2
:103F500065F041C066F025EC53F063C03AF064C0F0
:103F60003BF065C03CF066C03DF01AC6E9FF1BC6D9
:103F7000EAFF140EE926000EEA2263C0EEFF3BC002
:103F8000EEFF3CC0EEFF3DC0EEFF1AC6E9FF1BC6C8
:103F9000EAFF140EE926000EEA22EECF3CF0EECF47
:103FA0003DF0EECF3EF0EFCF3FF03CC063F03DC0C0
:103FB00064F03EC065F03FC066F0BEEC55F064C0F2
:103FC0003AF065C03BF01AC6E9FF1BC6EAFF180EBF
:103FD00064C0EBFF190E3BC0EBFF0601192BC0D6E6
:103FE0001200DEEC66F062C02EF663C02FF664C0ED
:103FF00030F665C031F61B0EE96E0A0EEA6EEE5021
:104000000601625C2A6FEE5063582B6FEE506458C5
:104010002C6FEE5065582D6F040E025C25E1100EDA
:104020002A5D0E0E2B59000E2C59000E2D590AE355
:10403000D880300E2A55110E2B55000E2C55000E2F
:104040002D5512E209016F0EDF6F120EE06F830E25
:10405000E16F3B0EE26F0401EB2B000EEC232AC64E
:10406000EDF42BC6EEF424D02AC662F02BC663F022
:104070002CC664F02DC665F00AEC53F063C03AF02C
:1040800064C03BF065C03CF066C03DF0BD0E686E9C
:10409000370E696E860E6A6E350E6B6E0FEC54F03D
:1040A00063C0DFF964C0E0F965C0E1F966C0E2F918
:1040B0002EC61BFA2FC61CFA30C61DFA31C61EFAD0
:1040C00009015C5102E06DEF20F084DA6CEF22F020
:1040D00088DF8FEC1BF0CEEF1DF0010EE66E070EB1
:1040E000E66E320EE66E060EE66E3B0EE66EF9C723
:1040F000E6FF4BEC65F03A6E060EE15E3A50010EBB
:10410000E66E34C6E6FF35C6E6FF60EC40F0E552E9
:10411000E552E552F3CF7CF3F4CF7DF3010EE66E6A
:1041200032C6E6FF33C6E6FF60EC40F0E552E552EA
:10413000E552F3CF34F3F4CF35F30301346D351F7B
:10414000000E3523010EE66E36C6E6FF37C6E6FFE3
:1041500060EC40F0E552E552E552F3CFC4F3F4CF02
:10416000C5F3000E0301C427040EC5233CC610F39B
:104170003DC611F3106D111F000E11233AC658F3FE
:104180003BC659F3586D591F59233EC6A0F33FC68D
:10419000A1F3A06DA11FA1231200D9CFE6FFE1CFAB
:1041A000D9FFE652800EE66E6B0EE66EF9C7E6FFAB
:1041B00026EC65F0E552E552E552050EE66EE66A3C
:1041C00059EC25F0E552E552E66A230EE66EF9C792
:1041D000E6FF26EC65F0E552E552E552E66A190E77
:1041E000E66EF9C7E6FF26EC65F0E552E552E552CA
:1041F000010EE66E6B0EE66EF9C7E6FF26EC65F083
:10420000E552E552E5521B0EE66E1C0EE66EF9C74E
:10421000E6FF26EC65F0E552E552E552180EE66E33
:104220001B0EE66EF9C7E6FF26EC65F0E552E55297
:10423000E5526A0EE66EF9C7E6FFF7EC64F0E55268
:10424000E552DF6E000EDF9ADFCFE6FF6A0EE66E04
:10425000F9C7E6FF26EC65F0E552E552E552370E68
:10426000E66EF9C7E6FFF7EC64F0E552E552DF6E63
:10427000DF82DFCFE6FF370EE66EF9C7E6FF26ECFA
:1042800065F0E552E552E55278C7F6FFF76AF6BEEB
:10429000F768EB0EF626DE0EF7220800F550E66E04
:1042A0001A0EE66EF9C7E6FF26EC65F0E552E55218
:1042B000E5520A0EE66EE66A59EC25F0E552E55243
:1042C000E552E552E7CFD9FF12000701D00EF96F92
:1042D000E66EEEEC65F0E5520901469BE8B0468BD0
:1042E00046BB0BD00701D20EF96FE66EEEEC65F01F
:1042F000E5520901469BE8B0468B4651200B01E090
:10430000010E1200D9CFE6FFE1CFD9FF9498829A2F
:104310000601080E406F40511BE08296FE0EDBAE98
:1043200002D0828801D08298DBCFF3FFF39EF34660
:10433000F3CFDBFF020EE66E67EC6FF0E55282868C
:10434000020EE66E67EC6FF0E55206014007E3D718
:10435000E552E7CFD9FF1200D9CFE6FFE1CFD9FF71
:104360008288FE0EDBCFE6FFCDDFE55294880AD8C7
:104370000601416FFE0EDBAC828A4151E552E7CF68
:10438000D9FF12000601080E426F425114E08296D6
:10439000020EE66E67EC6FF0E5520601439F43475D
:1043A00082B843818286020EE66E67EC6FF0E552BA
:1043B00006014207EAD743511200D9CFE6FFE1CF09
:1043C000D9FFFD0EDBCFE6FF9DDFE5520601080EAB
:1043D000446F44511BE08296FE0EDBAE02D0828811
:1043E00001D08298DBCFF3FFF39EF346F3CFDBFFE0
:1043F000020EE66E67EC6FF0E5528286020EE66E04
:1044000067EC6FF0E55206014407E3D7828A94888F
:10441000E552E7CFD9FF1200F40EE66E010EE66E0C
:1044200059EC25F0E552E5528F0EE66E95DFE55228
:104430000601456F3A0E455D02E0000E01D0010E07
:104440000901469BE8B0468B200EE66EC70EE66E6D
:10445000B4DFE552E552220EE66EE66AAEDFE552C3
:10446000E552300EE66E400EE66EA7DFE552E552ED
:10447000340EE66EE66AA1DFE552E552350EE66ED1
:10448000FC0EE66E9ADFE552E552360EE66EE66801
:1044900094DFE552E552380EE66EE66A8EDFE552AD
:1044A000E5521200828A210EE66E4A0EE66E85DF24
:1044B000E552E5528F0EE66E4FDFE5523A0802E014
:1044C000000E01D0010E0901469BE8B0468B465113
:1044D000200B01E0010E12008F0EE66E3DDFE5526B
:1044E0003A0802E0000E01D0010E0901469BE8B037
:1044F000468BE80EE66E30DFE5520601466F42DF7E
:104500000601476F3FDF0601486F3CDF0601496F38
:1045100039DF06014A6F36DF06014B6F828A46C6D5
:1045200034F347C635F34AC67CF3E8CF7DF348C67B
:10453000C4F349C6C5F3120006014E6B4E51020882
:1045400020E34E51480DF3CFE9FFF4CFEAFF000E10
:10455000E926030EEA22360EE926000EEA22EECF05
:10456000E6FFEFCFE6FF4E51E824D00FE66EE66A95
:1045700035EC69F0E552E552E552E55206014E2B65
:10458000DDD7120006014F6B4F51020822E34F5155
:10459000E824D00FE66EE66A75EC68F0E552E55265
:1045A000F3CF3AF0F4CF3BF006014F51480DF3CF73
:1045B000E9FFF4CFEAFF000EE926030EEA22360EE9
:1045C000E926000EEA223AC0EEFF3BC0EDFF4F2B7A
:1045D000DBD71200010EE66E32EC6EF0E552F3CF3F
:1045E00010F3F4CF11F30301106D111F000E11230E
:1045F000020EE66E32EC6EF0E552F3CF58F3F4CFD4
:1046000059F30301586D591F000E5923040EE66E2D
:1046100032EC6EF0E552F3CFA0F3F4CFA1F3120029
:0A4620006BC7DAF909014A831200A2
:06462A0009014751200BBD
:1046300003E04751040B30E1EEEC66F063C03AF062
:1046400064C03BF065C03CF03D6A63500901EC5D1D
:104650006450ED596550EE593D50EF591DE2EEECB6
:1046600066F063C0ECF964C0EDF965C0EEF9F40ED4
:104670000901EC27010EED23000EEE23EF6B00BACB
:1046800006D0200EE66E47EC6CF0E5521200200ECC
:10469000E66E53EC6CF0E552120000BA05D0200E25
:1046A000E66E47EC6CF004D0200EE66E53EC6CF036
:1046B000E552090146A105D0080EE66E47EC6CF004
:1046C00004D0080EE66E53EC6CF0E552800EE66EF8
:1046D00053EC6CF0E552EEEC66F063C085F864C014
:1046E00086F865C087F8F40E08018527010E862339
:1046F000000E87237FEC47F0010E056E8EEC2AF04A
:10470000010E056E85EC38F00901439D46A158D095
:10471000080EE66E47EC6CF0E552090146A75AD048
:1047200013EC51F042C440F443C441F4000E0401C0
:104730003C6F3D6B0401426F436BB1EC19F0EEEC42
:1047400066F063500801855D64508659655087594D
:104750002FE209014551020B2BE181EC36F00901F2
:104760004695E8B046854451010B03E14651040BE0
:1047700013E100BE05D0800EE66E47EC6CF004D06D
:10478000800EE66E53EC6CF0E55200B405D0040EDA
:10479000E66E47EC6CF004D0040EE66E53EC6CF061
:1047A000E552F40E08018527010E8623000E8723AB
:1047B0000901F05103E189EC35F00CD0F0070AD083
:1047C000040EE66E47EC6CF0E552080EE66E53EC14
:1047D0006CF0E5529BEC31F009014651010B01E10F
:1047E00089D757D9000904E00801805101E082D738
:1047F00009014951400B01E07DD74451010B01E013
:1048000079D74651400B01E175D740C43AF041C415
:104810003BF03C6A3D6A3BAE02D03C683D68D890B4
:104820003D50000A08E6180E3A5C000E3B58000E98
:104830003C58000E3D5801E35DD74651040B01E1A1
:1048400059D74651200B01E155D70801806B800EE6
:10485000E66E53EC6CF0E552040EE66E53EC6CF031
:10486000E552080EE66E47EC6CF0E552DEDEEEEC4B
:1048700066F063C081F864C082F865C083F80801FF
:10488000846B63C039F564C03AF565C03BF5E80E4A
:10489000E66E030EE66EE66AE66A060EE66E1AEC51
:1048A00067F03A6E050EE15E3A50DEEC66F062C0EB
:1048B0003AF063C03BF064C03CF065C03DF0A00E30
:1048C0003A260F0E3B22000E3C223D223AC054F500
:1048D0003BC055F53CC056F509014297010E046EE8
:1048E0001200680EE66EC30EE66E21EC5BF0E55238
:1048F000E55244EC45F05FEC3CF0CEEC6AF05A0E29
:10490000E66EC30EE66E21EC5BF0E552E55208015F
:10491000896B400E895D62E2560EE66EC30EE66E4E
:1049200021EC5BF0E552E55208018929E66EE66A62
:104930006EEC5BF0E552E552520EE66EC30EE66E8B
:1049400021EC5BF0E552E55208018951EA6A490F12
:10495000E96E070EEA22EFCF3AF03B6A3ABE3B68B7
:104960003AC0E6FF3BC0E6FFD7EC5BF0E552E5520C
:1049700008018951F66EF76AD890F636F736060EBA
:10498000F626DB0EF722010EF626000EF7220800AF
:10499000F55007E04F0EE66EC30EE66E21EC5BF0BD
:1049A00018D0200EE66E41EC5BF0E552400E080197
:1049B0008925E66EE66A5CEC68F0E552E5523A6EEF
:1049C0003B6A3ABE3B683AC0E6FF3BC0E6FFD7EC25
:1049D0005BF0E552E5520801892B9BD712003F0E90
:1049E000926E020EC16EC00E816E400E936E600E0E
:1049F000826E840E946EC78CF19E410EE66EE66A5E
:104A00003C0EE66E3CEC6DF0E552E552E5521200CC
:104A1000026A08018A6B0A0E8A5D09E28A51EA6A13
:104A2000420FE96E090EEA22EF6A8A2BF4D70901D8
:104A30004281458946850801F66BF76BF86BF96B87
:104A4000040148697F0E496F48C446F4E8CF47F433
:104A500048C44AF4E8CF4BF4140E04013E6F3F6B98
:104A6000F00E0401406F416BD00E0F012E6F2F6BC3
:104A7000006A2E0EE66E53EC6CF0E552040EE66E04
:104A800047EC6CF0E552800EE66E53EC6CF0E552AC
:104A9000120009014AAB08D08050100B03E0060158
:104AA000FF5101E1000C010C8050100B01E0010EE0
:104AB0001200D9CFE6FFE1CFD9FFFD0EDBCF3AF0F0
:104AC000FE0EDBCF3BF03C6A3BBE3C683AC0E6FFE3
:104AD0003BC0E6FF3CC0E6FFEEEC66F0E552E7CFF8
:104AE0003CF0E552E7CF3BF0E552E7CF3AF06350B8
:104AF0003A2408018B6F64503B208C6F65503C203A
:104B00008D6F8B2B000E8C238D23EEEC66F008014D
:104B10008B51635C8C5164588D516558F6E3E552B6
:104B2000E7CFD9FF1200D9CFE6FFE1CFD9FFFD0EC5
:104B3000DBCF3AF0FE0EDBCF3BF0640E3B02F3CF4F
:104B40003BF03A02F3CF3AF0F4503B263C6A3BBECE
:104B50003C683AC0E6FF3BC0E6FF3CC0E6FFEEEC37
:104B600066F0E552E7CF3CF0E552E7CF3BF0E55287
:104B7000E7CF3AF063503A2408018E6F64503B202F
:104B80008F6F65503C20906FEEEC66F008018E51FF
:104B9000635C8F5164589051655809E2020EE66ECD
:104BA000E66A87DFE552E552B1EC19F0EDD7E55240
:104BB000E7CFD9FF1200D9CFE6FFE1CFD9FF800EB2
:104BC000E66E47EC6CF0E552FE0EDBCFE6FFE66AE0
:104BD000AADFE552E552800EE66E53EC6CF0E5522A
:104BE000FD0EDBCFE6FFE66A9EDFE552E552E552B9
:104BF000E7CFD9FF1200D9CFE6FFE1CFD9FF0801F7
:104C0000916BFE0EDB50915D0AE2080EE66E020E1D
:104C1000E66ED1DFE552E5520801912BF2D7E66A44
:104C2000080EE66EC8DFE552E552E552E7CFD9FF40
:104C30001200EEEC66F063C092F864C093F865C0B1
:104C400094F8920EE96E080EEA6E05013C51EE5C96
:104C50003D51EE583E51EE5801E2C1D0055001E100
:104C6000BED0E80EE66E030EE66EE66AE66A140E45
:104C7000E66E1AEC67F03A6E050EE15E3A50056A90
:104C80002CCF62F02DCF63F0646A656A63AE02D008
:104C900064686568040E676E686A696A6A6AC3EC6C
:104CA0006DF05EC0EEF85FC0EFF8390EE96E050EEC
:104CB000EA6EEE500801925D416EEE509359426EDD
:104CC000EE509459436E5EC03EF05FC03FF0406AC4
:104CD0003FBE40683EC063F03FC064F040C065F036
:104CE00041C068F042C069F043C06AF04EEC55F034
:104CF0003D6A60500801F6276150F7236250F8239F
:104D00003D50F92392C839F593C83AF594C83BF55C
:104D1000F6C83AF0F7C83BF0F8C83CF0F9C83DF0E7
:104D2000676A400E686E380E696E6A6AF6C862F08D
:104D3000F7C863F0F8C864F0F9C865F0CFEC54F038
:104D400062C03AF063C03BF064C03CF065C03DF027
:104D5000320E676E686A696A6A6AC3EC6DF05EC09B
:104D60003AF05FC03BF060C03CF061C03DF05EC017
:104D7000F4F85FC0F5F8E66A32EC6EF0E552F3CF76
:104D800095F8F4CF96F8010EE66E0801EC51080193
:104D9000F3243A6E0801ED510801F4203B6E3AC04D
:104DA000E6FFE66E60EC40F0E552E552E552F3CFE7
:104DB000ECF8F4CFEDF80801F450F119E8AE02D0A8
:104DC000F13504D0F051EC5DF151ED5902E3000EE4
:104DD00001D0010E010B0901429BE8B0428B120089
:104DE000055001E1A7D0056A09014251200B0EE1EF
:104DF0004251080B0BE14251010B03E04351400BC0
:104E000005E1030E025C02E0000E01D0010E4893A2
:104E1000E8B0488348A37FD042AB0AD00901580EBE
:104E2000F16F020EF26F580EF36F020EF46F1ED088
:104E30004251010B09E04351400B06E0C80E090145
:104E4000F16FF26B140E10D0030E025C07E1090142
:104E50008E0EF16F120EF26FFA0E06D042A706D038
:104E60007D0E0901F16FF26BF36FF46BEEEC66F0FF
:104E700063500501455D64504659655047595AE2F3
:104E800000AE24D0F1C93AF0F2C93BF03C6A3D6A69
:104E90003BAE02D03C683D683AC0E6FF3BC0E6FF4F
:104EA0003CC0E6FF3DC0E6FF170EE66E1AEC67F069
:104EB0003E6E050EE15E3E50800EE66E53EC6CF0E9
:104EC000E552040EE66E53EC6CF023D0F3C93AF0D1
:104ED000F4C93BF03C6A3D6A3BAE02D03C683D6899
:104EE0003AC0E6FF3BC0E6FF3CC0E6FF3DC0E6FF40
:104EF000170EE66E1AEC67F03E6E050EE15E3E5050
:104F0000800EE66E47EC6CF0E552040EE66E47EC60
:104F10006CF0E5521200EEEC66F0635005010C5D9A
:104F200064500D5965500E5905E2800EE66E53EC43
:104F30006CF0E5521200D9CFE6FFE1CFD9FFFE0EAB
:104F4000DBCF3BF0800E3B141EE0FB0EDBCF3AF0D4
:104F5000FC0EDBCF3BF0D950FD0FE96EFF0EDA20DF
:104F6000EA6E3A50EE263B50ED22FD0EDBCF3AF0D2
:104F7000FE0EDBCF3BF03B342EE23A500008000E31
:104F80003B5429E224D0FD0EDBCF3AF0FE0EDBCFFE
:104F90003BF03B3420E23A500008000E3B541BE249
:104FA000FB0EDBCF3AF0FC0EDBCF3BF0D950FD0F10
:104FB000E96EFF0EDA20EA6E3A50EE5E3B50ED5A93
:104FC000FD0EFE0EDBCF3BF0800E3B1404E0FD0E29
:104FD000DB6AFE0EDB6AFD0EDBCF3AF0FE0EDBCFA6
:104FE0003BF03AC0F3FF3BC0F4FFE552E7CFD9FFF7
:104FF0001200D9CFE6FFE1CFD9FFF90EDBCF3AF0AF
:10500000FA0EDBCF3BF03C6A3D6A3BAE02D03C6817
:105010003D68D950FB0FE96EFF0EDA20EA6E030EF1
:10502000EBCFF3FF3D50F318E8AE02D0F33408D0D5
:10503000EE503A5CEE503B58EE503C58EE503D5826
:105040001BE2F90EDBCF3AF0FA0EDBCF3BF03C6A05
:105050003D6A3BAE02D03C683D68D950FB0FE96E1B
:10506000FF0EDA20EA6E3A50EE5E3B50EE5A3C50AC
:10507000EE5A3D50EE5A49D0F90EDBCF3AF0FA0E17
:10508000DBCF3BF03A6C3B1E000E3B223C6A3D6A94
:105090003BAE02D03C683D68D950FB0FE96EFF0E75
:1050A000DA20EA6E030EEB503D18E8AE02D03D3434
:1050B00008D03A50EE5C3B50EE583C50EE583D5014
:1050C000EE581BE2F90EDBCF3AF0FA0EDBCF3BF0E5
:1050D0003C6A3D6A3BAE02D03C683D68D950FB0F4C
:1050E000E96EFF0EDA20EA6E3A50EE263B50EE22D1
:1050F0003C50EE223D50EE2208D0FB0EDB6AFC0E47
:10510000DB6AFD0EDB6AFE0EDB6AFB0EDBCF3AF0DC
:10511000FC0EDBCF3BF0FD0EDBCF3CF0FE0EDBCF19
:105120003DF03AC062F03BC063F03CC064F03DC06B
:1051300065F0E552E7CFD9FF1200D9CFE6FFE1CF06
:10514000D9FFF60EDBCF3DF0800E3D140BE0F50EDF
:10515000DBCF3AF0F60EDBCF3BF03A6C3B1E000E95
:105160003B2206D0F50EDBCF3AF0F60EDBCF3BF05C
:10517000F50E3AC0DBFFF60E3BC0DBFFF50EDBCFD2
:105180003AF0F60EDBCF3BF03C6A3D6A3BAE02D014
:105190003C683D68D950FB0FE96EFF0EDA20EA6EDD
:1051A0003A50EE5C0801976F3B50EE58986F3C50B8
:1051B000EE58996F3D50EE589A6FF50EDBCF3AF0EE
:1051C000F60EDBCF3BF03C6A3D6A3BAE02D03C685A
:1051D0003D68D950FB0FE96EFF0EDA20EA6EEE5003
:1051E0003A249B6FEE503B209C6FEE503C209D6F0D
:1051F000EE503D209E6FD950F70FE96EFF0EDA207A
:10520000EA6E030EEB509A19E8AE02D09A3508D038
:105210009751EE5C9851EE589951EE589A51EE58CC
:1052200009E297C83AF098C83BF099C83CF09AC890
:105230003DF02DD0D950F70FE96EFF0EDA20EA6E5F
:10524000030EEBCFF3FF9E51F318E8AE02D0F33418
:1052500008D0EE509B5DEE509C59EE509D59EE509B
:105260009E5909E29BC83AF09CC83BF09DC83CF0AF
:105270009EC83DF00CD0F70EDBCF3AF0F80EDBCF36
:105280003BF0F90EDBCF3CF0FA0EDBCF3DF03AC03D
:1052900062F03BC063F03CC064F03DC065F0E55295
:1052A000E7CFD9FF1200D9CFE6FFE1CFD9FFE15018
:1052B000F30FE96EFF0EDA20EA6EEE50ED1019E101
:1052C000FD0EDBCFE9FFFE0EDBCFEAFFF80EDBCFF2
:1052D000EEFFF90EDBCFEDFFFB0EDBCFE9FFFC0E9F
:1052E000DBCFEAFFF50EDBCFEEFFF60EDBCFEDFFF7
:1052F000F1D0F30EDBCFE6FFF40EDBCFE6FFA0EC40
:1053000042F0E552E552F3CF9FF8F4CFA0F8F30E48
:10531000DBCFE6FFF40EDBCFE6FF27EC42F0E552F1
:10532000E552F3CFA1F8F4CFA2F8080EE66E9FC8BD
:1053300041F0A0C842F0436A42BE436841C063F0F6
:1053400042C064F043C065F0F80EDBCF68F0F90EA0
:10535000DBCF69F0FA0EDBCF6AF04EEC55F060C09F
:105360003EF061C03FF062C040F0A1C844F0A2C866
:1053700045F0466A45BE466844C063F045C064F0E7
:1053800046C065F0F50EDBCF68F0F60EDBCF69F0B6
:10539000F70EDBCF6AF04EEC55F03E5060243A6ECB
:1053A0003F5061203B6E405062203C6E3D6A3CBEE7
:1053B0003D683AC0E6FF3BC0E6FF3CC0E6FF3DC0AB
:1053C000E6FFB0EC40F0476E050EE15E475062C06C
:1053D000A3F863C0A4F8080EE66EA1C846F0A2C800
:1053E00047F0486A47BE4868F80EDBCF43F0F90E35
:1053F000DBCF44F0FA0EDBCF45F0686869686A6875
:1054000043C063F044C064F045C065F04EEC55F015
:1054100060C043F061C044F062C045F060C063F01A
:1054200061C064F062C065F046C068F047C069F0D2
:1054300048C06AF04EEC55F060C040F061C041F0E9
:1054400062C042F09FC849F0A0C84AF04B6A4ABE09
:105450004B6849C063F04AC064F04BC065F0F50E7C
:10546000DBCF68F0F60EDBCF69F0F70EDBCF6AF02A
:105470004EEC55F0405060243C6E415061203D6E32
:10548000425062203E6E3F6A3EBE3F683CC0E6FF2F
:105490003DC0E6FF3EC0E6FF3FC0E6FFB0EC40F097
:1054A0004C6E050EE15E4C5063C03BF0FB0EDBCF53
:1054B000E9FFFC0EDBCFEAFF62C0EEFF3BC0EDFF71
:1054C000FD0EDBCFE9FFFE0EDBCFEAFFA3C8EEFF48
:0C54D000A4C8EDFFE552E7CFD9FF1200A1
:0454DC0004016C510A
:1054E000E96EEA6AD890E936EA36070EE9260A0E2E
:1054F000EA22EECFE6FFEFCFE6FF21EC5BF0E552CC
:10550000E552120004016C0502E1ACEF2BF06C5186
:1055100002E110EF30F0F36AF46A1200055001E185
:105520008ED0EEEC66F005015151635C5251645827
:105530005351655801E283D0320EE66EE66AE66AA0
:10554000E66A1B0EE66E1AEC67F03A6E050EE15E37
:105550003A500901468F056A46AD06D0D3DFF3CF36
:1055600064F4F4CF65F403D00401646B656B66C426
:1055700072F467C473F404016A51645D3A6E655154
:105580006B553B6E3AC0E6FFE66E38EC41F0E552F3
:10559000E552F3CF66F4F4CF67F404017251F35C83
:1055A000F45073553B6E800E3B140BE07251665DF8
:1055B000706F73516759716F706D711F000E712399
:1055C00006D07251665D706F73516759716FD890D4
:1055D000715104E6460E705D0C0E715904E266C40A
:1055E00072F467C473F4010EE66E665172253A6E6A
:1055F000675173213B6E3AC0E6FFE66E60EC40F007
:10560000E552E552E552F3CF66F4F4CF67F4F3CFF9
:1056100072F4F4CF73F40401D890715104E6460E8D
:10562000705D0C0E71590BE2713509E270510C0876
:10563000020E715504E20401CF2B000ED02312009C
:10564000D9CFE6FFE1CFD9FFFE0EDBCF3BF0800ED6
:105650003B140CE0FD0EDBCF76F4FE0EDBCF77F4CF
:105660000401766D771F000E772306D0FD0EDBCF89
:1056700076F4FE0EDBCF77F4040177352EE2765117
:1056800046080C0E775529E2FD0EDBCF3EF0FE0EEC
:10569000DBCF3FF00001800E3F1402E0FF0E01D08F
:1056A000010E3C6E3D6A3CBE3D6876C43AF077C45C
:1056B0003BF08C0E3A5E180E3B5A3AC064F03BC089
:1056C00065F03CC069F03DC06AF003EC55F0FD0E9A
:1056D00062C0DBFFFE0E63C0DBFFFD0EDBCF3AF0E6
:1056E000FE0EDBCF3BF03AC0F3FF3BC0F4FFE552C8
:1056F000E7CFD9FF120006DFF3CF64F4F4CF65F4EF
:1057000004016A51F35C3A6EF4506B553B6E3AC03B
:10571000E6FFE66E38EC41F0E552E552F3CF66F471
:10572000F4CF67F4F3CF68F4F4CF69F41200E6EC39
:105730002FF0000905E00401010E6C6F34EF2FF02B
:105740009AEC30F0000904E004016C6B5FEF30F07C
:105750000401020E6C6F1200010EE66E030EE66E7F
:10576000900EE66E040EE66E030EE66E3C0EE66EDE
:105770004BEC65F03A6E060EE15E3A500901469D2B
:10578000E8B0468D4651400B01E165D304019051CC
:1057900002E1F00E911901E15ED3945102E1F00EA5
:1057A000951901E158D3925102E1F00E931901E1EC
:1057B00052D307016B5194C478F495C479F4040171
:1057C000786D791F000E792390C480F491C481F420
:1057D000806D811F812392C488F493C489F4886DFD
:1057E000891F89239A6B9A51020801E21CD19A51B0
:1057F000080DF3CFADF4F4CFAEF4780EAD27040E60
:10580000AE23ADC4E9FFAEC4EAFF040EE926000EE4
:10581000EA22EECF3AF0EFCF3BF0ADC4E9FFAEC4E1
:10582000EAFFEECF3CF0EFCF3DF03B503D18E8AE45
:1058300002D03D3404D03C503A5C3D503B5809E224
:10584000ADC4E9FFAEC4EAFF040EE926000EEA2269
:1058500004D0ADC4E9FFAEC4EAFFEECF96F4EFCFBB
:1058600097F4986B996B97AF02D098699969010E7C
:10587000E66EE66A96C4E6FF97C4E6FF98C4E6FFC4
:1058800099C4E6FFADC4E9FFAEC4EAFF040EE92601
:10589000000EEA22EECF3CF0EFCF3DF03E6A3F6AC9
:1058A0003DAE02D03E683F683CC0E6FF3DC0E6FF2B
:1058B0003EC0E6FF3FC0E6FF9DEC28F0406E0A0EBA
:1058C000E15E405062C03AF063C03BF0ADC4E9FF16
:1058D000AEC4EAFF040E62C0EBFF050E3BC0EBFF57
:1058E000ADC4E9FFAEC4EAFF020EE926000EEA22CB
:1058F000EECF3AF0EFCF3BF0ADC4E9FFAEC4EAFF24
:10590000EECF3CF0EFCF3DF03B503D18E8AE02D07B
:105910003D3404D03C503A5C3D503B5805E2ADC4A8
:10592000E9FFAEC4EAFF08D0ADC4E9FFAEC4EAFFA8
:10593000020EE926000EEA22EECF96F4EFCF97F49E
:105940000401986B996B97AF02D098699969010E21
:10595000E66EE66A96C4E6FF97C4E6FF98C4E6FFE3
:1059600099C4E6FFADC4E9FFAEC4EAFF020EE92622
:10597000000EEA22EECF3CF0EFCF3DF03E6A3F6AE8
:105980003DAE02D03E683F683CC0E6FF3DC0E6FF4A
:105990003EC0E6FF3FC0E6FF9DEC28F0406E0A0ED9
:1059A000E15E405062C03AF063C03BF0ADC4E9FF35
:1059B000AEC4EAFF020E62C0EBFF030E3BC0EBFF7A
:1059C000010EE66EADC4E9FFAEC4EAFF020EE926A1
:1059D000000EEA22EECF3EF0EFCF3FF0ADC4E9FF7C
:1059E000AEC4EAFF040EE926000EEA223E50EE2481
:1059F0003C6E3F50EE203D6E3CC0E6FFE66E60EC34
:105A000040F0E552E552E552F3CF3AF0F4CF3BF0E7
:105A1000ADC4E9FFAEC4EAFFF350EE5E3B50ED5A71
:105A200004019A2BE0D649EC25F0000901E1DFD111
:105A300018C39FF419C3A0F460C3A1F461C3A2F416
:105A40000401D880A05104E7DD0E9F5DF90EA05936
:105A500004E2DD0E9F6FF90E0AD0A0350AE29F51D5
:105A60002308060EA05505E2230E9F6F060EA06FB9
:105A700002D0A0C4A0F49F6DA01F000EA023D88068
:105A8000A25104E7DD0EA15DF90EA25904E2DD0E7C
:105A9000A16FF90E0AD0A2350AE2A1512308060E21
