:020000040000FA
:060000005EEF76F0120035
:020006001200E6
:0600080092EF6DF0120002
:02000E000901E6
:06001000FE6BFF6B120005
:0100160000E9
:0100170000E8
:060018008BEF6DF01200F9
:02001E001100CF
:1000200054EE00009D0A00000A00000053EE00009C
:10003000EA0A00000100000036EE0000E1090000BD
:100040001D0000002EEE0000B00A000008000000B5
:10005000170000007F0F00000100000024EE0000E8
:10006000930A00000A0000001BEE0000A70A00002F
:100070000900000016EE0000DD0A00000500000087
:1000800011EE0000D80A0000050000001600000074
:10009000FF020000010000000CEE0000D30A000087
:1000A00005000000F8ED0000EC0500001400000061
:1000B000D6ED0000BF09000022000000CAED0000DC
:1000C0007D0A00000C000000B0ED0000650F00008C
:1000D0001A00000030ED00008000000080000000E9
:0C00E0000EED0000DE0700002200000012
:0400EC00030E746E1D
:1000F0003AEF48F0D9CFE6FFE1CFD9FFFE0EDBCFD4
:10010000E6FFE66A45C2E6FF46C2E6FF9BEC23F047
:10011000E552E552E552E552F3CF45F2F4CF46F20F
:10012000FE0EDBCFE6FFE66A9AC2E6FF9BC2E6FF61
:100130009BEC23F0E552E552E552E552F3CF9AF2FB
:10014000F4CF9BF2000E02019C6F9D6B476F486BD2
:10015000EF6BF06B0A01010EEA6FE552E7CFD9FFB2
:100160001200D9CFE6FFE1CFD9FF0401356B366B22
:10017000FC0EDBCF20F4FD0EDBCF21F4FE0EDBCF37
:1001800022F4E552E7CFD9FF1200000E0201C26F40
:10019000C36B6D6F6E6B186F196B09013351400B98
:1001A0001BE03751400B18E03751200B15E088C792
:1001B000E6FF89C7E6FF8AC7E6FF8BC7E6FF84C76D
:1001C000E6FF85C7E6FF86C7E6FF87C7E6FF92D949
:1001D0002F6E080EE15E2F501200380EE66EE668B4
:1001E000E668BFDFE552E552E552090135AB46D07E
:1001F00023C42FF024C430F025C431F0326A31BE5C
:1002000032683234000E321809E6D8802C0E2F5492
:10021000010E3054000E3154000E325416E27CECC4
:100220006DF05AC02FF05BC030F05CC031F0326A24
:10023000980E2F263A0E3022000E312232222FC085
:1002400073F630C074F631C075F67CEC6DF05A5020
:100250000601735D5B5074595C5075590AE20901DF
:100260003651800B47E1040E755C44E0030E765C6A
:1002700041E03DCF43FF3ECF44FF120005018351D3
:100280000F013D5D0F01436F050184510F013E5980
:100290000F01446F7CEC6DF05A500601765D5B50A7
:1002A00077595C5078592DE27CEC6DF05AC02FF0F4
:1002B0005BC030F05CC031F0326AE80E2F26030ECE
:1002C0003022000E312232222FC076F630C077F66F
:1002D00031C078F60F0144510F014619E8AE02D043
:1002E000463507D045510F01435D0F0146510F01BF
:1002F000445902E276EF00F0050E05018327000E57
:10030000842312000901368133813387EDEF00F039
:10031000000E0201EF6FF06B456F466B9A6F9B6B9F
:100320000901389757C784F758C785F759C786F723
:100330005AC787F75BC788F75CC789F75DC78AF735
:100340005EC78BF7369935953593756A12009EC254
:10035000E6FF9FC2E6FFA0C2E6FFA1C2E6FF92EC65
:1003600024F0E552E552E552E55259C02FF05AC04B
:1003700030F05BC031F05CC032F059C0E6FF5AC0CB
:10038000E6FF5BC0E6FF5CC0E6FF49C2E6FF4AC28B
:10039000E6FF4BC2E6FF4CC2E6FF92EC24F0E552CA
:1003A000E552E552E552E552E7CF32F0E552E7CFAC
:1003B00031F0E552E7CF30F0E552E7CF2FF0325081
:1003C0005C18E8AE02D05C3408D059502F5C5A500B
:1003D00030585B5031585C50325846E29EC22FF084
:1003E0009FC230F0A0C231F0A1C232F0A0C232F000
:1003F0009FC231F09EC230F02F6A2FC059F09EC2CA
:100400005AF09FC25BF0A0C25CF049C25EF04AC2E3
:100410005FF04BC260F04CC261F0FFEC70F059C06D
:1004200075FA5AC076FA5BC077FA5CC078FA59C0A0
:10043000E6FF5AC0E6FF5BC0E6FF5CC0E6FF92EC59
:1004400024F0E552E552E552E55259C075FA5AC01A
:1004500076FA5BC077FA5CC078FA0A01716B010E1C
:10046000726F736B746B120049C22FF04AC230F086
:100470004BC231F04CC232F04BC232F04AC231F0C2
:1004800049C230F02F6A2FC059F049C25AF04AC20F
:100490005BF04BC25CF09EC25EF09FC25FF0A0C2F8
:1004A00060F0A1C261F0FFEC70F059C071FA5AC05F
:1004B00072FA5BC073FA5CC074FA59C0E6FF5AC0A6
:1004C000E6FF5BC0E6FF5CC0E6FF92EC24F0E5527D
:1004D000E552E552E55259C071FA5AC072FA5BC052
:1004E00073FA5CC074FA0A01756B010E766F776B54
:1004F000786B1200D9CFE6FFE1CFD9FF776A9FC5AD
:100500002FF0A0C530F0316A326A30AE02D03168C7
:100510003268280E2F5E000E305A315A325A2FC0E0
:10052000A6F530C0A7F52FC059F030C05AF05B6A6D
:100530005ABE5B685C6A5BBE5C68400E5E6E5F6A5A
:10054000606A616AC8EC74F055C0D5F556C0D6F53E
:1005500057C0D7F556C0A4F557C0A5F5800E57145F
:1005600002E02F6A1AD0A4C533F0A5C534F0356A6D
:10057000366A34AE02D0356836683634000E361826
:1005800009E6D880400E3354000E3454000E355422
:10059000000E365404E2400E2F6E306A04D0A4C51B
:1005A0002FF0A5C530F0326A2FC0A4F530C0A5F5F4
:1005B000FB0EDBCF7CF7FC0EDBCF7DF7FD0EDBCF38
:1005C0007EF7FE0EDBCF7FF7F70EDBCF80F7F80E5E
:1005D000DBCF81F7F90EDBCF82F7FA0EDBCF83F7A3
:1005E0008CC733F08DC734F0356A366A34AE02D02A
:1005F000356836685B0EE96E070EEA6EEE5007014D
:10060000805D2F6EEE508159306EEE508259316E02
:10061000EE508359326E2FC059F030C05AF031C0BD
:100620005BF05C6E33C05EF034C05FF035C060F0EC
:1006300036C061F0C8EC74F055C0D1F556C0D2F5A3
:1006400057C0D3F558C0D4F556C0B5F557C0B6F568
:1006500058C0B7F50501B86BB7BFB869570EE96E5A
:10066000070EEA6EEE5007017C5D0501B96FEE5092
:1006700007017D590501BA6FEE5007017E5905014A
:10068000BB6FEE5007017F590501BC6FB9C5E6FF8E
:10069000BAC5E6FFBBC5E6FFE66EB5C5E6FFB6C563
:1006A000E6FFB7C5E6FFB8C5E6FFF7EC4AF0316EE6
:1006B000080EE15E3150F3CF2FF0F4CF30F0F3CFDE
:1006C000E6FFF4CFE6FF23EC49F0E552E552F3CF25
:1006D00094F5F4CF95F5B9C5E6FFBAC5E6FFBBC5FD
:1006E000E6FFBCC5E6FF92EC24F0E552E552E55288
:1006F000E55259C02FF05AC030F05BC031F05CC0F9
:1007000032F059C0E6FF5AC0E6FF5BC0E6FF5CC0AE
:10071000E6FFB5C5E6FFB6C5E6FFB7C5E6FFB8C557
:10072000E6FF92EC24F0E552E552E552E552E5523F
:10073000E7CF32F0E552E7CF31F0E552E7CF30F0C6
:10074000E552E7CF2FF05C503218E8AE02D03234D9
:1007500008D02F50595C30505A5831505B583250A5
:100760005C5809E2B9C5E6FFBAC5E6FFBBC5E6FFBE
:10077000BCC5E6FF08D0B5C5E6FFB6C5E6FFB7C500
:10078000E6FFB8C5E6FF92EC24F0E552E552E552EB
:10079000E55259C0ADF55AC0AEF55BC0AFF55CC0CF
:1007A000B0F596C52FF097C530F0316A326A30AE99
:1007B00002D0316832680501B0513218E8AE02D07B
:1007C000323408D02F50AD5D3050AE593150AF5952
:1007D0003250B05901E380D0040123510401205D5F
:1007E0000501AA6F04012451040121590501AB6FD1
:1007F00004012551040122590501AC6F9AC533F05B
:100800009BC534F0356A366A34AE02D03568366836
:1008100033C0E6FF34C0E6FF35C0E6FF36C0E6FF72
:10082000AAC52FF0ABC530F0ACC531F0326A31BE8D
:1008300032682FC0E6FF30C0E6FF31C0E6FF32C0AD
:10084000E6FF92EC24F0E552E552E552E552E5521E
:10085000E7CF36F0E552E7CF35F0E552E7CF34F099
:10086000E552E7CF33F05C503618E8AE02D03634AC
:1008700008D03350595C34505A5835505B58365074
:100880005C5802E3000E01D0010E09013593E8B077
:10089000358398C52FF099C530F0316A326A30AE91
:1008A00002D0316832680501B0513218E8AE02D08A
:1008B000323408D02F50AD5D3050AE593150AF5961
:1008C0003250B05902E3000E01D0010E09013595F6
:1008D000E8A005D0358503D009013595359334510D
:1008E000100B01E171D19FC52FF0A0C530F0316A26
:1008F000326A30AE02D0316832683234000E3218BB
:1009000009E6D880280E2F54000E3054000E3154C2
:10091000000E325401E358D13551040B01E054D19B
:100920000A01EA5112E00501DA6BDB6BDC6BDD6B6F
:10093000DAC547F2DBC548F2DE6BDF6BE06BE16BDB
:10094000DEC59CF2DFC59DF210D049C2DAF54AC27D
:10095000DBF54BC2DCF54CC2DDF59EC2DEF59FC275
:10096000DFF5A0C2E0F5A1C2E1F50A01EA6B8CC493
:10097000E6FF8DC4E6FF65EC4AF0E552E552F3CFA1
:10098000BDF5F4CFBEF50501BF6BC06BBEAF02D0A5
:10099000BF69C0698CC4E6FF8DC4E6FFDEEC4AF097
:1009A000E552E552F3CFC1F5F4CFC2F50501C36BB3
:1009B000C46BC2AF02D0C369C469B9C533F0BAC54C
:1009C00034F0BBC535F0BCC536F0000E336C341EB8
:1009D0003422351E3522361E362233C059F034C03B
:1009E0005AF035C05BF036C05CF0BDC55EF0BEC5E8
:1009F0005FF0BFC560F0C0C561F0C8EC74F055C0D1
:100A00002FF056C030F057C031F058C032F0B5C5A5
:100A100059F0B6C55AF0B7C55BF0B8C55CF0C1C5B2
:100A20005EF0C2C55FF0C3C560F0C4C561F0C8EC3C
:100A300074F02F5055240501D16F30505620D26FDD
:100A400031505720D36F32505820D46FD2C549F25D
:100A5000D3C54AF2E8CF4BF202014C6B4BBF4C6955
:100A6000B9C533F0BAC534F0BBC535F0BCC536F0F6
:100A7000000E336C341E3422351E3522361E3622CB
:100A800033C059F034C05AF035C05BF036C05CF06A
:100A9000C1C55EF0C2C55FF0C3C560F0C4C561F0FA
:100AA000C8EC74F055C02FF056C030F057C031F08C
:100AB00058C032F0B5C559F0B6C55AF0B7C55BF0AD
:100AC000B8C55CF0BDC55EF0BEC55FF0BFC560F0E7
:100AD000C0C561F0C8EC74F055502F5C0501D16FB2
:100AE00056503058D26F57503158D36F58503258F3
:100AF000D46FD2C59EF2D3C59FF2E8CFA0F2020117
:100B0000A16BA0BFA1699A6B9B6B090135B361D042
:100B100004018C510501945D2F6E955104018D5592
:100B2000306E2FC0E6FFE66E86EC49F0E552E552E6
:100B3000F3CFA8F5F4CFA9F5040EE66EF3CFE6FFE8
:100B4000F4CFE6FF4BEC48F0E552E552E552F3CF27
:100B5000EFF2F4CFF0F20201EF6DF01F000EF02380
:100B60007BC82FF0306A2FBE30682F6C301E3022C9
:100B7000F0513018E8AE02D0303404D02F50EF5D81
:100B80003050F0590AE27BC8EFF2F06BEFBFF0692A
:100B9000EF6DF01F000EF0231CD07BC831F0326ADD
:100BA00031BE32683250F019E8AE02D0F03504D0D0
:100BB000EF51315CF05132580CE27BC8EFF2F06B30
:100BC000EFAF07D0F06905D0060EE66E7AEC00F0C4
:100BD000E55209013887E552E7CFD9FF1200090134
:100BE0003351400B10E03751400B0DE03751200BD3
:100BF0000AE07CEC6DF05A500601975D5B50985905
:100C00005C50995902E3000E01D0010E0901369D96
:100C1000E8B0368D36AD46D2369F33973851080B43
:100C200001E04AD2775001E147D2755001E175D118
:100C3000050A01E126D1030A01E1CBD0070A01E14F
:100C400084D0030A3BE0010A19E0070A01E034D22C
:100C50006FC7E6FF70C7E6FF71C7E6FF72C7E6FF22
:100C60006BC7E6FF6CC7E6FF6DC7E6FF6EC7E6FF22
:100C700041DC2F6E080EE15E2F501DD06FC7E6FFDE
:100C800070C7E6FF71C7E6FF72C7E6FF6BC7E6FFF6
:100C90006CC7E6FF6DC7E6FF6EC7E6FF2BDC2F6E65
:100CA000080EE15E2F5009013551010B04E134516A
:100CB000800B01E12FD1EDEC00F0FED16FC7E6FF14
:100CC00070C7E6FF71C7E6FF72C7E6FF6BC7E6FFB6
:100CD0006CC7E6FF6DC7E6FF6EC7E6FF7AEC02F071
:100CE0002F6E080EE15E2F5009013551010B04E112
:100CF0003451800B01E10ED135A3A1D13551100B38
:100D000001E1DAD17CEC6DF05A500601735D5B5065
:100D100074595C50755901E3CFD17CEC6DF05AC029
:100D20002FF05BC030F05CC031F0326A980E2F2695
:100D30003A0E3022000E312232222FC073F630C01C
:100D400074F631C075F6030EABD16FC7E6FF70C7FE
:100D5000E6FF71C7E6FF72C7E6FF6BC7E6FF6CC729
:100D6000E6FF6DC7E6FF6EC7E6FF7AEC02F02F6E76
:100D7000080EE15E2F5009013551010B04E1345199
:100D8000800B01E1C7D035A397D17CEC6DF05A50B0
:100D900005019C250601736F5B5005019D2106012D
:100DA000746F5C5005019E210601756F62C82FF0BB
:100DB000306A2FBE3068640E3002F3CF30F02F025D
:100DC000F3CF2FF0F4503026316A30AE5DD1316868
:100DD0005BD18DC5E6FF8EC5E6FF8FC5E6FF90C5EA
:100DE000E6FF89C5E6FF8AC5E6FF8BC5E6FF8CC531
:100DF000E6FF7AEC02F02F6E080EE15E2F5009013B
:100E000034AF88D03551020B01E156D17CEC6DF046
:100E10005A500601735D5B5074595C50755901E37B
:100E20004BD105018651855D15E1010E856F62C8C4
:100E30002FF0306A2FBE3068640E3002F3CF30F0EE
:100E40002F02F3CF2FF0F4503026316A30AEECD0C1
:100E50003168EAD0852B85C5E6FF80DBE55287C582
:100E60002FF088C530F0640E3002F3CF30F02F023F
:100E7000F3CF2FF0F4503026316A30AEB5D0316860
:100E8000B3D08DC5E6FF8EC5E6FF8FC5E6FF90C5E2
:100E9000E6FF89C5E6FF8AC5E6FF8BC5E6FF8CC580
:100EA000E6FF7AEC02F02F6E080EE15E2F5009018A
:100EB00034AF30D035A300D17CEC6DF05A50050131
:100EC00091250601736F5B50050192210601746F35
:100ED0005C50050193210601756F87C52FF088C509
:100EE00030F0640E3002F3CF30F02F02F3CF2FF04A
:100EF000F4503026316A30BE31682FC0E6FF30C072
:100F0000E6FF31C0E6FFB1EC00F0E552E552E552F4
:100F1000060EC6D088EC01F0CFD034A935D03651BA
:100F2000100B33E03651020B01E0010E2F6E3651EB
:100F3000040B01E0010E2F1428E10A015D510901A3
:100F40003393E8B0338388EC01F0090139B71DD041
:100F50007CEC6DF05AC02FF05BC030F05CC031F01B
:100F6000326AF40E2F26010E3022000E3122322278
:100F70002FC067F630C068F631C069F6800EE66EA5
:100F80004AEC73F0E55201D0368988C7E6FF89C77D
:100F9000E6FF8AC7E6FF8BC7E6FF84C7E6FF85C783
:100FA000E6FF86C7E6FF87C7E6FF7AEC02F02F6E02
:100FB000080EE15E2F50090133AF43D034AF21D08A
:100FC00085C5E6FFCBDAE55287C52FF088C530F03E
:100FD000640E3002F3CF30F02F02F3CF2FF0F45035
:100FE0003026316A30BE31682FC0E6FF30C0E6FFE0
:100FF00031C0E6FFB1EC00F0E552E552E552050ED6
:101000004FD035A159D062C82FF0306A2FBE30685A
:10101000640E3002F3CF30F02F02F3CF2FF0F450F4
:101020003026316A30BE31682FC0E6FF30C0E6FF9F
:1010300031C0E6FFB1EC00F0E552E552E552010E99
:101040002FD035A139D084C76BF785C76CF786C719
:101050006DF787C76EF788C76FF789C770F78AC7BC
:1010600071F78BC772F762C82FF0306A2FBE3068F5
:10107000640E3002F3CF30F02F02F3CF2FF0F45094
:101080003026316A30BE31682FC0E6FF30C0E6FF3F
:1010900031C0E6FFB1EC00F0E552E552E552020E38
:1010A000756E0AD036AF03D082EC01F005D0060E83
:1010B000E66E7AEC00F0E5520901379912007CECFB
:1010C0006DF05A500601705D5B5071595C50725959
:1010D00025E2090137A128D0080EE66E4AEC73F02C
:1010E000E5520601736B746B756B7CEC6DF05AC046
:1010F0002FF05BC030F05CC031F0326AE80E2F2672
:10110000030E3022000E312232222FC06DF630C085
:101110006EF631C06FF6756A766A1200E80E7027B7
:10112000030E7123000E72231200040E745C01E0A2
:10113000FED07650040A01E1F9D0040A01E1A5D0FD
:10114000010A24E0030A06E0010A01E01200C5ECEE
:1011500000F01AD0C5EC00F023C42FF024C430F006
:1011600025C431F0326A31BE3268D8903250000A5C
:1011700008E62C0E2F5C010E3058000E3158000E80
:10118000325802E2030E766EEDEF00F0C5EC00F08F
:101190000901338162C82FF0306A2FBE3068640EB7
:1011A0003002F3CF30F02F02F3CF2FF0F45030267F
:1011B000316A30BE31682FC0E6FF30C0E6FF31C073
:1011C000E6FFB1EC00F0E552E552E5527CEC6DF043
:1011D0005A500601735D5B5074595C50755953E267
:1011E00009013387080EE66E56EC73F0E552040EE3
:1011F000E66E4AEC73F0E5527CEC6DF05AC02FF0CD
:101200005BC030F05CC031F0326A980E2F263A0E87
:101210003022000E312232222FC073F630C074F615
:1012200031C075F60F0146510F014419E8AE02D0E6
:10123000443507D043510F01455D0F0144510F0163
:1012400046591CE20F0143510F013D5D0501836FBB
:101250000F0144510F013E590501846F010E84AF07
:1012600002D0D89003D0835D000E845903E2010EB2
:10127000836F846B030E756E020E56D0030E756E6F
:10128000766E76EF00F05FEF08F07CEC6DF05A5070
:1012900006016D5D5B506E595C506F5947E203016A
:1012A000E42B000EE52309013351400B17E03751C1
:1012B000400B14E03751200B11E07CEC6DF05AC06C
:1012C0002FF05BC030F05CC031F0326A880E2F2600
:1012D000130E3022000E3122322209D07CEC6DF048
:1012E0005AC02FF05BC030F05CC031F0326A2FC0C2
:1012F00073F630C074F631C075F67CEC6DF05AC0F0
:101300002FF05BC030F05CC031F0326AE80E2F265F
:10131000030E3022000E312232222FC070F630C070
:1013200071F631C072F6010E766E12001200000ED8
:101330000F01436F446B0201C26FC36B6D6F6E6B25
:10134000186F196B120090EC57F00501E66F020E52
:10135000E66E4AEC73F0E5520501E651330A01E10D
:10136000ACD0010A5CE0030A04E0010A01E0F0D01D
:10137000EAD0E86BE46BE56BD890E55104E6000E2B
:10138000E45D010EE55912E290EC57F00501E76FBC
:10139000E850E81B000EE425E96E010EE521EA6E37
:1013A000E7C5EFFFE42B000EE523E6D7E85130E177
:1013B000E46BE56BD890E55104E6000EE45D010EA8
:1013C000E55924E2000EE425E96E010EE521EA6EFE
:1013D000EF50E66EE4C52FF0E5C530F0316A326AB1
:1013E00030AE02D031683268302A000E312232220B
:1013F0002FC0E6FF30C0E6FF04EC70F0E552E55286
:10140000E5520501E42B000EE523D4D7060E01D0EA
:10141000150EE66E6DEC56F0E55270D999D0E86B7A
:10142000E46BE56BFF0EE5AF02D0D89003D0E45D2E
:10143000000EE55926E2E4C52FF0E5C530F0316A2B
:10144000326A30AE02D031683268302A000E312262
:1014500032222FC0E6FF30C0E6FF67EC6FF0E552A6
:10146000E5520501E76FE850E81B000EE425E96E40
:10147000010EE521EA6EE7C5EFFFE42B000EE52340
:10148000D1D7E8C5FFF1E46BE56BD890E55104E6F0
:10149000000EE45D010EE55956E2000EE425E96E0A
:1014A000010EE521EA6EEF50E66E6DEC56F0E55266
:1014B0000501E42B000EE523E8D7E86BE46BE56B50
:1014C0003F0EE5AF02D0D89003D0E45D000EE559A1
:1014D0001DE2800EE4252F6EFF0EE521306E2FC039
:1014E000E6FFE66E67EC6FF0E552E5520501E76F47
:1014F000E850E81B000EE425E96E010EE521EA6ED6
:10150000E7C5EFFFE42B000EE523DAD7E8C53FF18E
:10151000E46BE56B400EE5AF02D0D89003D0E45DFC
:10152000000EE55910E2000EE425E96E010EE521FA
:10153000EA6EEF50E66E6DEC56F0E5520501E42BD5
:10154000000EE523E7D7060EE66E6DEC56F0E55289
:10155000020EE66E56EC73F0E5521200D9CFE6FFAC
:10156000E1CFD9FFFE0EDBCF2FF005018651E76EEC
:101570002F18E8AE02D02F3403D0E750D8802F5474
:1015800003E2FE0EDB6A856BFE0EDB501BE16BC7D0
:1015900089F56CC78AF56DC78BF56EC78CF56FC77B
:1015A0008DF570C78EF571C78FF572C790F562C85B
:1015B00087F5886B87BF8869300E916F750E926FC3
:1015C000936B95D0FE0EDB040B0DF3CF2FF0306A3A
:1015D000316A326A2FAE03D0306831683268180E33
:1015E0002F26010E3022000E312232222FC0E9F5C3
:1015F00030C0EAF52FC0E6FF30C0E6FFABEC6FF07D
:10160000E552E55259C089F55AC08AF55BC08BF5A1
:101610005CC08CF5040E0501306AE9252F6EEA5195
:1016200030222FC0E6FF30C0E6FFABEC6FF0E55292
:10163000E55259C08DF55AC08EF55BC08FF55CC080
:1016400090F5080E0501306AE9252F6EEA51302227
:101650002FC0E6FF30C0E6FF80EC6FF0E552E552A8
:10166000F3CF87F5F4CF88F5F3CF2FF0F4CF30F038
:10167000316A326A30AE02D0316832683234000EDC
:10168000321809E6D880780E2F54000E3054000E20
:101690003154000E325404E2780E0501876F886BD6
:1016A0000A0E0501306AE9252F6EEA5130222FC05B
:1016B000E6FF30C0E6FF67EC6FF0E552E552596E89
:1016C0005A6A59BE5A685B6A5C6A5AAE02D05B6855
:1016D0005C68E80E5E6E030E5F6E606A616AC8EC5D
:1016E00074F055C091F556C092F557C093F50901B5
:1016F00035933595E552E7CFD9FF1200000E05016D
:10170000946F956B0701886F896B8A6B8B6B89AFC0
:1017100002D08A698B6988C784F789C785F78AC729
:1017200086F78BC787F70501EB6BEB5101082AE3BE
:10173000EB51EA6A7B0FE96E0A0EEA22010EEF6EA8
:10174000EB51550DF3CFE9FFF4CFEAFF000EE92688
:10175000020EEA22470EE926000EEA22EE6AED6A40
:10176000EB51550DF3CFE9FFF4CFEAFF000EE92668
:10177000020EEA22450EE926000EEA22EE6AED6A22
:10178000EB2BD3D70201EF6BF06B756A04011E6B74
:101790001F6B04011C6B1D6B090135953593389740
:1017A000140EE66EE66AE66AE66A77EC16F0E55233
:1017B000E552E552E55259C096F55AC097F5320EFA
:1017C00005019A6F9B6B090EE66E010EE66E67ECE3
:1017D0006FF0E552E5520501866F000EE76E86193F
:1017E000E8AE02D0863503D0E750D880865502E3B4
:1017F000856B02D0010E856FE66AB0DEE5521200FD
:1018000004012351205D3D6F245121593E6F255124
:1018100022593F6F37C432F038C433F0346A33BED4
:1018200034683F513418E8AE02D0343406D0325018
:101830003D5D33503E5934503F5909E237C42FF0D3
:1018400038C430F0316A30AE19D0316817D03F3526
:10185000000E3F1907E6D880640E3D55000E3E5538
:10186000000E3F5505E2640E2F6E306A316A06D0D5
:101870003DC42FF03EC430F03FC431F02FC046F4D9
:1018800030C047F433512F5C406F34513058416FB2
:101890004AC82FF0306A2FBE30682F504003F3CF74
:1018A00042F4F4CF43F44103F35043273050400354
:1018B000F35043275DC82FF0306A2FBE306840C414
:1018C0005BF041C45CF02FC060F030C061F033ECDD
:1018D00071F05950040135275A50362372C82FF041
:1018E000306A2FBE30682F6C301E000E3022365109
:1018F0003018E8AE02D0303404D02F50355D30506F
:1019000036590AE272C835F4366B35BF3669356D23
:10191000361F000E362319D072C831F0326A31BE3C
:10192000326832503619E8AE02D0363504D035511F
:10193000315C3651325807E272C835F4366B35AF38
:1019400004D0366902D036C436F435C444F436C403
:1019500045F4060EE66E425144252F6E4351452153
:10196000306E2FC0E6FFE66E4BEC48F0E552E552D4
:10197000E552F3CF48F4F4CF49F4F3CF33F0F4CF8A
:1019800034F0356A366A34AE02D035683668D880AD
:101990003650FF0A08E6B00E335CFF0E3458FF0ED7
:1019A0003558FF0E365804E2B00E2F6E306820D046
:1019B00048C437F049C438F0396A3A6A38AE02D0C0
:1019C00039683A683A34000E3A1809E6D880500E61
:1019D0003754000E3854000E3954000E3A5404E2C5
:1019E000500E2F6E306A04D048C42FF049C430F036
:1019F0002FC02BF430C02CF4120077502CE00901DA
:101A00003951800B03E13351010B25E0F8EC39F03B
:101A1000090139A529D0776AA9EC71F0F2EC42F0FE
:101A2000090135AF0DD0F8C823F4F9C824F4040136
:101A3000256B24BF256931C433F432C434F414D087
:101A400020C623F421C624F422C625F42DC433F481
:101A50002EC434F409D0000E0401336F346B236FAD
:101A6000246B256B24BF2569090133A1E4D039A576
:101A700000D1776A3651800B05E1755006E036518A
:101A8000010B03E0348DBCDED3D034AB26D0349DC3
:101A900023C4E6FF24C4E6FF25C4E6FFB1EC00F052
:101AA000E552E552E5520401800E2C1507E0010EC7
:101AB0002B252B6F000E2C212C6FBAD02C350AE26F
:101AC0002B510008000E2C5505E2010E2B5F000E75
:101AD0002C5BAED02B6B2C6BABD0348D91DE0F0119
:101AE000435104012B254A6F0F01445104012C215D
:101AF0004B6F33C42FF034C430F0316A326A30AEE9
:101B000002D0316832682FC0E6FF30C0E6FF31C036
:101B1000E6FF32C0E6FF92EC24F0E552E552E552D2
:101B2000E552D8905C50000A08E6320E595C000E6F
:101B30005A58000E5B58000E5C5801E379D04AC435
:101B400033F04BC434F0356A366A34AE02D03568AF
:101B500036683634000E361809E6D880480E3354FD
:101B6000000E3454000E3554000E365461E2030E5C
:101B7000E66E070E5B6E5C6A3FCF60F040CF61F0AF
:101B800033EC71F0595004014A252F6E5A504B2105
:101B9000306E2FC0E6FFE66E4BEC48F0E552E552A2
:101BA000E552F3CF3FFFF4CF40FFF3CF33F0F4CF54
:101BB00034F0356A366A34AE02D035683668D8906B
:101BC0003650000A08E6480E335C000E3458000E0A
:101BD0003558000E365802E2480E19D03FCF37F084
:101BE00040CF38F0396A3A6A38AE02D039683A687C
:101BF0003A34000E3A1809E6D880900E3754000E99
:101C00003854000E3954000E3A5404E2900E2F6EF0
:101C1000306A04D03FCF2FF040CF30F0316A326AC3
:101C20002FC03FFF30C040FF2FC03DFF30C03EFF00
:101C300009013995120039950401356B366B800E18
:101C40002C1507E0010E2B252B6F000E2C212C6F7D
:101C50000ED02C350AE22B510008000E2C5505E25F
:101C6000010E2B5F000E2C5B02D02B6B2C6B09013D
:101C7000349D12005ECAE9FFEA6AE9BEEA68D890BC
:101C8000E936EA36000EE926030EEA22EECF0AF420
:101C9000EFCF0BF404010C6B0BBF0C695ECAE9FFBC
:101CA000EA6AE9BEEA68D890E936EA36600EE926C3
:101CB000030EEA22EECF0DF4EFCF0EF40F6B0EBF42
:101CC0000F69090136BD08D0000E0201EF6FF06BFD
:101CD0009A6F9B6B456F466B6DC232F06EC233F0EC
:101CE000326C331E000E3322346A33BE346832C085
:101CF0005AF033C05BF034C05CF00AC45FF00BC430
:101D000060F00CC461F060EC71F057C02FF058C067
:101D100030F059C031F018C235F019C236F0376AC8
:101D200036BE376835C05AF036C05BF037C05CF05D
:101D30000DC45FF00EC460F00FC461F060EC71F090
:101D40002F50572404014C6F305058204D6F3150A4
:101D500059204E6F4DC443F2E8CF44F26DC232F0C9
:101D60006EC233F0346A33BE346832C05AF033C0C6
:101D70005BF034C05CF00DC45FF00EC460F00FC4C3
:101D800061F060EC71F057C02FF058C030F059C0CE
:101D900031F018C235F019C236F0376A36BE3768EE
:101DA00035C05AF036C05BF037C05CF00AC45FF053
:101DB0000BC460F00CC461F060EC71F02F5057243C
:101DC00004014C6F305058204D6F315059204E6FE8
:101DD0004DC498F2E8CF99F212000401396B010E5C
:101DE0003A6F3B6B3C6B09013651400B07E03651B3
:101DF000400B01E10DD1755001E00AD13951800B42
:101E000001E09CD0000E0801E76E6119E8AE02D037
:101E1000613503D0E750D880615501E38FD01CC4F1
:101E20002FF01DC430F0316A326A30AE02D0316812
:101E30003268080E2F5E000E305A315A325A2FC0C7
:101E40004FF430C050F4336A080E346E356A366A87
:101E500061C83BF03C6A3BBE3C6804013B504F0309
:101E6000F3CF37F0F4CF38F05003F35000013826A9
:101E70003C5004014F03F35000013826396A3A6A96
:101E800038AE02D039683A683750335C2F6E38501C
:101E90003458306E39503558316E3A503658326EAB
:101EA00039C459F03AC45AF03BC45BF03CC45CF00E
:101EB0002FC05EF030C05FF031C060F0616EC8ECE2
:101EC00074F055C039F456C03AF457C03BF458C0CA
:101ED0003CF40B0EE66E55C0E6FF56C0E6FF57C059
:101EE000E6FF58C0E6FF9BEC48F02F6E050EE15E62
:101EF0002F5059C039F45AC03AF45BC03BF45CC06F
:101F00003CF40401800E5C1403E0396B3A6B11D091
:101F10003C35000E3C1909E6D880000E3955010EFB
:101F20003A55000E3B55000E3C5506E2396B010E4A
:101F30003A6F3B6B3C6B02D03CC43CF4000E080192
:101F4000E76E6019E8AE02D0603503D0E750D88064
:101F500060555EE20F013D510F01435D0401516F79
:101F60000F013E510F0144590401526F60C833F014
:101F7000346A33BE346833505103F3CF2FF0F4CFBB
:101F800030F05203F3500001302634500401510365
:101F9000F35000013026316A326A30AE02D0316827
:101FA0003268080E3026000E3122322239C459F030
:101FB0003AC45AF03BC45BF03CC45CF02FC05EF006
:101FC00030C05FF031C060F032C061F0C8EC74F036
:101FD00055C039F456C03AF457C03BF458C03CF4ED
:101FE0000B0EE66E55C0E6FF56C0E6FF57C0E6FF93
:101FF00058C0E6FF9BEC48F02F6E050EE15E2F50B7
:1020000059C039F45AC03AF45BC03BF45CC03CF4AC
:102010001200D9CFE6FFE1CFD9FF050EE66EFD0E27
:10202000DBCFE9FFFE0EDBCFEAFF040EE926000E50
:10203000EA22EECF3BF0EECF3CF0EECF3DF0EFCF1B
:102040003EF0FD0EDBCFE9FFFE0EDBCFEAFF2A0EEE
:10205000E926000EEA22EECF37F0EFCF38F0396AEA
:102060003A6A38AE02D039683A6837C059F038C099
:102070005AF039C05BF03AC05CF03BC05EF03CC047
:102080005FF03DC060F03EC061F0C8EC74F055C038
:1020900033F056C034F057C035F058C036F0FD0E5E
:1020A000DBCFE9FFFE0EDBCFEAFF0C0EE926000EC8
:1020B000EA22EECF45F0EECF46F0EECF47F0EFCF7D
:1020C00048F0FD0EDBCFE9FFFE0EDBCFEAFF2A0E64
:1020D000E926000EEA22EECF43F0EFCF44F0FD0EEA
:1020E000DBCFE9FFFE0EDBCFEAFF2C0EE926000E68
:1020F000EA22EE50435C3F6EEE504458406E416A17
:10210000426A40AE02D0416842683FC059F040C0C8
:102110005AF041C05BF042C05CF045C05EF046C082
:102120005FF047C060F048C061F0C8EC74F05550F3
:10213000335C2F6E56503458306E57503558316ED0
:1021400058503658326E2FC0E6FF30C0E6FF31C01F
:10215000E6FFE66E9BEC48F0496E050EE15E4950E5
:1021600059C05AF45AC05BF45BC05CF45CC05DF4C7
:10217000090EE66EFD0EDBCFE9FFFE0EDBCFEAFFB8
:10218000080EE926000EEA22EECF37F0EECF38F047
:10219000EECF39F0EFCF3AF0FD0EDBCFE9FFFE0EC8
:1021A000DBCFEAFF240EE926000EEA22EECF33F061
:1021B000EFCF34F0356A366A34AE02D0356836680F
:1021C00033C059F034C05AF035C05BF036C05CF013
:1021D00037C05EF038C05FF039C060F03AC061F0DF
:1021E000C8EC74F055C02FF056C030F057C031F035
:1021F00058C032F055C0E6FF56C0E6FF57C0E6FFB4
:1022000058C0E6FF9BEC48F03B6E050EE15E3B508C
:1022100059C056F45AC057F45BC058F45CC059F426
:10222000FD0EDBCFE9FFFE0EDBCFEAFFEECF33F092
:10223000EFCF34F0336C341E000E3422356A366A28
:1022400034AE02D035683668040159513618E8AE0C
:1022500002D0363408D03350565D3450575935507B
:1022600058593650595913E2FD0EDBCFE9FFFE0EE7
:10227000DBCFEAFFEECF2FF0EFCF30F02F6C301E28
:10228000000E3022316A326A30AE39D02DD0FD0EC8
:10229000DBCFE9FFFE0EDBCFEAFFEECF37F0EFCF6B
:1022A00038F0396A3A6A38AE02D039683A683A503A
:1022B0005919E8AE02D0593508D05651375C5751FC
:1022C00038585851395859513A5811E2FD0EDBCF60
:1022D000E9FFFE0EDBCFEAFFEECF2FF0EFCF30F0BD
:1022E000316A326A30AE0BD03168326808D056C4D9
:1022F0002FF057C430F058C431F059C432F02F5089
:102300005A2730505B2331505C2332505D235AC42E
:1023100059F05BC45AF05CC45BF05DC45CF039C436
:102320005EF03AC45FF03BC460F03CC461F0C8ECBE
:1023300074F055C053F456C054F457C055F456C009
:102340005AF457C05BF404015C6B5D6B5BAF02D069
:102350005C695D69FD0EDBCFE9FFFE0EDBCFEAFFB6
:10236000430EE926000EEA22EECF33F0EFCF34F031
:10237000356A366A34AE02D0356836685A5133242D
:102380002F6E5B513420306E5C513520316E5D51C3
:102390003620326E000E2F6C301E3022311E31225C
:1023A000321E3222FD0EDBCFE9FFFE0EDBCFEAFF4D
:1023B000510EE926000EEA222FC0EEFF30C0EDFFDD
:1023C000FD0EDBCFE9FFFE0EDBCFEAFF2A0EE9268A
:1023D000000EEA22EECF2FF0EFCF30F0FD0EDBCF74
:1023E000E9FFFE0EDBCFEAFF2C0EE926000EEA2203
:1023F0002FC0EEFF30C0EDFFE552E7CFD9FF12004E
:10240000D9CFE6FFE1CFD9FFFD0EDBCFE9FFFE0E0E
:10241000DBCFEAFF260EE926000EEA22EECF6EF4AD
:10242000EFCF6FF40401706B716B6FAF02D0706906
:102430007169FD0EDBCFE9FFFE0EDBCFEAFF280E50
:10244000E926000EEA22EECF72F4EFCF73F4746B3C
:10245000756B73AF02D074697569FD0EDBCFE9FF50
:10246000FE0EDBCFEAFF240EE926000EEA22EECFB5
:102470002FF0EFCF30F0316A326A30AE02D03168DF
:102480003268FD0EDBCFE9FFFE0EDBCFEAFF430E25
:10249000E926000EEA22EECF59F0EFCF5AF05B6A40
:1024A0005C6A5AAE02D05B685C68300E5E6E5F6A32
:1024B000606A616AC8EC74F000012F50555C040139
:1024C0006A6F00013050565804016B6F00013150A3
:1024D000575804016C6F00013250585804016D6F59
:1024E000D880E850FF0A08E6940E6A5DE40E6B5946
:1024F000FF0E6C59FF0E6D5907E2940E6A6FE40EE1
:102500006B6F6C696D6917D06D35000E6D1909E63A
:10251000D8806C0E6A551B0E6B55000E6C55000E64
:102520006D5507E26C0E6A6F1B0E6B6F6C6B6D6BFB
:1025300002D06DC46DF40A0EE66EFD0EDBCFE9FF2E
:10254000FE0EDBCFEAFF040EE926000EEA22EECFF4
:1025500033F0EECF34F0EECF35F0EFCF36F06AC483
:1025600059F06BC45AF06CC45BF06DC45CF033C0BE
:102570005EF034C05FF035C060F036C061F0C8EC8A
:1025800074F055C02FF056C030F057C031F058C02D
:1025900032F055C0E6FF56C0E6FF57C0E6FF58C010
:1025A000E6FF9BEC48F0376E050EE15E375059C0F0
:1025B0005EF45AC05FF45BC060F45CC061F4000E6E
:1025C00004015E6D5F1F5F23601F6023611F612335
:1025D000080EE66EFD0EDBCFE9FFFE0EDBCFEAFF55
:1025E0000C0EE926000EEA22EECF37F0EECF38F0DF
:1025F000EECF39F0EFCF3AF06E0EE96E040EEA6ED0
:10260000EE506A5D336EEE506B59346EEE506C597D
:10261000356EEE506D59366E33C059F034C05AF0F5
:1026200035C05BF05C6E37C05EF038C05FF039C01B
:1026300060F03AC061F0C8EC74F055C02FF056C09D
:1026400030F057C031F058C032F055C0E6FF56C0E8
:10265000E6FF57C0E6FF58C0E6FF9BEC48F03B6E34
:10266000050EE15E3B5059C062F45AC063F45BC092
:1026700064F45CC065F4620EE96E040EEA6E040157
:102680005E51EE24666F5F51EE20676F6051EE2061
:10269000686F6151EE20696FFD0EDBCFE9FFFE0E22
:1026A000DBCFEAFF2A0EE926000EEA22EECF2FF05A
:1026B000EFCF30F0316A326A30AE02D03168326822
:1026C000660EE96E040EEA6E2F50EE5C766F3050A7
:1026D000EE58776F3150EE58786F3250EE58796F70
:1026E000050EE66EFD0EDBCFE9FFFE0EDBCFEAFF47
:1026F000100EE926000EEA22EECF35F0EECF36F0CE
:10270000EECF37F0EFCF38F076C459F077C45AF0F7
:1027100078C45BF079C45CF035C05EF036C05FF021
:1027200037C060F038C061F0C8EC74F055C031F0CB
:1027300056C032F057C033F058C034F055C0E6FFF1
:1027400056C0E6FF57C0E6FF58C0E6FF9BEC48F0D6
:10275000396E050EE15E39505AC030F0FD0EDBCF08
:10276000E9FFFE0EDBCFEAFF510EE926000EEA225A
:1027700059C0EEFF30C0EDFFFD0EDBCFE9FFFE0ECE
:10278000DBCFEAFF260EE926000EEA226AC4EEFF3E
:102790006BC4EDFFFD0EDBCFE9FFFE0EDBCFEAFFE2
:1027A000280EE926000EEA2272C4EEFF73C4EDFF84
:1027B000E552E7CFD9FF1200D4C2E6FFD5C2E6FF4B
:1027C0000B0EE66E070EE66EEBEC24F0E552E552DA
:1027D000E552E552F3CF7CF4F4CF7DF4040EE66EBF
:1027E000AEC236F0AFC237F0386A37BE38687CC444
:1027F00033F07DC434F0356A34BE356833C05AF0E6
:1028000034C05BF035C05CF036C05FF037C060F0BC
:1028100038C061F060EC71F057C02FF058C030F054
:1028200059C031F0326A31BE32682FC0E6FF30C085
:10283000E6FF31C0E6FF32C0E6FF9BEC48F0396EA0
:10284000050EE15E395059C07EF45AC07FF45BC07A
:1028500080F4010EE66EE66AE66AE66A59C02FF079
:102860005AC030F05BC031F0326A31BE32682FC0DE
:10287000E6FF30C0E6FF31C0E6FF32C0E6FFFDC232
:1028800033F0FEC234F0356A366A34AE02D03568B1
:10289000366833C0E6FF34C0E6FF35C0E6FF36C019
:1028A000E6FFF9EC23F0376E0C0EE15E375059C0AD
:1028B0007EF45AC07FF45BC080F459C0FDF25AC068
:1028C000FEF24FC832F0336A32BE3368326C331EC8
:1028D000000E3322346A33BE346804018051341848
:1028E000E8AE02D0343406D032507E5D33507F598A
:1028F000345080590DE24FC82FF0306A2FBE306837
:102900002F6C301E000E3022316A30AE26D01DD022
:102910004FC835F0366A35BE3668376A36BE376816
:1029200037508019E8AE02D0803506D07E51355C34
:102930007F513658805137580AE24FC82FF0306A1D
:102940002FBE3068316A30AE08D0316806D07EC400
:102950002FF07FC430F080C431F02FC0FBF230C0C4
:10296000FCF20201C251EF2504017A6F0201C3514A
:10297000F02104017B6F7AC42FF0306E316A326A25
:1029800030AE02D0316832682FC0E6FF30C0E6FFBB
:1029900031C0E6FF32C0E6FF92EC24F0E552E5528A
:1029A000E552E5525C34000E5C1809E6D880050E4D
:1029B0005954000E5A54000E5B54000E5C5408E249
:1029C00004017A510201FB5F04017B510201FC5BAF
:1029D000120009EC68F03AEC0EF0EDEC0EF0040198
:1029E000816B8151010836E38151550DF3CF82F49B
:1029F000F4CF83F4000E8227020E832382C4E9FF02
:102A000083C4EAFF450EE926000EEA22EECF2FF03E
:102A1000EFCF30F082C4E9FF83C4EAFF430EE9261A
:102A2000000EEA222F50EE263050ED22090138A187
:102A300006D082C4E6FF83C4E6FFE2DC06D082C48F
:102A4000E6FF83C4E6FF09EC10F0E552E55204010D
:102A5000812BC7D7B1DE79C23BF07AC23CF03D6A28
:102A60003E6A3CAE02D03D683E683BC0E6FF3CC0DB
:102A7000E6FF3DC0E6FF3EC0E6FF92EC24F0E552E3
:102A8000E552E552E55259C037F05AC038F05BC004
:102A900039F05CC03AF059C0E6FF5AC0E6FF5BC0AF
:102AA000E6FF5CC0E6FF24C233F025C234F0356A8D
:102AB000366A34AE02D03568366833C0E6FF34C0BB
:102AC000E6FF35C0E6FF36C0E6FF92EC24F0E552A3
:102AD000E552E552E552E552E7CF3AF0E552E7CF4D
:102AE00039F0E552E7CF38F0E552E7CF37F05C50E8
:102AF0003A18E8AE02D03A3408D03750595C385012
:102B00005A5839505B583A505C5813E279C23FF03A
:102B10007AC240F0416A426A40AE02D041684268DF
:102B20003FC0E6FF40C0E6FF41C0E6FF42C0E6FF0F
:102B300012D024C243F025C244F0456A466A44AE2E
:102B400002D04568466843C0E6FF44C0E6FF45C082
:102B5000E6FF46C0E6FF92EC24F0E552E552E5526E
:102B6000E55259C02FF05AC030F05BC031F05CC064
:102B700032F0D8905C50000A08E6E80E2F5C030E95
:102B80003058000E3158000E325802E3000E01D0CA
:102B9000010E09013399E8B0338951C267F052C27E
:102BA00068F0A6C269F0A7C26AF0FBC26BF0FCC273
:102BB0006CF076EF47F0000E0401356F366B2B6F2B
:102BC0002C6B086F096B186B196B846B84510208AE
:102BD00034E38451550DF3CF85F4F4CF86F4000E21
:102BE0008527020E862385C4E9FF86C4EAFF300EDE
:102BF000E926000EEA22EE6AED6A85C4E9FF86C482
:102C0000EAFF2C0EE926000EEA22EE6AED6A85C480
:102C1000E9FF86C4EAFF2E0EE926000EEA22EE6ADC
:102C2000ED6A85C4E9FF86C4EAFF530EE926000E6B
:0C2C3000EA22EE6AED6A842BC9D712007C
:042C3C00D9CFE6FF07
:102C4000E1CFD9FFFB0EDBCF59F0FC0EDBCF5AF002
:102C5000FD0EDBCF5BF0FE0EDBCF5CF03F0E5E6E59
:102C6000070E5F6E606A616AC8EC74F055C059F077
:102C700056C05AF057C05BF058C05CF0A00E5E6EB4
:102C8000860E5F6E010E606E616AFFEC70F0E552B9
:102C9000E7CFD9FF1200D9CFE6FFE1CFD9FFFB0E76
:102CA000DBCF59F0FC0EDBCF5AF0FD0EDBCF5BF033
:102CB000FE0EDBCF5CF03F0E5E6E070E5F6E606A4D
:102CC000616AC8EC74F055C059F056C05AF057C04C
:102CD0005BF058C05CF0100E5E6E270E5F6E606A8F
:102CE000616AFFEC70F0E552E7CFD9FF1200D9CF4F
:102CF000E6FFE1CFD9FFFB0EDBCF59F0FC0EDBCFB7
:102D00005AF0FD0EDBCF5BF0FE0EDBCF5CF0A00EC9
:102D10005E6E860E5F6E010E606E616AC8EC74F0C6
:102D200055C059F056C05AF057C05BF058C05CF01F
:102D30003F0E5E6E070E5F6E606A616AFFEC70F0B8
:102D4000E552E7CFD9FF1200D9CFE6FFE1CFD9FF97
:102D50000801CB6BCC6BCD6B0A01BC5136E1FE0E8A
:102D6000DBCFCAF8FD0EDB500801D880CA552DE331
:102D7000CBC82FF0CCC830F0CDC831F00A0E5F6E52
:102D8000606A616ACBC85AF0CCC85BF0CDC85CF011
:102D900060EC71F00801CA51EA6AAC0FE96E060EE8
:102DA000EA22EFCF32F0336A346A57503224CB6FC5
:102DB00058503320CC6F59503420CD6F300ECB5F3C
:102DC000000ECC5BCD5BCA2BCDD7CBC85AF0CCC89C
:102DD0005BF0CDC85CF0E552E7CFD9FF1200D9CF48
:102DE000E6FFE1CFD9FF0801DA6BDB6BDC6BDD6B53
:102DF0000A01BC5101E0CBD0FE0EDB50040F0801EC
:102E0000DE6FDE51EA6AAC0FE96E060EEA22EF5081
:102E10002E0802E0DE2BF5D7030EDE5DE66EFE0E19
:102E2000DBCFE6FF91DFE552E5525AC0CEF85BC03A
:102E3000CFF85CC0D0F80801D16BD0BFD169DE05F6
:102E4000E66E020EDE5DE66E7FDFE552E5525AC0A9
:102E5000D2F85BC0D3F85CC0D4F80801D56BD4BFFE
:102E6000D569FD0EDB50D880DE55040814E2050E4E
:102E7000DE25E66EDE29E66E67DFE552E5525AC0D2
:102E8000D6F85BC0D7F85CC0D8F80801D96BD8AFCA
:102E90002BD0D96929D0040EDE25E66EDE29E66E38
:102EA00053DFE552E5525AC0D6F85BC0D7F85CC094
:102EB000D8F80801D96BD8BFD9690A0E5E6E5F6A6F
:102EC000606A616AD6C859F0D7C85AF0D8C85BF0B2
:102ED000D9C85CF0C8EC74F055C0D6F856C0D7F825
:102EE00057C0D8F858C0D9F8CEC82FF0CFC830F0A6
:102EF000D0C831F0D1C832F0800E5E6E8D0E5F6E9C
:102F00005B0E606E616ACEC859F0CFC85AF0D0C867
:102F10005BF0D1C85CF0C8EC74F055C02FF056C01F
:102F200030F057C031F058C032F0D2C833F0D3C8B7
:102F300034F0D4C835F0D5C836F0A00E5E6E860EDB
:102F40005F6E010E606E616AD2C859F0D3C85AF044
:102F5000D4C85BF0D5C85CF0C8EC74F055502F268F
:102F6000565030225750312258503222D60EE96E38
:102F7000080EEA6E2F50EE240801DA6F3050EE2072
:102F8000DB6F3150EE20DC6F3250EE20DD6FDAC89F
:102F900059F0DBC85AF0DCC85BF0DDC85CF0E552E4
:102FA000E7CFD9FF1200D9CFE6FFE1CFD9FF080163
:102FB000DF6BE06BE16BE26B0A01BC5101E09AD080
:102FC000FE0EDB28E66EFE0EDBCFE6FFBDDEE55231
:102FD000E5525AC02FF05BC030F05CC031F0326A6D
:102FE00031BE3268100E5E6E0E0E5F6E606A616AF0
:102FF0002FC059F030C05AF031C05BF032C05CF0E5
:10300000C8EC74F055C02FF056C030F057C031F006
:1030100058C032F055C0E6FF56C0E6FF57C0E6FF85
:1030200058C0E6FFFE0EDB50030FE66EFE0EDB50CF
:10303000020FE66E89DEE552E552E552E7CF32F047
:10304000E552E7CF31F0E552E7CF30F0E552E7CF78
:103050002FF05AC033F05BC034F05CC035F03C0E4A
:103060005F6E606A616A60EC71F057C033F058C0FF
:1030700034F059C035F0366A35BE366833502F26E5
:103080003450302235503122365032222FC0E6FFE4
:1030900030C0E6FF31C0E6FF32C0E6FFFD0EDBCFF9
:1030A000E6FFFE0EDB50040FE66E4EDEE552E55203
:1030B000E552E7CF32F0E552E7CF31F0E552E7CF06
:1030C00030F0E552E7CF2FF05AC037F05BC038F050
:1030D0005CC039F03A6A39BE3A682F50372408018B
:1030E000DF6F30503820E06F31503920E16F3250BF
:1030F0003A20E26FDFC859F0E0C85AF0E1C85BF04F
:10310000E2C85CF0E552E7CFD9FF1200B9CABAFABB
:103110000A01B951EA6AAC0FE96E060EEA22EFCF56
:10312000E3F82C0E0801E35D09E02A0EE35D06E0FA
:103130000A01B851B95D02E2B92BEBD70A01B90512
:10314000BB6FB92BBA51BB5D02E3000E01D0010E7B
:10315000BC6F1200DBDFDADFBBCAE6FFBACAE6FFEC
:1031600022DFE552E55259C04FF75AC050F75BC015
:1031700051F75CC052F7CADFBBCAE6FFBACAE6FF26
:103180002EDEE552E55259C057F75AC058F75BC0DA
:1031900059F75CC05AF7BADF0A01BA51EA6AAC0FB4
:1031A000E96E060EEA22EF50530809E1000E07010E
:1031B000576D581F5823591F59235A1F5A23A6DFEA
:1031C000BBCAE6FFBACAE6FF0ADEE552E55259C0BD
:1031D0005BF75AC05CF75BC05DF75CC05EF796DFDB
:1031E0000A01BA51EA6AAC0FE96E060EEA22EF5004
:1031F000570809E1000E07015B6D5C1F5C235D1F32
:103200005D235E1F5E2382DFBBCAE6FFBACAE6FF0C
:103210009BDDE552E5525AC095F778DFBBCAE6FF61
:10322000BACAE6FF91DDE552E5525AC094F76EDF67
:10323000030E0A01BB5DE66EBACAE6FF85DDE55204
:10324000E5525AC032F05BC033F05CC034F0640E1B
:103250005F6E606A616A60EC71F057C032F058C00E
:1032600033F059C034F057C0E6FF58C0E6FF59C0EC
:10327000E6FFBBCAE6FF0A01BB05E66E65DDE55267
:10328000E552E552E7CF34F0E552E7CF33F0E552AF
:10329000E7CF32F032505A242F6E33505B20306E1D
:1032A00034505C20316E2FC096F730C097F72EDF78
:1032B000020E0A01BB5DE66EBACAE6FF45DDE552C5
:1032C000E5525AC02FF05BC030F05CC031F0326A7A
:1032D00031BE32680A0E5E6E5F6A606A616A2FC034
:1032E00059F030C05AF031C05BF032C05CF0C8EC2D
:1032F00074F055C02FF056C030F057C031F058C0B0
:1033000032F055C0E6FF56C0E6FF57C0E6FF58C092
:10331000E6FFBBCAE6FFBBCAE6FF16DDE552E55293
:10332000E552E7CF32F0E552E7CF31F0E552E7CF93
:1033300030F0E552E7CF2FF05AC033F05BC034F0E5
:103340005CC035F00A0E5F6E606A616A60EC71F015
:1033500057C033F058C034F059C035F0366A35BE26
:10336000366833502F2634503022355031223650B3
:1033700032222FC073F730C074F731C075F7010ED9
:103380000701955D03E3060E945D02E2000E01D095
:10339000010E0901339DE8B0338D040E745C63E1C6
:1033A0000301DD5107019719E8AE02D0973507D028
:1033B00096510301DC5D070197510301DD5905E2D8
:1033C00096C7DCF397C7DDF314D0070197510301CB
:1033D000DB19E8AE02D0DB3507D0DA510701965D84
:1033E0000301DB510701975904E296C7DAF397C747
:1033F000DBF3070194512F6E306A0301D751301867
:10340000E8AE02D0303404D02F50D65D3050D759BA
:1034100006E2070194510301D66FD76B15D007015F
:1034200094512F6E306A03013050C719E8AE02D0B4
:10343000C73504D0C6512F5CC751305805E207018B
:1034400094510301C66FC76B0701973504E296518B
:103450009608000E975502E3000E01D0010E0901F7
:103460003497E8B03487120051DE50DE4FDE0A0197
:10347000BA51EA6AAC0FE96E060EEA22EF50410833
:1034800001E02CD10901338D41DEBBCAE6FFBACA87
:10349000E6FFA5DCE552E55259C057F75AC058F788
:1034A0005BC059F75CC05AF731DE0A01BA51EA6ACB
:1034B000AC0FE96E060EEA22EF50530809E1000E48
:1034C0000701576D581F5823591F59235A1F5A2354
:1034D0001DDEBBCAE6FFBACAE6FF81DCE552E55253
:1034E00059C05BF75AC05CF75BC05DF75CC05EF724
:1034F0000DDE0A01BA51EA6AAC0FE96E060EEA2245
:10350000EF50570809E1000E07015B6D5C1F5C235B
:103510005D1F5D235E1F5E23F9DDBBCAE6FF0A0166
:10352000BB05E66E11DCE552E5525AC02FF05BC0D8
:1035300030F05CC031F0326A31BE32682FC0E6FF35
:1035400030C0E6FF31C0E6FF32C0E6FF030E0A01DD
:10355000BB5DE66EBACAE6FFA4EC16F0E552E55292
:10356000E552E7CF32F0E552E7CF31F0E552E7CF51
:1035700030F0E552E7CF2FF05AC059F05BC05AF057
:103580005CC05BF05C6A5BBE5C68640E5E6E5F6A2A
:10359000606A616AC8EC74F0555000012F2408017C
:1035A000E46F5650000130200801E56F57500001CC
:1035B00031200801E66F5850000132200801E76F02
:1035C0000D0E5E6E5F6A606A616AE4C859F0E5C814
:1035D0005AF0E6C85BF0E7C85CF0C8EC74F055C080
:1035E000E4F856C0E5F857C0E6F858C0E7F856C00A
:1035F00090F757C091F78ADDBBCAE6FF0A01BB0509
:10360000E66EA4EC16F0E552E5525AC02FF05BC00E
:1036100030F05CC031F0326A31BE32682FC0E6FF54
:1036200030C0E6FF31C0E6FF32C0E6FF030E0A01FC
:10363000BB5DE66EBACAE6FFA4EC16F0E552E552B1
:10364000E552E7CF32F0E552E7CF31F0E552E7CF70
:1036500030F0E552E7CF2FF05AC059F05BC05AF076
:103660005CC05BF05C6A5BBE5C68640E5E6E5F6A49
:10367000606A616AC8EC74F0555000012F2408019B
:10368000E46F5650000130200801E56F57500001EB
:1036900031200801E66F5850000132200801E76F21
:1036A0002D0E5E6E5F6A606A616AE4C859F0E5C813
:1036B0005AF0E6C85BF0E7C85CF0C8EC74F055C09F
:1036C000E4F856C0E5F857C0E6F858C0E7F856C029
:1036D0008EF757C08FF70901398D12000901399D06
:1036E0001200BDCA2FF0BECA30F0316A326A30AE65
:1036F00002D0316832681E0E2F1801E02DD13050F3
:1037000001E02AD1315001E027D1325001E024D12B
:1037100009013351400B01E11FD14FC753F750C787
:1037200054F751C755F752C756F757C75FF758C7F1
:1037300060F759C761F75AC762F757C784F758C788
:1037400085F759C786F75AC787F757C77CF758C711
:103750007DF759C77EF75AC77FF757C76BF758C72A
:103760006CF759C76DF75AC76EF75BC763F75CC74D
:1037700064F75DC765F75EC766F75BC788F75CC728
:1037800089F75DC78AF75EC78BF75BC780F75CC7B1
:1037900081F75DC782F75EC783F75BC76FF75CC7CA
:1037A00070F75DC771F75EC772F70701906B916B99
:1037B0007CEC6DF05AC07CF65BC07DF65CC07EF69A
:1037C00057C7E8F858C7E9F859C7EAF85AC7EBF8F5
:1037D000C00E5E6E270E5F6E090E606E616A57C77F
:1037E00059F058C75AF059C75BF05AC75CF0FFEC64
:1037F00070F059C0E8F85AC0E9F85BC0EAF85CC05C
:10380000EBF859C0E6FF5AC0E6FF5BC0E6FF5CC0BC
:10381000E6FF92EC24F0E552E552E552E55259C03C
:10382000E8F85AC0E9F85BC0EAF85CC0EBF859C0A8
:103830002FF05AC030F05BC031F05CC032F0F60EB1
:103840005E6E0D0E5F6E606A616AC8EC74F055C002
:103850002FF056C030F057C031F058C032F00B0E88
:10386000D8903232313230322F32E806F9E12FC0AF
:10387000E8F830C0E9F831C0EAF832C0EBF82FC000
:10388000E6FF30C0E6FFDEEC4AF0E552E552F3CF4A
:103890008CF7F4CF8DF773C779F774C77AF775C7CC
:1038A0007BF773C72FF074C730F075C731F0640E23
:1038B0005F6E606A616A73C75AF074C75BF075C760
:1038C0005CF0D2EC70F05AC02FF05BC030F05CC0FE
:1038D00031F05AC0E6FF5BC0E6FF0C0EE66E010E4B
:1038E000E66E40EC70F0E552E552E552E55257C7FE
:1038F000E6FF58C7E6FF59C7E6FF5AC7E6FF0E0EB8
:10390000E66E010EE66E70EC70F02F6E060EE15E54
:103910002F505BC7E6FF5CC7E6FF5DC7E6FF5EC7EB
:10392000E6FF120EE66E010EE66E70EC70F02F6E82
:10393000060EE15E2F50090133BF0DD0E66A020E7C
:10394000E66E64EC21F0E552E552010E0301D86FFA
:10395000D96B0901338F368912000A01B96BFCC695
:10396000B8FA07014E51010A05E0010A04E1AAEC88
:1039700018F001D079DD090133ADA4D17CEC6DF0F4
:1039800006017C515A5C0801F56F06017D515B58B8
:103990000801F66F06017E515C580801F76F7CEC58
:1039A0006DF05AC07CF65BC07DF65CC07EF6BDCA89
:1039B0002FF0BECA30F0316A326A30AE02D03168C0
:1039C0003268D8903250000A08E61E0E2F5C000EB6
:1039D0003058000E3158000E325822E20901339D52
:1039E00096C72FF097C730F0316A326A30AE02D0F6
:1039F000316832683234000E321809E6D880820EFF
:103A00002F54000E3054000E3154000E325405E392
:103A10000A01BD2B000EBE2303D00A01BD6BBE6B95
:103A2000090133AF1ED107017951735D766F7A5169
:103A30007459776F7B517559786F5F0EE96E070E79
:103A4000EA6EEE50575D2F6EEE505859306EEE50C4
:103A50005959316EEE505A592FC0F2F830C0F3F870
:103A600031C0F4F8630EE96E070EEA6EEE505B5D4E
:103A70002F6EEE505C59306EEE505D59316EEE5047
:103A80005E592FC0EFF830C0F0F831C0F1F8F2C83D
:103A90002FF0F3C830F0F4C831F0326A31BE32682A
:103AA0002FC0E6FF30C0E6FF31C0E6FF32C0E6FFC0
:103AB00092EC24F0E552E552E552E552EFC833F0BE
:103AC000F0C834F0F1C835F0366A35BE366833C018
:103AD000E6FF34C0E6FF35C0E6FF36C0E6FF92ECF5
:103AE00024F0E552E552E552E55259C0ECF85AC0CF
:103AF000EDF85BC0EEF859C02FF05AC030F05BC053
:103B000031F0326A31BE32683234000E321809E6C2
:103B1000D8801C0E2F54020E3054000E3154000E6B
:103B2000325401E38ED00301EC2B000EED23EEC3E3
:103B30002FF0EFC330F0316A30BE316831500801E8
:103B4000EE19E8AE02D0EE3506D0EC512F5CED5107
:103B50003058EE51315804E2ECC8EEF3EDC8EFF303
:103B6000360EE66EE66AE66AE66A57C7E6FF58C7AB
:103B7000E6FF59C7E6FF5AC7E6FF5FC7E6FF60C723
:103B8000E6FF61C7E6FF62C7E6FFF9EC23F02F6EA0
:103B90000C0EE15E2F5059C057F75AC058F75BC062
:103BA00059F75CC05AF7360EE66EE66AE66AE66AD0
:103BB0005BC7E6FF5CC7E6FF5DC7E6FF5EC7E6FFE3
:103BC00063C7E6FF64C7E6FF65C7E6FF66C7E6FFB3
:103BD000F9EC23F02F6E0C0EE15E2F5059C05BF70D
:103BE0005AC05CF75BC05DF75CC05EF75F0EE96EC4
:103BF000070EEA6EEE500701575D2F6EEE505859D2
:103C0000306EEE505959316EEE505A592FC0F2F8BD
:103C100030C0F3F831C0F4F8630EE96E070EEA6EB7
:103C2000EE50595C2F6EEE505A58306EEE505B5885
:103C3000316EEE505C582FC0EFF830C0F0F831C054
:103C4000F1F857C75FF758C760F759C761F75AC708
:103C500062F75BC763F75CC764F75DC765F75EC76C
:103C600066F7040E745C35E1C0C32FF0C1C330F0B9
:103C7000316A30BE3168315007017819E8AE02D0A0
:103C8000783506D076512F5C7751305878513158BD
:103C900004E276C7C0F377C7C1F30301CD51070132
:103CA0009119E8AE02D0913507D090510301CC5D57
:103CB000070191510301CD590CE290C7CCF391C794
:103CC000CDF31200040E745C04E10301D42B000E4A
:103CD000D5231200775056E009013951800B52E08C
:103CE00038A53AD0776A020EE66E4AEC73F0E552D8
:103CF000040EE66E56EC73F0E552090138952DDEA0
:103D0000090133AD1ED0040EE66E56EC73F0E55299
:103D1000090138977CEC6DF05AC02FF05BC030F091
:103D20005CC031F0326AD00E2F26070E3022000E12
:103D3000312232222FC082F630C083F631C084F6A1
:103D400005D0040EE66E4AEC73F0E552020EE66E04
:103D500056EC73F0E55212007CEC6DF05A500601FF
:103D6000825D5B5083595C50845907E20901339DA1
:103D7000040EE66E4AEC73F0E552020EE66E56EC67
:103D800073F0E55212000A01B96B07018C6B010E4A
:103D90008D6F966B976B946B94C795F794C74FF79D
:103DA000506B516B526B736B746B756B73C776F79B
:103DB00074C777F775C778F7000E926F936B906FA3
:103DC000916B8E6F8F6B576B586B596B5A6B57C7D4
:103DD0005FF758C760F759C761F75AC762F757C707
:103DE00084F758C785F759C786F75AC787F757C763
:103DF0007CF758C77DF759C77EF75AC77FF757C773
:103E00006BF758C76CF759C76DF75AC76EF75B6BFE
:103E10005C6B5D6B5E6B5BC763F75CC764F75DC72C
:103E200065F75EC766F75BC788F75CC789F75DC74C
:103E30008AF75EC78BF75BC780F75CC781F75DC702
:103E400082F75EC783F75BC76FF75CC770F75DC724
:103E500071F75EC772F7E66AE66AE66AE66A0E0E10
:103E6000E66E010EE66E70EC70F02F6E060EE15EEF
:103E70002F50E66AE66AE66AE66A120EE66E010E00
:103E8000E66E70EC70F02F6E060EE15E2F50000EA5
:103E9000E66EE66A0C0EE66E010EE66E40EC70F021
:103EA000E552E552E552E5520A01BD6BBE6B0901D0
:0A3EB0003895339D339F266A1200F7
:063EBA007CBA05D0200EC9
:103EC000E66E4AEC73F004D0200EE66E56EC73F00A
:103ED000E552090137A105D0080EE66E4AEC73F0F1
:103EE00004D0080EE66E56EC73F0E552800EE66ED6
:103EF00056EC73F0E5527CEC6DF05AC018F95BC0DB
:103F000019F95CC01AF9F40E09011827010E1923DA
:103F1000000E1A232BEC54F0010E776E38EC26F0CD
:103F2000010E776EF8EC39F0090137A155D0080E73
:103F3000E66E4AEC73F0E552090137A757D049EC19
:103F400040F00A01D30705E1ECEC30F00A01010E64
:103F5000D36F49CF47FF4ACF48FF000E0F01436F91
:103F6000446B0F01496F4A6B76EC47F07CEC6DF0C7
:103F70005A500901185D5B5019595C501A5936E2C4
:103F800009013651040B03E13751040B0FE17CBEEC
:103F900005D0800EE66E4AEC73F004D0800EE66E1B
:103FA00056EC73F0E5527CA405D009D080A80CD063
:103FB0007CB405D0040EE66E4AEC73F004D0040E17
:103FC000E66E56EC73F0E552F40E09011827010E67
:103FD0001923000E1A230AD0040EE66E4AEC73F081
:103FE000E552080EE66E56EC73F0E552C3EC2CF089
:103FF00009013751010B8EE08050100B04E00901DC
:10400000135101E087D709013651040B01E082D733
:104010003351040B01E07ED747CF2FF048CF30F06B
:10402000316A326A30AE02D031683268D89032508C
:10403000000A08E6180E2F5C000E3058000E3158AA
:10404000000E325801E366D73751040B01E162D705
:104050000901136B800EE66E56EC73F0E552040E08
:10406000E66E56EC73F0E552080EE66E4AEC73F01D
:10407000E552090137AB05D0200EE66E4AEC73F02D
:1040800004D0200EE66E56EC73F0E5527CEC6DF039
:104090005AC014F95BC015F95CC016F90901176B19
:1040A0005AC08EF65BC08FF65CC090F65AC02FF0F7
:1040B0005BC030F05CC031F017C932F0E80E2F263B
:1040C000030E3022000E312232222FC06DF630C096
:1040D0006EF631C06FF600C42FF0306A316A326A72
:1040E000140EE96E090EEA6EEE502F26EE503022C5
:1040F000EE503122EE5032222FC0A9F630C0AAF67F
:1041000031C0ABF609013397766A12003F0E926E0A
:10411000020EC16EC00E816E400E936E600E826EF6
:10412000840E946EC78CF19E410EE66EE66A3C0EDC
:10413000E66E83EC74F0E552E552E5521200746AC3
:1041400009011C6B0A0E1C5D09E21C51EA6A330F5F
:10415000E96E090EEA22EF6A1C2BF4D709013681B9
:104160003689378509010B6B0C6B0D6B0E6B0F01DC
:104170004F697F0E506F4FCF4DFFE8CF4EFF4FCFAF
:1041800051FFE8CF52FF140E0F01456F466BF00E42
:104190000F01476F486BD00E0801236F246B7C6AB8
:1041A0002E0EE66E56EC73F0E552040EE66E4AEC07
:1041B00073F0E552800EE66E56EC73F0E552120095
:1041C000D9CFE6FFE1CFD9FFFD0EDBCF2FF0FE0EFA
:1041D000DBCF30F0316A30BE31682FC0E6FF30C02F
:1041E000E6FF31C0E6FF7CEC6DF0E552E7CF31F041
:1041F000E552E7CF30F0E552E7CF2FF05A502F24A9
:1042000009011D6F5B5030201E6F5C5031201F6F05
:104210001D2B000E1E231F237CEC6DF009011D5188
:104220005A5C1E515B581F515C58F6E3E552E7CFCC
:10423000D9FF1200D9CFE6FFE1CFD9FFFD0EDBCFCA
:104240002FF0FE0EDBCF30F0640E3002F3CF30F0F3
:104250002F02F3CF2FF0F4503026316A30BE316890
:104260002FC0E6FF30C0E6FF31C0E6FF7CEC6DF00A
:10427000E552E7CF31F0E552E7CF30F0E552E7CF36
:104280002FF05A502F240901206F5B503020216FEE
:104290005C503120226F7CEC6DF0090120515A5C9A
:1042A00021515B5822515C580BE2020E0401005D63
:1042B000E66EE66A85DFE552E55276EC47F0EBD72D
:1042C000E552E7CFD9FF1200D9CFE6FFE1CFD9FF02
:1042D000800EE66E4AEC73F0E552FE0EDBCFE6FF91
:1042E000E66AA8DFE552E552800EE66E56EC73F002
:1042F000E552FD0EDBCFE6FFE66A9CDFE552E552B4
:10430000E552E7CFD9FF1200D9CFE6FFE1CFD9FFC1
:104310000901236BFE0EDB50235D0AE2080EE66EF8
:10432000020EE66ED1DFE552E5520901232BF2D7EA
:10433000E66A080EE66EC8DFE552E552E552E7CFC1
:10434000D9FF12007CEC6DF05AC024F95BC025F94E
:104350005CC026F9240EE96E090EEA6E0601915141
:10436000EE5C9251EE589351EE5801E2BCD077507A
:1043700001E1B9D024C991F625C992F626C993F670
:10438000E80E9127030E9223000E9323776A20C82C
:1043900059F021C85AF05B6A5C6A5AAE02D05B6879
:1043A0005C68040E5E6E5F6A606A616AC8EC74F0F5
:1043B00055C003F956C004F98E0EE96E060EEA6E7A
:1043C000EE500901245D366EEE502559376EEE50E1
:1043D0002659386E55C033F056C034F0356A34BEB5
:1043E000356833C05AF034C05BF035C05CF036C07D
:1043F0005FF037C060F038C061F060EC71F0326A95
:10440000575009010B2758500C2359500D23325097
:104410000E2324C98EF625C98FF626C990F60BC93E
:104420002FF00CC930F00DC931F00EC932F05E6AC0
:10443000400E5F6E380E606E616A0BC959F00CC990
:104440005AF00DC95BF00EC95CF0FFEC70F059C07A
:104450002FF05AC030F05BC031F05CC032F0320E49
:104460005E6E5F6A606A616AC8EC74F055C02FF0D6
:1044700056C030F057C031F058C032F055C009F97D
:1044800056C00AF9E66A37EC75F0E552F3CF27F922
:10449000F4CF28F9010EE66E09010151F3242F6EC5
:1044A0000251F420306E2FC0E6FFE66E4BEC48F070
:1044B000E552E552E552F3CF01F9F4CF02F90901D3
:1044C000F4500619E8AE02D0063504D00551015D5E
:1044D0000651025902E3000E01D0010E010B090141
:1044E000339BE8B0338B1200775001E1ABD0776A91
:1044F00009013351200B08E13351080B05E1030E8C
:10450000745C02E0000E01D0010E3997E8B03987E3
:1045100039A783D033AB0AD00A01580ED46F020EEC
:10452000D56F580ED66F020ED76F12D0030E745C83
:1045300007E10A018E0ED46F120ED56FFA0E06D067
:1045400033A706D07D0E0A01D46FD56BD66FD76B1B
:104550007CEC6DF05A5006019A5D5B509B595C50A3
:104560009C5970E27CAE2CD0D4CA2FF0D5CA30F062
:10457000316A30BE31682FC0E6FF30C0E6FF31C07F
:10458000E6FF7CEC6DF0E552E7CF31F0E552E7CF86
:1045900030F0E552E7CF2FF05A502F2406019A6FE2
:1045A0005B5030209B6F5C5031209C6F800EE66E1C
:1045B00056EC73F0E552040EE66E56EC73F02BD019
:1045C000D6CA2FF0D7CA30F0316A30BE31682FC05A
:1045D000E6FF30C0E6FF31C0E6FF7CEC6DF0E5524F
:1045E000E7CF31F0E552E7CF30F0E552E7CF2FF0DB
:1045F0005A502F2406019A6F5B5030209B6F5C50FD
:1046000031209C6F800EE66E4AEC73F0E552040E8A
:10461000E66E4AEC73F0E5521200040E745C12E18F
:104620003651100B0FE17CEC6DF05A500601675DBE
:104630005B5068595C50695905E2800EE66E56EC95
:1046400073F0E5521200D9CFE6FFE1CFD9FFF70EA4
:10465000DBCF33F0F80EDBCF34F0F90EDBCF35F0E3
:10466000FA0EDBCF36F0E150FB0FE96EFF0EDA20D9
:10467000EA6E030EEB503618E8AE02D0363408D09E
:104680003350EE5C3450EE583550EE583650EE58FC
:104690000BE2F70EDBCF2FF0F80EDBCF30F0F90E88
:1046A000DBCF31F0FA0E39D0F30EDBCF37F0F40E5A
:1046B000DBCF38F0F50EDBCF39F0F60EDBCF3AF07A
:1046C000D950FB0FE96EFF0EDA20EA6E030EEBCF36
:1046D000F3FF3A50F318E8AE02D0F33408D0EE50AE
:1046E000375CEE503858EE503958EE503A580BE2DD
:1046F000F30EDBCF2FF0F40EDBCF30F0F50EDBCF77
:1047000031F0F60E0AD0FB0EDBCF2FF0FC0EDBCF24
:1047100030F0FD0EDBCF31F0FE0EDBCF32F02FC0DC
:1047200059F030C05AF031C05BF032C05CF0E55255
:10473000E7CFD9FF1200D9CFE6FFE1CFD9FFFE0EB8
:10474000DBCF30F0800E30141EE0FB0EDBCF2FF0FD
:10475000FC0EDBCF30F0D950FD0FE96EFF0EDA20F2
:10476000EA6E2F50EE263050ED22FD0EDBCF2FF0FB
:10477000FE0EDBCF30F030342EE22F500008000E5A
:10478000305429E224D0FD0EDBCF2FF0FE0EDBCF1C
:1047900030F0303420E22F500008000E30541BE27D
:1047A000FB0EDBCF2FF0FC0EDBCF30F0D950FD0F2E
:1047B000E96EFF0EDA20EA6E2F50EE5E3050ED5AB1
:1047C000FD0EFE0EDBCF30F0800E301404E0FD0E47
:1047D000DB6AFE0EDB6AFD0EDBCF2FF0FE0EDBCFB9
:1047E00030F02FC0F3FF30C0F4FFE552E7CFD9FF20
:1047F0001200D9CFE6FFE1CFD9FFFB0EDBCF2FF0C0
:10480000FC0EDBCF30F0FD0EDBCF31F0FE0EDBCF48
:1048100032F0E150F30FE96EFF0EDA20EA6EEE504F
:104820002F5C0901296FEE5030582A6FEE50315835
:104830002B6FEE5032582C6FFB0EDBCF2FF0FC0E9F
:10484000DBCF30F0FD0EDBCF31F0FE0EDBCF32F0F0
:10485000E150F30FE96EFF0EDA20EA6E2F50EE24DE
:104860002D6F3050EE202E6F3150EE202F6F3250D2
:10487000EE20306FE150F70FE96EFF0EDA20EA6E9E
:10488000030EEB502C19E8AE02D02C3508D029517C
:10489000EE5C2A51EE582B51EE582C51EE5809E29D
:1048A00029C92FF02AC930F02BC931F02CC932F0B8
:1048B0002DD0D950F70FE96EFF0EDA20EA6E030E05
:1048C000EBCFF3FF3051F318E8AE02D0F33408D049
:1048D000EE502D5DEE502E59EE502F59EE503059BE
:1048E00009E22DC92FF02EC930F02FC931F030C99F
:1048F00032F00CD0F70EDBCF2FF0F80EDBCF30F01C
:10490000F90EDBCF31F0FA0EDBCF32F02FC059F0C9
:1049100030C05AF031C05BF032C05CF0E552E7CFF6
:10492000D9FF1200D9CFE6FFE1CFD9FFE150FB0F4D
:10493000E96EFF0EDA20EA6ED890030EEB50000A03
:1049400008E6000EEE5C000EEE58000EEE58000E6B
:10495000EE5815E2FB0EDBCF2FF0FC0EDBCF30F074
:10496000FD0EDBCF31F0FE0EDBCF32F0000E2F6CF0
:10497000301E3022311E3122321E32220CD0FB0E6C
:10498000DBCF2FF0FC0EDBCF30F0FD0EDBCF31F0B4
:10499000FE0EDBCF32F02FC059F030C05AF031C0DC
:1049A0005BF032C05CF0E552E7CFD9FF1200D9CFFF
:1049B000E6FFE1CFD9FFFD0EDBCFE9FFFE0EDBCF37
:1049C000EAFF260EE926000EEA22010EEF6EE552FE
:1049D000E7CFD9FF1200D9CFE6FFE1CFD9FFFD0E17
:1049E000DBCFE9FFFE0EDBCFEAFF260EE926000E45
:1049F000EA22EF5064E00901316B100E315D1AE2DA
:104A0000FD0EDBCFE9FFFE0EDBCFEAFF060EE92647
:104A1000000EEA223151020DE950F324E96EEA500A
:104A2000F420EA6EFB0EDBCFEEFFFC0EDBCFEDFFDA
:104A3000312BE3D7FD0EDBCFE9FFFE0EDBCFEAFF24
:104A4000040EE926000EEA22EF6AFD0EDBCFE9FF35
:104A5000FE0EDBCFEAFF050EE926000EEA220F0E5E
:104A6000EF6EFB0EDBCF2FF0FC0EDBCF30F0316AA8
:104A7000326A30AE02D031683268040ED8902F36D8
:104A8000303631363236E806F9E1FD0EDBCFE9FF8C
:104A9000FE0EDBCFEAFF2FC0EEFF30C0EEFF31C0CD
:104AA000EEFF32C0EEFFFD0EDBCFE9FFFE0EDBCFE7
:104AB000EAFF260EE926000EEA22EF6A98D0FD0EE4
:104AC000DBCFE9FFFE0EDBCFEAFF040EE926000E86
:104AD000EA22EFCF32F9FD0EDBCFE9FFFE0EDBCF8E
:104AE000EAFF060EE926000EEA22E9CF33F0EACF0C
:104AF00034F009013251020DE950F324E96EEA5015
:104B0000F420EA6EEECF2FF0EFCF30F0316A326A48
:104B100030AE02D031683268FD0EDBCFE9FFFE0E09
:104B2000DBCFEAFF2F50EE5E3050EE5A3150EE5A96
:104B30003250EE5A32290F0BE66EFD0EDBCFE9FF45
:104B4000FE0EDBCFEAFF040EE926000EEA22E55254
:104B5000E750EF6EFD0EDBCFE9FFFE0EDBCFEAFF85
:104B6000050EE926000EEA22EFCF32F932290F0BAB
:104B7000326FFD0EDBCFE9FFFE0EDBCFEAFF060E44
:104B8000E926000EEA223251020DE950F324E96EC3
:104B9000EA50F420EA6EFB0EDBCFEEFFFC0EDBCF1B
:104BA000EDFFFD0EDBCFE9FFFE0EDBCFEAFF050ECA
:104BB000E926000EEA2232C9EFFFFB0EDBCF2FF011
:104BC000FC0EDBCF30F0316A326A30AE02D0316891
:104BD0003268FD0EDBCFE9FFFE0EDBCFEAFF2F5080
:104BE000EE263050EE223150EE223250EE22040EEC
:104BF000E66EFD0EDBCFE9FFFE0EDBCFEAFFEECF68
:104C0000E6FFEECFE6FFEECFE6FFEFCFE6FF9BEC51
:104C100048F0316E050EE15E315059C0F3FF5AC0C5
:0A4C2000F4FFE552E7CFD9FF1200C0
:064C2A0004019451E96E43
:104C3000EA6AD890E936EA36B00EE9260A0EEA2288
:104C4000EECFE6FFEFCFE6FF4DEC56F0E552E55232
:104C500012000401945102E0940502E14FEF27F0A5
:104C6000020E945D02E121EF2CF0F36AF46A120067
:104C7000775074E009013951800B70E07CEC6DF0E5
:104C80000601A6515A5CA7515B58A8515C5866E3CF
:104C900009013A85776A7CEC6DF05AC0A6F65BC0D4
:104CA000A7F65CC0A8F6320E0601A627000EA723C1
:104CB000A823090137AD06D0CCDFF3CF8AF4F4CFB7
:104CC0008BF403D004018A6B8B6B040192518A5DD3
:104CD0002F6E8B519355306E2FC0E6FFE66E23EC9E
:104CE00049F0E552E552F3CF8CF4F4CF8DF4040192
:104CF0008E51F35C2F6EF4508F55306E316A326AEC
:104D000030AE02D0316832682FC0E6FF30C0E6FF17
:104D100031C0E6FF32C0E6FF92EC24F0E552E552E6
:104D2000E552E55259C098F45AC099F40401D8905C
:104D30005A5004E6460E985D0C0E99590BE29935CF
:104D400009E298510C08020E995504E20301D02B98
:104D5000000ED1238CC48EF48DC48FF41200D9CFF1
:104D6000E6FFE1CFD9FFFD0EDBCF2FF0FE0EDBCF4C
:104D700030F0316A326A30AE02D0316832682FC00A
:104D8000E6FF30C0E6FF31C0E6FF32C0E6FF92EC3E
:104D900024F0E552E552E552E55259C09CF45AC060
:104DA0009DF404015A342EE29C5146080C0E9D5588
:104DB00029E2FD0EDBCF33F0FE0EDBCF34F0000135
:104DC000800E341402E0FF0E01D0010E316E326A03
:104DD00031BE32689CC42FF09DC430F08C0E2F5E23
:104DE000180E305A2FC05BF030C05CF031C060F05C
:104DF00032C061F033EC71F0FD0E59C0DBFFFE0EE6
:104E00005AC0DBFFFD0EDBCF2FF0FE0EDBCF30F004
:104E10002FC0F3FF30C0F4FFE552E7CFD9FF1200F7
:104E200018DFF3CF8AF4F4CF8BF404019251F35CD2
:104E30002F6EF4509355306E2FC0E6FFE66E23ECD4
:104E400049F0E552E552F3CF8CF4F4CF8DF4F3CF73
:104E50008EF4F4CF8FF4F3CF90F4F4CF91F40201F9
:104E6000E46B120056EC2BF000090CE0070E080171
:104E7000645D04E10401010E946F02D00401946B9F
:104E8000A4EF2AF0AFEC2CF0000905E00401020EBB
:104E9000946F74EF2CF00401030E946F1200010E56
:104EA000E66E030EE66EB70EE66E040EE66E030EB9
:104EB000E66EB6C4E6FF81EC69F02F6E060EE15E89
:104EC0002F500901379DE8B0378D37AD34D3040139
:104ED00094510DE1B7C49EF4B8C49FF4BBC4A6F4CA
:104EE000BCC4A7F4B9C4AEF4BAC4AFF40CD0B7C410
:104EF0009EF4B8C49FF4B9C4A6F4BAC4A7F4BBC462
:104F0000AEF4BCC4AFF4C36BC351020801E21AD1C2
:104F1000C351080DF3CFD6F4F4CFD7F49E0ED627A5
:104F2000040ED723D6C4E9FFD7C4EAFF040EE9264E
:104F3000000EEA22EECF2FF0EFCF30F0C351E96E32
:104F4000EA6AD890E936EA36B70EE926040EEA2274
:104F5000EECF31F0EFCF32F030503218E8AE02D061
:104F6000323404D031502F5C3250305808E2D6C46D
:104F7000E9FFD7C4EAFF040EE926000E09D0C351A9
:104F8000E96EEA6AD890E936EA36B70EE926040EE9
:104F9000EA22EECFBDF4EFCFBEF4030EE66ED6C428
:104FA000E9FFD7C4EAFF040EE926000EEA22EECF9D
:104FB00033F0EFCF34F0070E3402F3CF34F0330286
:104FC000F3CF33F0F4503426F350BD25316E345016
:104FD000BE21326E31C0E6FFE66E4BEC48F0E55282
:104FE000E552E552F3CF2FF0F4CF30F0D6C4E9FF0D
:104FF000D7C4EAFF040EF3CFEBFF050E30C0EBFF82
:10500000D6C4E9FFD7C4EAFF020EE926000EEA2261
:10501000EECF2FF0EFCF30F00401C351E96EEA6A12
:10502000D890E936EA36B70EE926040EEA22EECF2A
:1050300031F0EFCF32F030503218E8AE02D03234D7
:1050400004D031502F5C325030580AE2C351E96E1F
:10505000EA6AD890E936EA36B70EE926040E07D098
:10506000D6C4E9FFD7C4EAFF020EE926000EEA2201
:10507000EECFBDF4EFCFBEF4030EE66ED6C4E9FF6B
:10508000D7C4EAFF020EE926000EEA22EECF33F083
:10509000EFCF34F0070E3402F3CF34F03302F3CF06
:1050A00033F0F4503426F350BD25316E3450BE2118
:1050B000326E31C0E6FFE66E4BEC48F0E552E55249
:1050C000E552F3CF2FF0F4CF30F0D6C4E9FFD7C4C8
:1050D000EAFF020EF3CFEBFF030E30C0EBFF010E31
:1050E000E66ED6C4E9FFD7C4EAFF020EE926000E39
:1050F000EA22EECF33F0EFCF34F0D6C4E9FFD7C4C5
:10510000EAFF040EE926000EEA223350EE24316E47
:105110003450EE20326E31C0E6FFE66E4BEC48F0C4
:10512000E552E552E552F3CF2FF0F4CF30F0D6C47C
:10513000E9FFD7C4EAFFF350EE5E3050ED5A0401A8
:10514000C32BE2D608016451070A0DE00D0A0BE0FB
:10515000030A17E124C2C8F425C2C9F479C2CAF40B
:105160007AC2CBF41ED079C2C8F47AC2C9F4040161
:10517000C86DC91F000EC92324C2CAF425C2CBF4CE
:1051800010D024C2C8F425C2C9F40401C86DC91FD7
:10519000000EC92379C2CAF47AC2CBF4CA6DCB1F00
:1051A000CB23020EE66EC8C4E6FFC9C4E6FF4BEC93
:1051B00048F0E552E552E552F3CFC8F4F4CFC9F414
:1051C000020EE66ECAC4E6FFCBC4E6FF4BEC48F025
:1051D000E552E552E552F3CFCAF4F4CFCBF4C8C49C
:1051E000E6FFC9C4E6FFDEEC4AF0E552E552F3CF34
:1051F000CCF4F4CFCDF4C8C4E6FFC9C4E6FF65EC37
:105200004AF0E552E552F3CFCEF4F4CFCFF4CAC45E
:10521000E6FFCBC4E6FFDEEC4AF0E552E552F3CF01
:10522000D0F4F4CFD1F4CAC4E6FFCBC4E6FF65ECFA
:105230004AF0E552E552F3CFD2F4F4CFD3F4CCC424
:1052400037F0CDC438F0396A3A6A38AE02D03968DE
:105250003A689EC433F09FC434F0356A366A34AE7F
:1052600002D03568366833C059F034C05AF035C0C2
:105270005BF036C05CF037C05EF038C05FF039C01C
:1052800060F03AC061F0C8EC74F055C02FF056C021
:1052900030F057C031F058C032F0CEC43FF0CFC428
:1052A00040F0416A426A40AE02D041684268AEC4F2
:1052B0003BF0AFC43CF03D6A3E6A3CAE02D03D6874
:1052C0003E683BC059F03CC05AF03DC05BF03EC068
:1052D0005CF03FC05EF040C05FF041C060F042C093
:1052E00061F0C8EC74F02F5055240401BF6F3050AA
:1052F0005620C06F31505720C16F32505820C26FB6
:10530000C0C4C4F4C1C4C5F4D2C43FF0D3C440F097
:10531000416A426A40AE02D041684268CEC43BF066
:10532000CFC43CF03D6A3E6A3CAE02D03D683E6868
:105330009EC437F09FC438F0396A3A6A38AE02D05A
:1053400039683A6837C059F038C05AF039C05BF054
:105350003AC05CF03BC05EF03CC05FF03DC060F026
:105360003EC061F0C8EC74F055C033F056C034F064
:1053700057C035F058C036F055C059F056C05AF0F5
:1053800057C05BF058C05CF03FC05EF040C05FF0BB
:1053900041C060F042C061F0C8EC74F055C02FF01D
:1053A00056C030F057C031F058C032F0D2C44FF080
:1053B000D3C450F0516A526A50AE02D0516852685C
:1053C000CCC44BF0CDC44CF04D6A4E6A4CAE02D00A
:1053D0004D684E68AEC447F0AFC448F0496A4A6AA7
:1053E00048AE02D049684A6847C059F048C05AF0F0
:1053F00049C05BF04AC05CF04BC05EF04CC05FF04F
:105400004DC060F04EC061F0C8EC74F055C043F080
:1054100056C044F057C045F058C046F055C059F04A
:1054200056C05AF057C05BF058C05CF04FC05EF0F9
:1054300050C05FF051C060F052C061F0C8EC74F031
:1054400055502F5C0401BF6F56503058C06F5750F5
:105450003158C16F58503258C26FC0C42FF0C1C408
:1054600030F0316E326A31BE3268D0C437F0D1C408
:1054700038F0396A3A6A38AE02D039683A68A6C458
:1054800033F0A7C434F0356A366A34AE02D03568DA
:10549000366833C059F034C05AF035C05BF036C0BE
:1054A0005CF037C05EF038C05FF039C060F03AC0E1
:1054B00061F0C8EC74F02F5055240401BF6F3050D8
:1054C0005620C06F31505720C16F32505820C26FE4
:1054D000C0C4C6F4C1C4C7F4C4C42FF0C5C430F0FE
:1054E000316A326A30AE02D0316832682FC0E6FFCE
:1054F00030C0E6FF31C0E6FF32C0E6FFC6C433F07D
:10550000C7C434F0356A366A34AE02D035683668BE
:1055100033C0E6FF34C0E6FF35C0E6FF36C0E6FF25
:10552000F7EC4AF0376E080EE15E3750F3CFD4F453
:10553000F4CFD5F404D00301D02B000ED123D4C472
:10554000F3FFD5C4F4FF12000401956B640EE66E00
:10555000E66AE0EC20F0E552E552110EE66EE66AEE
:10556000B6C4E6FF5CEC69F0E552E552E552150E73
:10557000E66E020EE66EB6C4E6FF5CEC69F0E5523C
:10558000E552E5520A0EE66EE66AE0EC20F0E552DE
:10559000E552010EE66E030EE66ED90EE66E040EBF
:1055A000E66E030EE66EB6C4E6FF81EC69F02F6E80
:1055B000060EE15E2F500401DF6FD86BD851020850
:1055C00022E3D851E96EEA6AD890E936EA36D90E74
:1055D000E926040EEA22EECF2FF0EFCF30F0D851BB
:1055E000080DF3CFE9FFF4CFEAFF9E0EE926040E83
:1055F000EA22060EE926000EEA222FC0EEFF30C096
:10560000EDFFD82BDBD70A0EE66EE66AE0EC20F061
:10561000E552E552140EE66EE66AB6C4E6FF5CECAF
:1056200069F0E552E552E552200EE66E010EE66E97
:10563000B6C4E6FF5CEC69F0E552E552E552E66A75
:10564000020EE66EB6C4E6FF5CEC69F0E552E55288
:10565000E552640EE66EE66AE0EC20F0E552E552B3
:105660000401952B0A0E955D0DE2DB51D9190AE173
:10567000DC51DA1907E1DD51DB1902E1DE51DC19F9
:1056800001E164D70A0E955D02E3000E01D0010E20
:105690000901379DE8B0378D7CEC6DF05AC0A6F655
:1056A0005BC0A7F65CC0A8F6BCEF2BF004013C0E73
:1056B000B66FE66E24EC6AF0E5520901379DE8B05A
:1056C000378D37BD0BD004011E0EB66FE66E24EC8D
:1056D0006AF0E5520901379DE8B0378D3751400B2C
:1056E00001E0010E12000401945102E0940543E12F
:1056F000E06BE05102083FE3E051080DF3CFE1F425
:10570000F4CFE2F49E0EE127040EE223E1C4E9FFA8
:10571000E2C4EAFF040EE926000EEA22EECFE6FF1D
:10572000EFCFE6FF040EE003F350C00FE66EE66A2B
:1057300040EC70F0E552E552E552E552E1C4E9FF74
:10574000E2C4EAFF020EE926000EEA22EECFE6FFEF
:10575000EFCFE6FF040E0401E003F350020FC00F89
:10576000E66EE66A40EC70F0E552E552E552E5522D
:105770000401E02BBED712000401945102E094050D
:1057800043E1E36BE35102083FE3E351080DF3CF3C
:10579000E4F4F4CFE5F49E0EE427040EE523040EB2
:1057A000E303F350C00FE66EE66A80EC6FF0E5525B
:1057B000E552F3CF2FF0F4CF30F0E4C4E9FFE5C4B5
:1057C000EAFF040EF3CFEBFF050E30C0EBFF040E33
:1057D0000401E303F350020FC00FE66EE66A80ECAB
:1057E0006FF0E552E552F3CF2FF0F4CF30F0E4C480
:1057F000E9FFE5C4EAFF020EF3CFEBFF030E30C072
:10580000EBFF0401E32BBED71200D9CFE6FFE1CFB7
:10581000D9FF0A01010E216F2AEC68F0420EE66EF4
:10582000CCEC68F0E552FE0EDBCFE6FFCCEC68F086
:10583000E55247EC68F00A01216BE552E7CFD9FF4A
:1058400012000A01010E216F2AEC68F0430EE66E89
:10585000CCEC68F0E552000902E1000E01D0010E27
:105860000901379FE8B0378FE66A69EC68F0E552C6
:105870000401E76F010EE66E69EC68F0E552040181
:10588000E66F47EC68F00A01216BE6C42FF0E7C42D
:1058900030F0316A326A30AE02D031683268F60ECA
:1058A0005E6E0D0E5F6E606A616A2FC059F030C087
:1058B0005AF031C05BF032C05CF0C8EC74F055C0F7
:1058C0002FF056C030F057C031F058C032F00B0EF8
:1058D000D8903232313230322F32E806F9E12FC01F
:1058E000F3FF30C0F4FF12000A01010E216F2AEC11
:1058F00068F0420EE66ECCEC68F0E552470EE66EBC
:10590000CCEC68F0E552740EE66ECCEC68F0E55233
:10591000720EE66ECCEC68F0E55247EC68F00A01D6
:10592000216B010EE66EE66AE0EC20F0E552E552EE
:105930004C0EE66E6ADFE552010EE66EE66AE0ECBA
:1059400020F0E552E5524F0EE66E5FDFE552320E73
:10595000E66EE66AE0EC20F0E552E55212000A013C
:10596000010E216F420EE66E24EC6AF0E552090149
:10597000379DE8B0378D0A01216B09013751400B83
:0659800001E0010E12001F
:0A5986000A015C5101E195D35B05B5
:10599000400DF350626F636B606B400E605D1BE205
:1059A0006051306A62252F6E635130222FC0E6FFAE
:1059B00030C0E6FF67EC6FF0E552E552E66E0A0193
:1059C0006051EA6A420FE96E080EEA22E552E7509A
:1059D000EF6E602BE2D742C804F20201056B066B42
:1059E000076B04AF03D005690669076943C808F26D
:1059F000096B0A6B0B6B08AF03D009690A690B6965
:105A000044C80CF20D6B0E6B0F6B0CAF03D00D691D
:105A10000E690F697EC810F2116B126B136B10AF19
:105A200003D011691269136946C800F2016B00BF07
:105A3000016959C838F2396B38BF396947C859F21A
:105A40005A6B5B6B5C6B59AF03D05A695B695C69DD
:105A500048C85DF25E6B5F6B606B5DAF03D05E69E3
:105A60005F69606949C861F2626B636B646B61AFC7
:105A700003D06269636964697FC865F2666B676BAE
:105A8000686B65AF03D06669676968694BC855F292
:105A9000566B55BF56695AC88DF28E6B8DBF8E6995
