:020000040000FA
:060000001CEF77F0120076
:020006001200E6
:0600080037EF6DF012005D
:02000E00475059
:080010004747414750524D43A0
:0600180030EF6DF0120054
:02001E000E00D2
:1000200038EF0000DA0A00000A00000043E8000090
:10003000FF0700000100000031EF0000070B000087
:10004000070000002DEF0000270B00000400000057
:100050002BEF0000FE080000020000000BEB000088
:10006000FF0000000100000026EF00001A0B000056
:10007000050000000CEF00005D0A00001A000000FF
:10008000EAEE0000000A000022000000E2EE00009C
:10009000ED0A000008000000D6EE0000C20A0000D1
:1000A0000C000000C2EE0000EB0000001400000095
:1000B000A0EE0000CF090000220000009AEE000030
:0800C0000E0B00000600000019
:0800C800D9CFE6FFE1CFD9FF1B
:1000D000060EE126730EDE6E030EDD6E760EF36EF7
:1000E000020EF3CFDBFF010EF36E030EF3CFDBFF47
:1000F000040EDB6A010EF36E050EF3CFDBFF000189
:1001000091518E5DAC6F92518F59AD6F9351905953
:10011000AE6F040EDBCF36F0050EDBCF37F0386A5A
:1001200037BE3868ACC059F0ADC05AF0AEC05BF015
:1001300036C05EF037C05FF038C060F03FEC6FF063
:1001400056C0A3F057C0A4F058C0A5F0DECF3FF0D2
:10015000DDCF40F0416A40BE416827CB3CF028CB60
:100160003DF03E6A3DBE3E68020EDBCF39F0030E25
:10017000DBCF3AF03B6A3ABE3B68ACC059F0ADC049
:100180005AF0AEC05BF039C05EF03AC05FF03BC0E1
:1001900060F03FEC6FF000013C50565C366E3D5015
:1001A0005758376E3E505858386E36C059F037C0E1
:1001B0005AF05B6E3FC05EF040C05FF041C060F03F
:1001C0003FEC6FF056C0A6F057C0A7F058C0A8F09B
:1001D00027CB5AF028CB5BF0DECF5FF0DDCF60F0AD
:1001E000F4EC6EF058500B012727595028230001DA
:1001F000A351A625A96FA451A721AA6FA551A82193
:10020000AB6F080EE66EA9C0E6FFAAC0E6FF5AEC87
:100210004BF0E552E552E552F3CFA9F0F4CFAAF046
:100220000001AB6BAABFAB699CC039F09DC03AF02E
:100230003B6A3ABE3B68AB513B18E8AE02D03B3458
:1002400006D03950A95D3A50AA593B50AB5909E242
:100250009CC036F09DC037F0386A37AE1AD0386887
:1002600018D0AB35000EAB1907E6D880F40EA955AF
:10027000010EAA55000EAB5506E2F40E366E010EC5
:10028000376E386A06D0A9C036F0AAC037F0ABC0C6
:1002900038F036C0B1F037C0B2F09A51365CAF6F6B
:1002A0009B513758B06FDAC636F0376A36BE3768BA
:1002B0003650AF03F3CFB3F0F4CFB4F0B003F35044
:1002C000B4273750AF03F350B427090EE66EB3C01E
:1002D000E6FFB4C0E6FF5AEC4BF0E552E552E552BA
:1002E000F3CFB3F0F4CFB4F00001F4509F19E8AEAF
:1002F00002D09F3504D09E51B35D9F51B45909E29D
:100300009EC036F09FC037F0386A396A37AE23D0C6
:1003100022D0B3C03AF0B4C03BF03C6A3D6A3BAE79
:1003200002D03C683D683D34000E3D1809E6D88097
:100330000C0E3A54000E3B54000E3C54000E3D543B
:1003400004E20C0E366E376A04D0B3C036F0B4C087
:1003500037F0386A396A36C096F037C097F0060E23
:10036000E15C02E2E16AE552E16EE552E7CFD9FFD6
:1003700012000A0190A165D19091ABEC71F084EC70
:100380003BF00A018CAF0DD0CECA91F0CFCA92F0EB
:100390000001936B92BF9369D0CA9AF0D1CA9BF0C7
:1003A00016D0080111510801145D0001916F080178
:1003B0001251080115590001926F080113510801EB
:1003C00016590001936F17C89AF018C89BF0030ED6
:1003D000E66E070E5A6E5B6A29CB5FF02ACB60F09F
:1003E000F4EC6EF0585000019A25366E59509B215E
:1003F000376E36C0E6FFE66E5AEC4BF0E552E5523A
:10040000E552F3CF29FBF4CF2AFB0A018AA1F8D0E9
:100410008D51800B05E1745006E08D51010B03E016
:100420008B8D64EF00F08B51200B1CE10B01800ED3
:100430002A1509E029CB36F02ACB37F0366C371E67
:10044000000E372204D029CB36F02ACB37F03734D0
:100450002AE236503E08000E375425E20A018B513D
:10046000400B21E18B9D91C08EF092C08FF093C024
:1004700090F00001800E971507E0010E9625966F0B
:10048000000E9721976F120097350AE296510008E7
:10049000000E975505E2010E965F000E975B120065
:1004A000966B976B12000A018B8D0B01296B2A6BDF
:1004B0000BDE0F013C5100019625B56F0F013D5138
:1004C00000019721B66F800E9B1509E09AC036F0A7
:1004D0009BC037F0366C371E000E372204D09AC00E
:1004E00036F09BC037F0386A396A37AE02D03868C8
:1004F0003968D8903950000A08E6320E365C000E92
:100500003758000E3858000E395801E39AD0B5C05C
:100510003AF0B6C03BF03C6A3D6A3BAE02D03C6864
:100520003D683D34000E3D1809E6D880480E3A5427
:10053000000E3B54000E3C54000E3D5401E381D0AC
:10054000030EE66E070E5A6E5B6A38CF5FF039CF46
:1005500060F0F4EC6EF058500001B525366E59503D
:10056000B621376E36C0E6FFE66E5AEC4BF0E55228
:10057000E552E552F3CF38FFF4CF39FFF3CF3AF02D
:10058000F4CF3BF03C6A3D6A3BAE02D03C683D682C
:10059000D8903D50000A08E6480E3A5C000E3B58E1
:1005A000000E3C58000E3D5802E2480E19D038CFDC
:1005B0003EF039CF3FF0406A416A3FAE02D040681A
:1005C00041684134000E411809E6D880900E3E542F
:1005D000000E3F54000E4054000E415404E2900EB1
:1005E000366E376A04D038CF36F039CF37F036C0A0
:1005F00038FF37C039FF36C036FF37C037FF12002B
:1006000014C891F015C892F016C893F00001800E3E
:10061000971507E0010E9625966F000E9721976FAC
:100620000ED097350AE296510008000E975505E264
:10063000010E965F000E975B02D0966B976B0A01D6
:100640008B9D12000A018A51100B01E1D3D08D510C
:10065000400B01E0CFD00001B96BB951010801E2B4
:10066000CDD0030EE66EFBC63FF0406A416A426A97
:100670003FAE03D04068416842683FC0E6FF40C0DB
:10068000E6FF41C0E6FF42C0E6FF660EE66EE66AA0
:10069000B951480DF3CFE9FFF4CFEAFF000EE92688
:1006A000040EEA22280EE926000EEA22EECF3AF0E6
:1006B000EFCF3BF03C6A3D6A3BAE02D03C683D6800
:1006C0003AC0E6FF3BC0E6FF3CC0E6FF3DC0E6FFA8
:1006D000A0EC2CF03E6E060EE15E3E50E552E7CFF8
:1006E00042F0E552E7CF41F0E552E7CF40F0E55266
:1006F000E7CF3FF03FC05DF040C05EF041C05FF02B
:1007000042C060F086EC75F054C036F055C037F04A
:1007100056C038F057C039F054C0E6FF55C0E6FF68
:1007200056C0E6FF57C0E6FFAAEC4BF0436E050E3D
:10073000E15E43505D685E685F68606886EC75F0F6
:1007400054C0B7F055C0B8F054C03AF055C03BF0B3
:100750003C6A3D6A3BAE02D03C683D68D8803D5063
:10076000FF0A08E6E80E3A5CFF0E3B58FF0E3C58C5
:10077000FF0E3D5804E2E80E366E376826D0B7C04B
:100780003EF0B8C03FF0406A416A3FAE02D04068D8
:1007900041684134000E411809E6D880180E3E54D5
:1007A000000E3F54000E4054000E415406E2180E55
:1007B000366E376A386A396A0AD0B7C036F0B8C0C0
:1007C00037F0386A396A37AE02D0386839680001C4
:1007D000B951480DF3CFE9FFF4CFEAFF000EE92647
:1007E000040EEA222F0EE926000EEA2236C0EFFFA1
:1007F000B92B33D70401776B77C42FF412000A01A9
:100800008D51040B4FE08D51400B4CE00701F13549
:10081000000EF11907E6D880960EEF55000EF05540
:10082000000EF1553FE2060105510701ED5D366E00
:10083000EE5106010655376E36C0E6FFE66E32EC25
:100840004CF0E552E552F3CFBAF0F4CFBBF0F3CF62
:10085000E6FFF4CFE6FF12C436F013C437F0386A6F
:1008600037BE386836C0E6FF37C0E6FF38C0E6FF5F
:100870005AC439F05BC43AF03B6A3ABE3B6839C0AF
:10088000E6FF3AC0E6FF3BC0E6FF380EE66E040E18
:10089000E66E800EE66E040EE66EFAEC2DF03C6E0F
:1008A0000C0E28D0B2CAE6FF12C436F013C437F0DB
:1008B000386A37BE386836C0E6FF37C0E6FF38C052
:1008C000E6FF5AC439F05BC43AF03B6A3ABE3B6873
:1008D00039C0E6FF3AC0E6FF3BC0E6FF380EE66EE1
:1008E000040EE66E800EE66E040EE66E15EC2FF03A
:1008F0003C6E0B0EE15E3C500A018DBD02D080ECD7
:100900001EF077C438F0396A38BE396804013850AF
:10091000825D366E39508359376E36508027375096
:1009200081232FC438F0396A38BE39683A513824E7
:10093000366E3B513920376E3650382737503923C1
:10094000A251CA25C86FA351CB21C96F1200D9CFBC
:10095000E6FFE1CFD9FF010EE66EFB0EDBCF3AF0EA
:10096000FC0EDBCF3BF0FD0EDBCFE9FFFE0EDBCF55
:10097000EAFF220EE926000EEA223A50EE24366EF5
:100980003B50EE20376E386A396A37AE02D038688D
:10099000396836C0E6FF37C0E6FF38C0E6FF39C029
:1009A000E6FFAAEC4BF03C6E050EE15E3C5058C0F1
:1009B000BCF059C0BDF05AC0BEF05BC0BFF0FD0E28
:1009C000DBCFE9FFFE0EDBCFEAFF220EE926000EA9
:1009D000EA22EECF3AF0EFCF3BF03C6A3D6A3BAE05
:1009E00002D03C683D683A500001BC5D366E3B5019
:1009F000BD59376E3C50BE593D50BF59FD0EDBCF3F
:100A0000E9FFFE0EDBCFEAFF240EE926000EEA2204
:100A100036C0EEFF37C0EDFFFD0EDBCFE9FFFE0E67
:100A2000DBCFEAFF220EE926000EEA22BCC0EEFF71
:100A3000BDC0EDFF010EE66EFD0EDBCFE9FFFE0E41
:100A4000DBCFEAFF260EE926000EEA22EECF3CF0CD
:100A5000EFCF3DF0FD0EDBCFE9FFFE0EDBCFEAFF6F
:100A6000240EE926000EEA223C50EE24386E3D505A
:100A7000EE20396E3A6A3B6A39AE02D03A683B687A
:100A800038C0E6FF39C0E6FF3AC0E6FF3BC0E6FFEC
:100A9000AAEC4BF03E6E050EE15E3E5059C037F0B9
:100AA000FD0EDBCFE9FFFE0EDBCFEAFF240EE926C9
:100AB000000EEA2258C0EEFF37C0EDFFFD0EDBCF7F
:100AC000E9FFFE0EDBCFEAFF240EE926000EEA2244
:100AD000EECF36F0EFCF37F0FD0EDBCFE9FFFE0EA5
:100AE000DBCFEAFF260EE926000EEA2236C0EEFF33
:100AF00037C0EDFFE552E7CFD9FF1200D9CFE6FFAF
:100B0000E1CFD9FFFD0EDBCFE9FFFE0EDBCFEAFF21
:100B1000200EE926000EEA22EECFE6FFEFCFE6FF39
:100B2000FD0EDBCFE6FFFE0EDBCFE6FF10DFE5526A
:100B3000E552E552E552050EE66EFD0EDBCFE9FF0C
:100B4000FE0EDBCFEAFF240EE926000EEA22EECFEE
:100B500046F0EFCF47F0FD0EDBCFE9FFFE0EDBCF17
:100B6000EAFF0C0EE926000EEA22EECF48F0EFCFA6
:100B700049F0000148504602F3CF42F0F4CF43F071
:100B80004702F350432649504602F3504326446A35
:100B9000456A43AE02D044684568FD0EDBCFE9FFED
:100BA000FE0EDBCFEAFF080EE926000EEA22EECFAA
:100BB0003EF0EFCF3FF0406A416A3FAE02D040685E
:100BC0004168FD0EDBCFE9FFFE0EDBCFEAFF200E12
:100BD000E926000EEA22EECF3AF0EFCF3BF03C6A76
:100BE0003D6A3BAE02D03C683D683AC058F03BC01D
:100BF00059F03CC05AF03DC05BF03EC05DF03FC0D4
:100C00005EF040C05FF041C060F086EC75F054507B
:100C100000014224366E55504320376E5650442012
:100C2000386E57504520396E36C0E6FF37C0E6FFB4
:100C300038C0E6FFE66EAAEC4BF04A6E050EE15EA8
:100C40004A5058C0C4F059C0C5F05AC0C6F05BC085
:100C5000C7F0FD0EDBCFE9FFFE0EDBCFEAFF0A0E89
:100C6000E926000EEA22EE50ED1010E10001C86BFB
:100C7000C96BCA6BCB6BFD0EDBCFE9FFFE0EDBCF82
:100C8000EAFF1A0EEB6A1B0EEB6AC9D0090EE66E7C
:100C9000FD0EDBCFE9FFFE0EDBCFEAFF0A0EE926F1
:100CA000000EEA22EECF3EF0EFCF3FF0406A416AFD
:100CB0003FAE02D040684168FD0EDBCFE9FFFE0E7B
:100CC000DBCFEAFF1A0EE926000EEA22EECF3AF059
:100CD000EFCF3BF03C6A3D6A3BAE02D03C683D68DA
:100CE0003AC058F03BC059F03CC05AF03DC05BF0F0
:100CF0003EC05DF03FC05EF040C05FF041C060F0BC
:100D000086EC75F054C036F055C037F056C038F058
:100D100057C039F054C0E6FF55C0E6FF56C0E6FFA5
:100D200057C0E6FFAAEC4BF0426E050EE15E425062
:100D300058C0C0F059C0C1F05AC0C2F05BC0C3F087
:100D4000FD0EDBCFE9FFFE0EDBCFEAFFEECF36F084
:100D5000EFCF37F0366C371E000E3722386A396A0B
:100D600037AE02D0386839680001C3513918E8AE8F
:100D700002D0393408D03650C05D3750C159385090
:100D8000C2593950C35913E2FD0EDBCFE9FFFE0E05
:100D9000DBCFEAFFEECFC8F0EFCFC9F0C86DC91FB7
:100DA000000EC923CA6BCB6BC9AF39D02DD0FD0E55
:100DB000DBCFE9FFFE0EDBCFEAFFEECF3AF0EFCF5D
:100DC0003BF03C6A3D6A3BAE02D03C683D683D501A
:100DD000C319E8AE02D0C33508D0C0513A5CC15146
:100DE0003B58C2513C58C3513D5811E2FD0EDBCF78
:100DF000E9FFFE0EDBCFEAFFEECFC8F0EFCFC9F080
:100E0000CA6BCB6BC9AF0BD0CA69CB6908D0C0C065
:100E1000C8F0C1C0C9F0C2C0CAF0C3C0CBF0C80E90
:100E2000E96E000EEA6EC451EE243A6EC551EE2012
:100E30003B6EC651EE203C6EC751EE203D6EFD0E5E
:100E4000DBCFE9FFFE0EDBCFEAFF380EE926000E0E
:100E5000EA22EECF3EF0EFCF3FF0406A416A3FAE6C
:100E600002D0406841683E503A5C366E3F503B5875
:100E7000376E40503C58386E41503D58396EFD0E2B
:100E8000DBCFE9FFFE0EDBCFEAFF440EE926000EC2
:100E9000EA2236C0EEFF37C0EDFFE552E7CFD9FFBB
:100EA0001200D9CFE6FFE1CFD9FFFD0EDBCFE9FF7E
:100EB000FE0EDBCFEAFF1A0EE926000EEA22EECF85
:100EC00036F0EFCF37F0386A396A37AE02D038687B
:100ED0003968FD0EDBCFE9FFFE0EDBCFEAFF380EEF
:100EE000E926000EEA22EECF58F0EFCF59F05A6A09
:100EF0005B6A59AE02D05A685B68300E5D6E5E6AFE
:100F00005F6A606A86EC75F03650545C0001DC6FF5
:100F100037505558DD6F38505658DE6F3950575896
:100F2000DF6FFD0EDBCFE9FFFE0EDBCFEAFF080E21
:100F3000E926000EEA22EECF36F0EFCF37F0386A1E
:100F4000396A37AE02D038683968DCC058F0DDC085
:100F500059F0DEC05AF0DFC05BF036C05DF037C03C
:100F60005EF038C05FF039C060F086EC75F054C0B8
:100F7000CCF055C0CDF056C0CEF057C0CFF0000138
:100F8000D06BD16BD26BD36B0A0EE66ED00EE96ECE
:100F9000000EEA6E5450EE24366E5550EE20376E39
:100FA0005650EE20386E5750EE20396E36C0E6FFB0
:100FB00037C0E6FF38C0E6FFE66EAAEC4BF03A6EAB
:100FC000050EE15E3A5058C0D8F059C0D9F05AC069
:100FD000DAF05BC0DBF0FD0EDBCFE9FFFE0EDBCF0E
:100FE000EAFF200EE926000EEA22EECF36F0EFCF20
:100FF00037F0386A396A37AE02D038683968D80EA7
:10100000E96E000EEA6E3650EE5C0001E06F37507C
:10101000EE58E16F3850EE58E26F3950EE58E36FFA
:10102000E0C0E6FFE1C0E6FFFD0EDBCFE6FFFE0E0F
:10103000DBCFE6FF8CDCE552E552E552E552050ECA
:10104000E66EFD0EDBCFE9FFFE0EDBCFEAFF240EDE
:10105000E926000EEA22EECF42F0EFCF43F0FD0E7C
:10106000DBCFE9FFFE0EDBCFEAFF0C0EE926000E18
:10107000EA22EECF44F0EFCF45F0000144504202A7
:10108000F3CF3EF0F4CF3FF04302F3503F264550FC
:101090004202F3503F26406A416A3FAE02D04068A8
:1010A0004168FD0EDBCFE9FFFE0EDBCFEAFF080E45
:1010B000E926000EEA22EECF3AF0EFCF3BF03C6A91
:1010C0003D6A3BAE02D03C683D68E0C058F0E1C0EC
:1010D00059F0E2C05AF0E3C05BF03AC05DF03BC0AB
:1010E0005EF03CC05FF03DC060F086EC75F054509F
:1010F00000013E24366E55503F20376E565040203A
:10110000386E57504120396E36C0E6FF37C0E6FFD3
:1011100038C0E6FFE66EAAEC4BF0466E050EE15EC7
:10112000465058C0D4F059C0D5F05AC0D6F05BC074
:10113000D7F0000E0001D46DD51FD523D61FD623BE
:10114000D71FD723FD0EDBCFE9FFFE0EDBCFEAFF73
:10115000440EE926000EEA22D4C0EEFFD5C0EDFF12
:10116000E552E7CFD9FF12000A018EAD1DD0A0C411
:1011700036F0A1C437F0386A396A37AE02D0386821
:1011800039683934000E391809E6D880180E3654FB
:10119000000E3754000E3854000E395409E205C6CB
:1011A00007F606C608F6120005C607F606C608F6D4
:1011B0001200DADF060105510601075D366E08519F
:1011C00006010655376E36C0E6FFE66EBFEC30F01E
:1011D000E552E552F3CF88F0F4CF89F00001D880D2
:1011E000F45004E7E40E885DFF0E895904E2E40E32
:1011F000886F89690DD0893509E288511C08000E75
:10120000895504E21C0E886F896B02D089C089F071
:10121000060EE66E94C43DF095C43EF03F6A3EBEB5
:101220003F6888C03AF089C03BF03C6A3BBE3C68EE
:101230003AC059F03BC05AF03CC05BF03DC05EF094
:101240003EC05FF03FC060F03FEC6FF056C036F03C
:1012500057C037F058C038F0396A38BE396836C0E0
:10126000E6FF37C0E6FF38C0E6FF39C0E6FFAAEC6C
:101270004BF0406E050EE15E405058C0E4F059C09E
:10128000E5F05AC0E6F0B0C436F0B1C437F0386AC1
:1012900037BE386836500001E45F3750E55B3850A0
:1012A000E65B050EE66E98C43AF099C43BF03C6AE2
:1012B0003BBE3C68E4C059F0E5C05AF0E6C05BF0C4
:1012C0003AC05EF03BC05FF03CC060F03FEC6FF0B6
:1012D00056C036F057C037F058C038F0396A38BEBB
:1012E000396836C0E6FF37C0E6FF38C0E6FF39C0D0
:1012F000E6FFAAEC4BF03D6E050EE15E3D5058C096
:10130000E4F059C0E5F05AC0E6F092C436F093C458
:1013100037F0366C371E000E3722386A37BE386811
:101320000001E6513818E8AE02D0383406D0365005
:10133000E45D3750E5593850E6590CE292C4E4F0C8
:1013400093C4E5F0E46DE51F000EE523E66BE5AF21
:1013500020D01BD092C439F093C43AF03B6A3ABE15
:101360003B683B50E619E8AE02D0E63506D0E451C2
:10137000395CE5513A58E6513B5809E292C4E4F031
:1013800093C4E5F0E66BE5AF04D0E66902D0E6C0B1
:10139000E6F00401800EC91509E0C8C436F0C9C4DE
:1013A00037F0366C371E000E372204D0C8C436F032
:1013B000C9C437F0386A396A37AE02D0386839683C
:1013C0003934000E391809E6D880020E3654000E62
:1013D0003754000E3854000E395402E374500EE0B6
:1013E000C8C436F0C9C437F0386A37BE38683650DA
:1013F0000001E45F3750E55B3850E65BE4C0D4F4AD
:10140000E5C0D5F4120004011E6B1F6B666B676BA1
:1014100012009AEC6AF022EC03F03DEC48F04CEC40
:1014200030F0FFEC03F00001E76BE75101082AE31D
:101430000A018FA111D00001E751480DF3CF36F01A
:10144000F4CF37F0000E3626040E372236C0E6FF02
:1014500037C0E6FF26DD11D00001E751480DF3CF7C
:1014600036F0F4CF37F0000E3626040E372236C0A1
:10147000E6FF37C0E6FF7EEC05F0E552E5520001DD
:10148000E72BD3D796DE44C466F045C467F08CC41E
:1014900068F08DC469F0D4C46AF0D5C46BF004015F
:1014A000800E1B1509E01AC43AF01BC43BF03A6CDD
:1014B0003B1E000E3B2204D01AC43AF01BC43BF082
:1014C000800E631509E062C43CF063C43DF03C6CDF
:1014D0003D1E000E3D2204D062C43CF063C43DF0CA
:1014E0003B503D18E8AE02D03D3404D03C503A5C4D
:1014F0003D503B580DE2800E631505E062C436F0A6
:1015000063C437F00CD062C436F063C437F010D037
:10151000800E1B1509E01AC436F01BC437F0366C78
:10152000371E000E372204D01AC436F01BC437F021
:10153000386A396A37AE02D038683968D89039507D
:10154000000A08E6E80E365C030E3758000E3858DD
:10155000000E395802E3000E01D0010E0A018A99EB
:10156000E8B08A89EAEF52F004012F6B2FC477F4B8
:101570002FC498F00001996B98BF996998C096F0B4
:1015800099C097F0F40E9E6F9F69E86BE8510208CE
:101590003EE3E851480DF3CFE9F0F4CFEAF0000E56
:1015A000E927040EEA23E9C0E9FFEAC0EAFF220EB8
:1015B000E926000EEA22EE6AED6AE9C0E9FFEAC018
:1015C000EAFF460EE926000EEA22EE6AED6AE9C05D
:1015D000E9FFEAC0EAFF1A0EE926000EEA22EE6AE7
:1015E000ED6AE9C0E9FFEAC0EAFF240EE926000E31
:1015F000EA22EE6AED6AE9C0E9FFEAC0EAFF260ED8
:10160000E926000EEA22EE6AED6AE82BBFD703EF67
:021610000AF0DE
:0E1612003D0EE66ECA0EE66E5BEC58F0E55239
:10162000E55212000A0191A704D02C0EE66ECA0EF4
:1016300003D0180EE66ECA0EE66E5BEC58F0E5526B
:10164000E55212006BCAE6FF6CCAE6FF5BEC58F08D
:10165000E552E552120044EC59F0280EE66EE70E12
:10166000E66E5BEC58F0E552E552C90EE66EC90E27
:10167000E66E5BEC58F0E552E552BC0EE66EC90E24
:10168000E66E5BEC58F0E552E552DCDFA90EE66E43
:10169000C90EE66E5BEC58F0E552E552200EE66EA0
:1016A000E66A80C036F0376A386A396A80C0E6FF79
:1016B00037C0E6FF38C0E6FF39C0E6FF1EEC5AF03F
:1016C0003A6E060EE15E3A5044EC59F0A00EE66E1A
:1016D000C90EE66E5BEC58F0E552E55258EC5FF04F
:1016E000960EE66EC90EE66E5BEC58F0E552E552DA
:1016F0005AC9E6FF78EC5CF0E5528D0EE66EC90E35
:10170000E66E5BEC58F0E552E55229EC48F0810EAC
:10171000E66EC90EE66E5BEC58F0E552E55230EC31
:1017200030F00A018E51400B20E006010B511DE004
:10173000780EE66EC90EE66E5BEC58F0E552E552A7
:10174000E66AE66A0E0EE66EE66AE66AE66A1EEC8F
:101750005AF0366E060EE15E3650730EE66EC90E16
:10176000E66E5BEC58F0E552E5526A0EE66EC90E85
:10177000E66E5BEC58F0E552E5521CEC50F00601C9
:10178000E05131E0670EE66EC90EE66E5BEC58F094
:10179000E552E55208018D6B040E8D5D1CE28D5102
:1017A000E96EEA6AD890E936EA36930EE926060E23
:1017B000EA22EE50ED1004E0610EE66EC90E03D091
:1017C0005D0EE66EC90EE66E5BEC58F0E552E55232
:1017D00008018D2BE1D75A0EE66EC90EE66E5BEC62
:1017E00058F0E552E552500EE66EC90EE66E5BEC1F
:1017F00058F0E552E55216DF470EE66EC90EE66E6A
:101800005BEC58F0E552E5520601C051010A02E0D6
:10181000010A06E1310EC025E66E7BEC58F007D0D8
:101820003F0EE66EC90EE66E5BEC58F0E552E552EF
:10183000310EE66EC90EE66E5BEC58F0E552E552ED
:10184000300E0A01B025E66E7BEC58F0E5521C0E16
:10185000E66EC90EE66E5BEC58F0E552E5520A0101
:101860008CA904D0120EE66EC90E03D0070EE66EE8
:10187000C90EE66E5BEC58F0E552E5520A018AA308
:1018800004D0F90EE66EC80E03D0E90EE66EC80E5F
:10189000E66E5BEC58F0E552E5520A018DB108D0D6
:1018A000CE0EE66EC80EE66E5BEC58F0E552E552E1
:1018B000BA0EE66EC80EE66E5BEC58F0E552E552E5
:1018C000010E1614010823E00A019151080B1FE1D3
:1018D000850EE66EC80EE66E5BEC58F0E552E552FA
:1018E000E66AE66A1650366E376A386A396A16C092
:1018F000E6FF37C0E6FF38C0E6FF39C0E6FF1EEC62
:101900005AF03A6E060EE15E3A5044EC59F00A0184
:101910008FBF08D0660EE66EC80EE66E5BEC58F020
:10192000E552E5520A018EB508D0460EE66EC80EA5
:10193000E66E5BEC58F0E552E5520A0191AD08D035
:10194000290EE66EC80EE66E5BEC58F0E552E552E5
:101950000A018CBB08D01B0EE66EC80EE66E5BEC6F
:1019600058F0E552E5520A018CBD08D0040EE66E2F
:10197000C80EE66E5BEC58F0E552E552090E09011F
:101980005A5D04E00A018A51040B08E0F70EE66E86
:10199000C70EE66E5BEC58F0E552E552040E0A0104
:1019A000485D04E00A018E51200B08E1E90EE66E65
:1019B000C70EE66E5BEC58F0E552E5520A018EBDAB
:1019C00008D0D60EE66EC70EE66E5BEC58F0E55218
:1019D000E5520A018EB108D0B60EE66EC70EE66E6D
:1019E0005BEC58F0E552E5528050100B0BE008011B
:1019F000D35108E09B0EE66EC70EE66E5BEC58F026
:101A0000E552E5520A018C51010B03E18B51800B29
:101A100008E07B0EE66EC70EE66E5BEC58F0E55212
:101A2000E55240CF36F041CF37F0386A396A37AEE9
:101A300002D038683968D8903950000A08E6180E84
:101A4000365C000E3758000E3858000E395808E33F
:101A5000680EE66EC70EE66E5BEC58F0E552E55296
:101A600009EF0BF080B832EF15F08FEC59F0080158
:101A70008E6FE85002E132EF15F08EC8E6FF23ECDE
:101A800076F0E552F3CF36F0F4CF37F0F350F410A0
:101A900007E08EC8E6FF35EC76F0E552F3CF8EF81E
:101AA00008018E513F0A02E128EF15F0690A02E1B0
:101AB00025EF15F0110A02E122EF15F01F0A02E1ED
:101AC0001FEF15F00B0A02E11DEF15F0010A01E10D
:101AD00052D1050A01E14DD10D0A01E138D1170AB1
:101AE00001E17CD0010A33E0080A06E0060A01E0C1
:101AF0001200F29E80EC7EF04B0EE66EC70EE66E94
:101B00005BEC58F0E552E552250EE66EC70EE66E28
:101B10005BEC58F0E552E5528FEC59F008018E6FFE
:101B2000780E8E5D03E07A0E8E5DF6E1780E8E5DA6
:101B300004E1E2EC3EF030EF15F0190EE66EC70E50
:101B4000E66E5BEC58F0E552E55230EF15F0FE0E14
:101B5000E66EC60EE66E5BEC58F0E552E552300ECE
:101B60000A01B025E66E7BEC58F0E552F2EC3BF052
:101B700008018F6B400E8F5D02E330EF15F0F20E1F
:101B8000E66EC60EE66E5BEC58F0E552E5520801D3
:101B90008F29E66EE66AA7EC58F0E552E552EE0EA4
:101BA000E66EC60EE66E5BEC58F0E552E5520801B3
:101BB0008F51EA6ABD0FE96E060EEA22EFCF36F0CA
:101BC000376A36BE376836C0E6FF37C0E6FF10EC2E
:101BD00059F0E552E55208018F2BCCD7020EE66E84
:101BE00053EC74F0E552F20EE66EC60EE66E5BEC58
:101BF00058F0E552E552B5EC59F0FF0F08018F6F30
:101C0000EE0EE66EC60EE66E5BEC58F0E552E5525F
:101C1000D0EC59F0F3CF91F8F4CF92F80801D880C6
:101C2000F45004E7800E915DFF0E925904E2800E9D
:101C3000366E37680FD0923509E291517F08000E59
:101C4000925504E27F0E366E376A04D091C836F0A2
:101C500092C837F036C090F82B0E8F5D09E18F5196
:101C6000EA6A4D0FE96E080EEA22070EEF6E08D001
:101C70008F51EA6A4D0FE96E080EEA2290C8EFFF15
:101C80003F0E8F5D5EE10601BD515BE00801070E6E
:101C9000786F030E596F8F6B400E8F5D4DE20A0116
:101CA000B00524E108018F51EA6A4D0FE96E080E74
:101CB000EA22EF50E66E8F51E66EE66ADDEC70F0D8
:101CC000E552E552E55208018F51F66EF76AD89059
:101CD000F636F7368B0EF626EA0EF722010EF626BA
:101CE000000EF7220800F55024E012D008018F51B1
:101CF000F66EF76AD890F636F7368B0EF626EA0EB1
:101D0000F722010EF626000EF7220800F55011E129
:101D10008F51EA6A4D0FE96E080EEA22EF50E66E27
:101D2000400E8F25E66EE66ADDEC70F0E552E55276
:101D3000E55208018F2BB0D70A018E850A01010EEA
:101D4000B16F020EE66E5FEC74F02FEF15F0B5EC9C
:101D500059F008018F6F0A01B05108018F5D02E14F
:101D600032EF15F08FC8B0FA0A01010EB16FF2EF31
:101D70003BF028EF25F0E90EE66EC60EE66E5BEC52
:101D800058F0E552E55212CF58F013CF59F05A6A85
:101D90005B6A59AE02D05A685B68F40E5D6E010E44
:101DA0005E6E5F6A606A86EC75F054C058F055C08C
:101DB00059F056C05AF057C05BF0F00E5D6E5E6A87
:101DC0005F6A606AC0EC6EF0D8805B50FF0A08E67C
:101DD000190E585CFC0E5958FF0E5A58FF0E5B58EE
:101DE00007E2190E366EFC0E376E386839686FD010
:101DF00012CF58F013CF59F05A6A5B6A59AE02D02D
:101E00005A685B68F40E5D6E010E5E6E5F6A606A12
:101E100086EC75F054C058F055C059F056C05AF0D1
:101E200057C05BF0F00E5D6E5E6A5F6A606AC0EC80
:101E30006EF05B34000E5B1809E6D880E70E58544C
:101E4000030E5954000E5A54000E5B5407E2E70E7D
:101E5000366E030E376E386A396A39D012CF36F0D3
:101E600013CF37F0386A396A37AE02D0386839682C
:101E7000F40E5D6E010E5E6E5F6A606A36C058F0E9
:101E800037C059F038C05AF039C05BF086EC75F0B5
:101E900054C036F055C037F056C038F057C039F04E
:101EA000F00E5D6E5E6A5F6A606A54C058F055C09D
:101EB00059F056C05AF057C05BF0C0EC6EF058C0F5
:101EC00036F059C037F05AC038F05BC039F036C030
:101ED000E6FF37C0E6FF10EC59F0E552E552E50E9B
:101EE000E66EC60EE66E5BEC58F0E552E55214CF96
:101EF00058F015CF59F05A6A5B6A59AE02D05A6849
:101F00005B68F40E5D6E010E5E6E5F6A606A86EC61
:101F100075F054C058F055C059F056C05AF057C02B
:101F20005BF0F00E5D6E5E6A5F6A606AC0EC6EF038
:101F3000D8805B50FF0A08E6190E585CFC0E595811
:101F4000FF0E5A58FF0E5B5807E2190E366EFC0E54
:101F5000376E386839686FD014CF58F015CF59F004
:101F60005A6A5B6A59AE02D05A685B68F40E5D6EBD
:101F7000010E5E6E5F6A606A86EC75F054C058F0C0
:101F800055C059F056C05AF057C05BF0F00E5D6E68
:101F90005E6A5F6A606AC0EC6EF05B34000E5B18CC
:101FA00009E6D880E70E5854030E5954000E5A54CF
:101FB000000E5B5407E2E70E366E030E376E386A8A
:101FC000396A39D014CF36F015CF37F0386A396A0C
:101FD00037AE02D038683968F40E5D6E010E5E6E61
:101FE0005F6A606A36C058F037C059F038C05AF09E
:101FF00039C05BF086EC75F054C036F055C037F050
:1020000056C038F057C039F0F00E5D6E5E6A5F6AF8
:10201000606A54C058F055C059F056C05AF057C0C5
:102020005BF0C0EC6EF058C036F059C037F05AC0C3
:1020300038F05BC039F036C0E6FF37C0E6FF10EC81
:1020400059F0E552E552E10EE66EC60EE66E5BEC27
:1020500058F0E552E55216CF58F017CF59F05A6AAA
:102060005B6A59AE02D05A685B68F40E5D6E010E71
:102070005E6E5F6A606A86EC75F054C058F055C0B9
:1020800059F056C05AF057C05BF0F00E5D6E5E6AB4
:102090005F6A606AC0EC6EF0D8805B50FF0A08E6A9
:1020A000190E585CFC0E5958FF0E5A58FF0E5B581B
:1020B00007E2190E366EFC0E376E386839686FD03D
:1020C00016CF58F017CF59F05A6A5B6A59AE02D052
:1020D0005A685B68F40E5D6E010E5E6E5F6A606A40
:1020E00086EC75F054C058F055C059F056C05AF0FF
:1020F00057C05BF0F00E5D6E5E6A5F6A606AC0ECAE
:102100006EF05B34000E5B1809E6D880E70E585479
:10211000030E5954000E5A54000E5B5407E2E70EAA
:10212000366E030E376E386A396A39D016CF36F0FC
:1021300017CF37F0386A396A37AE02D03868396855
:10214000F40E5D6E010E5E6E5F6A606A36C058F016
:1021500037C059F038C05AF039C05BF086EC75F0E2
:1021600054C036F055C037F056C038F057C039F07B
:10217000F00E5D6E5E6A5F6A606A54C058F055C0CA
:1021800059F056C05AF057C05BF0C0EC6EF058C022
:1021900036F059C037F05AC038F05BC039F036C05D
:1021A000E6FF37C0E6FF10EC59F0E552E552DD0ED0
:1021B000E66EC60EE66E5BEC58F0E552E55218CFBF
:1021C00058F019CF59F05A6A5B6A59AE02D05A6872
:1021D0005B68F40E5D6E010E5E6E5F6A606A86EC8F
:1021E00075F054C058F055C059F056C05AF057C059
:1021F0005BF0F00E5D6E5E6A5F6A606AC0EC6EF066
:10220000D8805B50FF0A08E6190E585CFC0E59583E
:10221000FF0E5A58FF0E5B5807E2190E366EFC0E81
:10222000376E386839686FD018CF58F019CF59F029
:102230005A6A5B6A59AE02D05A685B68F40E5D6EEA
:10224000010E5E6E5F6A606A86EC75F054C058F0ED
:1022500055C059F056C05AF057C05BF0F00E5D6E95
:102260005E6A5F6A606AC0EC6EF05B34000E5B18F9
:1022700009E6D880E70E5854030E5954000E5A54FC
:10228000000E5B5407E2E70E366E030E376E386AB7
:10229000396A39D018CF36F019CF37F0386A396A31
:1022A00037AE02D038683968F40E5D6E010E5E6E8E
:1022B0005F6A606A36C058F037C059F038C05AF0CB
:1022C00039C05BF086EC75F054C036F055C037F07D
:1022D00056C038F057C039F0F00E5D6E5E6A5F6A26
:1022E000606A54C058F055C059F056C05AF057C0F3
:1022F0005BF0C0EC6EF058C036F059C037F05AC0F1
:1023000038F05BC039F036C0E6FF37C0E6FF10ECAE
:1023100059F0E552E552D90EE66EC60EE66E5BEC5C
:1023200058F0E552E5521ACF58F01BCF59F05A6ACF
:102330005B6A59AE02D05A685B68F40E5D6E010E9E
:102340005E6E5F6A606A86EC75F054C058F055C0E6
:1023500059F056C05AF057C05BF0F00E5D6E5E6AE1
:102360005F6A606AC0EC6EF0D8805B50FF0A08E6D6
:10237000190E585CFC0E5958FF0E5A58FF0E5B5848
:1023800007E2190E366EFC0E376E386839686FD06A
:102390001ACF58F01BCF59F05A6A5B6A59AE02D077
:1023A0005A685B68F40E5D6E010E5E6E5F6A606A6D
:1023B00086EC75F054C058F055C059F056C05AF02C
:1023C00057C05BF0F00E5D6E5E6A5F6A606AC0ECDB
:1023D0006EF05B34000E5B1809E6D880E70E5854A7
:1023E000030E5954000E5A54000E5B5407E2E70ED8
:1023F000366E030E376E386A396A39D01ACF36F026
:102400001BCF37F0386A396A37AE02D0386839687E
:10241000F40E5D6E010E5E6E5F6A606A36C058F043
:1024200037C059F038C05AF039C05BF086EC75F00F
:1024300054C036F055C037F056C038F057C039F0A8
:10244000F00E5D6E5E6A5F6A606A54C058F055C0F7
:1024500059F056C05AF057C05BF0C0EC6EF058C04F
:1024600036F059C037F05AC038F05BC039F036C08A
:10247000E6FF37C0E6FF10EC59F0E552E552D50E05
:10248000E66EC60EE66E5BEC58F0E552E5521CCFE8
:1024900058F01DCF59F05A6A5B6A59AE02D05A689B
:1024A0005B68F40E5D6E010E5E6E5F6A606A86ECBC
:1024B00075F054C058F055C059F056C05AF057C086
:1024C0005BF0F00E5D6E5E6A5F6A606AC0EC6EF093
:1024D000D8805B50FF0A08E6190E585CFC0E59586C
:1024E000FF0E5A58FF0E5B5807E2190E366EFC0EAF
:1024F000376E386839686FD01CCF58F01DCF59F04F
:102500005A6A5B6A59AE02D05A685B68F40E5D6E17
:10251000010E5E6E5F6A606A86EC75F054C058F01A
:1025200055C059F056C05AF057C05BF0F00E5D6EC2
:102530005E6A5F6A606AC0EC6EF05B34000E5B1826
:1025400009E6D880E70E5854030E5954000E5A5429
:10255000000E5B5407E2E70E366E030E376E386AE4
:10256000396A39D01CCF36F01DCF37F0386A396A56
:1025700037AE02D038683968F40E5D6E010E5E6EBB
:102580005F6A606A36C058F037C059F038C05AF0F8
:1025900039C05BF086EC75F054C036F055C037F0AA
:1025A00056C038F057C039F0F00E5D6E5E6A5F6A53
:1025B000606A54C058F055C059F056C05AF057C020
:1025C0005BF0C0EC6EF058C036F059C037F05AC01E
:1025D00038F05BC039F036C0E6FF37C0E6FF10ECDC
:1025E00059F0E552E552D10EE66EC60EE66E5BEC92
:1025F00058F0E552E5521ECF58F01FCF59F05A6AF5
:102600005B6A59AE02D05A685B68F40E5D6E010ECB
:102610005E6E5F6A606A86EC75F054C058F055C013
:1026200059F056C05AF057C05BF0F00E5D6E5E6A0E
:102630005F6A606AC0EC6EF0D8805B50FF0A08E603
:10264000190E585CFC0E5958FF0E5A58FF0E5B5875
:1026500007E2190E366EFC0E376E386839686FD097
:102660001ECF58F01FCF59F05A6A5B6A59AE02D09C
:102670005A685B68F40E5D6E010E5E6E5F6A606A9A
:1026800086EC75F054C058F055C059F056C05AF059
:1026900057C05BF0F00E5D6E5E6A5F6A606AC0EC08
:1026A0006EF05B34000E5B1809E6D880E70E5854D4
:1026B000030E5954000E5A54000E5B5407E2E70E05
:1026C000366E030E376E386A396A39D01ECF36F04F
:1026D0001FCF37F0386A396A37AE02D038683968A8
:1026E000F40E5D6E010E5E6E5F6A606A36C058F071
:1026F00037C059F038C05AF039C05BF086EC75F03D
:1027000054C036F055C037F056C038F057C039F0D5
:10271000F00E5D6E5E6A5F6A606A54C058F055C024
:1027200059F056C05AF057C05BF0C0EC6EF058C07C
:1027300036F059C037F05AC038F05BC039F036C0B7
:10274000E6FF37C0E6FF10EC59F0E552E552CD0E3A
:10275000E66EC60EE66E5BEC58F0E552E55220CF11
:1027600058F021CF59F05A6A5B6A59AE02D05A68C4
:102770005B68F40E5D6E010E5E6E5F6A606A86ECE9
:1027800075F054C058F055C059F056C05AF057C0B3
:102790005BF0F00E5D6E5E6A5F6A606AC0EC6EF0C0
:1027A000D8805B50FF0A08E6190E585CFC0E595899
:1027B000FF0E5A58FF0E5B5807E2190E366EFC0EDC
:1027C000376E386839686FD020CF58F021CF59F074
:1027D0005A6A5B6A59AE02D05A685B68F40E5D6E45
:1027E000010E5E6E5F6A606A86EC75F054C058F048
:1027F00055C059F056C05AF057C05BF0F00E5D6EF0
:102800005E6A5F6A606AC0EC6EF05B34000E5B1853
:1028100009E6D880E70E5854030E5954000E5A5456
:10282000000E5B5407E2E70E366E030E376E386A11
:10283000396A39D020CF36F021CF37F0386A396A7B
:1028400037AE02D038683968F40E5D6E010E5E6EE8
:102850005F6A606A36C058F037C059F038C05AF025
:1028600039C05BF086EC75F054C036F055C037F0D7
:1028700056C038F057C039F0F00E5D6E5E6A5F6A80
:10288000606A54C058F055C059F056C05AF057C04D
:102890005BF0C0EC6EF058C036F059C037F05AC04B
:1028A00038F05BC039F036C0E6FF37C0E6FF10EC09
:1028B00059F0E552E552C90EE66EC60EE66E5BECC7
:1028C00058F0E552E55222CF58F023CF59F05A6A1A
:1028D0005B6A59AE02D05A685B68F40E5D6E010EF9
:1028E0005E6E5F6A606A86EC75F054C058F055C041
:1028F00059F056C05AF057C05BF0F00E5D6E5E6A3C
:102900005F6A606AC0EC6EF0D8805B50FF0A08E630
:10291000190E585CFC0E5958FF0E5A58FF0E5B58A2
:1029200007E2190E366EFC0E376E386839686FD0C4
:1029300022CF58F023CF59F05A6A5B6A59AE02D0C1
:102940005A685B68F40E5D6E010E5E6E5F6A606AC7
:1029500086EC75F054C058F055C059F056C05AF086
:1029600057C05BF0F00E5D6E5E6A5F6A606AC0EC35
:102970006EF05B34000E5B1809E6D880E70E585401
:10298000030E5954000E5A54000E5B5407E2E70E32
:10299000366E030E376E386A396A39D022CF36F078
:1029A00023CF37F0386A396A37AE02D038683968D1
:1029B000F40E5D6E010E5E6E5F6A606A36C058F09E
:1029C00037C059F038C05AF039C05BF086EC75F06A
:1029D00054C036F055C037F056C038F057C039F003
:1029E000F00E5D6E5E6A5F6A606A54C058F055C052
:1029F00059F056C05AF057C05BF0C0EC6EF058C0AA
:102A000036F059C037F05AC038F05BC039F036C0E4
:102A1000E6FF37C0E6FF10EC59F0E552E552C50E6F
:102A2000E66EC60EE66E5BEC58F0E552E552000E1F
:102A3000E66EE66A10EC59F011D02BEF0BF068EC63
:102A400042F00ED09AEC28F00BD0DEEC72F008D0F9
:102A5000C20EE66EE70EE66E5BEC58F0E552E5520C
:062A600009EF0BF012006B
:0A2A6600D9CFE6FFE1CFD9FFFB0E48
:102A7000DBCF58F0FC0EDBCF59F0FD0EDBCF5AF068
:102A8000FE0EDBCF5BF03F0E5D6E070E5E6E5F6A83
:102A9000606A86EC75F054C058F055C059F056C0C5
:102AA0005AF057C05BF0100E5D6E270E5E6E5F6AC7
:102AB000606AC0EC6EF0E552E7CFD9FF1200D9CFC3
:102AC000E6FFE1CFD9FFFB0EDBCF58F0FC0EDBCFEA
:102AD00059F0FD0EDBCF5AF0FE0EDBCF5BF03F0E60
:102AE0005D6E070E5E6E5F6A606A86EC75F054C0BC
:102AF00058F055C059F056C05AF057C05BF0A00EC0
:102B00005D6E860E5E6E010E5F6E606AC0EC6EF0EA
:102B1000E552E7CFD9FF1200D9CFE6FFE1CFD9FFC9
:102B2000FB0EDBCF58F0FC0EDBCF59F0FD0EDBCFF8
:102B30005AF0FE0EDBCF5BF0A00E5D6E860E5E6E71
:102B4000010E5F6E606A86EC75F054C058F055C097
:102B500059F056C05AF057C05BF03F0E5D6E070E3D
:102B60005E6E5F6A606AC0EC6EF0E552E7CFD9FF37
:102B70001200D9CFE6FFE1CFD9FF0901836B846B47
:102B8000856B0A01EA5136E1FE0EDBCF82F9FD0EBC
:102B9000DB500901D88082552DE383C936F084C902
:102BA00037F085C938F00A0E5E6E5F6A606A83C9C5
:102BB00059F084C95AF085C95BF03FEC6FF0090108
:102BC0008251EA6A570FE96E070EEA22EFCF39F019
:102BD0003A6A3B6A56503924836F57503A20846FC3
:102BE00058503B20856F300E835F000E845B855B01
:102BF000822BCDD783C959F084C95AF085C95BF0BF
:102C0000E552E7CFD9FF1200D9CFE6FFE1CFD9FFD8
:102C10000901926B936B946B956B0A01EA5101E089
:102C2000CBD0FE0EDB50040F0901966F9651EA6A75
:102C3000570FE96E070EEA22EF502E0802E0962B9E
:102C4000F5D7030E965DE66EFE0EDBCFE6FF91DF55
:102C5000E552E55259C086F95AC087F95BC088F938
:102C60000901896B88BF89699605E66E020E965D3B
:102C7000E66E7FDFE552E55259C08AF95AC08BF9FA
:102C80005BC08CF909018D6B8CBF8D69FD0EDB502B
:102C9000D8809655040814E2050E9625E66E96290E
:102CA000E66E67DFE552E55259C08EF95AC08FF9DA
:102CB0005BC090F90901916B90AF2BD0916929D03D
:102CC000040E9625E66E9629E66E53DFE552E55230
:102CD00059C08EF95AC08FF95BC090F90901916B08
:102CE00090BF91690A0E5D6E5E6A5F6A606A8EC906
:102CF00058F08FC959F090C95AF091C95BF086EC31
:102D000075F054C08EF955C08FF956C090F957C070
:102D100091F986C936F087C937F088C938F089C972
:102D200039F0800E5D6E8D0E5E6E5B0E5F6E606ABA
:102D300086C958F087C959F088C95AF089C95BF02B
:102D400086EC75F054C036F055C037F056C038F0F8
:102D500057C039F08AC93AF08BC93BF08CC93CF0B6
:102D60008DC93DF0A00E5D6E860E5E6E010E5F6E2B
:102D7000606A8AC958F08BC959F08CC95AF08DC95C
:102D80005BF086EC75F0545036265550372256507D
:102D90003822575039228E0EE96E090EEA6E3650EF
:102DA000EE240901926F3750EE20936F3850EE20D9
:102DB000946F3950EE20956F92C958F093C959F02D
:102DC00094C95AF095C95BF0E552E7CFD9FF1200DC
:102DD000D9CFE6FFE1CFD9FF0901976B986B996BCB
:102DE0009A6B0A01EA5101E09AD0FE0EDB28E66EEA
:102DF000FE0EDBCFE6FFBDDEE552E55259C036F0F0
:102E00005AC037F05BC038F0396A38BE3968100EE6
:102E10005D6E0E0E5E6E5F6A606A36C058F037C037
:102E200059F038C05AF039C05BF086EC75F054C0E8
:102E300036F055C037F056C038F057C039F054C09E
:102E4000E6FF55C0E6FF56C0E6FF57C0E6FFFE0EA0
:102E5000DB50030FE66EFE0EDB50020FE66E89DEDE
:102E6000E552E552E552E7CF39F0E552E7CF38F0C9
:102E7000E552E7CF37F0E552E7CF36F059C03AF0E8
:102E80005AC03BF05BC03CF03C0E5E6E5F6A606A0D
:102E90003FEC6FF056C03AF057C03BF058C03CF0E2
:102EA0003D6A3CBE3D683A5036263B5037223C5086
:102EB00038223D50392236C0E6FF37C0E6FF38C021
:102EC000E6FF39C0E6FFFD0EDBCFE6FFFE0EDB506E
:102ED000040FE66E4EDEE552E552E552E7CF39F0DB
:102EE000E552E7CF38F0E552E7CF37F0E552E7CFCC
:102EF00036F059C03EF05AC03FF05BC040F0416A26
:102F000040BE416836503E240901976F37503F203C
:102F1000986F38504020996F395041209A6F97C967
:102F200058F098C959F099C95AF09AC95BF0E5521E
:102F3000E7CFD9FF1200E7CAE8FA0A01E751EA6AC7
:102F4000570FE96E070EEA22EFCF9BF92C0E09010D
:102F50009B5D09E02A0E9B5D06E00A01E651E75DF4
:102F600002E2E72BEBD70A01E705E96FE72BE8510F
:102F7000E95D02E3000E01D0010EEA6F12000A01C2
:102F8000E76BA7C7E6FAD7DFD6DFE9CAE6FFE8CAEC
:102F9000E6FF1EDFE552E55258C0D8F459C0D9F417
:102FA0005AC0DAF45BC0DBF4C6DFE9CAE6FFE8CA60
:102FB000E6FF2ADEE552E55258C0E6F459C0E7F4D0
:102FC0005AC0E8F45BC0E9F4B6DF0A01E851EA6AE6
:102FD000570FE96E070EEA22EF50530809E1000E81
:102FE0000401E66DE71FE723E81FE823E91FE92353
:102FF000A2DFE9CAE6FFE8CAE6FF06DEE552E552CF
:1030000058C0EAF459C0EBF45AC0ECF45BC0EDF4DC
:1030100092DF0A01E851EA6A570FE96E070EEA22C9
:10302000EF50570809E1000E0401EA6DEB1FEB2396
:10303000EC1FEC23ED1FED237EDFE9CAE6FFE8CAB3
:10304000E6FF97DDE552E55259C0FDF474DFE9CAA9
:10305000E6FFE8CAE6FF8DDDE552E55259C0FCF413
:103060006ADF030E0A01E95DE66EE8CAE6FF81DD6C
:10307000E552E55259C039F05AC03AF05BC03BF016
:103080000A0E5E6E5F6A606A3FEC6FF056C039F000
:1030900057C03AF058C03BF056C0E6FF57C0E6FFB5
:1030A00058C0E6FF0A01E905E66EE905E66E61DD56
:1030B000E552E552E552E7CF3BF0E552E7CF3AF073
:1030C000E552E7CF39F039505924366E3A505A203C
:1030D000376E3B505B20386E36C0FEF437C0FFF4CD
:1030E0002ADF020E0A01E95DE66EE8CAE6FF41DD6D
:1030F000E552E55259C036F05AC037F05BC038F09F
:10310000396A38BE39680A0E5D6E5E6A5F6A606A47
:1031100036C058F037C059F038C05AF039C05BF0AB
:1031200086EC75F054C036F055C037F056C038F014
:1031300057C039F054C0E6FF55C0E6FF56C0E6FF61
:1031400057C0E6FFE9CAE6FFE9CAE6FF12DDE5522D
:10315000E552E552E7CF39F0E552E7CF38F0E552D6
:10316000E7CF37F0E552E7CF36F059C03AF05AC012
:103170003BF05BC03CF00A0E5E6E5F6A606A3FEC3B
:103180006FF056C03AF057C03BF058C03CF03D6A73
:103190003CBE3D683A5036263B5037223C503822E0
:1031A0003D50392236C0E0F437C0E1F438C0E2F4D3
:1031B000010E0401FD5D03E3060EFC5D02E2000E5C
:1031C00001D0010E0A018A9DE8B08A8D040E735C5D
:1031D00063E10501DD510401FF19E8AE02D0FF35BE
:1031E00007D0FE510501DC5D0401FF510501DD59E9
:1031F00005E2FEC4DCF5FFC4DDF514D00401FF5187
:103200000501DB19E8AE02D0DB3507D0DA51040145
:10321000FE5D0501DB510401FF5904E2FEC4DAF54D
:10322000FFC4DBF50401FC51366E376A0501D75146
:103230003718E8AE02D0373404D03650D65D375058
:10324000D75906E20401FC510501D66FD76B15D0A2
:103250000401FC51366E376A05013750C719E8AED4
:1032600002D0C73504D0C651365CC751375805E285
:103270000401FC510501C66FC76B0401FF3504E270
:10328000FE510F08000EFF5502E3000E01D0010EA3
:103290000A018B97E8B08B8712000A01E76BA7C77A
:1032A000E6FA49DE48DE47DE0A01E851EA6A570FCE
:1032B000E96E070EEA22EF50410801E03FD10A0112
:1032C0008A8D39DEE9CAE6FFE8CAE6FF9DDCE552F1
:1032D000E55258C0E6F459C0E7F45AC0E8F45BC0C0
:1032E000E9F429DE0A01E851EA6A570FE96E070E90
:1032F000EA22EF50530809E1000E0401E66DE71FD2
:10330000E723E81FE823E91FE92315DEE9CAE6FF02
:10331000E8CAE6FF79DCE552E55258C0EAF459C044
:10332000EBF45AC0ECF45BC0EDF405DE0A01E851A1
:10333000EA6A570FE96E070EEA22EF50570809E1D3
:10334000000E0401EA6DEB1FEB23EC1FEC23ED1FD5
:10335000ED23F1DD080EE66EE9CAE6FF0A01E90594
:10336000E66EB9EC15F0E552E55259C03AF05AC094
:103370003BF05BC03CF03D6A3CBE3D683AC0E6FFB6
:103380003BC0E6FF3CC0E6FF3DC0E6FF030E0A017E
:10339000E95DE66EE8CAE6FFB9EC15F0E552E552E4
:1033A000E552E7CF3DF0E552E7CF3CF0E552E7CFFD
:1033B0003BF0E552E7CF3AF059C058F05AC059F007
:1033C0005BC05AF05B6A5ABE5B68640E5D6E5E6AF3
:1033D0005F6A606A86EC75F0545000013A24366EDC
:1033E00055503B20376E56503C20386E57503D208C
:1033F000396E0D0E5D6E5E6A5F6A606A36C058F0A7
:1034000037C059F038C05AF039C05BF086EC75F01F
:1034100054C036F055C037F056C038F057C039F0B8
:1034200054C0E6FF55C0E6FF56C0E6FF57C0E6FFB2
:10343000AAEC4BF03E6E050EE15E3E5058C0FAF429
:1034400059C0FBF478DD080EE66EE9CAE6FF0A0112
:10345000E905E66EB9EC15F0E552E55259C03AF0CF
:103460005AC03BF05BC03CF03D6A3CBE3D683AC090
:10347000E6FF3BC0E6FF3CC0E6FF3DC0E6FF030EB3
:103480000A01E95DE66EE8CAE6FFB9EC15F0E5521F
:10349000E552E552E7CF3DF0E552E7CF3CF0E5528B
:1034A000E7CF3BF0E552E7CF3AF059C058F05AC0A9
:1034B00059F05BC05AF05B6A5ABE5B68640E5D6E81
:1034C0005E6A5F6A606A86EC75F0545000013A24C7
:1034D000366E55503B20376E56503C20386E575054
:1034E0003D20396E2D0E5D6E5E6A5F6A606A36C081
:1034F00058F037C059F038C05AF039C05BF086EC4C
:1035000075F054C036F055C037F056C038F057C08B
:1035100039F054C0E6FF55C0E6FF56C0E6FF57C07D
:10352000E6FFAAEC4BF03E6E050EE15E3E5058C041
:10353000F8F459C0F9F40A01908912000A0190992F
:103540001200D9CFE6FFE1CFD9FF245001E198D096
:10355000020A55E0040A33E0010A01E09CD0020EA1
:103560002B5C15E22C38F00B2C6E410EF36EFE0E28
:10357000DBCFF4FFF350F45C04E3FE0EDB50C90F25
:1035800003D0FE0EDB50D00F2C262B2A84D025C072
:10359000A7F729502C5C02E0000E01D0010E0A01B1
:1035A0009293E8B0928392A369D00A01E451010A90
:1035B00004E0010A63E1E3DC61D06FDE5FD0FE0E60
:1035C000DB502A0804E12C6A2B6A070E63D0FE0E3A
:1035D000DB50240803E1000E296E59D0FE0EDB50AB
:1035E000291A2550252AEA6A570FE96E070EEA22A2
:1035F000FE0EDBCFEFFF25504F084DE23FD0FE0E11
:10360000DB50291A2650050DF3CF36F0F4CF37F0F2
:103610000E0E3626000E372227503624F66E000E88
:103620003720F76E0800F550F36EFE0EDB50F35CAA
:1036300005E0020E265C02E2262AE4D72650050D9C
:10364000F3CF36F0F4CF37F00E0E3626000E3722C9
:1036500027503624F66E000E3720F76E0800F5501E
:10366000F36EFE0EDB50F35C09E1040E275C04E10F
:1036700026C0E4FA060E0ED0272A0DD0246A0BD0FD
:10368000FE0EDB50240807E1000E296E266E276E21
:10369000256E020E246EE552E7CFD9FF1200EBCA69
:1036A00036F0ECCA37F0386A396A37AE02D038687B
:1036B00039681E0E361801E0FED0375001E0FBD00D
:1036C000385001E0F8D0395001E0F5D00A018A51B4
:1036D000400B01E1F0D021EC6DF059C024F75AC045
:1036E00025F75BC026F7D8C4DCF4D9C4DDF4DAC40E
:1036F000DEF4DBC4DFF4E6C4EEF4E7C4EFF4E8C4C0
:10370000F0F4E9C4F1F4EAC4F2F4EBC4F3F4ECC469
:10371000F4F4EDC4F5F4E6C4A0F9E7C4A1F9E8C4F3
:10372000A2F9E9C4A3F9C00E5D6E270E5E6E090E04
:103730005F6E606AE6C458F0E7C459F0E8C45AF016
:10374000E9C45BF0C0EC6EF058C0A0F959C0A1F913
:103750005AC0A2F95BC0A3F90901800E5B1409E00D
:10376000000EA06DA11FA123A21FA223A31FA323AC
:1037700002D0A3C9A3F9A0C936F0A1C937F0A2C9E4
:1037800038F0A3C939F0F60E5D6E0D0E5E6E5F6AFD
:10379000606AA0C958F0A1C959F0A2C95AF0A3C9DA
:1037A0005BF086EC75F054C036F055C037F056C06B
:1037B00038F057C039F00B0ED890393238323732E2
:1037C0003632E806F9E136C0A0F937C0A1F938C0B1
:1037D000A2F939C0A3F936C0E6FF37C0E6FF9AEC7C
:1037E0004DF0E552E552F3CFF6F4F4CFF7F4E0C430
:1037F000E3F4E1C4E4F4E2C4E5F40401FA6BFB6B26
:10380000E0C436F0E1C437F0E2C438F0640E5E6E16
:103810005F6A606AE0C459F0E1C45AF0E2C45BF048
:1038200093EC6EF059C036F05AC037F05BC038F0F8
:1038300059C0E6FF5AC0E6FF0C0EE66E010EE66EBA
:1038400019EC71F0E552E552E552E552E6C4E6FFA7
:10385000E7C4E6FFE8C4E6FFE9C4E6FF0E0EE66E45
:10386000010EE66E49EC71F0366E060EE15E3650E2
:10387000EAC4E6FFEBC4E6FFECC4E6FFEDC4E6FFF6
:10388000120EE66E010EE66E49EC71F0366E060E13
:10389000E15E36500A018ABF0DD0E66A080EE66E78
:1038A000F6EC29F0E552E552010E0501D86FD96B0F
:1038B0000A018A8F8D8912000A018AAD1DD121EC7F
:1038C0006DF059C0A4F95AC0A5F95BC0A6F9240E41
:1038D000E96E070EEA6EEE50595C366EEE505A589D
:1038E000376EEE505B5836C0A7F937C0A8F959C0FB
:1038F00024F75AC025F75BC026F7EBCA36F0ECCAAE
:1039000037F0386A396A37AE02D038683968D890EB
:103910003950000A08E61E0E365C000E3758000EBD
:103920003858000E395822E20A018A9DFEC436F04A
:10393000FFC437F0386A396A37AE02D03868396860
:103940003934000E391809E6D8800F0E3654000EAF
:103950003754000E3854000E395405E30A01EB2B9E
:10396000000EEC2303D00A01EB6BEC6B0A018AAF6B
:1039700092D0EE0EE96E040EEA6EEE500401E65DA2
:10398000366EEE50E759376EEE50E859386EEE500D
:10399000E959396E36C0E6FF37C0E6FF38C0E6FFAA
:1039A000E66E33EC15F0E552E552E552E55258C0AB
:1039B000AEF759C0AFF75AC0B0F7080EE66EF6C4BE
:1039C0003EF0F7C43FF0406A416A3FAE02D0406823
:1039D00041683EC0E6FF3FC0E6FF40C0E6FF41C091
:1039E000E6FFF20EE96E040EEA6EEE500401EA5DA7
:1039F0003A6EEE50EB593B6EEE50EC593C6EEE5089
:103A0000ED593D6E3AC0E6FF3BC0E6FF3CC0E6FF25
:103A1000E66E33EC15F0E552E552E552E552E5521B
:103A2000E7CF41F0E552E7CF40F0E552E7CF3FF076
:103A3000E552E7CF3EF03EC05DF03FC05EF040C0D3
:103A40005FF041C060F086EC75F054C036F055C0B0
:103A500037F056C038F057C039F054C0E6FF55C0B3
:103A6000E6FF56C0E6FF57C0E6FFAAEC4BF0050E96
:103A7000E15E58C0BFF759C0C0F75AC0C1F7AEC722
:103A8000B4F7AFC7B5F7B0C7B6F758C0C5F759C058
:103A9000C6F75AC0C7F7040E735C37E1C0C536F0ED
:103AA000C1C537F0386A37BE386838500401E219AA
:103AB000E8AE02D0E23506D0E051365CE15137582D
:103AC000E251385804E2E0C4C0F5E1C4C1F5050193
:103AD000CD510401FB19E8AE02D0FB3507D0FA51F5
:103AE0000501CC5D0401FB510501CD590EE2FAC47C
:103AF000CCF5FBC4CDF51200EBCAFCF4040E735CEC
:103B000004E10501D42B000ED52312000A019251C5
:103B1000020B1BE12F502D1802E130502E1815E03A
:103B2000000E2F24E96E020E3020EA6EEFCFA9F9C5
:103B3000010E2F26000E3022FF0E2F16000E30161B
:103B4000A9C9E6FFFEDCE552E1D792A330D0020E10
:103B5000E66E53EC74F0E552040EE66E5FEC74F022
:103B6000E5520A019293A8DE0A018AAD1ED0040E26
:103B7000E66E5FEC74F0E5520A018F9721EC6DF070
:103B800059C036F05AC037F05BC038F0396AD00EF1
:103B90003626070E3722000E3822392236C02DF77E
:103BA00037C02EF738C02FF713D08D9D0CD021ECE5
:103BB0006DF0595007012D5D5A502E595B502F5909
:103BC00007E20A018A9D040EE66E53EC74F0E5529A
:103BD000020EE66E5FEC74F0E55212000A01E76B2C
:103BE0000401F66B010EF76FFE6BFF6BFC6BFCC400
:103BF000FDF4FCC4D8F4D96BDA6BDB6B000EFA6F02
:103C0000FB6BF86FF96BE06FE16BE26BE1BFE269B0
:103C1000E66BE76BE86BE96BE6C4EEF4E7C4EFF440
:103C2000E8C4F0F4E9C4F1F4EA6BEB6BEC6BED6B18
:103C3000EAC4F2F4EBC4F3F4ECC4F4F4EDC4F5F428
:103C4000E66AE66AE66AE66A0E0EE66E010EE66E61
:103C500049EC71F0366E060EE15E3650E66AE66AB1
:103C6000E66AE66A120EE66E010EE66E49EC71F047
:103C7000366E060EE15E3650000EE66EE66A0C0EFB
:103C8000E66E010EE66E19EC71F0E552E552E55272
:103C9000E5520A01EB6BEC6B0A0192938A9D8A9FB5
:043CA000246A120080
:0C3CA4000A018D818A810F013C6B3D6B91
:103CB00091C036F092C037F093C038F0396A38BE00
:103CC0003968D8903950000A08E62C0E365C010E8F
:103CD0003758000E3858000E395802E3000E01D054
:103CE000010E0901B26FE850120018EC54F02E0ECC
:103CF000E66E5FEC74F0E552746A030E736E1200A8
:103D0000050EE66EE66A3AC4E6FF3BC4E6FF42EC07
:103D10002CF0E552E552E552E552F3CF3AF4F4CFF8
:103D20003BF4050EE66EE66A82C4E6FF83C4E6FF56
:103D300042EC2CF0E552E552E552E552F3CF82F425
:103D4000F4CF83F40401CA6BCB6B1200000E0401A4
:103D5000A26FA36B5A6F5B6B126F136BB9C7E6FF51
:103D6000BAC7E6FFBBC7E6FFA8C7E6FFA9C7E6FFDD
:103D7000AAC7E6FFDAD8366E060EE15E36501200AC
:103D800018EC54F00A018A87030E736E756E34ECDA
:103D90002AF009EC2BF03DEC48F086EC1DF045ECE8
:103DA00054F0F5D70A018F97AEC7ABF7AFC7ACF7A2
:103DB000B0C7ADF7BFC7BCF7C0C7BDF7C1C7BEF737
:103DC0008D998C958C938F9D746A1200D9CFE6FFE4
:103DD000E1CFD9FF0701E96BEA6BEB6BFD0EDBCF9F
:103DE00036F0FE0EDBCF37F036C0F3FF37C0F4FFFE
:103DF000E552E7CFD9FF12000A01B3510901AE5DC8
:103E0000366EAF510A01B455376E36C0E6FFE66E26
:103E10006EEC4CF0E552E552F3CFB3F9F4CFB4F9C0
:103E20000901D880F45004E7E40EB35DFF0EB459E5
:103E300004E2E40EB36FB4690DD0B43509E2B351B6
:103E40001C08000EB45504E21C0EB36FB46B02D014
:103E5000B4C9B4F9090EE66EB0C946F0B1C947F06D
:103E6000486A496A47AE02D048684968F4C742F0D8
:103E7000436A446A456A42AE03D043684468456871
:103E8000B3C93EF0B4C93FF0406A416A3FAE02D0C8
:103E9000406841683EC058F03FC059F040C05AF0F9
:103EA00041C05BF042C05DF043C05EF044C05FF0D3
:103EB00045C060F086EC75F054C03AF055C03BF058
:103EC00056C03CF057C03DF054C058F055C059F0B2
:103ED00056C05AF057C05BF046C05DF047C05EF078
:103EE00048C05FF049C060F086EC75F054C036F011
:103EF00055C037F056C038F057C039F054C0E6FF0F
:103F000055C0E6FF56C0E6FF57C0E6FFAAEC4BF0EF
:103F10004A6E050EE15E4A5058C0B3F959C0B4F973
:103F200058C0F3FF59C0F4FF1200D9CFE6FFE1CF2C
:103F3000D9FF21EC6DF059C0B5F95AC0B6F95BC094
:103F4000B7F90901B86B27C73AF028C73BF029C772
:103F50003CF03D6A3A50595C366E3B505A58376EC9
:103F60003C505B58386E3D50B859396E36C07CFFB6
:103F700037C07DFF38C07EFF59C027F75AC028F7E9
:103F80005BC029F7DBC736F0DCC737F0386A396A1F
:103F900037AE02D038683968480E365E000E375AA0
:103FA000385A395A36C0B0F937C0B1F9800E3714D3
:103FB00003E0B06BB16B0DD0B13509E2B051000830
:103FC000010EB15504E2B06B010EB16F02D0B1C960
:103FD000B1F9FC0EDBCFA8F7FD0EDBCFA9F7FE0E83
:103FE000DBCFAAF7F90EDBCFB9F7FA0EDBCFBAF7C2
:103FF000FB0EDBCFBBF70701AE51A85DB16FAF5130
:10400000A959B26FB051AA59B36FBF51B95DC26F10
:10401000C051BA59C36FC151BB59C46F800EB3159B
:1040200018E0B1C7C1F9B2C7C2F9B3C7C3F95E6836
:104030005F686068B1C759F0B2C75AF0B3C75BF0A8
:104040003FEC6FF056C0C1F957C0C2F958C0C3F970
:1040500006D0B1C7C1F9B2C7C2F9B3C7C3F90701E6
:10406000800EC41518E0C2C7C4F9C3C7C5F9C4C7D8
:10407000C6F95E685F686068C2C759F0C3C75AF086
:10408000C4C75BF03FEC6FF056C0C4F957C0C5F928
:1040900058C0C6F906D0C2C7C4F9C3C7C5F9C4C75A
:1040A000C6F9C10EE96E090EEA6E020EEB50090167
:1040B000C619E8AE02D0C63506D0C451EE5CC55173
:1040C000EE58C651EE5807E2C4C972FFC5C973FF66
:1040D000C6C974FF06D0C1C972FFC2C973FFC3C984
:1040E00074FF72CF36F073CF37F074CF38F0396A7F
:1040F00038BE3968D8903950000A08E6500E365C50
:104100000B0E3758000E3858000E395842E2C4C919
:1041100059F0C5C95AF0C6C95BF0C4C95EF0C5C93B
:104120005FF0C6C960F03FEC6FF056C03AF057C080
:104130003BF058C03CF0C1C959F0C2C95AF0C3C9DC
:104140005BF0C1C95EF0C2C95FF0C3C960F03FEC6B
:104150006FF03A505624366E3B505720376E3C5025
:104160005820386E396A38BE396836C0E6FF37C025
:10417000E6FF38C0E6FF39C0E6FFAFEC4FF0E5528E
:10418000E552E552E55258C072FF59C073FF5AC05C
:1041900074FFB1C738F0B2C739F0B3C73AF03B6A21
:1041A0003ABE3B6838C0E6FF39C0E6FF3AC0E6FFDA
:1041B0003BC0E6FFC2C73CF0C3C73DF0C4C73EF0FA
:1041C0003F6A3EBE3F683CC0E6FF3DC0E6FF3EC0E2
:1041D000E6FF3FC0E6FFB3EC4DF0406E080EE15E37
:1041E0004050F3CF36F0F4CF37F0F3CFE6FFF4CF03
:1041F000E6FFECDDE552E552F3CF77FFF4CF78FF31
:10420000DFC736F0E0C737F0386A37BE38680701D5
:10421000F1513818E8AE02D0383406D03650EF5D90
:104220003750F0593850F15902E3000E01D0010E19
:104230000A018C95E8B08C858C51040B53E0910EEB
:10424000E96E000EEA6EEE5000018E5D396EEE50A2
:104250008F593A6EEE5090593B6E0001800E3B1420
:104260001FE0910EE96E000EEA6EEE5000018E5DC9
:10427000366EEE508F59376EEE509059386E5E683C
:104280005F68606836C059F037C05AF05B6E3FEC2B
:104290006FF056C036F057C037F058C038F00ED027
:1042A000910EE96E000EEA6EEE5000018E5D366EE4
:1042B000EE508F59376EEE509059386EDDC73CF096
:1042C000DEC73DF03E6A3DBE3E6838503E18E8AE5F
:1042D00002D03E3406D03C50365C3D5037583E50FC
:1042E000385802E3000E01D0010E0A018C93E8B0A9
:1042F0008C830901B13501E3E9D0B0510008000E0B
:10430000B15501E3E3D0060105510F01775D366E2B
:10431000785106010655376E36C0E6FFE66E6EEC44
:104320004CF0E552E552F3CFAEF9F4CFAFF9080EF9
:10433000E66EBFC938F0C0C939F0386C391E000EBE
:1043400039220001ACC9E8FF3802F3CF36F0F4CFD0
:1043500037F03902F3503726ADC9E8FF3802F35081
:10436000372636C0E6FF37C0E6FF5AEC4BF0E55281
:10437000E552E552F3CFBFF9F4CFC0F90401800E46
:104380003B1502E0FF0E01D0010E366E0901800ED2
:10439000C01502E0FF0E01D0010E365C04E0BFC97B
:1043A0003AF4C0C93BF4E3C7E6FFE4C7E6FFBFC980
:1043B00036F0C0C937F0386A396A37AE02D038688B
:1043C000396836C0E6FF37C0E6FF38C0E6FF39C0BF
:1043D000E6FF3AC43AF03BC43BF03C6A3D6A3BAE70
:1043E00002D03C683D683AC0E6FF3BC0E6FF3CC0F7
:1043F000E6FF3DC0E6FF44EC2DF03E6E0A0EE15EA6
:104400003E5058C03AF459C03BF4ACC936F0ADC97F
:1044100037F0366C371E000E372236C05FF037C0DB
:1044200060F0BFC95AF0C0C95BF021EC6FF058C012
:10443000BFF959C0C0F90401800ECB1502E0FF0E90
:1044400001D0010E366E0901800EC01502E0FF0E8C
:1044500001D0010E365C04E0BFC9CAF4C0C9CBF478
:10446000E5C7E6FFE6C7E6FFBFC936F0C0C937F0CB
:10447000386A396A37AE02D03868396836C0E6FF24
:1044800037C0E6FF38C0E6FF39C0E6FFCAC43AF0DD
:10449000CBC43BF03C6A3D6A3BAE02D03C683D6811
:1044A0003AC0E6FF3BC0E6FF3CC0E6FF3DC0E6FF8A
:1044B00044EC2DF03E6E0A0EE15E3E5058C0CAF448
:1044C00059C0CBF40401826B836B01D019DC0A0163
:1044D0008F87E552E7CFD9FF12000A018A51400BBE
:1044E00013E08A51800B10E08E51400B0DE08E518D
:1044F000200B0AE021EC6DF059500701425D5A5043
:1045000043595B50445902E3000E01D0010E0A01E9
:104510008D9DE8B08D8D8DAD79D18D9F8A978F510E
:10452000080B01E085D1765001E182D1BFC759F077
:10453000C0C75AF0C1C75BF0BFC75EF0C0C75FF02D
:10454000C1C760F03FEC6FF056C03AF057C03BF087
:1045500058C03CF0AEC759F0AFC75AF0B0C75BF0D7
:10456000AEC75EF0AFC75FF0B0C760F03FEC6FF072
:104570003A505624366E3B505720376E3C505820E8
:10458000386E396A38BE396836C0E6FF37C0E6FF94
:1045900038C0E6FF39C0E6FFAFEC4FF0E552E55218
:1045A000E552E55258C0EFF759C0F0F75AC0F1F79D
:1045B000AEC736F0AFC737F0B0C738F0396A38BE8B
:1045C000396836C0E6FF37C0E6FF38C0E6FF39C0BD
:1045D000E6FFBFC73AF0C0C73BF0C1C73CF03D6A39
:1045E0003CBE3D683AC0E6FF3BC0E6FF3CC0E6FF8C
:1045F0003DC0E6FFB3EC4DF03E6E080EE15E3E506E
:10460000F3CFEDF7F4CFEEF7745001E1E2D0050AF5
:1046100001E1AFD0030A01E178D0070A48E0030ABC
:104620002FE0010A14E0070A01E002D1E66AE66A17
:10463000E66AE66AE66AE66A78DC366E060EE15EEF
:10464000365052EC1EF0000901E1F2D0ECD0E66ADF
:10465000E66AE66AE66AE66AE66A67DC366E060ECF
:10466000E15E36500A018C51010B04E18B51800B45
:1046700001E1C9D052EC1EF0000901E1D9D0D3D03C
:10468000E66AE66AE66AE66AE66AE66A4EDC366E7C
:10469000060EE15E36500A018C51010B04E18B518C
:1046A000800B01E1B0D08CB3C3D08F9DA9D0E66A56
:1046B000E66AE66AE66AE66AE66A37DC366E060E9F
:1046C000E15E36500A018C51010B04E18B51800BE5
:1046D00001E199D08CA3ACD021EC6DF059500F01C1
:1046E000792507011B6F5A500F017A2107011C6FB2
:1046F0005B500F017B2107011D6FA0C08EF0A1C090
:104700008FF0A2C090F0020E7CD06BCFE6FF6CCF92
:10471000E6FF6DCFE6FF67CFE6FF68CFE6FF69CF24
:10472000E6FF95EC1FF0366E060EE15E36500A018C
:104730008BAF69D08C51020B01E17AD021EC6DF086
:10474000595007011B5D5A501C595B501D5970E2AE
:104750000F016351625D0BE1010E626FA0C08EF02C
:10476000A1C08FF0A2C090F00A018F9D4AD0622BA9
:1047700033D06BCFE6FF6CCFE6FF6DCFE6FF67CFA0
:10478000E6FF68CFE6FF69CFE6FF95EC1FF0366ED7
:10479000060EE15E36500A018BAF35D08CA348D0AF
:1047A00021EC6DF059500F016F2507011B6F5A5016
:1047B0000F01702107011C6F5B500F017121070170
:1047C0001D6F64CF8EF065CF8FF066CF90F0060E30
:1047D00018D00A018BAF0CD062CFE6FF44DAE55265
:1047E00064CF8EF065CF8FF066CF90F0050E09D0C4
:1047F0008CA109D0A0C08EF0A1C08FF0A2C090F013
:10480000010E746E15D0D2EC1EF012D08D51800BBB
:1048100006E18C51010B03E18B51800B09E052EC56
:104820001EF0000903E0C0EC1EF002D080EC1EF088
:104830000A018E99120021EC6DF059500701185DA4
:104840005A5019595B501A5925E20A018EA128D0F5
:10485000080EE66E53EC74F0E55207011B6B1C6BFF
:104860001D6B21EC6DF059C036F05AC037F05BC0BB
:1048700038F0396AE80E3626030E3722000E382249
:10488000392236C015F737C016F738C017F7746AE3
:10489000756A1200E80E1827030E1923000E1A235A
:1048A0001200B9EC01F07550040A01E1D0D0040AFD
:1048B00061E0010A2DE0030A0BE0010A01E01200A9
:1048C000A6EC1EF052EC1EF0000901E1C0D0BAD0F7
:1048D000A6EC1EF091C036F092C037F093C038F0CD
:1048E000396A38BE3968D8903950000A08E62C0E6B
:1048F000365C010E3758000E3858000E395802E267
:10490000030E756E52EC1EF0000901E1A0D09AD0A2
:10491000A6EC1EF00A018A81A0C08EF0A1C08FF023
:10492000A2C090F021EC6DF0595007011B5D5A5068
:104930001C595B501D591CE20A018A8721EC6DF05D
:1049400059C036F05AC037F05BC038F0396A980E5B
:1049500036263A0E3722000E3822392236C01BF78F
:1049600037C01CF738C01DF7030E746E020E6DD0F1
:104970001BEF24F021EC6DF059500701155D5A50E2
:1049800016595B50175963E20501E42B000EE5232D
:104990000A018A51400B17E08E51400B14E08E51F2
:1049A000200B11E021EC6DF059C036F05AC037F001
:1049B0005BC038F0396A880E3626130E3722000E97
:1049C0003822392209D021EC6DF059C036F05AC096
:1049D00037F05BC038F0396A36C01BF737C01CF7B8
:1049E00038C01DF721EC6DF059C036F05AC037F0D1
:1049F0005BC038F0396AE80E3626030E3722000E07
:104A00003822392236C018F737C019F738C01AF7DC
:104A100091C036F092C037F093C038F0396A38BE92
:104A20003968D8903950000A08E62C0E365C010E21
:104A30003758000E3858000E395806E20A018C51DA
:104A4000200B02E0C0EF1EF0010E756E1200120086
:104A5000A6EC59F00901CA6F020EE66E53EC74F031
:104A6000E5520901CA51330A01E1ACD0010A5CE008
:104A7000030A04E0010A01E0F0D0EAD0CC6BC86B75
:104A8000C96BD890C95104E6000EC85D010EC95922
:104A900012E2A6EC59F00901CB6FE850CC1B000ED6
:104AA000C825E96E030EC921EA6ECBC9EFFFC82BFA
:104AB000000EC923E6D7CC5130E1C86BC96BD89042
:104AC000C95104E6000EC85D010EC95924E2000E6A
:104AD000C825E96E030EC921EA6EEF50E66EC8C91B
:104AE00036F0C9C937F0386A396A37AE02D038684B
:104AF0003968372A000E3822392236C0E6FF37C01F
:104B0000E6FFDDEC70F0E552E552E5520901C82BF5
:104B1000000EC923D4D7060E01D0150EE66E7BEC2D
:104B200058F0E55280D999D0CC6BC86BC96BFF0E99
:104B3000C9AF02D0D89003D0C85D000EC95926E293
:104B4000C8C936F0C9C937F0386A396A37AE02D0F9
:104B500038683968372A000E3822392236C0E6FF15
:104B600037C0E6FF40EC70F0E552E5520901CB6F2B
:104B7000E850CC1B000EC825E96E030EC921EA6E71
:104B8000CBC9EFFFC82B000EC923D1D7CCC9FFF387
:104B9000C86BC96BD890C95104E6000EC85D010E00
:104BA000C95956E2000EC825E96E030EC921EA6E06
:104BB000EF50E66E7BEC58F0E5520901C82B000E71
:104BC000C923E8D7CC6BC86BC96B3F0EC9AF02D005
:104BD000D89003D0C85D000EC9591DE2800EC825CB
:104BE000366EFF0EC921376E36C0E6FFE66E40EC2A
:104BF00070F0E552E5520901CB6FE850CC1B000E76
:104C0000C825E96E030EC921EA6ECBC9EFFFC82B98
:104C1000000EC923DAD7CCC93FF3C86BC96B400E6D
:104C2000C9AF02D0D89003D0C85D000EC95910E2B8
:104C3000000EC825E96E030EC921EA6EEF50E66E3C
:104C40007BEC58F0E5520901C82B000EC923E7D7C9
:104C5000060EE66E7BEC58F0E552020EE66E5FEC57
:104C600074F0E5521200D9CFE6FFE1CFD9FFFE0E76
:104C7000DBCF36F00F016351E76E3618E8AE02D095
:104C8000363403D0E750D880365403E2FE0EDB6A98
:104C9000626BFE0EDB5014E1676B686B696B6A6BCD
:104CA0006B6B6C6B6D6B6E6BA0C064FFA1C065FF1E
:104CB000A2C066FF300E6F6F750E706F716BABD058
:104CC000FE0EDB040B0DF3CF36F0376A386A396A13
:104CD00036AE03D0376838683968180E3626010EAC
:104CE0003722000E3822392236C0CDF937C0CEF92E
:104CF00036C0E6FF37C0E6FF84EC70F0E552E552BF
:104D000058C067FF59C068FF5AC069FF5BC06AFF9F
:104D1000040E0901376ACD25366ECE51372236C0D2
:104D2000E6FF37C0E6FF84EC70F0E552E55258C06C
:104D30006BFF59C06CFF5AC06DFF5BC06EFF080E61
:104D40000901376ACD25366ECE51372236C0E6FFCF
:104D500037C0E6FF59EC70F0E552E552F3CF64FF3F
:104D6000F4CF65FF0F01666B65BF6669640E5E6E0A
:104D70005F6A606A64CF59F065CF5AF066CF5BF026
:104D80003FEC6FF056C064FF57C065FF58C066FF28
:104D900056C036F057C037F058C038F0396A38BEC0
:104DA00039683934000E391809E6D880780E36543F
:104DB000000E3754000E3854000E395405E20F012E
:104DC000780E646F656B666B0A0E0901376ACD2534
:104DD000366ECE51372236C0E6FF37C0E6FF40ECD4
:104DE00070F0E552E552586E596A58BE59685A6AD1
:104DF0005B6A59AE02D05A685B68E80E5D6E030EBE
:104E00005E6E5F6A606A86EC75F054C06FFF55C0D5
:104E100070FF56C071FF0A018C938C958F9DE552EF
:104E2000E7CFD9FF12000F01776B786B000E0401FA
:104E3000CA6FCB6B826F836B3A6F3B6B0701E76F77
:104E4000E86BC26BC36BC46BC2C7B1F7C3C7B2F721
:104E5000C4C7B3F7E96BEA6BEB6B00018E6B8F6B2A
:104E6000906B746A00018C6B8D6B00018A6B8B6B8D
:104E70000A018C958C938F97C80E0701DF6FE06B4A
:104E8000320EDD6FDE6B090EE66E010EE66E40EC53
:104E900070F0E552E5520F01636F000EE76E631983
:104EA000E8AE02D0633503D0E750D880635502E303
:104EB000626B02D0010E626FE66AD5DEE552120027
:104EC0007BBA05D0200EE66E53EC74F004D0200EB1
:104ED000E66E5FEC74F0E5520A018EA105D0080E73
:104EE000E66E53EC74F004D0080EE66E5FEC74F0DE
:104EF000E552800EE66E5FEC74F0E55221EC6DF049
:104F000059C0D8F85AC0D9F85BC0DAF8F40E0801D5
:104F1000D827010ED923000EDA2332EC0DF0010E52
:104F2000766E4CEC30F0010E766E3DEC48F00A01E6
:104F30008B9D8EA15CD0080EE66E53EC74F0E552AA
:104F40000A018EA75ED047EC39F042CF40FF43CF35
:104F500041FF000E0F013C6F3D6B0F01426F436B31
:104F6000EAEC52F021EC6DF059500801D85D5A502E
:104F7000D9595B50DA5932E20A018D51020B2EE108
:104F80009AEC40F00A018E95E8B08E858C51010BA9
:104F900006E18B51800B03E18E51040B13E17BBEC4
:104FA00005D0800EE66E53EC74F004D0800EE66EF1
:104FB0005FEC74F0E5527BB405D0040EE66E53EC62
:104FC00074F004D0040EE66E5FEC74F0E552F40E5B
:104FD0000801D827010ED923000EDA230B011A0786
:104FE00010E1A7EC3FF00B01010E1A6F0AD0040E7E
:104FF000E66E53EC74F0E552080EE66E5FEC74F06A
:10500000E552F2EC3BF00A018E51010B01E185D72C
:105010008050100B04E00801D35101E07ED70A0153
:105020009151400B01E079D78C51010B01E075D70C
:105030008B51800B01E071D78A51040B01E06DD7D1
:1050400040CF36F041CF37F0386A396A37AE02D0F8
:1050500038683968D8903950000A08E6180E365C6E
:10506000000E3758000E3858000E395801E355D756
:105070008E51040B01E151D70801D36B800EE66E0F
:105080005FEC74F0E552040EE66E5FEC74F0E552EE
:10509000080EE66E53EC74F0E5520A018EAB05D0B3
:1050A000200EE66E53EC74F004D0200EE66E5FEC3A
:1050B00074F0E55221EC6DF059C0D4F85AC0D5F81F
:1050C0005BC0D6F80801D76B59C039F75AC03AF718
:1050D0005BC03BF759C036F05AC037F05BC038F0C0
:1050E000D7C839F0E80E3626030E3722000E3822D4
:1050F000392236C015F737C016F738C017F780C009
:1051000036F0376A386A396AD40EE96E080EEA6EEC
:10511000EE503626EE503722EE503822EE5039222D
:1051200036C054F737C055F738C056F70A018A978A
:10513000756A1200060EE66ECB0EE66E5BEC58F05A
:10514000E552E5522BEC0BF068EC42F0DEEC72F02D
:10515000F80EE66ECA0EE66E5BEC58F0E552E552CC
:105160000801DC6B400EDC5D62E2F40EE66ECA0EF6
:10517000E66E5BEC58F0E552E5520801DC29E66E7C
:10518000E66AA7EC58F0E552E552F00EE66ECA0E5C
:10519000E66E5BEC58F0E552E5520801DC51EA6A34
:1051A000BD0FE96E060EEA22EFCF36F0376A36BE43
:1051B000376836C0E6FF37C0E6FF10EC59F0E5521D
:1051C000E5520801DC51F66EF76AD890F636F736EC
:1051D0008B0EF626EA0EF722010EF626000EF722B7
:1051E0000800F55007E0ED0EE66ECA0EE66E5BECC9
:1051F00058F018D0200EE66E7BEC58F0E552400EC9
:105200000801DC25E66EE66A40EC70F0E552E552F6
:10521000366E376A36BE376836C0E6FF37C0E6FFFF
:1052200010EC59F0E552E5520801DC2B9BD7120037
:105230003F0E926E020EC16EC00E816E400E936ED6
:10524000600E826E840E946EC78CF19E410EE66EE7
:10525000E66A3C0EE66EFEEC74F0E552E552E5526D
:105260001200736A0801DD6B0A0EDD5D09E2DD5193
:10527000EA6A8A0FE96E0A0EEA22EF6ADD2BF4D79A
:105280000A018D818D898E850A01826B836B846B07
:10529000856B0F0148697F0E496F48CF46FFE8CF05
:1052A00047FF48CF4AFFE8CF4BFF140E0F013E6F78
:1052B0003F6BF00E0F01406F416BD00E06019E6FE9
:1052C0009F6B7B6A2E0EE66E5FEC74F0E552040E67
:1052D000E66E53EC74F0E552800EE66E5FEC74F00F
:1052E000E5521200D9CFE6FFE1CFD9FFFD0EDBCFAB
:1052F00036F0FE0EDBCF37F0386A37BE386836C07E
:10530000E6FF37C0E6FF38C0E6FF21EC6DF0E5525E
:10531000E7CF38F0E552E7CF37F0E552E7CF36F088
:10532000595036240801DE6F5A503720DF6F5B502A
:105330003820E06FDE2B000EDF23E02321EC6DF040
:105340000801DE51595CDF515A58E0515B58F6E3D1
:10535000E552E7CFD9FF1200D9CFE6FFE1CFD9FF61
:10536000FD0EDBCF36F0FE0EDBCF37F0640E3702DA
:10537000F3CF37F03602F3CF36F0F4503726386AE1
:1053800037BE386836C0E6FF37C0E6FF38C0E6FFF4
:1053900021EC6DF0E552E7CF38F0E552E7CF37F07A
:1053A000E552E7CF36F0595036240801E16F5A50E4
:1053B0003720E26F5B503820E36F21EC6DF008017D
:1053C000E151595CE2515A58E3515B580BE2020E2D
:1053D0000001805DE66EE66A85DFE552E552EAECA3
:1053E00052F0EBD7E552E7CFD9FF1200D9CFE6FF55
:1053F000E1CFD9FF800EE66E53EC74F0E552FE0E5D
:10540000DBCFE6FFE66AA8DFE552E552800EE66EE6
:105410005FEC74F0E552FD0EDBCFE6FFE66A9CDF41
:10542000E552E552E552E7CFD9FF1200D9CFE6FFAA
:10543000E1CFD9FF0801E46BFE0EDB50E45D0AE228
:10544000080EE66E020EE66ED1DFE552E552080167
:10545000E42BF2D7E66A080EE66EC8DFE552E552A5
:10546000E552E7CFD9FF120021EC6DF059C0E5F805
:105470005AC0E6F85BC0E7F8E50EE96E080EEA6E82
:1054800007013C51EE5C3D51EE583E51EE5801E2B1
:10549000BFD0765001E1BCD0E5C83CF7E6C83DF787
:1054A000E7C83EF7E80E3C27030E3D23000E3E23DF
:1054B000766A9BC658F09CC659F05A6A5B6A59AE28
:1054C00002D05A685B68040E5D6E5E6A5F6A606A4D
:1054D00086EC75F054C07AFA55C07BFA390EE96E45
:1054E000070EEA6EEE500801E55D3D6EEE50E6599E
:1054F0003E6EEE50E7593F6E54C03AF055C03BF057
:105500003C6A3BBE3C683AC059F03BC05AF03CC0D4
:105510005BF03DC05EF03EC05FF03FC060F03FEC2E
:105520006FF0396A56500A0182275750832358502A
:10553000842339508523E5C839F7E6C83AF7E7C828
:105540003BF782CA36F083CA37F084CA38F085CA7E
:1055500039F05D6A400E5E6E380E5F6E606A82CA18
:1055600058F083CA59F084CA5AF085CA5BF0C0EC7F
:105570006EF058C036F059C037F05AC038F05BC0F2
:1055800039F0320E5D6E5E6A5F6A606A86EC75F0B5
:1055900054C036F055C037F056C038F057C039F017
:1055A00054C080FA55C081FAE66AF5EC75F0E55210
:1055B000F3CFE8F8F4CFE9F8010EE66E0A0178516E
:1055C0000801F324366E0A0179510801F420376E80
:1055D00036C0E6FFE66E5AEC4BF0E552E552E55276
:1055E000F3CF78FAF4CF79FA0A01F4507D19E8AED6
:1055F00002D07D3504D07C51785D7D51795902E32C
:10560000000E01D0010E010B0A018A9BE8B08A8BC3
:105610001200765001E1BDD0766A0A018A51200B52
:1056200011E18A51080B0EE18A51010B06E08B5102
:10563000400B03E09151100B05E1030E735C02E097
:10564000000E01D0010E9093E8B0908390A392D009
:105650008AAB0AD00B01580E1B6F020E1C6F580E3E
:105660001D6F020E1E6F21D08A51010B0CE08B5171
:10567000400B09E09151100B06E0C80E0B011B6FA7
:105680001C6B140E10D0030E735C07E10B018E0E21
:105690001B6F120E1C6FFA0E06D08AA706D07D0E65
:1056A0000B011B6F1C6B1D6F1E6B21EC6DF05950B5
:1056B0000701455D5A5046595B5047596AE27BAE37
:1056C0002CD01BCB36F01CCB37F0386A37BE38688D
:1056D00036C0E6FF37C0E6FF38C0E6FF21EC6DF0CC
:1056E000E552E7CF38F0E552E7CF37F0E552E7CFA4
:1056F00036F0595036240701456F5A503720466F0F
:105700005B503820476F800EE66E5FEC74F0E55218
:10571000040EE66E5FEC74F02BD01DCB36F01ECB82
:1057200037F0386A37BE386836C0E6FF37C0E6FF64
:1057300038C0E6FF21EC6DF0E552E7CF38F0E552D6
:10574000E7CF37F0E552E7CF36F05950362407015E
:10575000456F5A503720466F5B503820476F800E98
:10576000E66E53EC74F0E552040EE66E53EC74F002
:10577000E552120021EC6DF0595007010F5D5A50AF
:1057800010595B50115905E2800EE66E5FEC74F023
:10579000E5521200D9CFE6FFE1CFD9FFF70EDBCFFC
:1057A0003AF0F80EDBCF3BF0F90EDBCF3CF0FA0E0F
:1057B000DBCF3DF0E150FB0FE96EFF0EDA20EA6E21
:1057C000030EEB503D18E8AE02D03D3408D03A50FD
:1057D000EE5C3B50EE583C50EE583D50EE580BE21C
:1057E000F70EDBCF36F0F80EDBCF37F0F90EDBCF5C
:1057F00038F0FA0E39D0F30EDBCF3EF0F40EDBCFEB
:105800003FF0F50EDBCF40F0F60EDBCF41F0D95084
:10581000FB0FE96EFF0EDA20EA6E030EEBCFF3FF0B
:105820004150F318E8AE02D0F33408D0EE503E5C9D
:10583000EE503F58EE504058EE5041580BE2F30EF8
:10584000DBCF36F0F40EDBCF37F0F50EDBCF38F0E0
:10585000F60E0AD0FB0EDBCF36F0FC0EDBCF37F0B6
:10586000FD0EDBCF38F0FE0EDBCF39F036C058F03E
:1058700037C059F038C05AF039C05BF0E552E7CF75
:10588000D9FF1200D9CFE6FFE1CFD9FFFE0EDBCF63
:1058900037F0800E37141EE0FB0EDBCF36F0FC0E27
:1058A000DBCF37F0D950FD0FE96EFF0EDA20EA6E3C
:1058B0003650EE263750ED22FD0EDBCF36F0FE0ED1
:1058C000DBCF37F037342EE236500008000E375465
:1058D00029E224D0FD0EDBCF36F0FE0EDBCF37F011
:1058E000373420E236500008000E37541BE2FB0E1E
:1058F000DBCF36F0FC0EDBCF37F0D950FD0FE96E71
:10590000FF0EDA20EA6E3650EE5E3750ED5AFD0E8D
:10591000FE0EDBCF37F0800E371404E0FD0EDB6A9D
:10592000FE0EDB6AFD0EDBCF36F0FE0EDBCF37F06E
:1059300036C0F3FF37C0F4FFE552E7CFD9FF1200BE
:10594000D9CFE6FFE1CFD9FFF90EDBCF36F0FA0E63
:10595000DBCF37F0386A396A37AE02D03868396839
:10596000D950FB0FE96EFF0EDA20EA6E030EEBCF83
:10597000F3FF3950F318E8AE02D0F33408D0EE50FC
:10598000365CEE503758EE503858EE5039581BE21E
:10599000F90EDBCF36F0FA0EDBCF37F0386A396A12
:1059A00037AE02D038683968D950FB0FE96EFF0E68
:1059B000DA20EA6E3650EE5E3750EE5A3850EE5A24
:1059C0003950EE5A49D0F90EDBCF36F0FA0EDBCF64
:1059D00037F0366C371E000E3722386A396A37AE18
:1059E00002D038683968D950FB0FE96EFF0EDA2013
:1059F000EA6E030EEB503918E8AE02D0393408D005
:105A00003650EE5C3750EE583850EE583950EE585C
:105A10001BE2F90EDBCF36F0FA0EDBCF37F0386A37
:105A2000396A37AE02D038683968D950FB0FE96E51
:105A3000FF0EDA20EA6E3650EE263750EE2238504E
:105A4000EE223950EE2208D0FB0EDB6AFC0EDB6A38
:105A5000FD0EDB6AFE0EDB6AFB0EDBCF36F0FC0EC2
:105A6000DBCF37F0FD0EDBCF38F0FE0EDBCF39F0A9
:105A700036C058F037C059F038C05AF039C05BF022
:105A8000E552E7CFD9FF1200D9CFE6FFE1CFD9FF2A
:105A9000F60EDBCF39F0800E39140BE0F50EDBCFBC
:105AA00036F0F60EDBCF37F0366C371E000E37229D
