:020000040000FA
:0600000050EF76F0120043
:020006001200E6
:06000800A3EF6CF01200F2
:02000E00475059
:080010004747414750524D43A0
:060018009CEF6CF01200E9
:02001E000F00D1
:10002000C0ED0000C30A00000A000000ABE60000BB
:10003000FF07000001000000B9ED0000ED0A00001C
:1000400007000000B5ED0000090B000004000000EF
:10005000B3ED00007D0F00000200000007BD0000AE
:10006000FF06000001000000A9ED0000B90A000031
:100070000A000000A4ED0000000B000005000000D5
:100080008AED00003D0A00001A00000068ED000043
:10009000C20900002200000060ED0000D60A000046
:1000A0000800000054ED0000990A00000C00000058
:1000B00040ED0000EB070000140000001EED000002
:1000C000A00900002200000018ED0000F40A000062
:0400D0000600000026
:0C00D4000901836B0F016D816A810F012F
:1000E000300E0E6FF80E0F6F10690F01100E1E6F9D
:1000F0001F690F016CAB4BD036C63CF637C63DF6D8
:1001000011CF36F012CF37F013CF38F0396A38BE3E
:1001100039683934000E391809E6D8802C0E365467
:10012000010E3754000E3854000E395416E28DEC8F
:100130006CF058C036F059C037F05AC038F0396A00
:10014000980E36263A0E3722000E3822392236C053
:100150007DF637C07EF638C07FF68DEC6CF05850D7
:1001600006017D5D59507E595A507F590AE20F01B0
:100170006D51800B08E1040E735C05E0030E745CA6
:1001800002E0000E01D0010E0901836F6BD009015E
:100190007B510601365D366E375109017C55376E4D
:1001A0000001800E371403E006013C6B13D00901F7
:1001B0007B510601365D386E375109017C55396E29
:1001C000E8340AE23850D008000E395405E206013E
:1001D000D00E3C6F3D6B0BD07B510601365D0601A6
:1001E0003C6F09017C510601375906013D6F8DECCA
:1001F0006CF058500601805D595081595A5082590F
:1002000031E28DEC6CF058C036F059C037F05AC06E
:1002100038F0396AE80E3626030E3722000E3822EF
:10022000392236C080F637C081F638C082F6060122
:100230003D5106013F19E8AE02D03F3507D03E518F
:1002400006013C5D06013F5106013D5902E3000EE7
:1002500001D0010E0901836FE85004E1050E7B27F0
:10026000000E7C2309018351120007EC50F02E0E82
:10027000E66E93EC73F0E552736A030E726E120031
:10028000050EE66EE66A3AC4E6FF3BC4E6FFBFEC45
:100290002DF0E552E552E552E552F3CF3AF4F4CFB2
:1002A0003BF4050EE66EE66A82C4E6FF83C4E6FF11
:1002B000BFEC2DF0E552E552E552E552F3CF82F462
:1002C000F4CF83F40401CA6BCB6B1200000E04015F
:1002D000A26FA36B5A6F5B6B126F136B62C7E6FF63
:1002E00063C7E6FF64C7E6FF51C7E6FF52C7E6FFF4
:1002F00053C7E6FFDAD8366E060EE15E36501200BE
:1003000007EC50F00F016A87030E726E746E29ECD1
:100310002CF0FEEC2CF0ACEC43F0A4EC28F03BEC21
:1003200050F0F5D70F016F9757C754F758C755F7D7
:1003300059C756F768C765F769C766F76AC767F7A9
:100340006D996C956C936F9D736A1200D9CFE6FF1F
:10035000E1CFD9FF0701926B936B946BFD0EDBCF5E
:1003600036F0FE0EDBCF37F036C0F3FF37C0F4FFB8
:10037000E552E7CFD9FF12000A016D5109017F5DF7
:10038000366E80510A016E55376E36C0E6FFE66E56
:10039000DDEC47F0E552E552F3CF84F9F4CF85F96F
:1003A0000901D880F45004E7E40E845DFF0E8559FE
:1003B00004E2E40E846F85690DD0853509E284512D
:1003C0001C08000E855504E21C0E846F856B02D05C
:1003D00085C985F9090EE66E81C946F082C947F0E4
:1003E000486A496A47AE02D0486849689DC742F0EA
:1003F000436A446A456A42AE03D04368446845682C
:1004000084C93EF085C93FF0406A416A3FAE02D0E0
:10041000406841683EC057F03FC058F040C059F0B6
:1004200041C05AF042C05CF043C05DF044C05EF091
:1004300045C05FF0BAEC74F053C03AF054C03BF0E2
:1004400055C03CF056C03DF053C057F054C058F072
:1004500055C059F056C05AF046C05CF047C05DF038
:1004600048C05EF049C05FF0BAEC74F053C036F09B
:1004700054C037F055C038F056C039F053C0E6FFCD
:1004800054C0E6FF55C0E6FF56C0E6FF19EC47F042
:100490004A6E050EE15E4A5057C084F958C085F98E
:1004A00057C0F3FF58C0F4FF1200D9CFE6FFE1CFE9
:1004B000D9FF8DEC6CF058C086F959C087F95AC045
:1004C00088F90901896B89C63AF08AC63BF08BC668
:1004D0003CF03D6A3A50585C366E3B505958376E86
:1004E0003C505A58386E3D508959396E36C03AFAE8
:1004F00037C03BFA38C03CFA58C089F659C08AF672
:100500005AC08BF684C736F085C737F0386A396A27
:1005100037AE02D038683968480E365E000E375A5A
:10052000385A395A36C081F937C082F9800E3714EB
:1005300003E0816B826B0DD0823509E281510008A6
:10054000010E825504E2816B010E826F02D082C9D6
:1005500082F9FC0EDBCF51F7FD0EDBCF52F7FE0E1A
:10056000DBCF53F7F90EDBCF62F7FA0EDBCF63F781
:10057000FB0EDBCF64F707015751515D5A6F58519D
:1005800052595B6F595153595C6F6851625D6B6F83
:10059000695163596C6F6A5164596D6F800E5C15B7
:1005A00018E05AC792F95BC793F95CC794F95D6884
:1005B0005E685F685AC758F05BC759F05CC75AF06D
:1005C0005CEC70F055C092F956C093F957C094F99D
:1005D00006D05AC792F95BC793F95CC794F9070133
:1005E000800E6D1518E06BC795F96CC796F96DC74D
:1005F00097F95D685E685F686BC758F06CC759F023
:100600006DC75AF05CEC70F055C095F956C096F97C
:1006100057C097F906D06BC795F96CC796F96DC7A7
:1006200097F9920EE96E090EEA6E020EEB5009017F
:100630009719E8AE02D0973506D09551EE5C9651E9
:10064000EE589751EE5807E295C930FA96C931FA3B
:1006500097C932FA06D092C930FA93C931FA94C9CF
:1006600032FA30CA36F031CA37F032CA38F0396A55
:1006700038BE3968D8903950000A08E6500E365C0A
:100680000B0E3758000E3858000E395842E295C903
:1006900058F096C959F097C95AF095C95DF096C9B6
:1006A0005EF097C95FF05CEC70F055C03AF056C050
:1006B0003BF057C03CF092C958F093C959F094C927
:1006C0005AF092C95DF093C95EF094C95FF05CEC9A
:1006D00070F03A505524366E3B505620376E3C50E1
:1006E0005720386E396A38BE396836C0E6FF37C0E1
:1006F000E6FF38C0E6FF39C0E6FF1EEC4BF0E552DE
:10070000E552E552E55257C030FA58C031FA59C0A7
:1007100032FA5AC738F05BC739F05CC73AF03B6A27
:100720003ABE3B6838C0E6FF39C0E6FF3AC0E6FF94
:100730003BC0E6FF6BC73CF06CC73DF06DC73EF0B9
:100740003F6A3EBE3F683CC0E6FF3DC0E6FF3EC09C
:10075000E6FF3FC0E6FF22EC49F0406E080EE15E86
:100760004050F3CF36F0F4CF37F0F3CFE6FFF4CFBD
:10077000E6FFECDDE552E552F3CF35FAF4CF36FA79
:10078000FEC436F0FFC437F0D89036363736386AB4
:1007900037BE386807019A513818E8AE02D03834AD
:1007A00006D03650985D3750995938509A5902E31F
:1007B000000E01D0010E0F016C95E8B06C856C51F4
:1007C000040B53E0110EE96E0F0EEA6EEE500F01AE
:1007D0000E5D396EEE500F593A6EEE5010593B6E69
:1007E0000001800E3B141FE0110EE96E0F0EEA6E41
:1007F000EE500F010E5D366EEE500F59376EEE5013
:100800001059386E5D685E685F6836C058F037C052
:1008100059F05A6E5CEC70F055C036F056C037F0A7
:1008200057C038F00ED0110EE96E0F0EEA6EEE5082
:100830000F010E5D366EEE500F59376EEE501059A7
:10084000386E86C73CF087C73DF03E6A3DBE3E68C5
:1008500038503E18E8AE02D03E3406D03C50365CEC
:100860003D5037583E50385802E3000E01D0010E7B
:100870000F016C93E8B06C830901823501E381D2EA
:1008800081510008000E825501E37BD20801DF513F
:100890000A01355D366E36510801E055376E36C0B7
:1008A000E6FFE66EDDEC47F0E552E552F3CF7FF967
:1008B000F4CF80F99BC739F03A6A3B6A39AE02D06F
:1008C0003A683B6830CA58F031CA59F032CA5AF017
:1008D00039C05DF03AC05EF03BC05FF05CEC70F098
:1008E000D8905750000A06E6000E555C000E565888
:1008F000000E575804E2366A376A386A4FD08AC702
:100900003FF08BC740F0416A40BE41689BC73CF056
:100910003D6A3E6A3CAE02D03D683E6830CA58F03F
:1009200031CA59F032CA5AF03CC05DF03DC05EF0A9
:100930003EC05FF05CEC70F041505718E8AE02D05A
:10094000573406D055503F5C565040585750415888
:1009500009E28AC736F08BC737F0386A37AE1ED047
:1009600038681CD09BC742F0436A446A42AE02D04A
:100970004368446830CA58F031CA59F032CA5AF054
:1009800042C05DF043C05EF044C05FF05CEC70F0CC
:1009900055C036F056C037F057C038F036C08EF923
:1009A00037C08FF90401FA510901365C8C6F0401DC
:1009B000FB51090137588D6F090EE66E81C946F06B
:1009C00082C947F0486A496A47AE02D04868496818
:1009D0009CC742F0436A446A456A42AE03D043680A
:1009E000446845688CC93EF08DC93FF0406A416A51
:1009F0003FAE02D0406841683EC057F03FC058F05B
:100A000040C059F041C05AF042C05CF043C05DF0B4
:100A100044C05EF045C05FF0BAEC74F053C03AF0E9
:100A200054C03BF055C03CF056C03DF053C057F0A9
:100A300054C058F055C059F056C05AF046C05CF04A
:100A400047C05DF048C05EF049C05FF0BAEC74F09A
:100A500053C036F054C037F055C038F056C039F0A6
:100A600053C0E6FF54C0E6FF55C0E6FF56C0E6FFA0
:100A700019EC47F04A6E050EE15E4A5057C090F9F6
:100A800058C091F957C03AF058C03BF03C6A3D6AF3
:100A90003BAE02D03C683D68D8803D50FF0A08E676
:100AA000C00E3A5CFF0E3B58FF0E3C58FF0E3D58FF
:100AB00004E2C00E366E376826D090C93EF091C968
:100AC0003FF0406A416A3FAE02D04068416841341D
:100AD000000E411809E6D880400E3E54000E3F54E7
:100AE000000E4054000E415406E2400E366E376A46
:100AF000386A396A0AD090C936F091C937F0386A35
:100B0000396A37AE02D03868396836C090F937C0D4
:100B100091F98CC7E6FF8DC7E6FF386A396A37AEB0
:100B200002D03868396836C0E6FF37C0E6FF38C003
:100B3000E6FF39C0E6FF90C73AF091C73BF03C6A48
:100B40003D6A3BAE02D03C683D683AC0E6FF3BC020
:100B5000E6FF3CC0E6FF3DC0E6FFC1EC2EF03E6E76
:100B60000A0EE15E3E5057C090F758C091F7080E4C
:100B7000E66E7FC9E6FF80C9E6FF09EC49F0E55261
:100B8000E552F3CF3EF0F4CF3FF0406A416A3FAE0A
:100B900002D04068416890C73AF091C73BF03C6A88
:100BA0003D6A3BAE02D03C683D683AC057F03BC05E
:100BB00058F03CC059F03DC05AF03EC05CF03FC018
:100BC0005DF040C05EF041C05FF0BAEC74F053C01D
:100BD00036F054C037F055C038F056C039F053C025
:100BE000E6FF54C0E6FF55C0E6FF56C0E6FF19EC2D
:100BF00047F0426E050EE15E42505C685D685E68DB
:100C00005F68BAEC74F053C082F454C083F4080EE9
:100C1000E66E7FC9E6FF80C9E6FF90EC48F0E5523A
:100C2000E552F3CF3EF0F4CF3FF0406A416A3FAE69
:100C300002D04068416890C73AF091C73BF03C6AE7
:100C40003D6A3BAE02D03C683D683AC057F03BC0BD
:100C500058F03CC059F03DC05AF03EC05CF03FC077
:100C60005DF040C05EF041C05FF0BAEC74F053C07C
:100C700036F054C037F055C038F056C039F053C084
:100C8000E6FF54C0E6FF55C0E6FF56C0E6FF19EC8C
:100C900047F0426E050EE15E425057C03AF458C02C
:100CA0003BF40F016A51020B68E088C736F089C730
:100CB00037F0386A37BE386838500A013219E8AE62
:100CC00002D0323506D03051365C3151375832516E
:100CD000385853E2BCEC01F0F3CF90F9F4CF91F91E
:100CE0000901906D911F000E91230401800ECB1518
:100CF00002E0FF0E01D0010E366E0901800E911543
:100D000002E0FF0E01D0010E365C04E090C9CAF487
:100D100091C9CBF48EC7E6FF8FC7E6FF90C936F0C6
:100D200091C937F0386A396A37AE02D03868396805
:100D300036C0E6FF37C0E6FF38C0E6FF39C0E6FF41
:100D4000CAC43AF0CBC43BF03C6A3D6A3BAE02D029
:100D50003C683D683AC0E6FF3BC0E6FF3CC0E6FFAA
:100D60003DC0E6FFC1EC2EF03E6E0A0EE15E3E5045
:100D700057C0CAF458C0CBF406D00401CA6BCB6B81
:100D800002D040EC01F00F016F87E552E7CFD9FFA9
:100D900012000F016A51400B13E06A51800B10E002
:100DA0006E51400B0DE06E51200B0AE08DEC6CF0A3
:100DB00058500601A45D5950A5595A50A65902E34E
:100DC000000E01D0010E0F016D9DE8B06D8D6DAD6F
:100DD000D5D16D9F6A976F51080B01E0E1D1755035
:100DE00001E1DED168C758F069C759F06AC75AF007
:100DF00068C75DF069C75EF06AC75FF05CEC70F0D1
:100E000055C03AF056C03BF057C03CF057C758F0B9
:100E100058C759F059C75AF057C75DF058C75EF028
:100E200059C75FF05CEC70F03A505524366E3B5079
:100E30005620376E3C505720386E396A38BE3968B4
:100E400036C0E6FF37C0E6FF38C0E6FF39C0E6FF30
:100E50001EEC4BF0E552E552E552E55257C098F7CB
:100E600058C099F759C09AF757C736F058C737F0A6
:100E700059C738F0396A38BE396836C0E6FF37C01E
:100E8000E6FF38C0E6FF39C0E6FF68C73AF069C739
:100E90003BF06AC73CF03D6A3CBE3D683AC0E6FFA5
:100EA0003BC0E6FF3CC0E6FF3DC0E6FF22EC49F058
:100EB0003E6E080EE15E3E50F3CF96F7F4CF97F703
:100EC000735001E12AD1050A01E1F4D0030A01E1DE
:100ED000BCD0070A01E18AD0030A49E0010A15E003
:100EE000070A01E05DD1E66AE66AE66AE66AE66A52
:100EF000E66A55EC02F0366E060EE15E36506AEC9C
:100F000000F0000901E14CD146D1E66AE66AE66AE2
:100F1000E66AE66AE66A55EC02F0366E060EE15EB7
:100F200036500F016C51010B04E16B51800B01E154
:100F3000F1D011CF36F012CF37F013CF38F0396A35
:100F400038BE3968D8903950000A08E62C0E365C55
:100F5000010E3758000E3858000E395802E2040EC0
:100F6000736E6AEC00F0000901E11AD114D1E66A4F
:100F7000E66AE66AE66AE66AE66A55EC02F0366E0A
:100F8000060EE15E36500F016C51010B04E16B510E
:100F9000800B01E1BFD06CA327D06C51100B01E195
:100FA000FFD08DEC6CF0585006017D5D59507E5994
:100FB0005A507F5901E3F4D08DEC6CF058C036F0F4
:100FC00059C037F05AC038F0396A980E36263A0EB2
:100FD0003722000E3822392236C07DF637C07EF621
:100FE00038C07FF6030EB1D06F9DAED0E66AE66AD8
:100FF000E66AE66AE66AE66A55EC02F0366E060EC6
:10100000E15E36500F016C51010B04E16B51800B16
:1010100001E180D06CA3C4D08DEC6CF058500A0173
:10102000372506017D6F59500A01382106017E6F70
:101030005A500A01392106017F6F20CF0EFF21CFC0
:101040000FFF22CF10FF020E80D029CAE6FF2ACA66
:10105000E6FF2BCAE6FF25CAE6FF26CAE6FF27CA37
:10106000E6FF55EC02F0366E060EE15E36500F01DB
:101070006BAF50D06C51020B01E192D08DEC6CF053
:10108000585006017D5D59507E595A507F5901E3F1
:1010900087D00A012151205D0BE1010E206F20CF86
:1010A0000EFF21CF0FFF22CF10FF0F016F9D4DD0FC
:1010B000202B36D029CAE6FF2ACAE6FF2BCAE6FF54
:1010C00025CAE6FF26CAE6FF27CAE6FF55EC02F06E
:1010D000366E060EE15E36500F016BAF1BD06CA36F
:1010E0005FD08DEC6CF058500A012D2506017D6F04
:1010F00059500A012E2106017E6F5A500A012F21F4
:1011000006017F6F22CA0EFF23CA0FFF24CA10FFF9
:10111000060E1BD092EC01F043D00F016BAF0CD048
:1011200020CAE6FF58DAE55222CA0EFF23CA0FFF93
:1011300024CA10FF050E09D06CA109D020CF0EFFE4
:1011400021CF0FFF22CF10FF010E736E29D06BB994
:1011500002D092EC01F065C7E6FF66C7E6FF67C7FD
:10116000E6FF54C7E6FF55C7E6FF56C7E6FF55EC56
:1011700002F0366E060EE15E365012D06D51800BD5
:1011800006E16C51010B03E16B51800B09E06AEC45
:1011900000F0000903E080EC01F002D040EC01F027
:1011A0000F016E9912008DEC6CF0585006017A5DBB
:1011B00059507B595A507C5925E20F016EA128D015
:1011C000080EE66E87EC73F0E55206017D6B7E6BD0
:1011D0007F6B8DEC6CF058C036F059C037F05AC0B8
:1011E00038F0396AE80E3626030E3722000E382210
:1011F000392236C077F637C078F638C079F6736A88
:10120000746A1200E80E7A27030E7B23000E7C23FB
:101210001200DAEC17F07450040A01E1D0D0040A8D
:1012200061E0010A2DE0030A0BE0010A01E012006F
:1012300066EC01F06AEC00F0000901E1C0D0BAD020
:1012400066EC01F011CF36F012CF37F013CF38F043
:10125000396A38BE3968D8903950000A08E62C0E31
:10126000365C010E3758000E3858000E395802E22D
:10127000030E746E6AEC00F0000901E1A0D09AD070
:1012800066EC01F00F016A8120CF0EFF21CF0FFF26
:1012900022CF10FF8DEC6CF0585006017D5D595047
:1012A0007E595A507F591CE20F016A878DEC6CF011
:1012B00058C036F059C037F05AC038F0396A980E25
:1012C00036263A0E3722000E3822392236C07DF6F5
:1012D00037C07EF638C07FF6030E736E020E6DD0F7
:1012E000D3EF08F08DEC6CF058500601775D595043
:1012F00078595A50795963E20501E42B000EE52331
:101300000F016A51400B17E06E51400B14E06E5113
:10131000200B11E08DEC6CF058C036F059C037F05E
:101320005AC038F0396A880E3626130E3722000E5E
:101330003822392209D08DEC6CF058C036F059C0F3
:1013400037F05AC038F0396A36C07DF637C07EF6BD
:1013500038C07FF68DEC6CF058C036F059C037F0CD
:101360005AC038F0396AE80E3626030E3722000ECE
:101370003822392236C07AF637C07BF638C07CF680
:1013800011CF36F012CF37F013CF38F0396A38BEAC
:101390003968D8903950000A08E62C0E365C010EE8
:1013A0003758000E3858000E395806E20F016C51BC
:1013B000200B02E080EF01F0010E746E12001200AB
:1013C0009CEC55F009019B6F020EE66E87EC73F002
:1013D000E55209019B51330A01E1ACD0010A5CE0FE
:1013E000030A04E0010A01E0F0D0EAD09D6B996B9A
:1013F0009A6BD8909A5104E6000E995D010E9A59A5
:1014000012E29CEC55F009019C6FE8509D1B000E08
:101410009925E96E030E9A21EA6E9CC9EFFF992B7C
:10142000000E9A23E6D79D5130E1996B9A6BD890C4
:101430009A5104E6000E995D010E9A5924E2000EBD
:101440009925E96E030E9A21EA6EEF50E66E99C96E
:1014500036F09AC937F0386A396A37AE02D0386840
:101460003968372A000E3822392236C0E6FF37C0E5
:10147000E6FFFAEC71F0E552E552E5520901992BCD
:10148000000E9A23D4D7060E01D0150EE66E71EC2D
:1014900054F0E55280D999D09D6B996B9A6BFF0EF1
:1014A0009AAF02D0D89003D0995D000E9A5926E2E7
:1014B00099C936F09AC937F0386A396A37AE02D01E
:1014C00038683968372A000E3822392236C0E6FFDC
:1014D00037C0E6FF5DEC71F0E552E55209019C6F03
:1014E000E8509D1B000E9925E96E030E9A21EA6EC5
:1014F0009CC9EFFF992B000E9A23D1D79DC9FFF30A
:10150000996B9A6BD8909A5104E6000E995D010E82
:101510009A5956E2000E9925E96E030E9A21EA6E59
:10152000EF50E66E71EC54F0E5520901992B000E74
:101530009A23E8D79D6B996B9A6B3F0E9AAF02D0B6
:10154000D89003D0995D000E9A591DE2800E99251E
:10155000366EFF0E9A21376E36C0E6FFE66E5DEC02
:1015600071F0E552E55209019C6FE8509D1B000E99
:101570009925E96E030E9A21EA6E9CC9EFFF992B1B
:10158000000E9A23DAD79DC93FF3996B9A6B400EF0
:101590009AAF02D0D89003D0995D000E9A5910E20C
:1015A000000E9925E96E030E9A21EA6EEF50E66E61
:1015B00071EC54F0E5520901992B000E9A23E7D7FC
:1015C000060EE66E71EC54F0E552020EE66E93ECF8
:1015D00073F0E5521200D9CFE6FFE1CFD9FFFE0E3E
:1015E000DBCF36F00A012151E76E3618E8AE02D0A3
:1015F000363403D0E750D880365403E2FE0EDB6A5F
:10160000206BFE0EDB5014E1256B266B276B286BDD
:10161000296B2A6B2B6B2C6B20CF22FA21CF23FA5C
:1016200022CF24FA300E2D6F750E2E6F2F6BABD09C
:10163000FE0EDB040B0DF3CF36F0376A386A396AD9
:1016400036AE03D0376838683968180E3626010E72
:101650003722000E3822392236C09EF937C09FF952
:1016600036C0E6FF37C0E6FFA1EC71F0E552E55267
:1016700057C025FA58C026FA59C027FA5AC028FA86
:10168000040E0901376A9E25366E9F51372236C0F7
:10169000E6FF37C0E6FFA1EC71F0E552E55257C016
:1016A00029FA58C02AFA59C02BFA5AC02CFA080E47
:1016B0000901376A9E25366E9F51372236C0E6FFF4
:1016C00037C0E6FF76EC71F0E552E552F3CF22FA2F
:1016D000F4CF23FA0A01246B23BF2469640E5D6EE4
:1016E0005E6A5F6A22CA58F023CA59F024CA5AF0C7
:1016F0005CEC70F055C022FA56C023FA57C024FAA9
:1017000055C036F056C037F057C038F0396A38BE89
:1017100039683934000E391809E6D880780E365405
:10172000000E3754000E3854000E395405E20A01F9
:10173000780E226F236B246B0A0E0901376A9E25EF
:10174000366E9F51372236C0E6FF37C0E6FF5DECAC
:1017500071F0E552E552576E586A57BE5868596A9B
:101760005A6A58AE02D059685A68E80E5C6E030E89
:101770005D6E5E6A5F6ABAEC74F053C02DFA54C0B5
:101780002EFA55C02FFA0F016C936C956F9DE552A0
:10179000E7CFD9FF12000A01356B366B000E04014A
:1017A000CA6FCB6B826F836B3A6F3B6B0701906F95
:1017B000916B6B6B6C6B6D6B6BC75AF76CC75BF7A0
:1017C0006DC75CF7926B936B946B0F010E6B0F6B95
:1017D000106B736A0F010C6B0D6B0F010A6B0B6BB7
:1017E0000F016C956C936F97320E0701886F896BB0
:1017F0001E0E866F876B090EE66E010EE66E5DECBF
:1018000071F0E552E5520A01216F000EE76E2119D1
:10181000E8AE02D0213503D0E750D880215502E34D
:10182000206B02D0010E206FE66AD5DEE552120071
:10183000F60EE66EBB0EE66E51EC54F0E552E55244
:1018400012000F0171A704D0E50EE66EBB0E03D0A7
:10185000D10EE66EBB0EE66E51EC54F0E552E55249
:1018600012003FCAE6FF40CAE6FF51EC54F0E552D1
:10187000E55212003AEC55F0900EE66EE50EE66E7B
:1018800051EC54F0E552E552820EE66EBB0EE66E68
:1018900051EC54F0E552E552750EE66EBB0EE66E65
:1018A00051EC54F0E552E552DCDF620EE66EBB0E01
:1018B000E66E51EC54F0E552E552200EE66EE66A13
:1018C00000CF36F0376A386A396A00CFE6FF37C092
:1018D000E6FF38C0E6FF39C0E6FF14EC56F03A6E7A
:1018E000060EE15E3A503AEC55F04F0EE66EBB0E36
:1018F000E66E51EC54F0E552E552E66A010EE66EF2
:101900006CCA36F0376A36BE3768386A396A37AE1D
:1019100002D0386839684B0E5C6E5D6A5E6A5F6A39
:1019200036C057F037C058F038C059F039C05AF0B7
:10193000BAEC74F053C036F054C037F055C038F0EC
:1019400056C039F053C0E6FF54C0E6FF55C0E6FF6D
:1019500056C0E6FF14EC56F03A6E060EE15E3A50C1
:10196000370EE66EBB0EE66E51EC54F0E552E552D2
:101970002E0EE66EBB0EE66E51EC54F0E552E552CB
:1019800084EC5EF0240EE66EBB0EE66E51EC54F075
:10199000E552E5522BC9E6FF6EEC58F0E5521B0EFE
:1019A000E66EBB0EE66E51EC54F0E552E55298EC53
:1019B00043F00F0EE66EBB0EE66E51EC54F0E552AE
:1019C000E552E7EC6DF00F016E51400B20E008018D
:1019D000E5511DE0060EE66EBB0EE66E51EC54F0CE
:1019E000E552E552E66AE66A0E0EE66EE66AE66AD9
:1019F000E66A14EC56F0366E060EE15E3650010EC5
:101A0000E66EBB0EE66E51EC54F0E552E552F80E70
:101A1000E66EBA0EE66E51EC54F0E552E5528BECF0
:101A20004BF00801235131E0F50EE66EBA0EE66E7A
:101A300051EC54F0E552E5520601F96B040EF95DE4
:101A40001CE2F951E96EEA6AD890E936EA36B40E3A
:101A5000E926000EEA22EE50ED1004E0EF0EE66EED
:101A6000BA0E03D0EB0EE66EBA0EE66E51EC54F0F1
:101A7000E552E5520601F92BE1D7E80EE66EBA0E03
:101A8000E66E51EC54F0E552E552DE0EE66EBA0E0B
:101A9000E66E51EC54F0E552E552D3DED50EE66E1B
:101AA000BA0EE66E51EC54F0E552E55208010351CE
:101AB000010A02E0010A06E1310E0325E66E71EC2F
:101AC00054F007D0CD0EE66EBA0EE66E51EC54F02F
:101AD000E552E552BF0EE66EBA0EE66E51EC54F0DA
:101AE000E552E552300E0A016A25E66E71EC54F0BB
:101AF000E552AA0EE66EBA0EE66E51EC54F0E552CF
:101B0000E5520F016CA904D0A00EE66EBA0E03D008
:101B1000950EE66EBA0EE66E51EC54F0E552E552C3
:101B20000F016AA304D0870EE66EBA0E03D0770EBB
:101B3000E66EBA0EE66E51EC54F0E552E5520F0136
:101B40006DB108D05C0EE66EBA0EE66E51EC54F044
:101B5000E552E552480EE66EBA0EE66E51EC54F0D0
:101B6000E552E552010E1614010823E00F017151F0
:101B7000080B1FE1130EE66EBA0EE66E51EC54F040
:101B8000E552E552E66AE66A1650366E376A386AFA
:101B9000396A16C0E6FF37C0E6FF38C0E6FF39C035
:101BA000E6FF14EC56F03A6E060EE15E3A503AEC5F
:101BB00055F00F016FBF08D0F40EE66EB90EE66E59
:101BC00051EC54F0E552E5520F016EB508D0D40E39
:101BD000E66EB90EE66E51EC54F0E552E5520F0197
:101BE00071AD08D0B70EE66EB90EE66E51EC54F04A
:101BF000E552E5520F016CBB08D0A90EE66EB90E96
:101C0000E66E51EC54F0E552E5520F016CBD08D080
:101C1000920EE66EB90EE66E51EC54F0E552E552C6
:101C2000090E09012B5D04E00F016A51040B08E065
:101C3000850EE66EB90EE66E51EC54F0E552E552B3
:101C4000040E0901EA5D04E00F016E51200B08E16A
:101C5000770EE66EB90EE66E51EC54F0E552E552A1
:101C60000F016EBD08D0640EE66EB90EE66E51EC43
:101C700054F0E552E5520F016EB108D0440EE66E05
:101C8000B90EE66E51EC54F0E552E5528050100B5F
:101C90000BE00801AF5108E0290EE66EB90EE66EC2
:101CA00051EC54F0E552E5520F016C51010B03E188
:101CB0006B51800B08E0090EE66EB90EE66E51EC32
:101CC00054F0E552E55240C636F041C637F0386A66
:101CD000396A37AE02D038683968D8903950000A6E
:101CE00008E6180E365C000E3758000E3858000E05
:101CF000395808E3F60EE66EB80EE66E51EC54F075
:101D0000E552E55218EF0CF080B884EF16F085EC40
:101D100055F00601FA6FE85002E184EF16F0FAC6BA
:101D2000E6FF57EC75F0E552F3CF36F0F4CF37F01D
:101D3000F350F41007E0FAC6E6FF69EC75F0E552DF
:101D4000F3CFFAF60601FA513F0A02E17AEF16F0F4
:101D5000690A02E177EF16F0110A02E174EF16F05A
:101D60001F0A02E171EF16F00B0A02E16FEF16F0A5
:101D7000010A01E152D1050A01E14DD10D0A01E14B
:101D800038D1170A01E17CD0010A33E0080A06E0E5
:101D9000060A01E01200F29E80EC7EF0D90EE66E9B
:101DA000B80EE66E51EC54F0E552E552B30EE66E15
:101DB000B80EE66E51EC54F0E552E55285EC55F064
:101DC0000601FA6F780EFA5D03E07A0EFA5DF6E12D
:101DD000780EFA5D04E151EC3AF082EF16F0A70EAE
:101DE000E66EB80EE66E51EC54F0E552E55282EF25
:101DF00016F08C0EE66EB80EE66E51EC54F0E5521D
:101E0000E552300E0A016A25E66E71EC54F0E55297
:101E100048EC37F00601FB6B400EFB5D02E382EFFE
:101E200016F0800EE66EB80EE66E51EC54F0E552F8
:101E3000E5520601FB29E66EE66A9DEC54F0E55298
:101E4000E5527C0EE66EB80EE66E51EC54F0E552AB
:101E5000E5520601FB51EA6A000FE96E080EEA221C
:101E6000EFCF36F0376A36BE376836C0E6FF37C088
:101E7000E6FF06EC55F0E552E5520601FB2BCCD708
:101E8000020EE66E87EC73F0E552800EE66EB80E39
:101E9000E66E51EC54F0E552E552ABEC55F0FF0F15
:101EA0000601FB6F7C0EE66EB80EE66E51EC54F048
:101EB000E552E552C6EC55F0F3CFFDF6F4CFFEF651
:101EC0000601D880F45004E7800EFD5DFF0EFE5938
:101ED00004E2800E366E37680FD0FE3509E2FD5100
:101EE0007F08000EFE5504E27F0E366E376A04D07E
:101EF000FDC636F0FEC637F036C0FCF62B0EFB5D95
:101F000009E1FB51EA6AB90FE96E060EEA22010EF9
:101F1000EF6E08D0FB51EA6AB90FE96E060EEA22AD
:101F2000FCC6EFFF3F0EFB5D5EE1080100515BE088
:101F30000601010EE46F030EC56FFB6B400EFB5DE7
:101F40004DE20A016A0524E10601FB51EA6AB90F74
:101F5000E96E060EEA22EF50E66EFB51E66EE66A87
:101F6000FAEC71F0E552E552E5520601FB51F66ECE
:101F7000F76AD890F636F736F30EF626E80EF72213
:101F8000010EF626000EF7220800F55024E012D0CC
:101F90000601FB51F66EF76AD890F636F736F30E67
:101FA000F626E80EF722010EF626000EF7220800AC
:101FB000F55011E1FB51EA6AB90FE96E060EEA220B
:101FC000EF50E66E400EFB25E66EE66AFAEC71F025
:101FD000E552E552E5520601FB2BB0D70F016E85A5
:101FE0000A01010E6B6F020EE66E93EC73F081EF47
:101FF00016F0ABEC55F00601FB6F0A016A510601C1
:10200000FB5D02E184EF16F0FBC66AFA0A01010EDD
:102010006B6F48EF37F0E0EF09F0770EE66EB80E21
:10202000E66E51EC54F0E552E55212C657F013C675
:1020300058F0596A5A6A58AE02D059685A68F40E74
:102040005C6E010E5D6E5E6A5F6ABAEC74F053C03E
:1020500057F054C058F055C059F056C05AF0F00E21
:102060005C6E5D6A5E6A5F6AFBEC6FF0D8805A5006
:10207000FF0A08E6190E575CFC0E5858FF0E595817
:10208000FF0E5A5807E2190E366EFC0E376E38688E
:1020900039686FD012C657F013C658F0596A5A6A99
:1020A00058AE02D059685A68F40E5C6E010E5D6E2F
:1020B0005E6A5F6ABAEC74F053C057F054C058F0CF
:1020C00055C059F056C05AF0F00E5C6E5D6A5E6AFB
:1020D0005F6AFBEC6FF05A34000E5A1809E6D8809C
:1020E000E70E5754030E5854000E5954000E5A541C
:1020F00007E2E70E366E030E376E386A396A39D05A
:1021000012C636F013C637F0386A396A37AE02D0D5
:1021100038683968F40E5C6E010E5D6E5E6A5F6A47
:1021200036C057F037C058F038C059F039C05AF0AF
:10213000BAEC74F053C036F054C037F055C038F0E4
:1021400056C039F0F00E5C6E5D6A5E6A5F6A53C01D
:1021500057F054C058F055C059F056C05AF0FBEC37
:102160006FF057C036F058C037F059C038F05AC039
:1021700039F036C0E6FF37C0E6FF06EC55F0E55211
:10218000E552730EE66EB80EE66E51EC54F0E55271
:10219000E55214C657F015C658F0596A5A6A58AE37
:1021A00002D059685A68F40E5C6E010E5D6E5E6A6C
:1021B0005F6ABAEC74F053C057F054C058F055C081
:1021C00059F056C05AF0F00E5C6E5D6A5E6A5F6A46
:1021D000FBEC6FF0D8805A50FF0A08E6190E575CE6
:1021E000FC0E5858FF0E5958FF0E5A5807E2190EA8
:1021F000366EFC0E376E386839686FD014C657F0EB
:1022000015C658F0596A5A6A58AE02D059685A68C9
:10221000F40E5C6E010E5D6E5E6A5F6ABAEC74F07D
:1022200053C057F054C058F055C059F056C05AF03A
:10223000F00E5C6E5D6A5E6A5F6AFBEC6FF05A34AA
:10224000000E5A1809E6D880E70E5754030E58546A
:10225000000E5954000E5A5407E2E70E366E030E74
:10226000376E386A396A39D014C636F015C637F079
:10227000386A396A37AE02D038683968F40E5C6E55
:10228000010E5D6E5E6A5F6A36C057F037C058F067
:1022900038C059F039C05AF0BAEC74F053C036F077
:1022A00054C037F055C038F056C039F0F00E5C6EAF
:1022B0005D6A5E6A5F6A53C057F054C058F055C0FB
:1022C00059F056C05AF0FBEC6FF057C036F058C0CA
:1022D00037F059C038F05AC039F036C0E6FF37C081
:1022E000E6FF06EC55F0E552E5526F0EE66EB80ECD
:1022F000E66E51EC54F0E552E55216C657F017C69B
:1023000058F0596A5A6A58AE02D059685A68F40EA1
:102310005C6E010E5D6E5E6A5F6ABAEC74F053C06B
:1023200057F054C058F055C059F056C05AF0F00E4E
:102330005C6E5D6A5E6A5F6AFBEC6FF0D8805A5033
:10234000FF0A08E6190E575CFC0E5858FF0E595844
:10235000FF0E5A5807E2190E366EFC0E376E3868BB
:1023600039686FD016C657F017C658F0596A5A6ABE
:1023700058AE02D059685A68F40E5C6E010E5D6E5C
:102380005E6A5F6ABAEC74F053C057F054C058F0FC
:1023900055C059F056C05AF0F00E5C6E5D6A5E6A28
:1023A0005F6AFBEC6FF05A34000E5A1809E6D880C9
:1023B000E70E5754030E5854000E5954000E5A5449
:1023C00007E2E70E366E030E376E386A396A39D087
:1023D00016C636F017C637F0386A396A37AE02D0FB
:1023E00038683968F40E5C6E010E5D6E5E6A5F6A75
:1023F00036C057F037C058F038C059F039C05AF0DD
:10240000BAEC74F053C036F054C037F055C038F011
:1024100056C039F0F00E5C6E5D6A5E6A5F6A53C04A
:1024200057F054C058F055C059F056C05AF0FBEC64
:102430006FF057C036F058C037F059C038F05AC066
:1024400039F036C0E6FF37C0E6FF06EC55F0E5523E
:10245000E5526B0EE66EB80EE66E51EC54F0E552A6
:10246000E55218C657F019C658F0596A5A6A58AE5C
:1024700002D059685A68F40E5C6E010E5D6E5E6A99
:102480005F6ABAEC74F053C057F054C058F055C0AE
:1024900059F056C05AF0F00E5C6E5D6A5E6A5F6A73
:1024A000FBEC6FF0D8805A50FF0A08E6190E575C13
:1024B000FC0E5858FF0E5958FF0E5A5807E2190ED5
:1024C000366EFC0E376E386839686FD018C657F014
:1024D00019C658F0596A5A6A58AE02D059685A68F3
:1024E000F40E5C6E010E5D6E5E6A5F6ABAEC74F0AB
:1024F00053C057F054C058F055C059F056C05AF068
:10250000F00E5C6E5D6A5E6A5F6AFBEC6FF05A34D7
:10251000000E5A1809E6D880E70E5754030E585497
:10252000000E5954000E5A5407E2E70E366E030EA1
:10253000376E386A396A39D018C636F019C637F09E
:10254000386A396A37AE02D038683968F40E5C6E82
:10255000010E5D6E5E6A5F6A36C057F037C058F094
:1025600038C059F039C05AF0BAEC74F053C036F0A4
:1025700054C037F055C038F056C039F0F00E5C6EDC
:102580005D6A5E6A5F6A53C057F054C058F055C028
:1025900059F056C05AF0FBEC6FF057C036F058C0F7
:1025A00037F059C038F05AC039F036C0E6FF37C0AE
:1025B000E6FF06EC55F0E552E552670EE66EB80E02
:1025C000E66E51EC54F0E552E5521AC657F01BC6C0
:1025D00058F0596A5A6A58AE02D059685A68F40ECF
:1025E0005C6E010E5D6E5E6A5F6ABAEC74F053C099
:1025F00057F054C058F055C059F056C05AF0F00E7C
:102600005C6E5D6A5E6A5F6AFBEC6FF0D8805A5060
:10261000FF0A08E6190E575CFC0E5858FF0E595871
:10262000FF0E5A5807E2190E366EFC0E376E3868E8
:1026300039686FD01AC657F01BC658F0596A5A6AE3
:1026400058AE02D059685A68F40E5C6E010E5D6E89
:102650005E6A5F6ABAEC74F053C057F054C058F029
:1026600055C059F056C05AF0F00E5C6E5D6A5E6A55
:102670005F6AFBEC6FF05A34000E5A1809E6D880F6
:10268000E70E5754030E5854000E5954000E5A5476
:1026900007E2E70E366E030E376E386A396A39D0B4
:1026A0001AC636F01BC637F0386A396A37AE02D020
:1026B00038683968F40E5C6E010E5D6E5E6A5F6AA2
:1026C00036C057F037C058F038C059F039C05AF00A
:1026D000BAEC74F053C036F054C037F055C038F03F
:1026E00056C039F0F00E5C6E5D6A5E6A5F6A53C078
:1026F00057F054C058F055C059F056C05AF0FBEC92
:102700006FF057C036F058C037F059C038F05AC093
:1027100039F036C0E6FF37C0E6FF06EC55F0E5526B
:10272000E552630EE66EB80EE66E51EC54F0E552DB
:10273000E5521CC657F01DC658F0596A5A6A58AE81
:1027400002D059685A68F40E5C6E010E5D6E5E6AC6
:102750005F6ABAEC74F053C057F054C058F055C0DB
:1027600059F056C05AF0F00E5C6E5D6A5E6A5F6AA0
:10277000FBEC6FF0D8805A50FF0A08E6190E575C40
:10278000FC0E5858FF0E5958FF0E5A5807E2190E02
:10279000366EFC0E376E386839686FD01CC657F03D
:1027A0001DC658F0596A5A6A58AE02D059685A681C
:1027B000F40E5C6E010E5D6E5E6A5F6ABAEC74F0D8
:1027C00053C057F054C058F055C059F056C05AF095
:1027D000F00E5C6E5D6A5E6A5F6AFBEC6FF05A3405
:1027E000000E5A1809E6D880E70E5754030E5854C5
:1027F000000E5954000E5A5407E2E70E366E030ECF
:10280000376E386A396A39D01CC636F01DC637F0C3
:10281000386A396A37AE02D038683968F40E5C6EAF
:10282000010E5D6E5E6A5F6A36C057F037C058F0C1
:1028300038C059F039C05AF0BAEC74F053C036F0D1
:1028400054C037F055C038F056C039F0F00E5C6E09
:102850005D6A5E6A5F6A53C057F054C058F055C055
:1028600059F056C05AF0FBEC6FF057C036F058C024
:1028700037F059C038F05AC039F036C0E6FF37C0DB
:10288000E6FF06EC55F0E552E5525F0EE66EB80E37
:10289000E66E51EC54F0E552E5521EC657F01FC6E5
:1028A00058F0596A5A6A58AE02D059685A68F40EFC
:1028B0005C6E010E5D6E5E6A5F6ABAEC74F053C0C6
:1028C00057F054C058F055C059F056C05AF0F00EA9
:1028D0005C6E5D6A5E6A5F6AFBEC6FF0D8805A508E
:1028E000FF0A08E6190E575CFC0E5858FF0E59589F
:1028F000FF0E5A5807E2190E366EFC0E376E386816
:1029000039686FD01EC657F01FC658F0596A5A6A08
:1029100058AE02D059685A68F40E5C6E010E5D6EB6
:102920005E6A5F6ABAEC74F053C057F054C058F056
:1029300055C059F056C05AF0F00E5C6E5D6A5E6A82
:102940005F6AFBEC6FF05A34000E5A1809E6D88023
:10295000E70E5754030E5854000E5954000E5A54A3
:1029600007E2E70E366E030E376E386A396A39D0E1
:102970001EC636F01FC637F0386A396A37AE02D045
:1029800038683968F40E5C6E010E5D6E5E6A5F6ACF
:1029900036C057F037C058F038C059F039C05AF037
:1029A000BAEC74F053C036F054C037F055C038F06C
:1029B00056C039F0F00E5C6E5D6A5E6A5F6A53C0A5
:1029C00057F054C058F055C059F056C05AF0FBECBF
:1029D0006FF057C036F058C037F059C038F05AC0C1
:1029E00039F036C0E6FF37C0E6FF06EC55F0E55299
:1029F000E5525B0EE66EB80EE66E51EC54F0E55211
:102A0000E55220C657F021C658F0596A5A6A58AEA6
:102A100002D059685A68F40E5C6E010E5D6E5E6AF3
:102A20005F6ABAEC74F053C057F054C058F055C008
:102A300059F056C05AF0F00E5C6E5D6A5E6A5F6ACD
:102A4000FBEC6FF0D8805A50FF0A08E6190E575C6D
:102A5000FC0E5858FF0E5958FF0E5A5807E2190E2F
:102A6000366EFC0E376E386839686FD020C657F066
:102A700021C658F0596A5A6A58AE02D059685A6845
:102A8000F40E5C6E010E5D6E5E6A5F6ABAEC74F005
:102A900053C057F054C058F055C059F056C05AF0C2
:102AA000F00E5C6E5D6A5E6A5F6AFBEC6FF05A3432
:102AB000000E5A1809E6D880E70E5754030E5854F2
:102AC000000E5954000E5A5407E2E70E366E030EFC
:102AD000376E386A396A39D020C636F021C637F0E9
:102AE000386A396A37AE02D038683968F40E5C6EDD
:102AF000010E5D6E5E6A5F6A36C057F037C058F0EF
:102B000038C059F039C05AF0BAEC74F053C036F0FE
:102B100054C037F055C038F056C039F0F00E5C6E36
:102B20005D6A5E6A5F6A53C057F054C058F055C082
:102B300059F056C05AF0FBEC6FF057C036F058C051
:102B400037F059C038F05AC039F036C0E6FF37C008
:102B5000E6FF06EC55F0E552E552570EE66EB80E6C
:102B6000E66E51EC54F0E552E55222C657F023C60A
:102B700058F0596A5A6A58AE02D059685A68F40E29
:102B80005C6E010E5D6E5E6A5F6ABAEC74F053C0F3
:102B900057F054C058F055C059F056C05AF0F00ED6
:102BA0005C6E5D6A5E6A5F6AFBEC6FF0D8805A50BB
:102BB000FF0A08E6190E575CFC0E5858FF0E5958CC
:102BC000FF0E5A5807E2190E366EFC0E376E386843
:102BD00039686FD022C657F023C658F0596A5A6A2E
:102BE00058AE02D059685A68F40E5C6E010E5D6EE4
:102BF0005E6A5F6ABAEC74F053C057F054C058F084
:102C000055C059F056C05AF0F00E5C6E5D6A5E6AAF
:102C10005F6AFBEC6FF05A34000E5A1809E6D88050
:102C2000E70E5754030E5854000E5954000E5A54D0
:102C300007E2E70E366E030E376E386A396A39D00E
:102C400022C636F023C637F0386A396A37AE02D06A
:102C500038683968F40E5C6E010E5D6E5E6A5F6AFC
:102C600036C057F037C058F038C059F039C05AF064
:102C7000BAEC74F053C036F054C037F055C038F099
:102C800056C039F0F00E5C6E5D6A5E6A5F6A53C0D2
:102C900057F054C058F055C059F056C05AF0FBECEC
:102CA0006FF057C036F058C037F059C038F05AC0EE
:102CB00039F036C0E6FF37C0E6FF06EC55F0E552C6
:102CC000E552530EE66EB80EE66E51EC54F0E55246
:102CD000E552000EE66EE66A06EC55F011D03AEFCA
:102CE0000CF0D7EC3DF00ED08EEC2AF00BD0B3EC0C
:102CF00061F008D02A0EE66EE60EE66E51EC54F056
:0A2D0000E552E55218EF0CF0120046
:062D0A00D9CFE6FFE1CF86
:102D1000D9FF060EE126730EDE6E030EDD6E760E13
:102D2000F36E020EF3CFDBFF010EF36E030EF3CF53
:102D3000DBFF040EDB6A010EF36E050EF3CFDBFF43
:102D40000F0111510E5D2C6F12510F592D6F135140
:102D500010592E6F040EDBCF36F0050EDBCF37F0A7
:102D6000386A37BE38682CCF58F02DCF59F02ECFA7
:102D70005AF036C05DF037C05EF038C05FF05CECF2
:102D800070F055C023FF56C024FF57C025FFDECF8B
:102D90003FF0DDCF40F0416A40BE416809CB3CF0D6
:102DA0000ACB3DF03E6A3DBE3E68020EDBCF39F0F5
:102DB000030EDBCF3AF03B6A3ABE3B682CCF58F0AB
:102DC0002DCF59F02ECF5AF039C05DF03AC05EF0E9
:102DD0003BC05FF05CEC70F000013C50555C366E1F
:102DE0003D505658376E3E505758386E36C058F0E2
:102DF00037C059F05A6E3FC05DF040C05EF041C030
:102E00005FF05CEC70F055C026FF56C027FF57C03E
:102E100028FF09CB59F00ACB5AF0DECF5EF0DDCFA8
:102E20005FF02FEC70F057500B01092758500A2320
:102E30000F0123512625296F245127212A6F25515F
:102E400028212B6F080EE66E29CFE6FF2ACFE6FF7A
:102E5000C9EC46F0E552E552E552F3CF29FFF4CF35
:102E60002AFF0F012B6B2ABF2B691CCF39F01DCF16
:102E70003AF03B6A3ABE3B682B513B18E8AE02D0B1
:102E80003B3406D03950295D3A502A593B502B59D2
:102E900009E21CCF36F01DCF37F0386A37AE1AD0B2
:102EA000386818D02B35000E2B1907E6D880F40EA1
:102EB0002955010E2A55000E2B5506E2F40E366EEA
:102EC000010E376E386A06D029CF36F02ACF37F098
:102ED0002BCF38F036C031FF37C032FF1A51365C85
:102EE0002F6F1B513758306F1DC836F0376A36BE0A
:102EF000376836502F03F3CF33FFF4CF34FF30035E
:102F0000F350342737502F03F3503427090EE66E61
:102F100033CFE6FF34CFE6FFC9EC46F0E552E55289
:102F2000E552F3CF33FFF4CF34FF0F01F4501F19F4
:102F3000E8AE02D01F3504D01E51335D1F51345905
:102F400009E21ECF36F01FCF37F0386A396A37AE44
:102F500023D022D033CF3AF034CF3BF03C6A3D6AE5
:102F60003BAE02D03C683D683D34000E3D1809E69A
:102F7000D8800C0E3A54000E3B54000E3C54000E08
:102F80003D5404E20C0E366E376A04D033CF36F06F
:102F900034CF37F0386A396A36C016FF37C017FFAA
:102FA000060EE15C02E2E16AE552E16EE552E7CF2E
:102FB000D9FF12000F0170A1BED0709177EC76F0AE
:102FC000DAEC36F00F016CAF0DD0A5CA11FFA6CA1E
:102FD00012FF0F01136B12BF1369A7CA1AFFA8CA09
:102FE0001BFF16D00701AF510701B25D0F01116F32
:102FF0000701B0510701B3590F01126F0701B15119
:103000000701B4590F01136FB5C71AFFB6C71BFFED
:10301000030EE66E070E596E5A6A0BCB5EF00CCBB0
:103020005FF02FEC70F057500F011A25366E585094
:103030001B21376E36C0E6FFE66EC9EC46F0E5525E
:10304000E552E552F3CF0BFBF4CF0CFB0F016AA165
:1030500051D06D51800B05E1735005E06D51010BAE
:1030600002E06B8D45D06B51200B1CE10B01800EF3
:103070000C1509E00BCB36F00CCB37F0366C371E55
:10308000000E372204D00BCB36F00CCB37F03734A0
:103090002AE236503E08000E375425E20F016B51EC
:1030A000400B21E16B9D11CF0EFF12CF0FFF13CF0D
:1030B00010FF0F01800E171507E0010E1625166F81
:1030C000000E1721176F120017350AE2165100087B
:1030D000000E175505E2010E165F000E175B120079
:1030E000166B176B12000F016B8D0B010B6B0C6BCA
:1030F00085EF16F0B2C711FFB3C712FFB4C713FFB5
:103100000F01800E171507E0010E1625166F000E31
:103110001721176F0ED017350AE216510008000E5E
:10312000175505E2010E165F000E175B02D0166BF5
:10313000176B0F016B9D12000F016A51100B01E11B
:10314000D3D06D51400B01E0CFD00F01396B395115
:10315000010801E2CDD0030EE66E3EC83FF0406AA2
:10316000416A426A3FAE03D04068416842683FC04E
:10317000E6FF40C0E6FF41C0E6FF42C0E6FF660E44
:10318000E66EE66A3951480DF3CFE9FFF4CFEAFF66
:10319000000EE926040EEA22280EE926000EEA2295
:1031A000EECF3AF0EFCF3BF03C6A3D6A3BAE02D047
:1031B0003C683D683AC0E6FF3BC0E6FF3CC0E6FF26
:1031C0003DC0E6FF1DEC2EF03E6E060EE15E3E5069
:1031D000E552E7CF42F0E552E7CF41F0E552E7CFC5
:1031E00040F0E552E7CF3FF03FC05CF040C05DF0FB
:1031F00041C05EF042C05FF0BAEC74F053C036F0EC
:1032000054C037F055C038F056C039F053C0E6FF0F
:1032100054C0E6FF55C0E6FF56C0E6FF19EC47F084
:10322000436E050EE15E43505C685D685E685F68F2
:10323000BAEC74F053C037FF54C038FF53C03AF0B3
:1032400054C03BF03C6A3D6A3BAE02D03C683D68EE
:10325000D8803D50FF0A08E6E80E3A5CFF0E3B5866
:10326000FF0E3C58FF0E3D5804E2E80E366E3768FC
:1032700026D037CF3EF038CF3FF0406A416A3FAEAC
:1032800002D0406841684134000E411809E6D880F8
:10329000180E3E54000E3F54000E4054000E415490
:1032A00006E2180E366E376A386A396A0AD037CFA6
:1032B00036F038CF37F0386A396A37AE02D038681E
:1032C00039680F013951480DF3CFE9FFF4CFEAFF18
:1032D000000EE926040EEA222F0EE926000EEA224D
:1032E00036C0EFFF392B33D70401776B77C42FF447
:1032F00012000F016D51040B4FE06D51400B4CE07B
:1033000007019A35000E9A1907E6D880960E98554F
:10331000000E9955000E9A553FE20801DF51070152
:10332000965D366E97510801E055376E36C0E6FF60
:10333000E66EA1EC47F0E552E552F3CF3AFFF4CF49
:103340003BFFF3CFE6FFF4CFE6FF12C436F013C421
:1033500037F0386A37BE386836C0E6FF37C0E6FF58
:1033600038C0E6FF5AC439F05BC43AF03B6A3ABE53
:103370003B6839C0E6FF3AC0E6FF3BC0E6FF380EC7
:10338000E66E040EE66E800EE66E040EE66E77ECD8
:103390002FF03C6E0C0E28D06CCAE6FF12C436F03B
:1033A00013C437F0386A37BE386836C0E6FF37C016
:1033B000E6FF38C0E6FF5AC439F05BC43AF03B6A16
:1033C0003ABE3B6839C0E6FF3AC0E6FF3BC0E6FFC5
:1033D000380EE66E040EE66E800EE66E040EE66EA5
:1033E00092EC30F03C6E0B0EE15E3C500F016DBD77
:1033F00002D040EC01F077C438F0396A38BE396841
:1034000004013850825D366E39508359376E36501C
:103410008027375081232FC438F0396A38BE396885
:103420003A513824366E3B513920376E36503827A2
:1034300037503923A251CA25C86FA351CB21C96F78
:103440001200D9CFE6FFE1CFD9FF010EE66EFB0EE9
:10345000DBCF3AF0FC0EDBCF3BF0FD0EDBCFE9FF1C
:10346000FE0EDBCFEAFF220EE926000EEA223A50DA
:10347000EE24366E3B50EE20376E386A396A37AE2E
:1034800002D03868396836C0E6FF37C0E6FF38C07A
:10349000E6FF39C0E6FF19EC47F03C6E050EE15E31
:1034A0003C5057C03CFF58C03DFF59C03EFF5AC07A
:1034B0003FFFFD0EDBCFE9FFFE0EDBCFEAFF220E62
:1034C000E926000EEA22EECF3AF0EFCF3BF03C6A5D
:1034D0003D6A3BAE02D03C683D683A500F013C5D0E
:1034E000366E3B503D59376E3C503E593D503F592A
:1034F000FD0EDBCFE9FFFE0EDBCFEAFF240EE9264F
:10350000000EEA2236C0EEFF37C0EDFFFD0EDBCF26
:10351000E9FFFE0EDBCFEAFF220EE926000EEA22CB
:103520003CCFEEFF3DCFEDFF010EE66EFD0EDBCF93
:10353000E9FFFE0EDBCFEAFF260EE926000EEA22A7
:10354000EECF3CF0EFCF3DF0FD0EDBCFE9FFFE0EFE
:10355000DBCFEAFF240EE926000EEA223C50EE24DF
:10356000386E3D50EE20396E3A6A3B6A39AE02D071
:103570003A683B6838C0E6FF39C0E6FF3AC0E6FF6C
:103580003BC0E6FF19EC47F03E6E050EE15E3E5093
:1035900058C037F0FD0EDBCFE9FFFE0EDBCFEAFFB0
:1035A000240EE926000EEA2257C0EEFF37C0EDFFD9
:1035B000FD0EDBCFE9FFFE0EDBCFEAFF240EE9268E
:1035C000000EEA22EECF36F0EFCF37F0FD0EDBCF64
:1035D000E9FFFE0EDBCFEAFF260EE926000EEA2207
:1035E00036C0EEFF37C0EDFFE552E7CFD9FF12003E
:1035F000D9CFE6FFE1CFD9FFFD0EDBCFE9FFFE0E0D
:10360000DBCFEAFF200EE926000EEA22EECFE6FF2E
:10361000EFCFE6FFFD0EDBCFE6FFFE0EDBCFE6FFD2
:1036200010DFE552E552E552E552050EE66EFD0E5D
:10363000DBCFE9FFFE0EDBCFEAFF240EE926000E0A
:10364000EA22EECF46F0EFCF47F0FD0EDBCFE9FFE9
:10365000FE0EDBCFEAFF0C0EE926000EEA22EECFCB
:1036600048F0EFCF49F0000148504602F3CF42F056
:10367000F4CF43F04702F350432649504602F3503B
:103680004326446A456A43AE02D044684568FD0E4D
:10369000DBCFE9FFFE0EDBCFEAFF080EE926000EC6
:1036A000EA22EECF3EF0EFCF3FF0406A416A3FAEF4
:1036B00002D040684168FD0EDBCFE9FFFE0EDBCF94
:1036C000EAFF200EE926000EEA22EECF3AF0EFCF15
:1036D0003BF03C6A3D6A3BAE02D03C683D683AC074
:1036E00057F03BC058F03CC059F03DC05AF03EC0C6
:1036F0005CF03FC05DF040C05EF041C05FF0BAECEE
:1037000074F0535000014224366E54504320376EFB
:1037100055504420386E56504520396E36C0E6FF6D
:1037200037C0E6FF38C0E6FFE66E19EC47F04A6E98
:10373000050EE15E4A5057C044FF58C045FF59C0CE
:1037400046FF5AC047FFFD0EDBCFE9FFFE0EDBCF81
:10375000EAFF0A0EE926000EEA22EE50ED1010E113
:103760000F01486B496B4A6B4B6BFD0EDBCFE9FFDA
:10377000FE0EDBCFEAFF1A0EEB6A1B0EEB6AC9D016
:10378000090EE66EFD0EDBCFE9FFFE0EDBCFEAFF92
:103790000A0EE926000EEA22EECF3EF0EFCF3FF010
:1037A000406A416A3FAE02D040684168FD0EDBCFFF
:1037B000E9FFFE0EDBCFEAFF1A0EE926000EEA2231
:1037C000EECF3AF0EFCF3BF03C6A3D6A3BAE02D021
:1037D0003C683D683AC057F03BC058F03CC059F0D7
:1037E0003DC05AF03EC05CF03FC05DF040C05EF0AE
:1037F00041C05FF0BAEC74F053C036F054C037F0FB
:1038000055C038F056C039F053C0E6FF54C0E6FF4B
:1038100055C0E6FF56C0E6FF19EC47F0426E050EB4
:10382000E15E425057C040FF58C041FF59C042FFBF
:103830005AC043FFFD0EDBCFE9FFFE0EDBCFEAFFF0
:10384000EECF36F0EFCF37F0366C371E000E372252
:10385000386A396A37AE02D0386839680F01435187
:103860003918E8AE02D0393408D03650405D3750B0
:103870004159385042593950435913E2FD0EDBCFBC
:10388000E9FFFE0EDBCFEAFFEECF48FFEFCF49FFA7
:10389000486D491F000E49234A6B4B6B49AF39D025
:1038A0002DD0FD0EDBCFE9FFFE0EDBCFEAFFEECF22
:1038B0003AF0EFCF3BF03C6A3D6A3BAE02D03C6849
:1038C0003D683D504319E8AE02D0433508D0405121
:1038D0003A5C41513B5842513C5843513D5811E2EA
:1038E000FD0EDBCFE9FFFE0EDBCFEAFFEECF48FF98
:1038F000EFCF49FF4A6B4B6B49AF0BD04A694B691D
:1039000008D040CF48FF41CF49FF42CF4AFF43CFC5
:103910004BFF480EE96E0F0EEA6E4451EE243A6EEC
:103920004551EE203B6E4651EE203C6E4751EE2055
:103930003D6EFD0EDBCFE9FFFE0EDBCFEAFF380E5A
:10394000E926000EEA22EECF3EF0EFCF3FF0406ACC
:10395000416A3FAE02D0406841683E503A5C366EE4
:103960003F503B58376E40503C58386E41503D58A0
:10397000396EFD0EDBCFE9FFFE0EDBCFEAFF440E12
:10398000E926000EEA2236C0EEFF37C0EDFFE55211
:10399000E7CFD9FF1200D9CFE6FFE1CFD9FFFD0E67
:1039A000DBCFE9FFFE0EDBCFEAFF1A0EE926000EA1
:1039B000EA22EECF36F0EFCF37F0386A396A37AE09
:1039C00002D038683968FD0EDBCFE9FFFE0EDBCF91
:1039D000EAFF380EE926000EEA22EECF57F0EFCFCD
:1039E00058F0596A5A6A58AE02D059685A68300E6F
:1039F0005C6E5D6A5E6A5F6ABAEC74F03650535C66
:103A00000F015C6F375054585D6F385055585E6FDA
:103A1000395056585F6FFD0EDBCFE9FFFE0EDBCF4E
:103A2000EAFF080EE926000EEA22EECF36F0EFCFCD
:103A300037F0386A396A37AE02D0386839685CCFF7
:103A400057F05DCF58F05ECF59F05FCF5AF036C0D7
:103A50005CF037C05DF038C05EF039C05FF0BAECA2
:103A600074F053C04CFF54C04DFF55C04EFF56C0BC
:103A70004FFF0F01506B516B526B536B0A0EE66E8A
:103A8000500EE96E0F0EEA6E5350EE24366E54500F
:103A9000EE20376E5550EE20386E5650EE20396EBF
:103AA00036C0E6FF37C0E6FF38C0E6FFE66E19EC29
:103AB00047F03A6E050EE15E3A5057C058FF58C0C5
:103AC00059FF59C05AFF5AC05BFFFD0EDBCFE9FF1B
:103AD000FE0EDBCFEAFF200EE926000EEA22EECF33
:103AE00036F0EFCF37F0386A396A37AE02D038682F
:103AF0003968580EE96E0F0EEA6E3650EE5C0F0113
:103B0000606F3750EE58616F3850EE58626F395021
:103B1000EE58636F60CFE6FF61CFE6FFFD0EDBCFAF
:103B2000E6FFFE0EDBCFE6FF8CDCE552E552E55208
:103B3000E552050EE66EFD0EDBCFE9FFFE0EDBCF94
:103B4000EAFF240EE926000EEA22EECF42F0EFCF84
:103B500043F0FD0EDBCFE9FFFE0EDBCFEAFF0C0EDC
:103B6000E926000EEA22EECF44F0EFCF45F0000147
:103B700044504202F3CF3EF0F4CF3FF04302F35003
:103B80003F2645504202F3503F26406A416A3FAE0D
:103B900002D040684168FD0EDBCFE9FFFE0EDBCFAF
:103BA000EAFF080EE926000EEA22EECF3AF0EFCF48
:103BB0003BF03C6A3D6A3BAE02D03C683D6860CF5A
:103BC00057F061CF58F062CF59F063CF5AF03AC046
:103BD0005CF03BC05DF03CC05EF03DC05FF0BAEC15
:103BE00074F0535000013E24366E54503F20376E1F
:103BF00055504020386E56504120396E36C0E6FF91
:103C000037C0E6FF38C0E6FFE66E19EC47F0466EB7
:103C1000050EE15E465057C054FF58C055FF59C0CD
:103C200056FF5AC057FF000E0F01546D551F552304
:103C3000561F5623571F5723FD0EDBCFE9FFFE0EFD
:103C4000DBCFEAFF440EE926000EEA2254CFEEFF56
:103C500055CFEDFFE552E7CFD9FF12000F016EAD52
:103C60001DD0A0C436F0A1C437F0386A396A37AE27
:103C700002D0386839683934000E391809E6D8801E
:103C8000180E3654000E3754000E3854000E3954B6
:103C900009E2DFC8E1F8E0C8E2F81200DFC8E1F8A5
:103CA000E0C8E2F81200DADF0801DF510801E15D47
:103CB000366EE2510801E055376E36C0E6FFE66E1B
:103CC00076EC6EF0E552E552F3CF08FFF4CF09FF32
:103CD0000F01D880F45004E7E40E085DFF0E095987
:103CE00004E2E40E086F09690DD0093509E20851B4
:103CF0001C08000E095504E21C0E086F096B02D067
:103D000009CF09FF060EE66E94C43DF095C43EF05F
:103D10003F6A3EBE3F6808CF3AF009CF3BF03C6AAD
:103D20003BBE3C683AC058F03BC059F03CC05AF02A
:103D30003DC05DF03EC05EF03FC05FF05CEC70F0F7
:103D400055C036F056C037F057C038F0396A38BE23
:103D5000396836C0E6FF37C0E6FF38C0E6FF39C035
:103D6000E6FF19EC47F0406E050EE15E405057C08B
:103D700064FF58C065FF59C066FFB0C436F0B1C4D7
:103D800037F0386A37BE386836500F01645F3750F5
:103D9000655B3850665B050EE66E98C43AF099C4D0
:103DA0003BF03C6A3BBE3C6864CF58F065CF59F0AD
:103DB00066CF5AF03AC05DF03BC05EF03CC05FF0A9
:103DC0005CEC70F055C036F056C037F057C038F094
:103DD000396A38BE396836C0E6FF37C0E6FF38C0FA
:103DE000E6FF39C0E6FF19EC47F03D6E050EE15ED7
:103DF0003D5057C064FF58C065FF59C066FF92C46C
:103E000036F093C437F0366C371E000E3722386A0E
:103E100037BE38680F0166513818E8AE02D0383422
:103E200006D03650645D37506559385066590CE2FB
:103E300092C464FF93C465FF646D651F000E652323
:103E4000666B65AF20D01BD092C439F093C43AF0B2
:103E50003B6A3ABE3B683B506619E8AE02D0663515
:103E600006D06451395C65513A5866513B5809E2B5
:103E700092C464FF93C465FF666B65AF04D0666946
:103E800002D066CF66FF0401800EC91509E0C8C4E0
:103E900036F0C9C437F0366C371E000E372204D016
:103EA000C8C436F0C9C437F0386A396A37AE02D0B0
:103EB000386839683934000E391809E6D880020E9E
:103EC0003654000E3754000E3854000E395402E3B5
:103ED00073500EE0C8C436F0C9C437F0386A37BE34
:103EE000386836500F01645F3750655B3850665B49
:103EF00064CFD4F465CFD5F4120004011E6B1F6BA0
:103F0000666B676B120079EC19F069EC62F00401E2
:103F1000800E1B1509E01AC43AF01BC43BF03A6C42
:103F20003B1E000E3B2204D01AC43AF01BC43BF0E7
:103F3000800E631509E062C43CF063C43DF03C6C44
:103F40003D1E000E3D2204D062C43CF063C43DF02F
:103F50003B503D18E8AE02D03D3404D03C503A5CB2
:103F60003D503B580DE2800E631505E062C436F00B
:103F700063C437F00CD062C436F063C437F010D09D
:103F8000800E1B1509E01AC436F01BC437F0366CDE
:103F9000371E000E372204D01AC436F01BC437F087
:103FA000386A396A37AE02D038683968D8903950E3
:103FB000000A08E6E80E365C030E3758000E385843
:103FC000000E395802E3000E01D0010E0F016A996C
:103FD000E8B06A89E4EF4FF004012F6B2FC477F447
:103FE0002FC418FF0F01196B18BF196918CF16FFDE
:103FF00019CF17FFF40E1E6F1F69676B6751020818
:104000003EE36751480DF3CF68FFF4CF69FF000E20
:104010006827040E692368CFE9FF69CFEAFF220E03
:10402000E926000EEA22EE6AED6A68CFE9FF69CF61
:10403000EAFF460EE926000EEA22EE6AED6A68CF34
:10404000E9FF69CFEAFF1A0EE926000EEA22EE6ABE
:10405000ED6A68CFE9FF69CFEAFF240EE926000E7A
:10406000EA22EE6AED6A68CFE9FF69CFEAFF260E21
:10407000E926000EEA22EE6AED6A672BBFD77DEFD4
:024080001FF02F
:0E408200D9CFE6FFE1CFD9FFFB0EDBCF57F021
:10409000FC0EDBCF58F0FD0EDBCF59F0FE0EDBCF70
:1040A0005AF03F0E5C6E070E5D6E5E6A5F6ABAEC98
:1040B00074F053C057F054C058F055C059F056C072
:1040C0005AF0100E5C6E270E5D6E5E6A5F6AFBEC46
:1040D0006FF0E552E7CFD9FF1200D9CFE6FFE1CF6D
:1040E000D9FFFB0EDBCF57F0FC0EDBCF58F0FD0EF7
:1040F000DBCF59F0FE0EDBCF5AF03F0E5C6E070EA1
:104100005D6E5E6A5F6ABAEC74F053C057F054C0DB
:1041100058F055C059F056C05AF0A00E5C6E860E8D
:104120005D6E010E5E6E5F6AFBEC6FF0E552E7CFED
:10413000D9FF1200D9CFE6FFE1CFD9FFFB0EDBCFCD
:1041400057F0FC0EDBCF58F0FD0EDBCF59F0FE0E22
:10415000DBCF5AF0A00E5C6E860E5D6E010E5E6EB9
:104160005F6ABAEC74F053C057F054C058F055C0B1
:1041700059F056C05AF03F0E5C6E070E5D6E5E6AD7
:104180005F6AFBEC6FF0E552E7CFD9FF1200D9CFA1
:10419000E6FFE1CFD9FF0901546B556B566B0A015D
:1041A000D35136E1FE0EDBCF53F9FD0EDB50090192
:1041B000D88053552DE354C936F055C937F056C948
:1041C00038F00A0E5D6E5E6A5F6A54C958F055C9D0
:1041D00059F056C95AF05CEC70F009015351EA6A83
:1041E000000FE96E070EEA22EFCF39F03A6A3B6A18
:1041F00055503924546F56503A20556F57503B2034
:10420000566F300E545F000E555B565B532BCDD767
:1042100054C958F055C959F056C95AF0E552E7CF7C
:10422000D9FF1200D9CFE6FFE1CFD9FF0901636BB7
:10423000646B656B666B0A01D35101E0CBD0FE0E57
:10424000DB50040F0901676F6751EA6A000FE96EDE
:10425000070EEA22EF502E0802E0672BF5D7030E77
:10426000675DE66EFE0EDBCFE6FF91DFE552E552BD
:1042700058C057F959C058F95AC059F909015A6B31
:1042800059BF5A696705E66E020E675DE66E7FDF0D
:10429000E552E55258C05BF959C05CF95AC05DF966
:1042A00009015E6B5DBF5E69FD0EDB50D88067550E
:1042B000040814E2050E6725E66E6729E66E67DFDF
:1042C000E552E55258C05FF959C060F95AC061F92A
:1042D0000901626B61AF2BD0626929D0040E67259A
:1042E000E66E6729E66E53DFE552E55258C05FF986
:1042F00059C060F95AC061F90901626B61BF626916
:104300000A0E5C6E5D6A5E6A5F6A5FC957F060C9DB
:1043100058F061C959F062C95AF0BAEC74F053C050
:104320005FF954C060F955C061F956C062F957C9C8
:1043300036F058C937F059C938F05AC939F0800EEB
:104340005C6E8D0E5D6E5B0E5E6E5F6A57C957F0D8
:1043500058C958F059C959F05AC95AF0BAEC74F012
:1043600053C036F054C037F055C038F056C039F05D
:104370005BC93AF05CC93BF05DC93CF05EC93DF0F9
:10438000A00E5C6E860E5D6E010E5E6E5F6A5BC98E
:1043900057F05CC958F05DC959F05EC95AF0BAECE3
:1043A00074F0535036265450372255503822565008
:1043B00039225F0EE96E090EEA6E3650EE240901CD
:1043C000636F3750EE20646F3850EE20656F3950C0
:1043D000EE20666F63C957F064C958F065C959F09B
:1043E00066C95AF0E552E7CFD9FF1200D9CFE6FFF0
:1043F000E1CFD9FF0901686B696B6A6B6B6B0A01CE
:10440000D35101E09AD0FE0EDB28E66EFE0EDBCF24
:10441000E6FFBDDEE552E55258C036F059C037F030
:104420005AC038F0396A38BE3968100E5C6E0E0E0C
:104430005D6E5E6A5F6A36C057F037C058F038C0AC
:1044400059F039C05AF0BAEC74F053C036F054C089
:1044500037F055C038F056C039F053C0E6FF54C0AD
:10446000E6FF55C0E6FF56C0E6FFFE0EDB50030F29
:10447000E66EFE0EDB50020FE66E89DEE552E55277
:10448000E552E7CF39F0E552E7CF38F0E552E7CF14
:1044900037F0E552E7CF36F058C03AF059C03BF05C
:1044A0005AC03CF03C0E5D6E5E6A5F6A5CEC70F078
:1044B00055C03AF056C03BF057C03CF03D6A3CBE98
:1044C0003D683A5036263B5037223C5038223D500A
:1044D000392236C0E6FF37C0E6FF38C0E6FF39C0F4
:1044E000E6FFFD0EDBCFE6FFFE0EDB50040FE66EAF
:1044F0004EDEE552E552E552E7CF39F0E552E7CF1F
:1045000038F0E552E7CF37F0E552E7CF36F058C044
:104510003EF059C03FF05AC040F0416A40BE416889
:1045200036503E240901686F37503F20696F38507C
:1045300040206A6F395041206B6F68C957F069C9D4
:1045400058F06AC959F06BC95AF0E552E7CFD9FF64
:104550001200D0CAD1FA0A01D051EA6A000FE96EFE
:10456000070EEA22EFCF6CF92C0E09016C5D09E011
:104570002A0E6C5D06E00A01CF51D05D02E2D02B1D
:10458000EBD70A01D005D26FD02BD151D25D02E317
:10459000000E01D0010ED36F12000A01D06B50C77C
:1045A000CFFAD7DFD6DFD2CAE6FFD1CAE6FF1EDFD9
:1045B000E552E55257C0D8F458C0D9F459C0DAF4DE
:1045C0005AC0DBF4C6DFD2CAE6FFD1CAE6FF2ADE54
:1045D000E552E55257C0E6F458C0E7F459C0E8F494
:1045E0005AC0E9F4B6DF0A01D151EA6A000FE96E58
:1045F000070EEA22EF50530809E1000E0401E66DB0
:10460000E71FE723E81FE823E91FE923A2DFD2CA57
:10461000E6FFD1CAE6FF06DEE552E55257C0EAF4EE
:1046200058C0EBF459C0ECF45AC0EDF492DF0A0123
:10463000D151EA6A000FE96E070EEA22EF505708DF
:1046400009E1000E0401EA6DEB1FEB23EC1FEC23E4
:10465000ED1FED237EDFD2CAE6FFD1CAE6FF97DD6C
:10466000E552E55258C0FDF474DFD2CAE6FFD1CA64
:10467000E6FF8DDDE552E55258C0FCF46ADF030E1B
:104680000A01D25DE66ED1CAE6FF81DDE552E55250
:1046900058C039F059C03AF05AC03BF00A0E5D6E6E
:1046A0005E6A5F6A5CEC70F055C039F056C03AF053
:1046B00057C03BF055C0E6FF56C0E6FF57C0E6FFC7
:1046C0000A01D205E66ED205E66E61DDE552E552DD
:1046D000E552E7CF3BF0E552E7CF3AF0E552E7CFBE
:1046E00039F039505824366E3A505920376E3B50C5
:1046F0005A20386E36C0FEF437C0FFF42ADF020EAF
:104700000A01D25DE66ED1CAE6FF41DDE552E5520F
:1047100058C036F059C037F05AC038F0396A38BE40
:1047200039680A0E5C6E5D6A5E6A5F6A36C057F071
:1047300037C058F038C059F039C05AF0BAEC74F0AC
:1047400053C036F054C037F055C038F056C039F079
:1047500053C0E6FF54C0E6FF55C0E6FF56C0E6FF73
:10476000D2CAE6FFD2CAE6FF12DDE552E552E552B3
:10477000E7CF39F0E552E7CF38F0E552E7CF37F031
:10478000E552E7CF36F058C03AF059C03BF05AC076
:104790003CF00A0E5D6E5E6A5F6A5CEC70F055C0BC
:1047A0003AF056C03BF057C03CF03D6A3CBE3D6815
:1047B0003A5036263B5037223C5038223D50392261
:1047C00036C0E0F437C0E1F438C0E2F4010E040171
:1047D000FD5D03E3040EFC5D02E2000E01D0010E5C
:1047E0000F016A9DE8B06A8D040E725C63E10501F9
:1047F000DD510401FF19E8AE02D0FF3507D0FE51AC
:104800000501DC5D0401FF510501DD5905E2FEC42F
:10481000DCF5FFC4DDF514D00401FF510501DB19FF
:10482000E8AE02D0DB3507D0DA510401FE5D0501A8
:10483000DB510401FF5904E2FEC4DAF5FFC4DBF5E5
:104840000401FC51366E376A0501D7513718E8AEBE
:1048500002D0373404D03650D65D3750D75906E2EF
:104860000401FC510501D66FD76B15D00401FC5132
:10487000366E376A05013750C719E8AE02D0C73522
:1048800004D0C651365CC751375805E20401FC51CB
:104890000501C66FC76B0401FF3504E2FE510F0826
:1048A000000EFF5502E3000E01D0010E0F016B97C1
:1048B000E8B06B8712000A01D06B50C7CFFA49DE0F
:1048C00048DE47DE0A01D151EA6A000FE96E070EA1
:1048D000EA22EF50410801E03FD10F016A8D39DE35
:1048E000D2CAE6FFD1CAE6FF9DDCE552E55257C0C9
:1048F000E6F458C0E7F459C0E8F45AC0E9F429DEF8
:104900000A01D151EA6A000FE96E070EEA22EF5060
:10491000530809E1000E0401E66DE71FE723E81FD5
:10492000E823E91FE92315DED2CAE6FFD1CAE6FF74
:1049300079DCE552E55257C0EAF458C0EBF459C0AF
:10494000ECF45AC0EDF405DE0A01D151EA6A000F19
:10495000E96E070EEA22EF50570809E1000E040144
:10496000EA6DEB1FEB23EC1FEC23ED1FED23F1DDD4
:10497000080EE66ED2CAE6FF0A01D205E66EC7EC63
:1049800020F0E552E55258C03AF059C03BF05AC009
:104990003CF03D6A3CBE3D683AC0E6FF3BC0E6FFE6
:1049A0003CC0E6FF3DC0E6FF030E0A01D25DE66EA5
:1049B000D1CAE6FFC7EC20F0E552E552E552E7CF59
:1049C0003DF0E552E7CF3CF0E552E7CF3BF0E55252
:1049D000E7CF3AF058C057F059C058F05AC059F0D4
:1049E0005A6A59BE5A68640E5C6E5D6A5E6A5F6A96
:1049F000BAEC74F0535000013A24366E54503B2008
:104A0000376E55503C20386E56503D20396E0D0E95
:104A10005C6E5D6A5E6A5F6A36C057F037C058F0F8
:104A200038C059F039C05AF0BAEC74F053C036F0BF
:104A300054C037F055C038F056C039F053C0E6FFC7
:104A400054C0E6FF55C0E6FF56C0E6FF19EC47F03C
:104A50003E6E050EE15E3E5057C0FAF458C0FBF4BE
:104A600078DD080EE66ED2CAE6FF0A01D205E66ED0
:104A7000C7EC20F0E552E55258C03AF059C03BF07F
:104A80005AC03CF03D6A3CBE3D683AC0E6FF3BC0C0
:104A9000E6FF3CC0E6FF3DC0E6FF030E0A01D25D23
:104AA000E66ED1CAE6FFC7EC20F0E552E552E552CA
:104AB000E7CF3DF0E552E7CF3CF0E552E7CF3BF0E2
:104AC000E552E7CF3AF058C057F059C058F05AC0F5
:104AD00059F05A6A59BE5A68640E5C6E5D6A5E6A25
:104AE0005F6ABAEC74F0535000013A24366E5450A9
:104AF0003B20376E55503C20386E56503D20396E65
:104B00002D0E5C6E5D6A5E6A5F6A36C057F037C014
:104B100058F038C059F039C05AF0BAEC74F053C0AC
:104B200036F054C037F055C038F056C039F053C095
:104B3000E6FF54C0E6FF55C0E6FF56C0E6FF19EC9D
:104B400047F03E6E050EE15E3E5057C0F8F458C087
:104B5000F9F40F01708912000F0170991200D9CF7A
:104B6000E6FFE1CFD9FF245001E198D0020A55E0D9
:104B7000040A33E0010A01E09CD0020E2B5C15E22E
:104B80002C38F00B2C6E410EF36EFE0EDBCFF4FFD3
:104B9000F350F45C04E3FE0EDB50C90F03D0FE0EAD
:104BA000DB50D00F2C262B2A84D025C050F729505B
:104BB0002C5C02E0000E01D0010E0F017293E8B0F0
:104BC000728372A369D00A01CD51010A04E0010A7F
:104BD00063E1E3DC61D06FDE5FD0FE0EDB502A08BC
:104BE00004E12C6A2B6A070E63D0FE0EDB5024080A
:104BF00003E1000E296E59D0FE0EDB50291A255014
:104C0000252AEA6A000FE96E070EEA22FE0EDBCFC4
:104C1000EFFF25504F084DE23FD0FE0EDB50291A22
:104C20002650050DF3CF36F0F4CF37F00E0E3626B2
:104C3000000E372227503624F66E000E3720F76E0E
:104C40000800F550F36EFE0EDB50F35C05E0020E3B
:104C5000265C02E2262AE4D72650050DF3CF36F073
:104C6000F4CF37F00E0E3626000E372227503624AA
:104C7000F66E000E3720F76E0800F550F36EFE0E4C
:104C8000DB50F35C09E1040E275C04E126C0CDFA99
:104C9000060E0ED0272A0DD0246A0BD0FE0EDB5054
:104CA000240807E1000E296E266E276E256E020E7F
:104CB000246EE552E7CFD9FF1200D4CA36F0D5CA28
:104CC00037F0386A396A37AE02D038683968050E6D
:104CD000361801E00ED1375001E00BD1385001E019
:104CE00008D1395001E005D10F016A51400B01E1B3
:104CF00000D18DEC6CF058C086F659C087F65AC0CA
:104D000088F60401B40EE66F140EE76FD90EE86F53
:104D1000F40EE96F3C0EEA6F2D0EEB6FED0EEC6FAB
:104D2000300EED6FD8C4DCF4D9C4DDF4DAC4DEF49F
:104D3000DBC4DFF4E6C4EEF4E7C4EFF4E8C4F0F457
:104D4000E9C4F1F4EAC4F2F4EBC4F3F4ECC4F4F40F
:104D5000F56FE6C471F9E7C472F9E8C473F9E9C400
:104D600074F9C00E5C6E270E5D6E090E5E6E5F6A92
:104D7000E6C457F0E7C458F0E8C459F0E9C45AF063
:104D8000FBEC6FF057C071F958C072F959C073F954
:104D90005AC074F90901800E5A1409E0000E716DB1
:104DA000721F7223731F7323741F742302D074C97C
:104DB00074F971C936F072C937F073C938F074C923
:104DC00039F0F60E5C6E0D0E5D6E5E6A5F6A71C93B
:104DD00057F072C958F073C959F074C95AF0BAEC57
:104DE00074F053C036F054C037F055C038F056C098
:104DF00039F00B0ED8903932383237323632E80675
:104E0000F9E136C071F937C072F938C073F939C0A9
:104E100074F936C0E6FF37C0E6FF09EC49F0E55209
:104E2000E552F3CFF6F4F4CFF7F4E0C4E3F4E1C4D1
:104E3000E4F4E2C4E5F40401FA6BFB6BE0C436F081
:104E4000E1C437F0E2C438F0640E5D6E5E6A5F6AFA
:104E5000E0C458F0E1C459F0E2C45AF0CEEC6FF06F
:104E600058C036F059C037F05AC038F058C0E6FF85
:104E700059C0E6FF0C0EE66E010EE66E36EC72F0DF
:104E8000E552E552E552E552E6C4E6FFE7C4E6FF27
:104E9000E8C4E6FFE9C4E6FF0E0EE66E010EE66E1C
:104EA00066EC72F0366E060EE15E3650EAC4E6FF3E
:104EB000EBC4E6FFECC4E6FFEDC4E6FF120EE66EBF
:104EC000010EE66E66EC72F0366E060EE15E36504E
:104ED0000F016ABF0DD0E66A080EE66EEBEC2BF010
:104EE000E552E552010E0501D86FD96B0F016A8FAB
:104EF0006D8912000F016AAD1DD18DEC6CF058C0A8
:104F000075F959C076F95AC077F9860EE96E060E22
:104F1000EA6EEE50585C366EEE505958376EEE50D1
:104F20005A5836C078F937C079F958C086F659C052
:104F300087F65AC088F6D4CA36F0D5CA37F0386A30
:104F4000396A37AE02D038683968D8903950000ACB
:104F500008E6050E365C000E3758000E3858000E75
:104F6000395822E20F016A9DFEC436F0FFC437F0C3
:104F7000386A396A37AE02D0386839683934000E79
:104F8000391809E6D880190E3654000E3754000E31
:104F90003854000E395405E30A01D42B000ED523F2
:104FA00003D00A01D46BD56B0F016AAF92D0EE0E1D
:104FB000E96E040EEA6EEE500401E65D366EEE50C8
:104FC000E759376EEE50E859386EEE50E959396EB0
:104FD00036C0E6FF37C0E6FF38C0E6FFE66E41ECBC
:104FE00020F0E552E552E552E55257C057F758C058
:104FF00058F759C059F7080EE66EF6C43EF0F7C4EC
:105000003FF0406A416A3FAE02D0406841683EC00E
:10501000E6FF3FC0E6FF40C0E6FF41C0E6FFF20EFC
:10502000E96E040EEA6EEE500401EA5D3A6EEE504F
:10503000EB593B6EEE50EC593C6EEE50ED593D6E27
:105040003AC0E6FF3BC0E6FF3CC0E6FFE66E41EC3F
:1050500020F0E552E552E552E552E552E7CF41F046
:10506000E552E7CF40F0E552E7CF3FF0E552E7CF1A
:105070003EF03EC05CF03FC05DF040C05EF041C01D
:105080005FF0BAEC74F053C036F054C037F055C03E
:1050900038F056C039F053C0E6FF54C0E6FF55C0A3
:1050A000E6FF56C0E6FF19EC47F0050EE15E57C07B
:1050B00068F758C069F759C06AF757C75DF758C70E
:1050C0005EF759C75FF757C06EF758C06FF759C002
:1050D00070F7040E725C37E1C0C536F0C1C537F019
:1050E000386A37BE386838500401E219E8AE02D099
:1050F000E23506D0E051365CE1513758E25138587C
:1051000004E2E0C4C0F5E1C4C1F50501CD510401DC
:10511000FB19E8AE02D0FB3507D0FA510501CC5D92
:105120000401FB510501CD590EE2FAC4CCF5FBC4D4
:10513000CDF51200D4CAFCF4040E725C04E1050142
:10514000D42B000ED523120087EC63F00F0172A35D
:1051500030D0020EE66E87EC73F0E552040EE66E78
:1051600093EC73F0E5520F017293C4DE0F016AAD48
:105170001ED0040EE66E93EC73F0E5520F016F97AC
:105180008DEC6CF058C036F059C037F05AC038F08A
:10519000396AD00E3626070E3722000E3822392201
:1051A00036C08FF637C090F638C091F613D06D9D9B
:1051B0000CD08DEC6CF0585006018F5D5950905911
:1051C0005A50915907E20F016A9D040EE66E87EC72
:1051D00073F0E552020EE66E93EC73F0E5521200A6
:1051E0000A01D06B0401F66B010EF76FFE6BFF6BCB
:1051F000FC6BFCC4FDF4FCC4D8F4D96BDA6BDB6B3C
:10520000000EFA6FFB6BF86FF96BE06FE16BE26B0E
:10521000E1BFE269E66BE76BE86BE96BE6C4EEF4CD
:10522000E7C4EFF4E8C4F0F4E9C4F1F4EA6BEB6B23
:10523000EC6BED6BEAC4F2F4EBC4F3F4ECC4F4F4FD
:10524000EDC4F5F4E66AE66AE66AE66A0E0EE66E14
:10525000010EE66E66EC72F0366E060EE15E3650BA
:10526000E66AE66AE66AE66A120EE66E010EE66E27
:1052700066EC72F0366E060EE15E3650000EE66E9B
:10528000E66A0C0EE66E010EE66E36EC72F0E55242
:10529000E552E552E5520A01D46BD56B0F017293CA
:0852A0006A9D6A9F246A120056
:0852A8007ABA05D0200EE66E73
:1052B00087EC73F004D0200EE66E93EC73F0E552A9
:1052C0000F016EA105D0080EE66E87EC73F004D0D6
:1052D000080EE66E93EC73F0E552800EE66E93ECEA
:1052E00073F0E5528DEC6CF058C0B4F859C0B5F8C5
:1052F0005AC0B6F8F40E0801B427010EB523000E0B
:10530000B62384EC0EF0010E756E03EC6EF0010E08
:10531000756EACEC43F00F016B9D6EA15CD0080E76
:10532000E66E87EC73F0E5520F016EA75ED09FEC3E
:1053300034F042C640F643C641F6000E06013C6F0B
:105340003D6B0601426F436BE4EC4FF08DEC6CF06B
:1053500058500801B45D5950B5595A50B65932E207
:105360000F016D51020B2EE109EC3CF00F016E951F
:10537000E8B06E856C51010B06E16B51800B03E1C7
:105380006E51040B13E17ABE05D0800EE66E87ECF9
:1053900073F004D0800EE66E93EC73F0E5527AB4AD
:1053A00005D0040EE66E87EC73F004D0040EE66EB2
:1053B00093EC73F0E552F40E0801B427010EB52307
:1053C000000EB6230B01000710E116EC3BF00B01B9
:1053D000010E006F0AD0040EE66E87EC73F0E55202
:1053E000080EE66E93EC73F0E55248EC37F00F01CF
:1053F0006E51010B01E185D78050100B04E00801CC
:10540000AF5101E07ED70F017151400B01E079D718
:105410006C51010B01E075D76B51800B01E071D726
:105420006A51040B01E06DD740C636F041C637F033
:10543000386A396A37AE02D038683968D89039503E
:10544000000A08E6180E365C000E3758000E385871
:10545000000E395801E355D76E51040B01E151D7C5
:105460000801AF6B800EE66E93EC73F0E552040E0C
:10547000E66E93EC73F0E552080EE66E87EC73F07F
:10548000E5520F016EAB05D0200EE66E87EC73F08F
:1054900004D0200EE66E93EC73F0E5528DEC6CF0C8
:1054A00058C0B0F859C0B1F85AC0B2F80801B36B8F
:1054B00058C09BF659C09CF65AC09DF658C036F0AD
:1054C00059C037F05AC038F0B3C839F0E80E362664
:1054D000030E3722000E3822392236C077F637C045
:1054E00078F638C079F600CF36F0376A386A396A0C
:1054F000B00EE96E080EEA6EEE503626EE503722F8
:10550000EE503822EE50392236C0B6F637C0B7F624
:1055100038C0B8F60F016A97746A1200BF0EE66EC3
:10552000BC0EE66E51EC54F0E552E5523AEC0CF04C
:10553000D7EC3DF0B3EC61F0B10EE66EBC0EE66E5A
:1055400051EC54F0E552E5520801B86B400EB85DDD
:1055500062E2AD0EE66EBC0EE66E51EC54F0E55222
:10556000E5520801B829E66EE66A9DEC54F0E55272
:10557000E552A90EE66EBC0EE66E51EC54F0E55213
:10558000E5520801B851EA6A000FE96E080EEA22F6
:10559000EFCF36F0376A36BE376836C0E6FF37C021
:1055A000E6FF06EC55F0E552E5520801B851F66EFB
:1055B000F76AD890F636F736F30EF626E80EF7229D
:1055C000010EF626000EF7220800F55007E0A60EA1
:1055D000E66EBC0EE66E51EC54F018D0200EE66E6E
:1055E00071EC54F0E552400E0801B825E66EE66A0B
:1055F0005DEC71F0E552E552366E376A36BE3768BB
:1056000036C0E6FF37C0E6FF06EC55F0E552E5523E
:105610000801B82B9BD712003F0E926E020EC16E8E
:10562000C00E816E400E936E600E826E840E946E7C
:10563000C78CF19E410EE66EE66A3C0EE66E32ECD9
:1056400074F0E552E552E5521200726A0801B96B36
:105650000A0EB95D09E2B951EA6A6A0FE96E0F0EE6
:10566000EA22EF6AB92BF4D70F016D816D896E853F
:105670006D870001F56BF66BF76BF86B06014869F7
:105680007F0E496F48C646F6E8CF47F648C64AF649
:10569000E8CF4BF6140E06013E6F3F6BF00E06018D
:1056A000406F416BD00E0001BF6FC06B7A6A2E0E47
:1056B000E66E93EC73F0E552040EE66E87EC73F041
:1056C000E552800EE66E93EC73F0E5521200D9CFEE
:1056D000E6FFE1CFD9FFFD0EDBCF36F0FE0EDBCFCC
:1056E00037F0386A37BE386836C0E6FF37C0E6FFA5
:1056F00038C0E6FF8DEC6CF0E552E7CF38F0E552AC
:10570000E7CF37F0E552E7CF36F05850362408019E
:10571000BA6F59503720BB6F5A503820BC6FBA2B24
:10572000000EBB23BC238DEC6CF00801BA51585C11
:10573000BB515958BC515A58F6E3E552E7CFD9FF4F
:105740001200D9CFE6FFE1CFD9FFFD0EDBCF36F057
:10575000FE0EDBCF37F0640E3702F3CF37F03602A0
:10576000F3CF36F0F4503726386A37BE386836C083
:10577000E6FF37C0E6FF38C0E6FF8DEC6CF0E5527F
:10578000E7CF38F0E552E7CF37F0E552E7CF36F014
:10579000585036240801BD6F59503720BE6F5A50FB
:1057A0003820BF6F8DEC6CF00801BD51585CBE51C4
:1057B0005958BF515A580BE2020E0F01005DE66EB8
:1057C000E66A85DFE552E552E4EC4FF0EBD7E552AF
:1057D000E7CFD9FF1200D9CFE6FFE1CFD9FF800E86
:1057E000E66E87EC73F0E552FE0EDBCFE6FFE66A6D
:1057F000A8DFE552E552800EE66E93EC73F0E552B9
:10580000FD0EDBCFE6FFE66A9CDFE552E552E5528E
:10581000E7CFD9FF1200D9CFE6FFE1CFD9FF0801CA
:10582000C06BFE0EDB50C05D0AE2080EE66E020E93
:10583000E66ED1DFE552E5520801C02BF2D7E66AE9
:10584000080EE66EC8DFE552E552E552E7CFD9FF14
:1058500012008DEC6CF058C0C1F859C0C2F85AC0A3
:10586000C3F8C10EE96E080EEA6E06019E51EE5CA9
:105870009F51EE58A051EE5801E2BFD0755001E1A2
:10588000BCD0C1C89EF6C2C89FF6C3C8A0F6E80E39
:105890009E27030E9F23000EA023756ABCC057F0FD
:1058A000BDC058F0596A5A6A58AE02D059685A6851
:1058B000040E5C6E5D6A5E6A5F6ABAEC74F053C097
:1058C000EDF054C0EEF09B0EE96E060EEA6EEE505F
:1058D0000801C15D3D6EEE50C2593E6EEE50C35997
:1058E0003F6E53C03AF054C03BF03C6A3BBE3C684C
:1058F0003AC058F03BC059F03CC05AF03DC05DF092
:105900003EC05EF03FC05FF05CEC70F0396A55500D
:105910000001F5275650F6235750F7233950F82346
:10592000C1C89BF6C2C89CF6C3C89DF6F5C036F048
:10593000F6C037F0F7C038F0F8C039F05C6A400EB6
:105940005D6E380E5E6E5F6AF5C057F0F6C058F0B7
:10595000F7C059F0F8C05AF0FBEC6FF057C036F0C2
:1059600058C037F059C038F05AC039F0320E5C6E6A
:105970005D6A5E6A5F6ABAEC74F053C036F054C078
:1059800037F055C038F056C039F053C0F3F054C06A
:10599000F4F0E66A29EC75F0E552F3CFC4F8F4CFE1
:1059A000C5F8010EE66E0001EB510801F324366ED6
:1059B0000001EC510801F420376E36C0E6FFE66EB8
:1059C000C9EC46F0E552E552E552F3CFEBF0F4CFE7
:1059D000ECF00001F450F019E8AE02D0F03504D03C
:1059E000EF51EB5DF051EC5902E3000E01D0010ED6
:1059F000010B0F016A9BE8B06A8B1200755001E140
:105A0000BDD0756A0F016A51200B11E16A51080B74
:105A10000EE16A51010B06E06B51400B03E071513E
:105A2000100B05E1030E725C02E0000E01D0010EC6
:105A30007093E8B0708370A392D06AAB0AD00B0168
:105A4000580E016F020E026F580E036F020E046FA4
:105A500021D06A51010B0CE06B51400B09E07151F0
:105A6000100B06E0C80E0B01016F026B140E10D074
:105A7000030E725C07E10B018E0E016F120E026FB6
:105A8000FA0E06D06AA706D07D0E0B01016F026BDD
:105A9000036F046B8DEC6CF058500601A75D5950F4
:105AA000A8595A50A9596AE27AAE2CD001CB36F0E7
