:020000040000FA
:0600000040EF79F0120050
:020006001200E6
:06000800AAEF6DF01200EA
:02000E00475059
:080010004747414750524D43A0
:06001800A3EF6DF01200E1
:02001E000E00D2
:1000200080F30000B60A00000A00000053EF000051
:10003000FF0600000100000079F30000E00A000064
:100040000700000075F30000000B00000400000032
:1000500073F300007E0F0000020000008BEC000034
:10006000FF000000010000006EF30000F30A000032
:100070000500000054F300003D0A00001A000000D3
:1000800032F30000C2090000220000002AF3000041
:10009000C90A0000080000001EF300009E0A0000CC
:1000A0000C0000000AF30000EB0700001400000041
:1000B000E8F20000A009000022000000E2F20000C7
:0800C000E70A00000600000041
:0800C8000901836B0A015A8152
:1000D00057810F01300E0E6FF80E0F6F10690F0170
:1000E000100E1E6F1F690A0159AB4BD036C63CF685
:1000F00037C63DF611CF36F012CF37F013CF38F0B8
:10010000396A38BE39683934000E391809E6D880A2
:100110002C0E3654010E3754000E3854000E39544C
:1001200016E294EC6DF058C036F059C037F05AC062
:1001300038F0396A980E36263A0E3722000E3822E9
:10014000392236C07DF637C07EF638C07FF694EC93
:100150006DF0585006017D5D59507E595A507F59B7
:100160000AE20A015A51800B08E1040E735C05E0B3
:10017000030E745C02E0000E01D0010E0901836FD2
:100180006BD009017B510601365D366E375109018E
:100190007C55376E0001800E371403E006013C6B7E
:1001A00013D009017B510601365D386E37510901C4
:1001B0007C55396EE8340AE23850D008000E3954C4
:1001C00005E20601D00E3C6F3D6B0BD07B51060162
:1001D000365D06013C6F09017C5106013759060165
:1001E0003D6F94EC6DF058500601805D5950815977
:1001F0005A50825931E294EC6DF058C036F059C033
:1002000037F05AC038F0396AE80E3626030E372226
:10021000000E3822392236C080F637C081F638C049
:1002200082F606013D5106013F19E8AE02D03F3586
:1002300007D03E5106013C5D06013F5106013D5984
:1002400002E3000E01D0010E0901836FE85004E1C2
:10025000050E7B27000E7C23090183511200E7EC79
:1002600039F02E0EE66E83EC76F0E552736A030EDB
:10027000726E1200050EE66EE66A3AC4E6FF3BC4F3
:10028000E6FF25EC2FF0E552E552E552E552F3CFBB
:100290003AF4F4CF3BF4050EE66EE66A82C4E6FF5C
:1002A00083C4E6FF25EC2FF0E552E552E552E55216
:1002B000F3CF82F4F4CF83F40401CA6BCB6B12004A
:1002C000000E0401A26FA36B5A6F5B6B126F136B6E
:1002D00062C7E6FF63C7E6FF64C7E6FF51C7E6FFF4
:1002E00052C7E6FF53C7E6FFDAD8366E060EE15E68
:1002F00036501200E7EC39F00A015787030E726E90
:10030000746E17EC2DF0ECEC2DF03AEC4CF077EC31
:1003100029F019EC54F0F5D70A015C9757C754F748
:1003200058C755F759C756F768C765F769C766F7DD
:100330006AC767F75A99599559935C9D736A120079
:10034000D9CFE6FFE1CFD9FF0701926B936B946B96
:10035000FD0EDBCF36F0FE0EDBCF37F036C0F3FFFD
:1003600037C0F4FFE552E7CFD9FF12000A018051F0
:1003700009017F5D366E80510A018155376E36C0A6
:10038000E6FFE66E6BEC50F0E552E552F3CF84F9F0
:10039000F4CF85F90901D880F45004E7E40E845DB8
:1003A000FF0E855904E2E40E846F85690DD0853512
:1003B00009E284511C08000E855504E21C0E846F6E
:1003C000856B02D085C985F9090EE66E81C946F0B4
:1003D00082C947F0486A496A47AE02D0486849680E
:1003E0009DC742F0436A446A456A42AE03D04368FF
:1003F0004468456884C93EF085C93FF0406A416A57
:100400003FAE02D0406841683EC057F03FC058F050
:1004100040C059F041C05AF042C05CF043C05DF0AA
:1004200044C05EF045C05FF0AAEC77F053C03AF0EC
:1004300054C03BF055C03CF056C03DF053C057F09F
:1004400054C058F055C059F056C05AF046C05CF040
:1004500047C05DF048C05EF049C05FF0AAEC77F09D
:1004600053C036F054C037F055C038F056C039F09C
:1004700053C0E6FF54C0E6FF55C0E6FF56C0E6FF96
:10048000A7EC4FF04A6E050EE15E4A5057C084F962
:1004900058C085F957C0F3FF58C0F4FF1200D9CFF8
:1004A000E6FFE1CFD9FF94EC6DF058C086F959C052
:1004B00087F95AC088F90901896B89C63AF08AC65A
:1004C0003BF08BC63CF03D6A3A50585C366E3B5070
:1004D0005958376E3C505A58386E3D508959396ECC
:1004E00036C03AFA37C03BFA38C03CFA58C089F6F1
:1004F00059C08AF65AC08BF684C736F085C737F0E4
:10050000386A396A37AE02D038683968480E365EC4
:10051000000E375A385A395A36C081F937C082F935
:10052000800E371403E0816B826B0DD0823509E2B7
:1005300081510008010E825504E2816B010E826F29
:1005400002D082C982F9FC0EDBCF51F7FD0EDBCF62
:1005500052F7FE0EDBCF53F7F90EDBCF62F7FA0E40
:10056000DBCF63F7FB0EDBCF64F707015751515D1B
:100570005A6F585152595B6F595153595C6F6851BA
:10058000625D6B6F695163596C6F6A5164596D6F2D
:10059000800E5C1518E05AC792F95BC793F95CC7E7
:1005A00094F95D685E685F685AC758F05BC759F098
:1005B0005CC75AF063EC71F055C092F956C093F9DC
:1005C00057C094F906D05AC792F95BC793F95CC734
:1005D00094F90701800E6D1518E06BC795F96CC78B
:1005E00096F96DC797F95D685E685F686BC758F0EC
:1005F0006CC759F06DC75AF063EC71F055C095F9AE
:1006000056C096F957C097F906D06BC795F96CC7D5
:1006100096F96DC797F9920EE96E090EEA6E020E11
:10062000EB5009019719E8AE02D0973506D09551E5
:10063000EE5C9651EE589751EE5807E295C930FAA4
:1006400096C931FA97C932FA06D092C930FA93C9DD
:1006500031FA94C932FA30CA36F031CA37F032CAA8
:1006600038F0396A38BE3968D8903950000A08E63F
:10067000500E365C0B0E3758000E3858000E3958A5
:1006800042E295C958F096C959F097C95AF095C9F0
:100690005DF096C95EF097C95FF063EC71F055C0EC
:1006A0003AF056C03BF057C03CF092C958F093C99D
:1006B00059F094C95AF092C95DF093C95EF094C99B
:1006C0005FF063EC71F03A505524366E3B50562083
:1006D000376E3C505720386E396A38BE396836C09C
:1006E000E6FF37C0E6FF38C0E6FF39C0E6FFACECF6
:1006F00053F0E552E552E552E55257C030FA58C082
:1007000031FA59C032FA5AC738F05BC739F05CC7C2
:100710003AF03B6A3ABE3B6838C0E6FF39C0E6FFB4
:100720003AC0E6FF3BC0E6FF6BC73CF06CC73DF04C
:100730006DC73EF03F6A3EBE3F683CC0E6FF3DC02D
:10074000E6FF3EC0E6FF3FC0E6FFB0EC51F0406E72
:10075000080EE15E4050F3CF36F0F4CF37F0F3CF20
:10076000E6FFF4CFE6FFECDDE552E552F3CF35FAD4
:10077000F4CF36FAFEC436F0FFC437F0D8903636E0
:100780003736386A37BE386807019A513818E8AEEC
:1007900002D0383406D03650985D375099593850C9
:1007A0009A5902E3000E01D0010E0A015995E8B0F2
:1007B00059855951040B53E0110EE96E0F0EEA6E84
:1007C000EE500F010E5D396EEE500F593A6EEE503D
:1007D00010593B6E0001800E3B141FE0110EE96EB4
:1007E0000F0EEA6EEE500F010E5D366EEE500F5991
:1007F000376EEE501059386E5D685E685F6836C0BF
:1008000058F037C059F05A6E63EC71F055C036F0AD
:1008100056C037F057C038F00ED0110EE96E0F0EEB
:10082000EA6EEE500F010E5D366EEE500F59376EC8
:10083000EE501059386E86C73CF087C73DF03E6ACF
:100840003DBE3E6838503E18E8AE02D03E3406D079
:100850003C50365C3D5037583E50385802E3000E4D
:1008600001D0010E0A015993E8B05983090182357C
:1008700001E381D281510008000E825501E37BD251
:100880000801DF510A01355D366E36510801E05529
:10089000376E36C0E6FFE66E6BEC50F0E552E5527F
:1008A000F3CF7FF9F4CF80F99BC739F03A6A3B6AFE
:1008B00039AE02D03A683B6830CA58F031CA59F0B4
:1008C00032CA5AF039C05DF03AC05EF03BC05FF00A
:1008D00063EC71F0D8905750000A06E6000E555CA4
:1008E000000E5658000E575804E2366A376A386AC6
:1008F0004FD08AC73FF08BC740F0416A40BE416885
:100900009BC73CF03D6A3E6A3CAE02D03D683E6803
:1009100030CA58F031CA59F032CA5AF03CC05DF0C2
:100920003DC05EF03EC05FF063EC71F0415057187F
:10093000E8AE02D0573406D055503F5C5650405870
:100940005750415809E28AC736F08BC737F0386AEA
:1009500037AE1ED038681CD09BC742F0436A446A49
:1009600042AE02D04368446830CA58F031CA59F0E8
:1009700032CA5AF042C05DF043C05EF044C05FF03E
:1009800063EC71F055C036F056C037F057C038F000
:1009900036C08EF937C08FF90401FA510901365C6F
:1009A0008C6F0401FB51090137588D6F090EE66EFB
:1009B00081C946F082C947F0486A496A47AE02D009
:1009C000486849689CC742F0436A446A456A42AE37
:1009D00003D04368446845688CC93EF08DC93FF038
:1009E000406A416A3FAE02D0406841683EC057F05D
:1009F0003FC058F040C059F041C05AF042C05CF0CE
:100A000043C05DF044C05EF045C05FF0AAEC77F0F3
:100A100053C03AF054C03BF055C03CF056C03DF0D6
:100A200053C057F054C058F055C059F056C05AF052
:100A300046C05CF047C05DF048C05EF049C05FF062
:100A4000AAEC77F053C036F054C037F055C038F0F8
:100A500056C039F053C0E6FF54C0E6FF55C0E6FF6C
:100A600056C0E6FFA7EC4FF04A6E050EE15E4A5015
:100A700057C090F958C091F957C03AF058C03BF0B0
:100A80003C6A3D6A3BAE02D03C683D68D8803D5030
:100A9000FF0A08E6C00E3A5CFF0E3B58FF0E3C58BA
:100AA000FF0E3D5804E2C00E366E376826D090C95E
:100AB0003EF091C93FF0406A416A3FAE02D04068C3
:100AC00041684134000E411809E6D880400E3E547A
:100AD000000E3F54000E4054000E415406E2400EFA
:100AE000366E376A386A396A0AD090C936F091C9C9
:100AF00037F0386A396A37AE02D03868396836C09C
:100B000090F937C091F98CC7E6FF8DC7E6FF386AC8
:100B1000396A37AE02D03868396836C0E6FF37C068
:100B2000E6FF38C0E6FF39C0E6FF90C73AF091C74C
:100B30003BF03C6A3D6A3BAE02D03C683D683AC03F
:100B4000E6FF3BC0E6FF3CC0E6FF3DC0E6FF27EC0A
:100B500030F03E6E0A0EE15E3E5057C090F758C02E
:100B600091F7080EE66E7FC9E6FF80C9E6FF97ECB5
:100B700051F0E552E552F3CF3EF0F4CF3FF0406A3A
:100B8000416A3FAE02D04068416890C73AF091C7D1
:100B90003BF03C6A3D6A3BAE02D03C683D683AC0DF
:100BA00057F03BC058F03CC059F03DC05AF03EC031
:100BB0005CF03FC05DF040C05EF041C05FF0AAEC69
:100BC00077F053C036F054C037F055C038F056C0F7
:100BD00039F053C0E6FF54C0E6FF55C0E6FF56C0EB
:100BE000E6FFA7EC4FF0426E050EE15E42505C68F6
:100BF0005D685E685F68AAEC77F053C082F454C009
:100C000083F4080EE66E7FC9E6FF80C9E6FF1EEC9E
:100C100051F0E552E552F3CF3EF0F4CF3FF0406A99
:100C2000416A3FAE02D04068416890C73AF091C730
:100C30003BF03C6A3D6A3BAE02D03C683D683AC03E
:100C400057F03BC058F03CC059F03DC05AF03EC090
:100C50005CF03FC05DF040C05EF041C05FF0AAECC8
:100C600077F053C036F054C037F055C038F056C056
:100C700039F053C0E6FF54C0E6FF55C0E6FF56C04A
:100C8000E6FFA7EC4FF0426E050EE15E425057C002
:100C90003AF458C03BF40A015751020B68E088C788
:100CA00036F089C737F0386A37BE386838500A01DD
:100CB0003219E8AE02D0323506D03051365C3151AF
:100CC00037583251385853E2B6EC01F0F3CF90F96F
:100CD000F4CF91F90901906D911F000E9123040149
:100CE000800ECB1502E0FF0E01D0010E366E090119
:100CF000800E911502E0FF0E01D0010E365C04E07B
:100D000090C9CAF491C9CBF48EC7E6FF8FC7E6FF3E
:100D100090C936F091C937F0386A396A37AE02D0D7
:100D20003868396836C0E6FF37C0E6FF38C0E6FFEE
:100D300039C0E6FFCAC43AF0CBC43BF03C6A3D6A16
:100D40003BAE02D03C683D683AC0E6FF3BC0E6FFE0
:100D50003CC0E6FF3DC0E6FF27EC30F03E6E0A0ED9
:100D6000E15E3E5057C0CAF458C0CBF406D004012F
:100D7000CA6BCB6B02D03AEC01F00A015C87E552FA
:100D8000E7CFD9FF12000A015751400B13E057512A
:100D9000800B10E05B51400B0DE05B51200B0AE033
:100DA00094EC6DF058500601A45D5950A5595A5065
:100DB000A65902E3000E01D0010E0A015A9DE8B0C7
:100DC0005A8D5AADD5D15A9F57975C51080B01E007
:100DD000E1D1755001E1DED168C758F069C759F01B
:100DE0006AC75AF068C75DF069C75EF06AC75FF00E
:100DF00063EC71F055C03AF056C03BF057C03CF080
:100E000057C758F058C759F059C75AF057C75DF03F
:100E100058C75EF059C75FF063EC71F03A50552443
:100E2000366E3B505620376E3C505720386E396A2C
:100E300038BE396836C0E6FF37C0E6FF38C0E6FF87
:100E400039C0E6FFACEC53F0E552E552E552E5520D
:100E500057C098F758C099F759C09AF757C736F056
:100E600058C737F059C738F0396A38BE396836C0C4
:100E7000E6FF37C0E6FF38C0E6FF39C0E6FF68C7C7
:100E80003AF069C73BF06AC73CF03D6A3CBE3D683A
:100E90003AC0E6FF3BC0E6FF3CC0E6FF3DC0E6FFD0
:100EA000B0EC51F03E6E080EE15E3E50F3CF96F787
:100EB000F4CF97F7735001E12AD1050A01E1F4D08C
:100EC000030A01E1BCD0070A01E18AD0030A49E024
:100ED000010A15E0070A01E05DD1E66AE66AE66A02
:100EE000E66AE66AE66A4FEC02F0366E060EE15EEE
:100EF000365064EC00F0000901E14CD146D1E66ABD
:100F0000E66AE66AE66AE66AE66A4FEC02F0366E80
:100F1000060EE15E36500A015951010B04E15851A9
:100F2000800B01E1F1D011CF36F012CF37F013CFA3
:100F300038F0396A38BE3968D8903950000A08E666
:100F40002C0E365C010E3758000E3858000E3958FA
:100F500002E2040E736E64EC00F0000901E11AD1A4
:100F600014D1E66AE66AE66AE66AE66AE66A4FEC81
:100F700002F0366E060EE15E36500A015951010B41
:100F800004E15851800B01E1BFD059A327D059513A
:100F9000100B01E1FFD094EC6DF0585006017D5D1F
:100FA00059507E595A507F5901E3F4D094EC6DF0BA
:100FB00058C036F059C037F05AC038F0396A980E28
:100FC00036263A0E3722000E3822392236C07DF6F8
:100FD00037C07EF638C07FF6030EB1D05C9DAED030
:100FE000E66AE66AE66AE66AE66AE66A4FEC02F0F4
:100FF000366E060EE15E36500A015951010B04E1CE
:101000005851800B01E180D059A3C4D094EC6DF00D
:1010100058500A01372506017D6F59500A013821C1
:1010200006017E6F5A500A01392106017F6F20CFD9
:101030000EFF21CF0FFF22CF10FF020E80D029CA52
:10104000E6FF2ACAE6FF2BCAE6FF25CAE6FF26CA44
:10105000E6FF27CAE6FF4FEC02F0366E060EE15EB1
:1010600036500A0158AF50D05951020B01E192D0CD
:1010700094EC6DF0585006017D5D59507E595A50E0
:101080007F5901E387D00A012151205D0BE1010E58
:10109000206F20CF0EFF21CF0FFF22CF10FF0A01BC
:1010A0005C9D4DD0202B36D029CAE6FF2ACAE6FF28
:1010B0002BCAE6FF25CAE6FF26CAE6FF27CAE6FFD7
:1010C0004FEC02F0366E060EE15E36500A0158AF64
:1010D0001BD059A35FD094EC6DF058500A012D2518
:1010E00006017D6F59500A012E2106017E6F5A506C
:1010F0000A012F2106017F6F22CA0EFF23CA0FFFAC
:1011000024CA10FF060E1BD08CEC01F043D00A015C
:1011100058AF0CD020CAE6FF58DAE55222CA0EFFBB
:1011200023CA0FFF24CA10FF050E09D059A109D008
:1011300020CF0EFF21CF0FFF22CF10FF010E736EC5
:1011400029D058B902D08CEC01F065C7E6FF66C71C
:10115000E6FF67C7E6FF54C7E6FF55C7E6FF56C779
:10116000E6FF4FEC02F0366E060EE15E365012D00E
:101170005A51800B06E15951010B03E15851800B84
:1011800009E064EC00F0000903E07AEC01F002D021
:101190003AEC01F00A015B99120094EC6DF05850A2
:1011A00006017A5D59507B595A507C5925E20A0153
:1011B0005BA128D0080EE66E77EC76F0E5520601CA
:1011C0007D6B7E6B7F6B94EC6DF058C036F059C030
:1011D00037F05AC038F0396AE80E3626030E372247
:1011E000000E3822392236C077F637C078F638C07C
:1011F00079F6736A746A1200E80E7A27030E7B236D
:10120000000E7C23120067EC0DF07450040A01E11B
:10121000D0D0040A61E0010A2DE0030A0BE0010AC4
:1012200001E0120060EC01F064EC00F0000901E163
:10123000C0D0BAD060EC01F011CF36F012CF37F049
:1012400013CF38F0396A38BE3968D8903950000A5F
:1012500008E62C0E365C010E3758000E3858000E8A
:10126000395802E2030E746E64EC00F0000901E1EB
:10127000A0D09AD060EC01F00A01578120CF0EFF78
:1012800021CF0FFF22CF10FF94EC6DF058500601D4
:101290007D5D59507E595A507F591CE20A0157878B
:1012A00094EC6DF058C036F059C037F05AC038F0A1
:1012B000396A980E36263A0E3722000E3822392225
:1012C00036C07DF637C07EF638C07FF6030E736EEB
:1012D000020E6DD0CDEF08F094EC6DF05850060181
:1012E000775D595078595A50795963E20501E42BDA
:1012F000000EE5230A015751400B17E05B51400BEC
:1013000014E05B51200B11E094EC6DF058C036F006
:1013100059C037F05AC038F0396A880E3626130E95
:101320003722000E3822392209D094EC6DF058C0D3
:1013300036F059C037F05AC038F0396A36C07DF6F9
:1013400037C07EF638C07FF694EC6DF058C036F0AA
:1013500059C037F05AC038F0396AE80E3626030E05
:101360003722000E3822392236C07AF637C07BF693
:1013700038C07CF611CF36F012CF37F013CF38F0EB
:10138000396A38BE3968D8903950000A08E62C0E00
:10139000365C010E3758000E3858000E395806E2F8
:1013A0000A015951200B02E07AEF01F0010E746E30
:1013B000120012007AEC59F009019B6F020EE66EE2
:1013C00077EC76F0E55209019B51330A01E1ACD08C
:1013D000010A5CE0030A04E0010A01E0F0D0EAD06F
:1013E0009D6B996B9A6BD8909A5104E6000E995DAB
:1013F000010E9A5912E27AEC59F009019C6FE850FB
:101400009D1B000E9925E96E030E9A21EA6E9CC978
:10141000EFFF992B000E9A23E6D79D5130E1996B8F
:101420009A6BD8909A5104E6000E995D010E9A5974
:1014300024E2000E9925E96E030E9A21EA6EEF5020
:10144000E66E99C936F09AC937F0386A396A37AE0C
:1014500002D038683968372A000E3822392236C05F
:10146000E6FF37C0E6FF01EC73F0E552E552E552C6
:101470000901992B000E9A23D4D7060E01D0150E20
:10148000E66E4FEC58F0E55280D999D09D6B996B80
:101490009A6BFF0E9AAF02D0D89003D0995D000EE0
:1014A0009A5926E299C936F09AC937F0386A396AEA
:1014B00037AE02D038683968372A000E3822392210
:1014C00036C0E6FF37C0E6FF64EC72F0E552E55245
:1014D00009019C6FE8509D1B000E9925E96E030ED3
:1014E0009A21EA6E9CC9EFFF992B000E9A23D1D75F
:1014F0009DC9FFF3996B9A6BD8909A5104E6000E40
:10150000995D010E9A5956E2000E9925E96E030E77
:101510009A21EA6EEF50E66E4FEC58F0E552090161
:10152000992B000E9A23E8D79D6B996B9A6B3F0E0F
:101530009AAF02D0D89003D0995D000E9A591DE25F
:10154000800E9925366EFF0E9A21376E36C0E6FF63
:10155000E66E64EC72F0E552E55209019C6FE850CA
:101560009D1B000E9925E96E030E9A21EA6E9CC917
:10157000EFFF992B000E9A23DAD79DC93FF3996BA1
:101580009A6B400E9AAF02D0D89003D0995D000EAE
:101590009A5910E2000E9925E96E030E9A21EA6E1F
:1015A000EF50E66E4FEC58F0E5520901992B000E12
:1015B0009A23E7D7060EE66E4FEC58F0E552020E7E
:1015C000E66E83EC76F0E5521200D9CFE6FFE1CF6C
:1015D000D9FFFE0EDBCF36F00A012151E76E361837
:1015E000E8AE02D0363403D0E750D880365403E258
:1015F000FE0EDB6A206BFE0EDB5014E1256B266BC2
:10160000276B286B296B2A6B2B6B2C6B20CF22FA54
:1016100021CF23FA22CF24FA300E2D6F750E2E6FB4
:101620002F6BABD0FE0EDB040B0DF3CF36F0376A19
:10163000386A396A36AE03D0376838683968180EA8
:101640003626010E3722000E3822392236C09EF986
:1016500037C09FF936C0E6FF37C0E6FFA8EC72F04E
:10166000E552E55257C025FA58C026FA59C027FA64
:101670005AC028FA040E0901376A9E25366E9F511A
:10168000372236C0E6FF37C0E6FFA8EC72F0E5521D
:10169000E55257C029FA58C02AFA59C02BFA5AC045
:1016A0002CFA080E0901376A9E25366E9F513722A3
:1016B00036C0E6FF37C0E6FF7DEC72F0E552E5523A
:1016C000F3CF22FAF4CF23FA0A01246B23BF246953
:1016D000640E5D6E5E6A5F6A22CA58F023CA59F0D2
:1016E00024CA5AF063EC71F055C022FA56C023FAAE
:1016F00057C024FA55C036F056C037F057C038F0FE
:10170000396A38BE39683934000E391809E6D8808C
:10171000780E3654000E3754000E3854000E3954EB
:1017200005E20A01780E226F236B246B0A0E090171
:10173000376A9E25366E9F51372236C0E6FF37C086
:10174000E6FF64EC72F0E552E552576E586A57BEF8
:101750005868596A5A6A58AE02D059685A68E80EF1
:101760005C6E030E5D6E5E6A5F6AAAEC77F053C032
:101770002DFA54C02EFA55C02FFA0A0159935995E3
:101780005C9DE552E7CFD9FF12000A01356B366B3D
:10179000000E0401CA6FCB6B826F836B3A6F3B6B99
:1017A0000701906F916B6B6B6C6B6D6B6BC75AF72E
:1017B0006CC75BF76DC75CF7926B936B946B0F0113
:1017C0000E6B0F6B106B736A0F010C6B0D6B0F01BF
:1017D0000A6B0B6B0A01599559935C97320E0701FE
:1017E000886F896B1E0E866F876B090EE66E010E81
:1017F000E66E64EC72F0E552E5520A01216F000ECC
:10180000E76E2119E8AE02D0213503D0E750D88029
:10181000215502E3206B02D0010E206FE66AD5DE6F
:04182000E55212007B
:0C182400D9CFE6FFE1CFD9FF060EE12688
:10183000730EDE6E030EDD6E760EF36E020EF3CFC8
:10184000DBFF010EF36E030EF3CFDBFF040EDB6A4A
:10185000010EF36E050EF3CFDBFF0F0111510E5D8C
:101860002C6F12510F592D6F135110592E6F040EFA
:10187000DBCF36F0050EDBCF37F0386A37BE38687D
:101880002CCF58F02DCF59F02ECF5AF036C05DF046
:1018900037C05EF038C05FF063EC71F055C023FFD5
:1018A00056C024FF57C025FFDECF3FF0DDCF40F00C
:1018B000416A40BE416800CB3CF001CB3DF03E6A3E
:1018C0003DBE3E68020EDBCF39F0030EDBCF3AF0AF
:1018D0003B6A3ABE3B682CCF58F02DCF59F02ECF43
:1018E0005AF039C05DF03AC05EF03BC05FF063EC87
:1018F00071F000013C50555C366E3D505658376EC5
:101900003E505758386E36C058F037C059F05A6EAE
:101910003FC05DF040C05EF041C05FF063EC71F02D
:1019200055C026FF56C027FF57C028FF00CB59F0EF
:1019300001CB5AF0DECF5EF0DDCF5FF036EC71F018
:1019400057500B010027585001230F012351262522
:10195000296F245127212A6F255128212B6F080E2A
:10196000E66E29CFE6FF2ACFE6FF57EC4FF0E552AF
:10197000E552E552F3CF29FFF4CF2AFF0F012B6B7D
:101980002ABF2B691CCF39F01DCF3AF03B6A3ABE13
:101990003B682B513B18E8AE02D03B3406D039509F
:1019A000295D3A502A593B502B5909E21CCF36F099
:1019B0001DCF37F0386A37AE1AD0386818D02B35BB
:1019C000000E2B1907E6D880F40E2955010E2A5572
:1019D000000E2B5506E2F40E366E010E376E386A95
:1019E00006D029CF36F02ACF37F02BCF38F036C0CB
:1019F00031FF37C032FF1A51365C2F6F1B513758F9
:101A0000306F1DC836F0376A36BE376836502F0340
:101A1000F3CF33FFF4CF34FF3003F3503427375084
:101A20002F03F3503427090EE66E33CFE6FF34CF91
:101A3000E6FF57EC4FF0E552E552E552F3CF33FFA6
:101A4000F4CF34FF0F01F4501F19E8AE02D01F3558
:101A500004D01E51335D1F51345909E21ECF36F0B8
:101A60001FCF37F0386A396A37AE23D022D033CF50
:101A70003AF034CF3BF03C6A3D6A3BAE02D03C6862
:101A80003D683D34000E3D1809E6D8800C0E3A54EE
:101A9000000E3B54000E3C54000E3D5404E20C0E6C
:101AA000366E376A04D033CF36F034CF37F0386A29
:101AB000396A36C016FF37C017FF060EE15C02E236
:101AC000E16AE552E16EE552E7CFD9FF12000A0163
:101AD0005DA165D15D91CFEC73F048EC3FF00A0158
:101AE00059AF0DD0AACA11FFABCA12FF0F01136B79
:101AF00012BF1369ACCA1AFFADCA1BFF16D007018B
:101B0000AF510701B25D0F01116F0701B05107011D
:101B1000B3590F01126F0701B1510701B4590F01F9
:101B2000136FB5C71AFFB6C71BFF030EE66E070E8D
:101B3000596E5A6A02CB5EF003CB5FF036EC71F05F
:101B400057500F011A25366E58501B21376E36C07C
:101B5000E6FFE66E57EC4FF0E552E552E552F3CF63
:101B600002FBF4CF03FB0A0157A1F8D05A51800BB6
:101B700005E1735006E05A51010B03E0588D12EF56
:101B80000CF05851200B1CE10B01800E031509E0ED
:101B900002CB36F003CB37F0366C371E000E3722FF
:101BA00004D002CB36F003CB37F037342AE236507C
:101BB0003E08000E375425E20A015851400B21E13E
:101BC000589D11CF0EFF12CF0FFF13CF10FF0F0143
:101BD000800E171507E0010E1625166F000E17214F
:101BE000176F120017350AE216510008000E17553C
:101BF00005E2010E165F000E175B1200166B176BE5
:101C000012000A01588D0B01026B036B0BDE0601FB
:101C10003C510F011625356F06013D510F0117216B
:101C2000366F800E1B1509E01ACF36F01BCF37F048
:101C3000366C371E000E372204D01ACF36F01BCF79
:101C400037F0386A396A37AE02D038683968D890C8
:101C50003950000A08E6320E365C000E3758000E86
:101C60003858000E395801E39AD035CF3AF036CFC4
:101C70003BF03C6A3D6A3BAE02D03C683D683D3477
:101C8000000E3D1809E6D880480E3A54000E3B5429
:101C9000000E3C54000E3D5401E381D0030EE66E6D
:101CA000070E596E5A6A38C65EF039C65FF036ECD8
:101CB00071F057500F013525366E58503621376E6A
:101CC00036C0E6FFE66E57EC4FF0E552E552E552BE
:101CD000F3CF38F6F4CF39F6F3CF3AF0F4CF3BF048
:101CE0003C6A3D6A3BAE02D03C683D68D8903D50AE
:101CF000000A08E6480E3A5C000E3B58000E3C58BD
:101D0000000E3D5802E2480E19D038C63EF039C6E2
:101D10003FF0406A416A3FAE02D0406841684134BA
:101D2000000E411809E6D880900E3E54000E3F5434
:101D3000000E4054000E415404E2900E366E376A95
:101D400004D038C636F039C637F036C038F637C05A
:101D500039F636C036F637C037F61200B2C711FF73
:101D6000B3C712FFB4C713FF0F01800E171507E0AA
:101D7000010E1625166F000E1721176F0ED017359E
:101D80000AE216510008000E175505E2010E165F13
:101D9000000E175B02D0166B176B0A01589D1200DC
:101DA0000A015751100B01E1D3D05A51400B01E009
:101DB000CFD00F01396B3951010801E2CDD0030EAC
:101DC000E66E3EC83FF0406A416A426A3FAE03D0C9
:101DD0004068416842683FC0E6FF40C0E6FF41C03E
:101DE000E6FF42C0E6FF660EE66EE66A3951480D30
:101DF000F3CFE9FFF4CFEAFF000EE926040EEA2252
:101E0000280EE926000EEA22EECF3AF0EFCF3BF0A3
:101E10003C6A3D6A3BAE02D03C683D683AC0E6FF92
:101E20003BC0E6FF3CC0E6FF3DC0E6FF83EC2FF081
:101E30003E6E060EE15E3E50E552E7CF42F0E552BF
:101E4000E7CF41F0E552E7CF40F0E552E7CF3FF072
:101E50003FC05CF040C05DF041C05EF042C05FF04A
:101E6000AAEC77F053C036F054C037F055C038F0C4
:101E700056C039F053C0E6FF54C0E6FF55C0E6FF38
:101E800056C0E6FFA7EC4FF0436E050EE15E4350EF
:101E90005C685D685E685F68AAEC77F053C037FFE6
:101EA00054C038FF53C03AF054C03BF03C6A3D6A1E
:101EB0003BAE02D03C683D68D8803D50FF0A08E642
:101EC000E80E3A5CFF0E3B58FF0E3C58FF0E3D58A3
:101ED00004E2E80E366E376826D037CF3EF038CFB2
:101EE0003FF0406A416A3FAE02D0406841684134E9
:101EF000000E411809E6D880180E3E54000E3F54DB
:101F0000000E4054000E415406E2180E366E376A39
:101F1000386A396A0AD037CF36F038CF37F0386AA6
:101F2000396A37AE02D0386839680F013951480D27
:101F3000F3CFE9FFF4CFEAFF000EE926040EEA2210
:101F40002F0EE926000EEA2236C0EFFF392B33D7D9
:101F50000401776B77C42FF412000A015A51040B65
:101F60004FE05A51400B4CE007019A35000E9A1988
:101F700007E6D880960E9855000E9955000E9A5592
:101F80003FE20801DF510701965D366E9751080167
:101F9000E055376E36C0E6FFE66E2FEC50F0E552A6
:101FA000E552F3CF3AFFF4CF3BFFF3CFE6FFF4CF98
:101FB000E6FF12C436F013C437F0386A37BE38680B
:101FC00036C0E6FF37C0E6FF38C0E6FF5AC439F036
:101FD0005BC43AF03B6A3ABE3B6839C0E6FF3AC0A0
:101FE000E6FF3BC0E6FF380EE66E040EE66E800E9E
:101FF000E66E040EE66EDDEC30F03C6E0C0E28D082
:102000007FCAE6FF12C436F013C437F0386A37BE11
:10201000386836C0E6FF37C0E6FF38C0E6FF5AC46E
:1020200039F05BC43AF03B6A3ABE3B6839C0E6FF20
:102030003AC0E6FF3BC0E6FF380EE66E040EE66EE1
:10204000800EE66E040EE66EF8EC31F03C6E0B0E80
:10205000E15E3C500A015ABD02D03AEC01F077C46F
:1020600038F0396A38BE396804013850825D366EFE
:1020700039508359376E36508027375081232FC40B
:1020800038F0396A38BE39683A513824366E3B51D7
:102090003920376E3650382737503923A251CA2598
:1020A000C86FA351CB21C96F1200D9CFE6FFE1CF92
:1020B000D9FF010EE66EFB0EDBCF3AF0FC0EDBCF54
:1020C0003BF0FD0EDBCFE9FFFE0EDBCFEAFF220E79
:1020D000E926000EEA223A50EE24366E3B50EE20FE
:1020E000376E386A396A37AE02D03868396836C018
:1020F000E6FF37C0E6FF38C0E6FF39C0E6FFA7ECD1
:102100004FF03C6E050EE15E3C5057C03CFF58C09E
:102110003DFF59C03EFF5AC03FFFFD0EDBCFE9FF38
:10212000FE0EDBCFEAFF220EE926000EEA22EECFFA
:102130003AF0EFCF3BF03C6A3D6A3BAE02D03C68E0
:102140003D683A500F013C5D366E3B503D59376E4D
:102150003C503E593D503F59FD0EDBCFE9FFFE0E8E
:10216000DBCFEAFF240EE926000EEA2236C0EEFF9E
:1021700037C0EDFFFD0EDBCFE9FFFE0EDBCFEAFF40
:10218000220EE926000EEA223CCFEEFF3DCFEDFF06
:10219000010EE66EFD0EDBCFE9FFFE0EDBCFEAFFA0
:1021A000260EE926000EEA22EECF3CF0EFCF3DF0FE
:1021B000FD0EDBCFE9FFFE0EDBCFEAFF240EE926A2
:1021C000000EEA223C50EE24386E3D50EE20396E6F
:1021D0003A6A3B6A39AE02D03A683B6838C0E6FFDB
:1021E00039C0E6FF3AC0E6FF3BC0E6FFA7EC4FF080
:1021F0003E6E050EE15E3E5058C037F0FD0EDBCF5F
:10220000E9FFFE0EDBCFEAFF240EE926000EEA22EC
:1022100057C0EEFF37C0EDFFFD0EDBCFE9FFFE0E2E
:10222000DBCFEAFF240EE926000EEA22EECF36F0DD
:10223000EFCF37F0FD0EDBCFE9FFFE0EDBCFEAFF7D
:10224000260EE926000EEA2236C0EEFF37C0EDFF6B
:10225000E552E7CFD9FF1200D9CFE6FFE1CFD9FF92
:10226000FD0EDBCFE9FFFE0EDBCFEAFF200EE926F5
:10227000000EEA22EECFE6FFEFCFE6FFFD0EDBCF4A
:10228000E6FFFE0EDBCFE6FF10DFE552E552E5523A
:10229000E552050EE66EFD0EDBCFE9FFFE0EDBCF4D
:1022A000EAFF240EE926000EEA22EECF46F0EFCF39
:1022B00047F0FD0EDBCFE9FFFE0EDBCFEAFF0C0E91
:1022C000E926000EEA22EECF48F0EFCF49F00001F8
:1022D00048504602F3CF42F0F4CF43F04702F350A8
:1022E000432649504602F3504326446A456A43AEAA
:1022F00002D044684568FD0EDBCFE9FFFE0EDBCF60
:10230000EAFF080EE926000EEA22EECF3EF0EFCFFC
:102310003FF0406A416A3FAE02D040684168FD0E1E
:10232000DBCFE9FFFE0EDBCFEAFF200EE926000E31
:10233000EA22EECF3AF0EFCF3BF03C6A3D6A3BAE8B
:1023400002D03C683D683AC057F03BC058F03CC0F2
:1023500059F03DC05AF03EC05CF03FC05DF040C057
:102360005EF041C05FF0AAEC77F0535000014224C8
:10237000366E54504320376E55504420386E5650B8
:102380004520396E36C0E6FF37C0E6FF38C0E6FFAD
:10239000E66EA7EC4FF04A6E050EE15E4A5057C05C
:1023A00044FF58C045FF59C046FF5AC047FFFD0EC5
:1023B000DBCFE9FFFE0EDBCFEAFF0A0EE926000EB7
:1023C000EA22EE50ED1010E10F01486B496B4A6BA9
:1023D0004B6BFD0EDBCFE9FFFE0EDBCFEAFF1A0EE3
:1023E000EB6A1B0EEB6AC9D0090EE66EFD0EDBCF61
:1023F000E9FFFE0EDBCFEAFF0A0EE926000EEA2215
:10240000EECF3EF0EFCF3FF0406A416A3FAE02D0E0
:1024100040684168FD0EDBCFE9FFFE0EDBCFEAFF2F
:102420001A0EE926000EEA22EECF3AF0EFCF3BF08B
:102430003C6A3D6A3BAE02D03C683D683AC057F00A
:102440003BC058F03CC059F03DC05AF03EC05CF073
:102450003FC05DF040C05EF041C05FF0AAEC77F095
:1024600053C036F054C037F055C038F056C039F07C
:1024700053C0E6FF54C0E6FF55C0E6FF56C0E6FF76
:10248000A7EC4FF0426E050EE15E425057C040FF90
:1024900058C041FF59C042FF5AC043FFFD0EDBCF79
:1024A000E9FFFE0EDBCFEAFFEECF36F0EFCF37F0DD
:1024B000366C371E000E3722386A396A37AE02D0C2
:1024C000386839680F0143513918E8AE02D0393401
:1024D00008D03650405D3750415938504259395034
:1024E000435913E2FD0EDBCFE9FFFE0EDBCFEAFF1F
:1024F000EECF48FFEFCF49FF486D491F000E49233B
:102500004A6B4B6B49AF39D02DD0FD0EDBCFE9FFC5
:10251000FE0EDBCFEAFFEECF3AF0EFCF3BF03C6AA6
:102520003D6A3BAE02D03C683D683D504319E8AE81
:1025300002D0433508D040513A5C41513B5842519A
:102540003C5843513D5811E2FD0EDBCFE9FFFE0E32
:10255000DBCFEAFFEECF48FFEFCF49FF4A6B4B6B73
:1025600049AF0BD04A694B6908D040CF48FF41CFF3
:1025700049FF42CF4AFF43CF4BFF480EE96E0F0E93
:10258000EA6E4451EE243A6E4551EE203B6E4651C0
:10259000EE203C6E4751EE203D6EFD0EDBCFE9FF95
:1025A000FE0EDBCFEAFF380EE926000EEA22EECF60
:1025B0003EF0EFCF3FF0406A416A3FAE02D0406844
:1025C00041683E503A5C366E3F503B58376E405043
:1025D0003C58386E41503D58396EFD0EDBCFE9FF57
:1025E000FE0EDBCFEAFF440EE926000EEA2236C0DB
:1025F000EEFF37C0EDFFE552E7CFD9FF1200D9CF8C
:10260000E6FFE1CFD9FFFD0EDBCFE9FFFE0EDBCF0A
:10261000EAFF1A0EE926000EEA22EECF36F0EFCFDF
:1026200037F0386A396A37AE02D038683968FD0E3B
:10263000DBCFE9FFFE0EDBCFEAFF380EE926000E06
:10264000EA22EECF57F0EFCF58F0596A5A6A58AEE7
:1026500002D059685A68300E5C6E5D6A5E6A5F6AC5
:10266000AAEC77F03650535C0F015C6F375054582A
:102670005D6F385055585E6F395056585F6FFD0E7C
:10268000DBCFE9FFFE0EDBCFEAFF080EE926000EE6
:10269000EA22EECF36F0EFCF37F0386A396A37AE3C
:1026A00002D0386839685CCF57F05DCF58F05ECF04
:1026B00059F05FCF5AF036C05CF037C05DF038C0DB
:1026C0005EF039C05FF0AAEC77F053C04CFF54C005
:1026D0004DFF55C04EFF56C04FFF0F01506B516B61
:1026E000526B536B0A0EE66E500EE96E0F0EEA6ED9
:1026F0005350EE24366E5450EE20376E5550EE2077
:10270000386E5650EE20396E36C0E6FF37C0E6FF11
:1027100038C0E6FFE66EA7EC4FF03A6E050EE15EBC
:102720003A5057C058FF58C059FF59C05AFF5AC0B5
:102730005BFFFD0EDBCFE9FFFE0EDBCFEAFF200ED5
:10274000E926000EEA22EECF36F0EFCF37F0386AF6
:10275000396A37AE02D038683968580EE96E0F0E04
:10276000EA6E3650EE5C0F01606F3750EE58616FC5
:102770003850EE58626F3950EE58636F60CFE6FF05
:1027800061CFE6FFFD0EDBCFE6FFFE0EDBCFE6FFFF
:102790008CDCE552E552E552E552050EE66EFD0E83
:1027A000DBCFE9FFFE0EDBCFEAFF240EE926000EA9
:1027B000EA22EECF42F0EFCF43F0FD0EDBCFE9FF90
:1027C000FE0EDBCFEAFF0C0EE926000EEA22EECF6A
:1027D00044F0EFCF45F0000144504202F3CF3EF009
:1027E000F4CF3FF04302F3503F2645504202F350EE
:1027F0003F26406A416A3FAE02D040684168FD0E04
:10280000DBCFE9FFFE0EDBCFEAFF080EE926000E64
:10281000EA22EECF3AF0EFCF3BF03C6A3D6A3BAEA6
:1028200002D03C683D6860CF57F061CF58F062CF6E
:1028300059F063CF5AF03AC05CF03BC05DF03CC049
:102840005EF03DC05FF0AAEC77F0535000013E24EB
:10285000366E54503F20376E55504020386E5650DB
:102860004120396E36C0E6FF37C0E6FF38C0E6FFCC
:10287000E66EA7EC4FF0466E050EE15E465057C07F
:1028800054FF58C055FF59C056FF5AC057FF000E9D
:102890000F01546D551F5523561F5623571F57239D
:1028A000FD0EDBCFE9FFFE0EDBCFEAFF440EE9268B
:1028B000000EEA2254CFEEFF55CFEDFFE552E7CFF1
:1028C000D9FF12000A015BAD1DD0A0C436F0A1C42F
:1028D00037F0386A396A37AE02D038683968393427
:1028E000000E391809E6D880180E3654000E3754F9
:1028F000000E3854000E395409E2DFC8E1F8E0C890
:10290000E2F81200DFC8E1F8E0C8E2F81200DADF0E
:102910000801DF510801E15D366EE2510801E05522
:10292000376E36C0E6FFE66E7DEC6FF0E552E5529D
:10293000F3CF08FFF4CF09FF0F01D880F45004E76C
:10294000E40E085DFF0E095904E2E40E086F096900
:102950000DD0093509E208511C08000E095504E2A2
:102960001C0E086F096B02D009CF09FF060EE66E38
:1029700094C43DF095C43EF03F6A3EBE3F6808CF28
:102980003AF009CF3BF03C6A3BBE3C683AC058F095
:102990003BC059F03CC05AF03DC05DF03EC05EF017
:1029A0003FC05FF063EC71F055C036F056C037F0B1
:1029B00057C038F0396A38BE396836C0E6FF37C0CC
:1029C000E6FF38C0E6FF39C0E6FFA7EC4FF0406EE7
:1029D000050EE15E405057C064FF58C065FF59C006
:1029E00066FFB0C436F0B1C437F0386A37BE386815
:1029F00036500F01645F3750655B3850665B050EDB
:102A0000E66E98C43AF099C43BF03C6A3BBE3C6821
:102A100064CF58F065CF59F066CF5AF03AC05DF0F8
:102A20003BC05EF03CC05FF063EC71F055C036F027
:102A300056C037F057C038F0396A38BE396836C0EA
:102A4000E6FF37C0E6FF38C0E6FF39C0E6FFA7EC77
:102A50004FF03D6E050EE15E3D5057C064FF58C01B
:102A600065FF59C066FF92C436F093C437F0366CE8
:102A7000371E000E3722386A37BE38680F0166519C
:102A80003818E8AE02D0383406D03650645D37507E
:102A90006559385066590CE292C464FF93C465FFCF
:102AA000646D651F000E6523666B65AF20D01BD07B
:102AB00092C439F093C43AF03B6A3ABE3B683B504B
:102AC0006619E8AE02D0663506D06451395C6551AE
:102AD0003A5866513B5809E292C464FF93C465FFBB
:102AE000666B65AF04D0666902D066CF66FF0401ED
:102AF000800EC91509E0C8C436F0C9C437F0366C79
:102B0000371E000E372204D0C8C436F0C9C437F0CF
:102B1000386A396A37AE02D0386839683934000EFD
:102B2000391809E6D880020E3654000E3754000ECC
:102B30003854000E395402E373500EE0C8C436F026
:102B4000C9C437F0386A37BE386836500F01645F41
:102B50003750655B3850665B64CFD4F465CFD5F4ED
:102B6000120004011E6B1F6B666B676B12000BEC8F
:102B70006DF0D0EC0EF03AEC4CF00AEC6FF0ADECEE
:102B80000FF00F01676B675101082AE30A015CA18E
:102B900011D00F016751480DF3CF36F0F4CF37F065
:102BA000000E3626040E372236C0E6FF37C0E6FF99
:102BB00026DD11D00F016751480DF3CF36F0F4CF69
:102BC00037F0000E3626040E372236C0E6FF37C037
:102BD000E6FF2CEC11F0E552E5520F01672BD3D73D
:102BE00096DE44C465F045C466F08CC467F08DC4BD
:102BF00068F0D4C469F0D5C46AF00401800E1B15D6
:102C000009E01AC43AF01BC43BF03A6C3B1E000EBC
:102C10003B2204D01AC43AF01BC43BF0800E63156B
:102C200009E062C43CF063C43DF03C6C3D1E000E04
:102C30003D2204D062C43CF063C43DF03B503D18DB
:102C4000E8AE02D03D3404D03C503A5C3D503B5895
:102C50000DE2800E631505E062C436F063C437F000
:102C60000CD062C436F063C437F010D0800E1B1550
:102C700009E01AC436F01BC437F0366C371E000E5C
:102C8000372204D01AC436F01BC437F0386A396AC8
:102C900037AE02D038683968D8903950000A08E653
:102CA000E80E365C030E3758000E3858000E3958BF
:102CB00002E3000E01D0010E0A015799E8B05789CE
:102CC000B1EF38F004012F6B2FC477F42FC418FF35
:102CD0000F01196B18BF196918CF16FF19CF17FF0D
:102CE000F40E1E6F1F69686B685102083EE368515D
:102CF000480DF3CF69FFF4CF6AFF000E6927040E79
:102D00006A2369CFE9FF6ACFEAFF220EE926000EA7
:102D1000EA22EE6AED6A69CFE9FF6ACFEAFF460E62
:102D2000E926000EEA22EE6AED6A69CFE9FF6ACF72
:102D3000EAFF1A0EE926000EEA22EE6AED6A69CF72
:102D4000E9FF6ACFEAFF240EE926000EEA22EE6AC6
:102D5000ED6A69CFE9FF6ACFEAFF260EE926000E89
:0E2D6000EA22EE6AED6A682BBFD7B1EF15F0DC
:022D6E00B20EA3
:102D7000E66EC30EE66E2FEC58F0E552E5521200F7
:102D80000A015EA704D0A10EE66EC30E03D08D0E1D
:102D9000E66EC30EE66E2FEC58F0E552E5521200D7
:102DA0003FCAE6FF40CAE6FF2FEC58F0E552E55275
:102DB000120018EC59F0700EE66EEB0EE66E2FEC7A
:102DC00058F0E552E5523E0EE66EC30EE66E2FEC6D
:102DD00058F0E552E552310EE66EC30EE66E2FEC6A
:102DE00058F0E552E552DCDF1E0EE66EC30EE66ECD
:102DF0002FEC58F0E552E552200EE66EE66A00CF61
:102E000036F0376A386A396A00CFE6FF37C0E6FF26
:102E100038C0E6FF39C0E6FFF2EC59F03A6E060E14
:102E2000E15E3A5018EC59F00B0EE66EC30EE66EFA
:102E30002FEC58F0E552E552E66A010EE66E7FCAC5
:102E400036F0376A36BE3768386A396A37AE02D02C
:102E5000386839684B0E5C6E5D6A5E6A5F6A36C0C0
:102E600057F037C058F038C059F039C05AF0AAECC2
:102E700077F053C036F054C037F055C038F056C024
:102E800039F053C0E6FF54C0E6FF55C0E6FF56C018
:102E9000E6FFF2EC59F03A6E060EE15E3A50F30EA0
:102EA000E66EC20EE66E2FEC58F0E552E552EA0EE1
:102EB000E66EC20EE66E2FEC58F0E552E55262EC7B
:102EC00062F0E00EE66EC20EE66E2FEC58F0E552B0
:102ED000E5522BC9E6FF4CEC5CF0E552D70EE66EEE
:102EE000C20EE66E2FEC58F0E552E55226EC4CF09F
:102EF000CB0EE66EC20EE66E2FEC58F0E552E552B0
:102F0000EEEC6EF00A015B51400B20E00801E55148
:102F10001DE0C20EE66EC20EE66E2FEC58F0E552D2
:102F2000E552E66AE66A0E0EE66EE66AE66AE66A6A
:102F3000F2EC59F0366E060EE15E3650BD0EE66ECE
:102F4000C20EE66E2FEC58F0E552E552B40EE66E76
:102F5000C20EE66E2FEC58F0E552E55213EC33F05A
:102F60000801235131E0B10EE66EC20EE66E2FEC81
:102F700058F0E552E5520601F96B040EF95D1CE2CA
:102F8000F951E96EEA6AD890E936EA36B40EE926D4
:102F9000000EEA22EE50ED1004E0AB0EE66EC20E1B
:102FA00003D0A70EE66EC20EE66E2FEC58F0E55287
:102FB000E5520601F92BE1D7A40EE66EC20EE66ECD
:102FC0002FEC58F0E552E5529A0EE66EC20EE66E10
:102FD0002FEC58F0E552E552D3DE910EE66EC20EAC
:102FE000E66E2FEC58F0E552E55208010351010A54
:102FF00002E0010A06E1310E0325E66E4FEC58F0BF
:1030000007D0890EE66EC20EE66E2FEC58F0E55240
:10301000E5527B0EE66EC20EE66E2FEC58F0E552DE
:10302000E552300E0A017D25E66E4FEC58F0E55270
:10303000660EE66EC20EE66E2FEC58F0E552E552D3
:103040000A0159A904D05C0EE66EC20E03D0510EDF
:10305000E66EC20EE66E2FEC58F0E552E5520A011C
:1030600057A304D0430EE66EC20E03D0330EE66EB5
:10307000C20EE66E2FEC58F0E552E5520A015AB145
:1030800008D0180EE66EC20EE66E2FEC58F0E55230
:10309000E552040EE66EC20EE66E2FEC58F0E552D5
:1030A000E552010E1614010823E00A015E51080BD7
:1030B0001FE1CF0EE66EC10EE66E2FEC58F0E55222
:1030C000E552E66AE66A1650366E376A386A396A39
:1030D00016C0E6FF37C0E6FF38C0E6FF39C0E6FF9E
:1030E000F2EC59F03A6E060EE15E3A5018EC59F0E7
:1030F0000A015CBF08D0B00EE66EC10EE66E2FEC82
:1031000058F0E552E5520A015BB508D0900EE66E24
:10311000C10EE66E2FEC58F0E552E5520A015EADA5
:1031200008D0730EE66EC10EE66E2FEC58F0E55235
:10313000E5520A0159BB08D0650EE66EC10EE66E77
:103140002FEC58F0E552E5520A0159BD08D04E0E59
:10315000E66EC10EE66E2FEC58F0E552E552090E10
:1031600009012B5D04E00A015751040B08E0410EF0
:10317000E66EC10EE66E2FEC58F0E552E552040EF5
:103180000901EA5D04E00A015B51200B08E1330EFE
:10319000E66EC10EE66E2FEC58F0E552E5520A01DC
:1031A0005BBD08D0200EE66EC10EE66E2FEC58F027
:1031B000E552E5520A015BB108D0000EE66EC10E81
:1031C000E66E2FEC58F0E552E5528050100B0BE004
:1031D0000801AF5108E0E50EE66EC00EE66E2FEC7A
:1031E00058F0E552E5520A015951010B03E15851DB
:1031F000800B08E0C50EE66EC00EE66E2FEC58F0B0
:10320000E552E55240C636F041C637F0386A396AB1
:1032100037AE02D038683968D8903950000A08E6CD
:10322000180E365C000E3758000E3858000E39580C
:1032300008E3B20EE66EC00EE66E2FEC58F0E552D3
:10324000E552B7EF16F080B823EF21F063EC59F0A8
:103250000601FA6FE85002E123EF21F0FAC6E6FF1B
:1032600047EC78F0E552F3CF36F0F4CF37F0F35077
:10327000F41007E0FAC6E6FF59EC78F0E552F3CF18
:10328000FAF60601FA513F0A02E119EF21F0690A44
:1032900002E116EF21F0110A02E113EF21F01F0AFB
:1032A00002E110EF21F00B0A02E10EEF21F0010A1A
:1032B00001E152D1050A01E14DD10D0A01E138D1F8
:1032C000170A01E17CD0010A33E0080A06E0060A89
:1032D00001E01200F29E80EC7EF0950EE66EC00ECC
:1032E000E66E2FEC58F0E552E5526F0EE66EC00E1A
:1032F000E66E2FEC58F0E552E55263EC59F006010A
:10330000FA6F780EFA5D03E07A0EFA5DF6E1780E58
:10331000FA5D04E1DFEC42F021EF21F0630EE66E8E
:10332000C00EE66E2FEC58F0E552E55221EF21F089
:10333000480EE66EC00EE66E2FEC58F0E552E552F0
:10334000300E0A017D25E66E4FEC58F0E552B6ECE2
:103350003FF00601FB6B400EFB5D02E321EF21F025
:103360003C0EE66EC00EE66E2FEC58F0E552E552CC
:103370000601FB29E66EE66A7BEC58F0E552E55261
:10338000380EE66EC00EE66E2FEC58F0E552E552B0
:103390000601FB51EA6A000FE96E080EEA22EFCF40
:1033A00036F0376A36BE376836C0E6FF37C0E6FF0C
:1033B000E4EC58F0E552E5520601FB2BCCD7020EA7
:1033C000E66E77EC76F0E5523C0EE66EC00EE66EE9
:1033D0002FEC58F0E552E55289EC59F0FF0F060149
:1033E000FB6F380EE66EC00EE66E2FEC58F0E5521D
:1033F000E552A4EC59F0F3CFFDF6F4CFFEF606014A
:10340000D880F45004E7800EFD5DFF0EFE5904E203
:10341000800E366E37680FD0FE3509E2FD517F0809
:10342000000EFE5504E27F0E366E376A04D0FDC6EC
:1034300036F0FEC637F036C0FCF62B0EFB5D09E118
:10344000FB51EA6AB90FE96E060EEA22010EEF6E31
:1034500008D0FB51EA6AB90FE96E060EEA22FCC6F3
:10346000EFFF3F0EFB5D5EE1080100515BE00601EE
:10347000010EE46F030EC56FFB6B400EFB5D4DE26A
:103480000A017D0524E10601FB51EA6AB90FE96EE4
:10349000060EEA22EF50E66EFB51E66EE66A01EC9C
:1034A00073F0E552E552E5520601FB51F66EF76AFC
:1034B000D890F636F736D30EF626EE0EF722010E2A
:1034C000F626000EF7220800F55024E012D006017F
:1034D000FB51F66EF76AD890F636F736D30EF6261D
:1034E000EE0EF722010EF626000EF7220800F55028
:1034F00011E1FB51EA6AB90FE96E060EEA22EF50BC
:10350000E66E400EFB25E66EE66A01EC73F0E552CE
:10351000E552E5520601FB2BB0D70A015B850A0193
:10352000010E7E6F020EE66E83EC76F020EF21F046
:1035300089EC59F00601FB6F0A017D510601FB5D24
:1035400002E123EF21F0FBC67DFA0A01010E7E6F36
:10355000B6EF3FF0DAEF09F0330EE66EC00EE66E1E
:103560002FEC58F0E552E55212C657F013C658F04A
:10357000596A5A6A58AE02D059685A68F40E5C6E9D
:10358000010E5D6E5E6A5F6AAAEC77F053C057F079
:1035900054C058F055C059F056C05AF0F00E5C6E49
:1035A0005D6A5E6A5F6A02EC71F0D8805A50FF0A69
:1035B00008E6190E575CFC0E5858FF0E5958FF0EBE
:1035C0005A5807E2190E366EFC0E376E38683968A5
:1035D0006FD012C657F013C658F0596A5A6A58AEDF
:1035E00002D059685A68F40E5C6E010E5D6E5E6A18
:1035F0005F6AAAEC77F053C057F054C058F055C03A
:1036000059F056C05AF0F00E5C6E5D6A5E6A5F6AF1
:1036100002EC71F05A34000E5A1809E6D880E70E11
:103620005754030E5854000E5954000E5A5407E2D2
:10363000E70E366E030E376E386A396A39D012C615
:1036400036F013C637F0386A396A37AE02D03868B8
:103650003968F40E5C6E010E5D6E5E6A5F6A36C09C
:1036600057F037C058F038C059F039C05AF0AAECBA
:1036700077F053C036F054C037F055C038F056C01C
:1036800039F0F00E5C6E5D6A5E6A5F6A53C057F097
:1036900054C058F055C059F056C05AF002EC71F0C1
:1036A00057C036F058C037F059C038F05AC039F01A
:1036B00036C0E6FF37C0E6FFE4EC58F0E552E552CD
:1036C0002F0EE66EC00EE66E2FEC58F0E552E55276
:1036D00014C657F015C658F0596A5A6A58AE02D047
:1036E00059685A68F40E5C6E010E5D6E5E6A5F6A20
:1036F000AAEC77F053C057F054C058F055C059F0B9
:1037000056C05AF0F00E5C6E5D6A5E6A5F6A02EC4B
:1037100071F0D8805A50FF0A08E6190E575CFC0E6B
:103720005858FF0E5958FF0E5A5807E2190E366EB8
:10373000FC0E376E386839686FD014C657F015C65E
:1037400058F0596A5A6A58AE02D059685A68F40E4D
:103750005C6E010E5D6E5E6A5F6AAAEC77F053C024
:1037600057F054C058F055C059F056C05AF0F00EFA
:103770005C6E5D6A5E6A5F6A02EC71F05A34000E3C
:103780005A1809E6D880E70E5754030E5854000E15
:103790005954000E5A5407E2E70E366E030E376E88
:1037A000386A396A39D014C636F015C637F0386A27
:1037B000396A37AE02D038683968F40E5C6E010E93
:1037C0005D6E5E6A5F6A36C057F037C058F038C029
:1037D00059F039C05AF0AAEC77F053C036F054C013
:1037E00037F055C038F056C039F0F00E5C6E5D6AA7
:1037F0005E6A5F6A53C057F054C058F055C059F024
:1038000056C05AF002EC71F057C036F058C037F08D
:1038100059C038F05AC039F036C0E6FF37C0E6FF6D
:10382000E4EC58F0E552E5522B0EE66EC00EE66E63
:103830002FEC58F0E552E55216C657F017C658F06F
:10384000596A5A6A58AE02D059685A68F40E5C6ECA
:10385000010E5D6E5E6A5F6AAAEC77F053C057F0A6
:1038600054C058F055C059F056C05AF0F00E5C6E76
:103870005D6A5E6A5F6A02EC71F0D8805A50FF0A96
:1038800008E6190E575CFC0E5858FF0E5958FF0EEB
:103890005A5807E2190E366EFC0E376E38683968D2
:1038A0006FD016C657F017C658F0596A5A6A58AE04
:1038B00002D059685A68F40E5C6E010E5D6E5E6A45
:1038C0005F6AAAEC77F053C057F054C058F055C067
:1038D00059F056C05AF0F00E5C6E5D6A5E6A5F6A1F
:1038E00002EC71F05A34000E5A1809E6D880E70E3F
:1038F0005754030E5854000E5954000E5A5407E200
:10390000E70E366E030E376E386A396A39D016C63E
:1039100036F017C637F0386A396A37AE02D03868E1
:103920003968F40E5C6E010E5D6E5E6A5F6A36C0C9
:1039300057F037C058F038C059F039C05AF0AAECE7
:1039400077F053C036F054C037F055C038F056C049
:1039500039F0F00E5C6E5D6A5E6A5F6A53C057F0C4
:1039600054C058F055C059F056C05AF002EC71F0EE
:1039700057C036F058C037F059C038F05AC039F047
:1039800036C0E6FF37C0E6FFE4EC58F0E552E552FA
:10399000270EE66EC00EE66E2FEC58F0E552E552AB
:1039A00018C657F019C658F0596A5A6A58AE02D06C
:1039B00059685A68F40E5C6E010E5D6E5E6A5F6A4D
:1039C000AAEC77F053C057F054C058F055C059F0E6
:1039D00056C05AF0F00E5C6E5D6A5E6A5F6A02EC79
:1039E00071F0D8805A50FF0A08E6190E575CFC0E99
:1039F0005858FF0E5958FF0E5A5807E2190E366EE6
:103A0000FC0E376E386839686FD018C657F019C683
:103A100058F0596A5A6A58AE02D059685A68F40E7A
:103A20005C6E010E5D6E5E6A5F6AAAEC77F053C051
:103A300057F054C058F055C059F056C05AF0F00E27
:103A40005C6E5D6A5E6A5F6A02EC71F05A34000E69
:103A50005A1809E6D880E70E5754030E5854000E42
:103A60005954000E5A5407E2E70E366E030E376EB5
:103A7000386A396A39D018C636F019C637F0386A4C
:103A8000396A37AE02D038683968F40E5C6E010EC0
:103A90005D6E5E6A5F6A36C057F037C058F038C056
:103AA00059F039C05AF0AAEC77F053C036F054C040
:103AB00037F055C038F056C039F0F00E5C6E5D6AD4
:103AC0005E6A5F6A53C057F054C058F055C059F051
:103AD00056C05AF002EC71F057C036F058C037F0BB
:103AE00059C038F05AC039F036C0E6FF37C0E6FF9B
:103AF000E4EC58F0E552E552230EE66EC00EE66E99
:103B00002FEC58F0E552E5521AC657F01BC658F094
:103B1000596A5A6A58AE02D059685A68F40E5C6EF7
:103B2000010E5D6E5E6A5F6AAAEC77F053C057F0D3
:103B300054C058F055C059F056C05AF0F00E5C6EA3
:103B40005D6A5E6A5F6A02EC71F0D8805A50FF0AC3
:103B500008E6190E575CFC0E5858FF0E5958FF0E18
:103B60005A5807E2190E366EFC0E376E38683968FF
:103B70006FD01AC657F01BC658F0596A5A6A58AE29
:103B800002D059685A68F40E5C6E010E5D6E5E6A72
:103B90005F6AAAEC77F053C057F054C058F055C094
:103BA00059F056C05AF0F00E5C6E5D6A5E6A5F6A4C
:103BB00002EC71F05A34000E5A1809E6D880E70E6C
:103BC0005754030E5854000E5954000E5A5407E22D
:103BD000E70E366E030E376E386A396A39D01AC668
:103BE00036F01BC637F0386A396A37AE02D038680B
:103BF0003968F40E5C6E010E5D6E5E6A5F6A36C0F7
:103C000057F037C058F038C059F039C05AF0AAEC14
:103C100077F053C036F054C037F055C038F056C076
:103C200039F0F00E5C6E5D6A5E6A5F6A53C057F0F1
:103C300054C058F055C059F056C05AF002EC71F01B
:103C400057C036F058C037F059C038F05AC039F074
:103C500036C0E6FF37C0E6FFE4EC58F0E552E55227
:103C60001F0EE66EC00EE66E2FEC58F0E552E552E0
:103C70001CC657F01DC658F0596A5A6A58AE02D091
:103C800059685A68F40E5C6E010E5D6E5E6A5F6A7A
:103C9000AAEC77F053C057F054C058F055C059F013
:103CA00056C05AF0F00E5C6E5D6A5E6A5F6A02ECA6
:103CB00071F0D8805A50FF0A08E6190E575CFC0EC6
:103CC0005858FF0E5958FF0E5A5807E2190E366E13
:103CD000FC0E376E386839686FD01CC657F01DC6A9
:103CE00058F0596A5A6A58AE02D059685A68F40EA8
:103CF0005C6E010E5D6E5E6A5F6AAAEC77F053C07F
:103D000057F054C058F055C059F056C05AF0F00E54
:103D10005C6E5D6A5E6A5F6A02EC71F05A34000E96
:103D20005A1809E6D880E70E5754030E5854000E6F
:103D30005954000E5A5407E2E70E366E030E376EE2
:103D4000386A396A39D01CC636F01DC637F0386A71
:103D5000396A37AE02D038683968F40E5C6E010EED
:103D60005D6E5E6A5F6A36C057F037C058F038C083
:103D700059F039C05AF0AAEC77F053C036F054C06D
:103D800037F055C038F056C039F0F00E5C6E5D6A01
:103D90005E6A5F6A53C057F054C058F055C059F07E
:103DA00056C05AF002EC71F057C036F058C037F0E8
:103DB00059C038F05AC039F036C0E6FF37C0E6FFC8
:103DC000E4EC58F0E552E5521B0EE66EC00EE66ECE
:103DD0002FEC58F0E552E5521EC657F01FC658F0BA
:103DE000596A5A6A58AE02D059685A68F40E5C6E25
:103DF000010E5D6E5E6A5F6AAAEC77F053C057F001
:103E000054C058F055C059F056C05AF0F00E5C6ED0
:103E10005D6A5E6A5F6A02EC71F0D8805A50FF0AF0
:103E200008E6190E575CFC0E5858FF0E5958FF0E45
:103E30005A5807E2190E366EFC0E376E386839682C
:103E40006FD01EC657F01FC658F0596A5A6A58AE4E
:103E500002D059685A68F40E5C6E010E5D6E5E6A9F
:103E60005F6AAAEC77F053C057F054C058F055C0C1
:103E700059F056C05AF0F00E5C6E5D6A5E6A5F6A79
:103E800002EC71F05A34000E5A1809E6D880E70E99
:103E90005754030E5854000E5954000E5A5407E25A
:103EA000E70E366E030E376E386A396A39D01EC691
:103EB00036F01FC637F0386A396A37AE02D0386834
:103EC0003968F40E5C6E010E5D6E5E6A5F6A36C024
:103ED00057F037C058F038C059F039C05AF0AAEC42
:103EE00077F053C036F054C037F055C038F056C0A4
:103EF00039F0F00E5C6E5D6A5E6A5F6A53C057F01F
:103F000054C058F055C059F056C05AF002EC71F048
:103F100057C036F058C037F059C038F05AC039F0A1
:103F200036C0E6FF37C0E6FFE4EC58F0E552E55254
:103F3000170EE66EC00EE66E2FEC58F0E552E55215
:103F400020C657F021C658F0596A5A6A58AE02D0B6
:103F500059685A68F40E5C6E010E5D6E5E6A5F6AA7
:103F6000AAEC77F053C057F054C058F055C059F040
:103F700056C05AF0F00E5C6E5D6A5E6A5F6A02ECD3
:103F800071F0D8805A50FF0A08E6190E575CFC0EF3
:103F90005858FF0E5958FF0E5A5807E2190E366E40
:103FA000FC0E376E386839686FD020C657F021C6CE
:103FB00058F0596A5A6A58AE02D059685A68F40ED5
:103FC0005C6E010E5D6E5E6A5F6AAAEC77F053C0AC
:103FD00057F054C058F055C059F056C05AF0F00E82
:103FE0005C6E5D6A5E6A5F6A02EC71F05A34000EC4
:103FF0005A1809E6D880E70E5754030E5854000E9D
:104000005954000E5A5407E2E70E366E030E376E0F
:10401000386A396A39D020C636F021C637F0386A96
:10402000396A37AE02D038683968F40E5C6E010E1A
:104030005D6E5E6A5F6A36C057F037C058F038C0B0
:1040400059F039C05AF0AAEC77F053C036F054C09A
:1040500037F055C038F056C039F0F00E5C6E5D6A2E
:104060005E6A5F6A53C057F054C058F055C059F0AB
:1040700056C05AF002EC71F057C036F058C037F015
:1040800059C038F05AC039F036C0E6FF37C0E6FFF5
:10409000E4EC58F0E552E552130EE66EC00EE66E03
:1040A0002FEC58F0E552E55222C657F023C658F0DF
:1040B000596A5A6A58AE02D059685A68F40E5C6E52
:1040C000010E5D6E5E6A5F6AAAEC77F053C057F02E
:1040D00054C058F055C059F056C05AF0F00E5C6EFE
:1040E0005D6A5E6A5F6A02EC71F0D8805A50FF0A1E
:1040F00008E6190E575CFC0E5858FF0E5958FF0E73
:104100005A5807E2190E366EFC0E376E3868396859
:104110006FD022C657F023C658F0596A5A6A58AE73
:1041200002D059685A68F40E5C6E010E5D6E5E6ACC
:104130005F6AAAEC77F053C057F054C058F055C0EE
:1041400059F056C05AF0F00E5C6E5D6A5E6A5F6AA6
:1041500002EC71F05A34000E5A1809E6D880E70EC6
:104160005754030E5854000E5954000E5A5407E287
:10417000E70E366E030E376E386A396A39D022C6BA
:1041800036F023C637F0386A396A37AE02D038685D
:104190003968F40E5C6E010E5D6E5E6A5F6A36C051
:1041A00057F037C058F038C059F039C05AF0AAEC6F
:1041B00077F053C036F054C037F055C038F056C0D1
:1041C00039F0F00E5C6E5D6A5E6A5F6A53C057F04C
:1041D00054C058F055C059F056C05AF002EC71F076
:1041E00057C036F058C037F059C038F05AC039F0CF
:1041F00036C0E6FF37C0E6FFE4EC58F0E552E55282
:104200000F0EE66EC00EE66E2FEC58F0E552E5524A
:10421000000EE66EE66AE4EC58F011D0D9EF16F025
:1042200065EC46F00ED07DEC2BF00BD002EC75F077
:1042300008D00A0EE66EEC0EE66E2FEC58F0E55252
:08424000E552B7EF16F0120081
:08424800D9CFE6FFE1CFD9FF59
:10425000FB0EDBCF57F0FC0EDBCF58F0FD0EDBCFB3
:1042600059F0FE0EDBCF5AF03F0E5C6E070E5D6E0E
:104270005E6A5F6AAAEC77F053C057F054C058F0FA
:1042800055C059F056C05AF0100E5C6E270E5D6E88
:104290005E6A5F6A02EC71F0E552E7CFD9FF120067
:1042A000D9CFE6FFE1CFD9FFFB0EDBCF57F0FC0EF5
:1042B000DBCF58F0FD0EDBCF59F0FE0EDBCF5AF00E
:1042C0003F0E5C6E070E5D6E5E6A5F6AAAEC77F069
:1042D00053C057F054C058F055C059F056C05AF06A
:1042E000A00E5C6E860E5D6E010E5E6E5F6A02EC65
:1042F00071F0E552E7CFD9FF1200D9CFE6FFE1CF49
:10430000D9FFFB0EDBCF57F0FC0EDBCF58F0FD0ED4
:10431000DBCF59F0FE0EDBCF5AF0A00E5C6E860E9E
:104320005D6E010E5E6E5F6AAAEC77F053C057F0C7
:1043300054C058F055C059F056C05AF03F0E5C6E4C
:10434000070E5D6E5E6A5F6A02EC71F0E552E7CFC0
:10435000D9FF1200D9CFE6FFE1CFD9FF0901546B95
:10436000556B566B0A01C65136E1FE0EDBCF53F991
:10437000FD0EDB500901D88053552DE354C936F0AA
:1043800055C937F056C938F00A0E5D6E5E6A5F6A2D
:1043900054C958F055C959F056C95AF063EC71F038
:1043A00009015351EA6A000FE96E070EEA22EFCFC6
:1043B00039F03A6A3B6A55503924546F56503A20C6
:1043C000556F57503B20566F300E545F000E555BB3
:1043D000565B532BCDD754C958F055C959F056C91F
:1043E0005AF0E552E7CFD9FF1200D9CFE6FFE1CF6F
:1043F000D9FF0901636B646B656B666B0A01C6517B
:1044000001E0CBD0FE0EDB50040F0901676F67514E
:10441000EA6A000FE96E070EEA22EF502E0802E06A
:10442000672BF5D7030E675DE66EFE0EDBCFE6FF6A
:1044300091DFE552E55258C057F959C058F95AC0B2
:1044400059F909015A6B59BF5A696705E66E020EA0
:10445000675DE66E7FDFE552E55258C05BF959C0F3
:104460005CF95AC05DF909015E6B5DBF5E69FD0EC6
:10447000DB50D8806755040814E2050E6725E66E08
:104480006729E66E67DFE552E55258C05FF959C00B
:1044900060F95AC061F90901626B61AF2BD06269A2
:1044A00029D0040E6725E66E6729E66E53DFE552D4
:1044B000E55258C05FF959C060F95AC061F9090165
:1044C000626B61BF62690A0E5C6E5D6A5E6A5F6AFA
:1044D0005FC957F060C958F061C959F062C95AF014
:1044E000AAEC77F053C05FF954C060F955C061F988
:1044F00056C062F957C936F058C937F059C938F073
:104500005AC939F0800E5C6E8D0E5D6E5B0E5E6E6C
:104510005F6A57C957F058C958F059C959F05AC974
:104520005AF0AAEC77F053C036F054C037F055C0BB
:1045300038F056C039F05BC93AF05CC93BF05DC950
:104540003CF05EC93DF0A00E5C6E860E5D6E010E05
:104550005E6E5F6A5BC957F05CC958F05DC959F07F
:104560005EC95AF0AAEC77F05350362654503722E1
:1045700055503822565039225F0EE96E090EEA6E08
:104580003650EE240901636F3750EE20646F3850C7
:10459000EE20656F3950EE20666F63C957F064C92D
:1045A00058F065C959F066C95AF0E552E7CFD9FF0E
:1045B0001200D9CFE6FFE1CFD9FF0901686B696B23
:1045C0006A6B6B6B0A01C65101E09AD0FE0EDB28C4
:1045D000E66EFE0EDBCFE6FFBDDEE552E55258C0CB
:1045E00036F059C037F05AC038F0396A38BE3968E9
:1045F000100E5C6E0E0E5D6E5E6A5F6A36C057F01E
:1046000037C058F038C059F039C05AF0AAEC77F0EA
:1046100053C036F054C037F055C038F056C039F0AA
:1046200053C0E6FF54C0E6FF55C0E6FF56C0E6FFA4
:10463000FE0EDB50030FE66EFE0EDB50020FE66E41
:1046400089DEE552E552E552E7CF39F0E552E7CF92
:1046500038F0E552E7CF37F0E552E7CF36F058C0F3
:104660003AF059C03BF05AC03CF03C0E5D6E5E6AB9
:104670005F6A63EC71F055C03AF056C03BF057C02A
:104680003CF03D6A3CBE3D683A5036263B503722EE
:104690003C5038223D50392236C0E6FF37C0E6FF95
:1046A00038C0E6FF39C0E6FFFD0EDBCFE6FFFE0EA9
:1046B000DB50040FE66E4EDEE552E552E552E7CFE1
:1046C00039F0E552E7CF38F0E552E7CF37F0E55261
:1046D000E7CF36F058C03EF059C03FF05AC040F026
:1046E000416A40BE416836503E240901686F375028
:1046F0003F20696F385040206A6F395041206B6FFE
:1047000068C957F069C958F06AC959F06BC95AF0BD
:10471000E552E7CFD9FF1200C3CAC4FA0A01C35158
:10472000EA6A000FE96E070EEA22EFCF6CF92C0E51
:1047300009016C5D09E02A0E6C5D06E00A01C251B8
:10474000C35D02E2C32BEBD70A01C305C56FC32BC0
:10475000C451C55D02E3000E01D0010EC66F120008
:104760000A01C36B50C7C2FAD7DFD6DFC5CAE6FF5E
:10477000C4CAE6FF1EDFE552E55257C0D8F458C060
:10478000D9F459C0DAF45AC0DBF4C6DFC5CAE6FF73
:10479000C4CAE6FF2ADEE552E55257C0E6F458C027
:1047A000E7F459C0E8F45AC0E9F4B6DF0A01C4518D
:1047B000EA6A000FE96E070EEA22EF50530809E19A
:1047C000000E0401E66DE71FE723E81FE823E91F59
:1047D000E923A2DFC5CAE6FFC4CAE6FF06DEE5524A
:1047E000E55257C0EAF458C0EBF459C0ECF45AC093
:1047F000EDF492DF0A01C451EA6A000FE96E070E78
:10480000EA22EF50570809E1000E0401EA6DEB1FA0
:10481000EB23EC1FEC23ED1FED237EDFC5CAE6FF83
:10482000C4CAE6FF97DDE552E55258C0FDF474DFD7
:10483000C5CAE6FFC4CAE6FF8DDDE552E55258C0A1
:10484000FCF46ADF030E0A01C55DE66EC4CAE6FF2A
:1048500081DDE552E55258C039F059C03AF05AC0EE
:104860003BF00A0E5D6E5E6A5F6A63EC71F055C0E4
:1048700039F056C03AF057C03BF055C0E6FF56C07D
:10488000E6FF57C0E6FF0A01C505E66EC505E66E00
:1048900061DDE552E552E552E7CF3BF0E552E7CF67
:1048A0003AF0E552E7CF39F039505824366E3A5095
:1048B0005920376E3B505A20386E36C0FEF437C050
:1048C000FFF42ADF020E0A01C55DE66EC4CAE6FFE8
:1048D00041DDE552E55258C036F059C037F05AC0B4
:1048E00038F0396A38BE39680A0E5C6E5D6A5E6AF5
:1048F0005F6A36C057F037C058F038C059F039C039
:104900005AF0AAEC77F053C036F054C037F055C0D7
:1049100038F056C039F053C0E6FF54C0E6FF55C02A
:10492000E6FF56C0E6FFC5CAE6FFC5CAE6FF12DDD0
:10493000E552E552E552E7CF39F0E552E7CF38F0DE
:10494000E552E7CF37F0E552E7CF36F058C03AF0FE
:1049500059C03BF05AC03CF00A0E5D6E5E6A5F6A59
:1049600063EC71F055C03AF056C03BF057C03CF0D4
:104970003D6A3CBE3D683A5036263B5037223C509B
:1049800038223D50392236C0E0F437C0E1F438C057
:10499000E2F4010E0401FD5D03E3060EFC5D02E29C
:1049A000000E01D0010E0A01579DE8B0578D040E8C
:1049B000725C63E10501DD510401FF19E8AE02D02C
:1049C000FF3507D0FE510501DC5D0401FF510501F3
:1049D000DD5905E2FEC4DCF5FFC4DDF514D00401A9
:1049E000FF510501DB19E8AE02D0DB3507D0DA5103
:1049F0000401FE5D0501DB510401FF5904E2FEC420
:104A0000DAF5FFC4DBF50401FC51366E376A0501A7
:104A1000D7513718E8AE02D0373404D03650D65DBF
:104A20003750D75906E20401FC510501D66FD76B08
:104A300015D00401FC51366E376A05013750C7198D
:104A4000E8AE02D0C73504D0C651365CC7513758DE
:104A500005E20401FC510501C66FC76B0401FF3577
:104A600004E2FE510F08000EFF5502E3000E01D0D4
:104A7000010E0A015897E8B0588712000A01C36B6B
:104A800050C7C2FA49DE48DE47DE0A01C451EA6A6D
:104A9000000FE96E070EEA22EF50410801E03FD116
:104AA0000A01578D39DEC5CAE6FFC4CAE6FF9DDCA0
:104AB000E552E55257C0E6F458C0E7F459C0E8F4AF
:104AC0005AC0E9F429DE0A01C451EA6A000FE96E0E
:104AD000070EEA22EF50530809E1000E0401E66DCB
:104AE000E71FE723E81FE823E91FE92315DEC5CA0E
:104AF000E6FFC4CAE6FF79DCE552E55257C0EAF4A6
:104B000058C0EBF459C0ECF45AC0EDF405DE0A01CC
:104B1000C451EA6A000FE96E070EEA22EF50570807
:104B200009E1000E0401EA6DEB1FEB23EC1FEC23FF
:104B3000ED1FED23F1DD080EE66EC5CAE6FF0A01A2
:104B4000C505E66EAAEC21F0E552E55258C03AF0F0
:104B500059C03BF05AC03CF03D6A3CBE3D683AC08B
:104B6000E6FF3BC0E6FF3CC0E6FF3DC0E6FF030EAC
:104B70000A01C55DE66EC4CAE6FFAAEC21F0E55263
:104B8000E552E552E7CF3DF0E552E7CF3CF0E55284
:104B9000E7CF3BF0E552E7CF3AF058C057F059C0A5
:104BA00058F05AC059F05A6A59BE5A68640E5C6E81
:104BB0005D6A5E6A5F6AAAEC77F0535000013A249E
:104BC000366E54503B20376E55503C20386E565050
:104BD0003D20396E0D0E5C6E5D6A5E6A5F6A36C09E
:104BE00057F037C058F038C059F039C05AF0AAEC25
:104BF00077F053C036F054C037F055C038F056C087
:104C000039F053C0E6FF54C0E6FF55C0E6FF56C07A
:104C1000E6FFA7EC4FF03E6E050EE15E3E5057C03A
:104C2000FAF458C0FBF478DD080EE66EC5CAE6FF5C
:104C30000A01C505E66EAAEC21F0E552E55258C01E
:104C40003AF059C03BF05AC03CF03D6A3CBE3D686A
:104C50003AC0E6FF3BC0E6FF3CC0E6FF3DC0E6FFD2
:104C6000030E0A01C55DE66EC4CAE6FFAAEC21F098
:104C7000E552E552E552E7CF3DF0E552E7CF3CF093
:104C8000E552E7CF3BF0E552E7CF3AF058C057F096
:104C900059C058F05AC059F05A6A59BE5A68640E41
:104CA0005C6E5D6A5E6A5F6AAAEC77F05350000141
:104CB0003A24366E54503B20376E55503C20386EA7
:104CC00056503D20396E2D0E5C6E5D6A5E6A5F6ADD
:104CD00036C057F037C058F038C059F039C05AF0D4
:104CE000AAEC77F053C036F054C037F055C038F016
:104CF00056C039F053C0E6FF54C0E6FF55C0E6FF8A
:104D000056C0E6FFA7EC4FF03E6E050EE15E3E504A
:104D100057C0F8F458C0F9F40A015D8912000A017D
:104D20005D991200D9CFE6FFE1CFD9FF245001E110
:104D300098D0020A55E0040A33E0010A01E09CD051
:104D4000020E2B5C15E22C38F00B2C6E410EF36E2C
:104D5000FE0EDBCFF4FFF350F45C04E3FE0EDB50F9
:104D6000C90F03D0FE0EDB50D00F2C262B2A84D087
:104D700025C050F729502C5C02E0000E01D0010E36
:104D80000A015F93E8B05F835FA369D00A01C05155
:104D9000010A04E0010A63E1E3DC61D06FDE5FD069
:104DA000FE0EDB502A0804E12C6A2B6A070E63D042
:104DB000FE0EDB50240803E1000E296E59D0FE0ED2
:104DC000DB50291A2550252AEA6A000FE96E070EE2
:104DD000EA22FE0EDBCFEFFF25504F084DE23FD019
:104DE000FE0EDB50291A2650050DF3CF36F0F4CF16
:104DF00037F00E0E3626000E372227503624F66E78
:104E0000000E3720F76E0800F550F36EFE0EDB50F3
:104E1000F35C05E0020E265C02E2262AE4D7265067
:104E2000050DF3CF36F0F4CF37F00E0E3626000E18
:104E3000372227503624F66E000E3720F76E080012
:104E4000F550F36EFE0EDB50F35C09E1040E275CB7
:104E500004E126C0C0FA060E0ED0272A0DD0246A1F
:104E60000BD0FE0EDB50240807E1000E296E266EE3
:104E7000276E256E020E246EE552E7CFD9FF120091
:104E8000C7CA36F0C8CA37F0386A396A37AE02D0B6
:104E9000386839681E0E361801E0FED0375001E040
:104EA000FBD0385001E0F8D0395001E0F5D00A01CC
:104EB0005751400B01E1F0D094EC6DF058C086F6EC
:104EC00059C087F65AC088F6D8C4DCF4D9C4DDF4DA
:104ED000DAC4DEF4DBC4DFF4E6C4EEF4E7C4EFF4D6
:104EE000E8C4F0F4E9C4F1F4EAC4F2F4EBC4F3F476
:104EF000ECC4F4F4EDC4F5F4E6C471F9E7C472F956
:104F0000E8C473F9E9C474F9C00E5C6E270E5D6ED7
:104F1000090E5E6E5F6AE6C457F0E7C458F0E8C455
:104F200059F0E9C45AF002EC71F057C071F958C059
:104F300072F959C073F95AC074F90901800E5A14F4
:104F400009E0000E716D721F7223731F7323741FAB
:104F5000742302D074C974F971C936F072C937F07C
:104F600073C938F074C939F0F60E5C6E0D0E5D6EC3
:104F70005E6A5F6A71C957F072C958F073C959F017
:104F800074C95AF0AAEC77F053C036F054C037F029
:104F900055C038F056C039F00B0ED890393238323F
:104FA00037323632E806F9E136C071F937C072F9A6
:104FB00038C073F939C074F936C0E6FF37C0E6FF70
:104FC00097EC51F0E552E552F3CFF6F4F4CFF7F455
:104FD000E0C4E3F4E1C4E4F4E2C4E5F40401FA6BF0
:104FE000FB6BE0C436F0E1C437F0E2C438F0640E85
:104FF0005D6E5E6A5F6AE0C458F0E1C459F0E2C4D5
:105000005AF0D5EC70F058C036F059C037F05AC09D
:1050100038F058C0E6FF59C0E6FF0C0EE66E010EF0
:10502000E66E3DEC73F0E552E552E552E552E6C41A
:10503000E6FFE7C4E6FFE8C4E6FFE9C4E6FF0E0EBC
:10504000E66E010EE66E6DEC73F0366E060EE15EF6
:105050003650EAC4E6FFEBC4E6FFECC4E6FFEDC45D
:10506000E6FF120EE66E010EE66E6DEC73F0366E24
:10507000060EE15E36500A0157BF0DD0E66A080EF3
:10508000E66ED9EC2CF0E552E552010E0501D86F21
:10509000D96B0A01578F5A8912000A0157AD1DD1E9
:1050A00094EC6DF058C075F959C076F95AC077F98B
:1050B000860EE96E060EEA6EEE50585C366EEE50C5
:1050C0005958376EEE505A5836C078F937C079F9CA
:1050D00058C086F659C087F65AC088F6C7CA36F057
:1050E000C8CA37F0386A396A37AE02D038683968CA
:1050F000D8903950000A08E61E0E365C000E37586C
:10510000000E3858000E395822E20A01579DFEC49D
:1051100036F0FFC437F0386A396A37AE02D03868E3
:1051200039683934000E391809E6D8800F0E365424
:10513000000E3754000E3854000E395405E30A01AE
:10514000C72B000EC82303D00A01C76BC86B0A0126
:1051500057AF92D0EE0EE96E040EEA6EEE500401E7
:10516000E65D366EEE50E759376EEE50E859386E10
:10517000EE50E959396E36C0E6FF37C0E6FF38C059
:10518000E6FFE66E24EC21F0E552E552E552E552E9
:1051900057C057F758C058F759C059F7080EE66E70
:1051A000F6C43EF0F7C43FF0406A416A3FAE02D019
:1051B000406841683EC0E6FF3FC0E6FF40C0E6FFF2
:1051C00041C0E6FFF20EE96E040EEA6EEE500401F5
:1051D000EA5D3A6EEE50EB593B6EEE50EC593C6E88
:1051E000EE50ED593D6E3AC0E6FF3BC0E6FF3CC0D5
:1051F000E6FFE66E24EC21F0E552E552E552E55279
:10520000E552E7CF41F0E552E7CF40F0E552E7CF76
:105210003FF0E552E7CF3EF03EC05CF03FC05DF0AE
:1052200040C05EF041C05FF0AAEC77F053C036F0AA
:1052300054C037F055C038F056C039F053C0E6FFBF
:1052400054C0E6FF55C0E6FF56C0E6FFA7EC4FF09E
:10525000050EE15E57C068F758C069F759C06AF794
:1052600057C75DF758C75EF759C75FF757C06EF766
:1052700058C06FF759C070F7040E725C37E1C0C5B3
:1052800036F0C1C537F0386A37BE38683850040187
:10529000E219E8AE02D0E23506D0E051365CE151C9
:1052A0003758E251385804E2E0C4C0F5E1C4C1F512
:1052B0000501CD510401FB19E8AE02D0FB3507D042
:1052C000FA510501CC5D0401FB510501CD590EE2F7
:1052D000FAC4CCF5FBC4CDF51200C7CAFCF4040E29
:1052E000725C04E10501D42B000ED52312000A01E3
:1052F0005F51020B1BE12F502D1802E130502E1888
:1053000015E0000E2F24E96E020E3020EA6EEFCF7A
:105310007AF9010E2F26000E3022FF0E2F16000EF6
:1053200030167AC9E6FFFEDCE552E1D75FA330D044
:10533000020EE66E77EC76F0E552040EE66E83EC34
:1053400076F0E5520A015F93A8DE0A0157AD1ED040
:10535000040EE66E83EC76F0E5520A015C9794EC5D
:105360006DF058C036F059C037F05AC038F0396A7D
:10537000D00E3626070E3722000E3822392236C0CC
:105380008FF637C090F638C091F613D05A9D0CD0E6
:1053900094EC6DF0585006018F5D595090595A5059
:1053A000915907E20A01579D040EE66E77EC76F0FC
:1053B000E552020EE66E83EC76F0E55212000A0129
:1053C000C36B0401F66B010EF76FFE6BFF6BFC6B9A
:1053D000FCC4FDF4FCC4D8F4D96BDA6BDB6B000EB3
:1053E000FA6FFB6BF86FF96BE06FE16BE26BE1BF9B
:1053F000E269E66BE76BE86BE96BE6C4EEF4E7C4E1
:10540000EFF4E8C4F0F4E9C4F1F4EA6BEB6BEC6B95
:10541000ED6BEAC4F2F4EBC4F3F4ECC4F4F4EDC4C1
:10542000F5F4E66AE66AE66AE66A0E0EE66E010ED4
:10543000E66E6DEC73F0366E060EE15E3650E66A8F
:10544000E66AE66AE66A120EE66E010EE66E6DEC3C
:1054500073F0366E060EE15E3650000EE66EE66ABA
:105460000C0EE66E010EE66E3DEC73F0E552E55271
:10547000E552E5520A01C76BC86B0A015F93579D5D
:06548000579F246A120090
:0A5486007ABA05D0200EE66E77EC2E
:1054900076F004D0200EE66E83EC76F0E5520A0139
:1054A0005BA105D0080EE66E77EC76F004D0080E0E
:1054B000E66E83EC76F0E552800EE66E83EC76F0D5
:1054C000E55294EC6DF058C0B4F859C0B5F85AC024
:1054D000B6F8F40E0801B427010EB523000EB6236A
:1054E00023EC19F0010E756E0AEC6FF0010E756E6B
:1054F0003AEC4CF00A01589D5BA15CD0080EE66EB8
:1055000077EC76F0E5520A015BA75ED00DEC3DF03A
:1055100042C640F643C641F6000E06013C6F3D6BA5
:105520000601426F436BB1EC38F094EC6DF05850CB
:105530000801B45D5950B5595A50B65932E20A01C2
:105540005A51020B2EE197EC44F00A015B95E8B04A
:105550005B855951010B06E15851800B03E15B510A
:10556000040B13E17ABE05D0800EE66E77EC76F080
:1055700004D0800EE66E83EC76F0E5527AB405D066
:10558000040EE66E77EC76F004D0040EE66E83EC43
:1055900076F0E552F40E0801B427010EB523000E93
:1055A000B6230A01F30710E1A4EC43F00A01010E4F
:1055B000F36F0AD0040EE66E77EC76F0E552080E33
:1055C000E66E83EC76F0E552B6EC3FF00A015B51F3
:1055D000010B01E185D78050100B04E00801AF51A9
:1055E00001E07ED70A015E51400B01E079D75951A5
:1055F000010B01E075D75851800B01E071D757516D
:10560000040B01E06DD740C636F041C637F0386A6A
:10561000396A37AE02D038683968D8903950000AF4
:1056200008E6180E365C000E3758000E3858000E8B
:10563000395801E355D75B51040B01E151D70801FB
:10564000AF6B800EE66E83EC76F0E552040EE66EEC
:1056500083EC76F0E552080EE66E77EC76F0E552D4
:105660000A015BAB05D0200EE66E77EC76F004D035
:10567000200EE66E83EC76F0E55294EC6DF058C0A7
:10568000B0F859C0B1F85AC0B2F80801B36B58C0AD
:105690009BF659C09CF65AC09DF658C036F059C0CA
:1056A00037F05AC038F0B3C839F0E80E3626030E8A
:1056B0003722000E3822392236C077F637C078F606
:1056C00038C079F600CF36F0376A386A396AB00EDA
:1056D000E96E080EEA6EEE503626EE503722EE5096
:1056E0003822EE50392236C0B6F637C0B7F638C089
:1056F000B8F60A015797746A12007B0EE66EC40E64
:10570000E66E2FEC58F0E552E552D9EC16F065EC58
:1057100046F002EC75F06D0EE66EC40EE66E2FECF0
:1057200058F0E552E5520801B86B400EB85D62E2F0
:10573000690EE66EC40EE66E2FEC58F0E552E552A7
:105740000801B829E66EE66A7BEC58F0E552E552AE
:10575000650EE66EC40EE66E2FEC58F0E552E5528B
:105760000801B851EA6A000FE96E080EEA22EFCF8D
:1057700036F0376A36BE376836C0E6FF37C0E6FF18
:10578000E4EC58F0E552E5520801B851F66EF76ABC
:10579000D890F636F736D30EF626EE0EF722010E27
:1057A000F626000EF7220800F55007E0620EE66EBE
:1057B000C40EE66E2FEC58F018D0200EE66E4FECBB
:1057C00058F0E552400E0801B825E66EE66A64EC32
:1057D00072F0E552E552366E376A36BE376836C02B
:1057E000E6FF37C0E6FFE4EC58F0E552E552080169
:1057F000B82B9BD712003F0E926E020EC16EC00EE8
:10580000816E400E936E600E826E840E946EC78C15
:10581000F19E410EE66EE66A3C0EE66E22EC77F0F3
:10582000E552E552E5521200726A0801B96B0A0EA0
:10583000B95D09E2B951EA6A570FE96E0A0EEA2228
:10584000EF6AB92BF4D70A015A815A895B850F0197
:10585000766B776B786B796B060148697F0E496FC1
:1058600048C646F6E8CF47F648C64AF6E8CF4BF6B4
:10587000140E06013E6F3F6BF00E0601406F416B48
:10588000D00E0001BF6FC06B7A6A2E0EE66E83ECFD
:1058900076F0E552040EE66E77EC76F0E552800E77
:1058A000E66E83EC76F0E5521200D9CFE6FFE1CF49
:1058B000D9FFFD0EDBCF36F0FE0EDBCF37F0386AB6
:1058C00037BE386836C0E6FF37C0E6FF38C0E6FFAF
:1058D00094EC6DF0E552E7CF38F0E552E7CF37F0C2
:1058E000E552E7CF36F0585036240801BA6F5950C8
:1058F0003720BB6F5A503820BC6FBA2B000EBB2329
:10590000BC2394EC6DF00801BA51585CBB51595856
:10591000BC515A58F6E3E552E7CFD9FF1200D9CF70
:10592000E6FFE1CFD9FFFD0EDBCF36F0FE0EDBCF79
:1059300037F0640E3702F3CF37F03602F3CF36F08C
:10594000F4503726386A37BE386836C0E6FF37C0AD
:10595000E6FF38C0E6FF94EC6DF0E552E7CF38F093
:10596000E552E7CF37F0E552E7CF36F0585036240E
:105970000801BD6F59503720BE6F5A503820BF6F95
:1059800094EC6DF00801BD51585CBE515958BF519F
:105990005A580BE2020E0F01005DE66EE66A85DFE3
:1059A000E552E552B1EC38F0EBD7E552E7CFD9FF3D
:1059B0001200D9CFE6FFE1CFD9FF800EE66E77EC7B
:1059C00076F0E552FE0EDBCFE6FFE66AA8DFE55291
:1059D000E552800EE66E83EC76F0E552FD0EDBCFED
:1059E000E6FFE66A9CDFE552E552E552E7CFD9FFD4
:1059F0001200D9CFE6FFE1CFD9FF0801C06BFE0E40
:105A0000DB50C05D0AE2080EE66E020EE66ED1DFE4
:105A1000E552E5520801C02BF2D7E66A080EE66EA1
:105A2000C8DFE552E552E552E7CFD9FF120094EC0A
:105A30006DF058C0C1F859C0C2F85AC0C3F8C10EC1
:105A4000E96E080EEA6E06019E51EE5C9F51EE581B
:105A5000A051EE5801E2BFD0755001E1BCD0C1C8E1
:105A60009EF6C2C89FF6C3C8A0F6E80E9E27030E96
:105A70009F23000EA023756ABCC057F0BDC058F02C
:105A8000596A5A6A58AE02D059685A68040E5C6E58
:105A90005D6A5E6A5F6AAAEC77F053C06EFF54C01D
:105AA0006FFF9B0EE96E060EEA6EEE500801C15DB7
