:020000040000FA
:06000000EDEF7BF01200A1
:020006001200E6
:0600080026EF72F0120069
:02000E00475059
:080010004747414750524D43A0
:060018001FEF72F0120060
:02001E000E00D2
:10002000DAF80000E70A00000A000000ADF4000062
:10003000FF07000001000000D3F80000170B0000CC
:1000400007000000CFF80000310B000004000000A2
:10005000CDF80000FE08000002000000E5F10000FD
:10006000FF06000001000000C8F80000240B00009B
:1000700005000000AEF800007C0A00001A00000035
:100080008CF80000220A00002200000084F8000022
:10009000000B00000800000078F80000CF0A000004
:1000A0000C00000064F800006B0F0000140000005A
:1000B00042F80000000A0000220000003CF80000A6
:0800C000FA0A0000060000002E
:0800C8000901C36B0A01AC81C0
:1000D000A9810F01300E0E6FF80E0F6F10690F011E
:1000E000100E1E6F1F690A01ABAB4BD036C63CF633
:1000F00037C63DF611CF36F012CF37F013CF38F0B8
:10010000396A38BE39683934000E391809E6D880A2
:100110002C0E3654010E3754000E3854000E39544C
:1001200016E210EC72F059C036F05AC037F05BC0DE
:1001300038F0396A980E36263A0E3722000E3822E9
:10014000392236C01BF737C01CF738C01DF710EC3A
:1001500072F0595007011B5D5A501C595B501D59D4
:100160000AE20A01AC51800B08E1040E745C05E060
:10017000030E755C02E0000E01D0010E0901C36F91
:100180006BD00901BB510601365D366E375109014E
:10019000BC55376E0001800E371403E006013C6B3E
:1001A00013D00901BB510601365D386E3751090184
:1001B000BC55396EE8340AE23850D008000E395484
:1001C00005E20601D00E3C6F3D6B0BD0BB51060122
:1001D000365D06013C6F0901BC5106013759060125
:1001E0003D6F10EC72F0595007011E5D5A501F59B7
:1001F0005B50205931E210EC72F059C036F05AC011
:1002000037F05BC038F0396AE80E3626030E372225
:10021000000E3822392236C01EF737C01FF738C00B
:1002200020F706013D5106013F19E8AE02D03F35E7
:1002300007D03E5106013C5D06013F5106013D5984
:1002400002E3000E01D0010E0901C36FE85004E182
:10025000050EBB27000EBC230901C3511200EEECB2
:100260003EF02E0EE66E30EC79F0E552746A030E25
:10027000736E1200050EE66EE66A3AC4E6FF3BC4F2
:10028000E6FF24EC2FF0E552E552E552E552F3CFBC
:100290003AF4F4CF3BF4050EE66EE66A82C4E6FF5C
:1002A00083C4E6FF24EC2FF0E552E552E552E55217
:1002B000F3CF82F4F4CF83F40401CA6BCB6B12004A
:1002C000000E0401A26FA36B5A6F5B6B126F136B6E
:1002D000B9C7E6FFBAC7E6FFBBC7E6FFA8C7E6FF98
:1002E000A9C7E6FFAAC7E6FFDAD8366E060EE15EBA
:1002F00036501200EEEC3EF00A01A987030E736E31
:10030000756E16EC2DF0EBEC2DF03FEC51F076EC29
:1003100029F01EEC59F0F5D70A01AE97AEC7ABF73E
:10032000AFC7ACF7B0C7ADF7BFC7BCF7C0C7BDF725
:10033000C1C7BEF7AC99AB95AB93AE9D746A120082
:10034000D9CFE6FFE1CFD9FF0701E96BEA6BEB6B91
:10035000FD0EDBCF36F0FE0EDBCF37F036C0F3FFFD
:1003600037C0F4FFE552E7CFD9FF12000001F15189
:100370000901BF5D366EC0510001F255376E36C0BF
:10038000E6FFE66E70EC55F0E552E552F3CFC4F9A6
:10039000F4CFC5F90901D880F45004E7E40EC45D38
:1003A000FF0EC55904E2E40EC46FC5690DD0C53512
:1003B00009E2C4511C08000EC55504E21C0EC46FAE
:1003C000C56B02D0C5C9C5F9090EE66EC1C946F0B4
:1003D000C2C947F0486A496A47AE02D048684968CE
:1003E000F4C742F0436A446A456A42AE03D04368A8
:1003F00044684568C4C93EF0C5C93FF0406A416AD7
:100400003FAE02D0406841683EC058F03FC059F04E
:1004100040C05AF041C05BF042C05DF043C05EF0A6
:1004200044C05FF045C060F057EC7AF054C03AF039
:1004300055C03BF056C03CF057C03DF054C058F09A
:1004400055C059F056C05AF057C05BF046C05DF039
:1004500047C05EF048C05FF049C060F057EC7AF0EA
:1004600054C036F055C037F056C038F057C039F098
:1004700054C0E6FF55C0E6FF56C0E6FF57C0E6FF92
:10048000ACEC54F04A6E050EE15E4A5058C0C4F917
:1004900059C0C5F958C0F3FF59C0F4FF1200D9CFB5
:1004A000E6FFE1CFD9FF10EC72F059C0C6F95AC08F
:1004B000C7F95BC0C8F90901C96B27C73AF028C75B
:1004C0003BF029C73CF03D6A3A50595C366E3B50D0
:1004D0005A58376E3C505B58386E3D50C959396E8A
:1004E00036C05EFA37C05FFA38C060FA59C027F7E5
:1004F0005AC028F75BC029F7DBC736F0DCC737F0F6
:10050000386A396A37AE02D038683968480E365EC4
:10051000000E375A385A395A36C0C1F937C0C2F9B5
:10052000800E371403E0C16BC26B0DD0C23509E2F7
:10053000C1510008010EC25504E2C16B010EC26F29
:1005400002D0C2C9C2F9FC0EDBCFA8F7FD0EDBCF8B
:10055000A9F7FE0EDBCFAAF7F90EDBCFB9F7FA0E3B
:10056000DBCFBAF7FB0EDBCFBBF70701AE51A85DBF
:10057000B16FAF51A959B26FB051AA59B36FBF5102
:10058000B95DC26FC051BA59C36FC151BB59C46F75
:10059000800EB31518E0B1C7D2F9B2C7D3F9B3C70B
:1005A000D4F95E685F686068B1C759F0B2C75AF0A5
:1005B000B3C75BF010EC74F056C0D2F957C0D3F952
:1005C00058C0D4F906D0B1C7D2F9B2C7D3F9B3C76E
:1005D000D4F90701800EC41518E0C2C7D5F9C3C706
:1005E000D6F9C4C7D7F95E685F686068C2C759F0BA
:1005F000C3C75AF0C4C75BF010EC74F056C0D5F90D
:1006000057C0D6F958C0D7F906D0C2C7D5F9C3C765
:10061000D6F9C4C7D7F9D20EE96E090EEA6E020EFA
:10062000EB500901D719E8AE02D0D73506D0D55125
:10063000EE5CD651EE58D751EE5807E2D5C954FAC0
:10064000D6C955FAD7C956FA06D0D2C954FAD3C971
:1006500055FAD4C956FA54CA36F055CA37F056CAB4
:1006600038F0396A38BE3968D8903950000A08E63F
:10067000500E365C0B0E3758000E3858000E3958A5
:1006800042E2D5C959F0D6C95AF0D7C95BF0D5C9ED
:100690005EF0D6C95FF0D7C960F010EC74F056C0B8
:1006A0003AF057C03BF058C03CF0D2C959F0D3C91A
:1006B0005AF0D4C95BF0D2C95EF0D3C95FF0D4C997
:1006C00060F010EC74F03A505624366E3B505720D0
:1006D000376E3C505820386E396A38BE396836C09B
:1006E000E6FF37C0E6FF38C0E6FF39C0E6FFB1ECF1
:1006F00058F0E552E552E552E55258C054FA59C057
:1007000055FA5AC056FAB1C738F0B2C739F0B3C774
:100710003AF03B6A3ABE3B6838C0E6FF39C0E6FFB4
:100720003AC0E6FF3BC0E6FFC2C73CF0C3C73DF09E
:10073000C4C73EF03F6A3EBE3F683CC0E6FF3DC0D6
:10074000E6FF3EC0E6FF3FC0E6FFB5EC56F0406E68
:10075000080EE15E4050F3CF36F0F4CF37F0F3CF20
:10076000E6FFF4CFE6FFECDDE552E552F3CF59FAB0
:10077000F4CF5AFAFEC436F0FFC437F0D8903636BC
:100780003736386A37BE38680701F1513818E8AE95
:1007900002D0383406D03650EF5D3750F05938501B
:1007A000F15902E3000E01D0010E0A01AB95E8B049
:1007B000AB85AB51040B53E0110EE96E0F0EEA6EE0
:1007C000EE500F010E5D396EEE500F593A6EEE503D
:1007D00010593B6E0001800E3B141FE0110EE96EB4
:1007E0000F0EEA6EEE500F010E5D366EEE500F5991
:1007F000376EEE501059386E5E685F68606836C0BC
:1008000059F037C05AF05B6E10EC74F056C036F0F9
:1008100057C037F058C038F00ED0110EE96E0F0EE9
:10082000EA6EEE500F010E5D366EEE500F59376EC8
:10083000EE501059386EDDC73CF0DEC73DF03E6A21
:100840003DBE3E6838503E18E8AE02D03E3406D079
:100850003C50365C3D5037583E50385802E3000E4D
:1008600001D0010E0A01AB93E8B0AB830901C23598
:1008700001E381D2C1510008000EC25501E37BD2D1
:10088000060167510A01595D366E5A5106016855D5
:10089000376E36C0E6FFE66E70EC55F0E552E55275
:1008A000F3CFBFF9F4CFC0F9F2C739F03A6A3B6A27
:1008B00039AE02D03A683B6854CA59F055CA5AF06A
:1008C00056CA5BF039C05EF03AC05FF03BC060F0E2
:1008D00010EC74F0D8905850000A06E6000E565CF2
:1008E000000E5758000E585804E2366A376A386AC4
:1008F0004FD0E1C73FF0E2C740F0416A40BE4168D7
:10090000F2C73CF03D6A3E6A3CAE02D03D683E68AC
:1009100054CA59F055CA5AF056CA5BF03CC05EF052
:100920003DC05FF03EC060F010EC74F041505818CC
:10093000E8AE02D0583406D056503F5C575040586D
:100940005850415809E2E1C736F0E2C737F0386A3B
:1009500037AE1ED038681CD0F2C742F0436A446AF2
:1009600042AE02D04368446854CA59F055CA5AF09E
:1009700056CA5BF042C05EF043C05FF044C060F016
:1009800010EC74F056C036F057C037F058C038F04D
:1009900036C0CEF937C0CFF90401FA510901365CEF
:1009A000CC6F0401FB5109013758CD6F090EE66E7B
:1009B000C1C946F0C2C947F0486A496A47AE02D089
:1009C00048684968F3C742F0436A446A456A42AEE0
:1009D00003D0436844684568CCC93EF0CDC93FF0B8
:1009E000406A416A3FAE02D0406841683EC058F05C
:1009F0003FC059F040C05AF041C05BF042C05DF0CA
:100A000043C05EF044C05FF045C060F057EC7AF040
:100A100054C03AF055C03BF056C03CF057C03DF0D2
:100A200054C058F055C059F056C05AF057C05BF04A
:100A300046C05DF047C05EF048C05FF049C060F05E
:100A400057EC7AF054C036F055C037F056C038F045
:100A500057C039F054C0E6FF55C0E6FF56C0E6FF68
:100A600057C0E6FFACEC54F04A6E050EE15E4A500A
:100A700058C0D0F959C0D1F958C03AF059C03BF02C
:100A80003C6A3D6A3BAE02D03C683D68D8803D5030
:100A9000FF0A08E6C00E3A5CFF0E3B58FF0E3C58BA
:100AA000FF0E3D5804E2C00E366E376826D0D0C91E
:100AB0003EF0D1C93FF0406A416A3FAE02D0406883
:100AC00041684134000E411809E6D880400E3E547A
:100AD000000E3F54000E4054000E415406E2400EFA
:100AE000366E376A386A396A0AD0D0C936F0D1C949
:100AF00037F0386A396A37AE02D03868396836C09C
:100B0000D0F937C0D1F9E3C7E6FFE4C7E6FF386A9A
:100B1000396A37AE02D03868396836C0E6FF37C068
:100B2000E6FF38C0E6FF39C0E6FFE7C73AF0E8C79E
:100B30003BF03C6A3D6A3BAE02D03C683D683AC03F
:100B4000E6FF3BC0E6FF3CC0E6FF3DC0E6FF26EC0B
:100B500030F03E6E0A0EE15E3E5058C0E7F759C0D5
:100B6000E8F7080EE66EBFC9E6FFC0C9E6FF9CECD9
:100B700056F0E552E552F3CF3EF0F4CF3FF0406A35
:100B8000416A3FAE02D040684168E7C73AF0E8C723
:100B90003BF03C6A3D6A3BAE02D03C683D683AC0DF
:100BA00058F03BC059F03CC05AF03DC05BF03EC02D
:100BB0005DF03FC05EF040C05FF041C060F057ECB8
:100BC0007AF054C036F055C037F056C038F057C0F0
:100BD00039F054C0E6FF55C0E6FF56C0E6FF57C0E7
:100BE000E6FFACEC54F0426E050EE15E42505D68EB
:100BF0005E685F68606857EC7AF054C082F455C054
:100C000083F4080EE66EBFC9E6FFC0C9E6FF23EC19
:100C100056F0E552E552F3CF3EF0F4CF3FF0406A94
:100C2000416A3FAE02D040684168E7C73AF0E8C782
:100C30003BF03C6A3D6A3BAE02D03C683D683AC03E
:100C400058F03BC059F03CC05AF03DC05BF03EC08C
:100C50005DF03FC05EF040C05FF041C060F057EC17
:100C60007AF054C036F055C037F056C038F057C04F
:100C700039F054C0E6FF55C0E6FF56C0E6FF57C046
:100C8000E6FFACEC54F0426E050EE15E425058C0F7
:100C90003AF459C03BF40A01A951020B68E0DFC7DE
:100CA00036F0E0C737F0386A37BE386838500A0186
:100CB0005619E8AE02D0563506D05451365C55511F
:100CC00037585651385853E2B6EC01F0F3CFD0F90B
:100CD000F4CFD1F90901D06DD11F000ED123040149
:100CE000800ECB1502E0FF0E01D0010E366E090119
:100CF000800ED11502E0FF0E01D0010E365C04E03B
:100D0000D0C9CAF4D1C9CBF4E5C7E6FFE6C7E6FF10
:100D1000D0C936F0D1C937F0386A396A37AE02D057
:100D20003868396836C0E6FF37C0E6FF38C0E6FFEE
:100D300039C0E6FFCAC43AF0CBC43BF03C6A3D6A16
:100D40003BAE02D03C683D683AC0E6FF3BC0E6FFE0
:100D50003CC0E6FF3DC0E6FF26EC30F03E6E0A0EDA
:100D6000E15E3E5058C0CAF459C0CBF406D004012D
:100D7000CA6BCB6B02D03AEC01F00A01AE87E552A8
:100D8000E7CFD9FF12000A01A951400B13E0A95186
:100D9000800B10E0AD51400B0DE0AD51200B0AE08F
:100DA00010EC72F059500701425D5A5043595B50A4
:100DB000445902E3000E01D0010E0A01AC9DE8B0D7
:100DC000AC8DACADD5D1AC9FA997AE51080B01E06D
:100DD000E1D1765001E1DED1BFC759F0C0C75AF06A
:100DE000C1C75BF0BFC75EF0C0C75FF0C1C760F0AE
:100DF00010EC74F056C03AF057C03BF058C03CF0CD
:100E0000AEC759F0AFC75AF0B0C75BF0AEC75EF0DF
:100E1000AFC75FF0B0C760F010EC74F03A505624E2
:100E2000366E3B505720376E3C505820386E396A2A
:100E300038BE396836C0E6FF37C0E6FF38C0E6FF87
:100E400039C0E6FFB1EC58F0E552E552E552E55203
:100E500058C0EFF759C0F0F75AC0F1F7AEC736F0F7
:100E6000AFC737F0B0C738F0396A38BE396836C016
:100E7000E6FF37C0E6FF38C0E6FF39C0E6FFBFC770
:100E80003AF0C0C73BF0C1C73CF03D6A3CBE3D688C
:100E90003AC0E6FF3BC0E6FF3CC0E6FF3DC0E6FFD0
:100EA000B5EC56F03E6E080EE15E3E50F3CFEDF726
:100EB000F4CFEEF7745001E12AD1050A01E1F4D034
:100EC000030A01E1BCD0070A01E18AD0030A49E024
:100ED000010A15E0070A01E05DD1E66AE66AE66A02
:100EE000E66AE66AE66A4FEC02F0366E060EE15EEE
:100EF000365064EC00F0000901E14CD146D1E66ABD
:100F0000E66AE66AE66AE66AE66A4FEC02F0366E80
:100F1000060EE15E36500A01AB51010B04E1AA5105
:100F2000800B01E1F1D011CF36F012CF37F013CFA3
:100F300038F0396A38BE3968D8903950000A08E666
:100F40002C0E365C010E3758000E3858000E3958FA
:100F500002E2040E746E64EC00F0000901E11AD1A3
:100F600014D1E66AE66AE66AE66AE66AE66A4FEC81
:100F700002F0366E060EE15E36500A01AB51010BEF
:100F800004E1AA51800B01E1BFD0ABA327D0AB5144
:100F9000100B01E1FFD010EC72F0595007011B5DFE
:100FA0005A501C595B501D5901E3F4D010EC72F0FB
:100FB00059C036F05AC037F05BC038F0396A980E25
:100FC00036263A0E3722000E3822392236C01BF759
:100FD00037C01CF738C01DF7030EB1D0AE9DAED0A0
:100FE000E66AE66AE66AE66AE66AE66A4FEC02F0F4
:100FF000366E060EE15E36500A01AB51010B04E17C
:10100000AA51800B01E180D0ABA3C4D010EC72F0E8
:1010100059500A015B2507011B6F5A500A015C21D8
:1010200007011C6F5B500A015D2107011D6F20CF76
:101030000EFF21CF0FFF22CF10FF020E80D04DCA2E
:10104000E6FF4ECAE6FF4FCAE6FF49CAE6FF4ACAB4
:10105000E6FF4BCAE6FF4FEC02F0366E060EE15E8D
:1010600036500A01AAAF50D0AB51020B01E192D029
:1010700010EC72F0595007011B5D5A501C595B501F
:101080001D5901E387D00A014551445D0BE1010E72
:10109000446F20CF0EFF21CF0FFF22CF10FF0A0198
:1010A000AE9D4DD0442B36D04DCAE6FF4ECAE6FF6A
:1010B0004FCAE6FF49CAE6FF4ACAE6FF4BCAE6FF47
:1010C0004FEC02F0366E060EE15E36500A01AAAF12
:1010D0001BD0ABA35FD010EC72F059500A01512520
:1010E00007011B6F5A500A01522107011C6F5B5008
:1010F0000A01532107011D6F46CA0EFF47CA0FFFA1
:1011000048CA10FF060E1BD08CEC01F043D00A0138
:10111000AAAF0CD044CAE6FF58DAE55246CA0EFF21
:1011200047CA0FFF48CA10FF050E09D0ABA109D06E
:1011300020CF0EFF21CF0FFF22CF10FF010E746EC4
:1011400029D0AAB902D08CEC01F0BCC7E6FFBDC71C
:10115000E6FFBEC7E6FFABC7E6FFACC7E6FFADC71D
:10116000E6FF4FEC02F0366E060EE15E365012D00E
:10117000AC51800B06E1AB51010B03E1AA51800B8E
:1011800009E064EC00F0000903E07AEC01F002D021
:101190003AEC01F00A01AD99120010EC72F05950CE
:1011A0000701185D5A5019595B501A5925E20A0176
:1011B000ADA128D0080EE66E24EC79F0E5520701C7
:1011C0001B6B1C6B1D6B10EC72F059C036F05AC0D3
:1011D00037F05BC038F0396AE80E3626030E372246
:1011E000000E3822392236C015F737C016F738C03E
:1011F00017F7746A756A1200E80E1827030E192390
:10120000000E1A23120067EC0DF07550040A01E17C
:10121000D0D0040A61E0010A2DE0030A0BE0010AC4
:1012200001E0120060EC01F064EC00F0000901E163
:10123000C0D0BAD060EC01F011CF36F012CF37F049
:1012400013CF38F0396A38BE3968D8903950000A5F
:1012500008E62C0E365C010E3758000E3858000E8A
:10126000395802E2030E756E64EC00F0000901E1EA
:10127000A0D09AD060EC01F00A01A98120CF0EFF26
:1012800021CF0FFF22CF10FF10EC72F05950070151
:101290001B5D5A501C595B501D591CE20A01A9875D
:1012A00010EC72F059C036F05AC037F05BC038F01D
:1012B000396A980E36263A0E3722000E3822392225
:1012C00036C01BF737C01CF738C01DF7030E746E0D
:1012D000020E6DD0CDEF08F010EC72F059500701FE
:1012E000155D5A5016595B50175963E20501E42BFE
:1012F000000EE5230A01A951400B17E0AD51400B48
:1013000014E0AD51200B11E010EC72F059C036F032
:101310005AC037F05BC038F0396A880E3626130E93
:101320003722000E3822392209D010EC72F059C051
:1013300036F05AC037F05BC038F0396A36C01BF758
:1013400037C01CF738C01DF710EC72F059C036F0EA
:101350005AC037F05BC038F0396AE80E3626030E03
:101360003722000E3822392236C018F737C019F755
:1013700038C01AF711CF36F012CF37F013CF38F04C
:10138000396A38BE3968D8903950000A08E62C0E00
:10139000365C010E3758000E3858000E395806E2F8
:1013A0000A01AB51200B02E07AEF01F0010E756EDD
:1013B000120012007FEC5EF00901DB6F020EE66E98
:1013C00024EC79F0E5520901DB51330A01E1ACD09C
:1013D000010A5CE0030A04E0010A01E0F0D0EAD06F
:1013E000DD6BD96BDA6BD890DA5104E6000ED95D6B
:1013F000010EDA5912E27FEC5EF00901DC6FE85071
:10140000DD1B000ED925E96E030EDA21EA6EDCC978
:10141000EFFFD92B000EDA23E6D7DD5130E1D96B8F
:10142000DA6BD890DA5104E6000ED95D010EDA5974
:1014300024E2000ED925E96E030EDA21EA6EEF50A0
:10144000E66ED9C936F0DAC937F0386A396A37AE8C
:1014500002D038683968372A000E3822392236C05F
:10146000E6FF37C0E6FFAEEC75F0E552E552E55217
:101470000901D92B000EDA23D4D7060E01D0150EA0
:10148000E66E54EC5DF0E55280D999D0DD6BD96BF6
:10149000DA6BFF0EDAAF02D0D89003D0D95D000E20
:1014A000DA5926E2D9C936F0DAC937F0386A396A2A
:1014B00037AE02D038683968372A000E3822392210
:1014C00036C0E6FF37C0E6FF11EC75F0E552E55295
:1014D0000901DC6FE850DD1B000ED925E96E030E13
:1014E000DA21EA6EDCC9EFFFD92B000EDA23D1D75F
:1014F000DDC9FFF3D96BDA6BD890DA5104E6000E40
:10150000D95D010EDA5956E2000ED925E96E030EB7
:10151000DA21EA6EEF50E66E54EC5DF0E552090117
:10152000D92B000EDA23E8D7DD6BD96BDA6B3F0ECF
:10153000DAAF02D0D89003D0D95D000EDA591DE29F
:10154000800ED925366EFF0EDA21376E36C0E6FFE3
:10155000E66E11EC75F0E552E5520901DC6FE850DA
:10156000DD1B000ED925E96E030EDA21EA6EDCC917
:10157000EFFFD92B000EDA23DAD7DDC93FF3D96BA1
:10158000DA6B400EDAAF02D0D89003D0D95D000EEE
:10159000DA5910E2000ED925E96E030EDA21EA6E5F
:1015A000EF50E66E54EC5DF0E5520901D92B000EC8
:1015B000DA23E7D7060EE66E54EC5DF0E552020E34
:1015C000E66E30EC79F0E5521200D9CFE6FFE1CFBC
:1015D000D9FFFE0EDBCF36F00A014551E76E361813
:1015E000E8AE02D0363403D0E750D880365403E258
:1015F000FE0EDB6A446BFE0EDB5014E1496B4A6B56
:101600004B6B4C6B4D6B4E6B4F6B506B20CF46FA58
:1016100021CF47FA22CF48FA300E516F750E526F24
:10162000536BABD0FE0EDB040B0DF3CF36F0376AF5
:10163000386A396A36AE03D0376838683968180EA8
:101640003626010E3722000E3822392236C0DEF946
:1016500037C0DFF936C0E6FF37C0E6FF55EC75F05E
:10166000E552E55258C049FA59C04AFA5AC04BFAF5
:101670005BC04CFA040E0901376ADE25366EDF5175
:10168000372236C0E6FF37C0E6FF55EC75F0E5526D
:10169000E55258C04DFA59C04EFA5AC04FFA5BC0D5
:1016A00050FA080E0901376ADE25366EDF513722FF
:1016B00036C0E6FF37C0E6FF2AEC75F0E552E5528A
:1016C000F3CF46FAF4CF47FA0A01486B47BF48699F
:1016D000640E5E6E5F6A606A46CA59F047CA5AF085
:1016E00048CA5BF010EC74F056C046FA57C047FA8F
:1016F00058C048FA56C036F057C037F058C038F0D6
:10170000396A38BE39683934000E391809E6D8808C
:10171000780E3654000E3754000E3854000E3954EB
:1017200005E20A01780E466F476B486B0A0E090105
:10173000376ADE25366EDF51372236C0E6FF37C006
:10174000E6FF11EC75F0E552E552586E596A58BE45
:1017500059685A6A5B6A59AE02D05A685B68E80EEB
:101760005D6E030E5E6E5F6A606A57EC7AF054C07D
:1017700051FA55C052FA56C053FA0A01AB93AB95D1
:10178000AE9DE552E7CFD9FF12000A01596B5A6BA3
:10179000000E0401CA6FCB6B826F836B3A6F3B6B99
:1017A0000701E76FE86BC26BC36BC46BC2C7B1F7CD
:1017B000C3C7B2F7C4C7B3F7E96BEA6BEB6B0F01B2
:1017C0000E6B0F6B106B746A0F010C6B0D6B0F01BE
:1017D0000A6B0B6B0A01AB95AB93AE97320E070108
:1017E000DF6FE06B1E0EDD6FDE6B090EE66E010E25
:1017F000E66E11EC75F0E552E5520A01456F000EF8
:10180000E76E4519E8AE02D0453503D0E750D880E1
:10181000455502E3446B02D0010E446FE66AD5DE03
:04182000E55212007B
:0C182400D9CFE6FFE1CFD9FF060EE12688
:10183000730EDE6E030EDD6E760EF36E020EF3CFC8
:10184000DBFF010EF36E030EF3CFDBFF040EDB6A4A
:10185000010EF36E050EF3CFDBFF0F0111510E5D8C
:101860002C6F12510F592D6F135110592E6F040EFA
:10187000DBCF36F0050EDBCF37F0386A37BE38687D
:101880002CCF59F02DCF5AF02ECF5BF036C05EF042
:1018900037C05FF038C060F010EC74F056C023FF22
:1018A00057C024FF58C025FFDECF3FF0DDCF40F00A
:1018B000416A40BE416831CB3CF032CB3DF03E6ADC
:1018C0003DBE3E68020EDBCF39F0030EDBCF3AF0AF
:1018D0003B6A3ABE3B682CCF59F02DCF5AF02ECF41
:1018E0005BF039C05EF03AC05FF03BC060F010ECD6
:1018F00074F000013C50565C366E3D505758376EC0
:101900003E505858386E36C059F037C05AF05B6EAA
:101910003FC05EF040C05FF041C060F010EC74F07A
:1019200056C026FF57C027FF58C028FF31CB5AF0BA
:1019300032CB5BF0DECF5FF0DDCF60F0E3EC73F035
:1019400058500B013127595032230F0123512625BE
:10195000296F245127212A6F255128212B6F080E2A
:10196000E66E29CFE6FF2ACFE6FF5CEC54F0E552A5
:10197000E552E552F3CF29FFF4CF2AFF0F012B6B7D
:101980002ABF2B691CCF39F01DCF3AF03B6A3ABE13
:101990003B682B513B18E8AE02D03B3406D039509F
:1019A000295D3A502A593B502B5909E21CCF36F099
:1019B0001DCF37F0386A37AE1AD0386818D02B35BB
:1019C000000E2B1907E6D880F40E2955010E2A5572
:1019D000000E2B5506E2F40E366E010E376E386A95
:1019E00006D029CF36F02ACF37F02BCF38F036C0CB
:1019F00031FF37C032FF1A51365C2F6F1B513758F9
:101A0000306FB0C836F0376A36BE376836502F03AD
:101A1000F3CF33FFF4CF34FF3003F3503427375084
:101A20002F03F3503427090EE66E33CFE6FF34CF91
:101A3000E6FF5CEC54F0E552E552E552F3CF33FF9C
:101A4000F4CF34FF0F01F4501F19E8AE02D01F3558
:101A500004D01E51335D1F51345909E21ECF36F0B8
:101A60001FCF37F0386A396A37AE23D022D033CF50
:101A70003AF034CF3BF03C6A3D6A3BAE02D03C6862
:101A80003D683D34000E3D1809E6D8800C0E3A54EE
:101A9000000E3B54000E3C54000E3D5404E20C0E6C
:101AA000366E376A04D033CF36F034CF37F0386A29
:101AB000396A36C016FF37C017FF060EE15C02E236
:101AC000E16AE552E16EE552E7CFD9FF12000A0163
:101AD000AFA165D1AF917CEC76F04DEC44F00A01FA
:101AE000ABAF0DD0DBCA11FFDCCA12FF0F01136BC5
:101AF00012BF1369DDCA1AFFDECA1BFF16D0080128
:101B000011510801145D0F01116F080112510801F4
:101B100015590F01126F08011351080116590F01D1
:101B2000136F17C81AFF18C81BFF030EE66E070EC7
:101B30005A6E5B6A33CB5FF034CB60F0E3EC73F04A
:101B400058500F011A25366E59501B21376E36C07A
:101B5000E6FFE66E5CEC54F0E552E552E552F3CF59
:101B600033FBF4CF34FB0A01A9A1F8D0AC51800BB0
:101B700005E1745006E0AC51010B03E0AA8D12EFB1
:101B80000CF0AA51200B1CE10B01800E341509E06A
:101B900033CB36F034CB37F0366C371E000E37229D
:101BA00004D033CB36F034CB37F037342AE236501A
:101BB0003E08000E375425E20A01AA51400B21E1EC
:101BC000AA9D11CF0EFF12CF0FFF13CF10FF0F01F1
:101BD000800E171507E0010E1625166F000E17214F
:101BE000176F120017350AE216510008000E17553C
:101BF00005E2010E165F000E175B1200166B176BE5
:101C000012000A01AA8D0B01336B346B0BDE060147
:101C10003C510F011625356F06013D510F0117216B
:101C2000366F800E1B1509E01ACF36F01BCF37F048
:101C3000366C371E000E372204D01ACF36F01BCF79
:101C400037F0386A396A37AE02D038683968D890C8
:101C50003950000A08E6320E365C000E3758000E86
:101C60003858000E395801E39AD035CF3AF036CFC4
:101C70003BF03C6A3D6A3BAE02D03C683D683D3477
:101C8000000E3D1809E6D880480E3A54000E3B5429
:101C9000000E3C54000E3D5401E381D0030EE66E6D
:101CA000070E5A6E5B6A38C65FF039C660F0E3EC27
:101CB00073F058500F013525366E59503621376E66
:101CC00036C0E6FFE66E5CEC54F0E552E552E552B4
:101CD000F3CF38F6F4CF39F6F3CF3AF0F4CF3BF048
:101CE0003C6A3D6A3BAE02D03C683D68D8903D50AE
:101CF000000A08E6480E3A5C000E3B58000E3C58BD
:101D0000000E3D5802E2480E19D038C63EF039C6E2
:101D10003FF0406A416A3FAE02D0406841684134BA
:101D2000000E411809E6D880900E3E54000E3F5434
:101D3000000E4054000E415404E2900E366E376A95
:101D400004D038C636F039C637F036C038F637C05A
:101D500039F636C036F637C037F6120014C811FF10
:101D600015C812FF16C813FF0F01800E171507E0E4
:101D7000010E1625166F000E1721176F0ED017359E
:101D80000AE216510008000E175505E2010E165F13
:101D9000000E175B02D0166B176B0A01AA9D12008A
:101DA0000A01A951100B01E1D3D0AC51400B01E065
:101DB000CFD00F01396B3951010801E2CDD0030EAC
:101DC000E66ED1C83FF0406A416A426A3FAE03D036
:101DD0004068416842683FC0E6FF40C0E6FF41C03E
:101DE000E6FF42C0E6FF660EE66EE66A3951480D30
:101DF000F3CFE9FFF4CFEAFF000EE926040EEA2252
:101E0000280EE926000EEA22EECF3AF0EFCF3BF0A3
:101E10003C6A3D6A3BAE02D03C683D683AC0E6FF92
:101E20003BC0E6FF3CC0E6FF3DC0E6FF82EC2FF082
:101E30003E6E060EE15E3E50E552E7CF42F0E552BF
:101E4000E7CF41F0E552E7CF40F0E552E7CF3FF072
:101E50003FC05DF040C05EF041C05FF042C060F046
:101E600057EC7AF054C036F055C037F056C038F011
:101E700057C039F054C0E6FF55C0E6FF56C0E6FF34
:101E800057C0E6FFACEC54F0436E050EE15E4350E4
:101E90005D685E685F68606857EC7AF054C037FF31
:101EA00055C038FF54C03AF055C03BF03C6A3D6A1B
:101EB0003BAE02D03C683D68D8803D50FF0A08E642
:101EC000E80E3A5CFF0E3B58FF0E3C58FF0E3D58A3
:101ED00004E2E80E366E376826D037CF3EF038CFB2
:101EE0003FF0406A416A3FAE02D0406841684134E9
:101EF000000E411809E6D880180E3E54000E3F54DB
:101F0000000E4054000E415406E2180E366E376A39
:101F1000386A396A0AD037CF36F038CF37F0386AA6
:101F2000396A37AE02D0386839680F013951480D27
:101F3000F3CFE9FFF4CFEAFF000EE926040EEA2210
:101F40002F0EE926000EEA2236C0EFFF392B33D7D9
:101F50000401776B77C42FF412000A01AC51040B13
:101F60004FE0AC51400B4CE00701F135000EF11988
:101F700007E6D880960EEF55000EF055000EF1558D
:101F80003FE2060167510701ED5D366EEE51060135
:101F90006855376E36C0E6FFE66E34EC55F0E55214
:101FA000E552F3CF3AFFF4CF3BFFF3CFE6FFF4CF98
:101FB000E6FF12C436F013C437F0386A37BE38680B
:101FC00036C0E6FF37C0E6FF38C0E6FF5AC439F036
:101FD0005BC43AF03B6A3ABE3B6839C0E6FF3AC0A0
:101FE000E6FF3BC0E6FF380EE66E040EE66E800E9E
:101FF000E66E040EE66EDCEC30F03C6E0C0E28D083
:10200000F0C0E6FF12C436F013C437F0386A37BEAA
:10201000386836C0E6FF37C0E6FF38C0E6FF5AC46E
:1020200039F05BC43AF03B6A3ABE3B6839C0E6FF20
:102030003AC0E6FF3BC0E6FF380EE66E040EE66EE1
:10204000800EE66E040EE66EF7EC31F03C6E0B0E81
:10205000E15E3C500A01ACBD02D03AEC01F077C41D
:1020600038F0396A38BE396804013850825D366EFE
:1020700039508359376E36508027375081232FC40B
:1020800038F0396A38BE39683A513824366E3B51D7
:102090003920376E3650382737503923A251CA2598
:1020A000C86FA351CB21C96F1200D9CFE6FFE1CF92
:1020B000D9FF010EE66EFB0EDBCF3AF0FC0EDBCF54
:1020C0003BF0FD0EDBCFE9FFFE0EDBCFEAFF220E79
:1020D000E926000EEA223A50EE24366E3B50EE20FE
:1020E000376E386A396A37AE02D03868396836C018
:1020F000E6FF37C0E6FF38C0E6FF39C0E6FFACECCC
:1021000054F03C6E050EE15E3C5058C03CFF59C097
:102110003DFF5AC03EFF5BC03FFFFD0EDBCFE9FF36
:10212000FE0EDBCFEAFF220EE926000EEA22EECFFA
:102130003AF0EFCF3BF03C6A3D6A3BAE02D03C68E0
:102140003D683A500F013C5D366E3B503D59376E4D
:102150003C503E593D503F59FD0EDBCFE9FFFE0E8E
:10216000DBCFEAFF240EE926000EEA2236C0EEFF9E
:1021700037C0EDFFFD0EDBCFE9FFFE0EDBCFEAFF40
:10218000220EE926000EEA223CCFEEFF3DCFEDFF06
:10219000010EE66EFD0EDBCFE9FFFE0EDBCFEAFFA0
:1021A000260EE926000EEA22EECF3CF0EFCF3DF0FE
:1021B000FD0EDBCFE9FFFE0EDBCFEAFF240EE926A2
:1021C000000EEA223C50EE24386E3D50EE20396E6F
:1021D0003A6A3B6A39AE02D03A683B6838C0E6FFDB
:1021E00039C0E6FF3AC0E6FF3BC0E6FFACEC54F076
:1021F0003E6E050EE15E3E5059C037F0FD0EDBCF5E
:10220000E9FFFE0EDBCFEAFF240EE926000EEA22EC
:1022100058C0EEFF37C0EDFFFD0EDBCFE9FFFE0E2D
:10222000DBCFEAFF240EE926000EEA22EECF36F0DD
:10223000EFCF37F0FD0EDBCFE9FFFE0EDBCFEAFF7D
:10224000260EE926000EEA2236C0EEFF37C0EDFF6B
:10225000E552E7CFD9FF1200D9CFE6FFE1CFD9FF92
:10226000FD0EDBCFE9FFFE0EDBCFEAFF200EE926F5
:10227000000EEA22EECFE6FFEFCFE6FFFD0EDBCF4A
:10228000E6FFFE0EDBCFE6FF10DFE552E552E5523A
:10229000E552050EE66EFD0EDBCFE9FFFE0EDBCF4D
:1022A000EAFF240EE926000EEA22EECF46F0EFCF39
:1022B00047F0FD0EDBCFE9FFFE0EDBCFEAFF0C0E91
:1022C000E926000EEA22EECF48F0EFCF49F00001F8
:1022D00048504602F3CF42F0F4CF43F04702F350A8
:1022E000432649504602F3504326446A456A43AEAA
:1022F00002D044684568FD0EDBCFE9FFFE0EDBCF60
:10230000EAFF080EE926000EEA22EECF3EF0EFCFFC
:102310003FF0406A416A3FAE02D040684168FD0E1E
:10232000DBCFE9FFFE0EDBCFEAFF200EE926000E31
:10233000EA22EECF3AF0EFCF3BF03C6A3D6A3BAE8B
:1023400002D03C683D683AC058F03BC059F03CC0F0
:102350005AF03DC05BF03EC05DF03FC05EF040C053
:102360005FF041C060F057EC7AF054500001422415
:10237000366E55504320376E56504420386E5750B5
:102380004520396E36C0E6FF37C0E6FF38C0E6FFAD
:10239000E66EACEC54F04A6E050EE15E4A5058C051
:1023A00044FF59C045FF5AC046FF5BC047FFFD0EC2
:1023B000DBCFE9FFFE0EDBCFEAFF0A0EE926000EB7
:1023C000EA22EE50ED1010E10F01486B496B4A6BA9
:1023D0004B6BFD0EDBCFE9FFFE0EDBCFEAFF1A0EE3
:1023E000EB6A1B0EEB6AC9D0090EE66EFD0EDBCF61
:1023F000E9FFFE0EDBCFEAFF0A0EE926000EEA2215
:10240000EECF3EF0EFCF3FF0406A416A3FAE02D0E0
:1024100040684168FD0EDBCFE9FFFE0EDBCFEAFF2F
:102420001A0EE926000EEA22EECF3AF0EFCF3BF08B
:102430003C6A3D6A3BAE02D03C683D683AC058F009
:102440003BC059F03CC05AF03DC05BF03EC05DF06F
:102450003FC05EF040C05FF041C060F057EC7AF0E2
:1024600054C036F055C037F056C038F057C039F078
:1024700054C0E6FF55C0E6FF56C0E6FF57C0E6FF72
:10248000ACEC54F0426E050EE15E425058C040FF85
:1024900059C041FF5AC042FF5BC043FFFD0EDBCF76
:1024A000E9FFFE0EDBCFEAFFEECF36F0EFCF37F0DD
:1024B000366C371E000E3722386A396A37AE02D0C2
:1024C000386839680F0143513918E8AE02D0393401
:1024D00008D03650405D3750415938504259395034
:1024E000435913E2FD0EDBCFE9FFFE0EDBCFEAFF1F
:1024F000EECF48FFEFCF49FF486D491F000E49233B
:102500004A6B4B6B49AF39D02DD0FD0EDBCFE9FFC5
:10251000FE0EDBCFEAFFEECF3AF0EFCF3BF03C6AA6
:102520003D6A3BAE02D03C683D683D504319E8AE81
:1025300002D0433508D040513A5C41513B5842519A
:102540003C5843513D5811E2FD0EDBCFE9FFFE0E32
:10255000DBCFEAFFEECF48FFEFCF49FF4A6B4B6B73
:1025600049AF0BD04A694B6908D040CF48FF41CFF3
:1025700049FF42CF4AFF43CF4BFF480EE96E0F0E93
:10258000EA6E4451EE243A6E4551EE203B6E4651C0
:10259000EE203C6E4751EE203D6EFD0EDBCFE9FF95
:1025A000FE0EDBCFEAFF380EE926000EEA22EECF60
:1025B0003EF0EFCF3FF0406A416A3FAE02D0406844
:1025C00041683E503A5C366E3F503B58376E405043
:1025D0003C58386E41503D58396EFD0EDBCFE9FF57
:1025E000FE0EDBCFEAFF440EE926000EEA2236C0DB
:1025F000EEFF37C0EDFFE552E7CFD9FF1200D9CF8C
:10260000E6FFE1CFD9FFFD0EDBCFE9FFFE0EDBCF0A
:10261000EAFF1A0EE926000EEA22EECF36F0EFCFDF
:1026200037F0386A396A37AE02D038683968FD0E3B
:10263000DBCFE9FFFE0EDBCFEAFF380EE926000E06
:10264000EA22EECF58F0EFCF59F05A6A5B6A59AEE2
:1026500002D05A685B68300E5D6E5E6A5F6A606ABF
:1026600057EC7AF03650545C0F015C6F3750555878
:102670005D6F385056585E6F395057585F6FFD0E7A
:10268000DBCFE9FFFE0EDBCFEAFF080EE926000EE6
:10269000EA22EECF36F0EFCF37F0386A396A37AE3C
:1026A00002D0386839685CCF58F05DCF59F05ECF02
:1026B0005AF05FCF5BF036C05DF037C05EF038C0D7
:1026C0005FF039C060F057EC7AF054C04CFF55C051
:1026D0004DFF56C04EFF57C04FFF0F01506B516B5F
:1026E000526B536B0A0EE66E500EE96E0F0EEA6ED9
:1026F0005450EE24366E5550EE20376E5650EE2074
:10270000386E5750EE20396E36C0E6FF37C0E6FF10
:1027100038C0E6FFE66EACEC54F03A6E050EE15EB2
:102720003A5058C058FF59C059FF5AC05AFF5BC0B1
:102730005BFFFD0EDBCFE9FFFE0EDBCFEAFF200ED5
:10274000E926000EEA22EECF36F0EFCF37F0386AF6
:10275000396A37AE02D038683968580EE96E0F0E04
:10276000EA6E3650EE5C0F01606F3750EE58616FC5
:102770003850EE58626F3950EE58636F60CFE6FF05
:1027800061CFE6FFFD0EDBCFE6FFFE0EDBCFE6FFFF
:102790008CDCE552E552E552E552050EE66EFD0E83
:1027A000DBCFE9FFFE0EDBCFEAFF240EE926000EA9
:1027B000EA22EECF42F0EFCF43F0FD0EDBCFE9FF90
:1027C000FE0EDBCFEAFF0C0EE926000EEA22EECF6A
:1027D00044F0EFCF45F0000144504202F3CF3EF009
:1027E000F4CF3FF04302F3503F2645504202F350EE
:1027F0003F26406A416A3FAE02D040684168FD0E04
:10280000DBCFE9FFFE0EDBCFEAFF080EE926000E64
:10281000EA22EECF3AF0EFCF3BF03C6A3D6A3BAEA6
:1028200002D03C683D6860CF58F061CF59F062CF6C
:102830005AF063CF5BF03AC05DF03BC05EF03CC045
:102840005FF03DC060F057EC7AF0545000013E2438
:10285000366E55503F20376E56504020386E5750D8
:102860004120396E36C0E6FF37C0E6FF38C0E6FFCC
:10287000E66EACEC54F0466E050EE15E465058C074
:1028800054FF59C055FF5AC056FF5BC057FF000E9A
:102890000F01546D551F5523561F5623571F57239D
:1028A000FD0EDBCFE9FFFE0EDBCFEAFF440EE9268B
:1028B000000EEA2254CFEEFF55CFEDFFE552E7CFF1
:1028C000D9FF12000A01ADAD1DD0A0C436F0A1C4DD
:1028D00037F0386A396A37AE02D038683968393427
:1028E000000E391809E6D880180E3654000E3754F9
:1028F000000E3854000E395409E267C669F668C6FE
:102900006AF6120067C669F668C66AF61200DADF70
:10291000060167510601695D366E6A510601685508
:10292000376E36C0E6FFE66EA1EC33F0E552E552B5
:10293000F3CF08FFF4CF09FF0F01D880F45004E76C
:10294000E40E085DFF0E095904E2E40E086F096900
:102950000DD0093509E208511C08000E095504E2A2
:102960001C0E086F096B02D009CF09FF060EE66E38
:1029700094C43DF095C43EF03F6A3EBE3F6808CF28
:102980003AF009CF3BF03C6A3BBE3C683AC059F094
:102990003BC05AF03CC05BF03DC05EF03EC05FF013
:1029A0003FC060F010EC74F056C036F057C037F0FE
:1029B00058C038F0396A38BE396836C0E6FF37C0CB
:1029C000E6FF38C0E6FF39C0E6FFACEC54F0406EDD
:1029D000050EE15E405058C064FF59C065FF5AC003
:1029E00066FFB0C436F0B1C437F0386A37BE386815
:1029F00036500F01645F3750655B3850665B050EDB
:102A0000E66E98C43AF099C43BF03C6A3BBE3C6821
:102A100064CF59F065CF5AF066CF5BF03AC05EF0F4
:102A20003BC05FF03CC060F010EC74F056C036F074
:102A300057C037F058C038F0396A38BE396836C0E8
:102A4000E6FF37C0E6FF38C0E6FF39C0E6FFACEC72
:102A500054F03D6E050EE15E3D5058C064FF59C014
:102A600065FF5AC066FF92C436F093C437F0366CE7
:102A7000371E000E3722386A37BE38680F0166519C
:102A80003818E8AE02D0383406D03650645D37507E
:102A90006559385066590CE292C464FF93C465FFCF
:102AA000646D651F000E6523666B65AF20D01BD07B
:102AB00092C439F093C43AF03B6A3ABE3B683B504B
:102AC0006619E8AE02D0663506D06451395C6551AE
:102AD0003A5866513B5809E292C464FF93C465FFBB
:102AE000666B65AF04D0666902D066CF66FF0401ED
:102AF000800EC91509E0C8C436F0C9C437F0366C79
:102B0000371E000E372204D0C8C436F0C9C437F0CF
:102B1000386A396A37AE02D0386839683934000EFD
:102B2000391809E6D880020E3654000E3754000ECC
:102B30003854000E395402E374500EE0C8C436F025
:102B4000C9C437F0386A37BE386836500F01645F41
:102B50003750655B3850665B64CFD4F465CFD5F4ED
:102B6000120004011E6B1F6B666B676B120089EC11
:102B70006FF0D0EC0EF03FEC51F02EEC33F0ADECFA
:102B80000FF00F01676B675101082AE30A01AEA13C
:102B900011D00F016751480DF3CF36F0F4CF37F065
:102BA000000E3626040E372236C0E6FF37C0E6FF99
:102BB00026DD11D00F016751480DF3CF36F0F4CF69
:102BC00037F0000E3626040E372236C0E6FF37C037
:102BD000E6FF2CEC11F0E552E5520F01672BD3D73D
:102BE00096DE44C466F045C467F08CC468F08DC4BA
:102BF00069F0D4C46AF0D5C46BF00401800E1B15D3
:102C000009E01AC43AF01BC43BF03A6C3B1E000EBC
:102C10003B2204D01AC43AF01BC43BF0800E63156B
:102C200009E062C43CF063C43DF03C6C3D1E000E04
:102C30003D2204D062C43CF063C43DF03B503D18DB
:102C4000E8AE02D03D3404D03C503A5C3D503B5895
:102C50000DE2800E631505E062C436F063C437F000
:102C60000CD062C436F063C437F010D0800E1B1550
:102C700009E01AC436F01BC437F0366C371E000E5C
:102C8000372204D01AC436F01BC437F0386A396AC8
:102C900037AE02D038683968D8903950000A08E653
:102CA000E80E365C030E3758000E3858000E3958BF
:102CB00002E3000E01D0010E0A01A999E8B0A9892A
:102CC000B8EF3DF004012F6B2FC477F42FC418FF29
:102CD0000F01196B18BF196918CF16FF19CF17FF0D
:102CE000F40E1E6F1F69686B685102083EE368515D
:102CF000480DF3CF69FFF4CF6AFF000E6927040E79
:102D00006A2369CFE9FF6ACFEAFF220EE926000EA7
:102D1000EA22EE6AED6A69CFE9FF6ACFEAFF460E62
:102D2000E926000EEA22EE6AED6A69CFE9FF6ACF72
:102D3000EAFF1A0EE926000EEA22EE6AED6A69CF72
:102D4000E9FF6ACFEAFF240EE926000EEA22EE6AC6
:102D5000ED6A69CFE9FF6ACFEAFF260EE926000E89
:0E2D6000EA22EE6AED6A682BBFD7B1EF15F0DC
:022D6E00BC0E99
:102D7000E66ECD0EE66E34EC5DF0E552E5521200E3
:102D80000A01B0A704D0AB0EE66ECD0E03D0970EAD
:102D9000E66ECD0EE66E34EC5DF0E552E5521200C3
:102DA00082CAE6FF83CAE6FF34EC5DF0E552E552E5
:102DB00012001DEC5EF0CA0EE66EF00EE66E34EC0C
:102DC0005DF0E552E552480EE66ECD0EE66E34EC4F
:102DD0005DF0E552E5523B0EE66ECD0EE66E34EC4C
:102DE0005DF0E552E552DCDF280EE66ECD0EE66EB4
:102DF00034EC5DF0E552E552200EE66EE66A00CF57
:102E000036F0376A386A396A00CFE6FF37C0E6FF26
:102E100038C0E6FF39C0E6FFF7EC5EF03A6E060E0A
:102E2000E15E3A501DEC5EF0150EE66ECD0EE66EDC
:102E300034EC5DF0E552E552E66A010EE66EF0C054
:102E400036F0376A36BE3768386A396A37AE02D02C
:102E5000386839684B0E5D6E5E6A5F6A606A36C0BC
:102E600058F037C059F038C05AF039C05BF057EC11
:102E70007AF054C036F055C037F056C038F057C01D
:102E800039F054C0E6FF55C0E6FF56C0E6FF57C014
:102E9000E6FFF7EC5EF03A6E060EE15E3A50FD0E8C
:102EA000E66ECC0EE66E34EC5DF0E552E552F40EC3
:102EB000E66ECC0EE66E34EC5DF0E552E55267EC62
:102EC00067F0EA0EE66ECC0EE66E34EC5DF0E5528D
:102ED000E5526BC9E6FF51EC61F0E552E10EE66E9A
:102EE000CC0EE66E34EC5DF0E552E5522BEC51F081
:102EF000D50EE66ECC0EE66E34EC5DF0E552E55292
:102F000012EC33F00A01AD51400B20E006016D5187
:102F10001DE0CC0EE66ECC0EE66E34EC5DF0E552B4
:102F2000E552E66AE66A0E0EE66EE66AE66AE66A6A
:102F3000F7EC5EF0366E060EE15E3650C70EE66EBA
:102F4000CC0EE66E34EC5DF0E552E552BE0EE66E58
:102F5000CC0EE66E34EC5DF0E552E55237EC39F01C
:102F60000801B65131E0BB0EE66ECC0EE66E34ECD5
:102F70005DF0E552E55208018D6B060E8D5D1CE299
:102F80008D51E96EEA6AD890E936EA36B40EE92640
:102F9000000EEA22EE50ED1004E0B50EE66ECC0E07
:102FA00003D0B10EE66ECC0EE66E34EC5DF0E55269
:102FB000E55208018D2BE1D7AE0EE66ECC0EE66E23
:102FC00034EC5DF0E552E552A40EE66ECC0EE66EF2
:102FD00034EC5DF0E552E552D3DE9B0EE66ECC0E8E
:102FE000E66E34EC5DF0E552E55208019651010AB7
:102FF00002E0010A06E1310E9625E66E54EC5DF022
:1030000007D0930EE66ECC0EE66E34EC5DF0E55222
:10301000E552850EE66ECC0EE66E34EC5DF0E552C0
:10302000E552300E0001EE25E66E54EC5DF0E552FF
:10303000700EE66ECC0EE66E34EC5DF0E552E552B5
:103040000A01ABA904D0660EE66ECC0E03D05B0E6F
:10305000E66ECC0EE66E34EC5DF0E552E5520A0108
:10306000A9A304D04D0EE66ECC0E03D03D0EE66E45
:10307000CC0EE66E34EC5DF0E552E5520A01ACB1DF
:1030800008D0220EE66ECC0EE66E34EC5DF0E55212
:10309000E5520E0EE66ECC0EE66E34EC5DF0E552B7
:1030A000E552010E1614010823E00A01B051080B85
:1030B0001FE1D90EE66ECB0EE66E34EC5DF0E55204
:1030C000E552E66AE66A1650366E376A386A396A39
:1030D00016C0E6FF37C0E6FF38C0E6FF39C0E6FF9E
:1030E000F7EC5EF03A6E060EE15E3A501DEC5EF0D3
:1030F0000A01AEBF08D0BA0EE66ECB0EE66E34EC17
:103100005DF0E552E5520A01ADB508D09A0EE66EC3
:10311000CB0EE66E34EC5DF0E552E5520A01B0AD3F
:1031200008D07D0EE66ECB0EE66E34EC5DF0E55217
:10313000E5520A01ABBB08D06F0EE66ECB0EE66E11
:1031400034EC5DF0E552E5520A01ABBD08D0580EF3
:10315000E66ECB0EE66E34EC5DF0E552E552090EFC
:1031600009016B5D04E00A01A951040B08E04B0E54
:10317000E66ECB0EE66E34EC5DF0E552E552040EE1
:103180000A01675D04E00A01AD51200B08E13D0E24
:10319000E66ECB0EE66E34EC5DF0E552E5520A01C8
:1031A000ADBD08D02A0EE66ECB0EE66E34EC5DF0B7
:1031B000E552E5520A01ADB108D00A0EE66ECB0E1B
:1031C000E66E34EC5DF0E552E5528050100B0BE0FA
:1031D0000801D35108E0EF0EE66ECA0EE66E34EC3D
:1031E0005DF0E552E5520A01AB51010B03E1AA5132
:1031F000800B08E0CF0EE66ECA0EE66E34EC5DF092
:10320000E552E55240C636F041C637F0386A396AB1
:1032100037AE02D038683968D8903950000A08E6CD
:10322000180E365C000E3758000E3858000E39580C
:1032300008E3BC0EE66ECA0EE66E34EC5DF0E552B5
:10324000E552B7EF16F080B822EF21F068EC5EF09F
:1032500008018E6FE85002E122EF21F08EC8E6FFF0
:10326000F4EC7AF0E552F3CF36F0F4CF37F0F350C8
:10327000F41007E08EC8E6FF06EC7BF0E552F3CFD2
:103280008EF808018E513F0A02E118EF21F0690A19
:1032900002E115EF21F0110A02E112EF21F01F0AFD
:1032A00002E10FEF21F00B0A02E10DEF21F0010A1C
:1032B00001E151D1050A01E14CD10D0A01E137D1FB
:1032C000170A01E17CD0010A33E0080A06E0060A89
:1032D00001E01200F29E80EC7EF09F0EE66ECA0EB8
:1032E000E66E34EC5DF0E552E552790EE66ECA0EFC
:1032F000E66E34EC5DF0E552E55268EC5EF00801F4
:103300008E6F780E8E5D03E07A0E8E5DF6E1780E9C
:103310008E5D04E1E4EC47F020EF21F06D0EE66EE7
:10332000CA0EE66E34EC5DF0E552E55220EF21F076
:10333000520EE66ECA0EE66E34EC5DF0E552E552D2
:10334000300E0001EE25E66E54EC5DF0E552BBEC6C
:1033500044F008018F6B400E8F5D02E320EF21F0F7
:10336000460EE66ECA0EE66E34EC5DF0E552E552AE
:1033700008018F29E66EE66A80EC5DF0E552E552C1
:10338000420EE66ECA0EE66E34EC5DF0E552E55292
:1033900008018F51EA6A930FE96E080EEA22EFCF17
:1033A00036F0376A36BE376836C0E6FF37C0E6FF0C
:1033B000E9EC5DF0E552E55208018F2BCCD7020E07
:1033C000E66E24EC79F0E552460EE66ECA0EE66E25
:1033D00034EC5DF0E552E5528EEC5EF0FF0F080133
:1033E0008F6F420EE66ECA0EE66E34EC5DF0E5526B
:1033F000E552A9EC5EF0F3CF91F8F4CF92F8080112
:10340000D880F45004E7800E915DFF0E925904E2DB
:10341000800E366E37680FD0923509E291517F08E1
:10342000000E925504E27F0E366E376A04D091C8C2
:1034300036F092C837F036C090F82B0E8F5D09E158
:103440008F51EA6A4D0FE96E080EEA22030EEF6E05
:1034500008D08F51EA6A4D0FE96E080EEA2290C833
:10346000EFFF3F0E8F5D5DE1080193515AE00801C7
:10347000030E786F596F8F6B400E8F5D4DE2000128
:10348000EE0524E108018F51EA6A4D0FE96E080E3E
:10349000EA22EF50E66E8F51E66EE66AAEEC75F00A
:1034A000E552E552E55208018F51F66EF76AD89061
:1034B000F636F7362D0EF626F40EF722010EF62616
:1034C000000EF7220800F55024E012D008018F51B9
:1034D000F66EF76AD890F636F7362D0EF626F40E0D
:1034E000F722010EF626000EF7220800F55011E132
:1034F0008F51EA6A4D0FE96E080EEA22EF50E66E30
:10350000400E8F25E66EE66AAEEC75F0E552E552A8
:10351000E55208018F2BB0D70A01AD850001010EDD
:10352000EF6F020EE66E30EC79F01FEF21F08EECBB
:103530005EF008018F6F0001EE5108018F5D02E11E
:1035400022EF21F08FC8EEF00001010EEF6FBBEF0C
:1035500044F0DAEF09F03D0EE66ECA0EE66E34EC8A
:103560005DF0E552E55212C658F013C659F05A6A9A
:103570005B6A59AE02D05A685B68F40E5D6E010E4C
:103580005E6E5F6A606A57EC7AF054C058F055C0BE
:1035900059F056C05AF057C05BF0F00E5D6E5E6A8F
:1035A0005F6A606AAFEC73F0D8805B50FF0A08E690
:1035B000190E585CFC0E5958FF0E5A58FF0E5B58F6
:1035C00007E2190E366EFC0E376E386839686FD018
:1035D00012C658F013C659F05A6A5B6A59AE02D047
:1035E0005A685B68F40E5D6E010E5E6E5F6A606A1B
:1035F00057EC7AF054C058F055C059F056C05AF004
:1036000057C05BF0F00E5D6E5E6A5F6A606AAFEC99
:1036100073F05B34000E5B1809E6D880E70E58544F
:10362000030E5954000E5A54000E5B5407E2E70E85
:10363000366E030E376E386A396A39D012C636F0E4
:1036400013C637F0386A396A37AE02D0386839683D
:10365000F40E5D6E010E5E6E5F6A606A36C058F0F1
:1036600037C059F038C05AF039C05BF057EC7AF0E7
:1036700054C036F055C037F056C038F057C039F056
:10368000F00E5D6E5E6A5F6A606A54C058F055C0A5
:1036900059F056C05AF057C05BF0AFEC73F058C009
:1036A00036F059C037F05AC038F05BC039F036C038
:1036B000E6FF37C0E6FFE9EC5DF0E552E552390E72
:1036C000E66ECA0EE66E34EC5DF0E552E55214C6C5
:1036D00058F015C659F05A6A5B6A59AE02D05A685A
:1036E0005B68F40E5D6E010E5E6E5F6A606A57EC99
:1036F0007AF054C058F055C059F056C05AF057C02F
:103700005BF0F00E5D6E5E6A5F6A606AAFEC73F04C
:10371000D8805B50FF0A08E6190E585CFC0E595819
:10372000FF0E5A58FF0E5B5807E2190E366EFC0E5C
:10373000376E386839686FD014C658F015C659F01E
:103740005A6A5B6A59AE02D05A685B68F40E5D6EC5
:10375000010E5E6E5F6A606A57EC7AF054C058F0F2
:1037600055C059F056C05AF057C05BF0F00E5D6E70
:103770005E6A5F6A606AAFEC73F05B34000E5B18E0
:1037800009E6D880E70E5854030E5954000E5A54D7
:10379000000E5B5407E2E70E366E030E376E386A92
:1037A000396A39D014C636F015C637F0386A396A26
:1037B00037AE02D038683968F40E5D6E010E5E6E69
:1037C0005F6A606A36C058F037C059F038C05AF0A6
:1037D00039C05BF057EC7AF054C036F055C037F082
:1037E00056C038F057C039F0F00E5D6E5E6A5F6A01
:1037F000606A54C058F055C059F056C05AF057C0CE
:103800005BF0AFEC73F058C036F059C037F05AC0D7
:1038100038F05BC039F036C0E6FF37C0E6FFE9ECB0
:103820005DF0E552E552350EE66ECA0EE66E34ECFA
:103830005DF0E552E55216C658F017C659F05A6ABF
:103840005B6A59AE02D05A685B68F40E5D6E010E79
:103850005E6E5F6A606A57EC7AF054C058F055C0EB
:1038600059F056C05AF057C05BF0F00E5D6E5E6ABC
:103870005F6A606AAFEC73F0D8805B50FF0A08E6BD
:10388000190E585CFC0E5958FF0E5A58FF0E5B5823
:1038900007E2190E366EFC0E376E386839686FD045
:1038A00016C658F017C659F05A6A5B6A59AE02D06C
:1038B0005A685B68F40E5D6E010E5E6E5F6A606A48
:1038C00057EC7AF054C058F055C059F056C05AF031
:1038D00057C05BF0F00E5D6E5E6A5F6A606AAFECC7
:1038E00073F05B34000E5B1809E6D880E70E58547D
:1038F000030E5954000E5A54000E5B5407E2E70EB3
:10390000366E030E376E386A396A39D016C636F00D
:1039100017C637F0386A396A37AE02D03868396866
:10392000F40E5D6E010E5E6E5F6A606A36C058F01E
:1039300037C059F038C05AF039C05BF057EC7AF014
:1039400054C036F055C037F056C038F057C039F083
:10395000F00E5D6E5E6A5F6A606A54C058F055C0D2
:1039600059F056C05AF057C05BF0AFEC73F058C036
:1039700036F059C037F05AC038F05BC039F036C065
:10398000E6FF37C0E6FFE9EC5DF0E552E552310EA7
:10399000E66ECA0EE66E34EC5DF0E552E55218C6EE
:1039A00058F019C659F05A6A5B6A59AE02D05A6883
:1039B0005B68F40E5D6E010E5E6E5F6A606A57ECC6
:1039C0007AF054C058F055C059F056C05AF057C05C
:1039D0005BF0F00E5D6E5E6A5F6A606AAFEC73F07A
:1039E000D8805B50FF0A08E6190E585CFC0E595847
:1039F000FF0E5A58FF0E5B5807E2190E366EFC0E8A
:103A0000376E386839686FD018C658F019C659F043
:103A10005A6A5B6A59AE02D05A685B68F40E5D6EF2
:103A2000010E5E6E5F6A606A57EC7AF054C058F01F
:103A300055C059F056C05AF057C05BF0F00E5D6E9D
:103A40005E6A5F6A606AAFEC73F05B34000E5B180D
:103A500009E6D880E70E5854030E5954000E5A5404
:103A6000000E5B5407E2E70E366E030E376E386ABF
:103A7000396A39D018C636F019C637F0386A396A4B
:103A800037AE02D038683968F40E5D6E010E5E6E96
:103A90005F6A606A36C058F037C059F038C05AF0D3
:103AA00039C05BF057EC7AF054C036F055C037F0AF
:103AB00056C038F057C039F0F00E5D6E5E6A5F6A2E
:103AC000606A54C058F055C059F056C05AF057C0FB
:103AD0005BF0AFEC73F058C036F059C037F05AC005
:103AE00038F05BC039F036C0E6FF37C0E6FFE9ECDE
:103AF0005DF0E552E5522D0EE66ECA0EE66E34EC30
:103B00005DF0E552E5521AC658F01BC659F05A6AE4
:103B10005B6A59AE02D05A685B68F40E5D6E010EA6
:103B20005E6E5F6A606A57EC7AF054C058F055C018
:103B300059F056C05AF057C05BF0F00E5D6E5E6AE9
:103B40005F6A606AAFEC73F0D8805B50FF0A08E6EA
:103B5000190E585CFC0E5958FF0E5A58FF0E5B5850
:103B600007E2190E366EFC0E376E386839686FD072
:103B70001AC658F01BC659F05A6A5B6A59AE02D091
:103B80005A685B68F40E5D6E010E5E6E5F6A606A75
:103B900057EC7AF054C058F055C059F056C05AF05E
:103BA00057C05BF0F00E5D6E5E6A5F6A606AAFECF4
:103BB00073F05B34000E5B1809E6D880E70E5854AA
:103BC000030E5954000E5A54000E5B5407E2E70EE0
:103BD000366E030E376E386A396A39D01AC636F037
:103BE0001BC637F0386A396A37AE02D03868396890
:103BF000F40E5D6E010E5E6E5F6A606A36C058F04C
:103C000037C059F038C05AF039C05BF057EC7AF041
:103C100054C036F055C037F056C038F057C039F0B0
:103C2000F00E5D6E5E6A5F6A606A54C058F055C0FF
:103C300059F056C05AF057C05BF0AFEC73F058C063
:103C400036F059C037F05AC038F05BC039F036C092
:103C5000E6FF37C0E6FFE9EC5DF0E552E552290EDC
:103C6000E66ECA0EE66E34EC5DF0E552E5521CC617
:103C700058F01DC659F05A6A5B6A59AE02D05A68AC
:103C80005B68F40E5D6E010E5E6E5F6A606A57ECF3
:103C90007AF054C058F055C059F056C05AF057C089
:103CA0005BF0F00E5D6E5E6A5F6A606AAFEC73F0A7
:103CB000D8805B50FF0A08E6190E585CFC0E595874
:103CC000FF0E5A58FF0E5B5807E2190E366EFC0EB7
:103CD000376E386839686FD01CC658F01DC659F069
:103CE0005A6A5B6A59AE02D05A685B68F40E5D6E20
:103CF000010E5E6E5F6A606A57EC7AF054C058F04D
:103D000055C059F056C05AF057C05BF0F00E5D6ECA
:103D10005E6A5F6A606AAFEC73F05B34000E5B183A
:103D200009E6D880E70E5854030E5954000E5A5431
:103D3000000E5B5407E2E70E366E030E376E386AEC
:103D4000396A39D01CC636F01DC637F0386A396A70
:103D500037AE02D038683968F40E5D6E010E5E6EC3
:103D60005F6A606A36C058F037C059F038C05AF000
:103D700039C05BF057EC7AF054C036F055C037F0DC
:103D800056C038F057C039F0F00E5D6E5E6A5F6A5B
:103D9000606A54C058F055C059F056C05AF057C028
:103DA0005BF0AFEC73F058C036F059C037F05AC032
:103DB00038F05BC039F036C0E6FF37C0E6FFE9EC0B
:103DC0005DF0E552E552250EE66ECA0EE66E34EC65
:103DD0005DF0E552E5521EC658F01FC659F05A6A0A
:103DE0005B6A59AE02D05A685B68F40E5D6E010ED4
:103DF0005E6E5F6A606A57EC7AF054C058F055C046
:103E000059F056C05AF057C05BF0F00E5D6E5E6A16
:103E10005F6A606AAFEC73F0D8805B50FF0A08E617
:103E2000190E585CFC0E5958FF0E5A58FF0E5B587D
:103E300007E2190E366EFC0E376E386839686FD09F
:103E40001EC658F01FC659F05A6A5B6A59AE02D0B6
:103E50005A685B68F40E5D6E010E5E6E5F6A606AA2
:103E600057EC7AF054C058F055C059F056C05AF08B
:103E700057C05BF0F00E5D6E5E6A5F6A606AAFEC21
:103E800073F05B34000E5B1809E6D880E70E5854D7
:103E9000030E5954000E5A54000E5B5407E2E70E0D
:103EA000366E030E376E386A396A39D01EC636F060
:103EB0001FC637F0386A396A37AE02D038683968B9
:103EC000F40E5D6E010E5E6E5F6A606A36C058F079
:103ED00037C059F038C05AF039C05BF057EC7AF06F
:103EE00054C036F055C037F056C038F057C039F0DE
:103EF000F00E5D6E5E6A5F6A606A54C058F055C02D
:103F000059F056C05AF057C05BF0AFEC73F058C090
:103F100036F059C037F05AC038F05BC039F036C0BF
:103F2000E6FF37C0E6FFE9EC5DF0E552E552210E11
:103F3000E66ECA0EE66E34EC5DF0E552E55220C640
:103F400058F021C659F05A6A5B6A59AE02D05A68D5
:103F50005B68F40E5D6E010E5E6E5F6A606A57EC20
:103F60007AF054C058F055C059F056C05AF057C0B6
:103F70005BF0F00E5D6E5E6A5F6A606AAFEC73F0D4
:103F8000D8805B50FF0A08E6190E585CFC0E5958A1
:103F9000FF0E5A58FF0E5B5807E2190E366EFC0EE4
:103FA000376E386839686FD020C658F021C659F08E
:103FB0005A6A5B6A59AE02D05A685B68F40E5D6E4D
:103FC000010E5E6E5F6A606A57EC7AF054C058F07A
:103FD00055C059F056C05AF057C05BF0F00E5D6EF8
:103FE0005E6A5F6A606AAFEC73F05B34000E5B1868
:103FF00009E6D880E70E5854030E5954000E5A545F
:10400000000E5B5407E2E70E366E030E376E386A19
:10401000396A39D020C636F021C637F0386A396A95
:1040200037AE02D038683968F40E5D6E010E5E6EF0
:104030005F6A606A36C058F037C059F038C05AF02D
:1040400039C05BF057EC7AF054C036F055C037F009
:1040500056C038F057C039F0F00E5D6E5E6A5F6A88
:10406000606A54C058F055C059F056C05AF057C055
:104070005BF0AFEC73F058C036F059C037F05AC05F
:1040800038F05BC039F036C0E6FF37C0E6FFE9EC38
:104090005DF0E552E5521D0EE66ECA0EE66E34EC9A
:1040A0005DF0E552E55222C658F023C659F05A6A2F
:1040B0005B6A59AE02D05A685B68F40E5D6E010E01
:1040C0005E6E5F6A606A57EC7AF054C058F055C073
:1040D00059F056C05AF057C05BF0F00E5D6E5E6A44
:1040E0005F6A606AAFEC73F0D8805B50FF0A08E645
:1040F000190E585CFC0E5958FF0E5A58FF0E5B58AB
:1041000007E2190E366EFC0E376E386839686FD0CC
:1041100022C658F023C659F05A6A5B6A59AE02D0DB
:104120005A685B68F40E5D6E010E5E6E5F6A606ACF
:1041300057EC7AF054C058F055C059F056C05AF0B8
:1041400057C05BF0F00E5D6E5E6A5F6A606AAFEC4E
:1041500073F05B34000E5B1809E6D880E70E585404
:10416000030E5954000E5A54000E5B5407E2E70E3A
:10417000366E030E376E386A396A39D022C636F089
:1041800023C637F0386A396A37AE02D038683968E2
:10419000F40E5D6E010E5E6E5F6A606A36C058F0A6
:1041A00037C059F038C05AF039C05BF057EC7AF09C
:1041B00054C036F055C037F056C038F057C039F00B
:1041C000F00E5D6E5E6A5F6A606A54C058F055C05A
:1041D00059F056C05AF057C05BF0AFEC73F058C0BE
:1041E00036F059C037F05AC038F05BC039F036C0ED
:1041F000E6FF37C0E6FFE9EC5DF0E552E552190E47
:10420000E66ECA0EE66E34EC5DF0E552E552000E45
:10421000E66EE66AE9EC5DF011D0D9EF16F06AECD3
:104220004BF00ED07CEC2BF00BD0AFEC77F008D03D
:10423000640EE66EF10EE66E34EC5DF0E552E5528A
:06424000B7EF16F01200BA
:0A424600D9CFE6FFE1CFD9FFFB0E50
:10425000DBCF58F0FC0EDBCF59F0FD0EDBCF5AF070
:10426000FE0EDBCF5BF03F0E5D6E070E5E6E5F6A8B
:10427000606A57EC7AF054C058F055C059F056C0F7
:104280005AF057C05BF0100E5D6E270E5E6E5F6ACF
:10429000606AAFEC73F0E552E7CFD9FF1200D9CFD7
:1042A000E6FFE1CFD9FFFB0EDBCF58F0FC0EDBCFF2
:1042B00059F0FD0EDBCF5AF0FE0EDBCF5BF03F0E68
:1042C0005D6E070E5E6E5F6A606A57EC7AF054C0EE
:1042D00058F055C059F056C05AF057C05BF0A00EC8
:1042E0005D6E860E5E6E010E5F6E606AAFEC73F0FF
:1042F000E552E7CFD9FF1200D9CFE6FFE1CFD9FFD2
:10430000FB0EDBCF58F0FC0EDBCF59F0FD0EDBCF00
:104310005AF0FE0EDBCF5BF0A00E5D6E860E5E6E79
:10432000010E5F6E606A57EC7AF054C058F055C0C9
:1043300059F056C05AF057C05BF03F0E5D6E070E45
:104340005E6E5F6A606AAFEC73F0E552E7CFD9FF4B
:104350001200D9CFE6FFE1CFD9FF0901946B956B2D
:10436000966B0A01F75136E1FE0EDBCF93F9FD0E95
:10437000DB500901D88093552DE394C936F095C9D7
:1043800037F096C938F00A0E5E6E5F6A606A94C9AB
:1043900059F095C95AF096C95BF010EC74F0090118
:1043A0009351EA6A570FE96E070EEA22EFCF39F010
:1043B0003A6A3B6A56503924946F57503A20956FA9
:1043C00058503B20966F300E945F000E955B965BC5
:1043D000932BCDD794C959F095C95AF096C95BF083
:1043E000E552E7CFD9FF1200D9CFE6FFE1CFD9FFE1
:1043F0000901A36BA46BA56BA66B0A01F75101E041
:10440000CBD0FE0EDB50040F0901A76FA751EA6A5B
:10441000570FE96E070EEA22EF502E0802E0A72B95
:10442000F5D7030EA75DE66EFE0EDBCFE6FF91DF4C
:10443000E552E55259C097F95AC098F95BC099F90D
:1044400009019A6B99BF9A69A705E66E020EA75DEE
:10445000E66E7FDFE552E55259C09BF95AC09CF9E0
:104460005BC09DF909019E6B9DBF9E69FD0EDB50EF
:10447000D880A755040814E2050EA725E66EA729E3
:10448000E66E67DFE552E55259C09FF95AC0A0F9C0
:104490005BC0A1F90901A26BA1AF2BD0A26929D001
:1044A000040EA725E66EA729E66E53DFE552E55216
:1044B00059C09FF95AC0A0F95BC0A1F90901A26BCC
:1044C000A1BFA2690A0E5D6E5E6A5F6A606A9FC9DB
:1044D00058F0A0C959F0A1C95AF0A2C95BF057EC35
:1044E0007AF054C09FF955C0A0F956C0A1F957C041
:1044F000A2F997C936F098C937F099C938F09AC926
:1045000039F0800E5D6E8D0E5E6E5B0E5F6E606AC2
:1045100097C958F098C959F099C95AF09AC95BF0EF
:1045200057EC7AF054C036F055C037F056C038F02A
:1045300057C039F09BC93AF09CC93BF09DC93CF08B
:104540009EC93DF0A00E5D6E860E5E6E010E5F6E22
:10455000606A9BC958F09CC959F09DC95AF09EC920
:104560005BF057EC7AF054503626555037225650AF
:104570003822575039229F0EE96E090EEA6E3650E6
:10458000EE240901A36F3750EE20A46F3850EE20BF
:10459000A56F3950EE20A66FA3C958F0A4C959F0F1
:1045A000A5C95AF0A6C95BF0E552E7CFD9FF1200C2
:1045B000D9CFE6FFE1CFD9FF0901A86BA96BAA6BA0
:1045C000AB6B0A01F75101E09AD0FE0EDB28E66ED4
:1045D000FE0EDBCFE6FFBDDEE552E55259C036F0F8
:1045E0005AC037F05BC038F0396A38BE3968100EEF
:1045F0005D6E0E0E5E6E5F6A606A36C058F037C040
:1046000059F038C05AF039C05BF057EC7AF054C01A
:1046100036F055C037F056C038F057C039F054C0A6
:10462000E6FF55C0E6FF56C0E6FF57C0E6FFFE0EA8
:10463000DB50030FE66EFE0EDB50020FE66E89DEE6
:10464000E552E552E552E7CF39F0E552E7CF38F0D1
:10465000E552E7CF37F0E552E7CF36F059C03AF0F0
:104660005AC03BF05BC03CF03C0E5E6E5F6A606A15
:1046700010EC74F056C03AF057C03BF058C03CF014
:104680003D6A3CBE3D683A5036263B5037223C508E
:1046900038223D50392236C0E6FF37C0E6FF38C029
:1046A000E6FF39C0E6FFFD0EDBCFE6FFFE0EDB5076
:1046B000040FE66E4EDEE552E552E552E7CF39F0E3
:1046C000E552E7CF38F0E552E7CF37F0E552E7CFD4
:1046D00036F059C03EF05AC03FF05BC040F0416A2E
:1046E00040BE416836503E240901A86F37503F2034
:1046F000A96F38504020AA6F39504120AB6FA8C92C
:1047000058F0A9C959F0AAC95AF0ABC95BF0E552F3
:10471000E7CFD9FF1200F4CAF5FA0A01F451EA6AA8
:10472000570FE96E070EEA22EFCFACF92C0E090104
:10473000AC5D09E02A0EAC5D06E00A01F351F45DC0
:1047400002E2F42BEBD70A01F405F66FF42BF551D6
:10475000F65D02E3000E01D0010EF76F12000A01B0
:10476000F46BA7C7F3FAD7DFD6DFF6CAE6FFF5CAC0
:10477000E6FF1EDFE552E55258C0D8F459C0D9F41F
:104780005AC0DAF45BC0DBF4C6DFF6CAE6FFF5CA4E
:10479000E6FF2ADEE552E55258C0E6F459C0E7F4D8
:1047A0005AC0E8F45BC0E9F4B6DF0A01F551EA6AE1
:1047B000570FE96E070EEA22EF50530809E1000E89
:1047C0000401E66DE71FE723E81FE823E91FE9235B
:1047D000A2DFF6CAE6FFF5CAE6FF06DEE552E552BD
:1047E00058C0EAF459C0EBF45AC0ECF45BC0EDF4E5
:1047F00092DF0A01F551EA6A570FE96E070EEA22C5
:10480000EF50570809E1000E0401EA6DEB1FEB239E
:10481000EC1FEC23ED1FED237EDFF6CAE6FFF5CAA1
:10482000E6FF97DDE552E55259C0FDF474DFF6CAA4
:10483000E6FFF5CAE6FF8DDDE552E55259C0FCF40E
:104840006ADF030E0A01F65DE66EF5CAE6FF81DD5A
:10485000E552E55259C039F05AC03AF05BC03BF01E
:104860000A0E5E6E5F6A606A10EC74F056C039F032
:1048700057C03AF058C03BF056C0E6FF57C0E6FFBD
:1048800058C0E6FF0A01F605E66EF605E66E61DD44
:10489000E552E552E552E7CF3BF0E552E7CF3AF07B
:1048A000E552E7CF39F039505924366E3A505A2044
:1048B000376E3B505B20386E36C0FEF437C0FFF4D5
:1048C0002ADF020E0A01F65DE66EF5CAE6FF41DD5B
:1048D000E552E55259C036F05AC037F05BC038F0A7
:1048E000396A38BE39680A0E5D6E5E6A5F6A606A50
:1048F00036C058F037C059F038C05AF039C05BF0B4
:1049000057EC7AF054C036F055C037F056C038F046
:1049100057C039F054C0E6FF55C0E6FF56C0E6FF69
:1049200057C0E6FFF6CAE6FFF6CAE6FF12DDE5521B
:10493000E552E552E7CF39F0E552E7CF38F0E552DE
:10494000E7CF37F0E552E7CF36F059C03AF05AC01A
:104950003BF05BC03CF00A0E5E6E5F6A606A10EC72
:1049600074F056C03AF057C03BF058C03CF03D6A76
:104970003CBE3D683A5036263B5037223C503822E8
:104980003D50392236C0E0F437C0E1F438C0E2F4DB
:10499000010E0401FD5D03E3060EFC5D02E2000E64
:1049A00001D0010E0A01A99DE8B0A98D040E735C27
:1049B00063E10501DD510401FF19E8AE02D0FF35C6
:1049C00007D0FE510501DC5D0401FF510501DD59F1
:1049D00005E2FEC4DCF5FFC4DDF514D00401FF518F
:1049E0000501DB19E8AE02D0DB3507D0DA5104014E
:1049F000FE5D0501DB510401FF5904E2FEC4DAF556
:104A0000FFC4DBF50401FC51366E376A0501D7514E
:104A10003718E8AE02D0373404D03650D65D375060
:104A2000D75906E20401FC510501D66FD76B15D0AA
:104A30000401FC51366E376A05013750C719E8AEDC
:104A400002D0C73504D0C651365CC751375805E28D
:104A50000401FC510501C66FC76B0401FF3504E278
:104A6000FE510F08000EFF5502E3000E01D0010EAB
:104A70000A01AA97E8B0AA8712000A01F46BA7C737
:104A8000F3FA49DE48DE47DE0A01F551EA6A570FBC
:104A9000E96E070EEA22EF50410801E03FD10A011A
:104AA000A98D39DEF6CAE6FFF5CAE6FF9DDCE552C0
:104AB000E55258C0E6F459C0E7F45AC0E8F45BC0C8
:104AC000E9F429DE0A01F551EA6A570FE96E070E8B
:104AD000EA22EF50530809E1000E0401E66DE71FDA
:104AE000E723E81FE823E91FE92315DEF6CAE6FFFE
:104AF000F5CAE6FF79DCE552E55258C0EAF459C040
:104B0000EBF45AC0ECF45BC0EDF405DE0A01F5519C
:104B1000EA6A570FE96E070EEA22EF50570809E1DB
:104B2000000E0401EA6DEB1FEB23EC1FEC23ED1FDD
:104B3000ED23F1DD080EE66EF6CAE6FF0A01F60582
:104B4000E66EA9EC21F0E552E55259C03AF05AC0A0
:104B50003BF05BC03CF03D6A3CBE3D683AC0E6FFBE
:104B60003BC0E6FF3CC0E6FF3DC0E6FF030E0A0186
:104B7000F65DE66EF5CAE6FFA9EC21F0E552E552D6
:104B8000E552E7CF3DF0E552E7CF3CF0E552E7CF05
:104B90003BF0E552E7CF3AF059C058F05AC059F00F
:104BA0005BC05AF05B6A5ABE5B68640E5D6E5E6AFB
:104BB0005F6A606A57EC7AF0545000013A24366E0E
:104BC00055503B20376E56503C20386E57503D2094
:104BD000396E0D0E5D6E5E6A5F6A606A36C058F0AF
:104BE00037C059F038C05AF039C05BF057EC7AF052
:104BF00054C036F055C037F056C038F057C039F0C1
:104C000054C0E6FF55C0E6FF56C0E6FF57C0E6FFBA
:104C1000ACEC54F03E6E050EE15E3E5058C0FAF426
:104C200059C0FBF478DD080EE66EF6CAE6FF0A010D
:104C3000F605E66EA9EC21F0E552E55259C03AF0CE
:104C40005AC03BF05BC03CF03D6A3CBE3D683AC098
:104C5000E6FF3BC0E6FF3CC0E6FF3DC0E6FF030EBB
:104C60000A01F65DE66EF5CAE6FFA9EC21F0E55211
:104C7000E552E552E7CF3DF0E552E7CF3CF0E55293
:104C8000E7CF3BF0E552E7CF3AF059C058F05AC0B1
:104C900059F05BC05AF05B6A5ABE5B68640E5D6E89
:104CA0005E6A5F6A606A57EC7AF0545000013A24F9
:104CB000366E55503B20376E56503C20386E57505C
:104CC0003D20396E2D0E5D6E5E6A5F6A606A36C089
:104CD00058F037C059F038C05AF039C05BF057EC83
:104CE0007AF054C036F055C037F056C038F057C08F
:104CF00039F054C0E6FF55C0E6FF56C0E6FF57C086
:104D0000E6FFACEC54F03E6E050EE15E3E5058C03E
:104D1000F8F459C0F9F40A01AF8912000A01AF99F9
:104D20001200D9CFE6FFE1CFD9FF245001E198D09E
:104D3000020A55E0040A33E0010A01E09CD0020EA9
:104D40002B5C15E22C38F00B2C6E410EF36EFE0E30
:104D5000DBCFF4FFF350F45C04E3FE0EDB50C90F2D
:104D600003D0FE0EDB50D00F2C262B2A84D025C07A
:104D7000A7F729502C5C02E0000E01D0010E0A01B9
:104D8000B193E8B0B183B1A369D00A01F151010A2E
:104D900004E0010A63E1E3DC61D06FDE5FD0FE0E68
:104DA000DB502A0804E12C6A2B6A070E63D0FE0E42
:104DB000DB50240803E1000E296E59D0FE0EDB50B3
:104DC000291A2550252AEA6A570FE96E070EEA22AA
:104DD000FE0EDBCFEFFF25504F084DE23FD0FE0E19
:104DE000DB50291A2650050DF3CF36F0F4CF37F0FB
:104DF0000E0E3626000E372227503624F66E000E91
:104E00003720F76E0800F550F36EFE0EDB50F35CB2
:104E100005E0020E265C02E2262AE4D72650050DA4
:104E2000F3CF36F0F4CF37F00E0E3626000E3722D1
:104E300027503624F66E000E3720F76E0800F55026
:104E4000F36EFE0EDB50F35C09E1040E275C04E117
:104E500026C0F1FA060E0ED0272A0DD0246A0BD0F8
:104E6000FE0EDB50240807E1000E296E266E276E29
:104E7000256E020E246EE552E7CFD9FF1200F8CA64
:104E800036F0F9CA37F0386A396A37AE02D0386876
:104E900039681E0E361801E0FED0375001E0FBD015
:104EA000385001E0F8D0395001E0F5D00A01A9519D
:104EB000400B01E1F0D010EC72F059C024F75AC059
:104EC00025F75BC026F7D8C4DCF4D9C4DDF4DAC416
:104ED000DEF4DBC4DFF4E6C4EEF4E7C4EFF4E8C4C8
:104EE000F0F4E9C4F1F4EAC4F2F4EBC4F3F4ECC472
:104EF000F4F4EDC4F5F4E6C4B1F9E7C4B2F9E8C4DA
:104F0000B3F9E9C4B4F9C00E5D6E270E5E6E090EEA
:104F10005F6E606AE6C458F0E7C459F0E8C45AF01E
:104F2000E9C45BF0AFEC73F058C0B1F959C0B2F905
:104F30005AC0B3F95BC0B4F90901800E5B1409E0F3
:104F4000000EB16DB21FB223B31FB323B41FB4233D
:104F500002D0B4C9B4F9B1C936F0B2C937F0B3C997
:104F600038F0B4C939F0F60E5D6E0D0E5E6E5F6AF4
:104F7000606AB1C958F0B2C959F0B3C95AF0B4C99E
:104F80005BF057EC7AF054C036F055C037F056C09D
:104F900038F057C039F00B0ED890393238323732EA
:104FA0003632E806F9E136C0B1F937C0B2F938C097
:104FB000B3F939C0B4F936C0E6FF37C0E6FF9CEC60
:104FC00056F0E552E552F3CFF6F4F4CFF7F4E0C42F
:104FD000E3F4E1C4E4F4E2C4E5F40401FA6BFB6B2E
:104FE000E0C436F0E1C437F0E2C438F0640E5E6E1F
:104FF0005F6A606AE0C459F0E1C45AF0E2C45BF051
:1050000082EC73F059C036F05AC037F05BC038F00C
:1050100059C0E6FF5AC0E6FF0C0EE66E010EE66EC2
:10502000EAEC75F0E552E552E552E552E6C4E6FFDA
:10503000E7C4E6FFE8C4E6FFE9C4E6FF0E0EE66E4D
:10504000010EE66E1AEC76F0366E060EE15E365014
:10505000EAC4E6FFEBC4E6FFECC4E6FFEDC4E6FFFE
:10506000120EE66E010EE66E1AEC76F0366E060E45
:10507000E15E36500A01A9BF0DD0E66A080EE66E61
:10508000D8EC2CF0E552E552010E0501D86FD96B32
:105090000A01A98FAC8912000A01A9AD1DD110EC3B
:1050A00072F059C0B5F95AC0B6F95BC0B7F9240E11
:1050B000E96E070EEA6EEE50595C366EEE505A58A5
:1050C000376EEE505B5836C0B8F937C0B9F959C0E1
:1050D00024F75AC025F75BC026F7F8CA36F0F9CA9C
:1050E00037F0386A396A37AE02D038683968D890F4
:1050F0003950000A08E61E0E365C000E3758000EC6
:105100003858000E395822E20A01A99DFEC436F033
:10511000FFC437F0386A396A37AE02D03868396868
:105120003934000E391809E6D8800F0E3654000EB7
:105130003754000E3854000E395405E30A01F82B99
:10514000000EF92303D00A01F86BF96B0A01A9AF2D
:1051500092D0EE0EE96E040EEA6EEE500401E65DAA
:10516000366EEE50E759376EEE50E859386EEE5015
:10517000E959396E36C0E6FF37C0E6FF38C0E6FFB2
:10518000E66E23EC21F0E552E552E552E55258C0B7
:10519000AEF759C0AFF75AC0B0F7080EE66EF6C4C6
:1051A0003EF0F7C43FF0406A416A3FAE02D040682B
:1051B00041683EC0E6FF3FC0E6FF40C0E6FF41C099
:1051C000E6FFF20EE96E040EEA6EEE500401EA5DAF
:1051D0003A6EEE50EB593B6EEE50EC593C6EEE5091
:1051E000ED593D6E3AC0E6FF3BC0E6FF3CC0E6FF2E
:1051F000E66E23EC21F0E552E552E552E552E55228
:10520000E7CF41F0E552E7CF40F0E552E7CF3FF07E
:10521000E552E7CF3EF03EC05DF03FC05EF040C0DB
:105220005FF041C060F057EC7AF054C036F055C0E2
:1052300037F056C038F057C039F054C0E6FF55C0BB
:10524000E6FF56C0E6FF57C0E6FFACEC54F0050E93
:10525000E15E58C0BFF759C0C0F75AC0C1F7AEC72A
:10526000B4F7AFC7B5F7B0C7B6F758C0C5F759C060
:10527000C6F75AC0C7F7040E735C37E1C0C536F0F5
:10528000C1C537F0386A37BE386838500401E219B2
:10529000E8AE02D0E23506D0E051365CE151375835
:1052A000E251385804E2E0C4C0F5E1C4C1F505019B
:1052B000CD510401FB19E8AE02D0FB3507D0FA51FD
:1052C0000501CC5D0401FB510501CD590EE2FAC484
:1052D000CCF5FBC4CDF51200F8CAFCF4040E735CE7
:1052E00004E10501D42B000ED52312000A01B151AF
:1052F000020B1BE12F502D1802E130502E1815E043
:10530000000E2F24E96E020E3020EA6EEFCFBAF9BC
:10531000010E2F26000E3022FF0E2F16000E301623
:10532000BAC9E6FFFEDCE552E1D7B1A330D0020EE8
:10533000E66E24EC79F0E552040EE66E30EC79F07E
:10534000E5520A01B193A8DE0A01A9AD1ED0040EF0
:10535000E66E30EC79F0E5520A01AE9710EC72F08F
:1053600059C036F05AC037F05BC038F0396AD00EF9
:105370003626070E3722000E3822392236C02DF786
:1053800037C02EF738C02FF713D0AC9D0CD010ECDF
:1053900072F0595007012D5D5A502E595B502F590C
:1053A00007E20A01A99D040EE66E24EC79F0E552AD
:1053B000020EE66E30EC79F0E55212000A01F46B51
:1053C0000401F66B010EF76FFE6BFF6BFC6BFCC408
:1053D000FDF4FCC4D8F4D96BDA6BDB6B000EFA6F0A
:1053E000FB6BF86FF96BE06FE16BE26BE1BFE269B9
:1053F000E66BE76BE86BE96BE6C4EEF4E7C4EFF449
:10540000E8C4F0F4E9C4F1F4EA6BEB6BEC6BED6B20
:10541000EAC4F2F4EBC4F3F4ECC4F4F4EDC4F5F430
:10542000E66AE66AE66AE66A0E0EE66E010EE66E69
:105430001AEC76F0366E060EE15E3650E66AE66AE3
:10544000E66AE66A120EE66E010EE66E1AEC76F079
:10545000366E060EE15E3650000EE66EE66A0C0E03
:10546000E66E010EE66EEAEC75F0E552E552E552A5
:10547000E5520A01F86BF96B0A01B193A99DA99F46
:04548000246A120088
:0C5484007BBA05D0200EE66E24EC79F017
:1054900004D0200EE66E30EC79F0E5520A01ADA1A1
:1054A00005D0080EE66E24EC79F004D0080EE66E06
:1054B00030EC79F0E552800EE66E30EC79F0E55292
:1054C00010EC72F059C0D8F85AC0D9F85BC0DAF8BD
:1054D000F40E0801D827010ED923000EDA2323EC9D
:1054E00019F0010E766E2EEC33F0010E766E3FEC65
:1054F00051F00A01AA9DADA15CD0080EE66E24EC25
:1055000079F0E5520A01ADA75ED012EC42F042C636
:1055100040F643C641F6000E06013C6F3D6B0601A6
:10552000426F436BB8EC3DF010EC72F0595008013B
:10553000D85D5A50D9595B50DA5932E20A01AC5160
:10554000020B2EE19CEC49F00A01AD95E8B0AD8567
:10555000AB51010B06E1AA51800B03E1AD51040BE5
:1055600013E17BBE05D0800EE66E24EC79F004D00A
:10557000800EE66E30EC79F0E5527BB405D0040E77
:10558000E66E24EC79F004D0040EE66E30EC79F08F
:10559000E552F40E0801D827010ED923000EDA23B4
:1055A0000B01240710E1A9EC48F00B01010E246F58
:1055B0000AD0040EE66E24EC79F0E552080EE66E91
:1055C00030EC79F0E552BBEC44F00A01AD51010B2F
:1055D00001E185D78050100B04E00801D35101E0B0
:1055E0007ED70A01B051400B01E079D7AB51010BD6
:1055F00001E075D7AA51800B01E071D7A951040BC6
:1056000001E06DD740C636F041C637F0386A396AD6
:1056100037AE02D038683968D8903950000A08E6A9
:10562000180E365C000E3758000E3858000E3958E8
:1056300001E355D7AD51040B01E151D70801D36BFC
:10564000800EE66E30EC79F0E552040EE66E30EC3A
:1056500079F0E552080EE66E24EC79F0E5520A0185
:10566000ADAB05D0200EE66E24EC79F004D0200E10
:10567000E66E30EC79F0E55210EC72F059C0D4F8D7
:105680005AC0D5F85BC0D6F80801D76B59C039F7B6
:105690005AC03AF75BC03BF759C036F05AC037F0F2
:1056A0005BC038F0D7C839F0E80E3626030E372233
:1056B000000E3822392236C015F737C016F738C029
:1056C00017F700CF36F0376A386A396AD40EE96EB8
:1056D000080EEA6EEE503626EE503722EE50382293
:1056E000EE50392236C054F737C055F738C056F758
:1056F0000A01A997756A1200850EE66ECE0EE66E57
:1057000034EC5DF0E552E552D9EC16F06AEC4BF062
:10571000AFEC77F0770EE66ECE0EE66E34EC5DF011
:10572000E552E5520801DC6B400EDC5D62E2730E6F
:10573000E66ECE0EE66E34EC5DF0E552E552080101
:10574000DC29E66EE66A80EC5DF0E552E5526F0E0C
:10575000E66ECE0EE66E34EC5DF0E552E5520801E1
:10576000DC51EA6A930FE96E080EEA22EFCF36F0B9
:10577000376A36BE376836C0E6FF37C0E6FFE9EC69
:105780005DF0E552E5520801DC51F66EF76AD890FB
:10579000F636F7362D0EF626F40EF722010EF62613
:1057A000000EF7220800F55007E06C0EE66ECE0EF4
:1057B000E66E34EC5DF018D0200EE66E54EC5DF031
:1057C000E552400E0801DC25E66EE66A11EC75F044
:1057D000E552E552366E376A36BE376836C0E6FFA8
:1057E00037C0E6FFE9EC5DF0E552E5520801DC2B3D
:1057F0009BD712003F0E926E020EC16EC00E816EDC
:10580000400E936E600E826E840E946EC78CF19E75
:10581000410EE66EE66A3C0EE66ECFEC79F0E5529C
:10582000E552E5521200736A0801DD6B0A0EDD5D78
:1058300009E2DD51EA6AA90FE96E0A0EEA22EF6A6F
:10584000DD2BF4D70A01AC81AC89AD850A01A16BCF
:10585000A26BA36BA46B060148697F0E496F48C613
:1058600046F6E8CF47F648C64AF6E8CF4BF6140EA0
:1058700006013E6F3F6BF00E0601406F416BD00E8C
:105880000001C36FC46B7B6A2E0EE66E30EC79F0BC
:10589000E552040EE66E24EC79F0E552800EE66ED9
:1058A00030EC79F0E5521200D9CFE6FFE1CFD9FF15
:1058B000FD0EDBCF36F0FE0EDBCF37F0386A37BE99
:1058C000386836C0E6FF37C0E6FF38C0E6FF10ECA8
:1058D00072F0E552E7CF38F0E552E7CF37F0E55206
:1058E000E7CF36F0595036240801DE6F5A50372082
:1058F000DF6F5B503820E06FDE2B000EDF23E023EC
:1059000010EC72F00801DE51595CDF515A58E05139
:105910005B58F6E3E552E7CFD9FF1200D9CFE6FF97
:10592000E1CFD9FFFD0EDBCF36F0FE0EDBCF37F037
:10593000640E3702F3CF37F03602F3CF36F0F4506F
:105940003726386A37BE386836C0E6FF37C0E6FF0C
:1059500038C0E6FF10EC72F0E552E7CF38F0E552C0
:10596000E7CF37F0E552E7CF36F05950362408013B
:10597000E16F5A503720E26F5B503820E36F10EC34
:1059800072F00801E151595CE2515A58E3515B58F9
:105990000BE2020E0F01005DE66EE66A85DFE5525E
:1059A000E552B8EC3DF0EBD7E552E7CFD9FF120056
:1059B000D9CFE6FFE1CFD9FF800EE66E24EC79F077
:1059C000E552FE0EDBCFE6FFE66AA8DFE552E552C0
:1059D000800EE66E30EC79F0E552FD0EDBCFE6FF8F
:1059E000E66A9CDFE552E552E552E7CFD9FF1200A7
:1059F000D9CFE6FFE1CFD9FF0801E46BFE0EDB5003
:105A0000E45D0AE2080EE66E020EE66ED1DFE552B4
:105A1000E5520801E42BF2D7E66A080EE66EC8DF0D
:105A2000E552E552E552E7CFD9FF120010EC72F0D3
:105A300059C0E5F85AC0E6F85BC0E7F8E50EE96E34
:105A4000080EEA6E07013C51EE5C3D51EE583E51A6
:105A5000EE5801E2BFD0765001E1BCD0E5C83CF77A
:105A6000E6C83DF7E7C83EF7E80E3C27030E3D23A6
:105A7000000E3E23766AC0C058F0C1C059F05A6A81
:105A80005B6A59AE02D05A685B68040E5D6E5E6A4E
:105A90005F6A606A57EC7AF054C099FA55C09AFA76
:105AA000390EE96E070EEA6EEE500801E55D3D6EB7
