:020000040000FA
:06000000AEEF7BF01200E0
:020006001200E6
:06000800E2EF72F01200AD
:02000E000601E9
:06001000FE6BFF6B120005
:0100160000E9
:0100170001E7
:06001800DBEF72F01200A4
:02001E001100CF
:10002000F3F80000A90A00000A0000001700000011
:100030007F0F000001000000D6F80000E109000079
:100040001D000000CEF80000C40A000008000000F7
:1000500016000000FF07000001000000C4F80000C7
:100060009F0A00000A000000BBF80000B30A00006D
:1000700009000000B6F80000F10A000005000000C9
:10008000B1F80000EC0A000005000000C5D4000033
:10009000FF02000001000000ACF80000E70A0000C9
:1000A0000500000098F80000EC05000014000000B6
:1000B00076F80000000A0000220000006AF8000044
:1000C000890A00000C00000050F80000650F0000D5
:1000D0001A000000D0F7000080000000800000003F
:0C00E000AEF70000BF0900002200000085
:0400EC00030E746E1D
:1000F000D1EF3CF0D9CFE6FFE1CFD9FFFE0EDBCF49
:10010000E6FFE66A45C2E6FF46C2E6FFA6EC27F038
:10011000E552E552E552E552F3CF45F2F4CF46F20F
:10012000FE0EDBCFE6FFE66A9AC2E6FF9BC2E6FF61
:10013000A6EC27F0E552E552E552E552F3CF9AF2EC
:10014000F4CF9BF2000E02019C6F9D6B476F486BD2
:10015000EF6BF06B0F01010E7F6FE552E7CFD9FF18
:100160001200D9CFE6FFE1CFD9FF0401356B366B22
:10017000FC0EDBCF20F4FD0EDBCF21F4FE0EDBCF37
:1001800022F4E552E7CFD9FF1200000E0201C26F40
:10019000C36B6D6F6E6B186F196B09013351400B98
:1001A0001BE03751400B18E03751200B15E0D9C741
:1001B000E6FFDAC7E6FFDBC7E6FFDCC7E6FFD5C729
:1001C000E6FFD6C7E6FFD7C7E6FFD8C7E6FF92D956
:1001D0002F6E080EE15E2F501200380EE66EE668B4
:1001E000E668BFDFE552E552E552090135AB46D07E
:1001F00023C42FF024C430F025C431F0326A31BE5C
:1002000032683234000E321809E6D8802C0E2F5492
:10021000010E3054000E3154000E325416E2CCEC74
:1002200072F05AC02FF05BC030F05CC031F0326A1F
:10023000980E2F263A0E3022000E312232222FC085
:1002400073F630C074F631C075F6CCEC72F05A50CB
:100250000601735D5B5074595C5075590AE20901DF
:100260003651800B47E1040E755C44E0030E765C6A
:1002700041E03DCF43FF3ECF44FF120005018351D3
:100280000F013D5D0F01436F050184510F013E5980
:100290000F01446FCCEC72F05A500601765D5B5052
:1002A00077595C5078592DE2CCEC72F05AC02FF09F
:1002B0005BC030F05CC031F0326AE80E2F26030ECE
:1002C0003022000E312232222FC076F630C077F66F
:1002D00031C078F60F0144510F014619E8AE02D043
:1002E000463507D045510F01435D0F0146510F01BF
:1002F000445902E276EF00F0050E05018327000E57
:10030000842312000901368133813387EDEF00F039
:10031000000E0201EF6FF06B456F466B9A6F9B6B9F
:1003200009013897A8C7D5F7A9C7D6F7AAC7D7F73D
:10033000ABC7D8F7ACC7D9F7ADC7DAF7AEC7DBF7AD
:10034000AFC7DCF7369935953593756A12009EC2B2
:10035000E6FF9FC2E6FFA0C2E6FFA1C2E6FF9DEC5A
:1003600028F0E552E552E552E55259C02FF05AC047
:1003700030F05BC031F05CC032F059C0E6FF5AC0CB
:10038000E6FF5BC0E6FF5CC0E6FF49C2E6FF4AC28B
:10039000E6FF4BC2E6FF4CC2E6FF9DEC28F0E552BB
:1003A000E552E552E552E552E7CF32F0E552E7CFAC
:1003B00031F0E552E7CF30F0E552E7CF2FF0325081
:1003C0005C18E8AE02D05C3408D059502F5C5A500B
:1003D00030585B5031585C50325846E29EC22FF084
:1003E0009FC230F0A0C231F0A1C232F0A0C232F000
:1003F0009FC231F09EC230F02F6A2FC059F09EC2CA
:100400005AF09FC25BF0A0C25CF049C25EF04AC2E3
:100410005FF04BC260F04CC261F04FEC76F059C017
:1004200081FA5AC082FA5BC083FA5CC084FA59C070
:10043000E6FF5AC0E6FF5BC0E6FF5CC0E6FF9DEC4E
:1004400028F0E552E552E552E55259C081FA5AC00A
:1004500082FA5BC083FA5CC084FA0A017D6B010EEC
:100460007E6F7F6B806B120049C22FF04AC230F062
:100470004BC231F04CC232F04BC232F04AC231F0C2
:1004800049C230F02F6A2FC059F049C25AF04AC20F
:100490005BF04BC25CF09EC25EF09FC25FF0A0C2F8
:1004A00060F0A1C261F04FEC76F059C07DFA5AC0FD
:1004B0007EFA5BC07FFA5CC080FA59C0E6FF5AC082
:1004C000E6FF5BC0E6FF5CC0E6FF9DEC28F0E5526E
:1004D000E552E552E55259C07DFA5AC07EFA5BC03A
:1004E0007FFA5CC080FA0A01816B010E826F836B18
:1004F000846B1200D9CFE6FFE1CFD9FF776A9FC5A1
:100500002FF0A0C530F0316A326A30AE02D03168C7
:100510003268280E2F5E000E305A315A325A2FC0E0
:10052000A6F530C0A7F52FC059F030C05AF05B6A6D
:100530005ABE5B685C6A5BBE5C68400E5E6E5F6A5A
:10054000606A616A18EC7AF055C0D5F556C0D6F5E8
:1005500057C0D7F556C0A4F557C0A5F5800E57145F
:1005600002E02F6A1AD0A4C533F0A5C534F0356A6D
:10057000366A34AE02D0356836683634000E361826
:1005800009E6D880400E3354000E3454000E355422
:10059000000E365404E2400E2F6E306A04D0A4C51B
:1005A0002FF0A5C530F0326A2FC0A4F530C0A5F5F4
:1005B000FB0EDBCFCDF7FC0EDBCFCEF7FD0EDBCF96
:1005C000CFF7FE0EDBCFD0F7F70EDBCFD1F7F80E6B
:1005D000DBCFD2F7F90EDBCFD3F7FA0EDBCFD4F7B0
:1005E000DDC733F0DEC734F0356A366A34AE02D088
:1005F00035683668AC0EE96E070EEA6EEE500701FC
:10060000D15D2F6EEE50D259306EEE50D359316E0F
:10061000EE50D459326E2FC059F030C05AF031C06C
:100620005BF05C6E33C05EF034C05FF035C060F0EC
:1006300036C061F018EC7AF055C0D1F556C0D2F54D
:1006400057C0D3F558C0D4F556C0B5F557C0B6F568
:1006500058C0B7F50501B86BB7BFB869A80EE96E09
:10066000070EEA6EEE500701CD5D0501B96FEE5041
:100670000701CE590501BA6FEE500701CF590501A8
:10068000BB6FEE500701D0590501BC6FB9C5E6FF3D
:10069000BAC5E6FFBBC5E6FFE66EB5C5E6FFB6C563
:1006A000E6FFB7C5E6FFB8C5E6FFEEEC4FF0316EEA
:1006B000080EE15E3150F3CF2FF0F4CF30F0F3CFDE
:1006C000E6FFF4CFE6FF1AEC4EF0E552E552F3CF29
:1006D00094F5F4CF95F5B9C5E6FFBAC5E6FFBBC5FD
:1006E000E6FFBCC5E6FF9DEC28F0E552E552E55279
:1006F000E55259C02FF05AC030F05BC031F05CC0F9
:1007000032F059C0E6FF5AC0E6FF5BC0E6FF5CC0AE
:10071000E6FFB5C5E6FFB6C5E6FFB7C5E6FFB8C557
:10072000E6FF9DEC28F0E552E552E552E552E55230
:10073000E7CF32F0E552E7CF31F0E552E7CF30F0C6
:10074000E552E7CF2FF05C503218E8AE02D03234D9
:1007500008D02F50595C30505A5831505B583250A5
:100760005C5809E2B9C5E6FFBAC5E6FFBBC5E6FFBE
:10077000BCC5E6FF08D0B5C5E6FFB6C5E6FFB7C500
:10078000E6FFB8C5E6FF9DEC28F0E552E552E552DC
:10079000E55259C0ADF55AC0AEF55BC0AFF55CC0CF
:1007A000B0F596C52FF097C530F0316A326A30AE99
:1007B00002D0316832680501B0513218E8AE02D07B
:1007C000323408D02F50AD5D3050AE593150AF5952
:1007D0003250B05901E380D0040123510401205D5F
:1007E0000501AA6F04012451040121590501AB6FD1
:1007F00004012551040122590501AC6F9AC533F05B
:100800009BC534F0356A366A34AE02D03568366836
:1008100033C0E6FF34C0E6FF35C0E6FF36C0E6FF72
:10082000AAC52FF0ABC530F0ACC531F0326A31BE8D
:1008300032682FC0E6FF30C0E6FF31C0E6FF32C0AD
:10084000E6FF9DEC28F0E552E552E552E552E5520F
:10085000E7CF36F0E552E7CF35F0E552E7CF34F099
:10086000E552E7CF33F05C503618E8AE02D03634AC
:1008700008D03350595C34505A5835505B58365074
:100880005C5802E3000E01D0010E09013593E8B077
:10089000358398C52FF099C530F0316A326A30AE91
:1008A00002D0316832680501B0513218E8AE02D08A
:1008B000323408D02F50AD5D3050AE593150AF5961
:1008C0003250B05902E3000E01D0010E09013595F6
:1008D000E8A005D0358503D009013595359334510D
:1008E000100B02E1D5EF09F09FC52FF0A0C530F045
:1008F000316A326A30AE02D0316832683234000E6A
:10090000321809E6D880280E2F54000E3054000EFD
:100910003154000E325402E3D5EF09F03551040B87
:1009200002E0D5EF09F00F017F5112E00501DA6B0B
:10093000DB6BDC6BDD6BDAC547F2DBC548F2DE6BE7
:10094000DF6BE06BE16BDEC59CF2DFC59DF210D082
:1009500049C2DAF54AC2DBF54BC2DCF54CC2DDF523
:100960009EC2DEF59FC2DFF5A0C2E0F5A1C2E1F5AF
:100970000F017F6B8CC4E6FF8DC4E6FF5CEC4FF08B
:10098000E552E552F3CFBDF5F4CFBEF50501BF6BDF
:10099000C06BBEAF02D0BF69C0698CC4E6FF8DC416
:1009A000E6FFD5EC4FF0E552E552F3CFC1F5F4CFB9
:1009B000C2F50501C36BC46BC2AF02D0C369C46981
:1009C000B9C533F0BAC534F0BBC535F0BCC536F097
:1009D000000E336C341E3422351E3522361E36226C
:1009E00033C059F034C05AF035C05BF036C05CF00B
:1009F000BDC55EF0BEC55FF0BFC560F0C0C561F0AB
:100A000018EC7AF055C02FF056C030F057C031F0D6
:100A100058C032F0B5C559F0B6C55AF0B7C55BF04D
:100A2000B8C55CF0C1C55EF0C2C55FF0C3C560F07B
:100A3000C4C561F018EC7AF02F5055240501D16F30
:100A400030505620D26F31505720D36F325058203B
:100A5000D46FD2C549F2D3C54AF2E8CF4BF20201B6
:100A60004C6B4BBF4C69B9C533F0BAC534F0BBC54C
:100A700035F0BCC536F0000E336C341E3422351E02
:100A80003522361E362233C059F034C05AF035C0F4
:100A90005BF036C05CF0C1C55EF0C2C55FF0C3C597
:100AA00060F0C4C561F018EC7AF055C02FF056C064
:100AB00030F057C031F058C032F0B5C559F0B6C566
:100AC0005AF0B7C55BF0B8C55CF0BDC55EF0BEC5F9
:100AD0005FF0BFC560F0C0C561F018EC7AF055500A
:100AE0002F5C0501D16F56503058D26F5750315896
:100AF000D36F58503258D46FD2C59EF2D3C59FF2EF
:100B0000E8CFA0F20201A16BA0BFA1690501B03539
:100B1000000EB01909E6D880000EAD55020EAE5594
:100B2000000EAF55000EB05502E2A7EC01F0050132
:100B3000A36BA351010801E288D3A351550DF3CF54
:100B4000E2F5F4CFE3F5000EE227020EE323B03521
:100B5000000EB01909E6D880000EAD55020EAE5554
:100B6000000EAF55000EB0556BE2A351040DF3CF4C
:100B7000E9FFF4CFEAFF7D0EE9260A0EEA22EECF66
:100B800035F0EECF36F0EECF37F0EFCF38F0E2C5EC
:100B9000E9FFE3C5EAFF490EE926000EEA22D890F4
:100BA000030EEB50000A08E6000EEE5C000EEE5855
:100BB000000EEE58000EEE5802E2FF0E01D0010EBC
:100BC000336E346A33BE34680001A4C5E8FF3302D3
:100BD000F3CF2FF0F4CF30F03402F3503026A5C518
:100BE000E8FF3302F3503026316A326A30AE02D069
:100BF000316832682FC059F030C05AF031C05BF014
:100C000032C05CF035C05EF036C05FF037C060F0D7
:100C100038C061F018EC7AF055C0D1F556C0D2F565
:100C200057C0D3F558C0D4F556C0C5F557C0C6F562
:100C300058C0C7F50501C86BC7AF8DD0C8698BD048
:100C4000A4C537F0A5C538F0396A3A6A38AE02D083
:100C500039683A68E2C5E9FFE3C5EAFF490EE926CB
:100C6000000EEA22D880030EEB50FF0A08E6000EC1
:100C7000EE5CFE0EEE58FF0EEE58FF0EEE5806E24A
:100C80002F6AFE0E306E3168326835D0336A020E3C
:100C9000346E356A366AE2C5E9FFE3C5EAFF490EFC
:100CA000E926000EEA22030EEBCFF3FF3650F318CD
:100CB000E8AE02D0F33408D0EE50335CEE50345836
:100CC000EE503558EE50365806E22F6A020E306E5E
:100CD000316A326A10D0E2C5E9FFE3C5EAFF490E86
:100CE000E926000EEA22EECF2FF0EECF30F0EECF65
:100CF00031F0EFCF32F02FC059F030C05AF031C090
:100D00005BF032C05CF037C05EF038C05FF039C0D5
:100D100060F03AC061F018EC7AF055C0C5F556C0E5
:100D2000C6F557C0C7F558C0C8F5090EE66E55C0E0
:100D3000E6FF56C0E6FF57C0E6FF58C0E6FF92EC5C
:100D40004DF0050EE15E59C0C5F55AC0C6F55BC051
:100D5000C7F55CC0C8F5E2C5E9FFE3C5EAFF470E89
:100D6000E926000EEA220501C551EE26C651ED2204
:100D7000E2C5E9FFE3C5EAFF470EE926000EEA22D5
:100D8000EECF31F0EFCF32F075C833F0346A33BEB6
:100D90003468336C341E342232503418E8AE02D03A
:100DA000343404D03350315C345032580AE275C8C0
:100DB0002FF0306A2FBE30682F6C301E000E3022AC
:100DC0002FD0E2C5E9FFE3C5EAFF470EE926000E92
:100DD000EA22EECF35F0EFCF36F075C837F0386A3B
:100DE00037BE386838503618E8AE02D0363404D0F2
:100DF0003550375C3650385807E275C82FF0306AE6
:100E00002FAE0ED030680CD0E2C5E9FFE3C5EAFF93
:100E1000470EE926000EEA22EECF2FF0EFCF30F09A
:100E2000E2C5E9FFE3C5EAFF470E2FC0EBFF480E1E
:100E300030C0EBFF040EE66EE2C5E9FFE3C5EAFF52
:100E4000470EE926000EEA22EECF33F0EFCF34F062
:100E500063C835F0366A35BE366800013550330256
:100E6000F3CF2FF0F4CF30F03402F3503026365069
:100E70003302F3503026316A326A30AE02D0316824
:100E800032682FC0E6FF30C0E6FF31C0E6FF32C057
:100E9000E6FF92EC4DF0376E050EE15E59C0C9F5E4
:100EA0005AC0CAF55BC0CBF55CC0CCF5E2C5E9FF22
:100EB000E3C5EAFF490EE926000EEA22EECF2FF045
:100EC000EECF30F0EECF31F0EFCF32F00501A3518D
:100ED000040DF3CFE9FFF4CFEAFFDA0EE926050EA1
:100EE000EA22EE502F5CB16FEE503058B26FEE50E8
:100EF0003158B36FEE503258B46F020EE66EE2C551
:100F0000E9FFE3C5EAFF4D0EE926000EEA22EECF27
:100F100033F0EECF34F0EECF35F0EFCF36F0030EF6
:100F20005E6E5F6A606A616A33C059F034C05AF01D
:100F300035C05BF036C05CF018EC7AF055C033F089
:100F400056C034F057C035F058C036F00501B151E5
:100F50003326B2513422B3513522B451362233C034
:100F6000E6FF34C0E6FF42EC4DF0E552E552E552B3
:100F7000F3CF2FF0F4CF30F0316A326A30AE02D0C6
:100F800031683268E2C5E9FFE3C5EAFF4D0EE926A4
:100F9000000EEA222FC0EEFF30C0EEFF31C0EEFFA0
:100FA00032C0EEFF060EE66E6EC837F0386A37BE06
:100FB0003868396A3A6A38AE02D039683A68E2C5A8
:100FC000E9FFE3C5EAFF4D0EE926000EEA22EECF67
:100FD00033F0EECF34F0EECF35F0EFCF36F033C054
:100FE00059F034C05AF035C05BF036C05CF037C001
:100FF0005EF038C05FF039C060F03AC061F018ECC4
:101000007AF055C02FF056C030F057C031F058C0BC
:1010100032F055C0E6FF56C0E6FF57C0E6FF58C0A5
:10102000E6FF92EC4DF03B6E050EE15E59C0CDF54A
:101030005AC0CEF55BC0CFF55CC0D0F5A4C52FF08B
:10104000A5C530F02F6C301E000E3022316A326A96
:1010500030AE02D0316832680501D0513218E8AEA6
:1010600002D0323408D02F50CD5D3050CE5931509F
:10107000CF593250D0590DE2A4C5CDF5A5C5CEF556
:10108000CD6DCE1F000ECE23CF6BD06BCEAF27D051
:1010900021D0A4C533F0A5C534F0356A366A34AE24
:1010A00002D0356836683650D019E8AE02D0D03557
:1010B00008D0CD51335CCE513458CF513558D05132
:1010C00036580BE2A4C5CDF5A5C5CEF5CF6BD06BD8
:1010D000CEAF05D0CF69D06902D0D0C5D0F5C90E4A
:1010E000E96E050EEA6EC551EE24336EC651EE2050
:1010F000346ECD51335C2F6ECE513458306E2FC0CC
:10110000D8F5D96F85CA2FF086CA30F0316A326AB5
:1011100030AE02D0316832682FC0E6FF30C0E6FF43
:1011200031C0E6FF32C0E6FFD8C533F0D9C534F090
:10113000356A366A34AE02D03568366833C0E6FFA9
:1011400034C0E6FF35C0E6FF36C0E6FFE2C5E9FF82
:10115000E3C5EAFF450EE926000EEA22EECF37F09E
:10116000EFCF38F0396A3A6A38AE02D039683A6857
:1011700037C0E6FF38C0E6FF39C0E6FF3AC0E6FFF9
:1011800004EC28F03B6E0C0EE15E59C0D8F55AC055
:10119000D9F5A4C531F0A5C532F0316C321E000E70
:1011A000322205015A503218E8AE02D0323404D04F
:1011B0003150D85D3250D95909E2A4C52FF0A5C5E8
:1011C00030F02F6C301E000E302214D0A551D919EA
:1011D000E8AE02D0D93504D0D851A45DD951A55973
:1011E00005E2A4C52FF0A5C530F004D0D8C52FF076
:1011F000D9C530F0E2C5E9FFE3C5EAFF450E2FC0CF
:10120000EBFF460E30C0EBFFE2C5E9FFE3C5EAFFA6
:10121000450EE926000EEA22EECF2FF0EFCF30F098
:10122000D8512F1802E1D951301802E0000E01D038
:10123000010EE66EA351EA6A870FE96E0A0EEA22F2
:10124000E552E750EF6EA32B74D409013351020B22
:1012500001E1A7D03551020B01E0A3D004018C516C
:101260000501945D2F6E955104018D55306E2FC090
:10127000E6FFE66E7DEC4EF0E552E552F3CFA8F5C1
:10128000F4CFA9F5040EE66EF3CFE6FFF4CFE6FF48
:1012900042EC4DF0E552E552E552F3CFD8F5F4CFEC
:1012A000D9F50501D86DD91F000ED92385CA2FF0B5
:1012B00086CA30F0316A326A30AE02D031683268A4
:1012C0002FC0E6FF30C0E6FF31C0E6FF32C0E6FFC8
:1012D000D8C533F0D9C534F0356A366A34AE02D099
:1012E0003568366833C0E6FF34C0E6FF35C0E6FF38
:1012F00036C0E6FFEFC237F0F0C238F0396A3A6A1A
:1013000038AE02D039683A6837C0E6FF38C0E6FF29
:1013100039C0E6FF3AC0E6FF04EC28F00C0EE15EAF
:1013200059C0D8F55AC0D9F57FC82FF0306A2FBE02
:1013300030682F6C301E000E30220501D951301854
:10134000E8AE02D0303404D02F50D85D3050D95997
:101350000BE27FC8EFF20201F06BEFBFF069EF6DB7
:10136000F01F000EF02326D07FC831F0326A31BE64
:1013700032683250D919E8AE02D0D93504D0D851EC
:10138000315CD951325808E27FC8EFF20201F06BAC
:10139000EFAF10D0F0690ED0D8C5EFF2D9C5F0F29A
:1013A00009D00201EF6BF06B05D0060EE66E7AEC09
:1013B00000F0E55209013887E552E7CFD9FF120066
:1013C00009013351400B10E03751400B0DE037510C
:1013D000200B0AE0CCEC72F05A500601975D5B508E
:1013E00098595C50995902E3000E01D0010E090191
:1013F000369DE8B0368D36AD60D2369F3397385182
:10140000080B01E064D2775001E161D2755001E12F
:101410008FD1050A01E140D1030A01E1E5D0070AB5
:1014200001E19ED0030A55E0010A1AE0070A01E033
:101430004ED2C0C7E6FFC1C7E6FFC2C7E6FFC3C7BB
:10144000E6FFBCC7E6FFBDC7E6FFBEC7E6FFBFC7F6
:10145000E6FF7AEC02F02F6E080EE15E2F5036D0D8
:10146000C0C7E6FFC1C7E6FFC2C7E6FFC3C7E6FFC6
:10147000BCC7E6FFBDC7E6FFBEC7E6FFBFC7E6FFC6
:101480007AEC02F02F6E080EE15E2F500901355103
:10149000010B04E13451800B01E147D123C42FF04B
:1014A00024C430F025C431F0326A31BE3268D8909D
:1014B0003250000A08E62C0E2F5C010E3058000E48
:1014C0003158000E325802E2040E756EEDEC00F059
:1014D000FED1C0C7E6FFC1C7E6FFC2C7E6FFC3C76C
:1014E000E6FFBCC7E6FFBDC7E6FFBEC7E6FFBFC756
:1014F000E6FF7AEC02F02F6E080EE15E2F50090134
:101500003551010B04E13451800B01E10ED135A3BB
:10151000A1D13551100B01E1DAD1CCEC72F05A5067
:101520000601735D5B5074595C50755901E3CFD16E
:10153000CCEC72F05AC02FF05BC030F05CC031F0E0
:10154000326A980E2F263A0E3022000E31223222B5
:101550002FC073F630C074F631C075F6030EABD1F0
:10156000C0C7E6FFC1C7E6FFC2C7E6FFC3C7E6FFC5
:10157000BCC7E6FFBDC7E6FFBEC7E6FFBFC7E6FFC5
:101580007AEC02F02F6E080EE15E2F500901355102
:10159000010B04E13451800B01E1C7D035A397D191
:1015A000CCEC72F05A5005019C250601736F5B501C
:1015B00005019D210601746F5C5005019E21060105
:1015C000756F66C82FF0306A2FBE3068640E300227
:1015D000F3CF30F02F02F3CF2FF0F4503026316AE2
:1015E00030AE5DD131685BD18DC5E6FF8EC5E6FFBB
:1015F0008FC5E6FF90C5E6FF89C5E6FF8AC5E6FF11
:101600008BC5E6FF8CC5E6FF7AEC02F02F6E080E64
:10161000E15E2F50090134AF88D03551020B01E152
:1016200056D1CCEC72F05A500601735D5B50745980
:101630005C50755901E34BD105018651855D15E17B
:10164000010E856F66C82FF0306A2FBE3068640EB9
:101650003002F3CF30F02F02F3CF2FF0F4503026CA
:10166000316A30AEECD03168EAD0852B85C5E6FF13
:1016700080DBE55287C52FF088C530F0640E30025C
:10168000F3CF30F02F02F3CF2FF0F4503026316A31
:1016900030AEB5D03168B3D08DC5E6FF8EC5E6FF5C
:1016A0008FC5E6FF90C5E6FF89C5E6FF8AC5E6FF60
:1016B0008BC5E6FF8CC5E6FF7AEC02F02F6E080EB4
:1016C000E15E2F50090134AF30D035A300D1CCEC0E
:1016D00072F05A50050191250601736F5B500501A8
:1016E00092210601746F5C50050193210601756F0C
:1016F00087C52FF088C530F0640E3002F3CF30F08C
:101700002F02F3CF2FF0F4503026316A30BE31680B
:101710002FC0E6FF30C0E6FF31C0E6FFB1EC00F0BD
:10172000E552E552E552060EC6D088EC01F0CFD066
:1017300034A935D03651100B33E03651020B01E09D
:10174000010E2F6E3651040B01E0010E2F1428E11B
:101750000701EB5109013393E8B0338388EC01F0C2
:10176000090139B71DD0CCEC72F05AC02FF05BC024
:1017700030F05CC031F0326AF40E2F26010E3022B8
:10178000000E312232222FC067F630C068F631C019
:1017900069F6800EE66E9AEC78F0E55201D0368953
:1017A000D9C7E6FFDAC7E6FFDBC7E6FFDCC7E6FF1F
:1017B000D5C7E6FFD6C7E6FFD7C7E6FFD8C7E6FF1F
:1017C0007AEC02F02F6E080EE15E2F50090133AF64
:1017D00043D034AF21D085C5E6FFCBDAE55287C5CB
:1017E0002FF088C530F0640E3002F3CF30F02F02B6
:1017F000F3CF2FF0F4503026316A30BE31682FC05D
:10180000E6FF30C0E6FF31C0E6FFB1EC00F0E55284
:10181000E552E552050E4FD035A159D066C82FF0DC
:10182000306A2FBE3068640E3002F3CF30F02F02E2
:10183000F3CF2FF0F4503026316A30BE31682FC01C
:10184000E6FF30C0E6FF31C0E6FFB1EC00F0E55244
:10185000E552E552010E2FD035A139D0D5C7BCF7DE
:10186000D6C7BDF7D7C7BEF7D8C7BFF7D9C7C0F728
:10187000DAC7C1F7DBC7C2F7DCC7C3F766C82FF00A
:10188000306A2FBE3068640E3002F3CF30F02F0282
:10189000F3CF2FF0F4503026316A30BE31682FC0BC
:1018A000E6FF30C0E6FF31C0E6FFB1EC00F0E552E4
:1018B000E552E552020E756E0AD036AF03D082ECC7
:1018C00001F005D0060EE66E7AEC00F0E552090153
:1018D00037991200CCEC72F05A500601705D5B50E3
:1018E00071595C50725925E2090137A128D0080EC0
:1018F000E66E9AEC78F0E5520601736B746B756BCB
:10190000CCEC72F05AC02FF05BC030F05CC031F00C
:10191000326AE80E2F26030E3022000E31223222C8
:101920002FC06DF630C06EF631C06FF6756A766AFC
:101930001200E80E7027030E7123000E72231200AE
:10194000040E745C01E0FED07650040A01E1F9D087
:10195000040A01E1A5D0010A24E0030A06E0010A15
:1019600001E01200C5EC00F01AD0C5EC00F023C471
:101970002FF024C430F025C431F0326A31BE326811
:10198000D8903250000A08E62C0E2F5C010E305819
:10199000000E3158000E325802E2030E766EEDEF63
:1019A00000F0C5EC00F00901338166C82FF0306A01
:1019B0002FBE3068640E3002F3CF30F02F02F3CF29
:1019C0002FF0F4503026316A30BE31682FC0E6FF68
:1019D00030C0E6FF31C0E6FFB1EC00F0E552E55261
:1019E000E552CCEC72F05A500601735D5B507459AD
:1019F0005C50755953E209013387080EE66EA6EC78
:101A000078F0E552040EE66E9AEC78F0E552CCECF4
:101A100072F05AC02FF05BC030F05CC031F0326A17
:101A2000980E2F263A0E3022000E312232222FC07D
:101A300073F630C074F631C075F60F0146510F01D0
:101A40004419E8AE02D0443507D043510F01455D3B
:101A50000F0144510F0146591CE20F0143510F0180
:101A60003D5D0501836F0F0144510F013E59050192
:101A7000846F010E84AF02D0D89003D0835D000E36
:101A8000845903E2010E836F846B030E756E020EA0
:101A900056D0030E756E766E76EF00F06AEF0CF09E
:101AA000CCEC72F05A5006016D5D5B506E595C5083
:101AB0006F5947E20301E42B000EE523090133517E
:101AC000400B17E03751400B14E03751200B11E069
:101AD000CCEC72F05AC02FF05BC030F05CC031F03B
:101AE000326A880E2F26130E3022000E3122322247
:101AF00009D0CCEC72F05AC02FF05BC030F05CC063
:101B000031F0326A2FC073F630C074F631C075F60A
:101B1000CCEC72F05AC02FF05BC030F05CC031F0FA
:101B2000326AE80E2F26030E3022000E31223222B6
:101B30002FC070F630C071F631C072F6010E766EAD
:101B400012001200000E0F01436F446B0201C26FBE
:101B5000C36B6D6F6E6B186F196B1200CAEC5CF083
:101B60000501E66F020EE66E9AEC78F0E55205018B
:101B7000E651330A01E1ACD0010A5CE0030A04E05B
:101B8000010A01E0F0D0EAD0E86BE46BE56BD89095
:101B9000E55104E6000EE45D010EE55912E2CAECDF
:101BA0005CF00501E76FE850E81B000EE425E96EE4
:101BB000010EE521EA6EE7C5EFFFE42B000EE523F9
:101BC000E6D7E85130E1E46BE56BD890E55104E6E7
:101BD000000EE45D010EE55924E2000EE425E96EF5
:101BE000010EE521EA6EEF50E66EE4C52FF0E5C583
:101BF00030F0316A326A30AE02D031683268302A51
:101C0000000E312232222FC0E6FF30C0E6FF54EC36
:101C100075F0E552E552E5520501E42B000EE5238F
:101C2000D4D7060E01D0150EE66EA7EC5BF0E55298
:101C300070D999D0E86BE46BE56BFF0EE5AF02D08D
:101C4000D89003D0E45D000EE55926E2E4C52FF0FC
:101C5000E5C530F0316A326A30AE02D031683268A0
:101C6000302A000E312232222FC0E6FF30C0E6FFBC
:101C7000B7EC74F0E552E5520501E76FE850E81B58
:101C8000000EE425E96E010EE521EA6EE7C5EFFFDF
:101C9000E42B000EE523D1D7E8C5FFF1E46BE56B3B
:101CA000D890E55104E6000EE45D010EE55956E2D8
:101CB000000EE425E96E010EE521EA6EEF50E66EB6
:101CC000A7EC5BF0E5520501E42B000EE523E8D715
:101CD000E86BE46BE56B3F0EE5AF02D0D89003D024
:101CE000E45D000EE5591DE2800EE4252F6EFF0E27
:101CF000E521306E2FC0E6FFE66EB7EC74F0E552DA
:101D0000E5520501E76FE850E81B000EE425E96E97
:101D1000010EE521EA6EE7C5EFFFE42B000EE52397
:101D2000DAD7E8C53FF1E46BE56B400EE5AF02D0D2
:101D3000D89003D0E45D000EE55910E2000EE425D2
:101D4000E96E010EE521EA6EEF50E66EA7EC5BF05E
:101D5000E5520501E42B000EE523E7D7060EE66EFB
:101D6000A7EC5BF0E552020EE66EA6EC78F0E552C9
:101D70001200D9CFE6FFE1CFD9FFFE0EDBCF2FF067
:101D800005018651E76E2F18E8AE02D02F3403D03C
:101D9000E750D8802F5403E2FE0EDB6A856BFE0EFF
:101DA000DB501BE1BCC789F5BDC78AF5BEC78BF503
:101DB000BFC78CF5C0C78DF5C1C78EF5C2C78FF5FB
:101DC000C3C790F566C887F5886B87BF8869300EF2
:101DD000916F750E926F936B95D0FE0EDB040B0D19
:101DE000F3CF2FF0306A316A326A2FAE03D03068F9
:101DF00031683268180E2F26010E3022000E312273
:101E000032222FC0E9F530C0EAF52FC0E6FF30C01E
:101E1000E6FFFBEC74F0E552E55259C089F55AC073
:101E20008AF55BC08BF55CC08CF5040E0501306A49
:101E3000E9252F6EEA5130222FC0E6FF30C0E6FFC1
:101E4000FBEC74F0E552E55259C08DF55AC08EF5A1
:101E50005BC08FF55CC090F5080E0501306AE9257E
:101E60002F6EEA5130222FC0E6FF30C0E6FFD0ECE3
:101E700074F0E552E552F3CF87F5F4CF88F5F3CF50
:101E80002FF0F4CF30F0316A326A30AE02D03168D0
:101E900032683234000E321809E6D880780E2F549A
:101EA000000E3054000E3154000E325404E2780E0D
:101EB0000501876F886B0A0E0501306AE9252F6ED0
:101EC000EA5130222FC0E6FF30C0E6FFB7EC74F0D5
:101ED000E552E552596E5A6A59BE5A685B6A5C6AA5
:101EE0005AAE02D05B685C68E80E5E6E030E5F6EF1
:101EF000606A616A18EC7AF055C091F556C092F5A7
:101F000057C093F5090135933595E552E7CFD9FFD1
:101F10001200000E0501946F956B0701D96FDA6B03
:101F2000DB6BDC6BDAAF02D0DB69DC69D9C7D5F7D4
:101F3000DAC7D6F7DBC7D7F7DCC7D8F70501EB6BF5
:101F4000EB5101082AE3EB51EA6A870FE96E0A0EAA
:101F5000EA22010EEF6EEB51550DF3CFE9FFF4CFFE
:101F6000EAFF000EE926020EEA22470EE926000EDD
:101F7000EA22EE6AED6AEB51550DF3CFE9FFF4CF9B
:101F8000EAFF000EE926020EEA22450EE926000EBF
:101F9000EA22EE6AED6AEB2BD3D70201EF6BF06B0E
:101FA000756A04011E6B1F6B04011C6B1D6B09011C
:101FB000359535933897050EE66EE66AE66AE66A69
:101FC00082EC1AF0E552E552E552E55259C096F519
:101FD0005AC097F51E0E05019A6F9B6B090EE66EAF
:101FE000010EE66EB7EC74F0E552E5520501866F1E
:101FF000000EE76E8619E8AE02D0863503D0E750B2
:10200000D880865502E3856B02D0010E856FE66AA3
:06201000B0DEE5521200F3
:0A20160004012351205D3D6F2451A9
:1020200021593E6F255122593F6F37C432F038C4D1
:1020300033F0346A33BE34683F513418E8AE02D00E
:10204000343406D032503D5D33503E5934503F5900
:1020500009E237C42FF038C430F0316A30AE19D0FD
:10206000316817D03F35000E3F1907E6D880640E5F
:102070003D55000E3E55000E3F5505E2640E2F6E95
:10208000306A316A06D03DC42FF03EC430F03FC400
:1020900031F02FC046F430C047F433512F5C406F0D
:1020A00034513058416F4EC82FF0306A2FBE30681F
:1020B0002F504003F3CF42F4F4CF43F44103F350E5
:1020C000432730504003F350432761C82FF0306A54
:1020D0002FBE306840C45BF041C45CF02FC060F09C
:1020E00030C061F083EC76F05950040135275A5026
:1020F000362376C82FF0306A2FBE30682F6C301E22
:10210000000E302236513018E8AE02D0303404D000
:102110002F50355D305036590AE276C835F4366BAB
:1021200035BF3669356D361F000E362319D076C897
:1021300031F0326A31BE326832503619E8AE02D020
:10214000363504D03551315C3651325807E276C805
:1021500035F4366B35AF04D0366902D036C436F468
:1021600035C444F436C445F4060EE66E42514425A7
:102170002F6E43514521306E2FC0E6FFE66E42ECD4
:102180004DF0E552E552E552F3CF48F4F4CF49F46F
:10219000F3CF33F0F4CF34F0356A366A34AE02D080
:1021A00035683668D8803650FF0A08E6B00E335CD2
:1021B000FF0E3458FF0E3558FF0E365804E2B00EAD
:1021C0002F6E306820D048C437F049C438F0396ADF
:1021D0003A6A38AE02D039683A683A34000E3A1892
:1021E00009E6D880500E3754000E3854000E39548A
:1021F000000E3A5404E2500E2F6E306A04D048C4E8
:102200002FF049C430F02FC02BF430C02CF4120052
:1022100077502CE009013951800B03E13351010B58
:1022200025E0E9EC43F0090139A529D0776AF9ECFA
:1022300076F0E3EC4CF0090135AF0DD0BCCA23F4C5
:10224000BDCA24F40401256B24BF256931C433F4CD
:1022500032C434F414D020C623F421C624F422C698
:1022600025F42DC433F42EC434F409D0000E040137
:10227000336F346B236F246B256B24BF25690901F1
:1022800033A1E4D039A500D1776A3651800B05E13E
:10229000755006E03651010B03E0348DBCDED3D01F
:1022A00034AB26D0349D23C4E6FF24C4E6FF25C406
:1022B000E6FFB1EC00F0E552E552E5520401800E74
:1022C0002C1507E0010E2B252B6F000E2C212C6FF7
:1022D000BAD02C350AE22B510008000E2C5505E22D
:1022E000010E2B5F000E2C5BAED02B6B2C6BABD09A
:1022F000348D91DE0F01435104012B254A6F0F01EC
:10230000445104012C214B6F33C42FF034C430F0FE
:10231000316A326A30AE02D0316832682FC0E6FFCF
:1023200030C0E6FF31C0E6FF32C0E6FF9DEC28F08A
:10233000E552E552E552E552D8905C50000A08E6B5
:10234000320E595C000E5A58000E5B58000E5C5855
:1023500001E379D04AC433F04BC434F0356A366AAD
:1023600034AE02D0356836683634000E361809E6C9
:10237000D880480E3354000E3454000E3554000EED
:10238000365461E2030EE66E070E5B6E5C6A3FCF69
:1023900060F040CF61F083EC76F0595004014A259B
:1023A0002F6E5A504B21306E2FC0E6FFE66E42EC86
:1023B0004DF0E552E552E552F3CF3FFFF4CF40FF39
:1023C000F3CF33F0F4CF34F0356A366A34AE02D04E
:1023D00035683668D8903650000A08E6480E335CF7
:1023E000000E3458000E3558000E365802E2480EE2
:1023F00019D03FCF37F040CF38F0396A3A6A38AE5B
:1024000002D039683A683A34000E3A1809E6D880A2
:10241000900E3754000E3854000E3954000E3A54C2
:1024200004E2900E2F6E306A04D03FCF2FF040CFE1
:1024300030F0316A326A2FC03FFF30C040FF2FC0FA
:102440003DFF30C03EFF0901399512003995040166
:10245000356B366B800E2C1507E0010E2B252B6F8C
:10246000000E2C212C6F0ED02C350AE22B510008C7
:10247000000E2C5505E2010E2B5F000E2C5B02D0E6
:102480002B6B2C6B0901349D1200ECC7E9FFEA6A43
:10249000E9BEEA68D890E936EA36000EE926030E6E
:1024A000EA22EECF0AF4EFCF0BF404010C6B0BBF62
:1024B0000C69ECC7E9FFEA6AE9BEEA68D890E93638
:1024C000EA36600EE926030EEA22EECF0DF4EFCFD6
:1024D0000EF40F6B0EBF0F69090136BD08D0000E58
:1024E0000201EF6FF06B9A6F9B6B456F466B6DC28D
:1024F00032F06EC233F0326C331E000E3322346A77
:1025000033BE346832C05AF033C05BF034C05CF084
:102510000AC45FF00BC460F00CC461F0B0EC76F05C
:1025200057C02FF058C030F059C031F018C235F004
:1025300019C236F0376A36BE376835C05AF036C031
:102540005BF037C05CF00DC45FF00EC460F00FC4E8
:1025500061F0B0EC76F02F50572404014C6F3050EE
:1025600058204D6F315059204E6F4DC443F2E8CF83
:1025700044F26DC232F06EC233F0346A33BE346856
:1025800032C05AF033C05BF034C05CF00DC45FF071
:102590000EC460F00FC461F0B0EC76F057C02FF0BD
:1025A00058C030F059C031F018C235F019C236F0B9
:1025B000376A36BE376835C05AF036C05BF037C070
:1025C0005CF00AC45FF00BC460F00CC461F0B0ECC6
:1025D00076F02F50572404014C6F305058204D6F27
:1025E000315059204E6F4DC498F2E8CF99F2120045
:1025F0000401396B010E3A6F3B6B3C6B090136519C
:10260000400B07E03651400B01E10DD1755001E060
:102610000AD13951800B01E09CD0000E0801E76E11
:102620006519E8AE02D0653503D0E750D88065550E
:1026300001E38FD01CC42FF01DC430F0316A326A20
:1026400030AE02D031683268080E2F5E000E305A6C
:10265000315A325A2FC04FF430C050F4336A080E4A
:10266000346E356A366A65C83BF03C6A3BBE3C68EE
:1026700004013B504F03F3CF37F0F4CF38F0500351
:10268000F350000138263C5004014F03F350000181
:102690003826396A3A6A38AE02D039683A68375013
:1026A000335C2F6E38503458306E39503558316E97
:1026B0003A503658326E39C459F03AC45AF03BC4D5
:1026C0005BF03CC45CF02FC05EF030C05FF031C006
:1026D00060F0616E18EC7AF055C039F456C03AF4E7
:1026E00057C03BF458C03CF40B0EE66E55C0E6FFF5
:1026F00056C0E6FF57C0E6FF58C0E6FF92EC4DF02B
:102700002F6E050EE15E2F5059C039F45AC03AF4CD
:102710005BC03BF45CC03CF40401800E5C1403E03D
:10272000396B3A6B11D03C35000E3C1909E6D88064
:10273000000E3955010E3A55000E3B55000E3C5522
:1027400006E2396B010E3A6F3B6B3C6B02D03CC426
:102750003CF4000E0801E76E6419E8AE02D064355F
:1027600003D0E750D88064555EE20F013D510F0160
:10277000435D0401516F0F013E510F0144590401A3
:10278000526F64C833F0346A33BE34683350510337
:10279000F3CF2FF0F4CF30F05203F3500001302686
:1027A000345004015103F35000013026316A326A7B
:1027B00030AE02D031683268080E3026000E312269
:1027C000322239C459F03AC45AF03BC45BF03CC4DD
:1027D0005CF02FC05EF030C05FF031C060F032C0FE
:1027E00061F018EC7AF055C039F456C03AF457C08D
:1027F0003BF458C03CF40B0EE66E55C0E6FF56C0E5
:10280000E6FF57C0E6FF58C0E6FF92EC4DF02F6E92
:10281000050EE15E2F5059C039F45AC03AF45BC03E
:102820003BF45CC03CF41200D9CFE6FFE1CFD9FF06
:10283000050EE66EFD0EDBCFE9FFFE0EDBCFEAFFF5
:10284000040EE926000EEA22EECF3BF0EECF3CF07C
:10285000EECF3DF0EFCF3EF0FD0EDBCFE9FFFE0EF9
:10286000DBCFEAFF2A0EE926000EEA22EECF37F090
:10287000EFCF38F0396A3A6A38AE02D039683A6830
:1028800037C059F038C05AF039C05BF03AC05CF03C
:102890003BC05EF03CC05FF03DC060F03EC061F008
:1028A00018EC7AF055C033F056C034F057C035F00C
:1028B00058C036F0FD0EDBCFE9FFFE0EDBCFEAFF9E
:1028C0000C0EE926000EEA22EECF45F0EECF46F0E0
:1028D000EECF47F0EFCF48F0FD0EDBCFE9FFFE0E65
:1028E000DBCFEAFF2A0EE926000EEA22EECF43F004
:1028F000EFCF44F0FD0EDBCFE9FFFE0EDBCFEAFFAA
:102900002C0EE926000EEA22EE50435C3F6EEE509C
:102910004458406E416A426A40AE02D04168426803
:102920003FC059F040C05AF041C05BF042C05CF07B
:1029300045C05EF046C05FF047C060F048C061F03F
:1029400018EC7AF05550335C2F6E56503458306E78
:1029500057503558316E58503658326E2FC0E6FFFA
:1029600030C0E6FF31C0E6FFE66E92EC4DF0496EF6
:10297000050EE15E495059C05AF45AC05BF45BC081
:102980005CF45CC05DF4090EE66EFD0EDBCFE9FF82
:10299000FE0EDBCFEAFF080EE926000EEA22EECF9C
:1029A00037F0EECF38F0EECF39F0EFCF3AF0FD0E42
:1029B000DBCFE9FFFE0EDBCFEAFF240EE926000E97
:1029C000EA22EECF33F0EFCF34F0356A366A34AE18
:1029D00002D03568366833C059F034C05AF035C07B
:1029E0005BF036C05CF037C05EF038C05FF039C0D5
:1029F00060F03AC061F018EC7AF055C02FF056C084
:102A000030F057C031F058C032F055C0E6FF56C024
:102A1000E6FF57C0E6FF58C0E6FF92EC4DF03B6E74
:102A2000050EE15E3B5059C056F45AC057F45BC0E6
:102A300058F45CC059F4FD0EDBCFE9FFFE0EDBCF8E
:102A4000EAFFEECF33F0EFCF34F0336C341E000EDC
:102A50003422356A366A34AE02D0356836680401ED
:102A600059513618E8AE02D0363408D03350565D8E
:102A700034505759355058593650595913E2FD0EB4
:102A8000DBCFE9FFFE0EDBCFEAFFEECF2FF0EFCF7B
:102A900030F02F6C301E000E3022316A326A30AEB8
:102AA00039D02DD0FD0EDBCFE9FFFE0EDBCFEAFFE4
:102AB000EECF37F0EFCF38F0396A3A6A38AE02D04D
:102AC00039683A683A505919E8AE02D0593508D0F9
:102AD0005651375C575138585851395859513A580E
:102AE00011E2FD0EDBCFE9FFFE0EDBCFEAFFEECFFA
:102AF0002FF0EFCF30F0316A326A30AE0BD0316850
:102B0000326808D056C42FF057C430F058C431F0A2
:102B100059C432F02F505A2730505B2331505C2378
:102B200032505D235AC459F05BC45AF05CC45BF068
:102B30005DC45CF039C45EF03AC45FF03BC460F041
:102B40003CC461F018EC7AF055C053F456C054F40C
:102B500057C055F456C05AF457C05BF404015C6B7F
:102B60005D6B5BAF02D05C695D69FD0EDBCFE9FF99
:102B7000FE0EDBCFEAFF430EE926000EEA22EECF7F
:102B800033F0EFCF34F0356A366A34AE02D03568B0
:102B900036685A5133242F6E5B513420306E5C51AD
:102BA0003520316E5D513620326E000E2F6C301E96
:102BB0003022311E3122321E3222FD0EDBCFE9FFE0
:102BC000FE0EDBCFEAFF510EE926000EEA222FC0EF
:102BD000EEFF30C0EDFFFD0EDBCFE9FFFE0EDBCFD9
:102BE000EAFF2A0EE926000EEA22EECF2FF0EFCF01
:102BF00030F0FD0EDBCFE9FFFE0EDBCFEAFF2C0E3F
:102C0000E926000EEA222FC0EEFF30C0EDFFE552AC
:102C1000E7CFD9FF1200D9CFE6FFE1CFD9FFFD0EF4
:102C2000DBCFE9FFFE0EDBCFEAFF260EE926000E22
:102C3000EA22EECF6EF4EFCF6FF40401706B716B8C
:102C40006FAF02D070697169FD0EDBCFE9FFFE0E38
:102C5000DBCFEAFF280EE926000EEA22EECF72F45F
:102C6000EFCF73F4746B756B73AF02D074697569D1
:102C7000FD0EDBCFE9FFFE0EDBCFEAFF240EE926D7
:102C8000000EEA22EECF2FF0EFCF30F0316A326A39
:102C900030AE02D031683268FD0EDBCFE9FFFE0EA8
:102CA000DBCFEAFF430EE926000EEA22EECF59F011
:102CB000EFCF5AF05B6A5C6A5AAE02D05B685C6820
:102CC000300E5E6E5F6A606A616A18EC7AF000012D
:102CD0002F50555C04016A6F0001305056580401B2
:102CE0006B6F00013150575804016C6F0001325076
:102CF000585804016D6FD880E850FF0A08E6940E1A
:102D00006A5DE40E6B59FF0E6C59FF0E6D5907E2B8
:102D1000940E6A6FE40E6B6F6C696D6917D06D3538
:102D2000000E6D1909E6D8806C0E6A551B0E6B55A6
:102D3000000E6C55000E6D5507E26C0E6A6F1B0E8F
:102D40006B6F6C6B6D6B02D06DC46DF40A0EE66E2A
:102D5000FD0EDBCFE9FFFE0EDBCFEAFF040EE92616
:102D6000000EEA22EECF33F0EECF34F0EECF35F0A6
:102D7000EFCF36F06AC459F06BC45AF06CC45BF004
:102D80006DC45CF033C05EF034C05FF035C060F0FD
:102D900036C061F018EC7AF055C02FF056C030F014
:102DA00057C031F058C032F055C0E6FF56C0E6FFBC
:102DB00057C0E6FF58C0E6FF92EC4DF0376E050EA7
:102DC000E15E375059C05EF45AC05FF45BC060F4F6
:102DD0005CC061F4000E04015E6D5F1F5F23601F25
:102DE0006023611F6123080EE66EFD0EDBCFE9FF55
:102DF000FE0EDBCFEAFF0C0EE926000EEA22EECF34
:102E000037F0EECF38F0EECF39F0EFCF3AF06E0E6C
:102E1000E96E040EEA6EEE506A5D336EEE506B5949
:102E2000346EEE506C59356EEE506D59366E33C0BF
:102E300059F034C05AF035C05BF05C6E37C05EF0BC
:102E400038C05FF039C060F03AC061F018EC7AF039
:102E500055C02FF056C030F057C031F058C032F096
:102E600055C0E6FF56C0E6FF57C0E6FF58C0E6FF74
:102E700092EC4DF03B6E050EE15E3B5059C062F4A2
:102E80005AC063F45BC064F45CC065F4620EE96E22
:102E9000040EEA6E04015E51EE24666F5F51EE206F
:102EA000676F6051EE20686F6151EE20696FFD0E13
:102EB000DBCFE9FFFE0EDBCFEAFF2A0EE926000E8C
:102EC000EA22EECF2FF0EFCF30F0316A326A30AE27
:102ED00002D031683268660EE96E040EEA6E2F5039
:102EE000EE5C766F3050EE58776F3150EE58786F59
:102EF0003250EE58796F050EE66EFD0EDBCFE9FF1E
:102F0000FE0EDBCFEAFF100EE926000EEA22EECF1E
:102F100035F0EECF36F0EECF37F0EFCF38F076C4A5
:102F200059F077C45AF078C45BF079C45CF035C0CE
:102F30005EF036C05FF037C060F038C061F018EC6A
:102F40007AF055C031F056C032F057C033F058C057
:102F500034F055C0E6FF56C0E6FF57C0E6FF58C044
:102F6000E6FF92EC4DF0396E050EE15E39505AC025
:102F700030F0FD0EDBCFE9FFFE0EDBCFEAFF510E96
:102F8000E926000EEA2259C0EEFF30C0EDFFFD0E2B
:102F9000DBCFE9FFFE0EDBCFEAFF260EE926000EAF
:102FA000EA226AC4EEFF6BC4EDFFFD0EDBCFE9FF42
:102FB000FE0EDBCFEAFF280EE926000EEA2272C4DD
:102FC000EEFF73C4EDFFE552E7CFD9FF1200D4C284
:102FD000E6FFD5C2E6FF5C0EE66E070EE66EF6EC87
:102FE00028F0E552E552E552E552F3CF7CF4F4CFF8
:102FF0007DF4040EE66EAEC236F0AFC237F0386A2A
:1030000037BE38687CC433F07DC434F0356A34BED2
:10301000356833C05AF034C05BF035C05CF036C060
:103020005FF037C060F038C061F0B0EC76F057C0A8
:103030002FF058C030F059C031F0326A31BE3268DA
:103040002FC0E6FF30C0E6FF31C0E6FF32C0E6FF2A
:1030500092EC4DF0396E050EE15E395059C07EF4A8
:103060005AC07FF45BC080F4010EE66EE66AE66A41
:10307000E66A59C02FF05AC030F05BC031F0326AB6
:1030800031BE32682FC0E6FF30C0E6FF31C0E6FF38
:1030900032C0E6FFFDC233F0FEC234F0356A366A54
:1030A00034AE02D03568366833C0E6FF34C0E6FF80
:1030B00035C0E6FF36C0E6FF04EC28F0376E0C0E94
:1030C000E15E375059C07EF45AC07FF45BC080F493
:1030D00059C0FDF25AC0FEF253C832F0336A32BE14
:1030E0003368326C331E000E3322346A33BE3468C8
:1030F000040180513418E8AE02D0343406D0325086
:103100007E5D33507F59345080590DE253C82FF003
:10311000306A2FBE30682F6C301E000E3022316AAC
:1031200030AE26D01DD053C835F0366A35BE36686D
:10313000376A36BE376837508019E8AE02D080351E
:1031400006D07E51355C7F513658805137580AE29F
:1031500053C82FF0306A2FBE3068316A30AE08D0C5
:10316000316806D07EC42FF07FC430F080C431F0C7
:103170002FC0FBF230C0FCF20201C251EF25040166
:103180007A6F0201C351F02104017B6F7AC42FF0E2
:10319000306E316A326A30AE02D0316832682FC088
:1031A000E6FF30C0E6FF31C0E6FF32C0E6FF9DEC2F
:1031B00028F0E552E552E552E5525C34000E5C1809
:1031C00009E6D880050E5954000E5A54000E5B547F
:1031D000000E5C5408E204017A510201FB5F040115
:1031E0007B510201FC5B120059EC6DF045EC12F0D2
:1031F000F8EC12F00401816B8151010836E3815132
:10320000550DF3CF82F4F4CF83F4000E8227020E23
:10321000832382C4E9FF83C4EAFF450EE926000E3A
:10322000EA22EECF2FF0EFCF30F082C4E9FF83C463
:10323000EAFF430EE926000EEA222F50EE26305018
:10324000ED22090138A106D082C4E6FF83C4E6FF5F
:10325000E2DC06D082C4E6FF83C4E6FF14EC14F07F
:10326000E552E5520401812BC7D7B1DE79C23BF0AC
:103270007AC23CF03D6A3E6A3CAE02D03D683E6890
:103280003BC0E6FF3CC0E6FF3DC0E6FF3EC0E6FFB8
:103290009DEC28F0E552E552E552E55259C037F071
:1032A0005AC038F05BC039F05CC03AF059C0E6FF54
:1032B0005AC0E6FF5BC0E6FF5CC0E6FF24C233F005
:1032C00025C234F0356A366A34AE02D035683668C5
:1032D00033C0E6FF34C0E6FF35C0E6FF36C0E6FF88
:1032E0009DEC28F0E552E552E552E552E552E7CF74
:1032F0003AF0E552E7CF39F0E552E7CF38F0E55242
:10330000E7CF37F05C503A18E8AE02D03A3408D034
:103310003750595C38505A5839505B583A505C58BD
:1033200013E279C23FF07AC240F0416A426A40AE8D
:1033300002D0416842683FC0E6FF40C0E6FF41C09E
:10334000E6FF42C0E6FF12D024C243F025C244F09B
:10335000456A466A44AE02D04568466843C0E6FF07
:1033600044C0E6FF45C0E6FF46C0E6FF9DEC28F0FE
:10337000E552E552E552E55259C02FF05AC030F0FF
:103380005BC031F05CC032F0D8905C50000A08E6B7
:10339000E80E2F5C030E3058000E3158000E3258E4
:1033A00002E3000E01D0010E09013399E8B0338920
:1033B00051C267F052C268F0A6C269F0A7C26AF0B3
:1033C000FBC26BF0FCC26CF00EEF3CF0000E04018F
:1033D000356F366B2B6F2C6B086F096B186B196B85
:1033E000846B8451020834E38451550DF3CF85F486
:1033F000F4CF86F4000E8527020E862385C4E9FFEC
:1034000086C4EAFF300EE926000EEA22EE6AED6A73
:1034100085C4E9FF86C4EAFF2C0EE926000EEA22E5
:10342000EE6AED6A85C4E9FF86C4EAFF2E0EE9263E
:10343000000EEA22EE6AED6A85C4E9FF86C4EAFF5F
:10344000530EE926000EEA22EE6AED6A842BC9D7F4
:02345000120068
:0E345200D9CFE6FFE1CFD9FFFB0EDBCF59F05B
:10346000FC0EDBCF5AF0FD0EDBCF5BF0FE0EDBCFA8
:103470005CF03F0E5E6E070E5F6E606A616A18EC6C
:103480007AF055C059F056C05AF057C05BF058C09A
:103490005CF0A00E5E6E860E5F6E010E606E616A5D
:1034A0004FEC76F0E552E7CFD9FF1200D9CFE6FF17
:1034B000E1CFD9FFFB0EDBCF59F0FC0EDBCF5AF08A
:1034C000FD0EDBCF5BF0FE0EDBCF5CF03F0E5E6EE1
:1034D000070E5F6E606A616A18EC7AF055C059F0A9
:1034E00056C05AF057C05BF058C05CF0100E5E6ECC
:1034F000270E5F6E606A616A4FEC76F0E552E7CFA7
:10350000D9FF1200D9CFE6FFE1CFD9FFFB0EDBCF09
:1035100059F0FC0EDBCF5AF0FD0EDBCF5BF0FE0E58
:10352000DBCF5CF0A00E5E6E860E5F6E010E606EED
:10353000616A18EC7AF055C059F056C05AF057C07D
:103540005BF058C05CF03F0E5E6E070E5F6E606A07
:10355000616A4FEC76F0E552E7CFD9FF1200D9CF80
:10356000E6FFE1CFD9FF0801CF6BD06BD16B0A0129
:10357000D05136E1FE0EDBCFCEF8FD0EDB50080158
:10358000D880CE552DE3CFC82FF0D0C830F0D1C8A9
:1035900031F00A0E5F6E606A616ACFC85AF0D0C817
:1035A0005BF0D1C85CF0B0EC76F00801CE51EA6A6D
:1035B000000FE96E070EEA22EFCF32F0336A346A69
:1035C00057503224CF6F58503320D06F5950342089
:1035D000D16F300ECF5F000ED05BD15BCE2BCDD73D
:1035E000CFC85AF0D0C85BF0D1C85CF0E552E7CF45
:1035F000D9FF1200D9CFE6FFE1CFD9FF0801DE6B7A
:10360000DF6BE06BE16B0A01D05101E0CBD0FE0E25
:10361000DB50040F0801E26FE251EA6A000FE96E25
:10362000070EEA22EF502E0802E0E22BF5D7030E38
:10363000E25DE66EFE0EDBCFE6FF91DFE552E5527E
:103640005AC0D2F85BC0D3F85CC0D4F80801D56B7F
:10365000D4BFD569E205E66E020EE25DE66E7FDF5D
:10366000E552E5525AC0D6F85BC0D7F85CC0D8F82E
:103670000801D96BD8BFD969FD0EDB50D880E2555F
:10368000040814E2050EE225E66EE229E66E67DF25
:10369000E552E5525AC0DAF85BC0DBF85CC0DCF8F2
:1036A0000801DD6BDCAF2BD0DD6929D0040EE225EB
:1036B000E66EE229E66E53DFE552E5525AC0DAF8CB
:1036C0005BC0DBF85CC0DCF80801DD6BDCBFDD69EA
:1036D0000A0E5E6E5F6A606A616ADAC859F0DBC81A
:1036E0005AF0DCC85BF0DDC85CF018EC7AF055C02D
:1036F000DAF856C0DBF857C0DCF858C0DDF8D2C89D
:103700002FF0D3C830F0D4C831F0D5C832F0800ED5
:103710005E6E8D0E5F6E5B0E606E616AD2C859F090
:10372000D3C85AF0D4C85BF0D5C85CF018EC7AF076
:1037300055C02FF056C030F057C031F058C032F0AD
:10374000D6C833F0D7C834F0D8C835F0D9C836F069
:10375000A00E5E6E860E5F6E010E606E616AD6C848
:1037600059F0D7C85AF0D8C85BF0D9C85CF018EC4B
:103770007AF055502F26565030225750312258504B
:103780003222DA0EE96E080EEA6E2F50EE2408019E
:10379000DE6F3050EE20DF6F3150EE20E06F3250A0
:1037A000EE20E16FDEC859F0DFC85AF0E0C85BF0E8
:1037B000E1C85CF0E552E7CFD9FF1200D9CFE6FFB0
:1037C000E1CFD9FF0801E36BE46BE56BE66B0A011F
:1037D000D05101E09AD0FE0EDB28E66EFE0EDBCF64
:1037E000E6FFBDDEE552E5525AC02FF05BC030F077
:1037F0005CC031F0326A31BE3268100E5E6E0E0E61
:103800005F6E606A616A2FC059F030C05AF031C0F3
:103810005BF032C05CF018EC7AF055C02FF056C067
:1038200030F057C031F058C032F055C0E6FF56C0F6
:10383000E6FF57C0E6FF58C0E6FFFE0EDB50030F61
:10384000E66EFE0EDB50020FE66E89DEE552E552B3
:10385000E552E7CF32F0E552E7CF31F0E552E7CF5E
:1038600030F0E552E7CF2FF05AC033F05BC034F0B0
:103870005CC035F03C0E5F6E606A616AB0EC76F059
:1038800057C033F058C034F059C035F0366A35BEF1
:10389000366833502F26345030223550312236507E
:1038A00032222FC0E6FF30C0E6FF31C0E6FF32C053
:1038B000E6FFFD0EDBCFE6FFFE0EDB50040FE66EEB
:1038C0004EDEE552E552E552E7CF32F0E552E7CF62
:1038D00031F0E552E7CF30F0E552E7CF2FF05AC094
:1038E00037F05BC038F05CC039F03A6A39BE3A68EC
:1038F0002F5037240801E36F30503820E46F3150E7
:103900003920E56F32503A20E66FE3C859F0E4C839
:103910005AF0E5C85BF0E6C85CF0E552E7CFD9FFA6
:103920001200CDCACEFA0A01CD51EA6A000FE96E43
:10393000070EEA22EFCFE7F82C0E0801E75D09E059
:103940002A0EE75D06E00A01CC51CD5D02E2CD2BE7
:10395000EBD70A01CD05CF6FCD2BCE51CF5D02E362
:10396000000E01D0010ED06F1200DBDFDADFCFCA0C
:10397000E6FFCECAE6FF22DFE552E55259C0A0F7C6
:103980005AC0A1F75BC0A2F75CC0A3F7CADFCFCAD9
:10399000E6FFCECAE6FF2EDEE552E55259C0A8F793
:1039A0005AC0A9F75BC0AAF75CC0ABF7BADF0A013F
:1039B000CE51EA6A000FE96E070EEA22EF50530873
:1039C00009E1000E0701A86DA91FA923AA1FAA23B8
:1039D000AB1FAB23A6DFCFCAE6FFCECAE6FF0ADEE7
:1039E000E552E55259C0ACF75AC0ADF75BC0AEF72F
:1039F0005CC0AFF796DF0A01CE51EA6A000FE96EAC
:103A0000070EEA22EF50570809E1000E0701AC6DDE
:103A1000AD1FAD23AE1FAE23AF1FAF2382DFCFCAD2
:103A2000E6FFCECAE6FF9BDDE552E5525AC0E6F757
:103A300078DFCFCAE6FFCECAE6FF91DDE552E55258
:103A40005AC0E5F76EDF030E0A01CF5DE66ECECAFF
:103A5000E6FF85DDE552E5525AC032F05BC033F037
:103A60005CC034F0640E5F6E606A616AB0EC76F040
:103A700057C032F058C033F059C034F057C0E6FF99
:103A800058C0E6FF59C0E6FFCFCAE6FF0A01CF05DE
:103A9000E66E65DDE552E552E552E7CF34F0E552DA
:103AA000E7CF33F0E552E7CF32F032505A242F6E91
:103AB00033505B20306E34505C20316E2FC0E7F7FE
:103AC00030C0E8F72EDF020E0A01CF5DE66ECECAE7
:103AD000E6FF45DDE552E5525AC02FF05BC030F0FD
:103AE0005CC031F0326A31BE32680A0E5E6E5F6AC7
:103AF000606A616A2FC059F030C05AF031C05BF083
:103B000032C05CF018EC7AF055C02FF056C030F09F
:103B100057C031F058C032F055C0E6FF56C0E6FF3E
:103B200057C0E6FF58C0E6FFCFCAE6FFCFCAE6FFA0
:103B300016DDE552E552E552E7CF32F0E552E7CF28
:103B400031F0E552E7CF30F0E552E7CF2FF05AC021
:103B500033F05BC034F05CC035F00A0E5F6E606A13
:103B6000616AB0EC76F057C033F058C034F059C0F9
:103B700035F0366A35BE366833502F263450302241
:103B800035503122365032222FC0C4F730C0C5F72D
:103B900031C0C6F7010E0701E65D03E3060EE55DE1
:103BA00002E2000E01D0010E0901339DE8B0338D11
:103BB000040E745C63E10301DD510701E819E8AE0E
:103BC00002D0E83507D0E7510301DC5D0701E85179
:103BD0000301DD5905E2E7C7DCF3E8C7DDF314D0E4
:103BE0000701E8510301DB19E8AE02D0DB3507D04D
:103BF000DA510701E75D0301DB510701E85904E2EF
:103C0000E7C7DAF3E8C7DBF30701E5512F6E306A47
:103C10000301D7513018E8AE02D0303404D02F5011
:103C2000D65D3050D75906E20701E5510301D66F42
:103C3000D76B15D00701E5512F6E306A0301305064
:103C4000C719E8AE02D0C73504D0C6512F5CC751A2
:103C5000305805E20701E5510301C66FC76B070144
:103C6000E83504E2E7519608000EE85502E3000E3D
:103C700001D0010E09013497E8B03487120051DEFB
:103C800050DE4FDE0A01CE51EA6A000FE96E070EE0
:103C9000EA22EF50410801E02CD10901338D41DEC9
:103CA000CFCAE6FFCECAE6FFA5DCE552E55259C011
:103CB000A8F75AC0A9F75BC0AAF75CC0ABF731DE22
:103CC0000A01CE51EA6A000FE96E070EEA22EF50B0
:103CD000530809E1000E0701A86DA91FA923AA1F17
:103CE000AA23AB1FAB231DDECFCAE6FFCECAE6FF79
:103CF00081DCE552E55259C0ACF75AC0ADF75BC064
:103D0000AEF75CC0AFF70DDE0A01CE51EA6A000FD4
:103D1000E96E070EEA22EF50570809E1000E07018D
:103D2000AC6DAD1FAD23AE1FAE23AF1FAF23F9DDCA
:103D3000CFCAE6FF0A01CF05E66E11DCE552E55277
:103D40005AC02FF05BC030F05CC031F0326A31BE37
:103D500032682FC0E6FF30C0E6FF31C0E6FF32C058
:103D6000E6FF030E0A01CF5DE66ECECAE6FFAFECBA
:103D70001AF0E552E552E552E7CF32F0E552E7CFCF
:103D800031F0E552E7CF30F0E552E7CF2FF05AC0DF
:103D900059F05BC05AF05CC05BF05C6A5BBE5C686B
:103DA000640E5E6E5F6A606A616A18EC7AF0555064
:103DB00000012F240801E86F56500001302008014F
:103DC000E96F5750000131200801EA6F5850000197
:103DD00032200801EB6F0D0E5E6E5F6A606A616AE9
:103DE000E8C859F0E9C85AF0EAC85BF0EBC85CF0E3
:103DF00018EC7AF055C0E8F856C0E9F857C0EAF870
:103E000058C0EBF856C0E1F757C0E2F78ADDCFCAD9
:103E1000E6FF0A01CF05E66EAFEC1AF0E552E55277
:103E20005AC02FF05BC030F05CC031F0326A31BE56
:103E300032682FC0E6FF30C0E6FF31C0E6FF32C077
:103E4000E6FF030E0A01CF5DE66ECECAE6FFAFECD9
:103E50001AF0E552E552E552E7CF32F0E552E7CFEE
:103E600031F0E552E7CF30F0E552E7CF2FF05AC0FE
:103E700059F05BC05AF05CC05BF05C6A5BBE5C688A
:103E8000640E5E6E5F6A606A616A18EC7AF0555083
:103E900000012F240801E86F56500001302008016E
:103EA000E96F5750000131200801EA6F58500001B6
:103EB00032200801EB6F2D0E5E6E5F6A606A616AE8
:103EC000E8C859F0E9C85AF0EAC85BF0EBC85CF002
:103ED00018EC7AF055C0E8F856C0E9F857C0EAF88F
:103EE00058C0EBF856C0DFF757C0E0F70901398D2D
:103EF00012000901399D1200D1CA2FF0D2CA30F048
:103F0000316A326A30AE02D0316832681E0E2F1824
:103F100001E02DD1305001E02AD1315001E027D10C
:103F2000325001E024D109013351400B01E11FD18E
:103F3000A0C7A4F7A1C7A5F7A2C7A6F7A3C7A7F76D
:103F4000A8C7B0F7A9C7B1F7AAC7B2F7ABC7B3F70D
:103F5000A8C7D5F7A9C7D6F7AAC7D7F7ABC7D8F769
:103F6000A8C7CDF7A9C7CEF7AAC7CFF7ABC7D0F779
:103F7000A8C7BCF7A9C7BDF7AAC7BEF7ABC7BFF7AD
:103F8000ACC7B4F7ADC7B5F7AEC7B6F7AFC7B7F7AD
:103F9000ACC7D9F7ADC7DAF7AEC7DBF7AFC7DCF709
:103FA000ACC7D1F7ADC7D2F7AEC7D3F7AFC7D4F719
:103FB000ACC7C0F7ADC7C1F7AEC7C2F7AFC7C3F74D
:103FC0000701E16BE26BCCEC72F05AC07CF65BC08F
:103FD0007DF65CC07EF6A8C7ECF8A9C7EDF8AAC7C5
:103FE000EEF8ABC7EFF8C00E5E6E270E5F6E090EDF
:103FF000606E616AA8C759F0A9C75AF0AAC75BF0FA
:10400000ABC75CF04FEC76F059C0ECF85AC0EDF855
:104010005BC0EEF85CC0EFF859C0E6FF5AC0E6FF9F
:104020005BC0E6FF5CC0E6FF9DEC28F0E552E55280
:10403000E552E55259C0ECF85AC0EDF85BC0EEF815
:104040005CC0EFF859C02FF05AC030F05BC031F0BF
:104050005CC032F0F60E5E6E0D0E5F6E606A616AD5
:1040600018EC7AF055C02FF056C030F057C031F040
:1040700058C032F00B0ED8903232313230322F32FB
:10408000E806F9E12FC0ECF830C0EDF831C0EEF8E9
:1040900032C0EFF82FC0E6FF30C0E6FFD5EC4FF09E
:1040A000E552E552F3CFDDF7F4CFDEF7C4C7CAF728
:1040B000C5C7CBF7C6C7CCF7C4C72FF0C5C730F00C
:1040C000C6C731F0640E5F6E606A616AC4C75AF099
:1040D000C5C75BF0C6C75CF022EC76F05AC02FF083
:1040E0005BC030F05CC031F05AC0E6FF5BC0E6FF59
:1040F0000C0EE66E010EE66E90EC75F0E552E552A0
:10410000E552E552A8C7E6FFA9C7E6FFAAC7E6FF42
:10411000ABC7E6FF0E0EE66E010EE66EC0EC75F064
:104120002F6E060EE15E2F50ACC7E6FFADC7E6FF6F
:10413000AEC7E6FFAFC7E6FF120EE66E010EE66EF3
:10414000C0EC75F02F6E060EE15E2F50090133BFF3
:104150000DD0E66A020EE66E6FEC25F0E552E552F0
:10416000010E0301D86FD96B0901338F3689120014
:104170000A01CD6B50C7CCFA07019F51010A05E037
:10418000010A04E1B5EC1CF001D079DD090133AD81
:10419000A4D1CCEC72F006017C515A5C0801F96F95
:1041A00006017D515B580801FA6F06017E515C588B
:1041B0000801FB6FCCEC72F05AC07CF65BC07DF658
:1041C0005CC07EF6D1CA2FF0D2CA30F0316A326AB2
:1041D00030AE02D031683268D8903250000A08E61A
:1041E0001E0E2F5C000E3058000E3158000E325853
:1041F00022E20901339DE7C72FF0E8C730F0316AAA
:10420000326A30AE02D0316832683234000E321871
:1042100009E6D880820E2F54000E3054000E31541F
:10422000000E325405E30A01D12B000ED22303D035
:104230000A01D16BD26B090133AF1ED10701CA51FC
:10424000C45DC76FCB51C559C86FCC51C659C96F32
:10425000B00EE96E070EEA6EEE50A85D2F6EEE50BE
:10426000A959306EEE50AA59316EEE50AB592FC09D
:10427000F6F830C0F7F831C0F8F8B40EE96E070E62
:10428000EA6EEE50AC5D2F6EEE50AD59306EEE50D2
:10429000AE59316EEE50AF592FC0F3F830C0F4F87C
:1042A00031C0F5F8F6C82FF0F7C830F0F8C831F093
:1042B000326A31BE32682FC0E6FF30C0E6FF31C03F
:1042C000E6FF32C0E6FF9DEC28F0E552E552E552EC
:1042D000E552F3C833F0F4C834F0F5C835F0366A67
:1042E00035BE366833C0E6FF34C0E6FF35C0E6FFB2
:1042F00036C0E6FF9DEC28F0E552E552E552E55266
:1043000059C0F0F85AC0F1F85BC0F2F859C02FF06C
:104310005AC030F05BC031F0326A31BE326832349C
:10432000000E321809E6D8801C0E2F54020E3054AD
:10433000000E3154000E325401E38ED00301EC2BF9
:10434000000EED23EEC32FF0EFC330F0316A30BE24
:10435000316831500801F219E8AE02D0F23506D0CA
:10436000F0512F5CF1513058F251315804E2F0C84D
:10437000EEF3F1C8EFF3360EE66EE66AE66AE66A39
:10438000A8C7E6FFA9C7E6FFAAC7E6FFABC7E6FFD7
:10439000B0C7E6FFB1C7E6FFB2C7E6FFB3C7E6FFA7
:1043A00004EC28F02F6E0C0EE15E2F5059C0A8F7D8
:1043B0005AC0A9F75BC0AAF75CC0ABF7360EE66E31
:1043C000E66AE66AE66AACC7E6FFADC7E6FFAEC7D7
:1043D000E6FFAFC7E6FFB4C7E6FFB5C7E6FFB6C75F
:1043E000E6FFB7C7E6FF04EC28F02F6E0C0EE15E87
:1043F0002F5059C0ACF75AC0ADF75BC0AEF75CC0E8
:10440000AFF7B00EE96E070EEA6EEE500701A85D39
:104410002F6EEE50A959306EEE50AA59316EEE5003
:10442000AB592FC0F6F830C0F7F831C0F8F8B40E29
:10443000E96E070EEA6EEE50595C2F6EEE505A5838
:10444000306EEE505B58316EEE505C582FC0F3F872
:1044500030C0F4F831C0F5F8A8C7B0F7A9C7B1F774
:10446000AAC7B2F7ABC7B3F7ACC7B4F7ADC7B5F7D8
:10447000AEC7B6F7AFC7B7F7040E745C35E1C0C37B
:104480002FF0C1C330F0316A30BE316831500701BE
:10449000C919E8AE02D0C93506D0C7512F5CC85142
:1044A0003058C951315804E2C7C7C0F3C8C7C1F377
:1044B0000301CD510701E219E8AE02D0E23507D081
:1044C000E1510301CC5D0701E2510301CD590CE23A
:1044D000E1C7CCF3E2C7CDF31200040E745C04E133
:1044E0000301D42B000ED5231200775056E00901AA
:1044F0003951800B52E038A53AD0776A020EE66E49
:104500009AEC78F0E552040EE66EA6EC78F0E552EF
:10451000090138952DDE090133AD1ED0040EE66E7B
:10452000A6EC78F0E55209013897CCEC72F05AC04D
:104530002FF05BC030F05CC031F0326AD00E2F2615
:10454000070E3022000E312232222FC082F630C0F8
:1045500083F631C084F605D0040EE66E9AEC78F04E
:10456000E552020EE66EA6EC78F0E5521200CCECB5
:1045700072F05A500601825D5B5083595C50845939
:1045800007E20901339D040EE66E9AEC78F0E552DD
:10459000020EE66EA6EC78F0E55212000A01CD6B31
:1045A0000701DD6B010EDE6FE76BE86BE56BE5C7BE
:1045B000E6F7E5C7A0F7A16BA26BA36BC46BC56B55
:1045C000C66BC4C7C7F7C5C7C8F7C6C7C9F7000ECB
:1045D000E36FE46BE16FE26BDF6FE06BA86BA96BDD
:1045E000AA6BAB6BA8C7B0F7A9C7B1F7AAC7B2F758
:1045F000ABC7B3F7A8C7D5F7A9C7D6F7AAC7D7F7E8
:10460000ABC7D8F7A8C7CDF7A9C7CEF7AAC7CFF7CA
:10461000ABC7D0F7A8C7BCF7A9C7BDF7AAC7BEF7F5
:10462000ABC7BFF7AC6BAD6BAE6BAF6BACC7B4F7E2
:10463000ADC7B5F7AEC7B6F7AFC7B7F7ACC7D9F7D1
:10464000ADC7DAF7AEC7DBF7AFC7DCF7ACC7D1F75A
:10465000ADC7D2F7AEC7D3F7AFC7D4F7ACC7C0F773
:10466000ADC7C1F7AEC7C2F7AFC7C3F7E66AE66A20
:10467000E66AE66A0E0EE66E010EE66EC0EC75F0B6
:104680002F6E060EE15E2F50E66AE66AE66AE66A7B
:10469000120EE66E010EE66EC0EC75F02F6E060E81
:1046A000E15E2F50000EE66EE66A0C0EE66E010E1D
:1046B000E66E90EC75F0E552E552E552E5520A01DE
:1046C000D16BD26B09013895339D339F266A120056
:1046D0007CBA05D0200EE66E9AEC78F004D0200E5D
:1046E000E66EA6EC78F0E552090137A105D0080E78
:1046F000E66E9AEC78F004D0080EE66EA6EC78F040
:10470000E552800EE66EA6EC78F0E552CCEC72F045
:104710005AC018F95BC019F95CC01AF9F40E090106
:104720001827010E1923000E1A23B8EC54F0010EBD
:10473000776E43EC2AF0010E776EE9EC43F0090145
:1047400037A155D0080EE66E9AEC78F0E5520901D3
:1047500037A757D03AEC4AF00A01E70705E109EC20
:1047600035F00A01010EE76F49CF47FF4ACF48FFF6
:10477000000E0F01436F446B0F01496F4A6B0EEC43
:104780003CF0CCEC72F05A500901185D5B5019599D
:104790005C501A5936E209013651040B03E13751D6
:1047A000040B0FE17CBE05D0800EE66E9AEC78F02B
:1047B00004D0800EE66EA6EC78F0E5527CA405D01D
:1047C00009D080A80CD07CB405D0040EE66E9AEC1B
:1047D00078F004D0040EE66EA6EC78F0E552F40E04
:1047E00009011827010E1923000E1A230AD0040EFE
:1047F000E66E9AEC78F0E552080EE66EA6EC78F0DC
:10480000E552CEEC30F009013751010B8EE08050BB
:10481000100B04E00901135101E087D7090136515B
:10482000040B01E082D73351040B01E07ED747CF60
:104830002FF048CF30F0316A326A30AE02D03168A2
:104840003268D8903250000A08E6180E2F5C000E2D
:104850003058000E3158000E325801E366D73751F8
:10486000040B01E162D70901136B800EE66EA6EC22
:1048700078F0E552040EE66EA6EC78F0E552080EEC
:10488000E66E9AEC78F0E552090137AB05D0200EC0
:10489000E66E9AEC78F004D0200EE66EA6EC78F086
:1048A000E552CCEC72F05AC014F95BC015F95CC04B
:1048B00016F90901176B5AC08EF65BC08FF65CC003
:1048C00090F65AC02FF05BC030F05CC031F017C9D1
:1048D00032F0E80E2F26030E3022000E3122322253
:1048E0002FC06DF630C06EF631C06FF600C42FF0E9
:1048F000306A316A326A140EE96E090EEA6EEE50C1
:104900002F26EE503022EE503122EE5032222FC0B0
:10491000A9F630C0AAF631C0ABF609013397766A22
:1049200012003F0E926E020EC16EC00E816E400EDE
:10493000936E600E826E840E946EC78CF19E410E53
:10494000E66EE66A3C0EE66ED3EC79F0E552E5528F
:10495000E5521200746A09011C6B0A0E1C5D09E223
:104960001C51EA6A330FE96E090EEA22EF6A1C2B2A
:10497000F4D7090136813689378509010B6B0C6B39
:104980000D6B0E6B0F014F697F0E506F4FCF4DFFB8
:10499000E8CF4EFF4FCF51FFE8CF52FF140E0F016B
:1049A000456F466BF00E0F01476F486BD00E060146
:1049B000D36FD46B7C6A2E0EE66EA6EC78F0E552CF
:1049C000040EE66E9AEC78F0E552800EE66EA6ECE8
:1049D00078F0E5521200D9CFE6FFE1CFD9FFFD0E06
:1049E000DBCF2FF0FE0EDBCF30F0316A30BE316806
:1049F0002FC0E6FF30C0E6FF31C0E6FFCCEC72F01E
:104A0000E552E7CF31F0E552E7CF30F0E552E7CF9E
:104A10002FF05A502F2409011D6F5B5030201E6F5C
:104A20005C5031201F6F1D2B000E1E231F23CCEC6A
:104A300072F009011D515A5C1E515B581F515C58A0
:104A4000F6E3E552E7CFD9FF1200D9CFE6FFE1CF79
:104A5000D9FFFD0EDBCF2FF0FE0EDBCF30F0640E62
:104A60003002F3CF30F02F02F3CF2FF0F450302686
:104A7000316A30BE31682FC0E6FF30C0E6FF31C07A
:104A8000E6FFCCEC72F0E552E7CF31F0E552E7CF2C
:104A900030F0E552E7CF2FF05A502F240901206F54
:104AA0005B503020216F5C503120226FCCEC72F0D3
:104AB000090120515A5C21515B5822515C580BE28C
:104AC000020E0401005DE66EE66A85DFE552E552FE
:104AD0000EEC3CF0EBD7E552E7CFD9FF1200D9CF6F
:104AE000E6FFE1CFD9FF800EE66E9AEC78F0E55252
:104AF000FE0EDBCFE6FFE66AA8DFE552E552800E48
:104B0000E66EA6EC78F0E552FD0EDBCFE6FFE66A36
:104B10009CDFE552E552E552E7CFD9FF1200D9CF2D
:104B2000E6FFE1CFD9FF0901236BFE0EDB50235DC9
:104B30000AE2080EE66E020EE66ED1DFE552E5529D
:104B40000901232BF2D7E66A080EE66EC8DFE552AC
:104B5000E552E552E7CFD9FF1200CCEC72F05AC013
:104B600024F95BC025F95CC026F9240EE96E090E14
:104B7000EA6E06019151EE5C9251EE589351EE5857
:104B800001E2BCD0775001E1B9D024C991F625C922
:104B900092F626C993F6E80E9127030E9223000E93
:104BA0009323776AD0C659F0D1C65AF05B6A5C6A23
:104BB0005AAE02D05B685C68040E5E6E5F6A606A23
:104BC000616A18EC7AF055C003F956C004F98E0EEC
:104BD000E96E060EEA6EEE500901245D366EEE5067
:104BE0002559376EEE502659386E55C033F056C0F1
:104BF00034F0356A34BE356833C05AF034C05BF0E7
:104C000035C05CF036C05FF037C060F038C061F08E
:104C1000B0EC76F0326A575009010B2758500C233C
:104C200059500D2332500E2324C98EF625C98FF614
:104C300026C990F60BC92FF00CC930F00DC931F020
:104C40000EC932F05E6A400E5F6E380E606E616AA9
:104C50000BC959F00CC95AF00DC95BF00EC95CF0D4
:104C60004FEC76F059C02FF05AC030F05BC031F0F5
:104C70005CC032F0320E5E6E5F6A606A616A18EC88
:104C80007AF055C02FF056C030F057C031F058C000
:104C900032F055C009F956C00AF9E66A87EC7AF095
:104CA000E552F3CF27F9F4CF28F9010EE66E09019A
:104CB0000151F3242F6E0251F420306E2FC0E6FF15
:104CC000E66E42EC4DF0E552E552E552F3CF01F9C4
:104CD000F4CF02F90901F4500619E8AE02D0063506
:104CE00004D00551015D0651025902E3000E01D0C6
:104CF000010E010B0901339BE8B0338B1200775092
:104D000001E1ABD0776A09013351200B08E133513F
:104D1000080B05E1030E745C02E0000E01D0010EE9
:104D20003997E8B0398739A783D033AB0AD00A0165
:104D3000580EE86F020EE96F580EEA6F020EEB6F25
:104D400012D0030E745C07E10A018E0EE86F120E9A
:104D5000E96FFA0E06D033A706D07D0E0A01E86F80
:104D6000E96BEA6FEB6BCCEC72F05A5006019A5D7E
:104D70005B509B595C509C5970E27CAE2CD0E8CAC9
:104D80002FF0E9CA30F0316A30BE31682FC0E6FF3B
:104D900030C0E6FF31C0E6FFCCEC72F0E552E7CF61
:104DA00031F0E552E7CF30F0E552E7CF2FF05A501F
:104DB0002F2406019A6F5B5030209B6F5C5031208E
:104DC0009C6F800EE66EA6EC78F0E552040EE66E5F
:104DD000A6EC78F02BD0EACA2FF0EBCA30F0316A9B
:104DE00030BE31682FC0E6FF30C0E6FF31C0E6FFBD
:104DF000CCEC72F0E552E7CF31F0E552E7CF30F07E
:104E0000E552E7CF2FF05A502F2406019A6F5B50DE
:104E100030209B6F5C5031209C6F800EE66E9AECC8
:104E200078F0E552040EE66E9AEC78F0E552120046
:104E3000040E745C12E13651100B0FE1CCEC72F0F1
:104E40005A500601675D5B5068595C50695905E22C
:104E5000800EE66EA6EC78F0E5521200D9CFE6FFA0
:104E6000E1CFD9FFF70EDBCF33F0F80EDBCF34F014
:104E7000F90EDBCF35F0FA0EDBCF36F0E150FB0F49
:104E8000E96EFF0EDA20EA6E030EEB503618E8AE3C
:104E900002D0363408D03350EE5C3450EE583550E2
:104EA000EE583650EE580BE2F70EDBCF2FF0F80E2F
:104EB000DBCF30F0F90EDBCF31F0FA0E39D0F30E44
:104EC000DBCF37F0F40EDBCF38F0F50EDBCF39F067
:104ED000F60EDBCF3AF0D950FB0FE96EFF0EDA2069
:104EE000EA6E030EEBCFF3FF3A50F318E8AE02D0B0
:104EF000F33408D0EE50375CEE503858EE50395845
:104F0000EE503A580BE2F30EDBCF2FF0F40EDBCF6E
:104F100030F0F50EDBCF31F0F60E0AD0FB0EDBCF12
:104F20002FF0FC0EDBCF30F0FD0EDBCF31F0FE0EAC
:104F3000DBCF32F02FC059F030C05AF031C05BF0F7
:104F400032C05CF0E552E7CFD9FF1200D9CFE6FFBF
:104F5000E1CFD9FFFE0EDBCF30F0800E30141EE023
:104F6000FB0EDBCF2FF0FC0EDBCF30F0D950FD0F66
:104F7000E96EFF0EDA20EA6E2F50EE263050ED2259
:104F8000FD0EDBCF2FF0FE0EDBCF30F030342EE203
:104F90002F500008000E305429E224D0FD0EDBCF44
:104FA0002FF0FE0EDBCF30F0303420E22F5000081F
:104FB000000E30541BE2FB0EDBCF2FF0FC0EDBCFDC
:104FC00030F0D950FD0FE96EFF0EDA20EA6E2F5057
:104FD000EE5E3050ED5AFD0EFE0EDBCF30F0800E4F
:104FE000301404E0FD0EDB6AFE0EDB6AFD0EDBCF43
:104FF0002FF0FE0EDBCF30F02FC0F3FF30C0F4FFF8
:10500000E552E7CFD9FF1200D9CFE6FFE1CFD9FFB4
:10501000FB0EDBCF2FF0FC0EDBCF30F0FD0EDBCF35
:1050200031F0FE0EDBCF32F0E150F30FE96EFF0EF0
:10503000DA20EA6EEE502F5C0901296FEE503058ED
:105040002A6FEE5031582B6FEE5032582C6FFB0EFA
:10505000DBCF2FF0FC0EDBCF30F0FD0EDBCF31F0DD
:10506000FE0EDBCF32F0E150F30FE96EFF0EDA20D7
:10507000EA6E2F50EE242D6F3050EE202E6F3150FF
:10508000EE202F6F3250EE20306FE150F70FE96EB7
:10509000FF0EDA20EA6E030EEB502C19E8AE02D0B8
:1050A0002C3508D02951EE5C2A51EE582B51EE5880
:1050B0002C51EE5809E229C92FF02AC930F02BC92A
:1050C00031F02CC932F02DD0D950F70FE96EFF0E18
:1050D000DA20EA6E030EEBCFF3FF3051F318E8AE9F
:1050E00002D0F33408D0EE502D5DEE502E59EE5024
:1050F0002F59EE50305909E22DC92FF02EC930F04A
:105100002FC931F030C932F00CD0F70EDBCF2FF0C1
:10511000F80EDBCF30F0F90EDBCF31F0FA0EDBCF3B
:1051200032F02FC059F030C05AF031C05BF032C0BD
:105130005CF0E552E7CFD9FF1200D9CFE6FFE1CF0F
:10514000D9FFE150FB0FE96EFF0EDA20EA6ED8902E
:10515000030EEB50000A08E6000EEE5C000EEE585F
:10516000000EEE58000EEE5815E2FB0EDBCF2FF0CE
:10517000FC0EDBCF30F0FD0EDBCF31F0FE0EDBCFCF
:1051800032F0000E2F6C301E3022311E3122321EC2
:1051900032220CD0FB0EDBCF2FF0FC0EDBCF30F039
:1051A000FD0EDBCF31F0FE0EDBCF32F02FC059F019
:1051B00030C05AF031C05BF032C05CF0E552E7CF4E
:1051C000D9FF1200D9CFE6FFE1CFD9FFFD0EDBCF2B
:1051D000E9FFFE0EDBCFEAFF260EE926000EEA22EB
:1051E000010EEF6EE552E7CFD9FF1200D9CFE6FFEF
:1051F000E1CFD9FFFD0EDBCFE9FFFE0EDBCFEAFFEB
:10520000260EE926000EEA22EF5064E00901316B18
:10521000100E315D1AE2FD0EDBCFE9FFFE0EDBCF93
:10522000EAFF060EE926000EEA223151020DE9508E
:10523000F324E96EEA50F420EA6EFB0EDBCFEEFFBA
:10524000FC0EDBCFEDFF312BE3D7FD0EDBCFE9FF0B
:10525000FE0EDBCFEAFF040EE926000EEA22EF6A1B
:10526000FD0EDBCFE9FFFE0EDBCFEAFF050EE926E0
:10527000000EEA220F0EEF6EFB0EDBCF2FF0FC0EBE
:10528000DBCF30F0316A326A30AE02D0316832683A
:10529000040ED8902F36303631363236E806F9E132
:1052A000FD0EDBCFE9FFFE0EDBCFEAFF2FC0EEFFE6
:1052B00030C0EEFF31C0EEFF32C0EEFFFD0EDBCF9F
:1052C000E9FFFE0EDBCFEAFF260EE926000EEA22FA
:1052D000EF6A98D0FD0EDBCFE9FFFE0EDBCFEAFFD1
:1052E000040EE926000EEA22EFCF32F9FD0EDBCFE5
:1052F000E9FFFE0EDBCFEAFF060EE926000EEA22EA
:10530000E9CF33F0EACF34F009013251020DE95010
:10531000F324E96EEA50F420EA6EEECF2FF0EFCFDF
:1053200030F0316A326A30AE02D031683268FD0E38
:10533000DBCFE9FFFE0EDBCFEAFF2F50EE5E3050F1
:10534000EE5A3150EE5A3250EE5A32290F0BE66EB9
:10535000FD0EDBCFE9FFFE0EDBCFEAFF040EE926F0
:10536000000EEA22E552E750EF6EFD0EDBCFE9FFBB
:10537000FE0EDBCFEAFF050EE926000EEA22EFCF94
:1053800032F932290F0B326FFD0EDBCFE9FFFE0E33
:10539000DBCFEAFF060EE926000EEA223251020DAB
:1053A000E950F324E96EEA50F420EA6EFB0EDBCFFD
:1053B000EEFFFC0EDBCFEDFFFD0EDBCFE9FFFE0EB7
:1053C000DBCFEAFF050EE926000EEA2232C9EFFF25
:1053D000FB0EDBCF2FF0FC0EDBCF30F0316A326AF0
:1053E00030AE02D031683268FD0EDBCFE9FFFE0E31
:1053F000DBCFEAFF2F50EE263050EE223150EE2266
:105400003250EE22040EE66EFD0EDBCFE9FFFE0EFB
:10541000DBCFEAFFEECFE6FFEECFE6FFEECFE6FF13
:10542000EFCFE6FF92EC4DF0316E050EE15E3150AC
:1054300059C0F3FF5AC0F4FFE552E7CFD9FF12007D
:1054400004019451E96EEA6AD890E936EA36C40E4E
:10545000E9260A0EEA22EECFE6FFEFCFE6FF87EC61
:105460005BF0E552E55212000401945102E094050C
:1054700002E15AEF2BF0020E945D02E12CEF30F0C6
:10548000F36AF46A1200775074E009013951800B15
:1054900070E0CCEC72F00601A6515A5CA7515B5843
:1054A000A8515C5866E309013A85776ACCEC72F042
:1054B0005AC0A6F65BC0A7F65CC0A8F6320E06017D
:1054C000A627000EA723A823090137AD06D0CCDFFD
:1054D000F3CF8AF4F4CF8BF403D004018A6B8B6B87
:1054E000040192518A5D2F6E8B519355306E2FC0FF
:1054F000E6FFE66E1AEC4EF0E552E552F3CF8CF47F
:10550000F4CF8DF404018E51F35C2F6EF4508F555F
:10551000306E316A326A30AE02D0316832682FC0E4
:10552000E6FF30C0E6FF31C0E6FF32C0E6FF9DEC8B
:1055300028F0E552E552E552E55259C098F45AC0B8
:1055400099F40401D8905A5004E6460E985D0C0E6A
:1055500099590BE2993509E298510C08020E9955B8
:1055600004E20301D02B000ED1238CC48EF48DC431
:105570008FF41200D9CFE6FFE1CFD9FFFD0EDBCFCC
:105580002FF0FE0EDBCF30F0316A326A30AE02D03F
:10559000316832682FC0E6FF30C0E6FF31C0E6FF59
:1055A00032C0E6FF9DEC28F0E552E552E552E552A7
:1055B00059C09CF45AC09DF404015A342EE29C5107
:1055C00046080C0E9D5529E2FD0EDBCF33F0FE0E92
:1055D000DBCF34F00001800E341402E0FF0E01D066
:1055E000010E316E326A31BE32689CC42FF09DC408
:1055F00030F08C0E2F5E180E305A2FC05BF030C08A
:105600005CF031C060F032C061F083EC76F0FD0EEA
:1056100059C0DBFFFE0E5AC0DBFFFD0EDBCF2FF0C3
:10562000FE0EDBCF30F02FC0F3FF30C0F4FFE552A9
:10563000E7CFD9FF120018DFF3CF8AF4F4CF8BF451
:1056400004019251F35C2F6EF4509355306E2FC0CD
:10565000E6FFE66E1AEC4EF0E552E552F3CF8CF41D
:10566000F4CF8DF4F3CF8EF4F4CF8FF4F3CF90F426
:10567000F4CF91F40201E46B120061EC2FF0000909
:105680000CE0070E0801685D04E10401010E946F4F
:1056900002D00401946BAFEF2EF0BAEC30F00009A9
:1056A00005E00401020E946F7FEF30F00401030E59
:1056B000946F1200010EE66E030EE66EB70EE66EF4
:1056C000040EE66E030EE66EB6C4E6FFD1EC6EF095
:1056D0002F6E060EE15E2F500901379DE8B0378D21
:1056E00037AD34D3040194510DE1B7C49EF4B8C46E
:1056F0009FF4BBC4A6F4BCC4A7F4B9C4AEF4BAC446
:10570000AFF40CD0B7C49EF4B8C49FF4B9C4A6F4E7
:10571000BAC4A7F4BBC4AEF4BCC4AFF4C36BC351EA
:10572000020801E21AD1C351080DF3CFD6F4F4CF29
:10573000D7F49E0ED627040ED723D6C4E9FFD7C4CC
:10574000EAFF040EE926000EEA22EECF2FF0EFCF9B
:1057500030F0C351E96EEA6AD890E936EA36B70EFE
:10576000E926040EEA22EECF31F0EFCF32F03050CE
:105770003218E8AE02D0323404D031502F5C3250AF
:10578000305808E2D6C4E9FFD7C4EAFF040EE92680
:10579000000E09D0C351E96EEA6AD890E936EA36BC
:1057A000B70EE926040EEA22EECFBDF4EFCFBEF429
:1057B000030EE66ED6C4E9FFD7C4EAFF040EE9265D
:1057C000000EEA22EECF33F0EFCF34F0070E3402B2
:1057D000F3CF34F03302F3CF33F0F4503426F350E8
:1057E000BD25316E3450BE21326E31C0E6FFE66E0B
:1057F00042EC4DF0E552E552E552F3CF2FF0F4CFF5
:1058000030F0D6C4E9FFD7C4EAFF040EF3CFEBFFB4
:10581000050E30C0EBFFD6C4E9FFD7C4EAFF020E85
:10582000E926000EEA22EECF2FF0EFCF30F0040190
:10583000C351E96EEA6AD890E936EA36B70EE9262E
:10584000040EEA22EECF31F0EFCF32F030503218B2
:10585000E8AE02D0323404D031502F5C3250305890
:105860000AE2C351E96EEA6AD890E936EA36B70E21
:10587000E926040E07D0D6C4E9FFD7C4EAFF020E1A
:10588000E926000EEA22EECFBDF4EFCFBEF4030E00
:10589000E66ED6C4E9FFD7C4EAFF020EE926000E81
:1058A000EA22EECF33F0EFCF34F0070E3402F3CF1D
:1058B00034F03302F3CF33F0F4503426F350BD25E7
:1058C000316E3450BE21326E31C0E6FFE66E42ECDE
:1058D0004DF0E552E552E552F3CF2FF0F4CF30F022
:1058E000D6C4E9FFD7C4EAFF020EF3CFEBFF030EE5
:1058F00030C0EBFF010EE66ED6C4E9FFD7C4EAFF65
:10590000020EE926000EEA22EECF33F0EFCF34F09C
:10591000D6C4E9FFD7C4EAFF040EE926000EEA2246
:105920003350EE24316E3450EE20326E31C0E6FF3B
:10593000E66E42EC4DF0E552E552E552F3CF2FF022
:10594000F4CF30F0D6C4E9FFD7C4EAFFF350EE5EDF
:105950003050ED5A0401C32BE2D608016851070A02
:105960000DE00D0A0BE0030A17E124C2C8F425C2BA
:10597000C9F479C2CAF47AC2CBF41ED079C2C8F491
:105980007AC2C9F40401C86DC91F000EC92324C21C
:10599000CAF425C2CBF410D024C2C8F425C2C9F47D
:1059A0000401C86DC91F000EC92379C2CAF47AC2A6
:1059B000CBF4CA6DCB1FCB23020EE66EC8C4E6FF44
:1059C000C9C4E6FF42EC4DF0E552E552E552F3CF93
:1059D000C8F4F4CFC9F4020EE66ECAC4E6FFCBC425
:1059E000E6FF42EC4DF0E552E552E552F3CFCAF442
:1059F000F4CFCBF4C8C4E6FFC9C4E6FFD5EC4FF042
:105A0000E552E552F3CFCCF4F4CFCDF4C8C4E6FFB1
:105A1000C9C4E6FF5CEC4FF0E552E552F3CFCEF49B
:105A2000F4CFCFF4CAC4E6FFCBC4E6FFD5EC4FF009
:105A3000E552E552F3CFD0F4F4CFD1F4CAC4E6FF77
:105A4000CBC4E6FF5CEC4FF0E552E552F3CFD2F465
:105A5000F4CFD3F4CCC437F0CDC438F0396A3A6A05
:105A600038AE02D039683A689EC433F09FC434F02F
:105A7000356A366A34AE02D03568366833C059F0BC
:105A800034C05AF035C05BF036C05CF037C05EF011
:105A900038C05FF039C060F03AC061F018EC7AF0BD
:105AA00055C02FF056C030F057C031F058C032F01A
