:020000040000FA
:06000000A7EF78F01200EA
:020006001200E6
:0600080053EF6FF012003F
:02000E000401EB
:06001000FE6BFF6B120005
:0100160000E9
:0100170001E7
:060018004CEF6FF0120036
:02001E001100CF
:10002000E5F20000860A00000A0000001700000048
:10003000FF07000001000000C8F20000000A0000F5
:100040001D000000C0F20000A10A0000080000002E
:1000500016000000FF05000001000000B6F20000DD
:100060007C0A00000A000000ADF20000900A0000C7
:1000700009000000A8F20000CF0A000005000000FF
:10008000A3F20000CA0A000005000000DF770000AC
:10009000FF020000010000009EF20000C50A0000FF
:1000A000050000008AF20000370A0000140000007A
:1000B00068F2000094090000220000005CF20000D9
:1000C000660A00000C00000042F20000E404000098
:1000D0001A000000C2F10000800000008000000053
:0C00E000A0F10000DB0600002200000080
:0400EC0004010D51AD
:1000F000E96EEA6AD890E936EA36A10EE9260A0ED8
:10010000EA22EECFE6FFEFCFE6FF48EC5BF0E552E8
:10011000E552120004010D5102E00D0502E1DAEF93
:1001200001F0020E0D5D02E1BFEF08F0F36AF46A20
:100130001200775074E009013951800B70E03DECFA
:100140006FF00F014E515A5C4F515B5850515C5843
:1001500066E309013A85776A3DEC6FF05AC04EFFBD
:100160005BC04FFF5CC050FF320E0F014E27000EE8
:100170004F235023090137AD06D0CCDFF3CF03F472
:10018000F4CF04F403D00401036B046B04010B519E
:10019000035D2F6E04510C55306E2FC0E6FFE66EE6
:1001A00092EC52F0E552E552F3CF05F4F4CF06F4A9
:1001B00004010751F35C2F6EF4500855306E316A1C
:1001C000326A30AE02D0316832682FC0E6FF30C0EC
:1001D000E6FF31C0E6FF32C0E6FF3EEC34F0E55208
:1001E000E552E552E55259C011F45AC012F4040127
:1001F000D8905A5004E6460E115D0C0E12590BE2CF
:10020000123509E211510C08020E125504E20301E5
:10021000D02B000ED12305C407F406C408F4120045
:10022000D9CFE6FFE1CFD9FFFD0EDBCF2FF0FE0ED9
:10023000DBCF30F0316A326A30AE02D031683268DA
:100240002FC0E6FF30C0E6FF31C0E6FF32C0E6FF58
:100250003EEC34F0E552E552E552E55259C015F452
:100260005AC016F404015A342EE2155146080C0EF9
:10027000165529E2FD0EDBCF33F0FE0EDBCF34F056
:100280000001800E341402E0FF0E01D0010E316E29
:10029000326A31BE326815C42FF016C430F08C0EAD
:1002A0002F5E180E305A2FC05BF030C05CF031C0AA
:1002B00060F032C061F0BEEC74F0FD0E59C0DBFF9F
:1002C000FE0E5AC0DBFFFD0EDBCF2FF0FE0EDBCFA4
:1002D00030F02FC0F3FF30C0F4FFE552E7CFD9FF75
:1002E000120018DFF3CF03F4F4CF04F404010B5130
:1002F000F35C2F6EF4500C55306E2FC0E6FFE66EA7
:1003000092EC52F0E552E552F3CF05F4F4CF06F447
:10031000F3CF07F4F4CF08F4F3CF09F4F4CF0AF4E1
:100320000201E46B1200F4EC07F000090CE0070E88
:100330000801685D04E10401010E0D6F02D00401A3
:100340000D6B42EF07F036EC0AF0000905E00401FE
:10035000020E0D6FFBEF09F00401030E0D6F12008A
:10036000320EE66E730EE66E48EC5BF0E552E55237
:1003700004010D5102E00D0502E16DEF05F0020EE2
:100380000D5D02E113EF09F0210EE66E730EE66ECD
:1003900048EC5BF0E552E552120004010D5102E019
:1003A0000D0502E12FEF05F0020E0D5D02E1BFEC3D
:1003B00009F01200010EE66E030EE66E300EE66ED8
:1003C000040EE66E030EE66E2FC4E6FFBEEC60F090
:1003D0002F6E060EE15E2F500901379DE8B0378D74
:1003E00037AD34D304010D510DE130C417F431C4DD
:1003F00018F434C41FF435C420F432C427F433C4D1
:1004000028F40CD030C417F431C418F432C41FF4EB
:1004100033C420F434C427F435C428F43C6B3C5175
:10042000020801E21AD13C51080DF3CF4FF4F4CF8A
:1004300050F4170E4F27040E50234FC4E9FF50C449
:10044000EAFF040EE926000EEA22EECF2FF0EFCFEE
:1004500030F03C51E96EEA6AD890E936EA36300E5F
:10046000E926040EEA22EECF31F0EFCF32F0305021
:100470003218E8AE02D0323404D031502F5C325002
:10048000305808E24FC4E9FF50C4EAFF040EE926E1
:10049000000E09D03C51E96EEA6AD890E936EA3696
:1004A000300EE926040EEA22EECF36F4EFCF37F411
:1004B000030EE66E4FC4E9FF50C4EAFF040EE926BE
:1004C000000EEA22EECF33F0EFCF34F0070E340205
:1004D000F3CF34F03302F3CF33F0F4503426F3503B
:1004E0003625316E34503721326E31C0E6FFE66E6C
:1004F000BAEC51F0E552E552E552F3CF2FF0F4CFCC
:1005000030F04FC4E9FF50C4EAFF040EF3CFEBFF15
:10051000050E30C0EBFF4FC4E9FF50C4EAFF020EE6
:10052000E926000EEA22EECF2FF0EFCF30F00401E3
:100530003C51E96EEA6AD890E936EA36300EE9268F
:10054000040EEA22EECF31F0EFCF32F03050321805
:10055000E8AE02D0323404D031502F5C32503058E3
:100560000AE23C51E96EEA6AD890E936EA36300E82
:10057000E926040E07D04FC4E9FF50C4EAFF020E7B
:10058000E926000EEA22EECF36F4EFCF37F4030E61
:10059000E66E4FC4E9FF50C4EAFF020EE926000EE2
:1005A000EA22EECF33F0EFCF34F0070E3402F3CF70
:1005B00034F03302F3CF33F0F4503426F3503625C1
:1005C000316E34503721326E31C0E6FFE66EBAEC40
:1005D00051F0E552E552E552F3CF2FF0F4CF30F071
:1005E0004FC4E9FF50C4EAFF020EF3CFEBFF030E46
:1005F00030C0EBFF010EE66E4FC4E9FF50C4EAFFC6
:10060000020EE926000EEA22EECF33F0EFCF34F0EF
:100610004FC4E9FF50C4EAFF040EE926000EEA22A7
:100620003350EE24316E3450EE20326E31C0E6FF8E
:10063000E66EBAEC51F0E552E552E552F3CF2FF0F9
:10064000F4CF30F04FC4E9FF50C4EAFFF350EE5E40
:100650003050ED5A04013C2BE2D608016851070ADC
:100660000DE00D0A0BE0030A17E124C241F425C294
:1006700042F479C243F47AC244F41ED079C241F400
:100680007AC242F40401416D421F000E422324C28B
:1006900043F425C244F410D024C241F425C242F4EC
:1006A0000401416D421F000E422379C243F47AC215
:1006B00044F4436D441F4423020EE66E41C4E6FF3A
:1006C00042C4E6FFBAEC51F0E552E552E552F3CFF1
:1006D00041F4F4CF42F4020EE66E43C4E6FF44C494
:1006E000E6FFBAEC51F0E552E552E552F3CF43F4A0
:1006F000F4CF44F441C4E6FF42C4E6FF4DEC54F0AD
:10070000E552E552F3CF45F4F4CF46F441C4E6FF99
:1007100042C4E6FFD4EC53F0E552E552F3CF47F480
:10072000F4CF48F443C4E6FF44C4E6FF4DEC54F074
:10073000E552E552F3CF49F4F4CF4AF443C4E6FF5F
:1007400044C4E6FFD4EC53F0E552E552F3CF4BF44A
:10075000F4CF4CF445C437F046C438F0396A3A6AED
:1007600038AE02D039683A6817C433F018C434F090
:10077000356A366A34AE02D03568366833C059F00F
:1007800034C05AF035C05BF036C05CF037C05EF064
:1007900038C05FF039C060F03AC061F011EC77F01A
:1007A00055C02FF056C030F057C031F058C032F06D
:1007B00047C43FF048C440F0416A426A40AE02D0AC
:1007C0004168426827C43BF028C43CF03D6A3E6A59
:1007D0003CAE02D03D683E683BC059F03CC05AF088
:1007E0003DC05BF03EC05CF03FC05EF040C05FF0DB
:1007F00041C060F042C061F011EC77F02F505524F9
:100800000401386F30505620396F315057203A6FFD
:10081000325058203B6F39C43DF43AC43EF44BC4C7
:100820003FF04CC440F0416A426A40AE02D0416899
:10083000426847C43BF048C43CF03D6A3E6A3CAE67
:1008400002D03D683E6817C437F018C438F0396AE2
:100850003A6A38AE02D039683A6837C059F038C0C1
:100860005AF039C05BF03AC05CF03BC05EF03CC06F
:100870005FF03DC060F03EC061F011EC77F055C014
:1008800033F056C034F057C035F058C036F055C07C
:1008900059F056C05AF057C05BF058C05CF03FC0EA
:1008A0005EF040C05FF041C060F042C061F011EC0A
:1008B00077F055C02FF056C030F057C031F058C017
:1008C00032F04BC44FF04CC450F0516A526A50AEF3
:1008D00002D05168526845C44BF046C44CF04D6A92
:1008E0004E6A4CAE02D04D684E6827C447F028C40B
:1008F00048F0496A4A6A48AE02D049684A6847C027
:1009000059F048C05AF049C05BF04AC05CF04BC097
:100910005EF04CC05FF04DC060F04EC061F011EC75
:1009200077F055C043F056C044F057C045F058C06A
:1009300046F055C059F056C05AF057C05BF058C049
:100940005CF04FC05EF050C05FF051C060F052C02C
:1009500061F011EC77F055502F5C0401386F565060
:100960003058396F575031583A6F585032583B6FA2
:1009700039C42FF03AC430F0316E326A31BE326879
:1009800049C437F04AC438F0396A3A6A38AE02D0FE
:1009900039683A681FC433F020C434F0356A366AC7
:1009A00034AE02D03568366833C059F034C05AF0DE
:1009B00035C05BF036C05CF037C05EF038C05FF029
:1009C00039C060F03AC061F011EC77F02F50552437
:1009D0000401386F30505620396F315057203A6F2C
:1009E000325058203B6F39C43FF43AC440F43DC400
:1009F0002FF03EC430F0316A326A30AE02D0316836
:100A000032682FC0E6FF30C0E6FF31C0E6FF32C0DB
:100A1000E6FF3FC433F040C434F0356A366A34AE82
:100A200002D03568366833C0E6FF34C0E6FF35C013
:100A3000E6FF36C0E6FF66EC54F0376E080EE15E66
:100A40003750F3CF4DF4F4CF4EF404D00301D02B44
:100A5000000ED1234DC4F3FF4EC4F4FF12001E0E4E
:100A6000E66E730EE66E48EC5BF0E552E55276EC0E
:100A700000F00E0EE66E730EE66E48EC5BF0E5528B
:100A8000E5520401516B5151020824E35151080D04
:100A9000F3CF59F4F4CF5AF4170E5927040E5A2302
:100AA00059C4E9FF5AC4EAFF020EE926000EEA2201
:100AB000F40EEE6E010EED6E59C4E9FF5AC4EAFF62
:100AC000040EE926000EEA220C0EEE6EFE0EED6E0E
:100AD000512BD9D7A6DA6DEF05F076EC00F0090EB0
:100AE000E66E2FC4E6FF6AEC60F0E552E5520401C1
:100AF000616F8AEC00F0F3CF03F4F4CF04F491DAE1
:100B000004010B51035D2F6E04510C55306E2FC044
:100B1000E6FFE66E92EC52F0E552E552F3CF05F4B3
:100B2000F4CF06F4090137ADA4D1FF0EE66E720EC4
:100B3000E66E48EC5BF0E552E55261C4E6FF49EC35
:100B40005CF0E552F30EE66E720EE66E48EC5BF07A
:100B5000E552E552E66AE66A04010E052F6E306A38
:100B6000316A326AE66E30C0E6FF31C0E6FF32C05D
:100B7000E6FF03EC5DF0336E060EE15E3350D30EFC
:100B8000E66E720EE66E48EC5BF0E552E55204014B
:100B90005F6B5F51020801E2EAD05F51080DF3CFAD
:100BA00062F4F4CF63F4170E6227040E6323090E78
:100BB000E66E68EC5BF0E552580E04015F25E66EC8
:100BC00068EC5BF0E552D00EE66E720EE66E48EC15
:100BD0005BF0E552E552090EE66EE66A62C4E9FF93
:100BE00063C4EAFFEECF2FF0EFCF30F0316A326A04
:100BF00030AE02D0316832682FC0E6FF30C0E6FF69
:100C000031C0E6FF32C0E6FF03EC5DF0336E060E46
:100C1000E15E3350090EE66EE66A62C4E9FF63C422
:100C2000EAFF040EE926000EEA22EECF2FF0EFCF06
:100C300030F0316A326A30AE02D0316832682FC08B
:100C4000E6FF30C0E6FF31C0E6FF32C0E6FF03EC4E
:100C50005DF0336E060EE15E3350090EE66EE66A15
:100C600062C4E9FF63C4EAFF020EE926000EEA222D
:100C7000EECF2FF0EFCF30F0316A326A30AE02D0D3
:100C8000316832682FC0E6FF30C0E6FF31C0E6FFB2
:100C900032C0E6FF03EC5DF0336E060EE15E3350CA
:100CA000090EE66EE66A010EE66E62C4E9FF63C4F1
:100CB000EAFF020EE926000EEA22EECF35F0EFCF72
:100CC00036F062C4E9FF63C4EAFF040EE926000EB1
:100CD000EA223550EE24336E3650EE20346E33C0A7
:100CE000E6FFE66EBAEC51F0E552E552E552F3CF7D
:100CF0002FF0F4CF30F0316A326A30AE02D0316872
:100D000032682FC0E6FF30C0E6FF31C0E6FF32C0D8
:100D1000E6FF03EC5DF0376E060EE15E3750090E1C
:100D2000E66EE66A62C4E9FF63C4EAFF060EE926DE
:100D3000000EEA22EECF2FF0EFCF30F0316A326AA8
:100D400030AE02D0316832682FC0E6FF30C0E6FF17
:100D500031C0E6FF32C0E6FF03EC5DF0336E060EF5
:100D6000E15E335029EC5CF004015F2B12D7E66A98
:100D7000010EE66E03C42FF004C430F0316A326A0B
:100D800030AE02D0316832680B0ED8902F36303634
:100D900031363236E806F9E1F60E5E6E0D0E5F6E04
:100DA000606A616A2FC059F030C05AF031C05BF000
:100DB00032C05CF08AEC74F059C02FF05AC030F0A9
:100DC0005BC031F05CC032F059C0E6FF5AC0E6FFAC
:100DD0005BC0E6FF5CC0E6FF03EC5DF0336E060E21
:100DE000E15E3350BF0EE66E720EE66E48EC5BF0CD
:100DF000E552E552E66A010EE66E05C42FF006C420
:100E000030F0316A326A30AE02D0316832680B0E8F
:100E1000D8902F36303631363236E806F9E1F60E04
:100E20005E6E0D0E5F6E606A616A2FC059F030C051
:100E30005AF031C05BF032C05CF08AEC74F059C0FB
:100E40002FF05AC030F05BC031F05CC032F059C0B6
:100E5000E6FF5AC0E6FF5BC0E6FF5CC0E6FF03ECBE
:100E60005DF0336E060EE15E3350B10EE66E720E2B
:100E700003D0A90EE66E720EE66E48EC5BF0E5520A
:100E8000E552120004010E6B640EE66EE66A04EC95
:100E900031F0E552E552110EE66EE66A2FC4E6FF28
:100EA00099EC60F0E552E552E552150EE66E020E41
:100EB000E66E2FC4E6FF99EC60F0E552E552E5528C
:100EC0000A0EE66EE66A04EC31F0E552E552010ED8
:100ED000E66E030EE66E650EE66E040EE66E030E1B
:100EE000E66E2FC4E6FFBEEC60F02F6E060EE15EEC
:100EF0002F5004016B6F646B6451020822E364514C
:100F0000E96EEA6AD890E936EA36650EE926040EFB
:100F1000EA22EECF2FF0EFCF30F06451080DF3CF7F
:100F2000E9FFF4CFEAFF170EE926040EEA22060EC7
:100F3000E926000EEA222FC0EEFF30C0EDFF642B41
:100F4000DBD70A0EE66EE66A04EC31F0E552E552B4
:100F5000140EE66EE66A2FC4E6FF99EC60F0E552E7
:100F6000E552E552200EE66E010EE66E2FC4E6FF56
:100F700099EC60F0E552E552E552E66A020EE66E43
:100F80002FC4E6FF99EC60F0E552E552E552640E9D
:100F9000E66EE66A04EC31F0E552E55204010E2BF0
:100FA0000A0E0E5D0DE2675165190AE16851661976
:100FB00007E16951671902E16A51681901E164D7D3
:100FC0000A0E0E5D02E3000E01D0010E0901379DED
:100FD000E8B0378D3DEC6FF05AC04EFF5BC04FFF5D
:100FE0005CC050FF5AEF08F004013C0E2F6FE66E14
:100FF00061EC61F0E5520901379DE8B0378D37BDEE
:101000000BD004011E0E2F6FE66E61EC61F0E5520D
:101010000901379DE8B0378D3751400B01E0010ED3
:10102000120004010D5102E00D0543E16C6B6C519F
:1010300002083FE36C51080DF3CF6DF4F4CF6EF46A
:10104000170E6D27040E6E236DC4E9FF6EC4EAFF10
:10105000040EE926000EEA22EECFE6FFEFCFE6FF10
:10106000040E6C03F350C00FE66EE66A01EC72F0FA
:10107000E552E552E552E5526DC4E9FF6EC4EAFF60
:10108000020EE926000EEA22EECFE6FFEFCFE6FFE2
:10109000040E04016C03F350020FC00FE66EE66A03
:1010A00001EC72F0E552E552E552E55204016C2B79
:1010B000BED7120004010D5102E00D0543E16F6B34
:1010C0006F5102083FE36F51080DF3CF70F4F4CF76
:1010D00071F4170E7027040E7123040E6F03F35082
:1010E000C00FE66EE66A41EC71F0E552E552F3CFCF
:1010F0002FF0F4CF30F070C4E9FF71C4EAFF040EA2
:10110000F3CFEBFF050E30C0EBFF040E04016F03BD
:10111000F350020FC00FE66EE66A41EC71F0E55243
:10112000E552F3CF2FF0F4CF30F070C4E9FF71C473
:10113000EAFF020EF3CFEBFF030E30C0EBFF04011A
:101140006F2BBED71200D9CFE6FFE1CFD9FF09013F
:10115000010EB66F67EC5FF0420EE66E09EC60F0D0
:10116000E552FE0EDBCFE6FF09EC60F0E55284ECC1
:101170005FF00901B66BE552E7CFD9FF1200090114
:10118000010EB66F67EC5FF0430EE66E09EC60F09F
:10119000E552000902E1000E01D0010E0901379F5E
:1011A000E8B0378FE66AA6EC5FF0E5520401736F92
:1011B000010EE66EA6EC5FF0E5520401726F84EC5E
:1011C0005FF00901B66B72C42FF073C430F0316A5E
:1011D000326A30AE02D031683268F60E5E6E0D0EA5
:1011E0005F6E606A616A2FC059F030C05AF031C03A
:1011F0005BF032C05CF011EC77F055C02FF056C0B8
:1012000030F057C031F058C032F00B0ED890323267
:10121000313230322F32E806F9E12FC0F3FF30C00F
:10122000F4FF120012009E0EE66E720EE66E48EC9F
:101230005BF0E552E5520901010EB66F29EC5CF056
:101240008AEC00F0F3CF03F4F4CF04F404010B5163
:10125000F35C2F6EF4500C55306E2FC0E6FFE66E37
:1012600092EC52F0E552E552F3CF05F4F4CF06F4D8
:10127000E66A010EE66E03C42FF004C430F0316A52
:10128000326A30AE02D0316832680B0ED8902F36F9
:10129000303631363236E806F9E1F60E5E6E0D0E66
:1012A0005F6E606A616A2FC059F030C05AF031C079
:1012B0005BF032C05CF08AEC74F059C02FF05AC079
:1012C00030F05BC031F05CC032F059C0E6FF5AC06C
:1012D000E6FF5BC0E6FF5CC0E6FF03EC5DF0336E4B
:1012E000060EE15E3350BF0EE66E720EE66E48ECFF
:1012F0005BF0E552E552E66A010EE66E05C42FF09A
:1013000006C430F0316A326A30AE02D031683268D9
:101310000B0ED8902F36303631363236E806F9E1EA
:10132000F60E5E6E0D0E5F6E606A616A2FC059F038
:1013300030C05AF031C05BF032C05CF08AEC74F01F
:1013400059C02FF05AC030F05BC031F05CC032F0B1
:1013500059C0E6FF5AC0E6FF5BC0E6FF5CC0E6FF8F
:1013600003EC5DF0336E060EE15E3350B10EE66EB7
:10137000720EE66E48EC5BF0E552E55212005F0E2D
:10138000E66E720EE66E48EC5BF0E552E55274ECE8
:101390005CF07808FCE14F0EE66ED5DEE552070EF4
:1013A000E66EE66A04EC31F0E552E552430EE66E75
:1013B000CADEE552090EE66E720EE66E48EC5BF090
:1013C000E552E55274EC5CF07808FCE1450EE66EFF
:1013D000BADEE552F00EE66E710EE66E48EC5BF09A
:1013E000E552E552320EE66EE66A04EC31F0E55263
:1013F000E55293EF01F00901010EB66F67EC5FF063
:10140000420EE66E09EC60F0E552470EE66E09EC1E
:1014100060F0E552740EE66E09EC60F0E552720E73
:10142000E66E09EC60F0E55284EC5FF00901B66B02
:10143000010EE66EE66A04EC31F0E552E5524C0E20
:10144000E66E81DEE552010EE66EE66A04EC31F0EE
:10145000E552E5524F0EE66E76DEE552320EE66E4E
:10146000E66A04EC31F0E552E55212000901010E82
:10147000B66F420EE66E61EC61F0E5520901379DF0
:10148000E8B0378D0901B66B09013751400B01E017
:04149000010E120037
:0C149400D9CFE6FFE1CFD9FFFB0EDBCF84
:1014A00059F0FC0EDBCF5AF0FD0EDBCF5BF0FE0EE9
:1014B000DBCF5CF03F0E5E6E070E5F6E606A616AA6
:1014C00011EC77F055C059F056C05AF057C05BF098
:1014D00058C05CF0A00E5E6E860E5F6E010E606EF0
:1014E000616A8AEC74F0E552E7CFD9FF1200D9CFD8
:1014F000E6FFE1CFD9FFFB0EDBCF59F0FC0EDBCFCF
:101500005AF0FD0EDBCF5BF0FE0EDBCF5CF03F0E42
:101510005E6E070E5F6E606A616A11EC77F055C00F
:1015200059F056C05AF057C05BF058C05CF0100E2E
:101530005E6E270E5F6E606A616A8AEC74F0E55237
:10154000E7CFD9FF1200D9CFE6FFE1CFD9FFFB0EDD
:10155000DBCF59F0FC0EDBCF5AF0FD0EDBCF5BF09A
:10156000FE0EDBCF5CF0A00E5E6E860E5F6E010E8F
:10157000606E616A11EC77F055C059F056C05AF0B0
:1015800057C05BF058C05CF03F0E5E6E070E5F6E9A
:10159000606A616A8AEC74F0E552E7CFD9FF120005
:1015A000D9CFE6FFE1CFD9FF0801CF6BD06BD16B6C
:1015B0000A01AD5136E1FE0EDBCFCEF8FD0EDB5059
:1015C0000801D880CE552DE3CFC82FF0D0C830F019
:1015D000D1C831F00A0E5F6E606A616ACFC85AF0F6
:1015E000D0C85BF0D1C85CF0EBEC74F00801CE51D0
:1015F000EA6A000FE96E070EEA22EFCF32F0336A93
:10160000346A57503224CF6F58503320D06F59501E
:101610003420D16F300ECF5F000ED05BD15BCE2B6C
:10162000CDD7CFC85AF0D0C85BF0D1C85CF0E55236
:10163000E7CFD9FF1200D9CFE6FFE1CFD9FF0801EC
:10164000DE6BDF6BE06BE16B0A01AD5101E0CBD0EB
:10165000FE0EDB50040F0801E26FE251EA6A000F50
:10166000E96E070EEA22EF502E0802E0E22BF5D7D2
:10167000030EE25DE66EFE0EDBCFE6FF91DFE55284
:10168000E5525AC0D2F85BC0D3F85CC0D4F8080168
:10169000D56BD4BFD569E205E66E020EE25DE66E5B
:1016A0007FDFE552E5525AC0D6F85BC0D7F85CC080
:1016B000D8F80801D96BD8BFD969FD0EDB50D880A6
:1016C000E255040814E2050EE225E66EE229E66E14
:1016D00067DFE552E5525AC0DAF85BC0DBF85CC060
:1016E000DCF80801DD6BDCAF2BD0DD6929D0040EFE
:1016F000E225E66EE229E66E53DFE552E5525AC076
:10170000DAF85BC0DBF85CC0DCF80801DD6BDCBF3D
:10171000DD690A0E5E6E5F6A606A616ADAC859F056
:10172000DBC85AF0DCC85BF0DDC85CF011EC77F088
:1017300055C0DAF856C0DBF857C0DCF858C0DDF801
:10174000D2C82FF0D3C830F0D4C831F0D5C832F0A9
:10175000800E5E6E8D0E5F6E5B0E606E616AD2C82B
:1017600059F0D3C85AF0D4C85BF0D5C85CF011EC7E
:1017700077F055C02FF056C030F057C031F058C048
:1017800032F0D6C833F0D7C834F0D8C835F0D9C84D
:1017900036F0A00E5E6E860E5F6E010E606E616AA0
:1017A000D6C859F0D7C85AF0D8C85BF0D9C85CF091
:1017B00011EC77F055502F265650302257503122D9
:1017C00058503222DA0EE96E080EEA6E2F50EE24DF
:1017D0000801DE6F3050EE20DF6F3150EE20E06FF9
:1017E0003250EE20E16FDEC859F0DFC85AF0E0C891
:1017F0005BF0E1C85CF0E552E7CFD9FF1200D9CF2A
:10180000E6FFE1CFD9FF0801E36BE46BE56BE66B24
:101810000A01AD5101E09AD0FE0EDB28E66EFE0E05
:10182000DBCFE6FFBDDEE552E5525AC02FF05BC0CC
:1018300030F05CC031F0326A31BE3268100E5E6E3C
:101840000E0E5F6E606A616A2FC059F030C05AF0A8
:1018500031C05BF032C05CF011EC77F055C02FF076
:1018600056C030F057C031F058C032F055C0E6FFD6
:1018700056C0E6FF57C0E6FF58C0E6FFFE0EDB503D
:10188000030FE66EFE0EDB50020FE66E89DEE552B8
:10189000E552E552E7CF32F0E552E7CF31F0E552BD
:1018A000E7CF30F0E552E7CF2FF05AC033F05BC0FE
:1018B00034F05CC035F03C0E5F6E606A616AEBEC40
:1018C00074F057C033F058C034F059C035F0366A60
:1018D00035BE366833502F263450302235503122F1
:1018E000365032222FC0E6FF30C0E6FF31C0E6FF9F
:1018F00032C0E6FFFD0EDBCFE6FFFE0EDB50040F2D
:10190000E66E4EDEE552E552E552E7CF32F0E552A3
:10191000E7CF31F0E552E7CF30F0E552E7CF2FF0D7
:101920005AC037F05BC038F05CC039F03A6A39BE53
:101930003A682F5037240801E36F30503820E46FA5
:1019400031503920E56F32503A20E66FE3C859F044
:10195000E4C85AF0E5C85BF0E6C85CF0E552E7CFB2
:10196000D9FF1200AACAABFA0A01AA51EA6A000F0B
:10197000E96E070EEA22EFCFE7F82C0E0801E75DCB
:1019800009E02A0EE75D06E00A01A951AA5D02E21C
:10199000AA2BEBD70A01AA05AC6FAA2BAB51AC5D01
:1019A00002E3000E01D0010EAD6F1200DBDFDADFC3
:1019B000ACCAE6FFABCAE6FF22DFE552E55259C0EA
:1019C000A0F75AC0A1F75BC0A2F75CC0A3F7CADFBB
:1019D000ACCAE6FFABCAE6FF2EDEE552E55259C0BF
:1019E000A8F75AC0A9F75BC0AAF75CC0ABF7BADF8B
:1019F0000A01AB51EA6A000FE96E070EEA22EF50C6
:101A0000530809E1000E0701A86DA91FA923AA1F09
:101A1000AA23AB1FAB23A6DFACCAE6FFABCAE6FF27
:101A20000ADEE552E55259C0ACF75AC0ADF75BC0CB
:101A3000AEF75CC0AFF796DF0A01AB51EA6A000F60
:101A4000E96E070EEA22EF50570809E1000E070180
:101A5000AC6DAD1FAD23AE1FAE23AF1FAF2382DF32
:101A6000ACCAE6FFABCAE6FF9BDDE552E5525AC0C1
:101A7000E6F778DFACCAE6FFABCAE6FF91DDE552D8
:101A8000E5525AC0E5F76EDF030E0A01AC5DE66E63
:101A9000ABCAE6FF85DDE552E5525AC032F05BC0C5
:101AA00033F05CC034F0640E5F6E606A616AEBEC28
:101AB00074F057C032F058C033F059C034F057C0FA
:101AC000E6FF58C0E6FF59C0E6FFACCAE6FF0A01D0
:101AD000AC05E66E65DDE552E552E552E7CF34F040
:101AE000E552E7CF33F0E552E7CF32F032505A24D7
:101AF0002F6E33505B20306E34505C20316E2FC01F
:101B0000E7F730C0E8F72EDF020E0A01AC5DE66EA3
:101B1000ABCAE6FF45DDE552E5525AC02FF05BC087
:101B200030F05CC031F0326A31BE32680A0E5E6E4F
:101B30005F6A606A616A2FC059F030C05AF031C0E4
:101B40005BF032C05CF011EC77F055C02FF056C05E
:101B500030F057C031F058C032F055C0E6FF56C0E3
:101B6000E6FF57C0E6FF58C0E6FFACCAE6FFACCAC6
:101B7000E6FF16DDE552E552E552E7CF32F0E552D9
:101B8000E7CF31F0E552E7CF30F0E552E7CF2FF065
:101B90005AC033F05BC034F05CC035F00A0E5F6EA3
:101BA000606A616AEBEC74F057C033F058C034F0EF
:101BB00059C035F0366A35BE366833502F2634505A
:101BC000302235503122365032222FC0C4F730C077
:101BD000C5F731C0C6F7010E0701E65D03E3060E47
:101BE000E55D02E2000E01D0010E0901339DE8B06F
:101BF000338D040E745C63E10301DD510701E819C4
:101C0000E8AE02D0E83507D0E7510301DC5D0701FB
:101C1000E8510301DD5905E2E7C7DCF3E8C7DDF36E
:101C200014D00701E8510301DB19E8AE02D0DB351F
:101C300007D0DA510701E75D0301DB510701E859DD
:101C400004E2E7C7DAF3E8C7DBF30701E5512F6EDB
:101C5000306A0301D7513018E8AE02D0303404D0D6
:101C60002F50D65D3050D75906E20701E5510301E8
:101C7000D66FD76B15D00701E5512F6E306A03017F
:101C80003050C719E8AE02D0C73504D0C6512F5C1A
:101C9000C751305805E20701E5510301C66FC76B14
:101CA0000701E83504E2E7519608000EE85502E323
:101CB000000E01D0010E09013497E8B034871200FC
:101CC00051DE50DE4FDE0A01AB51EA6A000FE96EC9
:101CD000070EEA22EF50410801E02CD10901338DB3
:101CE00041DEACCAE6FFABCAE6FFA5DCE552E55231
:101CF00059C0A8F75AC0A9F75BC0AAF75CC0ABF7F8
:101D000031DE0A01AB51EA6A000FE96E070EEA22E2
:101D1000EF50530809E1000E0701A86DA91FA92380
:101D2000AA1FAA23AB1FAB231DDEACCAE6FFABCABA
:101D3000E6FF81DCE552E55259C0ACF75AC0ADF779
:101D40005BC0AEF75CC0AFF70DDE0A01AB51EA6ACB
:101D5000000FE96E070EEA22EF50570809E1000E66
:101D60000701AC6DAD1FAD23AE1FAE23AF1FAF2378
:101D7000F9DDACCAE6FF0A01AC05E66E11DCE552FE
:101D8000E5525AC02FF05BC030F05CC031F0326ACF
:101D900031BE32682FC0E6FF30C0E6FF31C0E6FF3B
:101DA00032C0E6FF030E0A01AC5DE66EABCAE6FF89
:101DB000D0EC0AF0E552E552E552E7CF32F0E552B9
:101DC000E7CF31F0E552E7CF30F0E552E7CF2FF023
:101DD0005AC059F05BC05AF05CC05BF05C6A5BBEF5
:101DE0005C68640E5E6E5F6A606A616A11EC77F02F
:101DF000555000012F240801E86F56500001302093
:101E00000801E96F5750000131200801EA6F58506E
:101E1000000132200801EB6F0D0E5E6E5F6A606A92
:101E2000616AE8C859F0E9C85AF0EAC85BF0EBC843
:101E30005CF011EC77F055C0E8F856C0E9F857C0EF
:101E4000EAF858C0EBF856C0E1F757C0E2F78ADD70
:101E5000ACCAE6FF0A01AC05E66ED0EC0AF0E5522A
:101E6000E5525AC02FF05BC030F05CC031F0326AEE
:101E700031BE32682FC0E6FF30C0E6FF31C0E6FF5A
:101E800032C0E6FF030E0A01AC5DE66EABCAE6FFA8
:101E9000D0EC0AF0E552E552E552E7CF32F0E552D8
:101EA000E7CF31F0E552E7CF30F0E552E7CF2FF042
:101EB0005AC059F05BC05AF05CC05BF05C6A5BBE14
:101EC0005C68640E5E6E5F6A606A616A11EC77F04E
:101ED000555000012F240801E86F565000013020B2
:101EE0000801E96F5750000131200801EA6F58508E
:101EF000000132200801EB6F2D0E5E6E5F6A606A92
:101F0000616AE8C859F0E9C85AF0EAC85BF0EBC862
:101F10005CF011EC77F055C0E8F856C0E9F857C00E
:101F2000EAF858C0EBF856C0DFF757C0E0F70901F0
:101F3000398D12000901399D1200AECA2FF0AFCAC7
:101F400030F0316A326A30AE02D0316832681E0E2B
:101F50002F1801E02DD1305001E02AD1315001E09D
:101F600027D1325001E024D109013351400B01E166
:101F70001FD1A0C7A4F7A1C7A5F7A2C7A6F7A3C7FB
:101F8000A7F7A8C7B0F7A9C7B1F7AAC7B2F7ABC7F9
:101F9000B3F7A8C7D5F7A9C7D6F7AAC7D7F7ABC76E
:101FA000D8F7A8C7CDF7A9C7CEF7AAC7CFF7ABC751
:101FB000D0F7A8C7BCF7A9C7BDF7AAC7BEF7ABC77C
:101FC000BFF7ACC7B4F7ADC7B5F7AEC7B6F7AFC785
:101FD000B7F7ACC7D9F7ADC7DAF7AEC7DBF7AFC70E
:101FE000DCF7ACC7D1F7ADC7D2F7AEC7D3F7AFC7F1
:101FF000D4F7ACC7C0F7ADC7C1F7AEC7C2F7AFC71C
:10200000C3F70701E16BE26B3DEC6FF05AC024FFB0
:102010005BC025FF5CC026FFA8C7ECF8A9C7EDF898
:10202000AAC7EEF8ABC7EFF8C00E5E6E270E5F6E64
:10203000090E606E616AA8C759F0A9C75AF0AAC70D
:102040005BF0ABC75CF08AEC74F059C0ECF85AC096
:10205000EDF85BC0EEF85CC0EFF859C0E6FF5AC07F
:10206000E6FF5BC0E6FF5CC0E6FF3EEC34F0E55205
:10207000E552E552E55259C0ECF85AC0EDF85BC0A4
:10208000EEF85CC0EFF859C02FF05AC030F05BC0DA
:1020900031F05CC032F0F60E5E6E0D0E5F6E606A5F
:1020A000616A11EC77F055C02FF056C030F057C080
:1020B00031F058C032F00B0ED8903232313230321B
:1020C0002F32E806F9E12FC0ECF830C0EDF831C04E
:1020D000EEF832C0EFF82FC0E6FF30C0E6FF4DEC5F
:1020E00054F0E552E552F3CFDDF7F4CFDEF7C4C785
:1020F000CAF7C5C7CBF7C6C7CCF7C4C72FF0C5C74B
:1021000030F0C6C731F0640E5F6E606A616AC4C7A2
:102110005AF0C5C75BF0C6C75CF05DEC74F05AC0FE
:102120002FF05BC030F05CC031F05AC0E6FF5BC0FE
:10213000E6FF0C0EE66E010EE66E01EC72F0E55263
:10214000E552E552E552A8C7E6FFA9C7E6FFAAC7D0
:10215000E6FFABC7E6FF0E0EE66E010EE66E31EC53
:1021600072F02F6E060EE15E2F50ACC7E6FFADC7D2
:10217000E6FFAEC7E6FFAFC7E6FF120EE66E010E42
:10218000E66E31EC72F02F6E060EE15E2F50090103
:1021900033BF0DD0E66A020EE66E88EC31F0E552F0
:1021A000E552010E0301D86FD96B0901338F3689CF
:1021B00012000A01AA6B50C7A9FA07019F51010A30
:1021C00005E0010A04E1D6EC0CF001D079DD09014B
:1021D00033ADA4D13DEC6FF00F0124515A5C0801DE
:1021E000F96F0F0125515B580801FA6F0F01265155
:1021F0005C580801FB6F3DEC6FF05AC024FF5BC0D8
:1022000025FF5CC026FFAECA2FF0AFCA30F0316A9E
:10221000326A30AE02D031683268D8903250000A4B
:1022200008E61E0E2F5C000E3058000E3158000ECE
:10223000325822E20901339DE7C72FF0E8C730F09A
:10224000316A326A30AE02D0316832683234000E00
:10225000321809E6D880820E2F54000E3054000E3A
:102260003154000E325405E30A01AE2B000EAF23A9
:1022700003D00A01AE6BAF6B090133AF1ED107016A
:10228000CA51C45DC76FCB51C559C86FCC51C6592F
:10229000C96FB00EE96E070EEA6EEE50A85D2F6EA4
:1022A000EE50A959306EEE50AA59316EEE50AB592E
:1022B0002FC0F6F830C0F7F831C0F8F8B40EE96E68
:1022C000070EEA6EEE50AC5D2F6EEE50AD59306EDB
:1022D000EE50AE59316EEE50AF592FC0F3F830C00A
:1022E000F4F831C0F5F8F6C82FF0F7C830F0F8C8A8
:1022F00031F0326A31BE32682FC0E6FF30C0E6FFEF
:1023000031C0E6FF32C0E6FF3EEC34F0E552E55264
:10231000E552E552F3C833F0F4C834F0F5C835F0AF
:10232000366A35BE366833C0E6FF34C0E6FF35C0D6
:10233000E6FF36C0E6FF3EEC34F0E552E552E552EA
:10234000E55259C0F0F85AC0F1F85BC0F2F859C034
:102350002FF05AC030F05BC031F0326A31BE3268C3
:102360003234000E321809E6D8801C0E2F54020EAB
:102370003054000E3154000E325401E38ED003016C
:10238000EC2B000EED23EEC32FF0EFC330F0316ADB
:1023900030BE316831500801F219E8AE02D0F23592
:1023A00006D0F0512F5CF1513058F251315804E20F
:1023B000F0C8EEF3F1C8EFF3360EE66EE66AE66AB1
:1023C000E66AA8C7E6FFA9C7E6FFAAC7E6FFABC74C
:1023D000E6FFB0C7E6FFB1C7E6FFB2C7E6FFB3C787
:1023E000E6FFA5EC33F02F6E0C0EE15E2F5059C0C6
:1023F000A8F75AC0A9F75BC0AAF75CC0ABF7360EC6
:10240000E66EE66AE66AE66AACC7E6FFADC7E6FFD7
:10241000AEC7E6FFAFC7E6FFB4C7E6FFB5C7E6FF46
:10242000B6C7E6FFB7C7E6FFA5EC33F02F6E0C0E7C
:10243000E15E2F5059C0ACF75AC0ADF75BC0AEF7A4
:102440005CC0AFF7B00EE96E070EEA6EEE50070102
:10245000A85D2F6EEE50A959306EEE50AA59316E1C
:10246000EE50AB592FC0F6F830C0F7F831C0F8F88D
:10247000B40EE96E070EEA6EEE50595C2F6EEE5008
:102480005A58306EEE505B58316EEE505C582FC08B
:10249000F3F830C0F4F831C0F5F8A8C7B0F7A9C711
:1024A000B1F7AAC7B2F7ABC7B3F7ACC7B4F7ADC7BC
:1024B000B5F7AEC7B6F7AFC7B7F7040E745C35E132
:1024C000C0C32FF0C1C330F0316A30BE3168315023
:1024D0000701C919E8AE02D0C93506D0C7512F5C33
:1024E000C8513058C951315804E2C7C7C0F3C8C7F2
:1024F000C1F30301CD510701E219E8AE02D0E23584
:1025000007D0E1510301CC5D0701E2510301CD5930
:102510000CE2E1C7CCF3E2C7CDF31200040E745C09
:1025200004E10301D42B000ED5231200775056E0AE
:1025300009013951800B52E038A53AD0776A020E72
:10254000E66E1FEC76F0E552040EE66E2BEC76F0AC
:10255000E552090138952DDE090133AD1ED0040E78
:10256000E66E2BEC76F0E552090138973DEC6FF002
:102570005AC02FF05BC030F05CC031F0326AD00E30
:102580002F26070E3022000E312232222FC02AFFC2
:1025900030C02BFF31C02CFF05D0040EE66E1FECBF
:1025A00076F0E552020EE66E2BEC76F0E552120064
:1025B0003DEC6FF05A500F012A5D5B502B595C5077
:1025C0002C5907E20901339D040EE66E1FEC76F0EC
:1025D000E552020EE66E2BEC76F0E55212000A018F
:1025E000AA6B0701DD6B010EDE6FE76BE86BE56B35
:1025F000E5C7E6F7E5C7A0F7A16BA26BA36BC46BB9
:10260000C56BC66BC4C7C7F7C5C7C8F7C6C7C9F788
:10261000000EE36FE46BE16FE26BDF6FE06BA86BC2
:10262000A96BAA6BAB6BA8C7B0F7A9C7B1F7AAC7CC
:10263000B2F7ABC7B3F7A8C7D5F7A9C7D6F7AAC7EC
:10264000D7F7ABC7D8F7A8C7CDF7A9C7CEF7AAC7A2
:10265000CFF7ABC7D0F7A8C7BCF7A9C7BDF7AAC7C4
:10266000BEF7ABC7BFF7AC6BAD6BAE6BAF6BACC7B8
:10267000B4F7ADC7B5F7AEC7B6F7AFC7B7F7ACC7D6
:10268000D9F7ADC7DAF7AEC7DBF7AFC7DCF7ACC732
:10269000D1F7ADC7D2F7AEC7D3F7AFC7D4F7ACC742
:1026A000C0F7ADC7C1F7AEC7C2F7AFC7C3F7E66A99
:1026B000E66AE66AE66A0E0EE66E010EE66E31EC3A
:1026C00072F02F6E060EE15E2F50E66AE66AE66A49
:1026D000E66A120EE66E010EE66E31EC72F02F6EB7
:1026E000060EE15E2F50000EE66EE66A0C0EE66EF8
:1026F000010EE66E01EC72F0E552E552E552E5524C
:102700000A01AE6BAF6B09013895339D339F266A82
:022710001200B5
:0E27120006012351205D3D6F245121593E6F79
:10272000255122593F6F37C632F038C633F0346A2C
:1027300033BE34683F513418E8AE02D0343406D08A
:1027400032503D5D33503E5934503F5909E237C64F
:102750002FF038C630F0316A30AE19D0316817D05A
:102760003F35000E3F1907E6D880640E3D55000E38
:102770003E55000E3F5505E2640E2F6E306A316AF9
:1027800006D03DC62FF03EC630F03FC631F02FC018
:1027900046F630C047F633512F5C406F3451305805
:1027A000416F4EC82FF0306A2FBE30682F50400363
:1027B000F3CF42F6F4CF43F64103F35043273050B2
:1027C0004003F350432761C82FF0306A2FBE3068B2
:1027D00040C65BF041C65CF02FC060F030C061F0D5
:1027E000BEEC74F05950060135275A50362376C88E
:1027F0002FF0306A2FBE30682F6C301E000E302252
:1028000036513018E8AE02D0303404D02F50355D48
:10281000305036590AE276C835F6366B35BF366920
:10282000356D361F000E362319D076C831F0326A66
:1028300031BE326832503619E8AE02D0363504D097
:102840003551315C3651325807E276C835F6366B71
:1028500035AF04D0366902D036C636F635C644F6F2
:1028600036C645F6060EE66E425144252F6E43519C
:102870004521306E2FC0E6FFE66EBAEC51F0E5520E
:10288000E552E552F3CF48F6F4CF49F6F3CF33F0F3
:10289000F4CF34F0356A366A34AE02D03568366823
:1028A000D8803650FF0A08E6B00E335CFF0E34586D
:1028B000FF0E3558FF0E365804E2B00E2F6E30680A
:1028C00020D048C637F049C638F0396A3A6A38AE7F
:1028D00002D039683A683A34000E3A1809E6D880CE
:1028E000500E3754000E3854000E3954000E3A542E
:1028F00004E2500E2F6E306A04D048C62FF049C64D
:1029000030F02FC02BF630C02CF6120077502CE0A0
:1029100009013951800B03E13351010B25E021EC12
:1029200025F0090139A529D0776A34EC75F042EC1D
:1029300066F0090135AF0DD099CA23F69ACA24F67C
:102940000601256B24BF256931C633F632C634F63D
:1029500014D0A3C623F6A4C624F6A5C625F62DC614
:1029600033F62EC634F609D0000E0601336F346BF1
:10297000236F246B256B24BF2569090133A1E4D0A3
:1029800039A500D1776A3651800B05E1755006E014
:102990003651010B03E0348DBCDED3D034AB26D0EE
:1029A000349D23C6E6FF24C6E6FF25C6E6FFCEEC2F
:1029B00072F0E552E552E5520601800E2C1507E053
:1029C000010E2B252B6F000E2C212C6FBAD02C352D
:1029D0000AE22B510008000E2C5505E2010E2B5F78
:1029E000000E2C5BAED02B6B2C6BABD0348D91DEFC
:1029F0000401C85106012B254A6F0401C951060183
:102A00002C214B6F33C62FF034C630F0316A326A56
:102A100030AE02D0316832682FC0E6FF30C0E6FF2A
:102A200031C0E6FF32C0E6FF3EEC34F0E552E5523D
:102A3000E552E552D8905C50000A08E6320E595C27
:102A4000000E5A58000E5B58000E5C5801E379D016
:102A50004AC633F04BC634F0356A366A34AE02D01B
:102A6000356836683634000E361809E6D880480EC8
:102A70003354000E3454000E3554000E365461E2C7
:102A8000030EE66E070E5B6E5C6AC4C460F0C5C4DC
:102A900061F0BEEC74F0595006014A252F6E5A5071
:102AA0004B21306E2FC0E6FFE66EBAEC51F0E552D6
:102AB000E552E552F3CFC4F4F4CFC5F4F3CF33F0CD
:102AC000F4CF34F0356A366A34AE02D035683668F1
:102AD000D8903650000A08E6480E335C000E345891
:102AE000000E3558000E365802E2480E19D0C4C404
:102AF00037F0C5C438F0396A3A6A38AE02D039685E
:102B00003A683A34000E3A1809E6D880900E3754E5
:102B1000000E3854000E3954000E3A5404E2900E60
:102B20002F6E306A04D0C4C42FF0C5C430F0316AAF
:102B3000326A2FC0C4F430C0C5F42FC0C2F430C014
:102B4000C3F409013995120039950601356B366BCE
:102B5000800E2C1507E0010E2B252B6F000E2C216B
:102B60002C6F0ED02C350AE22B510008000E2C558C
:102B700005E2010E2B5F000E2C5B02D02B6B2C6B41
:102B80000901349D1200ECC7E9FFEA6AE9BEEA6870
:102B9000D890E936EA36000EE926030EEA22EECF97
:102BA0000AF6EFCF0BF606010C6B0BBF0C69ECC7F6
:102BB000E9FFEA6AE9BEEA68D890E936EA36600ECB
:102BC000E926030EEA22EECF0DF6EFCF0EF60F6BDD
:102BD0000EBF0F69090136BD08D0000E0201EF6F6C
:102BE000F06B9A6F9B6B456F466B6DC232F06EC295
:102BF00033F0326C331E000E3322346A33BE346835
:102C000032C05AF033C05BF034C05CF00AC65FF0EB
:102C10000BC660F00CC661F0EBEC74F057C02FF0FF
:102C200058C030F059C031F018C235F019C236F032
:102C3000376A36BE376835C05AF036C05BF037C0E9
:102C40005CF00DC65FF00EC660F00FC661F0EBECF5
:102C500074F02F50572406014C6F305058204D6FA0
:102C6000315059204E6F4DC643F2E8CF44F26DC249
:102C700032F06EC233F0346A33BE346832C05AF078
:102C800033C05BF034C05CF00DC65FF00EC660F080
:102C90000FC661F0EBEC74F057C02FF058C030F065
:102CA00059C031F018C235F019C236F0376A36BE55
:102CB000376835C05AF036C05BF037C05CF00AC6E2
:102CC0005FF00BC660F00CC661F0EBEC74F02F50B7
:102CD000572406014C6F305058204D6F3150592009
:102CE0004E6F4DC698F2E8CF99F212000601396B8B
:102CF000010E3A6F3B6B3C6B1200D9CFE6FFE1CF80
:102D0000D9FF050EE66EFD0EDBCFE9FFFE0EDBCF31
:102D1000EAFF040EE926000EEA22EECF3BF0EECFEA
:102D20003CF0EECF3DF0EFCF3EF0FD0EDBCFE9FF04
:102D3000FE0EDBCFEAFF2A0EE926000EEA22EECFD6
:102D400037F0EFCF38F0396A3A6A38AE02D03968D6
:102D50003A6837C059F038C05AF039C05BF03AC011
:102D60005CF03BC05EF03CC05FF03DC060F03EC038
:102D700061F011EC77F055C033F056C034F057C015
:102D800035F058C036F0FD0EDBCFE9FFFE0EDBCF8D
:102D9000EAFF0C0EE926000EEA22EECF45F0EECF58
:102DA00046F0EECF47F0EFCF48F0FD0EDBCFE9FF66
:102DB000FE0EDBCFEAFF2A0EE926000EEA22EECF56
:102DC00043F0EFCF44F0FD0EDBCFE9FFFE0EDBCF8B
:102DD000EAFF2C0EE926000EEA22EE50435C3F6E1D
:102DE000EE504458406E416A426A40AE02D041689B
:102DF00042683FC059F040C05AF041C05BF042C049
:102E00005CF045C05EF046C05FF047C060F048C06F
:102E100061F011EC77F05550335C2F6E56503458FA
:102E2000306E57503558316E58503658326E2FC06C
:102E3000E6FF30C0E6FF31C0E6FFE66E0AEC52F076
:102E4000496E050EE15E495059C056F65AC057F614
:102E50005BC058F65CC059F6090EE66EFD0EDBCF7E
:102E6000E9FFFE0EDBCFEAFF080EE926000EEA229C
:102E7000EECF37F0EECF38F0EECF39F0EFCF3AF0BB
:102E8000FD0EDBCFE9FFFE0EDBCFEAFF240EE926C5
:102E9000000EEA22EECF33F0EFCF34F0356A366A17
:102EA00034AE02D03568366833C059F034C05AF0B9
:102EB00035C05BF036C05CF037C05EF038C05FF004
:102EC00039C060F03AC061F011EC77F055C02FF0D6
:102ED00056C030F057C031F058C032F055C0E6FF50
:102EE00056C0E6FF57C0E6FF58C0E6FF0AEC52F0B6
:102EF0003B6E050EE15E3B5059C052F65AC053F688
:102F00005BC054F65CC055F6FD0EDBCFE9FFFE0E4C
:102F1000DBCFEAFFEECF33F0EFCF34F0336C341E6B
:102F2000000E3422356A366A34AE02D0356836680F
:102F3000060155513618E8AE02D0363408D0335069
:102F4000525D34505359355054593650555913E247
:102F5000FD0EDBCFE9FFFE0EDBCFEAFFEECF2FF059
:102F6000EFCF30F02F6C301E000E3022316A326A03
:102F700030AE39D02DD0FD0EDBCFE9FFFE0EDBCF1A
:102F8000EAFFEECF37F0EFCF38F0396A3A6A38AE61
:102F900002D039683A683A505519E8AE02D0553532
:102FA00008D05251375C5351385854513958555103
:102FB0003A5811E2FD0EDBCFE9FFFE0EDBCFEAFF50
:102FC000EECF2FF0EFCF30F0316A326A30AE0BD057
:102FD0003168326808D052C62FF053C630F054C65C
:102FE00031F055C632F02F5056273050572331500C
:102FF00058233250592356C659F057C65AF058C66E
:103000005BF059C65CF039C65EF03AC65FF03BC66D
:1030100060F03CC661F011EC77F055C04FF656C039
:1030200050F657C051F656C056F657C057F606012F
:10303000586B596B57AF02D058695969FD0EDBCFF9
:10304000E9FFFE0EDBCFEAFF430EE926000EEA227F
:10305000EECF33F0EFCF34F0356A366A34AE02D0BB
:1030600035683668565133242F6E57513420306EF0
:1030700058513520316E59513620326E000E2F6C6A
:10308000301E3022311E3122321E3222FD0EDBCFA5
:10309000E9FFFE0EDBCFEAFF510EE926000EEA2221
:1030A0002FC0EEFF30C0EDFFFD0EDBCFE9FFFE0EBF
:1030B000DBCFEAFF2A0EE926000EEA22EECF2FF040
:1030C000EFCF30F0FD0EDBCFE9FFFE0EDBCFEAFFE6
:1030D0002C0EE926000EEA222FC0EEFF30C0EDFFD5
:1030E000E552E7CFD9FF1200D9CFE6FFE1CFD9FFF4
:1030F000FD0EDBCFE9FFFE0EDBCFEAFF260EE92651
:10310000000EEA22EECF6AF6EFCF6BF606016C6B8B
:103110006D6B6BAF02D06C696D69FD0EDBCFE9FFA3
:10312000FE0EDBCFEAFF280EE926000EEA22EECFE4
:103130006EF6EFCF6FF6706B716B6FAF02D0706988
:103140007169FD0EDBCFE9FFFE0EDBCFEAFF240E37
:10315000E926000EEA22EECF2FF0EFCF30F0316AF1
:10316000326A30AE02D031683268FD0EDBCFE9FF43
:10317000FE0EDBCFEAFF430EE926000EEA22EECF79
:1031800059F0EFCF5AF05B6A5C6A5AAE02D05B68C6
:103190005C68300E5E6E5F6A606A616A11EC77F09F
:1031A00000012F50555C0601666F000130505658E3
:1031B0000601676F0001315057580601686F000122
:1031C000325058580601696FD880E850FF0A08E667
:1031D000940E665DE40E6759FF0E6859FF0E69593B
:1031E00007E2940E666FE40E676F6869696917D02D
:1031F0006935000E691909E6D8806C0E66551B0EFC
:103200006755000E6855000E695507E26C0E666F33
:103210001B0E676F686B696B02D069C669F60A0E90
:10322000E66EFD0EDBCFE9FFFE0EDBCFEAFF040EFC
:10323000E926000EEA22EECF33F0EECF34F0EECFE7
:1032400035F0EFCF36F066C659F067C65AF068C65B
:103250005BF069C65CF033C05EF034C05FF035C02F
:1032600060F036C061F011EC77F055C02FF056C019
:1032700030F057C031F058C032F055C0E6FF56C0AC
:10328000E6FF57C0E6FF58C0E6FF0AEC52F0376E83
:10329000050EE15E375059C05AF65AC05BF65BC066
:1032A0005CF65CC05DF6000E06015A6D5B1F5B2389
:1032B0005C1F5C235D1F5D23080EE66EFD0EDBCFF9
:1032C000E9FFFE0EDBCFEAFF0C0EE926000EEA2234
:1032D000EECF37F0EECF38F0EECF39F0EFCF3AF057
:1032E0006A0EE96E060EEA6EEE50665D336EEE50C3
:1032F0006759346EEE506859356EEE506959366E26
:1033000033C059F034C05AF035C05BF05C6E37C042
:103310005EF038C05FF039C060F03AC061F011EC87
:1033200077F055C02FF056C030F057C031F058C07C
:1033300032F055C0E6FF56C0E6FF57C0E6FF58C062
:10334000E6FF0AEC52F03B6E050EE15E3B5059C0C1
:103350005EF65AC05FF65BC060F65CC061F65E0E5A
:10336000E96E060EEA6E06015A51EE24626F5B5159
:10337000EE20636F5C51EE20646F5D51EE20656F4F
:10338000FD0EDBCFE9FFFE0EDBCFEAFF2A0EE926BA
:10339000000EEA22EECF2FF0EFCF30F0316A326A22
:1033A00030AE02D031683268620EE96E060EEA6E07
:1033B0002F50EE5C726F3050EE58736F3150EE58F4
:1033C000746F3250EE58756F050EE66EFD0EDBCF52
:1033D000E9FFFE0EDBCFEAFF100EE926000EEA221F
:1033E000EECF35F0EECF36F0EECF37F0EFCF38F04E
:1033F00072C659F073C65AF074C65BF075C65CF0BD
:1034000035C05EF036C05FF037C060F038C061F0A4
:1034100011EC77F055C031F056C032F057C033F0A0
:1034200058C034F055C0E6FF56C0E6FF57C0E6FF6F
:1034300058C0E6FF0AEC52F0396E050EE15E3950D5
:103440005AC030F0FD0EDBCFE9FFFE0EDBCFEAFF06
:10345000510EE926000EEA2259C0EEFF30C0EDFF02
:10346000FD0EDBCFE9FFFE0EDBCFEAFF260EE926DD
:10347000000EEA2266C6EEFF67C6EDFFFD0EDBCF4B
:10348000E9FFFE0EDBCFEAFF280EE926000EEA2256
:103490006EC6EEFF6FC6EDFFE552E7CFD9FF120013
:1034A000D4C2E6FFD5C2E6FF5C0EE66E070EE66EFE
:1034B00097EC34F0E552E552E552E552F3CF78F659
:1034C000F4CF79F6040EE66EAEC236F0AFC237F036
:1034D000386A37BE386878C633F079C634F0356A52
:1034E00034BE356833C05AF034C05BF035C05CF090
:1034F00036C05FF037C060F038C061F0EBEC74F0BC
:1035000057C02FF058C030F059C031F0326A31BE88
:1035100032682FC0E6FF30C0E6FF31C0E6FF32C0A0
:10352000E6FF0AEC52F0396E050EE15E395059C0E3
:103530007AF65AC07BF65BC07CF6010EE66EE66A50
:10354000E66AE66A59C02FF05AC030F05BC031F02D
:10355000326A31BE32682FC0E6FF30C0E6FF31C0AC
:10356000E6FF32C0E6FFFDC233F0FEC234F0356A3A
:10357000366A34AE02D03568366833C0E6FF34C0F0
:10358000E6FF35C0E6FF36C0E6FFA5EC33F0376E48
:103590000C0EE15E375059C07AF65AC07BF65BC01C
:1035A0007CF659C0FDF25AC0FEF253C832F0336ABD
:1035B00032BE3368326C331E000E3322346A33BE9F
:1035C000346806017C513418E8AE02D0343406D099
:1035D00032507A5D33507B5934507C590DE253C8D8
:1035E0002FF0306A2FBE30682F6C301E000E302254
:1035F000316A30AE26D01DD053C835F0366A35BE9C
:103600003668376A36BE376837507C19E8AE02D064
:103610007C3506D07A51355C7B5136587C51375811
:103620000AE253C82FF0306A2FBE3068316A30AEDC
:1036300008D0316806D07AC62FF07BC630F07CC641
:1036400031F02FC0FBF230C0FCF20201C251EF2575
:103650000601766F0201C351F0210601776F76C62D
:103660002FF0306E316A326A30AE02D03168326883
:103670002FC0E6FF30C0E6FF31C0E6FF32C0E6FFF4
:103680003EEC34F0E552E552E552E5525C34000E72
:103690005C1809E6D880050E5954000E5A54000EE5
:1036A0005B54000E5C5408E2060176510201FB5F98
:1036B000060177510201FC5B120097EC69F0C3EC44
:1036C00015F076EC16F006017D6B7D51010836E3AE
:1036D0007D51550DF3CF7EF6F4CF7FF6000E7E2799
:1036E000020E7F237EC6E9FF7FC6EAFF450EE9266C
:1036F000000EEA22EECF2FF0EFCF30F07EC6E9FFCA
:103700007FC6EAFF430EE926000EEA222F50EE267E
:103710003050ED22090138A106D07EC6E6FF7FC6F3
:10372000E6FFE2DC06D07EC6E6FF7FC6E6FF7DEC64
:1037300016F0E552E55206017D2BC7D7B1DE79C2FE
:103740003BF07AC23CF03D6A3E6A3CAE02D03D6836
:103750003E683BC0E6FF3CC0E6FF3DC0E6FF3EC022
:10376000E6FF3EEC34F0E552E552E552E55259C031
:1037700037F05AC038F05BC039F05CC03AF059C03D
:10378000E6FF5AC0E6FF5BC0E6FF5CC0E6FF24C26E
:1037900033F025C234F0356A366A34AE02D035686B
:1037A000366833C0E6FF34C0E6FF35C0E6FF36C0FA
:1037B000E6FF3EEC34F0E552E552E552E552E552C3
:1037C000E7CF3AF0E552E7CF39F0E552E7CF38F0EE
:1037D000E552E7CF37F05C503A18E8AE02D03A3401
:1037E00008D03750595C38505A5839505B583A50C5
:1037F0005C5813E279C23FF07AC240F0416A426AF3
:1038000040AE02D0416842683FC0E6FF40C0E6FFDC
:1038100041C0E6FF42C0E6FF12D024C243F025C2F9
:1038200044F0456A466A44AE02D04568466843C0E3
:10383000E6FF44C0E6FF45C0E6FF46C0E6FF3EECBB
:1038400034F0E552E552E552E55259C02FF05AC026
:1038500030F05BC031F05CC032F0D8905C50000AB0
:1038600008E6E80E2F5C030E3058000E3158000EAB
:10387000325802E3000E01D0010E09013399E8B07D
:10388000338951C267F052C268F0A6C269F0A7C27C
:103890006AF0FBC26BF0FCC26CF0DDEF22F0000EB0
:1038A0000601356F366B2B6F2C6B086F096B186B2D
:1038B000196B806B8051020834E38051550DF3CFB2
:1038C00081F6F4CF82F6000E8127020E822381C694
:1038D000E9FF82C6EAFF300EE926000EEA22EE6A10
:1038E000ED6A81C6E9FF82C6EAFF2C0EE926000ECA
:1038F000EA22EE6AED6A81C6E9FF82C6EAFF2E0E71
:10390000E926000EEA22EE6AED6A81C6E9FF82C668
:10391000EAFF530EE926000EEA22EE6AED6A802BDA
:04392000C9D71200F1
:0C39240069C8E9FFEA6AE9BEEA68D890C9
:10393000E936EA36660EE9260A0EEA22EECFE6FFFF
:10394000EFCFE6FF48EC5BF0E552E5521200D9CF2D
:10395000E6FFE1CFD9FFFD0EDBCF31F0FE0EDBCF6E
:1039600032F0D890325004E6010E315C000E32582D
:1039700002E2010E0ED0FD0EDBCF33F0FE0EDBCFE8
:1039800034F0343409E23350D008000E345404E2E9
:10399000D00E2F6E306A04D0FD0EDBCF2FF0FE0E5E
:1039A0002F50E552E7CFD9FF1200D9CFE6FFE1CF84
:1039B000D9FFFE0EDBCF32F0800E321402E02F6A08
:1039C00019D0FD0EDBCF33F0FE0EDBCF34F0050156
:1039D000A7513418E8AE02D0343404D03350A65D79
:1039E0003450A75903E2A6C52FF004D0FD0EDBCF5B
:1039F0002FF0FE0E2F50E552E7CFD9FF1200D9CF9E
:103A0000E6FFE1CFD9FFFD0EDBCF89F5FE0EDBCF60
:103A10008AF589C587F58AC588F589C585F58AC57A
:103A200086F589C583F58AC584F55B685C6867C0DF
:103A300060F068C061F0BEEC74F06B50595C2F6EA2
:103A40006C505A58306E2F50050185273050862310
:103A50006B50675C2F6E6C506858306E2F50872704
:103A6000305088235B685C6869C060F06AC061F0B0
:103A7000BEEC74F059506B242F6E5A506C20306E8F
:103A80002F50050183273050842369506B242F6EFB
:103A90006A506C20306E2F50892730508A23E552AF
:103AA000E7CFD9FF1200D9CFE6FFE1CFD9FF05015B
:103AB00084518619E8AE02D0863504D08551835DE5
:103AC0008651845905E285C5B6F586C5B7F504D09B
:103AD00083C5B6F584C5B7F5B86BB7BFB86987C5F8
:103AE0002FF088C530F0316A30BE3168B8513118D6
:103AF000E8AE02D0313406D02F50B65D3050B75901
:103B00003150B85909E287C5B6F588C5B7F5B86B25
:103B1000B7AF04D0B86902D0B8C5B8F589C52FF0E1
:103B20008AC530F0316A30BE3168B8513118E8AE1C
:103B300002D0313406D02F50B65D3050B7593150D5
:103B4000B85909E289C5B6F58AC5B7F5B86BB7AFFC
:103B500004D0B86902D0B8C5B8F5FD0EDBCF2FF0A0
:103B6000FE0EDBCF30F0316A30BE3168B60EE96E42
:103B7000050EEA6E2F50EE5CB96F3050EE58BA6FFA
:103B80003150EE58BB6FE834000EBB1907E6D88001
:103B9000000EB955000EBA55000EBB5501E3F3D027
:103BA000D00E326E336A346AFD0EDBCF35F0FE0E76
:103BB000DBCF36F0376A36BE37683550325C2F6E51
:103BC00036503358306E3750345830C031F02FC033
:103BD00030F02F6A2FC05AF030C05BF031C05CF07B
:103BE000B9C55FF0BAC560F0BBC561F05DEC74F0BB
:103BF0005AC0B0F55BC0B1F55CC0B2F5FD0EDBCFCD
:103C000032F0FE0EDBCF33F0346A33BE3468CAC400
:103C100035F0CBC436F0376A36BE37683550325C83
:103C20002F6E36503358306E3750345830C031F024
:103C30002FC030F02F6A2FC05AF030C05BF031C077
:103C40005CF0B9C55FF0BAC560F0BBC561F05DEC72
:103C500074F05AC0B3F55BC0B4F55CC0B5F5B00EF6
:103C6000E96E050EEA6E020EEB5005015C18E8AE37
:103C700002D0B53506D0B351EE5CB451EE58B55113
:103C8000EE5807E2B0C5ADF5B1C5AEF5B2C5AFF5BA
:103C900006D0B3C5ADF5B4C5AEF5B5C5AFF5800E6C
:103CA000AF1504E0010EAD6FAE6BAF6BD890AF51A6
:103CB000000A06E6000EAD5D010EAE59000EAF59CA
:103CC00060E2010EAC6F67C02FF068C030F0316A5F
:103CD00030BE31682FC05AF030C05BF031C05CF0AC
:103CE000ADC55FF0AEC560F0AFC561F0EBEC74F050
:103CF00057C0BCF558C0BDF559C0BEF558C067F0F7
:103D000059C068F069C02FF06AC030F0316A30BE27
:103D100031682FC05AF030C05BF031C05CF0ADC5E7
:103D20005FF0AEC560F0AFC561F0EBEC74F057C06A
:103D3000BCF558C0BDF559C0BEF558C069F059C0B2
:103D40006AF06BC02FF06CC030F0316A30BE316861
:103D50002FC05AF030C05BF031C05CF0ADC55FF0F1
:103D6000AEC560F0AFC561F0EBEC74F057C0BCF5C8
:103D700058C0BDF559C0BEF558C06BF059C06CF0C5
:103D800003D0AC6B01D0AC6BE552E7CFD9FF12008A
:103D90000401C9510401CB19E8AE02D0CB3507D0DC
:103DA000CA510401C85D0401CB510401C95903E2A1
:103DB0000501A36B2DD0C8C4A3F5C9C4A4F5040E96
:103DC000745C2AE106012B510501A32706012C5141
:103DD0000501A423A4510401CB19E8AE02D0CB35D0
:103DE00007D0CA510501A35D0401CB510501A459B7
:103DF00005E2CAC4A3F5CBC4A4F50ED00501A435D1
:103E000009E2A351BB08000EA45504E2BB0EA36F48
:103E1000A46B02D0A4C5A4F50401CB510501A419DB
:103E2000E8AE02D0A43507D0A3510401CA5D050154
:103E3000A4510401CB5919E2A3C5E6FFA4C5E6FFCE
:103E4000DEDDE552E552A3C5E6FFA4C5E6FF2BDEA5
:103E5000E552E5520501AC5118E0A3C5E6FFA4C543
:103E6000E6FFCDDDE552E5521200A3C587F5A4C5F6
:103E700088F5A3C585F5A4C586F5A3C583F5A4C5B6
:103E800084F5A3C589F5A4C58AF5120079C232F07C
:103E90007AC233F0346A33BE346832C05AF033C069
:103EA0005BF034C05CF00AC65FF00BC660F00CC675
:103EB00061F0EBEC74F057C02FF058C030F059C0EF
:103EC00031F024C235F025C236F0376A36BE376885
:103ED00035C05AF036C05BF037C05CF00DC65FF0FD
:103EE0000EC660F00FC661F0EBEC74F02F50572453
:103EF0000501C66F30505820C76F31505920C86F28
:103F0000C7C502F6E8CF03F679C232F07AC233F0C1
:103F1000346A33BE346832C05AF033C05BF034C008
:103F20005CF00DC65FF00EC660F00FC661F0EBEC02
:103F300074F057C02FF058C030F059C031F024C28F
:103F400035F025C236F0376A36BE376835C05AF0CC
:103F500036C05BF037C05CF00AC65FF00BC660F09D
:103F60000CC661F0EBEC74F057502F5C0501C66F86
:103F700058503058C76F59503158C86FC7C504F6EC
:103F8000E8CF05F658C832F0336A346A32AE02D050
:103F90003368346802C62FF003C630F0316A30BE91
:103FA00031682FC05AF030C05BF031C05CF032C0D5
:103FB0005FF033C060F034C061F0EBEC74F057C0D8
:103FC000C6F558C0C7F559C0C8F56DC82FF0306A9E
:103FD0002FBE30680501C7512F24C96FC85130204A
:103FE000CA6FCB6BCC6BCAAF02D0CB69CC6997C51B
:103FF0002FF098C530F0316A326A30AE02D03168A5
:1040000032682FC059F030C05AF031C05BF032C076
:104010005CF0C9C55EF0CAC55FF0CBC560F0CCC529
:1040200061F011EC77F055C0C9F556C0CAF557C01C
:10403000CBF558C0CCF56F0E0501C927000ECA2379
:10404000CB23CC23020EE66EE66AE66AE66AC9C5B1
:10405000E6FFCAC5E6FFCBC5E6FFCCC5E6FF8BC5CC
:104060002FF08CC530F0316A326A30AE02D0316840
:1040700032682FC0E6FF30C0E6FF31C0E6FF32C035
:10408000E6FFA5EC33F0336E0C0EE15E335059C001
:104090008BF55AC08CF55FC832F0336A346A32AEA1
:1040A00002D03368346804C62FF005C630F0316A98
:1040B00030BE31682FC05AF030C05BF031C05CF0C8
:1040C00032C05FF033C060F034C061F0EBEC74F0EC
:1040D00057C0C6F558C0C7F559C0C8F5010EE66E01
:1040E000D0C42FF0D1C430F0030E3002F3CF30F043
:1040F0002F02F3CF2FF0F4503026F3CFE6FF30C07D
:10410000E6FFBAEC51F0E552E552E5520501C75120
:10411000F324CD6FC851F420CE6FCF6BD06BCEAFF0
:1041200002D0CF69D06999C52FF09AC530F0316AB5
:10413000326A30AE02D0316832682FC059F030C0D8
:104140005AF031C05BF032C05CF0CDC55EF0CEC538
:104150005FF0CFC560F0D0C561F011EC77F055C0CD
:10416000CDF556C0CEF557C0CFF558C0D0F56F0E7F
:104170000501CD27000ECE23CF23D023020EE66EFD
:10418000E66AE66AE66ACDC5E6FFCEC5E6FFCFC5BC
:10419000E6FFD0C5E6FF8DC52FF08EC530F0316A41
:1041A000326A30AE02D0316832682FC0E6FF30C0CC
:1041B000E6FF31C0E6FF32C0E6FFA5EC33F0336E18
:1041C0000C0EE15E335059C08DF55AC08EF51200C9
:1041D00008016951010A01E1A0D0020A5DE0070A65
:1041E00031E0060A01E012008BEC61F0100EE66E81
:1041F000A7EC61F0E5520501D26FD16B040ED15DE1
:104200001AE2D151E96EEA6AD890E936EA36830EAD
:10421000E926050EEA22EECFE6FFEFCFE6FFD5EC6A
:104220001CF0E552E552E66EA7EC61F0E55205019F
:10423000D227D12BE3D79AEC61F00501D2519B6FC5
:104240009C6B120089C5E6FF8AC5E6FFD5EC1CF021
:10425000E552E552E66E87C5E6FF88C5E6FFD5EC78
:104260001CF0E552E552E66E85C5E6FF86C5E6FF21
:10427000D5EC1CF0E552E552E66E83C5E6FF84C539
:10428000E6FFD5EC1CF0E552E552E66E02D9E552A8
:10429000E552E552E55212000501D16B040ED15DE5
:1042A00001E379D08BEC61F00501D151E824620F74
:1042B000E66EA7EC61F0E5520501D26FD151E96ECF
:1042C000EA6AD890E936EA36830EE926050EEA2234
:1042D000EECFE6FFEFCFE6FFD5EC1CF0E552E5525E
:1042E000E8407F0BE66EA7EC61F0E5520501D227AE
:1042F0009AEC61F00501D251E66ED151E96EEA6A9D
:10430000D890E936EA369B0EE926050EEA22E552F8
:10431000E750EE6EED6AD12BC1D70501D16B040ECB
:10432000D15D39E28BEC61F00501D151E824520FE7
:10433000E66EA7EC61F0E5520501D26FD151E96E4E
:10434000EA6AD890E936EA36830EE926050EEA22B3
:10435000EECFE6FFEFCFE6FFD5EC1CF0E552E552DD
:10436000E66EA7EC61F0E5520501D2279AEC61F008
:104370000501D251E66ED151E96EEA6AD890E9366C
:10438000EA369B0EE926050EEA22E552E750EE6E6C
:10439000ED6AD12BC4D71200D9CFE6FFE1CFD9FF08
:1043A0008BEC61F0FE0EDBCFE6FFA7EC61F0E5528F
:1043B000FD0EDB50A009E66EA7EC61F0E552FC0EA5
:1043C000DBCFE6FFA7EC61F0E5529AEC61F0E55235
:1043D000E7CFD9FF1200D9CFE6FFE1CFD9FFFE0E1C
:1043E000DB5003E0FE0EDB0420E1E66AFE0EDBCFCD
:1043F000E6FFD00EE66ED0DFE552E552E552E66A02
:10440000FE0EDBCFE6FFD20EE66EC6DFE552E552CA
:10441000E552E66AFE0EDBCFE6FFD40EE66EBCDFA9
:10442000E552E552E552E66A27D0FC0EDBCFE6FF07
:10443000FE0EDBCFE6FFD00EE66EAEDFE552E552B4
:10444000E552FD0EDBCFE6FFFE0EDBCFE6FFD20E20
:10445000E66EA2DFE552E552E552FA0EDBCFE6FF4B
:10446000FE0EDBCFE6FFD40EE66E96DFE552E55298
:10447000E552FB0EDBCFE6FFFE0EDBCFE6FFD60EEE
:10448000E66E8ADFE552E552E552E552E7CFD9FF05
:104490001200D9CFE6FFE1CFD9FFFC0EDB50346E1E
:1044A000356AFE0EDBCF33F0FB0EDB503324326A6D
:1044B00032363424316E35503222FD0EDB50312439
:1044C0002F6E000E3220306EE83404E22F500008C8
:1044D000000E305402E3000E01D0010E0501D36F2F
:1044E0000A01CF512FE00501D3514EE1E66AE66A99
:1044F000E66AE66A010EE66E6EDF2F6E050EE15E7D
:104500002F50020EE66EE66A04EC31F0E552E552F9
:104510000501D46B320ED45D4AE2E66AE66AE66AC9
:10452000E66A020EE66E57DF2F6E050EE15E2F5033
:10453000020EE66EE66A04EC31F0E552E552050142
:10454000D42BE8D70501D3511FE0D46B320ED45DD4
:1045500015E2E66AE66AE66AE66A020EE66E3BDFA6
:104560002F6E050EE15E2F50020EE66EE66A04EC39
:1045700031F0E552E5520501D42BE8D7E66AE66A48
:10458000E66AE66AE66A0ED0FB0EDBCFE6FFFC0EBB
:10459000DBCFE6FFFD0EDBCFE6FFFE0EDBCFE6FF57
:1045A000020EE66E18DF2F6E050EE15E2F50D3C5AA
:1045B000CFFAE552E7CFD9FF1200090136AB04D894
:1045C000C8EC1EF046EF1FF0000E0501876F886BE8
:1045D000856F866B836F846B896B8A6B0401C86BF4
:1045E000C96B0901369B1200EFDF6F0E05018B6F5F
:0845F0008C6B8D6F8E6B1200C5
:0845F800D9CFE6FFE1CFD9FFA6
:10460000040EE126020EDE6EDD6A070EF36E020E68
:10461000F3CFDBFF030EDB6AD950FC0FE96EFF0E10
:10462000DA20EA6E0601B851EE5CBF6FB951EE5860
:10463000C06FBA51EE58C16FC26BC1BFC269B8C674
:10464000C3F6B9C6C4F6BAC6C5F6020EDBCF5BF038
:10465000030EDBCF5CF0020EDBCF60F0030EDBCF8E
:1046600061F0BEEC74F059C02FF05AC030F0316ADE
:10467000326A30AE02D031683268BFC659F0C0C667
:104680005AF0C1C65BF0C2C65CF02FC05EF030C00D
:104690005FF031C060F032C061F011EC77F055C0CE
:1046A00007FA56C008FA57C009FA58C00AFA0FCAE2
:1046B00059F010CA5AF011CA5BF012CA5CF05E6A77
:1046C000010E5F6E606A616A11EC77F055500A0165
:1046D00007250601BB6F56500A0108210601BC6F71
:1046E00057500A0109210601BD6F58500A010A21DD
:1046F0000601BE6FBCC60FFABDC610FAE8CF11FAAC
:104700000A01126B11BF1269020EDBCF33F0030EE8
:10471000DBCF34F0356A366A34AE02D0356836689D
:10472000BFC62FF0C0C630F0C1C631F0C2C632F0ED
:10473000D8902F363036313632362FC059F030C04F
:104740005AF031C05BF032C05CF033C05EF034C070
:104750005FF035C060F036C061F011EC77F00A010F
:104760000F5155240B6F105156200C6F11515720CB
:104770000D6F125158200E6FB9C631F0B8C630F027
:104780002F6A326A31BE32680B0EE96E0A0EEA6E8B
:104790002F50EE240601BB6F3050EE20BC6F31501D
:1047A000EE20BD6F3250EE20BE6FBCC6B8F6BDC65F
:1047B000B9F6BA6FC30EE96E060EEA6EEE50B85D3A
:1047C000596EEE50B9595A6EEE50BA595B6E5C6A2A
:1047D0005BBE5C68140E5E6E5F6A606A616A11ECB3
:1047E00077F055C02DF656C02EF6020EE66E030E7B
:1047F0005B6E5C6A2FC660F030C661F0BEEC74F090
:10480000595006012D252F6E5A502E21306E2FC083
:10481000E6FFE66EBAEC51F0E552E552E552F3CF11
:104820002DF6F4CF2EF60601D880F45004E7E00E02
:104830002D5DFC0E2E5904E2E00E2D6FFC0E0AD009
:104840002E350AE22D512008030E2E5505E2200ECA
:104850002D6F030E2E6F02D02EC62EF62DC62FF60C
:104860002EC630F6D950FC0FE96EFF0EDA20EA6E44
:10487000EE500601B85D2F6EEE50B959306EEE5015
:10488000BA592FC029F630C02AF6B8C65AF0B9C6B0
:104890005BF0BAC65CF0040EE15C02E2E16AE5524C
:1048A000E16EE552E7CFD9FF12000601AC51E96E87
:1048B000EA6AD890E936EA36130EE9260A0EEA22A9
:1048C000EECFE6FFEFCFE6FF48EC5BF0E552E552B6
:1048D0001200BA0EE66E730EE66E48EC5BF0E5521F
:1048E000E552E3DFA90EE66E730EE66E48EC5BF070
:1048F000E552E552200EE66EE66AB1C62FF0B2C66A
:1049000030F0020E2F5E000E305A316A326A30AE3D
:1049100002D0316832682FC0E6FF30C0E6FF31C0F8
:10492000E6FF32C0E6FF03EC5DF0336E060EE15E9B
:104930003350640E0601B2AF02D0D89003D0B15DFF
:10494000000EB25909E3990EE66E730EE66E48EC5E
:104950005BF0E552E55202D029EC5CF00601AC5167
:10496000030A090135AB6CD03995090139B502D07C
:1049700068D8FBD739958D0EE66E730EE66E48EC5F
:104980005BF0E552E552200EE66E020EE66EA3C61F
:104990002FF0A4C630F0A5C631F0326A31BE3268BD
:1049A0002FC0E6FF30C0E6FF31C0E6FF32C0E6FFB1
:1049B00003EC5DF0336E060EE15E3350890EE66E59
:1049C000730EE66E48EC5BF0E552E5527B0EE66E48
:1049D000730EE66E48EC5BF0E552E552090135AD29
:1049E00027D034EC75F0200EE66E020EE66E99CA02
:1049F0002FF09ACA30F0316A326A30AE02D0316894
:104A000032682FC0E6FF30C0E6FF31C0E6FF32C09B
:104A1000E6FF03EC5DF0336E060EE15E3350890E67
:104A2000E66E730EE66E48EC5BF0E552E55212005E
:104A30006A0EE66E730EE66E48EC5BF0E552E552E8
:104A4000120059D9090139A555D0A3C6E6FFA4C65D
:104A5000E6FFA5C6E6FFD0DDE552E552E5525AC0B5
:104A6000A3F65BC0A4F65CC0A5F6040E745C42E13C
:104A7000C2C32FF0C3C330F0316A30BE3168315049
:104A80000601A519E8AE02D0A53506D0A3512F5CCA
:104A9000A4513058A551315804E2A3C6C2F3A4C6AC
:104AA000C3F30301CB5106012E19E8AE02D02E3517
:104AB00007D02D510301CA5D06012E510301CB59C8
:104AC00005E22DC6CAF32EC6CBF3120006012E5105
:104AD0000301C919E8AE02D0C93507D0C851060193
:104AE0002D5D0301C95106012E5904E22DC6C8F3FC
:104AF0002EC6C9F31200000E06012F6F306B06019F
:104B00002D6F2E6B0601B66F9F6FA06BA16BA26B12
:104B1000800B03E0A069A169A2699FC6A3F6A0C6A5
:104B2000A4F6A1C6A5F6040EAC6FE850EA6A000F21
:104B3000E96E0A0EEA22EFCF9AF6B76B0A010F6B05
:104B4000106B116B126B0FCA0BFA10CA0CFA11CA58
:104B50000DFA12CA0EFA0FCA07FA10CA08FA11CAD9
:104B600009FA12CA0AFA0FCAB8F610CAB9F611CA77
:104B7000BAF60901358B60DB00090DE130DB000975
:104B80000CE0E66A1E0EE66EEE0EE66E99EC60F044
:104B9000E552E552E55225DA07D00901349D359BEF
:104BA0000301D22B000ED3230601C66BC80EC65DCF
:104BB00016E2A3C6E6FFA4C6E6FFA5C6E6FF1CDD17
:104BC000E552E552E5525AC0C7F65BC0C8F65CC074
:104BD000C9F60601CA6BC9BFCA69C62BE7D712005E
:104BE0000901349D040E745C06E10301D22B000E12
:104BF000D323090134811200D9CFE6FFE1CFD9FFD9
:104C00000601AC51010A30E0010A2EE0030A67E117
:104C1000FE0EDB5017E03DEC6FF05AC02FF05BC08A
:104C200030F05CC031F0326A320E2F26000E302296
:104C3000312232222FC04BFF30C04CFF31C04DFF1C
:104C4000480E0FD03DEC6FF05AC04BFF5BC04CFFDD
:104C50005CC04DFF0A0E0F014B27000E4C234D2365
:104C6000580EE66EE66A34D0FE0EDB5018E0F40E05
:104C7000CB6F3DEC6FF05AC02FF05BC030F05CC0E2
:104C800031F0326A320E2F26000E302231223222CB
:104C90002FC04BFF30C04CFF31C04DFF15D03DEC55
:104CA0006FF05AC04BFF5BC04CFF5CC04DFF0B0E5A
:104CB0000F014B27000E4C234D230601AC5102E19E
:104CC0002E0E01D06E0ECB6FCBC6E6FFF40EE66E55
:104CD000EE0EE66E99EC60F0E552E552E552E552D3
:104CE000E7CFD9FF1200030E0601AC5D02E1CDEF64
:104CF00028F005EF29F0090139953DEC6FF00F011F
:104D00004B515A5C4C515B584D515C5801E2A1D05B
:104D1000EADF090135AB95D00601975101E185D055
:104D2000A9C68FF6AAC690F6ABC691F6926B91BF54
:104D3000926990D85AC0A3F65BC0A4F65CC0A5F6F1
:104D4000A60EE96E060EEA6EEE5006015A5C2F6E54
:104D5000EE505B58306EEE505C58316E326A31BEA8
:104D600032682FC0E6FF30C0E6FF31C0E6FF32C038
:104D7000E6FF3EEC34F0E552E552E552E5525C3494
:104D8000000E5C1809E6D880960E5954000E5A544D
:104D9000000E5B54000E5C5404E20301D22B000EA3
:104DA000D3234B0EE66EE66AE66AE66AA3C62FF0E8
:104DB000A4C630F0A5C631F0326A31BE32682FC0C9
:104DC000E6FF30C0E6FF31C0E6FF32C0E6FFA6C610
:104DD00033F0A7C634F0A8C635F0366A35BE36685B
:104DE00033C0E6FF34C0E6FF35C0E6FF36C0E6FF5D
:104DF000A5EC33F0376E0C0EE15E375059C0A3F6C8
:104E00005AC0A4F65BC0A5F659C0A6F65AC0A7F6CC
:104E10005BC0A8F60601B751B707000803E3976B1C
:104E2000140EB76F0901398510D0A9C693F6AAC62A
:104E300094F6ABC695F6966B95BF9669010E976F83
:104E400004D00601010E976FCBDE97C6E6FFD4DED5
:104E5000E55212009B0EE96E060EEA6EEE50060158
:104E6000935DD36FEE509459D46FEE509559D56F32
:104E7000EE509659D66F9F0EE96E060EEA6EEE5012
:104E80008F5DD76FEE509059D86FEE509159D96F12
:104E9000EE509259DA6FAC51030A65E0020A2CE039
:104EA000010A01E097D0D3C6CFF6D4C6D0F6D5C656
:104EB000D1F6D6C6D2F6F20E5E6E5F6860686168A3
:104EC000D3C659F0D4C65AF0D5C65BF0D6C65CF04E
:104ED00011EC77F055C0CFF656C0D0F657C0D1F6DA
:104EE00058C0D2F6D7C659F0D8C65AF0D9C65BF02A
:104EF000DAC65CF0E70E28D0D3C6CFF6D4C6D0F61B
:104F0000D5C6D1F6D6C6D2F69F0E5E6E5F686068D3
:104F10006168D3C659F0D4C65AF0D5C65BF0D6C680
:104F20005CF011EC77F055C0CFF656C0D0F657C004
:104F3000D1F658C0D2F6D7C659F0D8C65AF0D9C65D
:104F40005BF0DAC65CF0E10E5E6E5F686068616817
:104F500011EC77F055500601CF275650D02357500B
:104F6000D123585036D0D3C6CFF6D4C6D0F6D5C646
:104F7000D1F6D6C6D2F6EE0E5E6E5F6860686168E6
:104F8000D3C659F0D4C65AF0D5C65BF0D6C65CF08D
:104F90008AEC74F059C0CFF65AC0D0F65BC0D1F697
:104FA0005CC0D2F6D7C659F0D8C65AF0D9C65BF065
:104FB000DAC65CF0FA0E5E6E5F68606861688AEC63
:104FC00074F059500601CF275A50D0235B50D1239B
:104FD0005C50D223CFC65AF0D0C65BF0D1C65CF08D
:104FE000120009013995000E0601B16FB26B9B6F7B
:104FF0009C6B9D6B9E6B9CAF02D09D699E699BC60E
:105000009FF69CC6A0F69DC6A1F69EC6A2F6090113
:1050100039953DEC6FF00F014B515A5C4C515B5888
:105020004D515C58F6E30601010E976FE66EE4DD24
:10503000E5523DEC6FF00F014B515A5C4C515B58FF
:105040004D515C58F6E3E1D8A9C68FF6AAC690F692
:10505000ABC691F60601926B975102E0000E01D0AB
:10506000010E976FE66EC8DDE5523DEC6FF00F0163
:105070004B515A5C4C515B584D515C58F6E3C5D8C6
:10508000A9C693F6AAC694F6ABC695F60601966B2A
:10509000975102E0000E01D0010E976FE66EACDD75
:1050A000E552D8DE5AC0A3F65BC0A4F65CC0A5F6F4
:1050B00093C69BF694C69CF695C69DF696C69EF63C
:1050C0008FC69FF690C6A0F691C6A1F692C6A2F62C
:1050D0000601B12B000EB223640EB2AF02D0D890FD
:1050E00003D0B15D000EB25940E29AC633F0346A83
:1050F000356A366A9AC6E6FF34C0E6FF35C0E6FF79
:1051000036C0E6FFA3C62FF0A4C630F0A5C631F026
:10511000326A31BE32682FC0E6FF30C0E6FF31C0D0
:10512000E6FF32C0E6FF3EEC34F0E552E552E552D0
:10513000E552E552E7CF36F0E552E7CF35F0E552DC
:10514000E7CF34F0E552E7CF33F036505C18E8AEE5
:1051500002D05C3408D05950335C5A5034585B50FC
:1051600035585C50365801E264D7640E0601B2AF80
:1051700002D0D89003D0B15D000EB25902E3000E08
:1051800001D0010E0901359BE8B0358BA3C6A6F608
:10519000A4C6A7F6A5C6A8F6120067EC5FF0EE0E4F
:1051A000E66E09EC60F0E552E66A09EC60F0E55263
:1051B00067EC5FF0E66AA6EC5FF0E5520601AB6FC4
:1051C000E66AA6EC5FF0E5520601AA6F010EE66EF4
:1051D000A6EC5FF0E5520601A96F84EF5FF0D9CF2E
:1051E000E6FFE1CFD9FFE652EE0EE66E61EC61F02C
:1051F000E552DF6EDF5003E00601030EAC6FDF50B7
:10520000E552E552E7CFD9FF12000601AB6BF60E6F
:10521000E66EEE0EE66E6AEC60F0E552E5520601CF
:10522000AA6FF70EE66EEE0EE66E6AEC60F0E552DF
:10523000E5520601A96F1200D9CFE6FFE1CFD9FFF1
:10524000E652EE0EE66E61EC61F0E552DF6EDF5085
:1052500010E0D00EE66EEE0EE66E6AEC60F0E552FF
:10526000E552550803E10601AC6B03D00601010EBF
:0E527000AC6FDF50E552E552E7CFD9FF1200D8
:02527E00070126
:10528000EA5101E19FD3E905400DF350F06FF16B56
:10529000EE6B400EEE5D1BE2EE51306AF0252F6E94
:1052A000F15130222FC0E6FF30C0E6FF28EC71F04C
:1052B000E552E552E66E0701EE51EA6A460FE96EE5
:1052C000080EEA22E552E750EF6EEE2BE2D746C811
:1052D00004F20201056B066B076B04AF03D005698E
:1052E0000669076947C808F2096B0A6B0B6B08AFC0
:1052F00003D009690A690B6948C80CF20D6B0E6B83
:105300000F6B0CAF03D00D690E690F6982C810F2E4
:10531000116B126B136B10AF03D011691269136913
:105320004AC800F2016B00BF01695DC838F2396BF1
:1053300038BF39694BC859F25A6B5B6B5C6B59AF1C
:1053400003D05A695B695C694CC85DF25E6B5F6B48
:10535000606B5DAF03D05E695F6960694DC861F2E3
:10536000626B636B646B61AF03D06269636964698C
:1053700083C865F2666B676B686B65AF03D066695F
:10538000676968694FC855F2566B55BF56695EC864
:105390008DF28E6B8DBF8E6950C8AEF2AF6BB06B65
:1053A000B16BAEAF03D0AF69B069B16953C8ACF2AD
:1053B000AD6BACBFAD695BC8E2F2E36BE2BFE36922
:1053C0000901398F69C8E9FFEA6AE9BEEA68CA0ECD
:1053D000E9260A0EEA22EF500501A66FA76B080125
:1053E000695102E1936A13D00701EE6B040EEE5D82
:1053F0000EE2EE51E96EEA6AD890E936EA369B0E83
:10540000E926050EEA22EE6AED6AEE2BEFD793EC61
:1054100001F0D4EC4BF07EEC3DF00801695104E161
:105420000601010E016F02D00601016B010E01C6DB
:10543000E7FFE75204E0E846FE0BE706FCE1E8245C
:105440000601006FE850FE0BE842120F2F6E00C6F7
:1054500061F05C6EB5EC78F05CC0A5F579C8EFF74B
:105460000701EE6B060EEE5D20E2EFA10DD0EE51CE
:10547000E96EEA6AD890E936EA368F0EE926050E1B
:10548000EA22EE68ED680DD0EE51E96EEA6AD89036
:10549000E936EA368F0EE926050EEA22010EEE6E97
:1054A000ED6AEF91EF43EE2BDDD7010E08015515A4
:1054B00002E1000E01D0010E09013693E8B03683F7
:1054C000400E0801551502E1000E01D0010E090140
:1054D0003891E8B0388159C859F05A6A59BE5A68AB
:1054E000F00E5A02F3CF5AF05902F3CF59F0F450AC
:1054F0005A26320E5926000E5A225B6A5C6A5AAE50
:1055000002D05B685C68640E5E6E5F6A606A616AA6
:105510008AEC74F059C0C4F45AC0C5F459C0C2F43E
:105520005AC0C3F45CC82FF0306A2FBE3068D890E0
:10553000305004E60A0E2F5C000E305803E20401DE
:105540000A0E0ED05CC831F0326A31BE3268323495
:105550000AE231501408000E325405E20401140E20
:10556000CA6FCB6B06D05CC8CAF40401CB6BCABF50
:10557000CB69CAC459F0CBC45AF0F00E5A02F3CF2B
:105580005AF05902F3CF59F0F4505A26320E5926E8
:10559000000E5A225B6A5C6A5AAE02D05B685C6895
:1055A000640E5E6E5F6A606A616A8AEC74F059C06C
:1055B000CAF45AC0CBF4010E0801E76E6219E8AED6
:1055C00002D0E73402D0E750625D02E2010E0ED055
:1055D000040EE76E6219E8AE02D0623503D0E750E0
:1055E000D880625502E2040E01D062510A01626F56
:1055F000636B800B01E0636962CA2FF063CA30F00D
:10560000316A326A30AE02D0316832682FC0E6FFAC
:1056100030C0E6FF31C0E6FF32C0E6FFA3EC0AF07F
:10562000E552E552E552E55259C062FA5AC063FAB2
:1056300049C82FF0306A2FBE30680001800E301448
:1056400003E00901ED6B0FD049C831F0326A31BE79
:10565000326832340AE231500508000E325405E255
:105660000901050EED6FEE6B06D049C8EDF9090191
:10567000EE6BEDBFEE69EDC92FF0EEC930F0316A87
:10568000326A30AE02D0316832682FC0E6FF30C0D7
:10569000E6FF31C0E6FF32C0E6FFA3EC0AF0E552B8
:1056A000E552E552E55259C0EDF95AC0EEF973C81A
:1056B00037F60601386B37BF38690A0E3803F3CF67
:1056C00038F63703F3CF37F6F45038275AC805FABF
:1056D0000A01066B05BF0669030E06AF02D0D8901B
:1056E00003D0055D000E065902E2030E08D0063510
:1056F00009E205512808000E065504E2280E056F40
:10570000066B02D006CA06FA67C82FF0306A2FBEB1
:105710003068316A326A30AE02D0316832687AC895
:1057200059F05A6A59BE5A685B6A5C6A5AAE02D02E
:105730005B685C685A0E5E6E5F6A606A616A11EC53
:1057400077F000012F50555C596E305056585A6E04
:10575000315057585B6E325058585C6E460E5E6E34
:105760000C0E5F6E606A616A11EC77F055C059F0FB
:1057700056C05AF057C05BF058C05CF0B40E5E6E75
:105780005F6A606A616A8AEC74F059C00BF45AC0AF
:105790000CF47EC8ECF7FF0E0701EC5D02E1EC6B48
:1057A00004D0EC3502E3300EEC27400E08017915E9
:1057B00002E0000E01D0010E0401996F080E0801ED
:1057C000551502E1000E01D0010E0901389BE8B029
:1057D000388B9D944BEC63F0196A1A6A1B6A176A3E
:1057E0009D846AC818F0010E1814010805E009012B
:1057F0003851200B01E11806070E185C36E26CC820
:1058000059F05A6A59BE5A68F00E5A02F3CF5AF04C
:105810005902F3CF59F0F4505A26320E5926000E91
:105820005A225B6A5C6A5AAE02D05B685C68640E9E
:105830005E6E5F6A606A616A8AEC74F059C0F4F95E
:105840005AC0F5F90901800E5A1402E0F46B09D030
:10585000F53509E2F451F008000EF55504E2F00EBA
:10586000F46FF56B02D0F5C9F5F90801560504018E
:10587000856F08016B050401866F08016F0504013F
:10588000876F080170050401886F0801770504011E
:10589000896F0801780504018A6F08017C050401FD
:1058A0008B6F08017D0504018C6F080181050401DF
:1058B0008D6F0701EE6B1850EE5D10E2EE51EA6A53
:1058C000850FE96E040EEA22EF50EA6A8F0FE96E47
:1058D000040EEA22EEC7EFFFEE2BEDD7100E080103
:1058E000551502E1000E01D0010E09013999E8B009
:1058F0003989200E0801551502E0000E01D0010E75
:105900000901389FE8B0388F040E0801551502E1EF
:10591000000E01D0010E0901389DE8B0388D020E4D
:105920000801551502E1000E01D0010E090135995B
:10593000E8B0358974C859F05A6A5B6A59AE02D02A
:105940005A685B685C6AE80E5E6E030E5F6E606AA2
:10595000616A11EC77F055C0F1F956C0F2F957C001
:10596000F3F957C859F05A6A5B6A59AE02D05A68BF
:105970005B680A0ED89059365A365B36E806FAE16B
:105980005C6A5BBE5C68460E5926000E5A225B229A
:105990005C228B0E5E6E5F6A606A616A8AEC74F0EC
:1059A00059C001F95AC002F959C005F95AC006F99F
:1059B0000901036B046B16DA09013795E8B03785E6
:1059C0000701EA6B1200D9CFE6FFE1CFD9FFFE0E47
:1059D000DB04400DF3500701F36FF46BF26B400EE4
:1059E000F25D1AE2F251EA6A460FE96E080EEA2207
:1059F000EF50E66EF251306AF3252F6EF4513022EB
:105A00002FC0E6FF30C0E6FFC5EC71F0E552E5526D
:105A1000E5520701F22BE3D7E552E7CFD9FF120099
:105A20000701F56BF66B000EF55D040EF6590FE2FB
:105A3000E668F5C7E6FFF6C7E6FFC5EC71F0E5528C
:105A4000E552E5520701F52B000EF623ECD7F56B76
:105A5000F66B400EF55D000EF6591EE2F5C7E9FF44
:105A6000F6C7EAFF010ED890E936EA36E806FBE110
:105A7000800EE926000EEA22EF50E66E460E070180
:105A8000F525E96E080EF621EA6EE552E750EF6E55
:105A9000F52B000EF623DDD7010EE66E94DFE552FE
