:020000040000FA
:06000000A4EF79F01200EC
:020006001200E6
:06000800DDEF6FF01200B5
:02000E00475059
:080010004747414750524D43A0
:06001800D6EF6FF01200AC
:02001E000E00D2
:1000200048F40000DA0A00000A00000053ED000066
:10003000FF0700000100000041F40000070B000072
:10004000070000003DF40000270B00000400000042
:100050003BF40000FE080000020000001BF000005E
:10006000FF0000000100000036F400001A0B000041
:10007000050000001CF400005D0A00001A000000EA
:10008000FAF30000000A000022000000F2F3000072
:10009000ED0A000008000000E6F30000C20A0000BC
:1000A0000C000000D2F30000EB0000001400000080
:1000B000B0F30000CF09000022000000AAF3000006
:0800C0000E0B00000600000019
:0800C8000901B26B0A018D81F0
:1000D0008A810001300E8E6FF80E8F6F90690001DB
:1000E000100E9E6F9F690A018CAB4BD036CF3CFF40
:1000F00037CF3DFF91C036F092C037F093C038F053
:10010000396A38BE39683934000E391809E6D880A2
:100110002C0E3654010E3754000E3854000E39544C
:1001200016E2C7EC6FF059C036F05AC037F05BC02A
:1001300038F0396A980E36263A0E3722000E3822E9
:10014000392236C01BF737C01CF738C01DF7C7EC83
:100150006FF0595007011B5D5A501C595B501D59D7
:100160000AE20A018D51800B08E1040E745C05E07F
:10017000030E755C02E0000E01D0010E0901B26FA2
:100180006BD00901AA510F01365D366E3751090156
:10019000AB55376E0001800E371403E00F013C6B46
:1001A00013D00901AA510F01365D386E375109018C
:1001B000AB55396EE8340AE23850D008000E395495
:1001C00005E20F01D00E3C6F3D6B0BD0AA510F0121
:1001D000365D0F013C6F0901AB510F0137590F011B
:1001E0003D6FC7EC6FF0595007011E5D5A501F5903
:1001F0005B50205931E2C7EC6FF059C036F05AC05D
:1002000037F05BC038F0396AE80E3626030E372225
:10021000000E3822392236C01EF737C01FF738C00B
:1002200020F70F013D510F013F19E8AE02D03F35D5
:1002300007D03E510F013C5D0F013F510F013D5969
:1002400002E3000E01D0010E0901B26FE85004E193
:10025000050EAA27000EAB230901B2511200BEEC15
:1002600056F02E0EE66EE7EC76F0E552746A030E59
:10027000736E1200050EE66EE66A3AC4E6FF3BC4F2
:10028000E6FFE2EC2EF0E552E552E552E552F3CFFF
:100290003AF4F4CF3BF4050EE66EE66A82C4E6FF5C
:1002A00083C4E6FFE2EC2EF0E552E552E552E5525A
:1002B000F3CF82F4F4CF83F40401CA6BCB6B12004A
:1002C000000E0401A26FA36B5A6F5B6B126F136B6E
:1002D000B9C7E6FFBAC7E6FFBBC7E6FFA8C7E6FF98
:1002E000A9C7E6FFAAC7E6FFDAD8366E060EE15EBA
:1002F00036501200BEEC56F00A018A87030E736E68
:10030000756ED4EC2CF0A9EC2DF0DDEC4AF034EC59
:1003100029F0EBEC56F0F5D70A018F97AEC7ABF793
:10032000AFC7ACF7B0C7ADF7BFC7BCF7C0C7BDF725
:10033000C1C7BEF78D998C958C938F9D746A1200FE
:10034000D9CFE6FFE1CFD9FF0701E96BEA6BEB6B91
:10035000FD0EDBCF36F0FE0EDBCF37F036C0F3FFFD
:1003600037C0F4FFE552E7CFD9FF12000A01B351BD
:100370000901AE5D366EAF510A01B455376E36C015
:10038000E6FFE66E0EEC4FF0E552E552F3CFB3F91F
:10039000F4CFB4F90901D880F45004E7E40EB35D5A
:1003A000FF0EB45904E2E40EB36FB4690DD0B43556
:1003B00009E2B3511C08000EB45504E21C0EB36FE1
:1003C000B46B02D0B4C9B4F9090EE66EB0C946F0F8
:1003D000B1C947F0486A496A47AE02D048684968DF
:1003E000F4C742F0436A446A456A42AE03D04368A8
:1003F00044684568B3C93EF0B4C93FF0406A416AF9
:100400003FAE02D0406841683EC058F03FC059F04E
:1004100040C05AF041C05BF042C05DF043C05EF0A6
:1004200044C05FF045C060F00EEC78F054C03AF084
:1004300055C03BF056C03CF057C03DF054C058F09A
:1004400055C059F056C05AF057C05BF046C05DF039
:1004500047C05EF048C05FF049C060F00EEC78F035
:1004600054C036F055C037F056C038F057C039F098
:1004700054C0E6FF55C0E6FF56C0E6FF57C0E6FF92
:100480004AEC4EF04A6E050EE15E4A5058C0B3F990
:1004900059C0B4F958C0F3FF59C0F4FF1200D9CFC6
:1004A000E6FFE1CFD9FFC7EC6FF059C0B5F95AC0EC
:1004B000B6F95BC0B7F90901B86B27C73AF028C78E
:1004C0003BF029C73CF03D6A3A50595C366E3B50D0
:1004D0005A58376E3C505B58386E3D50B859396E9B
:1004E00036C07CFF37C07DFF38C07EFF59C027F77C
:1004F0005AC028F75BC029F7DBC736F0DCC737F0F6
:10050000386A396A37AE02D038683968480E365EC4
:10051000000E375A385A395A36C0B0F937C0B1F9D7
:10052000800E371403E0B06BB16B0DD0B13509E22A
:10053000B0510008010EB15504E2B06B010EB16F6D
:1005400002D0B1C9B1F9FC0EDBCFA8F7FD0EDBCFAD
:10055000A9F7FE0EDBCFAAF7F90EDBCFB9F7FA0E3B
:10056000DBCFBAF7FB0EDBCFBBF70701AE51A85DBF
:10057000B16FAF51A959B26FB051AA59B36FBF5102
:10058000B95DC26FC051BA59C36FC151BB59C46F75
:10059000800EB31518E0B1C7C1F9B2C7C2F9B3C72D
:1005A000C3F95E685F686068B1C759F0B2C75AF0B6
:1005B000B3C75BF0C7EC71F056C0C1F957C0C2F9C0
:1005C00058C0C3F906D0B1C7C1F9B2C7C2F9B3C7A1
:1005D000C3F90701800EC41518E0C2C7C4F9C3C728
:1005E000C5F9C4C7C6F95E685F686068C2C759F0DC
:1005F000C3C75AF0C4C75BF0C7EC71F056C0C4F96A
:1006000057C0C5F958C0C6F906D0C2C7C4F9C3C798
:10061000C5F9C4C7C6F9C10EE96E090EEA6E020E2D
:10062000EB500901C619E8AE02D0C63506D0C45158
:10063000EE5CC551EE58C651EE5807E2C4C972FFD0
:10064000C5C973FFC6C974FF06D0C1C972FFC2C94C
:1006500073FFC3C974FF72CF36F073CF37F074CF16
:1006600038F0396A38BE3968D8903950000A08E63F
:10067000500E365C0B0E3758000E3858000E3958A5
:1006800042E2C4C959F0C5C95AF0C6C95BF0C4C931
:100690005EF0C5C95FF0C6C960F0C7EC71F056C026
:1006A0003AF057C03BF058C03CF0C1C959F0C2C93C
:1006B0005AF0C3C95BF0C1C95EF0C2C95FF0C3C9DB
:1006C00060F0C7EC71F03A505624366E3B5057201C
:1006D000376E3C505820386E396A38BE396836C09B
:1006E000E6FF37C0E6FF38C0E6FF39C0E6FF4FEC53
:1006F00052F0E552E552E552E55258C072FF59C03A
:1007000073FF5AC074FFB1C738F0B2C739F0B3C72E
:100710003AF03B6A3ABE3B6838C0E6FF39C0E6FFB4
:100720003AC0E6FF3BC0E6FFC2C73CF0C3C73DF09E
:10073000C4C73EF03F6A3EBE3F683CC0E6FF3DC0D6
:10074000E6FF3EC0E6FF3FC0E6FF53EC50F0406ED0
:10075000080EE15E4050F3CF36F0F4CF37F0F3CF20
:10076000E6FFF4CFE6FFECDDE552E552F3CF77FF8D
:10077000F4CF78FFFEC436F0FFC437F0D890363699
:100780003736386A37BE38680701F1513818E8AE95
:1007900002D0383406D03650EF5D3750F05938501B
:1007A000F15902E3000E01D0010E0A018C95E8B068
:1007B0008C858C51040B53E0910EE96E000EEA6EAD
:1007C000EE5000018E5D396EEE508F593A6EEE504C
:1007D00090593B6E0001800E3B141FE0910EE96EB4
:1007E000000EEA6EEE5000018E5D366EEE508F59AF
:1007F000376EEE509059386E5E685F68606836C03C
:1008000059F037C05AF05B6EC7EC71F056C036F045
:1008100057C037F058C038F00ED0910EE96E000E78
:10082000EA6EEE5000018E5D366EEE508F59376ED7
:10083000EE509059386EDDC73CF0DEC73DF03E6AA1
:100840003DBE3E6838503E18E8AE02D03E3406D079
:100850003C50365C3D5037583E50385802E3000E4D
:1008600001D0010E0A018C93E8B08C830901B135E7
:1008700001E381D2B0510008000EB15501E37BD2F3
:10088000060105510F01775D366E78510601065558
:10089000376E36C0E6FFE66E0EEC4FF0E552E552DD
:1008A000F3CFAEF9F4CFAFF9F2C739F03A6A3B6A49
:1008B00039AE02D03A683B6872CF59F073CF5AF024
:1008C00074CF5BF039C05EF03AC05FF03BC060F0BF
:1008D000C7EC71F0D8905850000A06E6000E565C3E
:1008E000000E5758000E585804E2366A376A386AC4
:1008F0004FD0E1C73FF0E2C740F0416A40BE4168D7
:10090000F2C73CF03D6A3E6A3CAE02D03D683E68AC
:1009100072CF59F073CF5AF074CF5BF03CC05EF0E9
:100920003DC05FF03EC060F0C7EC71F04150581818
:10093000E8AE02D0583406D056503F5C575040586D
:100940005850415809E2E1C736F0E2C737F0386A3B
:1009500037AE1ED038681CD0F2C742F0436A446AF2
:1009600042AE02D04368446872CF59F073CF5AF058
:1009700074CF5BF042C05EF043C05FF044C060F0F3
:10098000C7EC71F056C036F057C037F058C038F099
:1009900036C0BDF937C0BEF90401FA510901365C11
:1009A000BB6F0401FB5109013758BC6F090EE66E9D
:1009B000B0C946F0B1C947F0486A496A47AE02D0AB
:1009C00048684968F3C742F0436A446A456A42AEE0
:1009D00003D0436844684568BBC93EF0BCC93FF0DA
:1009E000406A416A3FAE02D0406841683EC058F05C
:1009F0003FC059F040C05AF041C05BF042C05DF0CA
:100A000043C05EF044C05FF045C060F00EEC78F08B
:100A100054C03AF055C03BF056C03CF057C03DF0D2
:100A200054C058F055C059F056C05AF057C05BF04A
:100A300046C05DF047C05EF048C05FF049C060F05E
:100A40000EEC78F054C036F055C037F056C038F090
:100A500057C039F054C0E6FF55C0E6FF56C0E6FF68
:100A600057C0E6FF4AEC4EF04A6E050EE15E4A5072
:100A700058C0BFF959C0C0F958C03AF059C03BF04E
:100A80003C6A3D6A3BAE02D03C683D68D8803D5030
:100A9000FF0A08E6C00E3A5CFF0E3B58FF0E3C58BA
:100AA000FF0E3D5804E2C00E366E376826D0BFC92F
:100AB0003EF0C0C93FF0406A416A3FAE02D0406894
:100AC00041684134000E411809E6D880400E3E547A
:100AD000000E3F54000E4054000E415406E2400EFA
:100AE000366E376A386A396A0AD0BFC936F0C0C96B
:100AF00037F0386A396A37AE02D03868396836C09C
:100B0000BFF937C0C0F9E3C7E6FFE4C7E6FF386ABC
:100B1000396A37AE02D03868396836C0E6FF37C068
:100B2000E6FF38C0E6FF39C0E6FFE7C73AF0E8C79E
:100B30003BF03C6A3D6A3BAE02D03C683D683AC03F
:100B4000E6FF3BC0E6FF3CC0E6FF3DC0E6FFE4EC4D
:100B50002FF03E6E0A0EE15E3E5058C0E7F759C0D6
:100B6000E8F7080EE66EAEC9E6FFAFC9E6FF3AEC5D
:100B700050F0E552E552F3CF3EF0F4CF3FF0406A3B
:100B8000416A3FAE02D040684168E7C73AF0E8C723
:100B90003BF03C6A3D6A3BAE02D03C683D683AC0DF
:100BA00058F03BC059F03CC05AF03DC05BF03EC02D
:100BB0005DF03FC05EF040C05FF041C060F00EEC01
:100BC00078F054C036F055C037F056C038F057C0F2
:100BD00039F054C0E6FF55C0E6FF56C0E6FF57C0E7
:100BE000E6FF4AEC4EF0426E050EE15E42505D6853
:100BF0005E685F6860680EEC78F054C082F455C09F
:100C000083F4080EE66EAEC9E6FFAFC9E6FFC1EC9D
:100C10004FF0E552E552F3CF3EF0F4CF3FF0406A9B
:100C2000416A3FAE02D040684168E7C73AF0E8C782
:100C30003BF03C6A3D6A3BAE02D03C683D683AC03E
:100C400058F03BC059F03CC05AF03DC05BF03EC08C
:100C50005DF03FC05EF040C05FF041C060F00EEC60
:100C600078F054C036F055C037F056C038F057C051
:100C700039F054C0E6FF55C0E6FF56C0E6FF57C046
:100C8000E6FF4AEC4EF0426E050EE15E425058C05F
:100C90003AF459C03BF40A018A51020B68E0DFC7FD
:100CA00036F0E0C737F0386A37BE386838500F0181
:100CB0007419E8AE02D0743506D07251365C7351A7
:100CC00037587451385853E2B6EC01F0F3CFBFF9FE
:100CD000F4CFC0F90901BF6DC01F000EC02304018D
:100CE000800ECB1502E0FF0E01D0010E366E090119
:100CF000800EC01502E0FF0E01D0010E365C04E04C
:100D0000BFC9CAF4C0C9CBF4E5C7E6FFE6C7E6FF32
:100D1000BFC936F0C0C937F0386A396A37AE02D079
:100D20003868396836C0E6FF37C0E6FF38C0E6FFEE
:100D300039C0E6FFCAC43AF0CBC43BF03C6A3D6A16
:100D40003BAE02D03C683D683AC0E6FF3BC0E6FFE0
:100D50003CC0E6FF3DC0E6FFE4EC2FF03E6E0A0E1D
:100D6000E15E3E5058C0CAF459C0CBF406D004012D
:100D7000CA6BCB6B02D03AEC01F00A018F87E552C7
:100D8000E7CFD9FF12000A018A51400B13E08A51C4
:100D9000800B10E08E51400B0DE08E51200B0AE0CD
:100DA000C7EC6FF059500701425D5A5043595B50F0
:100DB000445902E3000E01D0010E0A018D9DE8B0F6
:100DC0008D8D8DADD5D18D9F8A978F51080B01E008
:100DD000E1D1765001E1DED1BFC759F0C0C75AF06A
:100DE000C1C75BF0BFC75EF0C0C75FF0C1C760F0AE
:100DF000C7EC71F056C03AF057C03BF058C03CF019
:100E0000AEC759F0AFC75AF0B0C75BF0AEC75EF0DF
:100E1000AFC75FF0B0C760F0C7EC71F03A5056242E
:100E2000366E3B505720376E3C505820386E396A2A
:100E300038BE396836C0E6FF37C0E6FF38C0E6FF87
:100E400039C0E6FF4FEC52F0E552E552E552E5526B
:100E500058C0EFF759C0F0F75AC0F1F7AEC736F0F7
:100E6000AFC737F0B0C738F0396A38BE396836C016
:100E7000E6FF37C0E6FF38C0E6FF39C0E6FFBFC770
:100E80003AF0C0C73BF0C1C73CF03D6A3CBE3D688C
:100E90003AC0E6FF3BC0E6FF3CC0E6FF3DC0E6FFD0
:100EA00053EC50F03E6E080EE15E3E50F3CFEDF78E
:100EB000F4CFEEF7745001E12AD1050A01E1F4D034
:100EC000030A01E1BCD0070A01E18AD0030A49E024
:100ED000010A15E0070A01E05DD1E66AE66AE66A02
:100EE000E66AE66AE66A4FEC02F0366E060EE15EEE
:100EF000365064EC00F0000901E14CD146D1E66ABD
:100F0000E66AE66AE66AE66AE66A4FEC02F0366E80
:100F1000060EE15E36500A018C51010B04E18B5143
:100F2000800B01E1F1D091C036F092C037F093C050
:100F300038F0396A38BE3968D8903950000A08E666
:100F40002C0E365C010E3758000E3858000E3958FA
:100F500002E2040E746E64EC00F0000901E11AD1A3
:100F600014D1E66AE66AE66AE66AE66AE66A4FEC81
:100F700002F0366E060EE15E36500A018C51010B0E
:100F800004E18B51800B01E1BFD08CA327D08C51A1
:100F9000100B01E1FFD0C7EC6FF0595007011B5D4A
:100FA0005A501C595B501D5901E3F4D0C7EC6FF047
:100FB00059C036F05AC037F05BC038F0396A980E25
:100FC00036263A0E3722000E3822392236C01BF759
:100FD00037C01CF738C01DF7030EB1D08F9DAED0BF
:100FE000E66AE66AE66AE66AE66AE66A4FEC02F0F4
:100FF000366E060EE15E36500A018C51010B04E19B
:101000008B51800B01E180D08CA3C4D0C7EC6FF072
:1010100059500F01792507011B6F5A500F017A2192
:1010200007011C6F5B500F017B2107011D6FA0C0E2
:101030008EF0A1C08FF0A2C090F0020E80D06BCFD6
:10104000E6FF6CCFE6FF6DCFE6FF67CFE6FF68CF28
:10105000E6FF69CFE6FF4FEC02F0366E060EE15E6A
:1010600036500A018BAF50D08C51020B01E192D067
:10107000C7EC6FF0595007011B5D5A501C595B506B
:101080001D5901E387D00F016351625D0BE1010E31
:10109000626FA0C08EF0A1C08FF0A2C090F00A01D4
:1010A0008F9D4DD0622B36D06BCFE6FF6CCFE6FF25
:1010B0006DCFE6FF67CFE6FF68CFE6FF69CFE6FFBB
:1010C0004FEC02F0366E060EE15E36500A018BAF31
:1010D0001BD08CA35FD0C7EC6FF059500F016F2568
:1010E00007011B6F5A500F01702107011C6F5B50E5
:1010F0000F01712107011D6F64CF8EF065CF8FF056
:1011000066CF90F0060E1BD08CEC01F043D00A01A4
:101110008BAF0CD062CFE6FF58DAE55264CF8EF089
:1011200065CF8FF066CF90F0050E09D08CA109D065
:10113000A0C08EF0A1C08FF0A2C090F0010E746E1E
:1011400029D08BB902D08CEC01F0BCC7E6FFBDC73B
:10115000E6FFBEC7E6FFABC7E6FFACC7E6FFADC71D
:10116000E6FF4FEC02F0366E060EE15E365012D00E
:101170008D51800B06E18C51010B03E18B51800BEB
:1011800009E064EC00F0000903E07AEC01F002D021
:101190003AEC01F00A018E991200C7EC6FF0595039
:1011A0000701185D5A5019595B501A5925E20A0176
:1011B0008EA128D0080EE66EDBEC76F0E552070132
:1011C0001B6B1C6B1D6BC7EC6FF059C036F05AC01F
:1011D00037F05BC038F0396AE80E3626030E372246
:1011E000000E3822392236C015F737C016F738C03E
:1011F00017F7746A756A1200E80E1827030E192390
:10120000000E1A23120067EC0DF07550040A01E17C
:10121000D0D0040A61E0010A2DE0030A0BE0010AC4
:1012200001E0120060EC01F064EC00F0000901E163
:10123000C0D0BAD060EC01F091C036F092C037F067
:1012400093C038F0396A38BE3968D8903950000AEE
:1012500008E62C0E365C010E3758000E3858000E8A
:10126000395802E2030E756E64EC00F0000901E1EA
:10127000A0D09AD060EC01F00A018A81A0C08EF063
:10128000A1C08FF0A2C090F0C7EC6FF059500701D9
:101290001B5D5A501C595B501D591CE20A018A877C
:1012A000C7EC6FF059C036F05AC037F05BC038F069
:1012B000396A980E36263A0E3722000E3822392225
:1012C00036C01BF737C01CF738C01DF7030E746E0D
:1012D000020E6DD0CDEF08F0C7EC6FF0595007014A
:1012E000155D5A5016595B50175963E20501E42BFE
:1012F000000EE5230A018A51400B17E08E51400B86
:1013000014E08E51200B11E0C7EC6FF059C036F09D
:101310005AC037F05BC038F0396A880E3626130E93
:101320003722000E3822392209D0C7EC6FF059C09D
:1013300036F05AC037F05BC038F0396A36C01BF758
:1013400037C01CF738C01DF7C7EC6FF059C036F036
:101350005AC037F05BC038F0396AE80E3626030E03
:101360003722000E3822392236C018F737C019F755
:1013700038C01AF791C036F092C037F093C038F0F9
:10138000396A38BE3968D8903950000A08E62C0E00
:10139000365C010E3758000E3858000E395806E2F8
:1013A0000A018C51200B02E07AEF01F0010E756EFC
:1013B000120012004CEC5CF00901CA6F020EE66EDE
:1013C000DBEC76F0E5520901CA51330A01E1ACD0F9
:1013D000010A5CE0030A04E0010A01E0F0D0EAD06F
:1013E000CC6BC86BC96BD890C95104E6000EC85DC0
:1013F000010EC95912E24CEC5CF00901CB6FE850C8
:10140000CC1B000EC825E96E030EC921EA6ECBC9BC
:10141000EFFFC82B000EC923E6D7CC5130E1C86BD3
:10142000C96BD890C95104E6000EC85D010EC959B8
:1014300024E2000EC825E96E030EC921EA6EEF50C2
:10144000E66EC8C936F0C9C937F0386A396A37AEAE
:1014500002D038683968372A000E3822392236C05F
:10146000E6FF37C0E6FF65EC73F0E552E552E55262
:101470000901C82B000EC923D4D7060E01D0150EC2
:10148000E66E21EC5BF0E55280D999D0CC6BC86B4D
:10149000C96BFF0EC9AF02D0D89003D0C85D000E53
:1014A000C95926E2C8C936F0C9C937F0386A396A5D
:1014B00037AE02D038683968372A000E3822392210
:1014C00036C0E6FF37C0E6FFC8EC72F0E552E552E1
:1014D0000901CB6FE850CC1B000EC825E96E030E46
:1014E000C921EA6ECBC9EFFFC82B000EC923D1D7A3
:1014F000CCC9FFF3C86BC96BD890C95104E6000E84
:10150000C85D010EC95956E2000EC825E96E030EEA
:10151000C921EA6EEF50E66E21EC5BF0E55209015D
:10152000C82B000EC923E8D7CC6BC86BC96B3F0E24
:10153000C9AF02D0D89003D0C85D000EC9591DE2D2
:10154000800EC825366EFF0EC921376E36C0E6FF05
:10155000E66EC8EC72F0E552E5520901CB6FE85037
:10156000CC1B000EC825E96E030EC921EA6ECBC95B
:10157000EFFFC82B000EC923DAD7CCC93FF3C86BE5
:10158000C96B400EC9AF02D0D89003D0C85D000E21
:10159000C95910E2000EC825E96E030EC921EA6E92
:1015A000EF50E66E21EC5BF0E5520901C82B000E0E
:1015B000C923E7D7060EE66E21EC5BF0E552020E7A
:1015C000E66EE7EC76F0E5521200D9CFE6FFE1CF08
:1015D000D9FFFE0EDBCF36F00F016351E76E3618F0
:1015E000E8AE02D0363403D0E750D880365403E258
:1015F000FE0EDB6A626BFE0EDB5014E1676B686BFC
:10160000696B6A6B6B6B6C6B6D6B6E6BA0C064FF10
:10161000A1C065FFA2C066FF300E6F6F750E706FC0
:10162000716BABD0FE0EDB040B0DF3CF36F0376AD7
:10163000386A396A36AE03D0376838683968180EA8
:101640003626010E3722000E3822392236C0CDF957
:1016500037C0CEF936C0E6FF37C0E6FF0CEC73F0BA
:10166000E552E55258C067FF59C068FF5AC069FF8C
:101670005BC06AFF040E0901376ACD25366ECE5174
:10168000372236C0E6FF37C0E6FF0CEC73F0E552B8
:10169000E55258C06BFF59C06CFF5AC06DFF5BC06C
:1016A0006EFF080E0901376ACD25366ECE513722FE
:1016B00036C0E6FF37C0E6FFE1EC72F0E552E552D6
:1016C000F3CF64FFF4CF65FF0F01666B65BF6669FA
:1016D000640E5E6E5F6A606A64CF59F065CF5AF03F
:1016E00066CF5BF0C7EC71F056C064FF57C065FF72
:1016F00058C066FF56C036F057C037F058C038F0B3
:10170000396A38BE39683934000E391809E6D8808C
:10171000780E3654000E3754000E3854000E3954EB
:1017200005E20F01780E646F656B666B0A0E0901A6
:10173000376ACD25366ECE51372236C0E6FF37C028
:10174000E6FFC8EC72F0E552E552586E596A58BE91
:1017500059685A6A5B6A59AE02D05A685B68E80EEB
:101760005D6E030E5E6E5F6A606A0EEC78F054C0C8
:101770006FFF55C070FF56C071FF0A018C938C95A6
:101780008F9DE552E7CFD9FF12000F01776B786B81
:10179000000E0401CA6FCB6B826F836B3A6F3B6B99
:1017A0000701E76FE86BC26BC36BC46BC2C7B1F7CD
:1017B000C3C7B2F7C4C7B3F7E96BEA6BEB6B0001C1
:1017C0008E6B8F6B906B746A00018C6B8D6B00015C
:1017D0008A6B8B6B0A018C958C938F97320E070165
:1017E000DF6FE06B1E0EDD6FDE6B090EE66E010E25
:1017F000E66EC8EC72F0E552E5520F01636F000E21
:10180000E76E6319E8AE02D0633503D0E750D880A5
:10181000635502E3626B02D0010E626FE66AD5DEA9
:04182000E55212007B
:0C182400D9CFE6FFE1CFD9FF060EE12688
:10183000730EDE6E030EDD6E760EF36E020EF3CFC8
:10184000DBFF010EF36E030EF3CFDBFF040EDB6A4A
:10185000010EF36E050EF3CFDBFF000191518E5D9B
:10186000AC6F92518F59AD6F93519059AE6F040E7A
:10187000DBCF36F0050EDBCF37F0386A37BE38687D
:10188000ACC059F0ADC05AF0AEC05BF036C05EF0EF
:1018900037C05FF038C060F0C7EC71F056C0A3F0FD
:1018A00057C0A4F058C0A5F0DECF3FF0DDCF40F028
:1018B000416A40BE416827CB3CF028CB3DF03E6AF0
:1018C0003DBE3E68020EDBCF39F0030EDBCF3AF0AF
:1018D0003B6A3ABE3B68ACC059F0ADC05AF0AEC0EE
:1018E0005BF039C05EF03AC05FF03BC060F0C7EC1F
:1018F00071F000013C50565C366E3D505758376EC3
:101900003E505858386E36C059F037C05AF05B6EAA
:101910003FC05EF040C05FF041C060F0C7EC71F0C6
:1019200056C0A6F057C0A7F058C0A8F027CB5AF071
:1019300028CB5BF0DECF5FF0DDCF60F09AEC71F08A
:1019400058500B012727595028230001A351A625E1
:10195000A96FA451A721AA6FA551A821AB6F080EAA
:10196000E66EA9C0E6FFAAC0E6FFFAEC4DF0E5522C
:10197000E552E552F3CFA9F0F4CFAAF00001AB6B2A
:10198000AABFAB699CC039F09DC03AF03B6A3ABE31
:101990003B68AB513B18E8AE02D03B3406D039501F
:1019A000A95D3A50AA593B50AB5909E29CC036F0A8
:1019B0009DC037F0386A37AE1AD0386818D0AB35CA
:1019C000000EAB1907E6D880F40EA955010EAA55F2
:1019D000000EAB5506E2F40E366E010E376E386A15
:1019E00006D0A9C036F0AAC037F0ABC038F036C078
:1019F000B1F037C0B2F09A51365CAF6F9B51375897
:101A0000B06FDAC636F0376A36BE37683650AF0385
:101A1000F3CFB3F0F4CFB4F0B003F350B4273750A2
:101A2000AF03F350B427090EE66EB3C0E6FFB4C0AF
:101A3000E6FFFAEC4DF0E552E552E552F3CFB3F094
:101A4000F4CFB4F00001F4509F19E8AE02D09F35F6
:101A500004D09E51B35D9F51B45909E29EC036F047
:101A60009FC037F0386A396A37AE23D022D0B3C06E
:101A70003AF0B4C03BF03C6A3D6A3BAE02D03C68F1
:101A80003D683D34000E3D1809E6D8800C0E3A54EE
:101A9000000E3B54000E3C54000E3D5404E20C0E6C
:101AA000366E376A04D0B3C036F0B4C037F0386A47
:101AB000396A36C096F037C097F0060EE15C02E254
:101AC000E16AE552E16EE552E7CFD9FF12000A0163
:101AD00090A165D1909133EC74F024EC3EF00A01B2
:101AE0008CAF0DD0CECA91F0CFCA92F00001936BAB
:101AF00092BF9369D0CA9AF0D1CA9BF016D0080160
:101B000011510801145D0001916F08011251080183
:101B100015590001926F080113510801165900016F
:101B2000936F17C89AF018C89BF0030EE66E070E65
:101B30005A6E5B6A29CB5FF02ACB60F09AEC71F0A9
:101B4000585000019A25366E59509B21376E36C089
:101B5000E6FFE66EFAEC4DF0E552E552E552F3CFC2
:101B600029FBF4CF2AFB0A018AA1F8D08D51800B02
:101B700005E1745006E08D51010B03E08B8D12EFEF
:101B80000CF08B51200B1CE10B01800E2A1509E093
:101B900029CB36F02ACB37F0366C371E000E3722B1
:101BA00004D029CB36F02ACB37F037342AE236502E
:101BB0003E08000E375425E20A018B51400B21E10B
:101BC0008B9D91C08EF092C08FF093C090F0000179
:101BD000800E971507E0010E9625966F000E97214F
:101BE000976F120097350AE296510008000E97553C
:101BF00005E2010E965F000E975B1200966B976BE5
:101C000012000A018B8D0B01296B2A6B0BDE0F0171
:101C10003C5100019625B56F0F013D510001972100
:101C2000B66F800E9B1509E09AC036F09BC037F066
:101C3000366C371E000E372204D09AC036F09BC097
:101C400037F0386A396A37AE02D038683968D890C8
:101C50003950000A08E6320E365C000E3758000E86
:101C60003858000E395801E39AD0B5C03AF0B6C0E2
:101C70003BF03C6A3D6A3BAE02D03C683D683D3477
:101C8000000E3D1809E6D880480E3A54000E3B5429
:101C9000000E3C54000E3D5401E381D0030EE66E6D
:101CA000070E5A6E5B6A38CF5FF039CF60F09AEC5E
:101CB00071F058500001B525366E5950B621376E77
:101CC00036C0E6FFE66EFAEC4DF0E552E552E5521D
:101CD000F3CF38FFF4CF39FFF3CF3AF0F4CF3BF036
:101CE0003C6A3D6A3BAE02D03C683D68D8903D50AE
:101CF000000A08E6480E3A5C000E3B58000E3C58BD
:101D0000000E3D5802E2480E19D038CF3EF039CFD0
:101D10003FF0406A416A3FAE02D0406841684134BA
:101D2000000E411809E6D880900E3E54000E3F5434
:101D3000000E4054000E415404E2900E366E376A95
:101D400004D038CF36F039CF37F036C038FF37C03F
:101D500039FF36C036FF37C037FF120014C891F084
:101D600015C892F016C893F00001800E971507E091
:101D7000010E9625966F000E9721976F0ED097351E
:101D80000AE296510008000E975505E2010E965F93
:101D9000000E975B02D0966B976B0A018B9D120029
:101DA0000A018A51100B01E1D3D08D51400B01E0A3
:101DB000CFD00001B96BB951010801E2CDD0030EBB
:101DC000E66EFBC63FF0406A416A426A3FAE03D00E
:101DD0004068416842683FC0E6FF40C0E6FF41C03E
:101DE000E6FF42C0E6FF660EE66EE66AB951480DB0
:101DF000F3CFE9FFF4CFEAFF000EE926040EEA2252
:101E0000280EE926000EEA22EECF3AF0EFCF3BF0A3
:101E10003C6A3D6A3BAE02D03C683D683AC0E6FF92
:101E20003BC0E6FF3CC0E6FF3DC0E6FF40EC2FF0C4
:101E30003E6E060EE15E3E50E552E7CF42F0E552BF
:101E4000E7CF41F0E552E7CF40F0E552E7CF3FF072
:101E50003FC05DF040C05EF041C05FF042C060F046
:101E60000EEC78F054C036F055C037F056C038F05C
:101E700057C039F054C0E6FF55C0E6FF56C0E6FF34
:101E800057C0E6FF4AEC4EF0436E050EE15E43504C
:101E90005D685E685F6860680EEC78F054C0B7F00B
:101EA00055C0B8F054C03AF055C03BF03C6A3D6AAA
:101EB0003BAE02D03C683D68D8803D50FF0A08E642
:101EC000E80E3A5CFF0E3B58FF0E3C58FF0E3D58A3
:101ED00004E2E80E366E376826D0B7C03EF0B8C0D0
:101EE0003FF0406A416A3FAE02D0406841684134E9
:101EF000000E411809E6D880180E3E54000E3F54DB
:101F0000000E4054000E415406E2180E366E376A39
:101F1000386A396A0AD0B7C036F0B8C037F0386AC4
:101F2000396A37AE02D0386839680001B951480DB6
:101F3000F3CFE9FFF4CFEAFF000EE926040EEA2210
:101F40002F0EE926000EEA2236C0EFFFB92B33D759
:101F50000401776B77C42FF412000A018D51040B32
:101F60004FE08D51400B4CE00701F135000EF119A7
:101F700007E6D880960EEF55000EF055000EF1558D
:101F80003FE2060105510701ED5D366EEE51060197
:101F90000655376E36C0E6FFE66ED2EC4EF0E552DF
:101FA000E552F3CFBAF0F4CFBBF0F3CFE6FFF4CFB6
:101FB000E6FF12C436F013C437F0386A37BE38680B
:101FC00036C0E6FF37C0E6FF38C0E6FF5AC439F036
:101FD0005BC43AF03B6A3ABE3B6839C0E6FF3AC0A0
:101FE000E6FF3BC0E6FF380EE66E040EE66E800E9E
:101FF000E66E040EE66E9AEC30F03C6E0C0E28D0C5
:10200000B2CAE6FF12C436F013C437F0386A37BEDE
:10201000386836C0E6FF37C0E6FF38C0E6FF5AC46E
:1020200039F05BC43AF03B6A3ABE3B6839C0E6FF20
:102030003AC0E6FF3BC0E6FF380EE66E040EE66EE1
:10204000800EE66E040EE66EB5EC31F03C6E0B0EC3
:10205000E15E3C500A018DBD02D03AEC01F077C43C
:1020600038F0396A38BE396804013850825D366EFE
:1020700039508359376E36508027375081232FC40B
:1020800038F0396A38BE39683A513824366E3B51D7
:102090003920376E3650382737503923A251CA2598
:1020A000C86FA351CB21C96F1200D9CFE6FFE1CF92
:1020B000D9FF010EE66EFB0EDBCF3AF0FC0EDBCF54
:1020C0003BF0FD0EDBCFE9FFFE0EDBCFEAFF220E79
:1020D000E926000EEA223A50EE24366E3B50EE20FE
:1020E000376E386A396A37AE02D03868396836C018
:1020F000E6FF37C0E6FF38C0E6FF39C0E6FF4AEC2E
:102100004EF03C6E050EE15E3C5058C0BCF059C02C
:10211000BDF05AC0BEF05BC0BFF0FD0EDBCFE9FFE3
:10212000FE0EDBCFEAFF220EE926000EEA22EECFFA
:102130003AF0EFCF3BF03C6A3D6A3BAE02D03C68E0
:102140003D683A500001BC5D366E3B50BD59376E5C
:102150003C50BE593D50BF59FD0EDBCFE9FFFE0E8E
:10216000DBCFEAFF240EE926000EEA2236C0EEFF9E
:1021700037C0EDFFFD0EDBCFE9FFFE0EDBCFEAFF40
:10218000220EE926000EEA22BCC0EEFFBDC0EDFF24
:10219000010EE66EFD0EDBCFE9FFFE0EDBCFEAFFA0
:1021A000260EE926000EEA22EECF3CF0EFCF3DF0FE
:1021B000FD0EDBCFE9FFFE0EDBCFEAFF240EE926A2
:1021C000000EEA223C50EE24386E3D50EE20396E6F
:1021D0003A6A3B6A39AE02D03A683B6838C0E6FFDB
:1021E00039C0E6FF3AC0E6FF3BC0E6FF4AEC4EF0DE
:1021F0003E6E050EE15E3E5059C037F0FD0EDBCF5E
:10220000E9FFFE0EDBCFEAFF240EE926000EEA22EC
:1022100058C0EEFF37C0EDFFFD0EDBCFE9FFFE0E2D
:10222000DBCFEAFF240EE926000EEA22EECF36F0DD
:10223000EFCF37F0FD0EDBCFE9FFFE0EDBCFEAFF7D
:10224000260EE926000EEA2236C0EEFF37C0EDFF6B
:10225000E552E7CFD9FF1200D9CFE6FFE1CFD9FF92
:10226000FD0EDBCFE9FFFE0EDBCFEAFF200EE926F5
:10227000000EEA22EECFE6FFEFCFE6FFFD0EDBCF4A
:10228000E6FFFE0EDBCFE6FF10DFE552E552E5523A
:10229000E552050EE66EFD0EDBCFE9FFFE0EDBCF4D
:1022A000EAFF240EE926000EEA22EECF46F0EFCF39
:1022B00047F0FD0EDBCFE9FFFE0EDBCFEAFF0C0E91
:1022C000E926000EEA22EECF48F0EFCF49F00001F8
:1022D00048504602F3CF42F0F4CF43F04702F350A8
:1022E000432649504602F3504326446A456A43AEAA
:1022F00002D044684568FD0EDBCFE9FFFE0EDBCF60
:10230000EAFF080EE926000EEA22EECF3EF0EFCFFC
:102310003FF0406A416A3FAE02D040684168FD0E1E
:10232000DBCFE9FFFE0EDBCFEAFF200EE926000E31
:10233000EA22EECF3AF0EFCF3BF03C6A3D6A3BAE8B
:1023400002D03C683D683AC058F03BC059F03CC0F0
:102350005AF03DC05BF03EC05DF03FC05EF040C053
:102360005FF041C060F00EEC78F054500001422460
:10237000366E55504320376E56504420386E5750B5
:102380004520396E36C0E6FF37C0E6FF38C0E6FFAD
:10239000E66E4AEC4EF04A6E050EE15E4A5058C0B9
:1023A000C4F059C0C5F05AC0C6F05BC0C7F0FD0EFE
:1023B000DBCFE9FFFE0EDBCFEAFF0A0EE926000EB7
:1023C000EA22EE50ED1010E10001C86BC96BCA6B38
:1023D000CB6BFD0EDBCFE9FFFE0EDBCFEAFF1A0E63
:1023E000EB6A1B0EEB6AC9D0090EE66EFD0EDBCF61
:1023F000E9FFFE0EDBCFEAFF0A0EE926000EEA2215
:10240000EECF3EF0EFCF3FF0406A416A3FAE02D0E0
:1024100040684168FD0EDBCFE9FFFE0EDBCFEAFF2F
:102420001A0EE926000EEA22EECF3AF0EFCF3BF08B
:102430003C6A3D6A3BAE02D03C683D683AC058F009
:102440003BC059F03CC05AF03DC05BF03EC05DF06F
:102450003FC05EF040C05FF041C060F00EEC78F02D
:1024600054C036F055C037F056C038F057C039F078
:1024700054C0E6FF55C0E6FF56C0E6FF57C0E6FF72
:102480004AEC4EF0426E050EE15E425058C0C0F07C
:1024900059C0C1F05AC0C2F05BC0C3F0FD0EDBCF23
:1024A000E9FFFE0EDBCFEAFFEECF36F0EFCF37F0DD
:1024B000366C371E000E3722386A396A37AE02D0C2
:1024C000386839680001C3513918E8AE02D0393490
:1024D00008D03650C05D3750C1593850C2593950B4
:1024E000C35913E2FD0EDBCFE9FFFE0EDBCFEAFF9F
:1024F000EECFC8F0EFCFC9F0C86DC91F000EC923D9
:10250000CA6BCB6BC9AF39D02DD0FD0EDBCFE9FF45
:10251000FE0EDBCFEAFFEECF3AF0EFCF3BF03C6AA6
:102520003D6A3BAE02D03C683D683D50C319E8AE01
:1025300002D0C33508D0C0513A5CC1513B58C2519A
:102540003C58C3513D5811E2FD0EDBCFE9FFFE0EB2
:10255000DBCFEAFFEECFC8F0EFCFC9F0CA6BCB6B91
:10256000C9AF0BD0CA69CB6908D0C0C0C8F0C1C020
:10257000C9F0C2C0CAF0C3C0CBF0C80EE96E000EED
:10258000EA6EC451EE243A6EC551EE203B6EC65140
:10259000EE203C6EC751EE203D6EFD0EDBCFE9FF15
:1025A000FE0EDBCFEAFF380EE926000EEA22EECF60
:1025B0003EF0EFCF3FF0406A416A3FAE02D0406844
:1025C00041683E503A5C366E3F503B58376E405043
:1025D0003C58386E41503D58396EFD0EDBCFE9FF57
:1025E000FE0EDBCFEAFF440EE926000EEA2236C0DB
:1025F000EEFF37C0EDFFE552E7CFD9FF1200D9CF8C
:10260000E6FFE1CFD9FFFD0EDBCFE9FFFE0EDBCF0A
:10261000EAFF1A0EE926000EEA22EECF36F0EFCFDF
:1026200037F0386A396A37AE02D038683968FD0E3B
:10263000DBCFE9FFFE0EDBCFEAFF380EE926000E06
:10264000EA22EECF58F0EFCF59F05A6A5B6A59AEE2
:1026500002D05A685B68300E5D6E5E6A5F6A606ABF
:102660000EEC78F03650545C0001DC6F3750555852
:10267000DD6F38505658DE6F39505758DF6FFD0EFA
:10268000DBCFE9FFFE0EDBCFEAFF080EE926000EE6
:10269000EA22EECF36F0EFCF37F0386A396A37AE3C
:1026A00002D038683968DCC058F0DDC059F0DEC0AF
:1026B0005AF0DFC05BF036C05DF037C05EF038C066
:1026C0005FF039C060F00EEC78F054C0CCF055C02B
:1026D000CDF056C0CEF057C0CFF00001D06BD16B1B
:1026E000D26BD36B0A0EE66ED00EE96E000EEA6E68
:1026F0005450EE24366E5550EE20376E5650EE2074
:10270000386E5750EE20396E36C0E6FF37C0E6FF10
:1027100038C0E6FFE66E4AEC4EF03A6E050EE15E1A
:102720003A5058C0D8F059C0D9F05AC0DAF05BC05E
:10273000DBF0FD0EDBCFE9FFFE0EDBCFEAFF200E64
:10274000E926000EEA22EECF36F0EFCF37F0386AF6
:10275000396A37AE02D038683968D80EE96E000E93
:10276000EA6E3650EE5C0001E06F3750EE58E16FD4
:102770003850EE58E26F3950EE58E36FE0C0E6FF94
:10278000E1C0E6FFFD0EDBCFE6FFFE0EDBCFE6FF8E
:102790008CDCE552E552E552E552050EE66EFD0E83
:1027A000DBCFE9FFFE0EDBCFEAFF240EE926000EA9
:1027B000EA22EECF42F0EFCF43F0FD0EDBCFE9FF90
:1027C000FE0EDBCFEAFF0C0EE926000EEA22EECF6A
:1027D00044F0EFCF45F0000144504202F3CF3EF009
:1027E000F4CF3FF04302F3503F2645504202F350EE
:1027F0003F26406A416A3FAE02D040684168FD0E04
:10280000DBCFE9FFFE0EDBCFEAFF080EE926000E64
:10281000EA22EECF3AF0EFCF3BF03C6A3D6A3BAEA6
:1028200002D03C683D68E0C058F0E1C059F0E2C019
:102830005AF0E3C05BF03AC05DF03BC05EF03CC0D4
:102840005FF03DC060F00EEC78F0545000013E2483
:10285000366E55503F20376E56504020386E5750D8
:102860004120396E36C0E6FF37C0E6FF38C0E6FFCC
:10287000E66E4AEC4EF0466E050EE15E465058C0DC
:10288000D4F059C0D5F05AC0D6F05BC0D7F0000ED6
:102890000001D46DD51FD523D61FD623D71FD7232C
:1028A000FD0EDBCFE9FFFE0EDBCFEAFF440EE9268B
:1028B000000EEA22D4C0EEFFD5C0EDFFE552E7CF0F
:1028C000D9FF12000A018EAD1DD0A0C436F0A1C4FC
:1028D00037F0386A396A37AE02D038683968393427
:1028E000000E391809E6D880180E3654000E3754F9
:1028F000000E3854000E395409E205C607F606C624
:1029000008F6120005C607F606C608F61200DADF5A
:10291000060105510601075D366E08510601065590
:10292000376E36C0E6FFE66E5FEC33F0E552E552F7
:10293000F3CF88F0F4CF89F00001D880F45004E799
:10294000E40E885DFF0E895904E2E40E886F896900
:102950000DD0893509E288511C08000E895504E222
:102960001C0E886F896B02D089C089F0060EE66E56
:1029700094C43DF095C43EF03F6A3EBE3F6888C0B7
:102980003AF089C03BF03C6A3BBE3C683AC059F023
:102990003BC05AF03CC05BF03DC05EF03EC05FF013
:1029A0003FC060F0C7EC71F056C036F057C037F04A
:1029B00058C038F0396A38BE396836C0E6FF37C0CB
:1029C000E6FF38C0E6FF39C0E6FF4AEC4EF0406E45
:1029D000050EE15E405058C0E4F059C0E5F05AC021
:1029E000E6F0B0C436F0B1C437F0386A37BE3868A4
:1029F00036500001E45F3750E55B3850E65B050E6A
:102A0000E66E98C43AF099C43BF03C6A3BBE3C6821
:102A1000E4C059F0E5C05AF0E6C05BF03AC05EF0A1
:102A20003BC05FF03CC060F0C7EC71F056C036F0C0
:102A300057C037F058C038F0396A38BE396836C0E8
:102A4000E6FF37C0E6FF38C0E6FF39C0E6FF4AECD4
:102A50004EF03D6E050EE15E3D5058C0E4F059C0A9
:102A6000E5F05AC0E6F092C436F093C437F0366C05
:102A7000371E000E3722386A37BE38680001E6512B
:102A80003818E8AE02D0383406D03650E45D3750FE
:102A9000E5593850E6590CE292C4E4F093C4E5F0ED
:102AA000E46DE51F000EE523E66BE5AF20D01BD0FB
:102AB00092C439F093C43AF03B6A3ABE3B683B504B
:102AC000E619E8AE02D0E63506D0E451395CE551AE
:102AD0003A58E6513B5809E292C4E4F093C4E5F059
:102AE000E66BE5AF04D0E66902D0E6C0E6F004018B
:102AF000800EC91509E0C8C436F0C9C437F0366C79
:102B0000371E000E372204D0C8C436F0C9C437F0CF
:102B1000386A396A37AE02D0386839683934000EFD
:102B2000391809E6D880020E3654000E3754000ECC
:102B30003854000E395402E374500EE0C8C436F025
:102B4000C9C437F0386A37BE386836500001E45FD0
:102B50003750E55B3850E65BE4C0D4F4E5C0D5F40B
:102B6000120004011E6B1F6B666B676B120040EC5A
:102B70006DF0D0EC0EF0DDEC4AF0ECEC32F0ADECA8
:102B80000FF00001E76BE75101082AE30A018FA16A
:102B900011D00001E751480DF3CF36F0F4CF37F0F4
:102BA000000E3626040E372236C0E6FF37C0E6FF99
:102BB00026DD11D00001E751480DF3CF36F0F4CFF8
:102BC00037F0000E3626040E372236C0E6FF37C037
:102BD000E6FF2CEC11F0E552E5520001E72BD3D7CC
:102BE00096DE44C466F045C467F08CC468F08DC4BA
:102BF00069F0D4C46AF0D5C46BF00401800E1B15D3
:102C000009E01AC43AF01BC43BF03A6C3B1E000EBC
:102C10003B2204D01AC43AF01BC43BF0800E63156B
:102C200009E062C43CF063C43DF03C6C3D1E000E04
:102C30003D2204D062C43CF063C43DF03B503D18DB
:102C4000E8AE02D03D3404D03C503A5C3D503B5895
:102C50000DE2800E631505E062C436F063C437F000
:102C60000CD062C436F063C437F010D0800E1B1550
:102C700009E01AC436F01BC437F0366C371E000E5C
:102C8000372204D01AC436F01BC437F0386A396AC8
:102C900037AE02D038683968D8903950000A08E653
:102CA000E80E365C030E3758000E3858000E3958BF
:102CB00002E3000E01D0010E0A018A99E8B08A8968
:102CC00090EF55F004012F6B2FC477F42FC498F0C8
:102CD0000001996B98BF996998C096F099C097F0D8
:102CE000F40E9E6F9F69E86BE85102083EE3E851DD
:102CF000480DF3CFE9F0F4CFEAF0000EE927040E17
:102D0000EA23E9C0E9FFEAC0EAFF220EE926000E45
:102D1000EA22EE6AED6AE9C0E9FFEAC0EAFF460E80
:102D2000E926000EEA22EE6AED6AE9C0E9FFEAC090
:102D3000EAFF1A0EE926000EEA22EE6AED6AE9C001
:102D4000E9FFEAC0EAFF240EE926000EEA22EE6A55
:102D5000ED6AE9C0E9FFEAC0EAFF260EE926000EA7
:0E2D6000EA22EE6AED6AE82BBFD7B1EF15F05C
:022D6E00890ECC
:102D7000E66ECF0EE66E01EC5BF0E552E552120016
:102D80000A0191A704D0780EE66ECF0E03D0640E30
:102D9000E66ECF0EE66E01EC5BF0E552E5521200F6
:102DA00071CAE6FF72CAE6FF01EC5BF0E552E5523C
:102DB0001200EAEC5BF0380EE66EEC0EE66E01EC0B
:102DC0005BF0E552E552150EE66ECF0EE66E01ECB5
:102DD0005BF0E552E552080EE66ECF0EE66E01ECB2
:102DE0005BF0E552E552DCDFF50EE66ECE0EE66EE8
:102DF00001EC5BF0E552E552200EE66EE66A80C01B
:102E000036F0376A386A396A80C0E6FF37C0E6FFB5
:102E100038C0E6FF39C0E6FFC4EC5CF03A6E060E3F
:102E2000E15E3A50EAEC5BF0EC0EE66ECE0EE66E3A
:102E300001EC5BF0E552E552FEEC61F0E20EE66E6D
:102E4000CE0EE66E01EC5BF0E552E5525AC9E6FFA4
:102E50001EEC5FF0E552D90EE66ECE0EE66E01EC8A
:102E60005BF0E552E552C9EC4AF0CD0EE66ECE0EAF
:102E7000E66E01EC5BF0E552E552D0EC32F00A016F
:102E80008E51400B20E006010B511DE0C40EE66E92
:102E9000CE0EE66E01EC5BF0E552E552E66AE66ABC
:102EA0000E0EE66EE66AE66AE66AC4EC5CF0366E22
:102EB000060EE15E3650BF0EE66ECE0EE66E01ECFB
:102EC0005BF0E552E552B60EE66ECE0EE66E01EC14
:102ED0005BF0E552E552BCEC52F00601E05131E006
:102EE000B30EE66ECE0EE66E01EC5BF0E552E552F7
:102EF00008018D6B040E8D5D1CE28D51E96EEA6A4E
:102F0000D890E936EA36930EE926060EEA22EE500C
:102F1000ED1004E0AD0EE66ECE0E03D0A90EE66E07
:102F2000CE0EE66E01EC5BF0E552E55208018D2B0A
:102F3000E1D7A60EE66ECE0EE66E01EC5BF0E55232
:102F4000E5529C0EE66ECE0EE66E01EC5BF0E552AD
:102F5000E55216DF930EE66ECE0EE66E01EC5BF0E8
:102F6000E552E5520601C051010A02E0010A06E1FC
:102F7000310EC025E66E21EC5BF007D08B0EE66EBD
:102F8000CE0EE66E01EC5BF0E552E5527D0EE66E8C
:102F9000CE0EE66E01EC5BF0E552E552300E0A0112
:102FA000B025E66E21EC5BF0E552680EE66ECE0EC3
:102FB000E66E01EC5BF0E552E5520A018CA904D003
:102FC0005E0EE66ECE0E03D0530EE66ECE0EE66EAD
:102FD00001EC5BF0E552E5520A018AA304D0450EEC
:102FE000E66ECE0E03D0350EE66ECE0EE66E01EC2A
:102FF0005BF0E552E5520A018DB108D01A0EE66E7B
:10300000CE0EE66E01EC5BF0E552E552060EE66E82
:10301000CE0EE66E01EC5BF0E552E552010E1614A1
:10302000010823E00A019151080B1FE1D10EE66E61
:10303000CD0EE66E01EC5BF0E552E552E66AE66A1B
:103040001650366E376A386A396A16C0E6FF37C0DE
:10305000E6FF38C0E6FF39C0E6FFC4EC5CF03A6E2C
:10306000060EE15E3A50EAEC5BF00A018FBF08D031
:10307000B20EE66ECD0EE66E01EC5BF0E552E55267
:103080000A018EB508D0920EE66ECD0EE66E01EC0A
:103090005BF0E552E5520A0191AD08D0750EE66E7F
:1030A000CD0EE66E01EC5BF0E552E5520A018CBBF9
:1030B00008D0670EE66ECD0EE66E01EC5BF0E552D1
:1030C000E5520A018CBD08D0500EE66ECD0EE66EBC
:1030D00001EC5BF0E552E552090E09015A5D04E08E
:1030E0000A018A51040B08E0430EE66ECD0EE66E2F
:1030F00001EC5BF0E552E552040E0A01485D04E084
:103100000A018E51200B08E1350EE66ECD0EE66EFB
:1031100001EC5BF0E552E5520A018EBD08D0220EAB
:10312000E66ECD0EE66E01EC5BF0E552E5520A016B
:103130008EB108D0020EE66ECD0EE66E01EC5BF0AD
:10314000E552E5528050100B0BE00801D35108E026
:10315000E70EE66ECC0EE66E01EC5BF0E552E55252
:103160000A018C51010B03E18B51800B08E0C70E63
:10317000E66ECC0EE66E01EC5BF0E552E55240CF18
:1031800036F041CF37F0386A396A37AE02D0386846
:103190003968D8903950000A08E6180E365C000EDF
:1031A0003758000E3858000E395808E3B40EE66E52
:1031B000CC0EE66E01EC5BF0E552E552B7EF16F08F
:1031C00080B8E0EF20F035EC5CF008018E6FE8503D
:1031D00002E1E0EF20F08EC8E6FFABEC78F0E552BC
:1031E000F3CF36F0F4CF37F0F350F41007E08EC889
:1031F000E6FFBDEC78F0E552F3CF8EF808018E5172
:103200003F0A02E1D6EF20F0690A02E1D3EF20F095
:10321000110A02E1D0EF20F01F0A02E1CDEF20F009
:103220000B0A02E1CBEF20F0010A01E152D1050ABD
:1032300001E14DD10D0A01E138D1170A01E17CD03D
:10324000010A33E0080A06E0060A01E01200F29ED5
:1032500080EC7EF0970EE66ECC0EE66E01EC5BF035
:10326000E552E552710EE66ECC0EE66E01EC5BF0B7
:10327000E552E55235EC5CF008018E6F780E8E5DFC
:1032800003E07A0E8E5DF6E1780E8E5D04E182EC4D
:1032900041F0DEEF20F0650EE66ECC0EE66E01EC3E
:1032A0005BF0E552E552DEEF20F04A0EE66ECC0E02
:1032B000E66E01EC5BF0E552E552300E0A01B025F6
:1032C000E66E21EC5BF0E55292EC3EF008018F6B6C
:1032D000400E8F5D02E3DEEF20F03E0EE66ECC0E78
:1032E000E66E01EC5BF0E552E55208018F29E66ECF
:1032F000E66A4DEC5BF0E552E5523A0EE66ECC0E16
:10330000E66E01EC5BF0E552E55208018F51EA6A86
:10331000BD0FE96E060EEA22EFCF36F0376A36BEF1
:10332000376836C0E6FF37C0E6FFB6EC5BF0E55223
:10333000E55208018F2BCCD7020EE66EDBEC76F05F
:10334000E5523E0EE66ECC0EE66E01EC5BF0E55209
:10335000E5525BEC5CF0FF0F08018F6F3A0EE66EF2
:10336000CC0EE66E01EC5BF0E552E55276EC5CF0DB
:10337000F3CF91F8F4CF92F80801D880F45004E725
:10338000800E915DFF0E925904E2800E366E376812
:103390000FD0923509E291517F08000E925504E258
:1033A0007F0E366E376A04D091C836F092C837F077
:1033B00036C090F82B0E8F5D09E18F51EA6A4D0FF0
:1033C000E96E080EEA220A0EEF6E08D08F51EA6A03
:1033D0004D0FE96E080EEA2290C8EFFF3F0E8F5D99
:1033E0005EE10601BD515BE008010A0E786F030E35
:1033F000596F8F6B400E8F5D4DE20A01B00524E1DD
:1034000008018F51EA6A4D0FE96E080EEA22EF506B
:10341000E66E8F51E66EE66A65EC73F0E552E552B2
:10342000E55208018F51F66EF76AD890F636F736F6
:103430009B0EF626EF0EF722010EF626000EF7225F
:103440000800F55024E012D008018F51F66EF76A9B
:10345000D890F636F7369B0EF626EF0EF722010EC1
:10346000F626000EF7220800F55011E18F51EA6AA6
:103470004D0FE96E080EEA22EF50E66E400E8F25E2
:10348000E66EE66A65EC73F0E552E552E552080136
:103490008F2BB0D70A018E850A01010EB16F020E83
:1034A000E66EE7EC76F0DDEF20F05BEC5CF0080117
:1034B0008F6F0A01B05108018F5D02E1E0EF20F04B
:1034C0008FC8B0FA0A01010EB16F92EF3EF0DAEF49
:1034D00009F0350EE66ECC0EE66E01EC5BF0E552BF
:1034E000E55212CF58F013CF59F05A6A5B6A59AEC1
:1034F00002D05A685B68F40E5D6E010E5E6E5F6A04
:10350000606A0EEC78F054C058F055C059F056C0BF
:103510005AF057C05BF0F00E5D6E5E6A5F6A606ADB
:1035200066EC71F0D8805B50FF0A08E6190E585C13
:10353000FC0E5958FF0E5A58FF0E5B5807E2190E41
:10354000366EFC0E376E386839686FD012CF58F07F
:1035500013CF59F05A6A5B6A59AE02D05A685B6859
:10356000F40E5D6E010E5E6E5F6A606A0EEC78F0BE
:1035700054C058F055C059F056C05AF057C05BF0CF
:10358000F00E5D6E5E6A5F6A606A66EC71F05B34D5
:10359000000E5B1809E6D880E70E5854030E595404
:1035A000000E5A54000E5B5407E2E70E366E030E0F
:1035B000376E386A396A39D012CF36F013CF37F008
:1035C000386A396A37AE02D038683968F40E5D6EF1
:1035D000010E5E6E5F6A606A36C058F037C059F0FF
:1035E00038C05AF039C05BF00EEC78F054C036F0B9
:1035F00055C037F056C038F057C039F0F00E5D6E48
:103600005E6A5F6A606A54C058F055C059F056C08F
:103610005AF057C05BF066EC71F058C036F059C0F4
:1036200037F05AC038F05BC039F036C0E6FF37C01B
:10363000E6FFB6EC5BF0E552E552310EE66ECC0EDD
:10364000E66E01EC5BF0E552E55214CF58F015CF71
:1036500059F05A6A5B6A59AE02D05A685B68F40E38
:103660005D6E010E5E6E5F6A606A0EEC78F054C0AB
:1036700058F055C059F056C05AF057C05BF0F00EE4
:103680005D6E5E6A5F6A606A66EC71F0D8805B505E
:10369000FF0A08E6190E585CFC0E5958FF0E5A58DE
:1036A000FF0E5B5807E2190E366EFC0E376E386857
:1036B00039686FD014CF58F015CF59F05A6A5B6A49
:1036C00059AE02D05A685B68F40E5D6E010E5E6EF4
:1036D0005F6A606A0EEC78F054C058F055C059F03B
:1036E00056C05AF057C05BF0F00E5D6E5E6A5F6ABE
:1036F000606A66EC71F05B34000E5B1809E6D880F6
:10370000E70E5854030E5954000E5A54000E5B54E1
:1037100007E2E70E366E030E376E386A396A39D023
:1037200014CF36F015CF37F0386A396A37AE02D089
:1037300038683968F40E5D6E010E5E6E5F6A606A0D
:1037400036C058F037C059F038C05AF039C05BF075
:103750000EEC78F054C036F055C037F056C038F053
:1037600057C039F0F00E5D6E5E6A5F6A606A54C0E1
:1037700058F055C059F056C05AF057C05BF066EC8F
:1037800071F058C036F059C037F05AC038F05BC0FD
:1037900039F036C0E6FF37C0E6FFB6EC5BF0E55225
:1037A000E5522D0EE66ECC0EE66E01EC5BF0E552B6
:1037B000E55216CF58F017CF59F05A6A5B6A59AEE6
:1037C00002D05A685B68F40E5D6E010E5E6E5F6A31
:1037D000606A0EEC78F054C058F055C059F056C0ED
:1037E0005AF057C05BF0F00E5D6E5E6A5F6A606A09
:1037F00066EC71F0D8805B50FF0A08E6190E585C41
:10380000FC0E5958FF0E5A58FF0E5B5807E2190E6E
:10381000366EFC0E376E386839686FD016CF58F0A8
:1038200017CF59F05A6A5B6A59AE02D05A685B6882
:10383000F40E5D6E010E5E6E5F6A606A0EEC78F0EB
:1038400054C058F055C059F056C05AF057C05BF0FC
:10385000F00E5D6E5E6A5F6A606A66EC71F05B3402
:10386000000E5B1809E6D880E70E5854030E595431
:10387000000E5A54000E5B5407E2E70E366E030E3C
:10388000376E386A396A39D016CF36F017CF37F02D
:10389000386A396A37AE02D038683968F40E5D6E1E
:1038A000010E5E6E5F6A606A36C058F037C059F02C
:1038B00038C05AF039C05BF00EEC78F054C036F0E6
:1038C00055C037F056C038F057C039F0F00E5D6E75
:1038D0005E6A5F6A606A54C058F055C059F056C0BD
:1038E0005AF057C05BF066EC71F058C036F059C022
:1038F00037F05AC038F05BC039F036C0E6FF37C049
:10390000E6FFB6EC5BF0E552E552290EE66ECC0E12
:10391000E66E01EC5BF0E552E55218CF58F019CF96
:1039200059F05A6A5B6A59AE02D05A685B68F40E65
:103930005D6E010E5E6E5F6A606A0EEC78F054C0D8
:1039400058F055C059F056C05AF057C05BF0F00E11
:103950005D6E5E6A5F6A606A66EC71F0D8805B508B
:10396000FF0A08E6190E585CFC0E5958FF0E5A580B
:10397000FF0E5B5807E2190E366EFC0E376E386884
:1039800039686FD018CF58F019CF59F05A6A5B6A6E
:1039900059AE02D05A685B68F40E5D6E010E5E6E21
:1039A0005F6A606A0EEC78F054C058F055C059F068
:1039B00056C05AF057C05BF0F00E5D6E5E6A5F6AEB
:1039C000606A66EC71F05B34000E5B1809E6D88023
:1039D000E70E5854030E5954000E5A54000E5B540F
:1039E00007E2E70E366E030E376E386A396A39D051
:1039F00018CF36F019CF37F0386A396A37AE02D0AF
:103A000038683968F40E5D6E010E5E6E5F6A606A3A
:103A100036C058F037C059F038C05AF039C05BF0A2
:103A20000EEC78F054C036F055C037F056C038F080
:103A300057C039F0F00E5D6E5E6A5F6A606A54C00E
:103A400058F055C059F056C05AF057C05BF066ECBC
:103A500071F058C036F059C037F05AC038F05BC02A
:103A600039F036C0E6FF37C0E6FFB6EC5BF0E55252
:103A7000E552250EE66ECC0EE66E01EC5BF0E552EB
:103A8000E5521ACF58F01BCF59F05A6A5B6A59AE0B
:103A900002D05A685B68F40E5D6E010E5E6E5F6A5E
:103AA000606A0EEC78F054C058F055C059F056C01A
:103AB0005AF057C05BF0F00E5D6E5E6A5F6A606A36
:103AC00066EC71F0D8805B50FF0A08E6190E585C6E
:103AD000FC0E5958FF0E5A58FF0E5B5807E2190E9C
:103AE000366EFC0E376E386839686FD01ACF58F0D2
:103AF0001BCF59F05A6A5B6A59AE02D05A685B68AC
:103B0000F40E5D6E010E5E6E5F6A606A0EEC78F018
:103B100054C058F055C059F056C05AF057C05BF029
:103B2000F00E5D6E5E6A5F6A606A66EC71F05B342F
:103B3000000E5B1809E6D880E70E5854030E59545E
:103B4000000E5A54000E5B5407E2E70E366E030E69
:103B5000376E386A396A39D01ACF36F01BCF37F052
:103B6000386A396A37AE02D038683968F40E5D6E4B
:103B7000010E5E6E5F6A606A36C058F037C059F059
:103B800038C05AF039C05BF00EEC78F054C036F013
:103B900055C037F056C038F057C039F0F00E5D6EA2
:103BA0005E6A5F6A606A54C058F055C059F056C0EA
:103BB0005AF057C05BF066EC71F058C036F059C04F
:103BC00037F05AC038F05BC039F036C0E6FF37C076
:103BD000E6FFB6EC5BF0E552E552210EE66ECC0E48
:103BE000E66E01EC5BF0E552E5521CCF58F01DCFBC
:103BF00059F05A6A5B6A59AE02D05A685B68F40E93
:103C00005D6E010E5E6E5F6A606A0EEC78F054C005
:103C100058F055C059F056C05AF057C05BF0F00E3E
:103C20005D6E5E6A5F6A606A66EC71F0D8805B50B8
:103C3000FF0A08E6190E585CFC0E5958FF0E5A5838
:103C4000FF0E5B5807E2190E366EFC0E376E3868B1
:103C500039686FD01CCF58F01DCF59F05A6A5B6A93
:103C600059AE02D05A685B68F40E5D6E010E5E6E4E
:103C70005F6A606A0EEC78F054C058F055C059F095
:103C800056C05AF057C05BF0F00E5D6E5E6A5F6A18
:103C9000606A66EC71F05B34000E5B1809E6D88050
:103CA000E70E5854030E5954000E5A54000E5B543C
:103CB00007E2E70E366E030E376E386A396A39D07E
:103CC0001CCF36F01DCF37F0386A396A37AE02D0D4
:103CD00038683968F40E5D6E010E5E6E5F6A606A68
:103CE00036C058F037C059F038C05AF039C05BF0D0
:103CF0000EEC78F054C036F055C037F056C038F0AE
:103D000057C039F0F00E5D6E5E6A5F6A606A54C03B
:103D100058F055C059F056C05AF057C05BF066ECE9
:103D200071F058C036F059C037F05AC038F05BC057
:103D300039F036C0E6FF37C0E6FFB6EC5BF0E5527F
:103D4000E5521D0EE66ECC0EE66E01EC5BF0E55220
:103D5000E5521ECF58F01FCF59F05A6A5B6A59AE30
:103D600002D05A685B68F40E5D6E010E5E6E5F6A8B
:103D7000606A0EEC78F054C058F055C059F056C047
:103D80005AF057C05BF0F00E5D6E5E6A5F6A606A63
:103D900066EC71F0D8805B50FF0A08E6190E585C9B
:103DA000FC0E5958FF0E5A58FF0E5B5807E2190EC9
:103DB000366EFC0E376E386839686FD01ECF58F0FB
:103DC0001FCF59F05A6A5B6A59AE02D05A685B68D5
:103DD000F40E5D6E010E5E6E5F6A606A0EEC78F046
:103DE00054C058F055C059F056C05AF057C05BF057
:103DF000F00E5D6E5E6A5F6A606A66EC71F05B345D
:103E0000000E5B1809E6D880E70E5854030E59548B
:103E1000000E5A54000E5B5407E2E70E366E030E96
:103E2000376E386A396A39D01ECF36F01FCF37F077
:103E3000386A396A37AE02D038683968F40E5D6E78
:103E4000010E5E6E5F6A606A36C058F037C059F086
:103E500038C05AF039C05BF00EEC78F054C036F040
:103E600055C037F056C038F057C039F0F00E5D6ECF
:103E70005E6A5F6A606A54C058F055C059F056C017
:103E80005AF057C05BF066EC71F058C036F059C07C
:103E900037F05AC038F05BC039F036C0E6FF37C0A3
:103EA000E6FFB6EC5BF0E552E552190EE66ECC0E7D
:103EB000E66E01EC5BF0E552E55220CF58F021CFE1
:103EC00059F05A6A5B6A59AE02D05A685B68F40EC0
:103ED0005D6E010E5E6E5F6A606A0EEC78F054C033
:103EE00058F055C059F056C05AF057C05BF0F00E6C
:103EF0005D6E5E6A5F6A606A66EC71F0D8805B50E6
:103F0000FF0A08E6190E585CFC0E5958FF0E5A5865
:103F1000FF0E5B5807E2190E366EFC0E376E3868DE
:103F200039686FD020CF58F021CF59F05A6A5B6AB8
:103F300059AE02D05A685B68F40E5D6E010E5E6E7B
:103F40005F6A606A0EEC78F054C058F055C059F0C2
:103F500056C05AF057C05BF0F00E5D6E5E6A5F6A45
:103F6000606A66EC71F05B34000E5B1809E6D8807D
:103F7000E70E5854030E5954000E5A54000E5B5469
:103F800007E2E70E366E030E376E386A396A39D0AB
:103F900020CF36F021CF37F0386A396A37AE02D0F9
:103FA00038683968F40E5D6E010E5E6E5F6A606A95
:103FB00036C058F037C059F038C05AF039C05BF0FD
:103FC0000EEC78F054C036F055C037F056C038F0DB
:103FD00057C039F0F00E5D6E5E6A5F6A606A54C069
:103FE00058F055C059F056C05AF057C05BF066EC17
:103FF00071F058C036F059C037F05AC038F05BC085
:1040000039F036C0E6FF37C0E6FFB6EC5BF0E552AC
:10401000E552150EE66ECC0EE66E01EC5BF0E55255
:10402000E55222CF58F023CF59F05A6A5B6A59AE55
:1040300002D05A685B68F40E5D6E010E5E6E5F6AB8
:10404000606A0EEC78F054C058F055C059F056C074
:104050005AF057C05BF0F00E5D6E5E6A5F6A606A90
:1040600066EC71F0D8805B50FF0A08E6190E585CC8
:10407000FC0E5958FF0E5A58FF0E5B5807E2190EF6
:10408000366EFC0E376E386839686FD022CF58F024
:1040900023CF59F05A6A5B6A59AE02D05A685B68FE
:1040A000F40E5D6E010E5E6E5F6A606A0EEC78F073
:1040B00054C058F055C059F056C05AF057C05BF084
:1040C000F00E5D6E5E6A5F6A606A66EC71F05B348A
:1040D000000E5B1809E6D880E70E5854030E5954B9
:1040E000000E5A54000E5B5407E2E70E366E030EC4
:1040F000376E386A396A39D022CF36F023CF37F09D
:10410000386A396A37AE02D038683968F40E5D6EA5
:10411000010E5E6E5F6A606A36C058F037C059F0B3
:1041200038C05AF039C05BF00EEC78F054C036F06D
:1041300055C037F056C038F057C039F0F00E5D6EFC
:104140005E6A5F6A606A54C058F055C059F056C044
:104150005AF057C05BF066EC71F058C036F059C0A9
:1041600037F05AC038F05BC039F036C0E6FF37C0D0
:10417000E6FFB6EC5BF0E552E552110EE66ECC0EB2
:10418000E66E01EC5BF0E552E552000EE66EE66A83
:10419000B6EC5BF011D0D9EF16F008EC45F00ED07C
:1041A0003AEC2BF00BD066EC75F008D0D20EE66E30
:1041B000EC0EE66E01EC5BF0E552E552B7EF16F05F
:0241C0001200EB
:0E41C200D9CFE6FFE1CFD9FFFB0EDBCF58F0DF
:1041D000FC0EDBCF59F0FD0EDBCF5AF0FE0EDBCF2D
:1041E0005BF03F0E5D6E070E5E6E5F6A606A0EECFE
:1041F00078F054C058F055C059F056C05AF057C026
:104200005BF0100E5D6E270E5E6E5F6A606A66EC94
:1042100071F0E552E7CFD9FF1200D9CFE6FFE1CF29
:10422000D9FFFB0EDBCF58F0FC0EDBCF59F0FD0EB3
:10423000DBCF5AF0FE0EDBCF5BF03F0E5D6E070E5C
:104240005E6E5F6A606A0EEC78F054C058F055C03C
:1042500059F056C05AF057C05BF0A00E5D6E860E46
:104260005E6E010E5F6E606A66EC71F0E552E7CF3C
:10427000D9FF1200D9CFE6FFE1CFD9FFFB0EDBCF8C
:1042800058F0FC0EDBCF59F0FD0EDBCF5AF0FE0EDE
:10429000DBCF5BF0A00E5D6E860E5E6E010E5F6E74
:1042A000606A0EEC78F054C058F055C059F056C012
:1042B0005AF057C05BF03F0E5D6E070E5E6E5F6A90
:1042C000606A66EC71F0E552E7CFD9FF1200D9CFF2
:1042D000E6FFE1CFD9FF0901836B846B856B0A018F
:1042E000EA5136E1FE0EDBCF82F9FD0EDB5009010B
:1042F000D88082552DE383C936F084C937F085C94B
:1043000038F00A0E5E6E5F6A606A83C959F084C92C
:104310005AF085C95BF0C7EC71F009018251EA6A75
:10432000570FE96E070EEA22EFCF39F03A6A3B6A7F
:1043300056503924836F57503A20846F58503B2091
:10434000856F300E835F000E845B855B822BCDD73B
:1043500083C959F084C95AF085C95BF0E552E7CFAB
:10436000D9FF1200D9CFE6FFE1CFD9FF0901926B47
:10437000936B946B956B0A01EA5101E0CBD0FE0E72
:10438000DB50040F0901966F9651EA6A570FE96EE8
:10439000070EEA22EF502E0802E0962BF5D7030E07
:1043A000965DE66EFE0EDBCFE6FF91DFE552E5524D
:1043B00059C086F95AC087F95BC088F90901896B31
:1043C00088BF89699605E66E020E965DE66E7FDF10
:1043D000E552E55259C08AF95AC08BF95BC08CF995
:1043E00009018D6B8CBF8D69FD0EDB50D880965511
:1043F000040814E2050E9625E66E9629E66E67DF40
:10440000E552E55259C08EF95AC08FF95BC090F958
:104410000901916B90AF2BD0916929D0040E96259C
:10442000E66E9629E66E53DFE552E55259C08EF9E5
:104430005AC08FF95BC090F90901916B90BF9169E7
:104440000A0E5D6E5E6A5F6A606A8EC958F08FC937
:1044500059F090C95AF091C95BF00EEC78F054C055
:104460008EF955C08FF956C090F957C091F986C999
:1044700036F087C937F088C938F089C939F0800E1D
:104480005D6E8D0E5E6E5B0E5F6E606A86C958F063
:1044900087C959F088C95AF089C95BF00EEC78F0E9
:1044A00054C036F055C037F056C038F057C039F018
:1044B0008AC93AF08BC93BF08CC93CF08DC93DF0FC
:1044C000A00E5D6E860E5E6E010E5F6E606A8AC91A
:1044D00058F08BC959F08CC95AF08DC95BF00EECBD
:1044E00078F05450362655503722565038225750BF
:1044F00039228E0EE96E090EEA6E3650EE2409015D
:10450000926F3750EE20936F3850EE20946F3950F1
:10451000EE20956F92C958F093C959F094C95AF09A
:1045200095C95BF0E552E7CFD9FF1200D9CFE6FF7E
:10453000E1CFD9FF0901976B986B996B9A6B0A01D0
:10454000EA5101E09AD0FE0EDB28E66EFE0EDBCFCC
:10455000E6FFBDDEE552E55259C036F05AC037F0ED
:104560005BC038F0396A38BE3968100E5D6E0E0EC9
:104570005E6E5F6A606A36C058F037C059F038C066
:104580005AF039C05BF00EEC78F054C036F055C0EC
:1045900037F056C038F057C039F054C0E6FF55C068
:1045A000E6FF56C0E6FF57C0E6FFFE0EDB50030FE6
:1045B000E66EFE0EDB50020FE66E89DEE552E55236
:1045C000E552E7CF39F0E552E7CF38F0E552E7CFD3
:1045D00037F0E552E7CF36F059C03AF05AC03BF019
:1045E0005BC03CF03C0E5E6E5F6A606AC7EC71F0C7
:1045F00056C03AF057C03BF058C03CF03D6A3CBE54
:104600003D683A5036263B5037223C5038223D50C8
:10461000392236C0E6FF37C0E6FF38C0E6FF39C0B2
:10462000E6FFFD0EDBCFE6FFFE0EDB50040FE66E6D
:104630004EDEE552E552E552E7CF39F0E552E7CFDD
:1046400038F0E552E7CF37F0E552E7CF36F059C002
:104650003EF05AC03FF05BC040F0416A40BE416846
:1046600036503E240901976F37503F20986F3850DD
:104670004020996F395041209A6F97C958F098C9D6
:1046800059F099C95AF09AC95BF0E552E7CFD9FFC2
:104690001200E7CAE8FA0A01E751EA6A570FE96E21
:1046A000070EEA22EFCF9BF92C0E09019B5D09E072
:1046B0002A0E9B5D06E00A01E651E75D02E2E72B68
:1046C000EBD70A01E705E96FE72BE851E95D02E363
:1046D000000E01D0010EEA6F12000A01E76BA7C7B6
:1046E000E6FAD7DFD6DFE9CAE6FFE8CAE6FF1EDF53
:1046F000E552E55258C0D8F459C0D9F45AC0DAF49A
:104700005BC0DBF4C6DFE9CAE6FFE8CAE6FF2ADEE3
:10471000E552E55258C0E6F459C0E7F45AC0E8F44F
:104720005BC0E9F4B6DF0A01E851EA6A570FE96EA7
:10473000070EEA22EF50530809E1000E0401E66D6E
:10474000E71FE723E81FE823E91FE923A2DFE9CAFF
:10475000E6FFE8CAE6FF06DEE552E55258C0EAF495
:1047600059C0EBF45AC0ECF45BC0EDF492DF0A01DF
:10477000E851EA6A570FE96E070EEA22EF50570830
:1047800009E1000E0401EA6DEB1FEB23EC1FEC23A3
:10479000ED1FED237EDFE9CAE6FFE8CAE6FF97DDFD
:1047A000E552E55259C0FDF474DFE9CAE6FFE8CAF4
:1047B000E6FF8DDDE552E55259C0FCF46ADF030ED9
:1047C0000A01E95DE66EE8CAE6FF81DDE552E552E1
:1047D00059C039F05AC03AF05BC03BF00A0E5E6E29
:1047E0005F6A606AC7EC71F056C039F057C03AF0A2
:1047F00058C03BF056C0E6FF57C0E6FF58C0E6FF82
:104800000A01E905E66EE905E66E61DDE552E5526D
:10481000E552E7CF3BF0E552E7CF3AF0E552E7CF7C
:1048200039F039505924366E3A505A20376E3B5081
:104830005B20386E36C0FEF437C0FFF42ADF020E6C
:104840000A01E95DE66EE8CAE6FF41DDE552E552A0
:1048500059C036F05AC037F05BC038F0396A38BEFC
:1048600039680A0E5D6E5E6A5F6A606A36C058F02B
:1048700037C059F038C05AF039C05BF00EEC78F010
:1048800054C036F055C037F056C038F057C039F034
:1048900054C0E6FF55C0E6FF56C0E6FF57C0E6FF2E
:1048A000E9CAE6FFE9CAE6FF12DDE552E552E55244
:1048B000E7CF39F0E552E7CF38F0E552E7CF37F0F0
:1048C000E552E7CF36F059C03AF05AC03BF05BC032
:1048D0003CF00A0E5E6E5F6A606AC7EC71F056C00B
:1048E0003AF057C03BF058C03CF03D6A3CBE3D68D2
:1048F0003A5036263B5037223C5038223D50392220
:1049000036C0E0F437C0E1F438C0E2F4010E04012F
:10491000FD5D03E3060EFC5D02E2000E01D0010E18
:104920000A018A9DE8B08A8D040E735C63E105017B
:10493000DD510401FF19E8AE02D0FF3507D0FE516A
:104940000501DC5D0401FF510501DD5905E2FEC4EE
:10495000DCF5FFC4DDF514D00401FF510501DB19BE
:10496000E8AE02D0DB3507D0DA510401FE5D050167
:10497000DB510401FF5904E2FEC4DAF5FFC4DBF5A4
:104980000401FC51366E376A0501D7513718E8AE7D
:1049900002D0373404D03650D65D3750D75906E2AE
:1049A0000401FC510501D66FD76B15D00401FC51F1
:1049B000366E376A05013750C719E8AE02D0C735E1
:1049C00004D0C651365CC751375805E20401FC518A
:1049D0000501C66FC76B0401FF3504E2FE510F08E5
:1049E000000EFF5502E3000E01D0010E0A018B9765
:1049F000E8B08B8712000A01E76BA7C7E6FA49DE29
:104A000048DE47DE0A01E851EA6A570FE96E070EF1
:104A1000EA22EF50410801E03FD10A018A8D39DED8
:104A2000E9CAE6FFE8CAE6FF9DDCE552E55258C058
:104A3000E6F459C0E7F45AC0E8F45BC0E9F429DEB3
:104A40000A01E851EA6A570FE96E070EEA22EF50B1
:104A5000530809E1000E0401E66DE71FE723E81F94
:104A6000E823E91FE92315DEE9CAE6FFE8CAE6FF05
:104A700079DCE552E55258C0EAF459C0EBF45AC06B
:104A8000ECF45BC0EDF405DE0A01E851EA6A570F69
:104A9000E96E070EEA22EF50570809E1000E040103
:104AA000EA6DEB1FEB23EC1FEC23ED1FED23F1DD93
:104AB000080EE66EE9CAE6FF0A01E905E66E67EC54
:104AC00021F0E552E55259C03AF05AC03BF05BC0C4
:104AD0003CF03D6A3CBE3D683AC0E6FF3BC0E6FFA5
:104AE0003CC0E6FF3DC0E6FF030E0A01E95DE66E4D
:104AF000E8CAE6FF67EC21F0E552E552E552E7CF60
:104B00003DF0E552E7CF3CF0E552E7CF3BF0E55210
:104B1000E7CF3AF059C058F05AC059F05BC05AF08C
:104B20005B6A5ABE5B68640E5D6E5E6A5F6A606A4D
:104B30000EEC78F0545000013A24366E55503B206C
:104B4000376E56503C20386E57503D20396E0D0E52
:104B50005D6E5E6A5F6A606A36C058F037C059F0B1
:104B600038C05AF039C05BF00EEC78F054C036F023
:104B700055C037F056C038F057C039F054C0E6FF82
:104B800055C0E6FF56C0E6FF57C0E6FF4AEC4EF0C0
:104B90003E6E050EE15E3E5058C0FAF459C0FBF47B
:104BA00078DD080EE66EE9CAE6FF0A01E905E66E61
:104BB00067EC21F0E552E55259C03AF05AC03BF09B
:104BC0005BC03CF03D6A3CBE3D683AC0E6FF3BC07E
:104BD000E6FF3CC0E6FF3DC0E6FF030E0A01E95DCB
:104BE000E66EE8CAE6FF67EC21F0E552E552E552D1
:104BF000E7CF3DF0E552E7CF3CF0E552E7CF3BF0A1
:104C0000E552E7CF3AF059C058F05AC059F05BC0AE
:104C10005AF05B6A5ABE5B68640E5D6E5E6A5F6ADC
:104C2000606A0EEC78F0545000013A24366E55500C
:104C30003B20376E56503C20386E57503D20396E21
:104C40002D0E5D6E5E6A5F6A606A36C058F037C0CE
:104C500059F038C05AF039C05BF00EEC78F054C00F
:104C600036F055C037F056C038F057C039F054C050
:104C7000E6FF55C0E6FF56C0E6FF57C0E6FF4AEC28
:104C80004EF03E6E050EE15E3E5058C0F8F459C03D
:104C9000F9F40A01908912000A0190991200D9CF03
:104CA000E6FFE1CFD9FF245001E198D0020A55E098
:104CB000040A33E0010A01E09CD0020E2B5C15E2ED
:104CC0002C38F00B2C6E410EF36EFE0EDBCFF4FF92
:104CD000F350F45C04E3FE0EDB50C90F03D0FE0E6C
:104CE000DB50D00F2C262B2A84D025C0A7F72950C3
:104CF0002C5C02E0000E01D0010E0A019293E8B094
:104D0000928392A369D00A01E451010A04E0010AE6
:104D100063E1E3DC61D06FDE5FD0FE0EDB502A087A
:104D200004E12C6A2B6A070E63D0FE0EDB502408C8
:104D300003E1000E296E59D0FE0EDB50291A2550D2
:104D4000252AEA6A570FE96E070EEA22FE0EDBCF2C
:104D5000EFFF25504F084DE23FD0FE0EDB50291AE1
:104D60002650050DF3CF36F0F4CF37F00E0E362671
:104D7000000E372227503624F66E000E3720F76ECD
:104D80000800F550F36EFE0EDB50F35C05E0020EFA
:104D9000265C02E2262AE4D72650050DF3CF36F032
:104DA000F4CF37F00E0E3626000E37222750362469
:104DB000F66E000E3720F76E0800F550F36EFE0E0B
:104DC000DB50F35C09E1040E275C04E126C0E4FA41
:104DD000060E0ED0272A0DD0246A0BD0FE0EDB5013
:104DE000240807E1000E296E266E276E256E020E3E
:104DF000246EE552E7CFD9FF1200EBCA36F0ECCAB9
:104E000037F0386A396A37AE02D0386839681E0E12
:104E1000361801E0FED0375001E0FBD0385001E0F9
:104E2000F8D0395001E0F5D00A018A51400B01E178
:104E3000F0D0C7EC6FF059C024F75AC025F75BC01B
:104E400026F7D8C4DCF4D9C4DDF4DAC4DEF4DBC45C
:104E5000DFF4E6C4EEF4E7C4EFF4E8C4F0F4E9C428
:104E6000F1F4EAC4F2F4EBC4F3F4ECC4F4F4EDC4EA
:104E7000F5F4E6C4A0F9E7C4A1F9E8C4A2F9E9C4CD
:104E8000A3F9C00E5D6E270E5E6E090E5F6E606A3E
:104E9000E6C458F0E7C459F0E8C45AF0E9C45BF03E
:104EA00066EC71F058C0A0F959C0A1F95AC0A2F936
:104EB0005BC0A3F90901800E5B1409E0000EA06D30
:104EC000A11FA123A21FA223A31FA32302D0A3C912
:104ED000A3F9A0C936F0A1C937F0A2C938F0A3C917
:104EE00039F0F60E5D6E0D0E5E6E5F6A606AA0C9E7
:104EF00058F0A1C959F0A2C95AF0A3C95BF00EEC51
:104F000078F054C036F055C037F056C038F057C06E
:104F100039F00B0ED8903932383237323632E80653
:104F2000F9E136C0A0F937C0A1F938C0A2F939C0FB
:104F3000A3F936C0E6FF37C0E6FF3AEC50F0E55281
:104F4000E552F3CFF6F4F4CFF7F4E0C4E3F4E1C4B0
:104F5000E4F4E2C4E5F40401FA6BFB6BE0C436F060
:104F6000E1C437F0E2C438F0640E5E6E5F6A606AD6
:104F7000E0C459F0E1C45AF0E2C45BF039EC71F0DE
:104F800059C036F05AC037F05BC038F059C0E6FF60
:104F90005AC0E6FF0C0EE66E010EE66EA1EC73F051
:104FA000E552E552E552E552E6C4E6FFE7C4E6FF06
:104FB000E8C4E6FFE9C4E6FF0E0EE66E010EE66EFB
:104FC000D1EC73F0366E060EE15E3650EAC4E6FFB1
:104FD000EBC4E6FFECC4E6FFEDC4E6FF120EE66E9E
:104FE000010EE66ED1EC73F0366E060EE15E3650C1
:104FF0000A018ABF0DD0E66A080EE66E96EC2CF028
:10500000E552E552010E0501D86FD96B0A018A8F6E
:105010008D8912000A018AAD1DD1C7EC6FF059C00D
:10502000A4F95AC0A5F95BC0A6F9240EE96E070ED3
:10503000EA6EEE50595C366EEE505A58376EEE50AE
:105040005B5836C0A7F937C0A8F959C024F75AC031
:1050500025F75BC026F7EBCA36F0ECCA37F0386AA2
:10506000396A37AE02D038683968D8903950000AAA
:1050700008E61E0E365C000E3758000E3858000E3B
:10508000395822E20A018A9DFEC436F0FFC437F087
:10509000386A396A37AE02D0386839683934000E58
:1050A000391809E6D8800F0E3654000E3754000E1A
:1050B0003854000E395405E30A01EB2B000EEC23A3
:1050C00003D00A01EB6BEC6B0A018AAF92D0EE0EB3
:1050D000E96E040EEA6EEE500401E65D366EEE50A7
:1050E000E759376EEE50E859386EEE50E959396E8F
:1050F00036C0E6FF37C0E6FF38C0E6FFE66EE1ECFB
:1051000020F0E552E552E552E55258C0AEF759C0DD
:10511000AFF75AC0B0F7080EE66EF6C43EF0F7C41B
:105120003FF0406A416A3FAE02D0406841683EC0ED
:10513000E6FF3FC0E6FF40C0E6FF41C0E6FFF20EDB
:10514000E96E040EEA6EEE500401EA5D3A6EEE502E
:10515000EB593B6EEE50EC593C6EEE50ED593D6E06
:105160003AC0E6FF3BC0E6FF3CC0E6FFE66EE1EC7E
:1051700020F0E552E552E552E552E552E7CF41F025
:10518000E552E7CF40F0E552E7CF3FF0E552E7CFF9
:105190003EF03EC05DF03FC05EF040C05FF041C0F9
:1051A00060F00EEC78F054C036F055C037F056C0C1
:1051B00038F057C039F054C0E6FF55C0E6FF56C07E
:1051C000E6FF57C0E6FF4AEC4EF0050EE15E58C020
:1051D000BFF759C0C0F75AC0C1F7AEC7B4F7AFC7E1
:1051E000B5F7B0C7B6F758C0C5F759C0C6F75AC02B
:1051F000C7F7040E735C37E1C0C536F0C1C537F0A0
:10520000386A37BE386838500401E219E8AE02D077
:10521000E23506D0E051365CE1513758E25138585A
:1052200004E2E0C4C0F5E1C4C1F50501CD510401BB
:10523000FB19E8AE02D0FB3507D0FA510501CC5D71
:105240000401FB510501CD590EE2FAC4CCF5FBC4B3
:10525000CDF51200EBCAFCF4040E735C04E1050109
:10526000D42B000ED52312000A019251020B1BE130
:105270002F502D1802E130502E1815E0000E2F246B
:10528000E96E020E3020EA6EEFCFA9F9010E2F264B
:10529000000E3022FF0E2F16000E3016A9C9E6FFB1
:1052A000FEDCE552E1D792A330D0020EE66EDBECD5
:1052B00076F0E552040EE66EE7EC76F0E5520A0170
:1052C0009293A8DE0A018AAD1ED0040EE66EE7ECCA
:1052D00076F0E5520A018F97C7EC6FF059C036F0AF
:1052E0005AC037F05BC038F0396AD00E3626070E48
:1052F0003722000E3822392236C02DF737C02EF75C
:1053000038C02FF713D08D9D0CD0C7EC6FF05950DB
:1053100007012D5D5A502E595B502F5907E20A01A3
:105320008A9D040EE66EDBEC76F0E552020EE66E28
:10533000E7EC76F0E55212000A01E76B0401F66B28
:10534000010EF76FFE6BFF6BFC6BFCC4FDF4FCC43D
:10535000D8F4D96BDA6BDB6B000EFA6FFB6BF86F6E
:10536000F96BE06FE16BE26BE1BFE269E66BE76B63
:10537000E86BE96BE6C4EEF4E7C4EFF4E8C4F0F4DC
:10538000E9C4F1F4EA6BEB6BEC6BED6BEAC4F2F49D
:10539000EBC4F3F4ECC4F4F4EDC4F5F4E66AE66AA5
:1053A000E66AE66A0E0EE66E010EE66ED1EC73F06A
:1053B000366E060EE15E3650E66AE66AE66AE66A30
:1053C000120EE66E010EE66ED1EC73F0366E060E2E
:1053D000E15E3650000EE66EE66A0C0EE66E010ED9
:1053E000E66EA1EC73F0E552E552E552E5520A0192
:1053F000EB6BEC6B0A0192938A9D8A9F246A1200E0
:105400007BBA05D0200EE66EDBEC76F004D0200EE1
:10541000E66EE7EC76F0E5520A018EA105D0080EA3
:10542000E66EDBEC76F004D0080EE66EE7EC76F084
:10543000E552800EE66EE7EC76F0E552C7EC6FF0D1
:1054400059C0D8F85AC0D9F85BC0DAF8F40E080190
:10545000D827010ED923000EDA23E0EC18F0010E54
:10546000766EECEC32F0010E766EDDEC4AF00A015D
:105470008B9D8EA15CD0080EE66EDBEC76F0E552DB
:105480000A018EA75ED0E7EC3BF042CF40FF43CF4E
:1054900041FF000E0F013C6F3D6B0F01426F436BEC
:1054A00090EC55F0C7EC6FF059500801D85D5A5098
:1054B000D9595B50DA5932E20A018D51020B2EE1C3
:1054C0003AEC43F00A018E95E8B08E858C51010BC1
:1054D00006E18B51800B03E18E51040B13E17BBE7F
:1054E00005D0800EE66EDBEC76F004D0800EE66E22
:1054F000E7EC76F0E5527BB405D0040EE66EDBEC0B
:1055000076F004D0040EE66EE7EC76F0E552F40E89
:105510000801D827010ED923000EDA230B011A0740
:1055200010E147EC42F00B01010E1A6F0AD0040E95
:10553000E66EDBEC76F0E552080EE66EE7EC76F010
:10554000E55292EC3EF00A018E51010B01E185D744
:105550008050100B04E00801D35101E07ED70A010E
:105560009151400B01E079D78C51010B01E075D7C7
:105570008B51800B01E071D78A51040B01E06DD78C
:1055800040CF36F041CF37F0386A396A37AE02D0B3
:1055900038683968D8903950000A08E6180E365C29
:1055A000000E3758000E3858000E395801E355D711
:1055B0008E51040B01E151D70801D36B800EE66ECA
:1055C000E7EC76F0E552040EE66EE7EC76F0E55295
:1055D000080EE66EDBEC76F0E5520A018EAB05D0E4
:1055E000200EE66EDBEC76F004D0200EE66EE7ECE3
:1055F00076F0E552C7EC6FF059C0D4F85AC0D5F830
:105600005BC0D6F80801D76B59C039F75AC03AF7D2
:105610005BC03BF759C036F05AC037F05BC038F07A
:10562000D7C839F0E80E3626030E3722000E38228E
:10563000392236C015F737C016F738C017F780C0C3
:1056400036F0376A386A396AD40EE96E080EEA6EA7
:10565000EE503626EE503722EE503822EE503922E8
:1056600036C054F737C055F738C056F70A018A9745
:10567000756A1200520EE66ED00EE66E01EC5BF01B
:10568000E552E552D9EC16F008EC45F066EC75F001
:10569000440EE66ED00EE66E01EC5BF0E552E5528C
:1056A0000801DC6B400EDC5D62E2400EE66ED00E5F
:1056B000E66E01EC5BF0E552E5520801DC29E66E8E
:1056C000E66A4DEC5BF0E552E5523C0EE66ED00E1C
:1056D000E66E01EC5BF0E552E5520801DC51EA6A46
:1056E000BD0FE96E060EEA22EFCF36F0376A36BEFE
:1056F000376836C0E6FF37C0E6FFB6EC5BF0E55230
:10570000E5520801DC51F66EF76AD890F636F736A6
:105710009B0EF626EF0EF722010EF626000EF7225C
:105720000800F55007E0390EE66ED00EE66E01EC8B
:105730005BF018D0200EE66E21EC5BF0E552400ED7
:105740000801DC25E66EE66AC8EC72F0E552E55227
:10575000366E376A36BE376836C0E6FF37C0E6FFBA
:10576000B6EC5BF0E552E5520801DC2B9BD712004A
:105770003F0E926E020EC16EC00E816E400E936E91
:10578000600E826E840E946EC78CF19E410EE66EA2
:10579000E66A3C0EE66E86EC77F0E552E552E5529D
:1057A0001200736A0801DD6B0A0EDD5D09E2DD514E
:1057B000EA6A8A0FE96E0A0EEA22EF6ADD2BF4D755
:1057C0000A018D818D898E850A01826B836B846BC2
:1057D000856B0F0148697F0E496F48CF46FFE8CFC0
:1057E00047FF48CF4AFFE8CF4BFF140E0F013E6F33
:1057F0003F6BF00E0F01406F416BD00E06019E6FA4
:105800009F6B7B6A2E0EE66EE7EC76F0E552040E97
:10581000E66EDBEC76F0E552800EE66EE7EC76F0B5
:10582000E5521200D9CFE6FFE1CFD9FFFD0EDBCF65
:1058300036F0FE0EDBCF37F0386A37BE386836C038
:10584000E6FF37C0E6FF38C0E6FFC7EC6FF0E55271
:10585000E7CF38F0E552E7CF37F0E552E7CF36F043
:10586000595036240801DE6F5A503720DF6F5B50E5
:105870003820E06FDE2B000EDF23E023C7EC6FF053
:105880000801DE51595CDF515A58E0515B58F6E38C
:10589000E552E7CFD9FF1200D9CFE6FFE1CFD9FF1C
:1058A000FD0EDBCF36F0FE0EDBCF37F0640E370295
:1058B000F3CF37F03602F3CF36F0F4503726386A9C
:1058C00037BE386836C0E6FF37C0E6FF38C0E6FFAF
:1058D000C7EC6FF0E552E7CF38F0E552E7CF37F08D
:1058E000E552E7CF36F0595036240801E16F5A509F
:1058F0003720E26F5B503820E36FC7EC6FF0080190
:10590000E151595CE2515A58E3515B580BE2020EE7
:105910000001805DE66EE66A85DFE552E55290ECB7
:1059200055F0EBD7E552E7CFD9FF1200D9CFE6FF0C
:10593000E1CFD9FF800EE66EDBEC76F0E552FE0E8D
:10594000DBCFE6FFE66AA8DFE552E552800EE66EA1
:10595000E7EC76F0E552FD0EDBCFE6FFE66A9CDF72
:10596000E552E552E552E7CFD9FF1200D9CFE6FF65
:10597000E1CFD9FF0801E46BFE0EDB50E45D0AE2E3
:10598000080EE66E020EE66ED1DFE552E552080122
:10599000E42BF2D7E66A080EE66EC8DFE552E55260
:1059A000E552E7CFD9FF1200C7EC6FF059C0E5F818
:1059B0005AC0E6F85BC0E7F8E50EE96E080EEA6E3D
:1059C00007013C51EE5C3D51EE583E51EE5801E26C
:1059D000BFD0765001E1BCD0E5C83CF7E6C83DF742
:1059E000E7C83EF7E80E3C27030E3D23000E3E239A
:1059F000766A9BC658F09CC659F05A6A5B6A59AEE3
:105A000002D05A685B68040E5D6E5E6A5F6A606A07
:105A10000EEC78F054C07AFA55C07BFA390EE96E74
:105A2000070EEA6EEE500801E55D3D6EEE50E65958
:105A30003E6EEE50E7593F6E54C03AF055C03BF011
:105A40003C6A3BBE3C683AC059F03BC05AF03CC08F
:105A50005BF03DC05EF03EC05FF03FC060F0C7EC61
:105A600071F0396A56500A018227575083235850E3
:105A7000842339508523E5C839F7E6C83AF7E7C8E3
:105A80003BF782CA36F083CA37F084CA38F085CA39
:105A900039F05D6A400E5E6E380E5F6E606A82CAD3
:105AA00058F083CA59F084CA5AF085CA5BF066EC94
