:020000040000FA
:060000001DEF7AF0120072
:020006001200E6
:060008003FEF72F0120050
:02000E00475059
:080010004747414750524D43A0
:0600180038EF72F0120047
:02001E000F00D1
:100020005AF50000000B00000A00000045EE000039
:10003000FF0700000100000053F500002A0B00003C
:10004000070000004FF50000420B00000400000014
:100050004DF50000FE0000000200000051C9000044
:10006000FF0600000100000043F50000F20A000056
:100070000A0000003EF500003D0B000005000000F6
:1000800024F500007C0A00001A00000002F50000C0
:10009000220A000022000000FAF40000130B000006
:1000A00008000000EEF40000DC0A00000C00000074
:1000B000DAF40000EA00000014000000B8F40000C8
:1000C000000A000022000000B2F40000310B000022
:0400D0000600000026
:0C00D4000901C36B0A01998196810F019C
:1000E000300E0E6FF80E0F6F10690F01100E1E6F9D
:1000F0001F690A0198AB4BD036C63CF637C63DF6B1
:1001000011CF36F012CF37F013CF38F0396A38BE3E
:1001100039683934000E391809E6D8802C0E365467
:10012000010E3754000E3854000E395416E229ECF3
:1001300072F059C036F05AC037F05BC038F0396AF7
:10014000980E36263A0E3722000E3822392236C053
:100150001BF737C01CF738C01DF729EC72F0595057
:1001600007011B5D5A501C595B501D590AE20A01D8
:100170009951800B08E1040E745C05E0030E755C78
:1001800002E0000E01D0010E0901C36F6BD009011E
:10019000BB510601365D366E37510901BC55376ECD
:1001A0000001800E371403E006013C6B13D00901F7
:1001B000BB510601365D386E37510901BC55396EA9
:1001C000E8340AE23850D008000E395405E206013E
:1001D000D00E3C6F3D6B0BD0BB510601365D060166
:1001E0003C6F0901BC510601375906013D6F29ECEE
:1001F00072F0595007011E5D5A501F595B5020592B
:1002000031E229EC72F059C036F05AC037F05BC0C9
:1002100038F0396AE80E3626030E3722000E3822EF
:10022000392236C01EF737C01FF738C020F7060145
:100230003D5106013F19E8AE02D03F3507D03E518F
:1002400006013C5D06013F5106013D5902E3000EE7
:1002500001D0010E0901C36FE85004E1050EBB2770
:10026000000EBC230901C35112002CEC56F02E0ED7
:10027000E66E60EC77F0E552746A030E736E12005E
:10028000050EE66EE66A3AC4E6FF3BC4E6FFBFEC45
:100290002DF0E552E552E552E552F3CF3AF4F4CFB2
:1002A0003BF4050EE66EE66A82C4E6FF83C4E6FF11
:1002B000BFEC2DF0E552E552E552E552F3CF82F462
:1002C000F4CF83F40401CA6BCB6B1200000E04015F
:1002D000A26FA36B5A6F5B6B126F136BB9C7E6FF0C
:1002E000BAC7E6FFBBC7E6FFA8C7E6FFA9C7E6FF98
:1002F000AAC7E6FFDAD8366E060EE15E3650120067
:100300002CEC56F00A019687030E736E756E29EC7D
:100310002CF0FEEC2CF0D1EC49F0A4EC28F060ECD1
:1003200056F0F5D70A019B97AEC7ABF7AFC7ACF74E
:10033000B0C7ADF7BFC7BCF7C0C7BDF7C1C7BEF7F1
:100340009999989598939B9D746A1200D9CFE6FF6E
:10035000E1CFD9FF0701E96BEA6BEB6BFD0EDBCF59
:1003600036F0FE0EDBCF37F036C0F3FF37C0F4FFB8
:10037000E552E7CFD9FF12000A01BF510901BF5D65
:10038000366EC0510A01C055376E36C0E6FFE66EC4
:1003900002EC4EF0E552E552F3CFC4F9F4CFC5F9C3
:1003A0000901D880F45004E7E40EC45DFF0EC5597E
:1003B00004E2E40EC46FC5690DD0C53509E2C4512D
:1003C0001C08000EC55504E21C0EC46FC56B02D09C
:1003D000C5C9C5F9090EE66EC1C946F0C2C947F0E4
:1003E000486A496A47AE02D048684968F4C742F093
:1003F000436A446A456A42AE03D04368446845682C
:10040000C4C93EF0C5C93FF0406A416A3FAE02D060
:10041000406841683EC058F03FC059F040C05AF0B3
:1004200041C05BF042C05DF043C05EF044C05FF08D
:1004300045C060F087EC78F054C03AF055C03BF00E
:1004400056C03CF057C03DF054C058F055C059F06C
:1004500056C05AF057C05BF046C05DF047C05EF032
:1004600048C05FF049C060F087EC78F054C036F0C7
:1004700055C037F056C038F057C039F054C0E6FFC9
:1004800055C0E6FF56C0E6FF57C0E6FF3EEC4DF014
:100490004A6E050EE15E4A5058C0C4F959C0C5F90C
:1004A00058C0F3FF59C0F4FF1200D9CFE6FFE1CFE7
:1004B000D9FF29EC72F059C0C6F95AC0C7F95BC020
:1004C000C8F90901C96B27C73AF028C73BF029C70B
:1004D0003CF03D6A3A50595C366E3B505A58376E84
:1004E0003C505B58386E3D50C959396E36C05EFA83
:1004F00037C05FFA38C060FA59C027F75AC028F7EA
:100500005BC029F7DBC736F0DCC737F0386A396AD9
:1005100037AE02D038683968480E365E000E375A5A
:10052000385A395A36C0C1F937C0C2F9800E37146B
:1005300003E0C16BC26B0DD0C23509E2C1510008A6
:10054000010EC25504E2C16B010EC26F02D0C2C9D6
:10055000C2F9FC0EDBCFA8F7FD0EDBCFA9F7FE0E2C
:10056000DBCFAAF7F90EDBCFB9F7FA0EDBCFBAF77C
:10057000FB0EDBCFBBF70701AE51A85DB16FAF51EA
:10058000A959B26FB051AA59B36FBF51B95DC26FCB
:10059000C051BA59C36FC151BB59C46F800EB31556
:1005A00018E0B1C7D2F9B2C7D3F9B3C7D4F95E68BE
:1005B0005F686068B1C759F0B2C75AF0B3C75BF063
:1005C00029EC74F056C0D2F957C0D3F958C0D4F909
:1005D00006D0B1C7D2F9B2C7D3F9B3C7D4F907016E
:1005E000800EC41518E0C2C7D5F9C3C7D6F9C4C771
:1005F000D7F95E685F686068C2C759F0C3C75AF030
:10060000C4C75BF029EC74F056C0D5F957C0D6F9D1
:1006100058C0D7F906D0C2C7D5F9C3C7D6F9C4C7E1
:10062000D7F9D20EE96E090EEA6E020EEB500901FF
:10063000D719E8AE02D0D73506D0D551EE5CD651E9
:10064000EE58D751EE5807E2D5C954FAD6C955FA33
:10065000D7C956FA06D0D2C954FAD3C955FAD4C963
:1006600056FA54CA36F055CA37F056CA38F0396AC5
:1006700038BE3968D8903950000A08E6500E365C0A
:100680000B0E3758000E3858000E395842E2D5C9C3
:1006900059F0D6C95AF0D7C95BF0D5C95EF0D6C9B2
:1006A0005FF0D7C960F029EC74F056C03AF057C03B
:1006B0003BF058C03CF0D2C959F0D3C95AF0D4C964
:1006C0005BF0D2C95EF0D3C95FF0D4C960F029EC09
:1006D00074F03A505624366E3B505720376E3C50DB
:1006E0005820386E396A38BE396836C0E6FF37C0E0
:1006F000E6FF38C0E6FF39C0E6FF43EC51F0E552B3
:10070000E552E552E55258C054FA59C055FA5AC05C
:1007100056FAB1C738F0B2C739F0B3C73AF03B6AFE
:100720003ABE3B6838C0E6FF39C0E6FF3AC0E6FF94
:100730003BC0E6FFC2C73CF0C3C73DF0C4C73EF0B4
:100740003F6A3EBE3F683CC0E6FF3DC0E6FF3EC09C
:10075000E6FF3FC0E6FF47EC4FF0406E080EE15E5B
:100760004050F3CF36F0F4CF37F0F3CFE6FFF4CFBD
:10077000E6FFECDDE552E552F3CF59FAF4CF5AFA31
:10078000FEC436F0FFC437F0D89036363736386AB4
:1007900037BE38680701F1513818E8AE02D0383456
:1007A00006D03650EF5D3750F0593850F15902E31A
:1007B000000E01D0010E0A019895E8B09885985175
:1007C000040B53E0110EE96E0F0EEA6EEE500F01AE
:1007D0000E5D396EEE500F593A6EEE5010593B6E69
:1007E0000001800E3B141FE0110EE96E0F0EEA6E41
:1007F000EE500F010E5D366EEE500F59376EEE5013
:100800001059386E5E685F68606836C059F037C04E
:100810005AF05B6E29EC74F056C036F057C037F0D2
:1008200058C038F00ED0110EE96E0F0EEA6EEE5081
:100830000F010E5D366EEE500F59376EEE501059A7
:10084000386EDDC73CF0DEC73DF03E6A3DBE3E6817
:1008500038503E18E8AE02D03E3406D03C50365CEC
:100860003D5037583E50385802E3000E01D0010E7B
:100870000A019893E8B098830901C23501E381D257
:10088000C1510008000EC25501E37BD20601675139
:100890000A01595D366E5A5106016855376E36C0E9
:1008A000E6FFE66E02EC4EF0E552E552F3CFBFF9FB
:1008B000F4CFC0F9F2C739F03A6A3B6A39AE02D0D8
:1008C0003A683B6854CA59F055CA5AF056CA5BF0A8
:1008D00039C05EF03AC05FF03BC060F029EC74F0C4
:1008E000D8905850000A06E6000E565C000E575885
:1008F000000E585804E2366A376A386A4FD0E1C7AA
:100900003FF0E2C740F0416A40BE4168F2C73CF0A8
:100910003D6A3E6A3CAE02D03D683E6854CA59F01A
:1009200055CA5AF056CA5BF03CC05EF03DC05FF05D
:100930003EC060F029EC74F041505818E8AE02D087
:10094000583406D056503F5C575040585850415884
:1009500009E2E1C736F0E2C737F0386A37AE1ED099
:1009600038681CD0F2C742F0436A446A42AE02D0F3
:100970004368446854CA59F055CA5AF056CA5BF0E5
:1009800042C05EF043C05FF044C060F029EC74F0F8
:1009900056C036F057C037F058C038F036C0CEF9E0
:1009A00037C0CFF90401FA510901365CCC6F04015C
:1009B000FB5109013758CD6F090EE66EC1C946F0EB
:1009C000C2C947F0486A496A47AE02D048684968D8
:1009D000F3C742F0436A446A456A42AE03D04368B3
:1009E00044684568CCC93EF0CDC93FF0406A416AD1
:1009F0003FAE02D0406841683EC058F03FC059F059
:100A000040C05AF041C05BF042C05DF043C05EF0B0
:100A100044C05FF045C060F087EC78F054C03AF015
:100A200055C03BF056C03CF057C03DF054C058F0A4
:100A300055C059F056C05AF057C05BF046C05DF043
:100A400047C05EF048C05FF049C060F087EC78F0C6
:100A500054C036F055C037F056C038F057C039F0A2
:100A600054C0E6FF55C0E6FF56C0E6FF57C0E6FF9C
:100A70003EEC4DF04A6E050EE15E4A5058C0D0F98A
:100A800059C0D1F958C03AF059C03BF03C6A3D6AB0
:100A90003BAE02D03C683D68D8803D50FF0A08E676
:100AA000C00E3A5CFF0E3B58FF0E3C58FF0E3D58FF
:100AB00004E2C00E366E376826D0D0C93EF0D1C9E8
:100AC0003FF0406A416A3FAE02D04068416841341D
:100AD000000E411809E6D880400E3E54000E3F54E7
:100AE000000E4054000E415406E2400E366E376A46
:100AF000386A396A0AD0D0C936F0D1C937F0386AB5
:100B0000396A37AE02D03868396836C0D0F937C094
:100B1000D1F9E3C7E6FFE4C7E6FF386A396A37AEC2
:100B200002D03868396836C0E6FF37C0E6FF38C003
:100B3000E6FF39C0E6FFE7C73AF0E8C73BF03C6A9A
:100B40003D6A3BAE02D03C683D683AC0E6FF3BC020
:100B5000E6FF3CC0E6FF3DC0E6FFC1EC2EF03E6E76
:100B60000A0EE15E3E5058C0E7F759C0E8F7080E9C
:100B7000E66EBFC9E6FFC0C9E6FF2EEC4FF0E552B6
:100B8000E552F3CF3EF0F4CF3FF0406A416A3FAE0A
:100B900002D040684168E7C73AF0E8C73BF03C6ADA
:100BA0003D6A3BAE02D03C683D683AC058F03BC05D
:100BB00059F03CC05AF03DC05BF03EC05DF03FC014
:100BC0005EF040C05FF041C060F087EC78F054C048
:100BD00036F055C037F056C038F057C039F054C021
:100BE000E6FF55C0E6FF56C0E6FF57C0E6FF3EEC05
:100BF0004DF0426E050EE15E42505D685E685F68D2
:100C0000606887EC78F054C082F455C083F4080E15
:100C1000E66EBFC9E6FFC0C9E6FFB5EC4EF0E5528F
:100C2000E552F3CF3EF0F4CF3FF0406A416A3FAE69
:100C300002D040684168E7C73AF0E8C73BF03C6A39
:100C40003D6A3BAE02D03C683D683AC058F03BC0BC
:100C500059F03CC05AF03DC05BF03EC05DF03FC073
:100C60005EF040C05FF041C060F087EC78F054C0A7
:100C700036F055C037F056C038F057C039F054C080
:100C8000E6FF55C0E6FF56C0E6FF57C0E6FF3EEC64
:100C90004DF0426E050EE15E425058C03AF459C024
:100CA0003BF40A019651020B68E0DFC736F0E0C75B
:100CB00037F0386A37BE386838500A015619E8AE3E
:100CC00002D0563506D05451365C555137585651DE
:100CD000385853E2BCEC01F0F3CFD0F9F4CFD1F99E
:100CE0000901D06DD11F000ED1230401800ECB1558
:100CF00002E0FF0E01D0010E366E0901800ED11503
:100D000002E0FF0E01D0010E365C04E0D0C9CAF447
:100D1000D1C9CBF4E5C7E6FFE6C7E6FFD0C936F098
:100D2000D1C937F0386A396A37AE02D038683968C5
:100D300036C0E6FF37C0E6FF38C0E6FF39C0E6FF41
:100D4000CAC43AF0CBC43BF03C6A3D6A3BAE02D029
:100D50003C683D683AC0E6FF3BC0E6FF3CC0E6FFAA
:100D60003DC0E6FFC1EC2EF03E6E0A0EE15E3E5045
:100D700058C0CAF459C0CBF406D00401CA6BCB6B7F
:100D800002D040EC01F00A019B87E552E7CFD9FF82
:100D900012000A019651400B13E09651800B10E0AF
:100DA0009A51400B0DE09A51200B0AE029EC72F0A9
:100DB00059500701425D5A5043595B50445902E370
:100DC000000E01D0010E0A01999DE8B0998D99ADF0
:100DD000D5D1999F96979B51080B01E0E1D17650B0
:100DE00001E1DED1BFC759F0C0C75AF0C1C75BF0FF
:100DF000BFC75EF0C0C75FF0C1C760F029EC74F0F8
:100E000056C03AF057C03BF058C03CF0AEC759F05E
:100E1000AFC75AF0B0C75BF0AEC75EF0AFC75FF0C8
:100E2000B0C760F029EC74F03A505624366E3B504F
:100E30005720376E3C505820386E396A38BE3968B2
:100E400036C0E6FF37C0E6FF38C0E6FF39C0E6FF30
:100E500043EC51F0E552E552E552E55258C0EFF748
:100E600059C0F0F75AC0F1F7AEC736F0AFC737F048
:100E7000B0C738F0396A38BE396836C0E6FF37C0C7
:100E8000E6FF38C0E6FF39C0E6FFBFC73AF0C0C78B
:100E90003BF0C1C73CF03D6A3CBE3D683AC0E6FF4E
:100EA0003BC0E6FF3CC0E6FF3DC0E6FF47EC4FF02D
:100EB0003E6E080EE15E3E50F3CFEDF7F4CFEEF755
:100EC000745001E12AD1050A01E1F4D0030A01E1DD
:100ED000BCD0070A01E18AD0030A49E0010A15E003
:100EE000070A01E05DD1E66AE66AE66AE66AE66A52
:100EF000E66A55EC02F0366E060EE15E36506AEC9C
:100F000000F0000901E14CD146D1E66AE66AE66AE2
:100F1000E66AE66AE66A55EC02F0366E060EE15EB7
:100F200036500A019851010B04E19751800B01E101
:100F3000F1D011CF36F012CF37F013CF38F0396A35
:100F400038BE3968D8903950000A08E62C0E365C55
:100F5000010E3758000E3858000E395802E2040EC0
:100F6000746E6AEC00F0000901E11AD114D1E66A4E
:100F7000E66AE66AE66AE66AE66A55EC02F0366E0A
:100F8000060EE15E36500A019851010B04E19751BB
:100F9000800B01E1BFD098A327D09851100B01E13D
:100FA000FFD029EC72F0595007011B5D5A501C59B3
:100FB0005B501D5901E3F4D029EC72F059C036F0B2
:100FC0005AC037F05BC038F0396A980E36263A0EB0
:100FD0003722000E3822392236C01BF737C01CF7E3
:100FE00038C01DF7030EB1D09B9DAED0E66AE66A0D
:100FF000E66AE66AE66AE66A55EC02F0366E060EC6
:10100000E15E36500A019851010B04E19751800BC3
:1010100001E180D098A3C4D029EC72F059500A01A4
:101020005B2507011B6F5A500A015C2107011C6FE9
:101030005B500A015D2107011D6F20CF0EFF21CFFC
:101040000FFF22CF10FF020E80D04DCAE6FF4ECA1E
:10105000E6FF4FCAE6FF49CAE6FF4ACAE6FF4BCAA7
:10106000E6FF55EC02F0366E060EE15E36500A01E0
:1010700097AF50D09851020B01E192D029EC72F059
:10108000595007011B5D5A501C595B501D5901E313
:1010900087D00A014551445D0BE1010E446F20CF1A
:1010A0000EFF21CF0FFF22CF10FF0A019B9D4DD0D5
:1010B000442B36D04DCAE6FF4ECAE6FF4FCAE6FFC4
:1010C00049CAE6FF4ACAE6FF4BCAE6FF55EC02F002
:1010D000366E060EE15E36500A0197AF1BD098A31C
:1010E0005FD029EC72F059500A01512507011B6F9E
:1010F0005A500A01522107011C6F5B500A0153210B
:1011000007011D6F46CA0EFF47CA0FFF48CA10FFEE
:10111000060E1BD092EC01F043D00A0197AF0CD021
:1011200044CAE6FF58DAE55246CA0EFF47CA0FFF27
:1011300048CA10FF050E09D098A109D020CF0EFF94
:1011400021CF0FFF22CF10FF010E746E29D097B967
:1011500002D092EC01F0BCC7E6FFBDC7E6FFBEC7F8
:10116000E6FFABC7E6FFACC7E6FFADC7E6FF55EC51
:1011700002F0366E060EE15E365012D09951800BA9
:1011800006E19851010B03E19751800B09E06AECED
:1011900000F0000903E080EC01F002D040EC01F027
:1011A0000A019A99120029EC72F059500701185D52
:1011B0005A5019595B501A5925E20A019AA128D0B0
:1011C000080EE66E54EC77F0E55207011B6B1C6BC2
:1011D0001D6B29EC72F059C036F05AC037F05BC075
:1011E00038F0396AE80E3626030E3722000E382210
:1011F000392236C015F737C016F738C017F7746AAA
:10120000756A1200E80E1827030E1923000E1A2320
:101210001200DAEC17F07550040A01E1D0D0040A8C
:1012200061E0010A2DE0030A0BE0010A01E012006F
:1012300066EC01F06AEC00F0000901E1C0D0BAD020
:1012400066EC01F011CF36F012CF37F013CF38F043
:10125000396A38BE3968D8903950000A08E62C0E31
:10126000365C010E3758000E3858000E395802E22D
:10127000030E756E6AEC00F0000901E1A0D09AD06F
:1012800066EC01F00A01968120CF0EFF21CF0FFFFF
:1012900022CF10FF29EC72F0595007011B5D5A5004
:1012A0001C595B501D591CE20A01968729EC72F00B
:1012B00059C036F05AC037F05BC038F0396A980E22
:1012C00036263A0E3722000E3822392236C01BF756
:1012D00037C01CF738C01DF7030E746E020E6DD0B8
:1012E000D3EF08F029EC72F059500701155D5A5000
:1012F00016595B50175963E20501E42B000EE523F4
:101300000A019651400B17E09A51400B14E09A5194
:10131000200B11E029EC72F059C036F05AC037F0BA
:101320005BC038F0396A880E3626130E3722000E5D
:101330003822392209D029EC72F059C036F05AC04F
:1013400037F05BC038F0396A36C01BF737C01CF77E
:1013500038C01DF729EC72F059C036F05AC037F08A
:101360005BC038F0396AE80E3626030E3722000ECD
:101370003822392236C018F737C019F738C01AF7A3
:1013800011CF36F012CF37F013CF38F0396A38BEAC
:101390003968D8903950000A08E62C0E365C010EE8
:1013A0003758000E3858000E395806E20A01985195
:1013B000200B02E080EF01F0010E756E12001200AA
:1013C000C1EC5BF00901DB6F020EE66E54EC77F0C6
:1013D000E5520901DB51330A01E1ACD0010A5CE0BE
:1013E000030A04E0010A01E0F0D0EAD0DD6BD96B1A
:1013F000DA6BD890DA5104E6000ED95D010EDA59A5
:1014000012E2C1EC5BF00901DC6FE850DD1B000E5D
:10141000D925E96E030EDA21EA6EDCC9EFFFD92B7C
:10142000000EDA23E6D7DD5130E1D96BDA6BD890C4
:10143000DA5104E6000ED95D010EDA5924E2000EFD
:10144000D925E96E030EDA21EA6EEF50E66ED9C9AE
:1014500036F0DAC937F0386A396A37AE02D0386800
:101460003968372A000E3822392236C0E6FF37C0E5
:10147000E6FFC7EC75F0E552E552E5520901D92BBC
:10148000000EDA23D4D7060E01D0150EE66E96ECC8
:101490005AF0E55280D999D0DD6BD96BDA6BFF0E2B
:1014A000DAAF02D0D89003D0D95D000EDA5926E227
:1014B000D9C936F0DAC937F0386A396A37AE02D09E
:1014C00038683968372A000E3822392236C0E6FFDC
:1014D00037C0E6FF2AEC75F0E552E5520901DC6FF2
:1014E000E850DD1B000ED925E96E030EDA21EA6E05
:1014F000DCC9EFFFD92B000EDA23D1D7DDC9FFF30A
:10150000D96BDA6BD890DA5104E6000ED95D010E82
:10151000DA5956E2000ED925E96E030EDA21EA6E99
:10152000EF50E66E96EC5AF0E5520901D92B000E09
:10153000DA23E8D7DD6BD96BDA6B3F0EDAAF02D076
:10154000D89003D0D95D000EDA591DE2800ED9255E
:10155000366EFF0EDA21376E36C0E6FFE66E2AECF5
:1015600075F0E552E5520901DC6FE850DD1B000E15
:10157000D925E96E030EDA21EA6EDCC9EFFFD92B1B
:10158000000EDA23DAD7DDC93FF3D96BDA6B400EF0
:10159000DAAF02D0D89003D0D95D000EDA5910E24C
:1015A000000ED925E96E030EDA21EA6EEF50E66EE1
:1015B00096EC5AF0E5520901D92B000EDA23E7D751
:1015C000060EE66E96EC5AF0E552020EE66E60EC00
:1015D00077F0E5521200D9CFE6FFE1CFD9FFFE0E3A
:1015E000DBCF36F00A014551E76E3618E8AE02D07F
:1015F000363403D0E750D880365403E2FE0EDB6A5F
:10160000446BFE0EDB5014E1496B4A6B4B6B4C6B29
:101610004D6B4E6B4F6B506B20CF46FA21CF47FA84
:1016200022CF48FA300E516F750E526F536BABD00C
:10163000FE0EDB040B0DF3CF36F0376A386A396AD9
:1016400036AE03D0376838683968180E3626010E72
:101650003722000E3822392236C0DEF937C0DFF9D2
:1016600036C0E6FF37C0E6FF6EEC75F0E552E55296
:1016700058C049FA59C04AFA5AC04BFA5BC04CFAF2
:10168000040E0901376ADE25366EDF51372236C077
:10169000E6FF37C0E6FF6EEC75F0E552E55258C044
:1016A0004DFA59C04EFA5AC04FFA5BC050FA080EB4
:1016B0000901376ADE25366EDF51372236C0E6FF74
:1016C00037C0E6FF43EC75F0E552E552F3CF46FA3A
:1016D000F4CF47FA0A01486B47BF4869640E5E6E53
:1016E0005F6A606A46CA59F047CA5AF048CA5BF056
:1016F00029EC74F056C046FA57C047FA58C048FA69
:1017000056C036F057C037F058C038F0396A38BE86
:1017100039683934000E391809E6D880780E365405
:10172000000E3754000E3854000E395405E20A01F9
:10173000780E466F476B486B0A0E0901376ADE2543
:10174000366EDF51372236C0E6FF37C0E6FF2AEC9F
:1017500075F0E552E552586E596A58BE59685A6A92
:101760005B6A59AE02D05A685B68E80E5D6E030E84
:101770005E6E5F6A606A87EC78F054C051FA55C0BB
:1017800052FA56C053FA0A01989398959B9DE552D8
:10179000E7CFD9FF12000A01596B5A6B000E040102
:1017A000CA6FCB6B826F836B3A6F3B6B0701E76F3E
:1017B000E86BC26BC36BC46BC2C7B1F7C3C7B2F7E8
:1017C000C4C7B3F7E96BEA6BEB6B0F010E6B0F6BE2
:1017D000106B746A0F010C6B0D6B0F010A6B0B6BB6
:1017E0000A01989598939B97320E0701DF6FE06B83
:1017F0001E0EDD6FDE6B090EE66E010EE66E2AEC44
:1018000075F0E552E5520A01456F000EE76E451985
:10181000E8AE02D0453503D0E750D880455502E305
:10182000446B02D0010E446FE66AD5DEE552120029
:10183000400EE66EC80EE66E76EC5AF0E552E552C2
:1018400012000A019DA704D02F0EE66EC80E03D029
:101850001B0EE66EC80EE66E76EC5AF0E552E552C7
:1018600012007ECAE6FF7FCAE6FF76EC5AF0E55228
:10187000E55212005FEC5BF02A0EE66EED0EE66EAE
:1018800076EC5AF0E552E552CC0EE66EC70EE66EE7
:1018900076EC5AF0E552E552BF0EE66EC70EE66EE4
:1018A00076EC5AF0E552E552DCDFAC0EE66EC70E80
:1018B000E66E76EC5AF0E552E552200EE66EE66AE8
:1018C00000CF36F0376A386A396A00CFE6FF37C092
:1018D000E6FF38C0E6FF39C0E6FF39EC5CF03A6E4F
:1018E000060EE15E3A505FEC5BF0990EE66EC70EB5
:1018F000E66E76EC5AF0E552E552E66A010EE66EC7
:10190000BECA36F0376A36BE3768386A396A37AECB
:1019100002D0386839684B0E5D6E5E6A5F6A606A35
:1019200036C058F037C059F038C05AF039C05BF0B3
:1019300087EC78F054C036F055C037F056C038F018
:1019400057C039F054C0E6FF55C0E6FF56C0E6FF69
:1019500057C0E6FF39EC5CF03A6E060EE15E3A5095
:10196000810EE66EC70EE66E76EC5AF0E552E55251
:10197000780EE66EC70EE66E76EC5AF0E552E5524A
:10198000A9EC64F06E0EE66EC70EE66E76EC5AF0C9
:10199000E552E5526BC9E6FF93EC5EF0E552650E49
:1019A000E66EC70EE66E76EC5AF0E552E552BDECF7
:1019B00049F0590EE66EC70EE66E76EC5AF0E55227
:1019C000E552ADEC31F00A019A51400B20E00601DE
:1019D0006D511DE0500EE66EC70EE66E76EC5AF0C5
:1019E000E552E552E66AE66A0E0EE66EE66AE66AD9
:1019F000E66A39EC5CF0366E060EE15E36504B0E50
:101A0000E66EC70EE66E76EC5AF0E552E552420EEF
:101A1000E66EC70EE66E76EC5AF0E552E552B0EC93
:101A200051F00801B65131E03F0EE66EC70EE66E8A
:101A300076EC5AF0E552E55208018D6B040E8D5D8F
:101A40001CE28D51E96EEA6AD890E936EA36B40EA6
:101A5000E926000EEA22EE50ED1004E0390EE66EA3
:101A6000C70E03D0350EE66EC70EE66E76EC5AF062
:101A7000E552E55208018D2BE1D7320EE66EC70E16
:101A8000E66E76EC5AF0E552E552280EE66EC70E89
:101A9000E66E76EC5AF0E552E552D3DE1F0EE66EA6
:101AA000C70EE66E76EC5AF0E552E5520801965103
:101AB000010A02E0010A06E1310E9625E66E96EC77
:101AC0005AF007D0170EE66EC70EE66E76EC5AF0A7
:101AD000E552E552090EE66EC70EE66E76EC5AF058
:101AE000E552E552300E0A01BC25E66E96EC5AF03E
:101AF000E552F40EE66EC60EE66E76EC5AF0E5524E
:101B0000E5520A0198A904D0EA0EE66EC60E03D08B
:101B1000DF0EE66EC60EE66E76EC5AF0E552E55242
:101B20000A0196A304D0D10EE66EC60E03D0C10EF4
:101B3000E66EC60EE66E76EC5AF0E552E5520A0104
:101B400099B108D0A60EE66EC60EE66E76EC5AF097
:101B5000E552E552920EE66EC60EE66E76EC5AF04F
:101B6000E552E552010E1614010823E00A019D51C9
:101B7000080B1FE15D0EE66EC60EE66E76EC5AF0BF
:101B8000E552E552E66AE66A1650366E376A386AFA
:101B9000396A16C0E6FF37C0E6FF38C0E6FF39C035
:101BA000E6FF39EC5CF03A6E060EE15E3A505FEC0F
:101BB0005BF00A019BBF08D03E0EE66EC60EE66ED5
:101BC00076EC5AF0E552E5520A019AB508D01E0E9D
:101BD000E66EC60EE66E76EC5AF0E552E5520A0164
:101BE0009DAD08D0010EE66EC60EE66E76EC5AF09C
:101BF000E552E5520A0198BB08D0F30EE66EC50E19
:101C0000E66E76EC5AF0E552E5520A0198BD08D02E
:101C1000DC0EE66EC50EE66E76EC5AF0E552E55245
:101C2000090E09016B5D04E00A019651040B08E0FE
:101C3000CF0EE66EC50EE66E76EC5AF0E552E55232
:101C4000040E0A01675D04E00A019A51200B08E1C5
:101C5000C10EE66EC50EE66E76EC5AF0E552E55220
:101C60000A019ABD08D0AE0EE66EC50EE66E76ECA1
:101C70005AF0E552E5520A019AB108D08E0EE66E8E
:101C8000C50EE66E76EC5AF0E552E5528050100B28
:101C90000BE00801D35108E0730EE66EC50EE66E48
:101CA00076EC5AF0E552E5520A019851010B03E136
:101CB0009751800B08E0530EE66EC50EE66E76EC8B
:101CC0005AF0E552E55240C636F041C637F0386A60
:101CD000396A37AE02D038683968D8903950000A6E
:101CE00008E6180E365C000E3758000E3858000E05
:101CF000395808E3400EE66EC50EE66E76EC5AF0F3
:101D0000E552E55218EF0CF080B884EF16F0AAEC1B
:101D10005BF008018E6FE85002E184EF16F08EC888
:101D2000E6FF24EC79F0E552F3CF36F0F4CF37F04C
:101D3000F350F41007E08EC8E6FF36EC79F0E55278
:101D4000F3CF8EF808018E513F0A02E17AEF16F0C8
:101D5000690A02E177EF16F0110A02E174EF16F05A
:101D60001F0A02E171EF16F00B0A02E16FEF16F0A5
:101D7000010A01E152D1050A01E14DD10D0A01E14B
:101D800038D1170A01E17CD0010A33E0080A06E0E5
:101D9000060A01E01200F29E80EC7EF0230EE66E51
:101DA000C50EE66E76EC5AF0E552E552FD0EE66E93
:101DB000C40EE66E76EC5AF0E552E552AAEC5BF002
:101DC00008018E6F780E8E5D03E07A0E8E5DF6E16F
:101DD000780E8E5D04E176EC40F082EF16F0F10EA5
:101DE000E66EC40EE66E76EC5AF0E552E55282EFEE
:101DF00016F0D60EE66EC40EE66E76EC5AF0E5529C
:101E0000E552300E0A01BC25E66E96EC5AF0E5521A
:101E10006DEC3DF008018F6B400E8F5D02E382EFA9
:101E200016F0CA0EE66EC40EE66E76EC5AF0E55277
:101E3000E55208018F29E66EE66AC2EC5AF0E552D7
:101E4000E552C60EE66EC40EE66E76EC5AF0E5522A
:101E5000E55208018F51EA6A930FE96E080EEA22F3
:101E6000EFCF36F0376A36BE376836C0E6FF37C088
:101E7000E6FF2BEC5BF0E552E55208018F2BCCD747
:101E8000020EE66E54EC77F0E552CA0EE66EC40E12
:101E9000E66E76EC5AF0E552E552D0EC5BF0FF0FBF
:101EA00008018F6FC60EE66EC40EE66E76EC5AF031
:101EB000E552E552EBEC5BF0F3CF91F8F4CF92F8FA
:101EC0000801D880F45004E7800E915DFF0E92590E
:101ED00004E2800E366E37680FD0923509E29151D8
:101EE0007F08000E925504E27F0E366E376A04D0EA
:101EF00091C836F092C837F036C090F82B0E8F5D3F
:101F000009E18F51EA6A4D0FE96E080EEA22010ECF
:101F1000EF6E08D08F51EA6A4D0FE96E080EEA2283
:101F200090C8EFFF3F0E8F5D5EE1080193515BE0CB
:101F30000801010E786F030E596F8F6B400E8F5D95
:101F40004DE20A01BC0524E108018F51EA6A4D0FF8
:101F5000E96E080EEA22EF50E66E8F51E66EE66AF1
:101F6000C7EC75F0E552E552E55208018F51F66E67
:101F7000F76AD890F636F7368D0EF626F00EF72271
:101F8000010EF626000EF7220800F55024E012D0CC
:101F900008018F51F66EF76AD890F636F7368D0E37
:101FA000F626F00EF722010EF626000EF7220800A4
:101FB000F55011E18F51EA6A4D0FE96E080EEA22E1
:101FC000EF50E66E400E8F25E66EE66AC7EC75F0C0
:101FD000E552E552E55208018F2BB0D70A019A85E8
:101FE0000A01010EBD6F020EE66E60EC77F081EF24
:101FF00016F0D0EC5BF008018F6F0A01BC510801AC
:102000008F5D02E184EF16F08FC8BCFA0A01010E61
:10201000BD6F6DEF3DF0E0EF09F0C10EE66EC40E4E
:10202000E66E76EC5AF0E552E55212C658F013C649
:1020300059F05A6A5B6A59AE02D05A685B68F40E6E
:102040005D6E010E5E6E5F6A606A87EC78F054C068
:1020500058F055C059F056C05AF057C05BF0F00E1A
:102060005D6E5E6A5F6A606AC8EC73F0D8805B5030
:10207000FF0A08E6190E585CFC0E5958FF0E5A5814
:10208000FF0E5B5807E2190E366EFC0E376E38688D
:1020900039686FD012C658F013C659F05A6A5B6A95
:1020A00059AE02D05A685B68F40E5D6E010E5E6E2A
:1020B0005F6A606A87EC78F054C058F055C059F0F8
:1020C00056C05AF057C05BF0F00E5D6E5E6A5F6AF4
:1020D000606AC8EC73F05B34000E5B1809E6D880C8
:1020E000E70E5854030E5954000E5A54000E5B5418
:1020F00007E2E70E366E030E376E386A396A39D05A
:1021000012C636F013C637F0386A396A37AE02D0D5
:1021100038683968F40E5D6E010E5E6E5F6A606A43
:1021200036C058F037C059F038C05AF039C05BF0AB
:1021300087EC78F054C036F055C037F056C038F010
:1021400057C039F0F00E5D6E5E6A5F6A606A54C017
:1021500058F055C059F056C05AF057C05BF0C8EC63
:1021600073F058C036F059C037F05AC038F05BC031
:1021700039F036C0E6FF37C0E6FF2BEC5BF0E552E6
:10218000E552BD0EE66EC40EE66E76EC5AF0E552F0
:10219000E55214C658F015C659F05A6A5B6A59AE32
:1021A00002D05A685B68F40E5D6E010E5E6E5F6A67
:1021B000606A87EC78F054C058F055C059F056C0AA
:1021C0005AF057C05BF0F00E5D6E5E6A5F6A606A3F
:1021D000C8EC73F0D8805B50FF0A08E6190E585C13
:1021E000FC0E5958FF0E5A58FF0E5B5807E2190EA5
:1021F000366EFC0E376E386839686FD014C658F0EA
:1022000015C659F05A6A5B6A59AE02D05A685B68C3
:10221000F40E5D6E010E5E6E5F6A606A87EC78F0A8
:1022200054C058F055C059F056C05AF057C05BF032
:10223000F00E5D6E5E6A5F6A606AC8EC73F05B34D4
:10224000000E5B1809E6D880E70E5854030E595467
:10225000000E5A54000E5B5407E2E70E366E030E72
:10226000376E386A396A39D014C636F015C637F079
:10227000386A396A37AE02D038683968F40E5D6E54
:10228000010E5E6E5F6A606A36C058F037C059F062
:1022900038C05AF039C05BF087EC78F054C036F0A3
:1022A00055C037F056C038F057C039F0F00E5D6EAB
:1022B0005E6A5F6A606A54C058F055C059F056C0F3
:1022C0005AF057C05BF0C8EC73F058C036F059C0F4
:1022D00037F05AC038F05BC039F036C0E6FF37C07F
:1022E000E6FF2BEC5BF0E552E552B90EE66EC40E4C
:1022F000E66E76EC5AF0E552E55216C658F017C66F
:1023000059F05A6A5B6A59AE02D05A685B68F40E9B
:102310005D6E010E5E6E5F6A606A87EC78F054C095
:1023200058F055C059F056C05AF057C05BF0F00E47
:102330005D6E5E6A5F6A606AC8EC73F0D8805B505D
:10234000FF0A08E6190E585CFC0E5958FF0E5A5841
:10235000FF0E5B5807E2190E366EFC0E376E3868BA
:1023600039686FD016C658F017C659F05A6A5B6ABA
:1023700059AE02D05A685B68F40E5D6E010E5E6E57
:102380005F6A606A87EC78F054C058F055C059F025
:1023900056C05AF057C05BF0F00E5D6E5E6A5F6A21
:1023A000606AC8EC73F05B34000E5B1809E6D880F5
:1023B000E70E5854030E5954000E5A54000E5B5445
:1023C00007E2E70E366E030E376E386A396A39D087
:1023D00016C636F017C637F0386A396A37AE02D0FB
:1023E00038683968F40E5D6E010E5E6E5F6A606A71
:1023F00036C058F037C059F038C05AF039C05BF0D9
:1024000087EC78F054C036F055C037F056C038F03D
:1024100057C039F0F00E5D6E5E6A5F6A606A54C044
:1024200058F055C059F056C05AF057C05BF0C8EC90
:1024300073F058C036F059C037F05AC038F05BC05E
:1024400039F036C0E6FF37C0E6FF2BEC5BF0E55213
:10245000E552B50EE66EC40EE66E76EC5AF0E55225
:10246000E55218C658F019C659F05A6A5B6A59AE57
:1024700002D05A685B68F40E5D6E010E5E6E5F6A94
:10248000606A87EC78F054C058F055C059F056C0D7
:102490005AF057C05BF0F00E5D6E5E6A5F6A606A6C
:1024A000C8EC73F0D8805B50FF0A08E6190E585C40
:1024B000FC0E5958FF0E5A58FF0E5B5807E2190ED2
:1024C000366EFC0E376E386839686FD018C658F013
:1024D00019C659F05A6A5B6A59AE02D05A685B68ED
:1024E000F40E5D6E010E5E6E5F6A606A87EC78F0D6
:1024F00054C058F055C059F056C05AF057C05BF060
:10250000F00E5D6E5E6A5F6A606AC8EC73F05B3401
:10251000000E5B1809E6D880E70E5854030E595494
:10252000000E5A54000E5B5407E2E70E366E030E9F
:10253000376E386A396A39D018C636F019C637F09E
:10254000386A396A37AE02D038683968F40E5D6E81
:10255000010E5E6E5F6A606A36C058F037C059F08F
:1025600038C05AF039C05BF087EC78F054C036F0D0
:1025700055C037F056C038F057C039F0F00E5D6ED8
:102580005E6A5F6A606A54C058F055C059F056C020
:102590005AF057C05BF0C8EC73F058C036F059C021
:1025A00037F05AC038F05BC039F036C0E6FF37C0AC
:1025B000E6FF2BEC5BF0E552E552B10EE66EC40E81
:1025C000E66E76EC5AF0E552E5521AC658F01BC694
:1025D00059F05A6A5B6A59AE02D05A685B68F40EC9
:1025E0005D6E010E5E6E5F6A606A87EC78F054C0C3
:1025F00058F055C059F056C05AF057C05BF0F00E75
:102600005D6E5E6A5F6A606AC8EC73F0D8805B508A
:10261000FF0A08E6190E585CFC0E5958FF0E5A586E
:10262000FF0E5B5807E2190E366EFC0E376E3868E7
:1026300039686FD01AC658F01BC659F05A6A5B6ADF
:1026400059AE02D05A685B68F40E5D6E010E5E6E84
:102650005F6A606A87EC78F054C058F055C059F052
:1026600056C05AF057C05BF0F00E5D6E5E6A5F6A4E
:10267000606AC8EC73F05B34000E5B1809E6D88022
:10268000E70E5854030E5954000E5A54000E5B5472
:1026900007E2E70E366E030E376E386A396A39D0B4
:1026A0001AC636F01BC637F0386A396A37AE02D020
:1026B00038683968F40E5D6E010E5E6E5F6A606A9E
:1026C00036C058F037C059F038C05AF039C05BF006
:1026D00087EC78F054C036F055C037F056C038F06B
:1026E00057C039F0F00E5D6E5E6A5F6A606A54C072
:1026F00058F055C059F056C05AF057C05BF0C8ECBE
:1027000073F058C036F059C037F05AC038F05BC08B
:1027100039F036C0E6FF37C0E6FF2BEC5BF0E55240
:10272000E552AD0EE66EC40EE66E76EC5AF0E5525A
:10273000E5521CC658F01DC659F05A6A5B6A59AE7C
:1027400002D05A685B68F40E5D6E010E5E6E5F6AC1
:10275000606A87EC78F054C058F055C059F056C004
:102760005AF057C05BF0F00E5D6E5E6A5F6A606A99
:10277000C8EC73F0D8805B50FF0A08E6190E585C6D
:10278000FC0E5958FF0E5A58FF0E5B5807E2190EFF
:10279000366EFC0E376E386839686FD01CC658F03C
:1027A0001DC659F05A6A5B6A59AE02D05A685B6816
:1027B000F40E5D6E010E5E6E5F6A606A87EC78F003
:1027C00054C058F055C059F056C05AF057C05BF08D
:1027D000F00E5D6E5E6A5F6A606AC8EC73F05B342F
:1027E000000E5B1809E6D880E70E5854030E5954C2
:1027F000000E5A54000E5B5407E2E70E366E030ECD
:10280000376E386A396A39D01CC636F01DC637F0C3
:10281000386A396A37AE02D038683968F40E5D6EAE
:10282000010E5E6E5F6A606A36C058F037C059F0BC
:1028300038C05AF039C05BF087EC78F054C036F0FD
:1028400055C037F056C038F057C039F0F00E5D6E05
:102850005E6A5F6A606A54C058F055C059F056C04D
:102860005AF057C05BF0C8EC73F058C036F059C04E
:1028700037F05AC038F05BC039F036C0E6FF37C0D9
:10288000E6FF2BEC5BF0E552E552A90EE66EC40EB6
:10289000E66E76EC5AF0E552E5521EC658F01FC6B9
:1028A00059F05A6A5B6A59AE02D05A685B68F40EF6
:1028B0005D6E010E5E6E5F6A606A87EC78F054C0F0
:1028C00058F055C059F056C05AF057C05BF0F00EA2
:1028D0005D6E5E6A5F6A606AC8EC73F0D8805B50B8
:1028E000FF0A08E6190E585CFC0E5958FF0E5A589C
:1028F000FF0E5B5807E2190E366EFC0E376E386815
:1029000039686FD01EC658F01FC659F05A6A5B6A04
:1029100059AE02D05A685B68F40E5D6E010E5E6EB1
:102920005F6A606A87EC78F054C058F055C059F07F
:1029300056C05AF057C05BF0F00E5D6E5E6A5F6A7B
:10294000606AC8EC73F05B34000E5B1809E6D8804F
:10295000E70E5854030E5954000E5A54000E5B549F
:1029600007E2E70E366E030E376E386A396A39D0E1
:102970001EC636F01FC637F0386A396A37AE02D045
:1029800038683968F40E5D6E010E5E6E5F6A606ACB
:1029900036C058F037C059F038C05AF039C05BF033
:1029A00087EC78F054C036F055C037F056C038F098
:1029B00057C039F0F00E5D6E5E6A5F6A606A54C09F
:1029C00058F055C059F056C05AF057C05BF0C8ECEB
:1029D00073F058C036F059C037F05AC038F05BC0B9
:1029E00039F036C0E6FF37C0E6FF2BEC5BF0E5526E
:1029F000E552A50EE66EC40EE66E76EC5AF0E55290
:102A0000E55220C658F021C659F05A6A5B6A59AEA1
:102A100002D05A685B68F40E5D6E010E5E6E5F6AEE
:102A2000606A87EC78F054C058F055C059F056C031
:102A30005AF057C05BF0F00E5D6E5E6A5F6A606AC6
:102A4000C8EC73F0D8805B50FF0A08E6190E585C9A
:102A5000FC0E5958FF0E5A58FF0E5B5807E2190E2C
:102A6000366EFC0E376E386839686FD020C658F065
:102A700021C659F05A6A5B6A59AE02D05A685B683F
:102A8000F40E5D6E010E5E6E5F6A606A87EC78F030
:102A900054C058F055C059F056C05AF057C05BF0BA
:102AA000F00E5D6E5E6A5F6A606AC8EC73F05B345C
:102AB000000E5B1809E6D880E70E5854030E5954EF
:102AC000000E5A54000E5B5407E2E70E366E030EFA
:102AD000376E386A396A39D020C636F021C637F0E9
:102AE000386A396A37AE02D038683968F40E5D6EDC
:102AF000010E5E6E5F6A606A36C058F037C059F0EA
:102B000038C05AF039C05BF087EC78F054C036F02A
:102B100055C037F056C038F057C039F0F00E5D6E32
:102B20005E6A5F6A606A54C058F055C059F056C07A
:102B30005AF057C05BF0C8EC73F058C036F059C07B
:102B400037F05AC038F05BC039F036C0E6FF37C006
:102B5000E6FF2BEC5BF0E552E552A10EE66EC40EEB
:102B6000E66E76EC5AF0E552E55222C658F023C6DE
:102B700059F05A6A5B6A59AE02D05A685B68F40E23
:102B80005D6E010E5E6E5F6A606A87EC78F054C01D
:102B900058F055C059F056C05AF057C05BF0F00ECF
:102BA0005D6E5E6A5F6A606AC8EC73F0D8805B50E5
:102BB000FF0A08E6190E585CFC0E5958FF0E5A58C9
:102BC000FF0E5B5807E2190E366EFC0E376E386842
:102BD00039686FD022C658F023C659F05A6A5B6A2A
:102BE00059AE02D05A685B68F40E5D6E010E5E6EDF
:102BF0005F6A606A87EC78F054C058F055C059F0AD
:102C000056C05AF057C05BF0F00E5D6E5E6A5F6AA8
:102C1000606AC8EC73F05B34000E5B1809E6D8807C
:102C2000E70E5854030E5954000E5A54000E5B54CC
:102C300007E2E70E366E030E376E386A396A39D00E
:102C400022C636F023C637F0386A396A37AE02D06A
:102C500038683968F40E5D6E010E5E6E5F6A606AF8
:102C600036C058F037C059F038C05AF039C05BF060
:102C700087EC78F054C036F055C037F056C038F0C5
:102C800057C039F0F00E5D6E5E6A5F6A606A54C0CC
:102C900058F055C059F056C05AF057C05BF0C8EC18
:102CA00073F058C036F059C037F05AC038F05BC0E6
:102CB00039F036C0E6FF37C0E6FF2BEC5BF0E5529B
:102CC000E5529D0EE66EC40EE66E76EC5AF0E552C5
:102CD000E552000EE66EE66A2BEC5BF011D03AEF9F
:102CE0000CF0FCEC43F00ED08EEC2AF00BD0D8ECBC
:102CF00067F008D0C40EE66EED0EE66E76EC5AF084
:0A2D0000E552E55218EF0CF0120046
:062D0A00D9CFE6FFE1CF86
:102D1000D9FF060EE126730EDE6E030EDD6E760E13
:102D2000F36E020EF3CFDBFF010EF36E030EF3CF53
:102D3000DBFF040EDB6A010EF36E050EF3CFDBFF43
:102D40000F0111510E5D2C6F12510F592D6F135140
:102D500010592E6F040EDBCF36F0050EDBCF37F0A7
:102D6000386A37BE38682CCF59F02DCF5AF02ECFA5
:102D70005BF036C05EF037C05FF038C060F029EC21
:102D800074F056C023FF57C024FF58C025FFDECF84
:102D90003FF0DDCF40F0416A40BE416842CB3CF09D
:102DA00043CB3DF03E6A3DBE3E68020EDBCF39F0BC
:102DB000030EDBCF3AF03B6A3ABE3B682CCF59F0AA
:102DC0002DCF5AF02ECF5BF039C05EF03AC05FF0E5
:102DD0003BC060F029EC74F000013C50565C366E4C
:102DE0003D505758376E3E505858386E36C059F0DF
:102DF00037C05AF05B6E3FC05EF040C05FF041C02C
:102E000060F029EC74F056C026FF57C027FF58C069
:102E100028FF42CB5AF043CB5BF0DECF5FF0DDCF33
:102E200060F0FCEC73F058500B01422759504323DB
:102E30000F0123512625296F245127212A6F25515F
:102E400028212B6F080EE66E29CFE6FF2ACFE6FF7A
:102E5000EEEC4CF0E552E552E552F3CF29FFF4CF0A
:102E60002AFF0F012B6B2ABF2B691CCF39F01DCF16
:102E70003AF03B6A3ABE3B682B513B18E8AE02D0B1
:102E80003B3406D03950295D3A502A593B502B59D2
:102E900009E21CCF36F01DCF37F0386A37AE1AD0B2
:102EA000386818D02B35000E2B1907E6D880F40EA1
:102EB0002955010E2A55000E2B5506E2F40E366EEA
:102EC000010E376E386A06D029CF36F02ACF37F098
:102ED0002BCF38F036C031FF37C032FF1A51365C85
:102EE0002F6F1B513758306FB0C836F0376A36BE77
:102EF000376836502F03F3CF33FFF4CF34FF30035E
:102F0000F350342737502F03F3503427090EE66E61
:102F100033CFE6FF34CFE6FFEEEC4CF0E552E5525E
:102F2000E552F3CF33FFF4CF34FF0F01F4501F19F4
:102F3000E8AE02D01F3504D01E51335D1F51345905
:102F400009E21ECF36F01FCF37F0386A396A37AE44
:102F500023D022D033CF3AF034CF3BF03C6A3D6AE5
:102F60003BAE02D03C683D683D34000E3D1809E69A
:102F7000D8800C0E3A54000E3B54000E3C54000E08
:102F80003D5404E20C0E366E376A04D033CF36F06F
:102F900034CF37F0386A396A36C016FF37C017FFAA
:102FA000060EE15C02E2E16AE552E16EE552E7CF2E
:102FB000D9FF12000A019CA1BED09C9144EC7AF08A
:102FC000FFEC3CF00A0198AF0DD0F5C711FFF6C732
:102FD00012FF0F01136B12BF1369F7C71AFFF8C76F
:102FE0001BFF16D0080111510801145D0F01116F6C
:102FF00008011251080115590F01126F08011351F0
:10300000080116590F01136F17C81AFF18C81BFFC4
:10301000030EE66E070E5A6E5B6A44CB5FF045CB3B
:1030200060F0FCEC73F058500F011A25366E5950C1
:103030001B21376E36C0E6FFE66EEEEC4CF0E55233
:10304000E552E552F3CF44FBF4CF45FB0A0196A1CC
:1030500051D09951800B05E1745005E09951010B55
:1030600002E0978D45D09751200B1CE10B01800E9B
:10307000451509E044CB36F045CB37F0366C371EAA
:10308000000E372204D044CB36F045CB37F037342E
:103090002AE236503E08000E375425E20A019751C5
:1030A000400B21E1979D11CF0EFF12CF0FFF13CFE1
:1030B00010FF0F01800E171507E0010E1625166F81
:1030C000000E1721176F120017350AE2165100087B
:1030D000000E175505E2010E165F000E175B120079
:1030E000166B176B12000A01978D0B01446B456B31
:1030F00085EF16F014C811FF15C812FF16C813FF8C
:103100000F01800E171507E0010E1625166F000E31
:103110001721176F0ED017350AE216510008000E5E
:10312000175505E2010E165F000E175B02D0166BF5
:10313000176B0A01979D12000A019651100B01E1CD
:10314000D3D09951400B01E0CFD00F01396B3951E9
:10315000010801E2CDD0030EE66ED1C83FF0406A0F
:10316000416A426A3FAE03D04068416842683FC04E
:10317000E6FF40C0E6FF41C0E6FF42C0E6FF660E44
:10318000E66EE66A3951480DF3CFE9FFF4CFEAFF66
:10319000000EE926040EEA22280EE926000EEA2295
:1031A000EECF3AF0EFCF3BF03C6A3D6A3BAE02D047
:1031B0003C683D683AC0E6FF3BC0E6FF3CC0E6FF26
:1031C0003DC0E6FF1DEC2EF03E6E060EE15E3E5069
:1031D000E552E7CF42F0E552E7CF41F0E552E7CFC5
:1031E00040F0E552E7CF3FF03FC05DF040C05EF0F9
:1031F00041C05FF042C060F087EC78F054C036F018
:1032000055C037F056C038F057C039F054C0E6FF0B
:1032100055C0E6FF56C0E6FF57C0E6FF3EEC4DF056
:10322000436E050EE15E43505D685E685F686068EE
:1032300087EC78F054C037FF55C038FF54C03AF0DF
:1032400055C03BF03C6A3D6A3BAE02D03C683D68ED
:10325000D8803D50FF0A08E6E80E3A5CFF0E3B5866
:10326000FF0E3C58FF0E3D5804E2E80E366E3768FC
:1032700026D037CF3EF038CF3FF0406A416A3FAEAC
:1032800002D0406841684134000E411809E6D880F8
:10329000180E3E54000E3F54000E4054000E415490
:1032A00006E2180E366E376A386A396A0AD037CFA6
:1032B00036F038CF37F0386A396A37AE02D038681E
:1032C00039680F013951480DF3CFE9FFF4CFEAFF18
:1032D000000EE926040EEA222F0EE926000EEA224D
:1032E00036C0EFFF392B33D70401776B77C42FF447
:1032F00012000A019951040B4FE09951400B4CE028
:103300000701F135000EF11907E6D880960EEF554A
:10331000000EF055000EF1553FE20601675107011E
:10332000ED5D366EEE5106016855376E36C0E6FF2C
:10333000E66EC6EC4DF0E552E552F3CF3AFFF4CF1E
:103340003BFFF3CFE6FFF4CFE6FF12C436F013C421
:1033500037F0386A37BE386836C0E6FF37C0E6FF58
:1033600038C0E6FF5AC439F05BC43AF03B6A3ABE53
:103370003B6839C0E6FF3AC0E6FF3BC0E6FF380EC7
:10338000E66E040EE66E800EE66E040EE66E77ECD8
:103390002FF03C6E0C0E28D0BECAE6FF12C436F0E9
:1033A00013C437F0386A37BE386836C0E6FF37C016
:1033B000E6FF38C0E6FF5AC439F05BC43AF03B6A16
:1033C0003ABE3B6839C0E6FF3AC0E6FF3BC0E6FFC5
:1033D000380EE66E040EE66E800EE66E040EE66EA5
:1033E00092EC30F03C6E0B0EE15E3C500A0199BD50
:1033F00002D040EC01F077C438F0396A38BE396841
:1034000004013850825D366E39508359376E36501C
:103410008027375081232FC438F0396A38BE396885
:103420003A513824366E3B513920376E36503827A2
:1034300037503923A251CA25C86FA351CB21C96F78
:103440001200D9CFE6FFE1CFD9FF010EE66EFB0EE9
:10345000DBCF3AF0FC0EDBCF3BF0FD0EDBCFE9FF1C
:10346000FE0EDBCFEAFF220EE926000EEA223A50DA
:10347000EE24366E3B50EE20376E386A396A37AE2E
:1034800002D03868396836C0E6FF37C0E6FF38C07A
:10349000E6FF39C0E6FF3EEC4DF03C6E050EE15E06
:1034A0003C5058C03CFF59C03DFF5AC03EFF5BC076
:1034B0003FFFFD0EDBCFE9FFFE0EDBCFEAFF220E62
:1034C000E926000EEA22EECF3AF0EFCF3BF03C6A5D
:1034D0003D6A3BAE02D03C683D683A500F013C5D0E
:1034E000366E3B503D59376E3C503E593D503F592A
:1034F000FD0EDBCFE9FFFE0EDBCFEAFF240EE9264F
:10350000000EEA2236C0EEFF37C0EDFFFD0EDBCF26
:10351000E9FFFE0EDBCFEAFF220EE926000EEA22CB
:103520003CCFEEFF3DCFEDFF010EE66EFD0EDBCF93
:10353000E9FFFE0EDBCFEAFF260EE926000EEA22A7
:10354000EECF3CF0EFCF3DF0FD0EDBCFE9FFFE0EFE
:10355000DBCFEAFF240EE926000EEA223C50EE24DF
:10356000386E3D50EE20396E3A6A3B6A39AE02D071
:103570003A683B6838C0E6FF39C0E6FF3AC0E6FF6C
:103580003BC0E6FF3EEC4DF03E6E050EE15E3E5068
:1035900059C037F0FD0EDBCFE9FFFE0EDBCFEAFFAF
:1035A000240EE926000EEA2258C0EEFF37C0EDFFD8
:1035B000FD0EDBCFE9FFFE0EDBCFEAFF240EE9268E
:1035C000000EEA22EECF36F0EFCF37F0FD0EDBCF64
:1035D000E9FFFE0EDBCFEAFF260EE926000EEA2207
:1035E00036C0EEFF37C0EDFFE552E7CFD9FF12003E
:1035F000D9CFE6FFE1CFD9FFFD0EDBCFE9FFFE0E0D
:10360000DBCFEAFF200EE926000EEA22EECFE6FF2E
:10361000EFCFE6FFFD0EDBCFE6FFFE0EDBCFE6FFD2
:1036200010DFE552E552E552E552050EE66EFD0E5D
:10363000DBCFE9FFFE0EDBCFEAFF240EE926000E0A
:10364000EA22EECF46F0EFCF47F0FD0EDBCFE9FFE9
:10365000FE0EDBCFEAFF0C0EE926000EEA22EECFCB
:1036600048F0EFCF49F0000148504602F3CF42F056
:10367000F4CF43F04702F350432649504602F3503B
:103680004326446A456A43AE02D044684568FD0E4D
:10369000DBCFE9FFFE0EDBCFEAFF080EE926000EC6
:1036A000EA22EECF3EF0EFCF3FF0406A416A3FAEF4
:1036B00002D040684168FD0EDBCFE9FFFE0EDBCF94
:1036C000EAFF200EE926000EEA22EECF3AF0EFCF15
:1036D0003BF03C6A3D6A3BAE02D03C683D683AC074
:1036E00058F03BC059F03CC05AF03DC05BF03EC0C2
:1036F0005DF03FC05EF040C05FF041C060F087EC1D
:1037000078F0545000014224366E55504320376EF5
:1037100056504420386E57504520396E36C0E6FF6B
:1037200037C0E6FF38C0E6FFE66E3EEC4DF04A6E6D
:10373000050EE15E4A5058C044FF59C045FF5AC0CB
:1037400046FF5BC047FFFD0EDBCFE9FFFE0EDBCF80
:10375000EAFF0A0EE926000EEA22EE50ED1010E113
:103760000F01486B496B4A6B4B6BFD0EDBCFE9FFDA
:10377000FE0EDBCFEAFF1A0EEB6A1B0EEB6AC9D016
:10378000090EE66EFD0EDBCFE9FFFE0EDBCFEAFF92
:103790000A0EE926000EEA22EECF3EF0EFCF3FF010
:1037A000406A416A3FAE02D040684168FD0EDBCFFF
:1037B000E9FFFE0EDBCFEAFF1A0EE926000EEA2231
:1037C000EECF3AF0EFCF3BF03C6A3D6A3BAE02D021
:1037D0003C683D683AC058F03BC059F03CC05AF0D4
:1037E0003DC05BF03EC05DF03FC05EF040C05FF0AA
:1037F00041C060F087EC78F054C036F055C037F027
:1038000056C038F057C039F054C0E6FF55C0E6FF47
:1038100056C0E6FF57C0E6FF3EEC4DF0426E050E87
:10382000E15E425058C040FF59C041FF5AC042FFBC
:103830005BC043FFFD0EDBCFE9FFFE0EDBCFEAFFEF
:10384000EECF36F0EFCF37F0366C371E000E372252
:10385000386A396A37AE02D0386839680F01435187
:103860003918E8AE02D0393408D03650405D3750B0
:103870004159385042593950435913E2FD0EDBCFBC
:10388000E9FFFE0EDBCFEAFFEECF48FFEFCF49FFA7
:10389000486D491F000E49234A6B4B6B49AF39D025
:1038A0002DD0FD0EDBCFE9FFFE0EDBCFEAFFEECF22
:1038B0003AF0EFCF3BF03C6A3D6A3BAE02D03C6849
:1038C0003D683D504319E8AE02D0433508D0405121
:1038D0003A5C41513B5842513C5843513D5811E2EA
:1038E000FD0EDBCFE9FFFE0EDBCFEAFFEECF48FF98
:1038F000EFCF49FF4A6B4B6B49AF0BD04A694B691D
:1039000008D040CF48FF41CF49FF42CF4AFF43CFC5
:103910004BFF480EE96E0F0EEA6E4451EE243A6EEC
:103920004551EE203B6E4651EE203C6E4751EE2055
:103930003D6EFD0EDBCFE9FFFE0EDBCFEAFF380E5A
:10394000E926000EEA22EECF3EF0EFCF3FF0406ACC
:10395000416A3FAE02D0406841683E503A5C366EE4
:103960003F503B58376E40503C58386E41503D58A0
:10397000396EFD0EDBCFE9FFFE0EDBCFEAFF440E12
:10398000E926000EEA2236C0EEFF37C0EDFFE55211
:10399000E7CFD9FF1200D9CFE6FFE1CFD9FFFD0E67
:1039A000DBCFE9FFFE0EDBCFEAFF1A0EE926000EA1
:1039B000EA22EECF36F0EFCF37F0386A396A37AE09
:1039C00002D038683968FD0EDBCFE9FFFE0EDBCF91
:1039D000EAFF380EE926000EEA22EECF58F0EFCFCC
:1039E00059F05A6A5B6A59AE02D05A685B68300E69
:1039F0005D6E5E6A5F6A606A87EC78F03650545C90
:103A00000F015C6F375055585D6F385056585E6FD8
:103A1000395057585F6FFD0EDBCFE9FFFE0EDBCF4D
:103A2000EAFF080EE926000EEA22EECF36F0EFCFCD
:103A300037F0386A396A37AE02D0386839685CCFF7
:103A400058F05DCF59F05ECF5AF05FCF5BF036C0D3
:103A50005DF037C05EF038C05FF039C060F087ECD1
:103A600078F054C04CFF55C04DFF56C04EFF57C0B4
:103A70004FFF0F01506B516B526B536B0A0EE66E8A
:103A8000500EE96E0F0EEA6E5450EE24366E55500D
:103A9000EE20376E5650EE20386E5750EE20396EBD
:103AA00036C0E6FF37C0E6FF38C0E6FFE66E3EEC04
:103AB0004DF03A6E050EE15E3A5058C058FF59C0BD
:103AC00059FF5AC05AFF5BC05BFFFD0EDBCFE9FF19
:103AD000FE0EDBCFEAFF200EE926000EEA22EECF33
:103AE00036F0EFCF37F0386A396A37AE02D038682F
:103AF0003968580EE96E0F0EEA6E3650EE5C0F0113
:103B0000606F3750EE58616F3850EE58626F395021
:103B1000EE58636F60CFE6FF61CFE6FFFD0EDBCFAF
:103B2000E6FFFE0EDBCFE6FF8CDCE552E552E55208
:103B3000E552050EE66EFD0EDBCFE9FFFE0EDBCF94
:103B4000EAFF240EE926000EEA22EECF42F0EFCF84
:103B500043F0FD0EDBCFE9FFFE0EDBCFEAFF0C0EDC
:103B6000E926000EEA22EECF44F0EFCF45F0000147
:103B700044504202F3CF3EF0F4CF3FF04302F35003
:103B80003F2645504202F3503F26406A416A3FAE0D
:103B900002D040684168FD0EDBCFE9FFFE0EDBCFAF
:103BA000EAFF080EE926000EEA22EECF3AF0EFCF48
:103BB0003BF03C6A3D6A3BAE02D03C683D6860CF5A
:103BC00058F061CF59F062CF5AF063CF5BF03AC042
:103BD0005DF03BC05EF03CC05FF03DC060F087EC44
:103BE00078F0545000013E24366E55503F20376E19
:103BF00056504020386E57504120396E36C0E6FF8F
:103C000037C0E6FF38C0E6FFE66E3EEC4DF0466E8C
:103C1000050EE15E465058C054FF59C055FF5AC0CA
:103C200056FF5BC057FF000E0F01546D551F552303
:103C3000561F5623571F5723FD0EDBCFE9FFFE0EFD
:103C4000DBCFEAFF440EE926000EEA2254CFEEFF56
:103C500055CFEDFFE552E7CFD9FF12000A019AAD2B
:103C60001DD0A0C436F0A1C437F0386A396A37AE27
:103C700002D0386839683934000E391809E6D8801E
:103C8000180E3654000E3754000E3854000E3954B6
:103C900009E267C669F668C66AF6120067C669F681
:103CA00068C66AF61200DADF060167510601695D2F
:103CB000366E6A5106016855376E36C0E6FFE66E0D
:103CC0003CEC32F0E552E552F3CF08FFF4CF09FFA8
:103CD0000F01D880F45004E7E40E085DFF0E095987
:103CE00004E2E40E086F09690DD0093509E20851B4
:103CF0001C08000E095504E21C0E086F096B02D067
:103D000009CF09FF060EE66E94C43DF095C43EF05F
:103D10003F6A3EBE3F6808CF3AF009CF3BF03C6AAD
:103D20003BBE3C683AC059F03BC05AF03CC05BF027
:103D30003DC05EF03EC05FF03FC060F029EC74F023
:103D400056C036F057C037F058C038F0396A38BE20
:103D5000396836C0E6FF37C0E6FF38C0E6FF39C035
:103D6000E6FF3EEC4DF0406E050EE15E405058C05F
:103D700064FF59C065FF5AC066FFB0C436F0B1C4D5
:103D800037F0386A37BE386836500F01645F3750F5
:103D9000655B3850665B050EE66E98C43AF099C4D0
:103DA0003BF03C6A3BBE3C6864CF59F065CF5AF0AB
:103DB00066CF5BF03AC05EF03BC05FF03CC060F0A5
:103DC00029EC74F056C036F057C037F058C038F0C0
:103DD000396A38BE396836C0E6FF37C0E6FF38C0FA
:103DE000E6FF39C0E6FF3EEC4DF03D6E050EE15EAC
:103DF0003D5058C064FF59C065FF5AC066FF92C469
:103E000036F093C437F0366C371E000E3722386A0E
:103E100037BE38680F0166513818E8AE02D0383422
:103E200006D03650645D37506559385066590CE2FB
:103E300092C464FF93C465FF646D651F000E652323
:103E4000666B65AF20D01BD092C439F093C43AF0B2
:103E50003B6A3ABE3B683B506619E8AE02D0663515
:103E600006D06451395C65513A5866513B5809E2B5
:103E700092C464FF93C465FF666B65AF04D0666946
:103E800002D066CF66FF0401800EC91509E0C8C4E0
:103E900036F0C9C437F0366C371E000E372204D016
:103EA000C8C436F0C9C437F0386A396A37AE02D0B0
:103EB000386839683934000E391809E6D880020E9E
:103EC0003654000E3754000E3854000E395402E3B5
:103ED00074500EE0C8C436F0C9C437F0386A37BE33
:103EE000386836500F01645F3750655B3850665B49
:103EF00064CFD4F465CFD5F4120004011E6B1F6BA0
:103F0000666B676B120079EC19F08EEC68F00401B7
:103F1000800E1B1509E01AC43AF01BC43BF03A6C42
:103F20003B1E000E3B2204D01AC43AF01BC43BF0E7
:103F3000800E631509E062C43CF063C43DF03C6C44
:103F40003D1E000E3D2204D062C43CF063C43DF02F
:103F50003B503D18E8AE02D03D3404D03C503A5CB2
:103F60003D503B580DE2800E631505E062C436F00B
:103F700063C437F00CD062C436F063C437F010D09D
:103F8000800E1B1509E01AC436F01BC437F0366CDE
:103F9000371E000E372204D01AC436F01BC437F087
:103FA000386A396A37AE02D038683968D8903950E3
:103FB000000A08E6E80E365C030E3758000E385843
:103FC000000E395802E3000E01D0010E0A01969945
:103FD000E8B0968909EF56F004012F6B2FC477F4EF
:103FE0002FC418FF0F01196B18BF196918CF16FFDE
:103FF00019CF17FFF40E1E6F1F69676B6751020818
:104000003EE36751480DF3CF68FFF4CF69FF000E20
:104010006827040E692368CFE9FF69CFEAFF220E03
:10402000E926000EEA22EE6AED6A68CFE9FF69CF61
:10403000EAFF460EE926000EEA22EE6AED6A68CF34
:10404000E9FF69CFEAFF1A0EE926000EEA22EE6ABE
:10405000ED6A68CFE9FF69CFEAFF240EE926000E7A
:10406000EA22EE6AED6A68CFE9FF69CFEAFF260E21
:10407000E926000EEA22EE6AED6A672BBFD77DEFD4
:024080001FF02F
:0E408200D9CFE6FFE1CFD9FFFB0EDBCF58F020
:10409000FC0EDBCF59F0FD0EDBCF5AF0FE0EDBCF6E
:1040A0005BF03F0E5D6E070E5E6E5F6A606A87ECC6
:1040B00078F054C058F055C059F056C05AF057C067
:1040C0005BF0100E5D6E270E5E6E5F6A606AC8EC74
:1040D00073F0E552E7CFD9FF1200D9CFE6FFE1CF69
:1040E000D9FFFB0EDBCF58F0FC0EDBCF59F0FD0EF5
:1040F000DBCF5AF0FE0EDBCF5BF03F0E5D6E070E9E
:104100005E6E5F6A606A87EC78F054C058F055C004
:1041100059F056C05AF057C05BF0A00E5D6E860E87
:104120005E6E010E5F6E606AC8EC73F0E552E7CF19
:10413000D9FF1200D9CFE6FFE1CFD9FFFB0EDBCFCD
:1041400058F0FC0EDBCF59F0FD0EDBCF5AF0FE0E1F
:10415000DBCF5BF0A00E5D6E860E5E6E010E5F6EB5
:10416000606A87EC78F054C058F055C059F056C0DA
:104170005AF057C05BF03F0E5D6E070E5E6E5F6AD1
:10418000606AC8EC73F0E552E7CFD9FF1200D9CFCF
:10419000E6FFE1CFD9FF0901946B956B966B0B019C
:1041A000105136E1FE0EDBCF93F9FD0EDB50090115
:1041B000D88093552DE394C936F095C937F096C948
:1041C00038F00A0E5E6E5F6A606A94C959F095C94C
:1041D0005AF096C95BF029EC74F009019351EA6A30
:1041E000570FE96E070EEA22EFCF39F03A6A3B6AC1
:1041F00056503924946F57503A20956F58503B20B1
:10420000966F300E945F000E955B965B932BCDD727
:1042100094C959F095C95AF096C95BF0E552E7CFB9
:10422000D9FF1200D9CFE6FFE1CFD9FF0901A36B77
:10423000A46BA56BA66B0B01105101E0CBD0FE0E59
:10424000DB50040F0901A76FA751EA6A570FE96E07
:10425000070EEA22EF502E0802E0A72BF5D7030E37
:10426000A75DE66EFE0EDBCFE6FF91DFE552E5527D
:1042700059C097F95AC098F95BC099F909019A6B2E
:1042800099BF9A69A705E66E020EA75DE66E7FDF0D
:10429000E552E55259C09BF95AC09CF95BC09DF9A3
:1042A00009019E6B9DBF9E69FD0EDB50D880A7550E
:1042B000040814E2050EA725E66EA729E66E67DF5F
:1042C000E552E55259C09FF95AC0A0F95BC0A1F967
:1042D0000901A26BA1AF2BD0A26929D0040EA7259A
:1042E000E66EA729E66E53DFE552E55259C09FF905
:1042F0005AC0A0F95BC0A1F90901A26BA1BFA269D4
:104300000A0E5D6E5E6A5F6A606A9FC958F0A0C956
:1043100059F0A1C95AF0A2C95BF087EC78F054C0FB
:104320009FF955C0A0F956C0A1F957C0A2F997C985
:1043300036F098C937F099C938F09AC939F0800E2B
:104340005D6E8D0E5E6E5B0E5F6E606A97C958F093
:1043500098C959F099C95AF09AC95BF087EC78F07E
:1043600054C036F055C037F056C038F057C039F059
:104370009BC93AF09CC93BF09DC93CF09EC93DF0F9
:10438000A00E5D6E860E5E6E010E5F6E606A9BC94A
:1043900058F09CC959F09DC95AF09EC95BF087EC52
:1043A00078F0545036265550372256503822575000
:1043B00039229F0EE96E090EEA6E3650EE2409018D
:1043C000A36F3750EE20A46F3850EE20A56F395000
:1043D000EE20A66FA3C958F0A4C959F0A5C95AF098
:1043E000A6C95BF0E552E7CFD9FF1200D9CFE6FFAF
:1043F000E1CFD9FF0901A86BA96BAA6BAB6B0B01CD
:10440000105101E09AD0FE0EDB28E66EFE0EDBCFE7
:10441000E6FFBDDEE552E55259C036F05AC037F02E
:104420005BC038F0396A38BE3968100E5D6E0E0E0A
:104430005E6E5F6A606A36C058F037C059F038C0A7
:104440005AF039C05BF087EC78F054C036F055C0B4
:1044500037F056C038F057C039F054C0E6FF55C0A9
:10446000E6FF56C0E6FF57C0E6FFFE0EDB50030F27
:10447000E66EFE0EDB50020FE66E89DEE552E55277
:10448000E552E7CF39F0E552E7CF38F0E552E7CF14
:1044900037F0E552E7CF36F059C03AF05AC03BF05A
:1044A0005BC03CF03C0E5E6E5F6A606A29EC74F0A3
:1044B00056C03AF057C03BF058C03CF03D6A3CBE95
:1044C0003D683A5036263B5037223C5038223D500A
:1044D000392236C0E6FF37C0E6FF38C0E6FF39C0F4
:1044E000E6FFFD0EDBCFE6FFFE0EDB50040FE66EAF
:1044F0004EDEE552E552E552E7CF39F0E552E7CF1F
:1045000038F0E552E7CF37F0E552E7CF36F059C043
:104510003EF05AC03FF05BC040F0416A40BE416887
:1045200036503E240901A86F37503F20A96F3850FC
:104530004020AA6F39504120AB6FA8C958F0A9C9D3
:1045400059F0AAC95AF0ABC95BF0E552E7CFD9FFE1
:1045500012000DCB0EFB0B010D51EA6A570FE96EED
:10456000070EEA22EFCFACF92C0E0901AC5D09E091
:104570002A0EAC5D06E00B010C510D5D02E20D2B25
:10458000EBD70B010D050F6F0D2B0E510F5D02E3E5
:10459000000E01D0010E106F12000B010D6BA7C7AA
:1045A0000CFBD7DFD6DF0FCBE6FF0ECBE6FF1EDF1F
:1045B000E552E55258C0D8F459C0D9F45AC0DAF4DB
:1045C0005BC0DBF4C6DF0FCBE6FF0ECBE6FF2ADED7
:1045D000E552E55258C0E6F459C0E7F45AC0E8F491
:1045E0005BC0E9F4B6DF0B010E51EA6A570FE96EC2
:1045F000070EEA22EF50530809E1000E0401E66DB0
:10460000E71FE723E81FE823E91FE923A2DF0FCB19
:10461000E6FF0ECBE6FF06DEE552E55258C0EAF4AF
:1046200059C0EBF45AC0ECF45BC0EDF492DF0B011F
:104630000E51EA6A570FE96E070EEA22EF5057084B
:1046400009E1000E0401EA6DEB1FEB23EC1FEC23E4
:10465000ED1FED237EDF0FCBE6FF0ECBE6FF97DDF0
:10466000E552E55259C0FDF474DF0FCBE6FF0ECBE7
:10467000E6FF8DDDE552E55259C0FCF46ADF030E1A
:104680000B010F5DE66E0ECBE6FF81DDE552E552D4
:1046900059C039F05AC03AF05BC03BF00A0E5E6E6A
:1046A0005F6A606A29EC74F056C039F057C03AF07E
:1046B00058C03BF056C0E6FF57C0E6FF58C0E6FFC3
:1046C0000B010F05E66E0F05E66E61DDE552E55262
:1046D000E552E7CF3BF0E552E7CF3AF0E552E7CFBE
:1046E00039F039505924366E3A505A20376E3B50C3
:1046F0005B20386E36C0FEF437C0FFF42ADF020EAE
:104700000B010F5DE66E0ECBE6FF41DDE552E55293
:1047100059C036F05AC037F05BC038F0396A38BE3D
:1047200039680A0E5D6E5E6A5F6A606A36C058F06C
:1047300037C059F038C05AF039C05BF087EC78F0D8
:1047400054C036F055C037F056C038F057C039F075
:1047500054C0E6FF55C0E6FF56C0E6FF57C0E6FF6F
:104760000FCBE6FF0FCBE6FF12DDE552E552E55237
:10477000E7CF39F0E552E7CF38F0E552E7CF37F031
:10478000E552E7CF36F059C03AF05AC03BF05BC073
:104790003CF00A0E5E6E5F6A606A29EC74F056C0E7
:1047A0003AF057C03BF058C03CF03D6A3CBE3D6813
:1047B0003A5036263B5037223C5038223D50392261
:1047C00036C0E0F437C0E1F438C0E2F4010E040171
:1047D000FD5D03E3040EFC5D02E2000E01D0010E5C
:1047E0000A01969DE8B0968D040E735C63E10501A5
:1047F000DD510401FF19E8AE02D0FF3507D0FE51AC
:104800000501DC5D0401FF510501DD5905E2FEC42F
:10481000DCF5FFC4DDF514D00401FF510501DB19FF
:10482000E8AE02D0DB3507D0DA510401FE5D0501A8
:10483000DB510401FF5904E2FEC4DAF5FFC4DBF5E5
:104840000401FC51366E376A0501D7513718E8AEBE
:1048500002D0373404D03650D65D3750D75906E2EF
:104860000401FC510501D66FD76B15D00401FC5132
:10487000366E376A05013750C719E8AE02D0C73522
:1048800004D0C651365CC751375805E20401FC51CB
:104890000501C66FC76B0401FF3504E2FE510F0826
:1048A000000EFF5502E3000E01D0010E0A0197979A
:1048B000E8B0978712000B010D6BA7C70CFB49DE10
:1048C00048DE47DE0B010E51EA6A570FE96E070E0C
:1048D000EA22EF50410801E03FD10A01968D39DE0E
:1048E0000FCBE6FF0ECBE6FF9DDCE552E55258C04C
:1048F000E6F459C0E7F45AC0E8F45BC0E9F429DEF5
:104900000B010E51EA6A570FE96E070EEA22EF50CB
:10491000530809E1000E0401E66DE71FE723E81FD5
:10492000E823E91FE92315DE0FCBE6FF0ECBE6FFF8
:1049300079DCE552E55258C0EAF459C0EBF45AC0AC
:10494000ECF45BC0EDF405DE0B010E51EA6A570F83
:10495000E96E070EEA22EF50570809E1000E040144
:10496000EA6DEB1FEB23EC1FEC23ED1FED23F1DDD4
:10497000080EE66E0FCBE6FF0B010F05E66EC7ECE7
:1049800020F0E552E55259C03AF05AC03BF05BC006
:104990003CF03D6A3CBE3D683AC0E6FF3BC0E6FFE6
:1049A0003CC0E6FF3DC0E6FF030E0B010F5DE66E67
:1049B0000ECBE6FFC7EC20F0E552E552E552E7CF1B
:1049C0003DF0E552E7CF3CF0E552E7CF3BF0E55252
:1049D000E7CF3AF059C058F05AC059F05BC05AF0CE
:1049E0005B6A5ABE5B68640E5D6E5E6A5F6A606A8F
:1049F00087EC78F0545000013A24366E55503B2035
:104A0000376E56503C20386E57503D20396E0D0E93
:104A10005D6E5E6A5F6A606A36C058F037C059F0F2
:104A200038C05AF039C05BF087EC78F054C036F0EB
:104A300055C037F056C038F057C039F054C0E6FFC3
:104A400055C0E6FF56C0E6FF57C0E6FF3EEC4DF00E
:104A50003E6E050EE15E3E5058C0FAF459C0FBF4BC
:104A600078DD080EE66E0FCBE6FF0B010F05E66E54
:104A7000C7EC20F0E552E55259C03AF05AC03BF07D
:104A80005BC03CF03D6A3CBE3D683AC0E6FF3BC0BF
:104A9000E6FF3CC0E6FF3DC0E6FF030E0B010F5DE5
:104AA000E66E0ECBE6FFC7EC20F0E552E552E5528C
:104AB000E7CF3DF0E552E7CF3CF0E552E7CF3BF0E2
:104AC000E552E7CF3AF059C058F05AC059F05BC0F0
:104AD0005AF05B6A5ABE5B68640E5D6E5E6A5F6A1E
:104AE000606A87EC78F0545000013A24366E5550D5
:104AF0003B20376E56503C20386E57503D20396E63
:104B00002D0E5D6E5E6A5F6A606A36C058F037C00F
:104B100059F038C05AF039C05BF087EC78F054C0D7
:104B200036F055C037F056C038F057C039F054C091
:104B3000E6FF55C0E6FF56C0E6FF57C0E6FF3EEC75
:104B40004DF03E6E050EE15E3E5058C0F8F459C07F
:104B5000F9F40A019C8912000A019C991200D9CF2C
:104B6000E6FFE1CFD9FF245001E198D0020A55E0D9
:104B7000040A33E0010A01E09CD0020E2B5C15E22E
:104B80002C38F00B2C6E410EF36EFE0EDBCFF4FFD3
:104B9000F350F45C04E3FE0EDB50C90F03D0FE0EAD
:104BA000DB50D00F2C262B2A84D025C0A7F7295004
:104BB0002C5C02E0000E01D0010E0A019E93E8B0C9
:104BC0009E839EA369D00B010A51010A04E0010AE9
:104BD00063E1E3DC61D06FDE5FD0FE0EDB502A08BC
:104BE00004E12C6A2B6A070E63D0FE0EDB5024080A
:104BF00003E1000E296E59D0FE0EDB50291A255014
:104C0000252AEA6A570FE96E070EEA22FE0EDBCF6D
:104C1000EFFF25504F084DE23FD0FE0EDB50291A22
:104C20002650050DF3CF36F0F4CF37F00E0E3626B2
:104C3000000E372227503624F66E000E3720F76E0E
:104C40000800F550F36EFE0EDB50F35C05E0020E3B
:104C5000265C02E2262AE4D72650050DF3CF36F073
:104C6000F4CF37F00E0E3626000E372227503624AA
:104C7000F66E000E3720F76E0800F550F36EFE0E4C
:104C8000DB50F35C09E1040E275C04E126C00AFB5B
:104C9000060E0ED0272A0DD0246A0BD0FE0EDB5054
:104CA000240807E1000E296E266E276E256E020E7F
:104CB000246EE552E7CFD9FF120011CB36F012CBAC
:104CC00037F0386A396A37AE02D038683968050E6D
:104CD000361801E00ED1375001E00BD1385001E019
:104CE00008D1395001E005D10A019651400B01E18C
:104CF00000D129EC72F059C024F75AC025F75BC0E7
:104D000026F70401B40EE66F140EE76FD90EE86FB4
:104D1000F40EE96F3C0EEA6F2D0EEB6FED0EEC6FAB
:104D2000300EED6FD8C4DCF4D9C4DDF4DAC4DEF49F
:104D3000DBC4DFF4E6C4EEF4E7C4EFF4E8C4F0F457
:104D4000E9C4F1F4EAC4F2F4EBC4F3F4ECC4F4F40F
:104D5000F56FE6C4B1F9E7C4B2F9E8C4B3F9E9C440
:104D6000B4F9C00E5D6E270E5E6E090E5F6E606A4E
:104D7000E6C458F0E7C459F0E8C45AF0E9C45BF05F
:104D8000C8EC73F058C0B1F959C0B2F95AC0B3F9C0
:104D90005BC0B4F90901800E5B1409E0000EB16D2F
:104DA000B21FB223B31FB323B41FB42302D0B4C9BC
:104DB000B4F9B1C936F0B2C937F0B3C938F0B4C9E3
:104DC00039F0F60E5D6E0D0E5E6E5F6A606AB1C9F7
:104DD00058F0B2C959F0B3C95AF0B4C95BF087ECC6
:104DE00078F054C036F055C037F056C038F057C090
:104DF00039F00B0ED8903932383237323632E80675
:104E0000F9E136C0B1F937C0B2F938C0B3F939C0E9
:104E1000B4F936C0E6FF37C0E6FF2EEC4FF0E5529E
:104E2000E552F3CFF6F4F4CFF7F4E0C4E3F4E1C4D1
:104E3000E4F4E2C4E5F40401FA6BFB6BE0C436F081
:104E4000E1C437F0E2C438F0640E5E6E5F6A606AF7
:104E5000E0C459F0E1C45AF0E2C45BF09BEC73F09B
:104E600059C036F05AC037F05BC038F059C0E6FF81
:104E70005AC0E6FF0C0EE66E010EE66E03EC76F00D
:104E8000E552E552E552E552E6C4E6FFE7C4E6FF27
:104E9000E8C4E6FFE9C4E6FF0E0EE66E010EE66E1C
:104EA00033EC76F0366E060EE15E3650EAC4E6FF6D
:104EB000EBC4E6FFECC4E6FFEDC4E6FF120EE66EBF
:104EC000010EE66E33EC76F0366E060EE15E36507D
:104ED0000A0196BF0DD0E66A080EE66EEBEC2BF0E9
:104EE000E552E552010E0501D86FD96B0A01968F84
:104EF000998912000A0196AD1DD129EC72F059C0B2
:104F0000B5F95AC0B6F95BC0B7F9240EE96E070EC1
:104F1000EA6EEE50595C366EEE505A58376EEE50CF
:104F20005B5836C0B8F937C0B9F959C024F75AC030
:104F300025F75BC026F711CB36F012CB37F0386A75
:104F4000396A37AE02D038683968D8903950000ACB
:104F500008E6050E365C000E3758000E3858000E75
:104F6000395822E20A01969DFEC436F0FFC437F09C
:104F7000386A396A37AE02D0386839683934000E79
:104F8000391809E6D880190E3654000E3754000E31
:104F90003854000E395405E30B01112B000E122377
:104FA00003D00B01116B126B0A0196AF92D0EE0E7B
:104FB000E96E040EEA6EEE500401E65D366EEE50C8
:104FC000E759376EEE50E859386EEE50E959396EB0
:104FD00036C0E6FF37C0E6FF38C0E6FFE66E41ECBC
:104FE00020F0E552E552E552E55258C0AEF759C0FF
:104FF000AFF75AC0B0F7080EE66EF6C43EF0F7C43D
:105000003FF0406A416A3FAE02D0406841683EC00E
:10501000E6FF3FC0E6FF40C0E6FF41C0E6FFF20EFC
:10502000E96E040EEA6EEE500401EA5D3A6EEE504F
:10503000EB593B6EEE50EC593C6EEE50ED593D6E27
:105040003AC0E6FF3BC0E6FF3CC0E6FFE66E41EC3F
:1050500020F0E552E552E552E552E552E7CF41F046
:10506000E552E7CF40F0E552E7CF3FF0E552E7CF1A
:105070003EF03EC05DF03FC05EF040C05FF041C01A
:1050800060F087EC78F054C036F055C037F056C069
:1050900038F057C039F054C0E6FF55C0E6FF56C09F
:1050A000E6FF57C0E6FF3EEC4DF0050EE15E58C04E
:1050B000BFF759C0C0F75AC0C1F7AEC7B4F7AFC702
:1050C000B5F7B0C7B6F758C0C5F759C0C6F75AC04C
:1050D000C7F7040E735C37E1C0C536F0C1C537F0C1
:1050E000386A37BE386838500401E219E8AE02D099
:1050F000E23506D0E051365CE1513758E25138587C
:1051000004E2E0C4C0F5E1C4C1F50501CD510401DC
:10511000FB19E8AE02D0FB3507D0FA510501CC5D92
:105120000401FB510501CD590EE2FAC4CCF5FBC4D4
:10513000CDF5120011CBFCF4040E735C04E1050103
:10514000D42B000ED5231200ACEC69F00A019EA30B
:1051500030D0020EE66E54EC77F0E552040EE66EA7
:1051600060EC77F0E5520A019E93C4DE0A0196AD29
:105170001ED0040EE66E60EC77F0E5520A019B97B4
:1051800029EC72F059C036F05AC037F05BC038F0E5
:10519000396AD00E3626070E3722000E3822392201
:1051A00036C02DF737C02EF738C02FF713D0999D92
:1051B0000CD029EC72F0595007012D5D5A502E5930
:1051C0005B502F5907E20A01969D040EE66E54ECDF
:1051D00077F0E552020EE66E60EC77F0E5521200D1
:1051E0000B010D6B0401F66B010EF76FFE6BFF6B8D
:1051F000FC6BFCC4FDF4FCC4D8F4D96BDA6BDB6B3C
:10520000000EFA6FFB6BF86FF96BE06FE16BE26B0E
:10521000E1BFE269E66BE76BE86BE96BE6C4EEF4CD
:10522000E7C4EFF4E8C4F0F4E9C4F1F4EA6BEB6B23
:10523000EC6BED6BEAC4F2F4EBC4F3F4ECC4F4F4FD
:10524000EDC4F5F4E66AE66AE66AE66A0E0EE66E14
:10525000010EE66E33EC76F0366E060EE15E3650E9
:10526000E66AE66AE66AE66A120EE66E010EE66E27
:1052700033EC76F0366E060EE15E3650000EE66ECA
:10528000E66A0C0EE66E010EE66E03EC76F0E55271
:10529000E552E552E5520B01116B126B0A019E9328
:0852A000969D969F246A1200FE
:0852A8007BBA05D0200EE66E72
:1052B00054EC77F004D0200EE66E60EC77F0E55207
:1052C0000A019AA105D0080EE66E54EC77F004D0DE
:1052D000080EE66E60EC77F0E552800EE66E60EC4C
:1052E00077F0E55229EC72F059C0D8F85AC0D9F8D5
:1052F0005BC0DAF8F40E0801D827010ED923000E9E
:10530000DA2384EC0EF0010E766EC9EC31F0010E5A
:10531000766ED1EC49F00A01979D9AA15CD0080EF7
:10532000E66E54EC77F0E5520A019AA75ED0C4EC21
:105330003AF042C640F643C641F6000E06013C6F05
:105340003D6B0601426F436B09EC56F029EC72F09D
:1053500059500801D85D5A50D9595B50DA5932E298
:105360000A019951020B2EE12EEC42F00A019A95A6
:10537000E8B09A859851010B06E19751800B03E143
:105380009A51040B13E17BBE05D0800EE66E54ECFF
:1053900077F004D0800EE66E60EC77F0E5527BB4D7
:1053A00005D0040EE66E54EC77F004D0040EE66EE1
:1053B00060EC77F0E552F40E0801D827010ED923EE
:1053C000000EDA230B013D0710E13BEC41F00B012D
:1053D000010E3D6F0AD0040EE66E54EC77F0E552F4
:1053E000080EE66E60EC77F0E5526DEC3DF00A01D8
:1053F0009A51010B01E185D78050100B04E00801A0
:10540000D35101E07ED70A019D51400B01E079D7CD
:105410009851010B01E075D79751800B01E071D7CE
:105420009651040B01E06DD740C636F041C637F007
:10543000386A396A37AE02D038683968D89039503E
:10544000000A08E6180E365C000E3758000E385871
:10545000000E395801E355D79A51040B01E151D799
:105460000801D36B800EE66E60EC77F0E552040E17
:10547000E66E60EC77F0E552080EE66E54EC77F0DD
:10548000E5520A019AAB05D0200EE66E54EC77F097
:1054900004D0200EE66E60EC77F0E55229EC72F055
:1054A00059C0D4F85AC0D5F85BC0D6F80801D76BFC
:1054B00059C039F75AC03AF75BC03BF759C036F0CC
:1054C0005AC037F05BC038F0D7C839F0E80E36263E
:1054D000030E3722000E3822392236C015F737C0A6
:1054E00016F738C017F700CF36F0376A386A396ACE
:1054F000D40EE96E080EEA6EEE503626EE503722D4
:10550000EE503822EE50392236C054F737C055F7E6
:1055100038C056F70A019697756A1200090EE66EB2
:10552000C90EE66E76EC5AF0E552E5523AEC0CF014
:10553000FCEC43F0D8EC67F0FB0EE66EC80EE66EAE
:1055400076EC5AF0E552E5520801DC6B400EDC5D6A
:1055500062E2F70EE66EC80EE66E76EC5AF0E552A1
:10556000E5520801DC29E66EE66AC2EC5AF0E55223
:10557000E552F30EE66EC80EE66E76EC5AF0E55292
:10558000E5520801DC51EA6A930FE96E080EEA223F
:10559000EFCF36F0376A36BE376836C0E6FF37C021
:1055A000E6FF2BEC5BF0E552E5520801DC51F66EAC
:1055B000F76AD890F636F7368D0EF626F00EF722FB
:1055C000010EF626000EF7220800F55007E0F00E57
:1055D000E66EC80EE66E76EC5AF018D0200EE66E37
:1055E00096EC5AF0E552400E0801DC25E66EE66ABC
:1055F0002AEC75F0E552E552366E376A36BE3768EA
:1056000036C0E6FF37C0E6FF2BEC5BF0E552E55213
:105610000801DC2B9BD712003F0E926E020EC16E6A
:10562000C00E816E400E936E600E826E840E946E7C
:10563000C78CF19E410EE66EE66A3C0EE66EFFEC0C
:1056400077F0E552E552E5521200736A0801DD6B0E
:105650000A0EDD5D09E2DD51EA6A960FE96E0A0E77
:10566000EA22EF6ADD2BF4D70A01998199899A859C
:1056700099870F01756B766B776B786B06014869BC
:105680007F0E496F48C646F6E8CF47F648C64AF649
:10569000E8CF4BF6140E06013E6F3F6BF00E06018D
:1056A000406F416BD00E0001BF6FC06B7B6A2E0E46
:1056B000E66E60EC77F0E552040EE66E54EC77F09F
:1056C000E552800EE66E60EC77F0E5521200D9CF1D
:1056D000E6FFE1CFD9FFFD0EDBCF36F0FE0EDBCFCC
:1056E00037F0386A37BE386836C0E6FF37C0E6FFA5
:1056F00038C0E6FF29EC72F0E552E7CF38F0E5520A
:10570000E7CF37F0E552E7CF36F05950362408019D
:10571000DE6F5A503720DF6F5B503820E06FDE2B92
:10572000000EDF23E02329EC72F00801DE51595C02
:10573000DF515A58E0515B58F6E3E552E7CFD9FF05
:105740001200D9CFE6FFE1CFD9FFFD0EDBCF36F057
:10575000FE0EDBCF37F0640E3702F3CF37F03602A0
:10576000F3CF36F0F4503726386A37BE386836C083
:10577000E6FF37C0E6FF38C0E6FF29EC72F0E552DD
:10578000E7CF38F0E552E7CF37F0E552E7CF36F014
:10579000595036240801E16F5A503720E26F5B50B0
:1057A0003820E36F29EC72F00801E151595CE251B5
:1057B0005A58E3515B580BE2020E0F01005DE66E92
:1057C000E66A85DFE552E55209EC56F0EBD7E55283
:1057D000E7CFD9FF1200D9CFE6FFE1CFD9FF800E86
:1057E000E66E54EC77F0E552FE0EDBCFE6FFE66A9C
:1057F000A8DFE552E552800EE66E60EC77F0E552E8
:10580000FD0EDBCFE6FFE66A9CDFE552E552E5528E
:10581000E7CFD9FF1200D9CFE6FFE1CFD9FF0801CA
:10582000E46BFE0EDB50E45D0AE2080EE66E020E4B
:10583000E66ED1DFE552E5520801E42BF2D7E66AC5
:10584000080EE66EC8DFE552E552E552E7CFD9FF14
:10585000120029EC72F059C0E5F85AC0E6F85BC0B6
:10586000E7F8E50EE96E080EEA6E07013C51EE5CC2
:105870003D51EE583E51EE5801E2BFD0765001E165
:10588000BCD0E5C83CF7E6C83DF7E7C83EF7E80EF0
:105890003C27030E3D23000E3E23766ABCC058F021
:1058A000BDC059F05A6A5B6A59AE02D05A685B684B
:1058B000040E5D6E5E6A5F6A606A87EC78F054C0C1
:1058C0006DFF55C06EFF390EE96E070EEA6EEE50A1
:1058D0000801E55D3D6EEE50E6593E6EEE50E7592B
:1058E0003F6E54C03AF055C03BF03C6A3BBE3C684A
:1058F0003AC059F03BC05AF03CC05BF03DC05EF08E
:105900003EC05FF03FC060F029EC74F0396A565039
:105910000F01752757507623585077233950782335
:10592000E5C839F7E6C83AF7E7C83BF775CF36F070
:1059300076CF37F077CF38F078CF39F05D6A400E08
:105940005E6E380E5F6E606A75CF58F076CF59F094
:1059500077CF5AF078CF5BF0C8EC73F058C036F0D0
:1059600059C037F05AC038F05BC039F0320E5D6E66
:105970005E6A5F6A606A87EC78F054C036F055C0A2
:1059800037F056C038F057C039F054C073FF55C0D7
:1059900074FFE66AF6EC78F0E552F3CFE8F8F4CF5E
:1059A000E9F8010EE66E0F016B510801F324366E23
:1059B0000F016C510801F420376E36C0E6FFE66E29
:1059C000EEEC4CF0E552E552E552F3CF6BFFF4CF2D
:1059D0006CFF0F01F4507019E8AE02D0703504D09E
:1059E0006F516B5D70516C5902E3000E01D0010ED6
:1059F000010B0A01969BE8B0968B1200765001E1EC
:105A0000BDD0766A0A019651200B11E19651080B20
:105A10000EE19651010B06E09751400B03E09D51BA
:105A2000100B05E1030E735C02E0000E01D0010EC5
:105A30009C93E8B09C839CA392D096AB0AD00B01B8
:105A4000580E3E6F020E3F6F580E406F020E416FB0
:105A500021D09651010B0CE09751400B09E09D516C
:105A6000100B06E0C80E0B013E6F3F6B140E10D0FA
:105A7000030E735C07E10B018E0E3E6F120E3F6F3B
:105A8000FA0E06D096A706D07D0E0B013E6F3F6B37
:105A9000406F416B29EC72F059500701455D5A5037
:105AA00046595B5047596AE27BAE2CD03ECB36F06C
