:020000040000FA
:060000003AEF73F012005C
:020006001200E6
:0600080086EF67F0120014
:02000E00475059
:080010004747414750524D43A0
:060018007FEF67F012000B
:02001E000E00D2
:1000200074E70000A30A00000A0000007FE000005F
:10003000FF080000010000006DE70000CD0A00008D
:100040000700000069E70000E80A00000400000063
:1000500067E70000FE0700000200000047E3000021
:10006000FF0000000100000062E70000FB06000046
:100070000500000048E70000200A00001A00000008
:1000800026E70000C2090000220000001EE7000071
:10009000B60A00000800000012E70000810A000014
:1000A0000C000000FEE60000EB0000001400000061
:1000B000DCE60000A009000022000000D6E60000F7
:0800C000D40A00000600000054
:0800C800D9CFE6FFE1CFD9FF1B
:1000D000060EE126730EDE6E030EDD6E760EF36EF7
:1000E000020EF3CFDBFF010EF36E030EF3CFDBFF47
:1000F000040EDB6A010EF36E050EF3CFDBFF000189
:1001000091518E5DAC6F92518F59AD6F9351905953
:10011000AE6F040EDBCF36F0050EDBCF37F0386A5A
:1001200037BE3868ACC052F0ADC053F0AEC054F02A
:1001300036C057F037C058F038C059F05DEC6BF05E
:100140004FC0A3F050C0A4F051C0A5F0DECF3FF0E7
:10015000DDCF40F0416A40BE4168E8CA3CF0E9CAE0
:100160003DF03E6A3DBE3E68020EDBCF39F0030E25
:10017000DBCF3AF03B6A3ABE3B68ACC052F0ADC050
:1001800053F0AEC054F039C057F03AC058F03BC0FD
:1001900059F05DEC6BF000013C504F5C366E3D5009
:1001A0005058376E3E505158386E36C052F037C0F6
:1001B00053F0546E3FC057F040C058F041C059F062
:1001C0005DEC6BF04FC0A6F050C0A7F051C0A8F096
:1001D000E8CA53F0E9CA54F0DECF58F0DDCF59F049
:1001E00012EC6BF051500A01E8275250E92300014C
:1001F000A351A625A96FA451A721AA6FA551A82193
:10020000AB6F080EE66EA9C0E6FFAAC0E6FF35ECAC
:1002100045F0E552E552E552F3CFA9F0F4CFAAF04C
:100220000001AB6BAABFAB699CC039F09DC03AF02E
:100230003B6A3ABE3B68AB513B18E8AE02D03B3458
:1002400006D03950A95D3A50AA593B50AB5909E242
:100250009CC036F09DC037F0386A37AE1AD0386887
:1002600018D0AB35000EAB1907E6D880F40EA955AF
:10027000010EAA55000EAB5506E2F40E366E010EC5
:10028000376E386A06D0A9C036F0AAC037F0ABC0C6
:1002900038F036C0B1F037C0B2F09A51365CAF6F6B
:1002A0009B513758B06F1DC836F0376A36BE376875
:1002B0003650AF03F3CFB3F0F4CFB4F0B003F35044
:1002C000B4273750AF03F350B427090EE66EB3C01E
:1002D000E6FFB4C0E6FF35EC45F0E552E552E552E5
:1002E000F3CFB3F0F4CFB4F00001F4509F19E8AEAF
:1002F00002D09F3504D09E51B35D9F51B45909E29D
:100300009EC036F09FC037F0386A396A37AE23D0C6
:1003100022D0B3C03AF0B4C03BF03C6A3D6A3BAE79
:1003200002D03C683D683D34000E3D1809E6D88097
:100330000C0E3A54000E3B54000E3C54000E3D543B
:1003400004E20C0E366E376A04D0B3C036F0B4C087
:1003500037F0386A396A36C096F037C097F0060E23
:10036000E15C02E2E16AE552E16EE552E7CFD9FFD6
:1003700012000A0140A165D14091C9EC6DF05FEC1B
:1003800035F00A013CAF0DD08DCA91F08ECA92F0C3
:100390000001936B92BF93698FCA9AF090CA9BF049
:1003A00016D00701AF510701B25D0001916F07013F
:1003B000B0510701B3590001926F0701B151070114
:1003C000B4590001936FB5C79AF0B6C79BF0030EFE
:1003D000E66E070E536E546AEACA58F0EBCA59F03B
:1003E00012EC6BF0515000019A25366E52509B2151
:1003F000376E36C0E6FFE66E35EC45F0E552E55265
:10040000E552F3CFEAFAF4CFEBFA0A013AA1F8D0B9
:100410003D51800B05E16D5006E03D51010B03E0BD
:100420003B8D64EF00F03B51200B1CE10A01800E74
:10043000EB1509E0EACA36F0EBCA37F0366C371E26
:10044000000E372204D0EACA36F0EBCA37F0373450
:100450002AE236503E08000E375425E20A013B518D
:10046000400B21E13B9D91C08EF092C08FF093C074
:1004700090F00001800E971507E0010E9625966F0B
:10048000000E9721976F120097350AE296510008E7
:10049000000E975505E2010E965F000E975B120065
:1004A000966B976B12000A013B8D0A01EA6BEB6BAE
:1004B0000BDE0F013C5100019625B56F0F013D5138
:1004C00000019721B66F800E9B1509E09AC036F0A7
:1004D0009BC037F0366C371E000E372204D09AC00E
:1004E00036F09BC037F0386A396A37AE02D03868C8
:1004F0003968D8903950000A08E6320E365C000E92
:100500003758000E3858000E395801E39AD0B5C05C
:100510003AF0B6C03BF03C6A3D6A3BAE02D03C6864
:100520003D683D34000E3D1809E6D880480E3A5427
:10053000000E3B54000E3C54000E3D5401E381D0AC
:10054000030EE66E070E536E546A38CF58F039CF5B
:1005500059F012EC6BF051500001B525366E525037
:10056000B621376E36C0E6FFE66E35EC45F0E55253
:10057000E552E552F3CF38FFF4CF39FFF3CF3AF02D
:10058000F4CF3BF03C6A3D6A3BAE02D03C683D682C
:10059000D8903D50000A08E6480E3A5C000E3B58E1
:1005A000000E3C58000E3D5802E2480E19D038CFDC
:1005B0003EF039CF3FF0406A416A3FAE02D040681A
:1005C00041684134000E411809E6D880900E3E542F
:1005D000000E3F54000E4054000E415404E2900EB1
:1005E000366E376A04D038CF36F039CF37F036C0A0
:1005F00038FF37C039FF36C036FF37C037FF12002B
:10060000B2C791F0B3C792F0B4C793F00001800E67
:10061000971507E0010E9625966F000E9721976FAC
:100620000ED097350AE296510008000E975505E264
:10063000010E965F000E975B02D0966B976B0A01D6
:100640003B9D12000A013A51100B01E1D3D03D51FC
:10065000400B01E0CFD00001B96BB951010801E2B4
:10066000CDD0030EE66E3EC83FF0406A416A426A52
:100670003FAE03D04068416842683FC0E6FF40C0DB
:10068000E6FF41C0E6FF42C0E6FF660EE66EE66AA0
:10069000B951480DF3CFE9FFF4CFEAFF000EE92688
:1006A000040EEA22280EE926000EEA22EECF3AF0E6
:1006B000EFCF3BF03C6A3D6A3BAE02D03C683D6800
:1006C0003AC0E6FF3BC0E6FF3CC0E6FF3DC0E6FFA8
:1006D000A0EC2CF03E6E060EE15E3E50E552E7CFF8
:1006E00042F0E552E7CF41F0E552E7CF40F0E55266
:1006F000E7CF3FF03FC056F040C057F041C058F040
:1007000042C059F0A4EC71F04DC036F04EC037F045
:100710004FC038F050C039F04DC0E6FF4EC0E6FF84
:100720004FC0E6FF50C0E6FF85EC45F0436E050E76
:10073000E15E43505668576858685968A4EC71F0F8
:100740004DC0B7F04EC0B8F04DC03AF04EC03BF0CF
:100750003C6A3D6A3BAE02D03C683D68D8803D5063
:10076000FF0A08E6E80E3A5CFF0E3B58FF0E3C58C5
:10077000FF0E3D5804E2E80E366E376826D0B7C04B
:100780003EF0B8C03FF0406A416A3FAE02D04068D8
:1007900041684134000E411809E6D880180E3E54D5
:1007A000000E3F54000E4054000E415406E2180E55
:1007B000366E376A386A396A0AD0B7C036F0B8C0C0
:1007C00037F0386A396A37AE02D0386839680001C4
:1007D000B951480DF3CFE9FFF4CFEAFF000EE92647
:1007E000040EEA222F0EE926000EEA2236C0EFFFA1
:1007F000B92B33D70401776B77C42FF412000A01A9
:100800003D51040B4FE03D51400B4CE007019A3540
:10081000000E9A1907E6D880960E9855000E995545
:10082000000E9A553FE20801DF510701965D366ED2
:1008300097510801E055376E36C0E6FFE66E0DECC5
:1008400046F0E552E552F3CFBAF0F4CFBBF0F3CF68
:10085000E6FFF4CFE6FF12C436F013C437F0386A6F
:1008600037BE386836C0E6FF37C0E6FF38C0E6FF5F
:100870005AC439F05BC43AF03B6A3ABE3B6839C0AF
:10088000E6FF3AC0E6FF3BC0E6FF380EE66E040E18
:10089000E66E800EE66E040EE66EFAEC2DF03C6E0F
:1008A0000C0E28D062CAE6FF12C436F013C437F02B
:1008B000386A37BE386836C0E6FF37C0E6FF38C052
:1008C000E6FF5AC439F05BC43AF03B6A3ABE3B6873
:1008D00039C0E6FF3AC0E6FF3BC0E6FF380EE66EE1
:1008E000040EE66E800EE66E040EE66E15EC2FF03A
:1008F0003C6E0B0EE15E3C500A013DBD02D080EC27
:100900001EF077C438F0396A38BE396804013850AF
:10091000825D366E39508359376E36508027375096
:1009200081232FC438F0396A38BE39683A513824E7
:10093000366E3B513920376E3650382737503923C1
:10094000A251CA25C86FA351CB21C96F1200D9CFBC
:10095000E6FFE1CFD9FF010EE66EFB0EDBCF3AF0EA
:10096000FC0EDBCF3BF0FD0EDBCFE9FFFE0EDBCF55
:10097000EAFF220EE926000EEA223A50EE24366EF5
:100980003B50EE20376E386A396A37AE02D038688D
:10099000396836C0E6FF37C0E6FF38C0E6FF39C029
:1009A000E6FF85EC45F03C6E050EE15E3C5051C023
:1009B000BCF052C0BDF053C0BEF054C0BFF0FD0E3D
:1009C000DBCFE9FFFE0EDBCFEAFF220EE926000EA9
:1009D000EA22EECF3AF0EFCF3BF03C6A3D6A3BAE05
:1009E00002D03C683D683A500001BC5D366E3B5019
:1009F000BD59376E3C50BE593D50BF59FD0EDBCF3F
:100A0000E9FFFE0EDBCFEAFF240EE926000EEA2204
:100A100036C0EEFF37C0EDFFFD0EDBCFE9FFFE0E67
:100A2000DBCFEAFF220EE926000EEA22BCC0EEFF71
:100A3000BDC0EDFF010EE66EFD0EDBCFE9FFFE0E41
:100A4000DBCFEAFF260EE926000EEA22EECF3CF0CD
:100A5000EFCF3DF0FD0EDBCFE9FFFE0EDBCFEAFF6F
:100A6000240EE926000EEA223C50EE24386E3D505A
:100A7000EE20396E3A6A3B6A39AE02D03A683B687A
:100A800038C0E6FF39C0E6FF3AC0E6FF3BC0E6FFEC
:100A900085EC45F03E6E050EE15E3E5052C037F0EB
:100AA000FD0EDBCFE9FFFE0EDBCFEAFF240EE926C9
:100AB000000EEA2251C0EEFF37C0EDFFFD0EDBCF86
:100AC000E9FFFE0EDBCFEAFF240EE926000EEA2244
:100AD000EECF36F0EFCF37F0FD0EDBCFE9FFFE0EA5
:100AE000DBCFEAFF260EE926000EEA2236C0EEFF33
:100AF00037C0EDFFE552E7CFD9FF1200D9CFE6FFAF
:100B0000E1CFD9FFFD0EDBCFE9FFFE0EDBCFEAFF21
:100B1000200EE926000EEA22EECFE6FFEFCFE6FF39
:100B2000FD0EDBCFE6FFFE0EDBCFE6FF10DFE5526A
:100B3000E552E552E552050EE66EFD0EDBCFE9FF0C
:100B4000FE0EDBCFEAFF240EE926000EEA22EECFEE
:100B500046F0EFCF47F0FD0EDBCFE9FFFE0EDBCF17
:100B6000EAFF0C0EE926000EEA22EECF48F0EFCFA6
:100B700049F0000148504602F3CF42F0F4CF43F071
:100B80004702F350432649504602F3504326446A35
:100B9000456A43AE02D044684568FD0EDBCFE9FFED
:100BA000FE0EDBCFEAFF080EE926000EEA22EECFAA
:100BB0003EF0EFCF3FF0406A416A3FAE02D040685E
:100BC0004168FD0EDBCFE9FFFE0EDBCFEAFF200E12
:100BD000E926000EEA22EECF3AF0EFCF3BF03C6A76
:100BE0003D6A3BAE02D03C683D683AC051F03BC024
:100BF00052F03CC053F03DC054F03EC056F03FC0F0
:100C000057F040C058F041C059F0A4EC71F04D507D
:100C100000014224366E4E504320376E4F50442020
:100C2000386E50504520396E36C0E6FF37C0E6FFBB
:100C300038C0E6FFE66E85EC45F04A6E050EE15ED3
:100C40004A5051C0C4F052C0C5F053C0C6F054C0A1
:100C5000C7F0FD0EDBCFE9FFFE0EDBCFEAFF0A0E89
:100C6000E926000EEA22EE50ED1010E10001C86BFB
:100C7000C96BCA6BCB6BFD0EDBCFE9FFFE0EDBCF82
:100C8000EAFF1A0EEB6A1B0EEB6AC9D0090EE66E7C
:100C9000FD0EDBCFE9FFFE0EDBCFEAFF0A0EE926F1
:100CA000000EEA22EECF3EF0EFCF3FF0406A416AFD
:100CB0003FAE02D040684168FD0EDBCFE9FFFE0E7B
:100CC000DBCFEAFF1A0EE926000EEA22EECF3AF059
:100CD000EFCF3BF03C6A3D6A3BAE02D03C683D68DA
:100CE0003AC051F03BC052F03CC053F03DC054F00C
:100CF0003EC056F03FC057F040C058F041C059F0D8
:100D0000A4EC71F04DC036F04EC037F04FC038F053
:100D100050C039F04DC0E6FF4EC0E6FF4FC0E6FFC1
:100D200050C0E6FF85EC45F0426E050EE15E425094
:100D300051C0C0F052C0C1F053C0C2F054C0C3F0A3
:100D4000FD0EDBCFE9FFFE0EDBCFEAFFEECF36F084
:100D5000EFCF37F0366C371E000E3722386A396A0B
:100D600037AE02D0386839680001C3513918E8AE8F
:100D700002D0393408D03650C05D3750C159385090
:100D8000C2593950C35913E2FD0EDBCFE9FFFE0E05
:100D9000DBCFEAFFEECFC8F0EFCFC9F0C86DC91FB7
:100DA000000EC923CA6BCB6BC9AF39D02DD0FD0E55
:100DB000DBCFE9FFFE0EDBCFEAFFEECF3AF0EFCF5D
:100DC0003BF03C6A3D6A3BAE02D03C683D683D501A
:100DD000C319E8AE02D0C33508D0C0513A5CC15146
:100DE0003B58C2513C58C3513D5811E2FD0EDBCF78
:100DF000E9FFFE0EDBCFEAFFEECFC8F0EFCFC9F080
:100E0000CA6BCB6BC9AF0BD0CA69CB6908D0C0C065
:100E1000C8F0C1C0C9F0C2C0CAF0C3C0CBF0C80E90
:100E2000E96E000EEA6EC451EE243A6EC551EE2012
:100E30003B6EC651EE203C6EC751EE203D6EFD0E5E
:100E4000DBCFE9FFFE0EDBCFEAFF380EE926000E0E
:100E5000EA22EECF3EF0EFCF3FF0406A416A3FAE6C
:100E600002D0406841683E503A5C366E3F503B5875
:100E7000376E40503C58386E41503D58396EFD0E2B
:100E8000DBCFE9FFFE0EDBCFEAFF440EE926000EC2
:100E9000EA2236C0EEFF37C0EDFFE552E7CFD9FFBB
:100EA0001200D9CFE6FFE1CFD9FFFD0EDBCFE9FF7E
:100EB000FE0EDBCFEAFF1A0EE926000EEA22EECF85
:100EC00036F0EFCF37F0386A396A37AE02D038687B
:100ED0003968FD0EDBCFE9FFFE0EDBCFEAFF380EEF
:100EE000E926000EEA22EECF51F0EFCF52F0536A1E
:100EF000546A52AE02D053685468300E566E576A28
:100F0000586A596AA4EC71F036504D5C0001DC6FF0
:100F100037504E58DD6F38504F58DE6F39505058AB
:100F2000DF6FFD0EDBCFE9FFFE0EDBCFEAFF080E21
:100F3000E926000EEA22EECF36F0EFCF37F0386A1E
:100F4000396A37AE02D038683968DCC051F0DDC08C
:100F500052F0DEC053F0DFC054F036C056F037C058
:100F600057F038C058F039C059F0A4EC71F04DC0BA
:100F7000CCF04EC0CDF04FC0CEF050C0CFF000014D
:100F8000D06BD16BD26BD36B0A0EE66ED00EE96ECE
:100F9000000EEA6E4D50EE24366E4E50EE20376E47
:100FA0004F50EE20386E5050EE20396E36C0E6FFBE
:100FB00037C0E6FF38C0E6FFE66E85EC45F03A6ED6
:100FC000050EE15E3A5051C0D8F052C0D9F053C07E
:100FD000DAF054C0DBF0FD0EDBCFE9FFFE0EDBCF15
:100FE000EAFF200EE926000EEA22EECF36F0EFCF20
:100FF00037F0386A396A37AE02D038683968D80EA7
:10100000E96E000EEA6E3650EE5C0001E06F37507C
:10101000EE58E16F3850EE58E26F3950EE58E36FFA
:10102000E0C0E6FFE1C0E6FFFD0EDBCFE6FFFE0E0F
:10103000DBCFE6FF8CDCE552E552E552E552050ECA
:10104000E66EFD0EDBCFE9FFFE0EDBCFEAFF240EDE
:10105000E926000EEA22EECF42F0EFCF43F0FD0E7C
:10106000DBCFE9FFFE0EDBCFEAFF0C0EE926000E18
:10107000EA22EECF44F0EFCF45F0000144504202A7
:10108000F3CF3EF0F4CF3FF04302F3503F264550FC
:101090004202F3503F26406A416A3FAE02D04068A8
:1010A0004168FD0EDBCFE9FFFE0EDBCFEAFF080E45
:1010B000E926000EEA22EECF3AF0EFCF3BF03C6A91
:1010C0003D6A3BAE02D03C683D68E0C051F0E1C0F3
:1010D00052F0E2C053F0E3C054F03AC056F03BC0C7
:1010E00057F03CC058F03DC059F0A4EC71F04D50A1
:1010F00000013E24366E4E503F20376E4F50402048
:10110000386E50504120396E36C0E6FF37C0E6FFDA
:1011100038C0E6FFE66E85EC45F0466E050EE15EF2
:10112000465051C0D4F052C0D5F053C0D6F054C090
:10113000D7F0000E0001D46DD51FD523D61FD623BE
:10114000D71FD723FD0EDBCFE9FFFE0EDBCFEAFF73
:10115000440EE926000EEA22D4C0EEFFD5C0EDFF12
:10116000E552E7CFD9FF12000A013EAD1DD0A0C461
:1011700036F0A1C437F0386A396A37AE02D0386821
:1011800039683934000E391809E6D880180E3654FB
:10119000000E3754000E3854000E395409E2DFC8EF
:1011A000E1F8E0C8E2F81200DFC8E1F8E0C8E2F8D0
:1011B0001200DADF0801DF510801E15D366EE2510D
:1011C0000801E055376E36C0E6FFE66E59EC69F06F
:1011D000E552E552F3CF88F0F4CF89F00001D880D2
:1011E000F45004E7E40E885DFF0E895904E2E40E32
:1011F000886F89690DD0893509E288511C08000E75
:10120000895504E21C0E886F896B02D089C089F071
:10121000060EE66E94C43DF095C43EF03F6A3EBEB5
:101220003F6888C03AF089C03BF03C6A3BBE3C68EE
:101230003AC052F03BC053F03CC054F03DC057F0B0
:101240003EC058F03FC059F05DEC6BF04FC036F037
:1012500050C037F051C038F0396A38BE396836C0EE
:10126000E6FF37C0E6FF38C0E6FF39C0E6FF85EC91
:1012700045F0406E050EE15E405051C0E4F052C0B2
:10128000E5F053C0E6F0B0C436F0B1C437F0386AC8
:1012900037BE386836500001E45F3750E55B3850A0
:1012A000E65B050EE66E98C43AF099C43BF03C6AE2
:1012B0003BBE3C68E4C052F0E5C053F0E6C054F0D9
:1012C0003AC057F03BC058F03CC059F05DEC6BF0B1
:1012D0004FC036F050C037F051C038F0396A38BED0
:1012E000396836C0E6FF37C0E6FF38C0E6FF39C0D0
:1012F000E6FF85EC45F03D6E050EE15E3D5051C0C8
:10130000E4F052C0E5F053C0E6F092C436F093C466
:1013100037F0366C371E000E3722386A37BE386811
:101320000001E6513818E8AE02D0383406D0365005
:10133000E45D3750E5593850E6590CE292C4E4F0C8
:1013400093C4E5F0E46DE51F000EE523E66BE5AF21
:1013500020D01BD092C439F093C43AF03B6A3ABE15
:101360003B683B50E619E8AE02D0E63506D0E451C2
:10137000395CE5513A58E6513B5809E292C4E4F031
:1013800093C4E5F0E66BE5AF04D0E66902D0E6C0B1
:10139000E6F00401800EC91509E0C8C436F0C9C4DE
:1013A00037F0366C371E000E372204D0C8C436F032
:1013B000C9C437F0386A396A37AE02D0386839683C
:1013C0003934000E391809E6D880020E3654000E62
:1013D0003754000E3854000E395402E36D500EE0BD
:1013E000C8C436F0C9C437F0386A37BE38683650DA
:1013F0000001E45F3750E55B3850E65BE4C0D4F4AD
:10140000E5C0D5F4120004011E6B1F6B666B676BA1
:101410001200E7EC66F022EC03F018EC42F0E6EC88
:1014200068F0FFEC03F00001E76BE75101082AE3E5
:101430000A013FA111D00001E751480DF3CF36F06A
:10144000F4CF37F0000E3626040E372236C0E6FF02
:1014500037C0E6FF26DD11D00001E751480DF3CF7C
:1014600036F0F4CF37F0000E3626040E372236C0A1
:10147000E6FF37C0E6FF7EEC05F0E552E5520001DD
:10148000E72BD3D796DE44C45FF045C460F08CC42C
:1014900061F08DC462F0D4C463F0D5C464F004017B
:1014A000800E1B1509E01AC43AF01BC43BF03A6CDD
:1014B0003B1E000E3B2204D01AC43AF01BC43BF082
:1014C000800E631509E062C43CF063C43DF03C6CDF
:1014D0003D1E000E3D2204D062C43CF063C43DF0CA
:1014E0003B503D18E8AE02D03D3404D03C503A5C4D
:1014F0003D503B580DE2800E631505E062C436F0A6
:1015000063C437F00CD062C436F063C437F010D037
:10151000800E1B1509E01AC436F01BC437F0366C78
:10152000371E000E372204D01AC436F01BC437F021
:10153000386A396A37AE02D038683968D89039507D
:10154000000A08E6E80E365C030E3758000E3858DD
:10155000000E395802E3000E01D0010E0A013A993B
:10156000E8B03A89C6EF50F004012F6B2FC477F42E
:101570002FC498F00001996B98BF996998C096F0B4
:1015800099C097F0F40E9E6F9F69E86BE8510208CE
:101590003EE3E851480DF3CFE9F0F4CFEAF0000E56
:1015A000E927040EEA23E9C0E9FFEAC0EAFF220EB8
:1015B000E926000EEA22EE6AED6AE9C0E9FFEAC018
:1015C000EAFF460EE926000EEA22EE6AED6AE9C05D
:1015D000E9FFEAC0EAFF1A0EE926000EEA22EE6AE7
:1015E000ED6AE9C0E9FFEAC0EAFF240EE926000E31
:1015F000EA22EE6AED6AE9C0E9FFEAC0EAFF260ED8
:10160000E926000EEA22EE6AED6AE82BBFD703EF67
:021610000AF0DE
:0E161200C90EE66EBD0EE66E21EC52F0E552FA
:10162000E55212000A0141A704D0B80EE66EBD0EC5
:1016300003D0A40EE66EBD0EE66E21EC52F0E5522C
:10164000E552120030CAE6FF31CAE6FF21EC52F043
:10165000E552E55212000AEC53F0640EE66EDF0E1E
:10166000E66E21EC52F0E552E552550EE66EBD0EE7
:10167000E66E21EC52F0E552E552480EE66EBD0EE4
:10168000E66E21EC52F0E552E552DCDF350EE66EF7
:10169000BD0EE66E21EC52F0E552E552200EE66EEC
:1016A000E66A80C036F0376A386A396A80C0E6FF79
:1016B00037C0E6FF38C0E6FF39C0E6FFE4EC53F080
:1016C0003A6E060EE15E3A500AEC53F02C0EE66ECE
:1016D000BD0EE66E21EC52F0E552E5521EEC59F0DB
:1016E000220EE66EBD0EE66E21EC52F0E552E5529A
:1016F0002BC9E6FF3EEC56F0E552190EE66EBD0E24
:10170000E66E21EC52F0E552E55204EC42F00D0E8B
:10171000E66EBD0EE66E21EC52F0E552E552CAECE3
:1017200068F00A013E51400B20E00801E5511DE040
:10173000040EE66EBD0EE66E21EC52F0E552E55267
:10174000E66AE66A0E0EE66EE66AE66AE66AE4ECC9
:1017500053F0366E060EE15E3650FF0EE66EBC0E9E
:10176000E66E21EC52F0E552E552F60EE66EBC0E46
:10177000E66E21EC52F0E552E5520DEC4EF0080118
:10178000235131E0F30EE66EBC0EE66E21EC52F012
:10179000E552E5520601F56B040EF55D1CE2F551CC
:1017A000E96EEA6AD890E936EA36340EE926060E82
:1017B000EA22EE50ED1004E0ED0EE66EBC0E03D012
:1017C000E90EE66EBC0EE66E21EC52F0E552E552F3
:1017D0000601F52BE1D7E60EE66EBC0EE66E21ECB7
:1017E00052F0E552E552DC0EE66EBC0EE66E21ECE0
:1017F00052F0E552E55216DFD30EE66EBC0EE66EF1
:1018000021EC52F0E552E55208010351010A02E0D1
:10181000010A06E1310E0325E66E41EC52F007D0D5
:10182000CB0EE66EBC0EE66E21EC52F0E552E552B0
:10183000BD0EE66EBC0EE66E21EC52F0E552E552AE
:10184000300E0A016025E66E41EC52F0E552A80E1A
:10185000E66EBC0EE66E21EC52F0E552E5520A014E
:101860003CA904D09E0EE66EBC0E03D0930EE66E2D
:10187000BC0EE66E21EC52F0E552E5520A013AA3A5
:1018800004D0850EE66EBC0E03D0750EE66EBC0E5F
:10189000E66E21EC52F0E552E5520A013DB108D066
:1018A0005A0EE66EBC0EE66E21EC52F0E552E552A1
:1018B000460EE66EBC0EE66E21EC52F0E552E552A5
:1018C000010E1614010823E00A014151080B1FE123
:1018D000110EE66EBC0EE66E21EC52F0E552E552BA
:1018E000E66AE66A1650366E376A386A396A16C092
:1018F000E6FF37C0E6FF38C0E6FF39C0E6FFE4EC9C
:1019000053F03A6E060EE15E3A500AEC53F00A01CB
:101910003FBF08D0F20EE66EBB0EE66E21EC52F031
:10192000E552E5520A013EB508D0D20EE66EBB0E76
:10193000E66E21EC52F0E552E5520A0141AD08D0C5
:10194000B50EE66EBB0EE66E21EC52F0E552E552A6
:101950000A013CBB08D0A70EE66EBB0EE66E21EC7A
:1019600052F0E552E5520A013CBD08D0900EE66EF9
:10197000BB0EE66E21EC52F0E552E552090E09016C
:101980002B5D04E00A013A51040B08E0830EE66E79
:10199000BB0EE66E21EC52F0E552E552040E090151
:1019A000EA5D04E00A013E51200B08E1750EE66E87
:1019B000BB0EE66E21EC52F0E552E5520A013EBD47
:1019C00008D0620EE66EBB0EE66E21EC52F0E552D8
:1019D000E5520A013EB108D0420EE66EBB0EE66E3D
:1019E00021EC52F0E552E5528050100B0BE008015B
:1019F000AF5108E0270EE66EBB0EE66E21EC52F00A
:101A0000E552E5520A013C51010B03E13B51800BC9
:101A100008E0070EE66EBB0EE66E21EC52F0E552D2
:101A2000E55240CF36F041CF37F0386A396A37AEE9
:101A300002D038683968D8903950000A08E6180E84
:101A4000365C000E3758000E3858000E395808E33F
:101A5000F40EE66EBA0EE66E21EC52F0E552E55257
:101A600009EF0BF080B832EF15F055EC53F006019A
:101A7000F66FE85002E132EF15F0F6C6E6FF41ECF2
:101A800072F0E552F3CF36F0F4CF37F0F350F410A4
:101A900007E0F6C6E6FF53EC72F0E552F3CFF6F638
:101AA0000601F6513F0A02E128EF15F0690A02E14A
:101AB00025EF15F0110A02E122EF15F01F0A02E1ED
:101AC0001FEF15F00B0A02E11DEF15F0010A01E10D
:101AD00052D1050A01E14DD10D0A01E138D1170AB1
:101AE00001E17CD0010A33E0080A06E0060A01E0C1
:101AF0001200F29E80EC7EF0D70EE66EBA0EE66E15
:101B000021EC52F0E552E552B10EE66EBA0EE66EE9
:101B100021EC52F0E552E55255EC53F00601F66F18
:101B2000780EF65D03E07A0EF65DF6E1780EF65D6E
:101B300004E1BDEC38F030EF15F0A50EE66EBA0EFC
:101B4000E66E21EC52F0E552E55230EF15F08A0EC8
:101B5000E66EBA0EE66E21EC52F0E552E552300E1A
:101B60000A016025E66E41EC52F0E552CDEC35F00D
:101B70000601F76B400EF75D02E330EF15F07E0EC5
:101B8000E66EBA0EE66E21EC52F0E552E552060121
:101B9000F729E66EE66A6DEC52F0E552E5527A0EF0
:101BA000E66EBA0EE66E21EC52F0E552E552060101
:101BB000F751EA6A000FE96E080EEA22EFCF36F01D
:101BC000376A36BE376836C0E6FF37C0E6FFD6EC68
:101BD00052F0E552E5520601F72BCCD7020EE66E25
:101BE00071EC70F0E5527E0EE66EBA0EE66E21ECF8
:101BF00052F0E552E5527BEC53F0FF0F0601F76F10
:101C00007A0EE66EBA0EE66E21EC52F0E552E5521F
:101C100096EC53F0F3CFF9F6F4CFFAF60601D8803C
:101C2000F45004E7800EF95DFF0EFA5904E2800ECD
:101C3000366E37680FD0FA3509E2F9517F08000E89
:101C4000FA5504E27F0E366E376A04D0F9C636F0D4
:101C5000FAC637F036C0F8F62B0EF75D09E1F751FA
:101C6000EA6AB50FE96E060EEA22080EEF6E08D09A
:101C7000F751EA6AB50FE96E060EEA22F8C6EFFFE1
:101C80003F0EF75D5EE1080100515BE00601080EC2
:101C9000E06F030EC16FF76B400EF75D4DE20A0176
:101CA000600524E10601F751EA6AB50FE96E060EF8
:101CB000EA22EF50E66EF751E66EE66AFBEC6CF056
:101CC000E552E552E5520601F751F66EF76AD890F3
:101CD000F636F736C70EF626E20EF722010EF62686
:101CE000000EF7220800F55024E012D00601F7514B
:101CF000F66EF76AD890F636F736C70EF626E20E7D
:101D0000F722010EF626000EF7220800F55011E129
:101D1000F751EA6AB50FE96E060EEA22EF50E66E59
:101D2000400EF725E66EE66AFBEC6CF0E552E552F4
:101D3000E5520601F72BB0D70A013E850A01010ED4
:101D4000616F020EE66E7DEC70F02FEF15F07BEC0C
:101D500053F00601F76F0A0160510601F75D02E1D9
:101D600032EF15F0F7C660FA0A01010E616FCDEF90
:101D700035F028EF25F0750EE66EBA0EE66E21EC12
:101D800052F0E552E55212CF51F013CF52F0536AA0
:101D9000546A52AE02D053685468F40E566E010E67
:101DA000576E586A596AA4EC71F04DC051F04EC09C
:101DB00052F04FC053F050C054F0F00E566E576AB8
:101DC000586A596ADEEC6AF0D8805450FF0A08E677
:101DD000190E515CFC0E5258FF0E5358FF0E54580A
:101DE00007E2190E366EFC0E376E386839686FD010
:101DF00012CF51F013CF52F0536A546A52AE02D050
:101E000053685468F40E566E010E576E586A596A3C
:101E1000A4EC71F04DC051F04EC052F04FC053F0E1
:101E200050C054F0F00E566E576A586A596ADEEC8C
:101E30006AF05434000E541809E6D880E70E515465
:101E4000030E5254000E5354000E545407E2E70E92
:101E5000366E030E376E386A396A39D012CF36F0D3
:101E600013CF37F0386A396A37AE02D0386839682C
:101E7000F40E566E010E576E586A596A36C051F00C
:101E800037C052F038C053F039C054F0A4EC71F0B0
:101E90004DC036F04EC037F04FC038F050C039F06A
:101EA000F00E566E576A586A596A4DC051F04EC0CE
:101EB00052F04FC053F050C054F0DEEC6AF051C005
:101EC00036F052C037F053C038F054C039F036C045
:101ED000E6FF37C0E6FFD6EC52F0E552E552710E50
:101EE000E66EBA0EE66E21EC52F0E552E55214CFE2
:101EF00051F015CF52F0536A546A52AE02D0536873
:101F00005468F40E566E010E576E586A596AA4EC66
:101F100071F04DC051F04EC052F04FC053F050C060
:101F200054F0F00E566E576A586A596ADEEC6AF041
:101F3000D8805450FF0A08E6190E515CFC0E525826
:101F4000FF0E5358FF0E545807E2190E366EFC0E62
:101F5000376E386839686FD014CF51F015CF52F012
:101F6000536A546A52AE02D053685468F40E566EE7
:101F7000010E576E586A596AA4EC71F04DC051F0C9
:101F80004EC052F04FC053F050C054F0F00E566E99
:101F9000576A586A596ADEEC6AF05434000E5418D5
:101FA00009E6D880E70E5154030E5254000E5354E4
:101FB000000E545407E2E70E366E030E376E386A91
:101FC000396A39D014CF36F015CF37F0386A396A0C
:101FD00037AE02D038683968F40E566E010E576E6F
:101FE000586A596A36C051F037C052F038C053F0C1
:101FF00039C054F0A4EC71F04DC036F04EC037F04B
:102000004FC038F050C039F0F00E566E576A586A1B
:10201000596A4DC051F04EC052F04FC053F050C0FD
:1020200054F0DEEC6AF051C036F052C037F053C0C5
:1020300038F054C039F036C0E6FF37C0E6FFD6ECC2
:1020400052F0E552E5526D0EE66EBA0EE66E21ECE8
:1020500052F0E552E55216CF51F017CF52F0536AC5
:10206000546A52AE02D053685468F40E566E010E94
:10207000576E586A596AA4EC71F04DC051F04EC0C9
:1020800052F04FC053F050C054F0F00E566E576AE5
:10209000586A596ADEEC6AF0D8805450FF0A08E6A4
:1020A000190E515CFC0E5258FF0E5358FF0E545837
:1020B00007E2190E366EFC0E376E386839686FD03D
:1020C00016CF51F017CF52F0536A546A52AE02D075
:1020D00053685468F40E566E010E576E586A596A6A
:1020E000A4EC71F04DC051F04EC052F04FC053F00F
:1020F00050C054F0F00E566E576A586A596ADEECBA
:102100006AF05434000E541809E6D880E70E515492
:10211000030E5254000E5354000E545407E2E70EBF
:10212000366E030E376E386A396A39D016CF36F0FC
:1021300017CF37F0386A396A37AE02D03868396855
:10214000F40E566E010E576E586A596A36C051F039
:1021500037C052F038C053F039C054F0A4EC71F0DD
:102160004DC036F04EC037F04FC038F050C039F097
:10217000F00E566E576A586A596A4DC051F04EC0FB
:1021800052F04FC053F050C054F0DEEC6AF051C032
:1021900036F052C037F053C038F054C039F036C072
:1021A000E6FF37C0E6FFD6EC52F0E552E552690E85
:1021B000E66EBA0EE66E21EC52F0E552E55218CF0B
:1021C00051F019CF52F0536A546A52AE02D053689C
:1021D0005468F40E566E010E576E586A596AA4EC94
:1021E00071F04DC051F04EC052F04FC053F050C08E
:1021F00054F0F00E566E576A586A596ADEEC6AF06F
:10220000D8805450FF0A08E6190E515CFC0E525853
:10221000FF0E5358FF0E545807E2190E366EFC0E8F
:10222000376E386839686FD018CF51F019CF52F037
:10223000536A546A52AE02D053685468F40E566E14
:10224000010E576E586A596AA4EC71F04DC051F0F6
:102250004EC052F04FC053F050C054F0F00E566EC6
:10226000576A586A596ADEEC6AF05434000E541802
:1022700009E6D880E70E5154030E5254000E535411
:10228000000E545407E2E70E366E030E376E386ABE
:10229000396A39D018CF36F019CF37F0386A396A31
:1022A00037AE02D038683968F40E566E010E576E9C
:1022B000586A596A36C051F037C052F038C053F0EE
:1022C00039C054F0A4EC71F04DC036F04EC037F078
:1022D0004FC038F050C039F0F00E566E576A586A49
:1022E000596A4DC051F04EC052F04FC053F050C02B
:1022F00054F0DEEC6AF051C036F052C037F053C0F3
:1023000038F054C039F036C0E6FF37C0E6FFD6ECEF
:1023100052F0E552E552650EE66EBA0EE66E21EC1D
:1023200052F0E552E5521ACF51F01BCF52F0536AEA
:10233000546A52AE02D053685468F40E566E010EC1
:10234000576E586A596AA4EC71F04DC051F04EC0F6
:1023500052F04FC053F050C054F0F00E566E576A12
:10236000586A596ADEEC6AF0D8805450FF0A08E6D1
:10237000190E515CFC0E5258FF0E5358FF0E545864
:1023800007E2190E366EFC0E376E386839686FD06A
:102390001ACF51F01BCF52F0536A546A52AE02D09A
:1023A00053685468F40E566E010E576E586A596A97
:1023B000A4EC71F04DC051F04EC052F04FC053F03C
:1023C00050C054F0F00E566E576A586A596ADEECE7
:1023D0006AF05434000E541809E6D880E70E5154C0
:1023E000030E5254000E5354000E545407E2E70EED
:1023F000366E030E376E386A396A39D01ACF36F026
:102400001BCF37F0386A396A37AE02D0386839687E
:10241000F40E566E010E576E586A596A36C051F066
:1024200037C052F038C053F039C054F0A4EC71F00A
:102430004DC036F04EC037F04FC038F050C039F0C4
:10244000F00E566E576A586A596A4DC051F04EC028
:1024500052F04FC053F050C054F0DEEC6AF051C05F
:1024600036F052C037F053C038F054C039F036C09F
:10247000E6FF37C0E6FFD6EC52F0E552E552610EBA
:10248000E66EBA0EE66E21EC52F0E552E5521CCF34
:1024900051F01DCF52F0536A546A52AE02D05368C5
:1024A0005468F40E566E010E576E586A596AA4ECC1
:1024B00071F04DC051F04EC052F04FC053F050C0BB
:1024C00054F0F00E566E576A586A596ADEEC6AF09C
:1024D000D8805450FF0A08E6190E515CFC0E525881
:1024E000FF0E5358FF0E545807E2190E366EFC0EBD
:1024F000376E386839686FD01CCF51F01DCF52F05D
:10250000536A546A52AE02D053685468F40E566E41
:10251000010E576E586A596AA4EC71F04DC051F023
:102520004EC052F04FC053F050C054F0F00E566EF3
:10253000576A586A596ADEEC6AF05434000E54182F
:1025400009E6D880E70E5154030E5254000E53543E
:10255000000E545407E2E70E366E030E376E386AEB
:10256000396A39D01CCF36F01DCF37F0386A396A56
:1025700037AE02D038683968F40E566E010E576EC9
:10258000586A596A36C051F037C052F038C053F01B
:1025900039C054F0A4EC71F04DC036F04EC037F0A5
:1025A0004FC038F050C039F0F00E566E576A586A76
:1025B000596A4DC051F04EC052F04FC053F050C058
:1025C00054F0DEEC6AF051C036F052C037F053C020
:1025D00038F054C039F036C0E6FF37C0E6FFD6EC1D
:1025E00052F0E552E5525D0EE66EBA0EE66E21EC53
:1025F00052F0E552E5521ECF51F01FCF52F0536A10
:10260000546A52AE02D053685468F40E566E010EEE
:10261000576E586A596AA4EC71F04DC051F04EC023
:1026200052F04FC053F050C054F0F00E566E576A3F
:10263000586A596ADEEC6AF0D8805450FF0A08E6FE
:10264000190E515CFC0E5258FF0E5358FF0E545891
:1026500007E2190E366EFC0E376E386839686FD097
:102660001ECF51F01FCF52F0536A546A52AE02D0BF
:1026700053685468F40E566E010E576E586A596AC4
:10268000A4EC71F04DC051F04EC052F04FC053F069
:1026900050C054F0F00E566E576A586A596ADEEC14
:1026A0006AF05434000E541809E6D880E70E5154ED
:1026B000030E5254000E5354000E545407E2E70E1A
:1026C000366E030E376E386A396A39D01ECF36F04F
:1026D0001FCF37F0386A396A37AE02D038683968A8
:1026E000F40E566E010E576E586A596A36C051F094
:1026F00037C052F038C053F039C054F0A4EC71F038
:102700004DC036F04EC037F04FC038F050C039F0F1
:10271000F00E566E576A586A596A4DC051F04EC055
:1027200052F04FC053F050C054F0DEEC6AF051C08C
:1027300036F052C037F053C038F054C039F036C0CC
:10274000E6FF37C0E6FFD6EC52F0E552E552590EEF
:10275000E66EBA0EE66E21EC52F0E552E55220CF5D
:1027600051F021CF52F0536A546A52AE02D05368EE
:102770005468F40E566E010E576E586A596AA4ECEE
:1027800071F04DC051F04EC052F04FC053F050C0E8
:1027900054F0F00E566E576A586A596ADEEC6AF0C9
:1027A000D8805450FF0A08E6190E515CFC0E5258AE
:1027B000FF0E5358FF0E545807E2190E366EFC0EEA
:1027C000376E386839686FD020CF51F021CF52F082
:1027D000536A546A52AE02D053685468F40E566E6F
:1027E000010E576E586A596AA4EC71F04DC051F051
:1027F0004EC052F04FC053F050C054F0F00E566E21
:10280000576A586A596ADEEC6AF05434000E54185C
:1028100009E6D880E70E5154030E5254000E53546B
:10282000000E545407E2E70E366E030E376E386A18
:10283000396A39D020CF36F021CF37F0386A396A7B
:1028400037AE02D038683968F40E566E010E576EF6
:10285000586A596A36C051F037C052F038C053F048
:1028600039C054F0A4EC71F04DC036F04EC037F0D2
:102870004FC038F050C039F0F00E566E576A586AA3
:10288000596A4DC051F04EC052F04FC053F050C085
:1028900054F0DEEC6AF051C036F052C037F053C04D
:1028A00038F054C039F036C0E6FF37C0E6FFD6EC4A
:1028B00052F0E552E552550EE66EBA0EE66E21EC88
:1028C00052F0E552E55222CF51F023CF52F0536A35
:1028D000546A52AE02D053685468F40E566E010E1C
:1028E000576E586A596AA4EC71F04DC051F04EC051
:1028F00052F04FC053F050C054F0F00E566E576A6D
:10290000586A596ADEEC6AF0D8805450FF0A08E62B
:10291000190E515CFC0E5258FF0E5358FF0E5458BE
:1029200007E2190E366EFC0E376E386839686FD0C4
:1029300022CF51F023CF52F0536A546A52AE02D0E4
:1029400053685468F40E566E010E576E586A596AF1
:10295000A4EC71F04DC051F04EC052F04FC053F096
:1029600050C054F0F00E566E576A586A596ADEEC41
:102970006AF05434000E541809E6D880E70E51541A
:10298000030E5254000E5354000E545407E2E70E47
:10299000366E030E376E386A396A39D022CF36F078
:1029A00023CF37F0386A396A37AE02D038683968D1
:1029B000F40E566E010E576E586A596A36C051F0C1
:1029C00037C052F038C053F039C054F0A4EC71F065
:1029D0004DC036F04EC037F04FC038F050C039F01F
:1029E000F00E566E576A586A596A4DC051F04EC083
:1029F00052F04FC053F050C054F0DEEC6AF051C0BA
:102A000036F052C037F053C038F054C039F036C0F9
:102A1000E6FF37C0E6FFD6EC52F0E552E552510E24
:102A2000E66EBA0EE66E21EC52F0E552E552000E6B
:102A3000E66EE66AD6EC52F011D02BEF0BF043ECC9
:102A40003CF00ED09AEC28F00BD0FCEC6EF008D0E5
:102A5000FE0EE66EDF0EE66E21EC52F0E552E55218
:062A600009EF0BF012006B
:0A2A6600D9CFE6FFE1CFD9FFFB0E48
:102A7000DBCF51F0FC0EDBCF52F0FD0EDBCF53F07D
:102A8000FE0EDBCF54F03F0E566E070E576E586A9F
:102A9000596AA4EC71F04DC051F04EC052F04FC0D5
:102AA00053F050C054F0100E566E270E576E586AF1
:102AB000596ADEEC6AF0E552E7CFD9FF1200D9CFB0
:102AC000E6FFE1CFD9FFFB0EDBCF51F0FC0EDBCFF1
:102AD00052F0FD0EDBCF53F0FE0EDBCF54F03F0E75
:102AE000566E070E576E586A596AA4EC71F04DC0C5
:102AF00051F04EC052F04FC053F050C054F0A00EF1
:102B0000566E860E576E010E586E596ADEEC6AF0EC
:102B1000E552E7CFD9FF1200D9CFE6FFE1CFD9FFC9
:102B2000FB0EDBCF51F0FC0EDBCF52F0FD0EDBCF06
:102B300053F0FE0EDBCF54F0A00E566E860E576E8D
:102B4000010E586E596AA4EC71F04DC051F04EC0A0
:102B500052F04FC053F050C054F03F0E566E070E67
:102B6000576E586A596ADEEC6AF0E552E7CFD9FF32
:102B70001200D9CFE6FFE1CFD9FF0901546B556BA5
:102B8000566B0A01B35136E1FE0EDBCF53F9FD0E51
:102B9000DB500901D88053552DE354C936F055C98F
:102BA00037F056C938F00A0E576E586A596A54C938
:102BB00052F055C953F056C954F05DEC6BF0090161
:102BC0005351EA6A000FE96E070EEA22EFCF39F09F
:102BD0003A6A3B6A4F503924546F50503A20556F2F
:102BE00051503B20566F300E545F000E555B565BC4
:102BF000532BCDD754C952F055C953F056C954F090
:102C0000E552E7CFD9FF1200D9CFE6FFE1CFD9FFD8
:102C10000901636B646B656B666B0A01B35101E07C
:102C2000CBD0FE0EDB50040F0901676F6751EA6AD3
:102C3000000FE96E070EEA22EF502E0802E0672B24
:102C4000F5D7030E675DE66EFE0EDBCFE6FF91DF84
:102C5000E552E55252C057F953C058F954C059F9DA
:102C600009015A6B59BF5A696705E66E020E675D26
:102C7000E66E7FDFE552E55252C05BF953C05CF966
:102C800054C05DF909015E6B5DBF5E69FD0EDB50EE
:102C9000D8806755040814E2050E6725E66E67299B
:102CA000E66E67DFE552E55252C05FF953C060F946
:102CB00054C061F90901626B61AF2BD0626929D000
:102CC000040E6725E66E6729E66E53DFE552E5528E
:102CD00052C05FF953C060F954C061F90901626BD9
:102CE00061BF62690A0E566E576A586A596A5FC9AF
:102CF00051F060C952F061C953F062C954F0A4ECBC
:102D000071F04DC05FF94EC060F94FC061F950C01D
:102D100062F957C936F058C937F059C938F05AC95D
:102D200039F0800E566E8D0E576E5B0E586E596AD6
:102D300057C951F058C952F059C953F05AC954F003
:102D4000A4EC71F04DC036F04EC037F04FC038F0F3
:102D500050C039F05BC93AF05CC93BF05DC93CF04A
:102D60005EC93DF0A00E566E860E576E010E586E6F
:102D7000596A5BC951F05CC952F05DC953F05EC934
:102D800054F0A4EC71F04D5036264E5037224F507F
:102D90003822505039225F0EE96E090EEA6E365025
:102DA000EE240901636F3750EE20646F3850EE2037
:102DB000656F3950EE20666F63C951F064C952F0F7
:102DC00065C953F066C954F0E552E7CFD9FF120048
:102DD000D9CFE6FFE1CFD9FF0901686B696B6A6B58
:102DE0006B6B0A01B35101E09AD0FE0EDB28E66E50
:102DF000FE0EDBCFE6FFBDDEE552E55252C036F0F7
:102E000053C037F054C038F0396A38BE3968100EF4
:102E1000566E0E0E576E586A596A36C051F037C05A
:102E200052F038C053F039C054F0A4EC71F04DC0EA
:102E300036F04EC037F04FC038F050C039F04DC0BA
:102E4000E6FF4EC0E6FF4FC0E6FF50C0E6FFFE0EB5
:102E5000DB50030FE66EFE0EDB50020FE66E89DEDE
:102E6000E552E552E552E7CF39F0E552E7CF38F0C9
:102E7000E552E7CF37F0E552E7CF36F052C03AF0EF
:102E800053C03BF054C03CF03C0E576E586A596A30
:102E90005DEC6BF04FC03AF050C03BF051C03CF0DD
:102EA0003D6A3CBE3D683A5036263B5037223C5086
:102EB00038223D50392236C0E6FF37C0E6FF38C021
:102EC000E6FF39C0E6FFFD0EDBCFE6FFFE0EDB506E
:102ED000040FE66E4EDEE552E552E552E7CF39F0DB
:102EE000E552E7CF38F0E552E7CF37F0E552E7CFCC
:102EF00036F052C03EF053C03FF054C040F0416A3B
:102F000040BE416836503E240901686F37503F206B
:102F1000696F385040206A6F395041206B6F68C923
:102F200051F069C952F06AC953F06BC954F0E552C7
:102F3000E7CFD9FF1200B0CAB1FA0A01B051EA6A6C
:102F4000000FE96E070EEA22EFCF6CF92C0E090193
:102F50006C5D09E02A0E6C5D06E00A01AF51B05DC0
:102F600002E2B02BEBD70A01B005B26FB02BB15122
:102F7000B25D02E3000E01D0010EB36F12000A0130
:102F8000B06B50C7AFFAD7DFD6DFB2CAE6FFB1CA1F
:102F9000E6FF1EDFE552E55251C0D8F452C0D9F425
:102FA00053C0DAF454C0DBF4C6DFB2CAE6FFB1CADC
:102FB000E6FF2ADEE552E55251C0E6F452C0E7F4DE
:102FC00053C0E8F454C0E9F4B6DF0A01B151EA6A2B
:102FD000000FE96E070EEA22EF50530809E1000ED8
:102FE0000401E66DE71FE723E81FE823E91FE92353
:102FF000A2DFB2CAE6FFB1CAE6FF06DEE552E5523D
:1030000051C0EAF452C0EBF453C0ECF454C0EDF4F8
:1030100092DF0A01B151EA6A000FE96E070EEA2257
:10302000EF50570809E1000E0401EA6DEB1FEB2396
:10303000EC1FEC23ED1FED237EDFB2CAE6FFB1CA21
:10304000E6FF97DDE552E55252C0FDF474DFB2CAE7
:10305000E6FFB1CAE6FF8DDDE552E55252C0FCF451
:103060006ADF030E0A01B25DE66EB1CAE6FF81DDDA
:10307000E552E55252C039F053C03AF054C03BF02B
:103080000A0E576E586A596A5DEC6BF04FC039F002
:1030900050C03AF051C03BF04FC0E6FF50C0E6FFD1
:1030A00051C0E6FF0A01B205E66EB205E66E61DDCB
:1030B000E552E552E552E7CF3BF0E552E7CF3AF073
:1030C000E552E7CF39F039505224366E3A5053204A
:1030D000376E3B505420386E36C0FEF437C0FFF4D4
:1030E0002ADF020E0A01B25DE66EB1CAE6FF41DDDB
:1030F000E552E55252C036F053C037F054C038F0B4
:10310000396A38BE39680A0E566E576A586A596A63
:1031100036C051F037C052F038C053F039C054F0C7
:10312000A4EC71F04DC036F04EC037F04FC038F00F
:1031300050C039F04DC0E6FF4EC0E6FF4FC0E6FF7D
:1031400050C0E6FFB2CAE6FFB2CAE6FF12DDE552A2
:10315000E552E552E7CF39F0E552E7CF38F0E552D6
:10316000E7CF37F0E552E7CF36F052C03AF053C020
:103170003BF054C03CF00A0E576E586A596A5DEC39
:103180006BF04FC03AF050C03BF051C03CF03D6A8C
:103190003CBE3D683A5036263B5037223C503822E0
:1031A0003D50392236C0E0F437C0E1F438C0E2F4D3
:1031B000010E0401FD5D03E3060EFC5D02E2000E5C
:1031C00001D0010E0A013A9DE8B03A8D040E6C5C04
:1031D00063E10501DD510401FF19E8AE02D0FF35BE
:1031E00007D0FE510501DC5D0401FF510501DD59E9
:1031F00005E2FEC4DCF5FFC4DDF514D00401FF5187
:103200000501DB19E8AE02D0DB3507D0DA51040145
:10321000FE5D0501DB510401FF5904E2FEC4DAF54D
:10322000FFC4DBF50401FC51366E376A0501D75146
:103230003718E8AE02D0373404D03650D65D375058
:10324000D75906E20401FC510501D66FD76B15D0A2
:103250000401FC51366E376A05013750C719E8AED4
:1032600002D0C73504D0C651365CC751375805E285
:103270000401FC510501C66FC76B0401FF3504E270
:10328000FE510F08000EFF5502E3000E01D0010EA3
:103290000A013B97E8B03B8712000A01B06B50C7A8
:1032A000AFFA49DE48DE47DE0A01B151EA6A000F93
:1032B000E96E070EEA22EF50410801E03FD10A0112
:1032C0003A8D39DEB2CAE6FFB1CAE6FF9DDCE552AF
:1032D000E55251C0E6F452C0E7F453C0E8F454C0DC
:1032E000E9F429DE0A01B151EA6A000FE96E070E1E
:1032F000EA22EF50530809E1000E0401E66DE71FD2
:10330000E723E81FE823E91FE92315DEB2CAE6FF39
:10331000B1CAE6FF79DCE552E55251C0EAF452C089
:10332000EBF453C0ECF454C0EDF405DE0A01B151E6
:10333000EA6A000FE96E070EEA22EF50570809E12A
:10334000000E0401EA6DEB1FEB23EC1FEC23ED1FD5
:10335000ED23F1DD080EE66EB2CAE6FF0A01B20502
:10336000E66EB9EC15F0E552E55252C03AF053C0A2
:103370003BF054C03CF03D6A3CBE3D683AC0E6FFBD
:103380003BC0E6FF3CC0E6FF3DC0E6FF030E0A017E
:10339000B25DE66EB1CAE6FFB9EC15F0E552E55252
:1033A000E552E7CF3DF0E552E7CF3CF0E552E7CFFD
:1033B0003BF0E552E7CF3AF052C051F053C052F023
:1033C00054C053F0546A53BE5468640E566E576A24
:1033D000586A596AA4EC71F04D5000013A24366ED7
:1033E0004E503B20376E4F503C20386E50503D20A1
:1033F000396E0D0E566E576A586A596A36C051F0CA
:1034000037C052F038C053F039C054F0A4EC71F01A
:103410004DC036F04EC037F04FC038F050C039F0D4
:103420004DC0E6FF4EC0E6FF4FC0E6FF50C0E6FFCE
:1034300085EC45F03E6E050EE15E3E5051C0FAF45B
:1034400052C0FBF478DD080EE66EB2CAE6FF0A0150
:10345000B205E66EB9EC15F0E552E55252C03AF00D
:1034600053C03BF054C03CF03D6A3CBE3D683AC09E
:10347000E6FF3BC0E6FF3CC0E6FF3DC0E6FF030EB3
:103480000A01B25DE66EB1CAE6FFB9EC15F0E5528D
:10349000E552E552E7CF3DF0E552E7CF3CF0E5528B
:1034A000E7CF3BF0E552E7CF3AF052C051F053C0BE
:1034B00052F054C053F0546A53BE5468640E566EB2
:1034C000576A586A596AA4EC71F04D5000013A24C9
:1034D000366E4E503B20376E4F503C20386E505069
:1034E0003D20396E2D0E566E576A586A596A36C09D
:1034F00051F037C052F038C053F039C054F0A4EC4A
:1035000071F04DC036F04EC037F04FC038F050C0AB
:1035100039F04DC0E6FF4EC0E6FF4FC0E6FF50C099
:10352000E6FF85EC45F03E6E050EE15E3E5051C073
:10353000F8F452C0F9F40A01408912000A014099D6
:103540001200D9CFE6FFE1CFD9FF245001E198D096
:10355000020A55E0040A33E0010A01E09CD0020EA1
:103560002B5C15E22C38F00B2C6E410EF36EFE0E28
:10357000DBCFF4FFF350F45C04E3FE0EDB50C90F25
:1035800003D0FE0EDB50D00F2C262B2A84D025C072
:1035900050F729502C5C02E0000E01D0010E0A0108
:1035A0004293E8B0428342A369D00A01AD51010AB7
:1035B00004E0010A63E1E3DC61D06FDE5FD0FE0E60
:1035C000DB502A0804E12C6A2B6A070E63D0FE0E3A
:1035D000DB50240803E1000E296E59D0FE0EDB50AB
:1035E000291A2550252AEA6A000FE96E070EEA22F9
:1035F000FE0EDBCFEFFF25504F084DE23FD0FE0E11
:10360000DB50291A2650050DF3CF36F0F4CF37F0F2
:103610000E0E3626000E372227503624F66E000E88
:103620003720F76E0800F550F36EFE0EDB50F35CAA
:1036300005E0020E265C02E2262AE4D72650050D9C
:10364000F3CF36F0F4CF37F00E0E3626000E3722C9
:1036500027503624F66E000E3720F76E0800F5501E
:10366000F36EFE0EDB50F35C09E1040E275C04E10F
:1036700026C0ADFA060E0ED0272A0DD0246A0BD034
:10368000FE0EDB50240807E1000E296E266E276E21
:10369000256E020E246EE552E7CFD9FF1200B4CAA0
:1036A00036F0B5CA37F0386A396A37AE02D03868B2
:1036B00039681E0E361801E0FED0375001E0FBD00D
:1036C000385001E0F8D0395001E0F5D00A013A5104
:1036D000400B01E1F0D070EC67F052C082F653C0AD
:1036E00083F654C084F6D8C4DCF4D9C4DDF4DAC45B
:1036F000DEF4DBC4DFF4E6C4EEF4E7C4EFF4E8C4C0
:10370000F0F4E9C4F1F4EAC4F2F4EBC4F3F4ECC469
:10371000F4F4EDC4F5F4E6C471F9E7C472F9E8C451
:1037200073F9E9C474F9C00E566E270E576E090E70
:10373000586E596AE6C451F0E7C452F0E8C453F039
:10374000E9C454F0DEEC6AF051C071F952C072F96C
:1037500053C073F954C074F90901800E541409E080
:10376000000E716D721F7223731F7323741F7423F5
:1037700002D074C974F971C936F072C937F073C9CF
:1037800038F074C939F0F60E566E0D0E576E586A41
:10379000596A71C951F072C952F073C953F074C9B2
:1037A00054F0A4EC71F04DC036F04EC037F04FC06D
:1037B00038F050C039F00B0ED890393238323732E9
:1037C0003632E806F9E136C071F937C072F938C00F
:1037D00073F939C074F936C0E6FF37C0E6FF75ECFF
:1037E00047F0E552E552F3CFF6F4F4CFF7F4E0C436
:1037F000E3F4E1C4E4F4E2C4E5F40401FA6BFB6B26
:10380000E0C436F0E1C437F0E2C438F0640E576E1D
:10381000586A596AE0C452F0E1C453F0E2C454F06B
:10382000B1EC6AF052C036F053C037F054C038F0F3
:1038300052C0E6FF53C0E6FF0C0EE66E010EE66EC8
:1038400037EC6DF0E552E552E552E552E6C4E6FF8D
:10385000E7C4E6FFE8C4E6FFE9C4E6FF0E0EE66E45
:10386000010EE66E67EC6DF0366E060EE15E3650C8
:10387000EAC4E6FFEBC4E6FFECC4E6FFEDC4E6FFF6
:10388000120EE66E010EE66E67EC6DF0366E060EF9
:10389000E15E36500A013ABF0DD0E66A080EE66EC8
:1038A000F6EC29F0E552E552010E0501D86FD96B0F
:1038B0000A013A8F3D8912000A013AAD1DD170EC20
:1038C00067F052C075F953C076F954C077F9820E8B
:1038D000E96E060EEA6EEE50525C366EEE505358AC
:1038E000376EEE50545836C078F937C079F952C067
:1038F00082F653C083F654C084F6B4CA36F0B5CA13
:1039000037F0386A396A37AE02D038683968D890EB
:103910003950000A08E61E0E365C000E3758000EBD
:103920003858000E395822E20A013A9DFEC436F09A
:10393000FFC437F0386A396A37AE02D03868396860
:103940003934000E391809E6D8800F0E3654000EAF
:103950003754000E3854000E395405E30A01B42BD5
:10396000000EB52303D00A01B46BB56B0A013AAF60
:1039700092D0EE0EE96E040EEA6EEE500401E65DA2
:10398000366EEE50E759376EEE50E859386EEE500D
:10399000E959396E36C0E6FF37C0E6FF38C0E6FFAA
:1039A000E66E33EC15F0E552E552E552E55251C0B2
:1039B00057F752C058F753C059F7080EE66EF6C4D1
:1039C0003EF0F7C43FF0406A416A3FAE02D0406823
:1039D00041683EC0E6FF3FC0E6FF40C0E6FF41C091
:1039E000E6FFF20EE96E040EEA6EEE500401EA5DA7
:1039F0003A6EEE50EB593B6EEE50EC593C6EEE5089
:103A0000ED593D6E3AC0E6FF3BC0E6FF3CC0E6FF25
:103A1000E66E33EC15F0E552E552E552E552E5521B
:103A2000E7CF41F0E552E7CF40F0E552E7CF3FF076
:103A3000E552E7CF3EF03EC056F03FC057F040C0E1
:103A400058F041C059F0A4EC71F04DC036F04EC0B2
:103A500037F04FC038F050C039F04DC0E6FF4EC0CF
:103A6000E6FF4FC0E6FF50C0E6FF85EC45F0050ECF
:103A7000E15E51C068F752C069F753C06AF757C793
:103A80005DF758C75EF759C75FF751C06EF752C070
:103A90006FF753C070F7040E6C5C37E1C0C536F0A9
:103AA000C1C537F0386A37BE386838500401E219AA
:103AB000E8AE02D0E23506D0E051365CE15137582D
:103AC000E251385804E2E0C4C0F5E1C4C1F5050193
:103AD000CD510401FB19E8AE02D0FB3507D0FA51F5
:103AE0000501CC5D0401FB510501CD590EE2FAC47C
:103AF000CCF5FBC4CDF51200B4CAFCF4040E6C5C2A
:103B000004E10501D42B000ED52312000A01425115
:103B1000020B1BE12F502D1802E130502E1815E03A
:103B2000000E2F24E96E020E3020EA6EEFCF7AF9F4
:103B3000010E2F26000E3022FF0E2F16000E30161B
:103B40007AC9E6FFFEDCE552E1D742A330D0020E8F
:103B5000E66E71EC70F0E552040EE66E7DEC70F0EE
:103B6000E5520A014293A8DE0A013AAD1ED0040EC6
:103B7000E66E7DEC70F0E5520A013F9770EC67F05D
:103B800052C036F053C037F054C038F0396AD00E06
:103B90003626070E3722000E3822392236C08BF621
:103BA00037C08CF638C08DF613D03D9D0CD070EC2C
:103BB00067F0525006018B5D53508C5954508D590B
:103BC00007E20A013A9D040EE66E71EC70F0E552D0
:103BD000020EE66E7DEC70F0E55212000A01B06B49
:103BE0000401F66B010EF76FFE6BFF6BFC6BFCC400
:103BF000FDF4FCC4D8F4D96BDA6BDB6B000EFA6F02
:103C0000FB6BF86FF96BE06FE16BE26BE1BFE269B0
:103C1000E66BE76BE86BE96BE6C4EEF4E7C4EFF440
:103C2000E8C4F0F4E9C4F1F4EA6BEB6BEC6BED6B18
:103C3000EAC4F2F4EBC4F3F4ECC4F4F4EDC4F5F428
:103C4000E66AE66AE66AE66A0E0EE66E010EE66E61
:103C500067EC6DF0366E060EE15E3650E66AE66A97
:103C6000E66AE66A120EE66E010EE66E67EC6DF02D
:103C7000366E060EE15E3650000EE66EE66A0C0EFB
:103C8000E66E010EE66E37EC6DF0E552E552E55258
:103C9000E5520A01B46BB56B0A0142933A9D3A9F13
:043CA000246A120080
:0C3CA4000A013D813A810F013C6B3D6B31
:103CB00091C036F092C037F093C038F0396A38BE00
:103CC0003968D8903950000A08E62C0E365C010E8F
:103CD0003758000E3858000E395802E3000E01D054
:103CE000010E0901836FE8501200F4EC51F02E0E22
:103CF000E66E7DEC70F0E5526D6A030E6C6E12009C
:103D0000050EE66EE66A3AC4E6FF3BC4E6FF42EC07
:103D10002CF0E552E552E552E552F3CF3AF4F4CFF8
:103D20003BF4050EE66EE66A82C4E6FF83C4E6FF56
:103D300042EC2CF0E552E552E552E552F3CF82F425
:103D4000F4CF83F40401CA6BCB6B1200000E0401A4
:103D5000A26FA36B5A6F5B6B126F136B62C7E6FFA8
:103D600063C7E6FF64C7E6FF51C7E6FF52C7E6FF39
:103D700053C7E6FFDAD8366E060EE15E3650120003
:103D8000F4EC51F00A013A87030E6C6E6E6E34EC5F
:103D90002AF009EC2BF018EC42F086EC1DF0F7EC61
:103DA00049F0F5D70A013F9757C754F758C755F759
:103DB00059C756F768C765F769C766F76AC767F7EF
:103DC0003D993C953C933F9D6D6A1200D9CFE6FF2B
:103DD000E1CFD9FF0701926B936B946BFD0EDBCFA4
:103DE00036F0FE0EDBCF37F036C0F3FF37C0F4FFFE
:103DF000E552E7CFD9FF12000A01635109017F5D47
:103E0000366E80510A016455376E36C0E6FFE66EA5
:103E100049EC46F0E552E552F3CF84F9F4CF85F949
:103E20000901D880F45004E7E40E845DFF0E855943
:103E300004E2E40E846F85690DD0853509E2845172
:103E40001C08000E855504E21C0E846F856B02D0A1
:103E500085C985F9090EE66E81C946F082C947F029
:103E6000486A496A47AE02D0486849689DC742F02F
:103E7000436A446A456A42AE03D043684468456871
:103E800084C93EF085C93FF0406A416A3FAE02D026
:103E9000406841683EC051F03FC052F040C053F00E
:103EA00041C054F042C056F043C057F044C058F0EF
:103EB00045C059F0A4EC71F04DC03AF04EC03BF053
:103EC0004FC03CF050C03DF04DC051F04EC052F0DC
:103ED0004FC053F050C054F046C056F047C057F0A2
:103EE00048C058F049C059F0A4EC71F04DC036F00C
:103EF0004EC037F04FC038F050C039F04DC0E6FF2B
:103F00004EC0E6FF4FC0E6FF50C0E6FF85EC45F02F
:103F10004A6E050EE15E4A5051C084F952C085F9DF
:103F200051C0F3FF52C0F4FF1200D9CFE6FFE1CF3A
:103F3000D9FF70EC67F052C086F953C087F954C0BE
:103F400088F90901896B85C63AF086C63BF087C6B9
:103F50003CF03D6A3A50525C366E3B505358376ED7
:103F60003C505458386E3D508959396E36C07CFFEC
:103F700037C07DFF38C07EFF52C085F653C086F63D
:103F800054C087F684C736F085C737F0386A396A77
:103F900037AE02D038683968480E365E000E375AA0
:103FA000385A395A36C081F937C082F9800E371431
:103FB00003E0816B826B0DD0823509E281510008EC
:103FC000010E825504E2816B010E826F02D082C91C
:103FD00082F9FC0EDBCF51F7FD0EDBCF52F7FE0E60
:103FE000DBCF53F7F90EDBCF62F7FA0EDBCF63F7C7
:103FF000FB0EDBCF64F707015751515D5A6F5851E3
:1040000052595B6F595153595C6F6851625D6B6FC8
:10401000695163596C6F6A5164596D6F800E5C15FC
:1040200018E05AC792F95BC793F95CC794F95768CF
:10403000586859685AC752F05BC753F05CC754F0D0
:104040005DEC6BF04FC092F950C093F951C094F9F8
:1040500006D05AC792F95BC793F95CC794F9070178
:10406000800E6D1518E06BC795F96CC796F96DC792
:1040700097F95768586859686BC752F06CC753F086
:104080006DC754F05DEC6BF04FC095F950C096F9D8
:1040900051C097F906D06BC795F96CC796F96DC7F3
:1040A00097F9920EE96E090EEA6E020EEB500901C5
:1040B0009719E8AE02D0973506D09551EE5C96512F
:1040C000EE589751EE5807E295C972FF96C973FFF3
:1040D00097C974FF06D092C972FF93C973FF94C940
:1040E00074FF72CF36F073CF37F074CF38F0396A7F
:1040F00038BE3968D8903950000A08E6500E365C50
:104100000B0E3758000E3858000E395842E295C948
:1041100052F096C953F097C954F095C957F096C913
:1041200058F097C959F05DEC6BF04FC03AF050C0B1
:104130003BF051C03CF092C952F093C953F094C97E
:1041400054F092C957F093C958F094C959F05DECF6
:104150006BF03A504F24366E3B505020376E3C5037
:104160005120386E396A38BE396836C0E6FF37C02C
:10417000E6FF38C0E6FF39C0E6FF8AEC49F0E552B9
:10418000E552E552E55251C072FF52C073FF53C071
:1041900074FF5AC738F05BC739F05CC73AF03B6A26
:1041A0003ABE3B6838C0E6FF39C0E6FF3AC0E6FFDA
:1041B0003BC0E6FF6BC73CF06CC73DF06DC73EF0FF
:1041C0003F6A3EBE3F683CC0E6FF3DC0E6FF3EC0E2
:1041D000E6FF3FC0E6FF8EEC47F0406E080EE15E62
:1041E0004050F3CF36F0F4CF37F0F3CFE6FFF4CF03
:1041F000E6FFECDDE552E552F3CF77FFF4CF78FF31
:1042000088C736F089C737F0386A37BE3868070183
:104210009A513818E8AE02D0383406D03650985D3E
:104220003750995938509A5902E3000E01D0010EC7
:104230000A013C95E8B03C853C51040B53E0910EDB
:10424000E96E000EEA6EEE5000018E5D396EEE50A2
:104250008F593A6EEE5090593B6E0001800E3B1420
:104260001FE0910EE96E000EEA6EEE5000018E5DC9
:10427000366EEE508F59376EEE509059386E576843
:104280005868596836C052F037C053F0546E5DEC30
:104290006BF04FC036F050C037F051C038F00ED040
:1042A000910EE96E000EEA6EEE5000018E5D366EE4
:1042B000EE508F59376EEE509059386E86C73CF0ED
:1042C00087C73DF03E6A3DBE3E6838503E18E8AEB6
:1042D00002D03E3406D03C50365C3D5037583E50FC
:1042E000385802E3000E01D0010E0A013C93E8B0F9
:1042F0003C830901823501E3E9D081510008000EB9
:10430000825501E3E3D00801DF510F01775D366E7E
:1043100078510801E055376E36C0E6FFE66E49EC8D
:1043200046F0E552E552F3CF7FF9F4CF80F9080E5D
:10433000E66E90C938F091C939F0386C391E000E1C
:10434000392200017DC9E8FF3802F3CF36F0F4CFFF
:1043500037F03902F35037267EC9E8FF3802F350B0
:10436000372636C0E6FF37C0E6FF35EC45F0E552AC
:10437000E552E552F3CF90F9F4CF91F90401800EA4
:104380003B1502E0FF0E01D0010E366E0901800ED2
:10439000911502E0FF0E01D0010E365C04E090C9D9
:1043A0003AF491C93BF48CC7E6FF8DC7E6FF90C98C
:1043B00036F091C937F0386A396A37AE02D03868BA
:1043C000396836C0E6FF37C0E6FF38C0E6FF39C0BF
:1043D000E6FF3AC43AF03BC43BF03C6A3D6A3BAE70
:1043E00002D03C683D683AC0E6FF3BC0E6FF3CC0F7
:1043F000E6FF3DC0E6FF44EC2DF03E6E0A0EE15EA6
:104400003E5051C03AF452C03BF47DC936F07EC9EB
:1044100037F0366C371E000E372236C058F037C0E2
:1044200059F090C953F091C954F03FEC6BF051C072
:1044300090F952C091F90401800ECB1502E0FF0EF5
:1044400001D0010E366E0901800E911502E0FF0EBB
:1044500001D0010E365C04E090C9CAF491C9CBF4D6
:104460008EC7E6FF8FC7E6FF90C936F091C937F0D7
:10447000386A396A37AE02D03868396836C0E6FF24
:1044800037C0E6FF38C0E6FF39C0E6FFCAC43AF0DD
:10449000CBC43BF03C6A3D6A3BAE02D03C683D6811
:1044A0003AC0E6FF3BC0E6FF3CC0E6FF3DC0E6FF8A
:1044B00044EC2DF03E6E0A0EE15E3E5051C0CAF44F
:1044C00052C0CBF40401826B836B01D019DC0A016A
:1044D0003F87E552E7CFD9FF12000A013A51400B5E
:1044E00013E03A51800B10E03E51400B0DE03E517D
:1044F000200B0AE070EC67F052500601A05D5350AB
:10450000A1595450A25902E3000E01D0010E0A0134
:104510003D9DE8B03D8D3DAD79D13D9F3A973F51EE
:10452000080B01E085D16F5001E182D168C752F0DC
:1045300069C753F06AC754F068C757F069C758F0A5
:104540006AC759F05DEC6BF04FC03AF050C03BF0D9
:1045500051C03CF057C752F058C753F059C754F0F8
:1045600057C757F058C758F059C759F05DEC6BF072
:104570003A504F24366E3B505020376E3C505120FD
:10458000386E396A38BE396836C0E6FF37C0E6FF94
:1045900038C0E6FF39C0E6FF8AEC49F0E552E55243
:1045A000E552E55251C098F752C099F753C09AF7B7
:1045B00057C736F058C737F059C738F0396A38BE90
:1045C000396836C0E6FF37C0E6FF38C0E6FF39C0BD
:1045D000E6FF68C73AF069C73BF06AC73CF03D6A3E
:1045E0003CBE3D683AC0E6FF3BC0E6FF3CC0E6FF8C
:1045F0003DC0E6FF8EEC47F03E6E080EE15E3E5099
:10460000F3CF96F7F4CF97F76D5001E1E2D0050AAA
:1046100001E1AFD0030A01E178D0070A48E0030ABC
:104620002FE0010A14E0070A01E002D1E66AE66A17
:10463000E66AE66AE66AE66A78DC366E060EE15EEF
:10464000365052EC1EF0000901E1F2D0ECD0E66ADF
:10465000E66AE66AE66AE66AE66A67DC366E060ECF
:10466000E15E36500A013C51010B04E13B51800BE5
:1046700001E1C9D052EC1EF0000901E1D9D0D3D03C
:10468000E66AE66AE66AE66AE66AE66A4EDC366E7C
:10469000060EE15E36500A013C51010B04E13B512C
:1046A000800B01E1B0D03CB3C3D03F9DA9D0E66AF6
:1046B000E66AE66AE66AE66AE66A37DC366E060E9F
:1046C000E15E36500A013C51010B04E13B51800B85
:1046D00001E199D03CA3ACD070EC67F052500F01CF
:1046E00079250601796F53500F017A2106017A6FFF
:1046F00054500F017B2106017B6FA0C08EF0A1C03A
:104700008FF0A2C090F0020E7CD06BCFE6FF6CCF92
:10471000E6FF6DCFE6FF67CFE6FF68CFE6FF69CF24
:10472000E6FF95EC1FF0366E060EE15E36500A018C
:104730003BAF69D03C51020B01E17AD070EC67F0DD
:1047400052500601795D53507A5954507B5970E2AA
:104750000F016351625D0BE1010E626FA0C08EF02C
:10476000A1C08FF0A2C090F00A013F9D4AD0622BF9
:1047700033D06BCFE6FF6CCFE6FF6DCFE6FF67CFA0
:10478000E6FF68CFE6FF69CFE6FF95EC1FF0366ED7
:10479000060EE15E36500A013BAF35D03CA348D04F
:1047A00070EC67F052500F016F250601796F53507E
:1047B0000F01702106017A6F54500F01712106011B
:1047C0007B6F64CF8EF065CF8FF066CF90F0060ED2
:1047D00018D00A013BAF0CD062CFE6FF44DAE552B5
:1047E00064CF8EF065CF8FF066CF90F0050E09D0C4
:1047F0003CA109D0A0C08EF0A1C08FF0A2C090F063
:10480000010E6D6E15D0D2EC1EF012D03D51800B12
:1048100006E13C51010B03E13B51800B09E052ECF6
:104820001EF0000903E0C0EC1EF002D080EC1EF088
:104830000A013E99120070EC67F052500601765D55
:10484000535077595450785925E20A013EA128D097
:10485000080EE66E71EC70F0E5520601796B7A6B2A
:104860007B6B70EC67F052C036F053C037F054C029
:1048700038F0396AE80E3626030E3722000E382249
:10488000392236C073F637C074F638C075F66D6AD3
:104890006E6A1200E80E7627030E7723000E782347
:1048A0001200B9EC01F06E50040A01E1D0D0040A04
:1048B00061E0010A2DE0030A0BE0010A01E01200A9
:1048C000A6EC1EF052EC1EF0000901E1C0D0BAD0F7
:1048D000A6EC1EF091C036F092C037F093C038F0CD
:1048E000396A38BE3968D8903950000A08E62C0E6B
:1048F000365C010E3758000E3858000E395802E267
:10490000030E6E6E52EC1EF0000901E1A0D09AD0A9
:10491000A6EC1EF00A013A81A0C08EF0A1C08FF073
:10492000A2C090F070EC67F052500601795D5350D0
:104930007A5954507B591CE20A013A8770EC67F0AF
:1049400052C036F053C037F054C038F0396A980E70
:1049500036263A0E3722000E3822392236C079F632
:1049600037C07AF638C07BF6030E6D6E020E6DD03E
:104970001BEF24F070EC67F052500601735D53504A
:1049800074595450755963E20501E42B000EE52378
:104990000A013A51400B17E03E51400B14E03E51E2
:1049A000200B11E070EC67F052C036F053C037F0C6
:1049B00054C038F0396A880E3626130E3722000E9E
:1049C0003822392209D070EC67F052C036F053C05B
:1049D00037F054C038F0396A36C079F637C07AF605
:1049E00038C07BF670EC67F052C036F053C037F039
:1049F00054C038F0396AE80E3626030E3722000E0E
:104A00003822392236C076F637C077F638C078F6C5
:104A100091C036F092C037F093C038F0396A38BE92
:104A20003968D8903950000A08E62C0E365C010E21
:104A30003758000E3858000E395806E20A013C512A
:104A4000200B02E0C0EF1EF0010E6E6E120012008D
:104A50006CEC53F009019B6F020EE66E71EC70F086
:104A6000E55209019B51330A01E1ACD0010A5CE037
:104A7000030A04E0010A01E0F0D0EAD09D6B996BD3
:104A80009A6BD8909A5104E6000E995D010E9A59DE
:104A900012E26CEC53F009019C6FE8509D1B000E74
:104AA0009925E96E030E9A21EA6E9CC9EFFF992BB6
:104AB000000E9A23E6D79D5130E1996B9A6BD890FE
:104AC0009A5104E6000E995D010E9A5924E2000EF7
:104AD0009925E96E030E9A21EA6EEF50E66E99C9A8
:104AE00036F09AC937F0386A396A37AE02D038687A
:104AF0003968372A000E3822392236C0E6FF37C01F
:104B0000E6FFFBEC6CF0E552E552E5520901992B0A
:104B1000000E9A23D4D7060E01D0150EE66E41EC96
:104B200052F0E55280D999D09D6B996B9A6BFF0E2C
:104B30009AAF02D0D89003D0995D000E9A5926E220
:104B400099C936F09AC937F0386A396A37AE02D057
:104B500038683968372A000E3822392236C0E6FF15
:104B600037C0E6FF5EEC6CF0E552E55209019C6F40
:104B7000E8509D1B000E9925E96E030E9A21EA6EFE
:104B80009CC9EFFF992B000E9A23D1D79DC9FFF343
:104B9000996B9A6BD8909A5104E6000E995D010EBC
:104BA0009A5956E2000E9925E96E030E9A21EA6E93
:104BB000EF50E66E41EC52F0E5520901992B000EE0
:104BC0009A23E8D79D6B996B9A6B3F0E9AAF02D0F0
:104BD000D89003D0995D000E9A591DE2800E992558
:104BE000366EFF0E9A21376E36C0E6FFE66E5EEC3B
:104BF0006CF0E552E55209019C6FE8509D1B000ED8
:104C00009925E96E030E9A21EA6E9CC9EFFF992B54
:104C1000000E9A23DAD79DC93FF3996B9A6B400E29
:104C20009AAF02D0D89003D0995D000E9A5910E245
:104C3000000E9925E96E030E9A21EA6EEF50E66E9A
:104C400041EC52F0E5520901992B000E9A23E7D767
:104C5000060EE66E41EC52F0E552020EE66E7DEC79
:104C600070F0E5521200D9CFE6FFE1CFD9FFFE0E7A
:104C7000DBCF36F00F016351E76E3618E8AE02D095
:104C8000363403D0E750D880365403E2FE0EDB6A98
:104C9000626BFE0EDB5014E1676B686B696B6A6BCD
:104CA0006B6B6C6B6D6B6E6BA0C064FFA1C065FF1E
:104CB000A2C066FF300E6F6F750E706F716BABD058
:104CC000FE0EDB040B0DF3CF36F0376A386A396A13
:104CD00036AE03D0376838683968180E3626010EAC
:104CE0003722000E3822392236C09EF937C09FF98C
:104CF00036C0E6FF37C0E6FFA2EC6CF0E552E552A5
:104D000051C067FF52C068FF53C069FF54C06AFFBB
:104D1000040E0901376A9E25366E9F51372236C030
:104D2000E6FF37C0E6FFA2EC6CF0E552E55251C059
:104D30006BFF52C06CFF53C06DFF54C06EFF080E76
:104D40000901376A9E25366E9F51372236C0E6FF2D
:104D500037C0E6FF77EC6CF0E552E552F3CF64FF25
:104D6000F4CF65FF0F01666B65BF6669640E576E11
:104D7000586A596A64CF52F065CF53F066CF54F049
:104D80005DEC6BF04FC064FF50C065FF51C066FF23
:104D90004FC036F050C037F051C038F0396A38BED5
:104DA00039683934000E391809E6D880780E36543F
:104DB000000E3754000E3854000E395405E20F012E
:104DC000780E646F656B666B0A0E0901376A9E2563
:104DD000366E9F51372236C0E6FF37C0E6FF5EECE5
:104DE0006CF0E552E552516E526A51BE5268536AF8
:104DF000546A52AE02D053685468E80E566E030EE1
:104E0000576E586A596AA4EC71F04DC06FFF4EC0DE
:104E100070FF4FC071FF0A013C933C953F9DE552E6
:104E2000E7CFD9FF12000F01776B786B000E0401FA
:104E3000CA6FCB6B826F836B3A6F3B6B0701906FCE
:104E4000916B6B6B6C6B6D6B6BC75AF76CC75BF7D9
:104E50006DC75CF7926B936B946B00018E6B8F6BDD
:104E6000906B6D6A00018C6B8D6B00018A6B8B6B94
:104E70000A013C953C933F97C80E0701886F896BE8
:104E8000320E866F876B090EE66E010EE66E5EECE3
:104E90006CF0E552E5520F01636F000EE76E631987
:104EA000E8AE02D0633503D0E750D880635502E303
:104EB000626B02D0010E626FE66AD5DEE552120027
:104EC00074BA05D0200EE66E71EC70F004D0200E9E
:104ED000E66E7DEC70F0E5520A013EA105D0080EA9
:104EE000E66E71EC70F004D0080EE66E7DEC70F0AA
:104EF000E552800EE66E7DEC70F0E55270EC67F0E6
:104F000052C0B4F853C0B5F854C0B6F8F40E080156
:104F1000B427010EB523000EB62332EC0DF0010EBE
:104F20006F6EE6EC68F0010E6F6E18EC42F00A014D
:104F30003B9D3EA15CD0080EE66E71EC70F0E55230
:104F40000A013EA75ED022EC33F042CF40FF43CFB0
:104F500041FF000E0F013C6F3D6B0F01426F436B31
:104F6000C6EC50F070EC67F052500801B45D53503D
:104F7000B5595450B65932E20A013D51020B2EE1A7
:104F800075EC3AF00A013E95E8B03E853C51010BC4
:104F900006E13B51800B03E13E51040B13E174BE6B
:104FA00005D0800EE66E71EC70F004D0800EE66ED7
:104FB0007DEC70F0E55274B405D0040EE66E71EC31
:104FC00070F004D0040EE66E7DEC70F0E552F40E45
:104FD0000801B427010EB523000EB6230601FB0716
:104FE00010E182EC39F00601010EFB6F0AD0040ECD
:104FF000E66E71EC70F0E552080EE66E7DEC70F036
:10500000E552CDEC35F00A013E51010B01E185D7A7
:105010008050100B04E00801AF5101E07ED70A0177
:105020004151400B01E079D73C51010B01E075D7AC
:105030003B51800B01E071D73A51040B01E06DD771
:1050400040CF36F041CF37F0386A396A37AE02D0F8
:1050500038683968D8903950000A08E6180E365C6E
:10506000000E3758000E3858000E395801E355D756
:105070003E51040B01E151D70801AF6B800EE66E83
:105080007DEC70F0E552040EE66E7DEC70F0E552BA
:10509000080EE66E71EC70F0E5520A013EAB05D0E9
:1050A000200EE66E71EC70F004D0200EE66E7DEC02
:1050B00070F0E55270EC67F052C0B0F853C0B1F830
:1050C00054C0B2F80801B36B52C097F653C098F6BB
:1050D00054C099F652C036F053C037F054C038F07F
:1050E000B3C839F0E80E3626030E3722000E3822F8
:1050F000392236C073F637C074F638C075F680C0F2
:1051000036F0376A386A396AB00EE96E080EEA6E10
:10511000EE503626EE503722EE503822EE5039222D
:1051200036C0B2F637C0B3F638C0B4F60A013A97C3
:105130006E6A1200920EE66EBE0EE66E21EC52F022
:10514000E552E5522BEC0BF043EC3CF0FCEC6EF03E
:10515000840EE66EBE0EE66E21EC52F0E552E5528C
:105160000801B86B400EB85D62E2800EE66EBE0EBE
:10517000E66E21EC52F0E552E5520801B829E66EE0
:10518000E66A6DEC52F0E552E5527C0EE66EBE0E1C
:10519000E66E21EC52F0E552E5520801B851EA6A98
:1051A000000FE96E080EEA22EFCF36F0376A36BEFE
:1051B000376836C0E6FF37C0E6FFD6EC52F0E5525E
:1051C000E5520801B851F66EF76AD890F636F73610
:1051D000C70EF626E20EF722010EF626000EF72283
:1051E0000800F55007E0790EE66EBE0EE66E21EC83
:1051F00052F018D0200EE66E41EC52F0E552400E0F
:105200000801B825E66EE66A5EEC6CF0E552E55200
:10521000366E376A36BE376836C0E6FF37C0E6FFFF
:10522000D6EC52F0E552E5520801B82B9BD712009C
:105230003F0E926E020EC16EC00E816E400E936ED6
:10524000600E826E840E946EC78CF19E410EE66EE7
:10525000E66A3C0EE66E1CEC71F0E552E552E55252
:1052600012006C6A0801B96B0A0EB95D09E2B95106
:10527000EA6A3A0FE96E0A0EEA22EF6AB92BF4D70E
:105280000A013D813D893E850701F66BF76BF86B9E
:10529000F96B0F0148697F0E496F48CF46FFE8CF91
:1052A00047FF48CF4AFFE8CF4BFF140E0F013E6F78
:1052B0003F6BF00E0F01406F416BD00E06013F6F48
:1052C000406B746A2E0EE66E7DEC70F0E552040EB3
:1052D000E66E71EC70F0E552800EE66E7DEC70F0DB
:1052E000E5521200D9CFE6FFE1CFD9FFFD0EDBCFAB
:1052F00036F0FE0EDBCF37F0386A37BE386836C07E
:10530000E6FF37C0E6FF38C0E6FF70EC67F0E55215
:10531000E7CF38F0E552E7CF37F0E552E7CF36F088
:10532000525036240801BA6F53503720BB6F545087
:105330003820BC6FBA2B000EBB23BC2370EC67F087
:105340000801BA51525CBB515358BC515458F6E352
:10535000E552E7CFD9FF1200D9CFE6FFE1CFD9FF61
:10536000FD0EDBCF36F0FE0EDBCF37F0640E3702DA
:10537000F3CF37F03602F3CF36F0F4503726386AE1
:1053800037BE386836C0E6FF37C0E6FF38C0E6FFF4
:1053900070EC67F0E552E7CF38F0E552E7CF37F031
:1053A000E552E7CF36F0525036240801BD6F535016
:1053B0003720BE6F54503820BF6F70EC67F0080183
:1053C000BD51525CBE515358BF5154580BE2020EAE
:1053D0000001805DE66EE66A85DFE552E552C6ECC7
:1053E00050F0EBD7E552E7CFD9FF1200D9CFE6FF57
:1053F000E1CFD9FF800EE66E71EC70F0E552FE0E43
:10540000DBCFE6FFE66AA8DFE552E552800EE66EE6
:105410007DEC70F0E552FD0EDBCFE6FFE66A9CDF27
:10542000E552E552E552E7CFD9FF1200D9CFE6FFAA
:10543000E1CFD9FF0801C06BFE0EDB50C05D0AE270
:10544000080EE66E020EE66ED1DFE552E552080167
:10545000C02BF2D7E66A080EE66EC8DFE552E552C9
:10546000E552E7CFD9FF120070EC67F052C0C1F8E7
:1054700053C0C2F854C0C3F8C10EE96E080EEA6EFC
:1054800006019A51EE5C9B51EE589C51EE5801E298
:10549000BFD06F5001E1BCD0C1C89AF6C2C89BF61C
:1054A000C3C89CF6E80E9A27030E9B23000E9C238C
:1054B0006F6A3CC651F03DC652F0536A546A52AE10
:1054C00002D053685468040E566E576A586A596A77
:1054D000A4EC71F04DC0EEF74EC0EFF7970EE96EF9
:1054E000060EEA6EEE500801C15D3D6EEE50C259E7
:1054F0003E6EEE50C3593F6E4DC03AF04EC03BF089
:105500003C6A3BBE3C683AC052F03BC053F03CC0E2
:1055100054F03DC057F03EC058F03FC059F05DEC2C
:105520006BF0396A4F500701F6275050F72351505E
:10553000F8233950F923C1C897F6C2C898F6C3C8F2
:1055400099F6F6C736F0F7C737F0F8C738F0F9C75D
:1055500039F0566A400E576E380E586E596AF6C7C3
:1055600051F0F7C752F0F8C753F0F9C754F0DEEC2A
:105570006AF051C036F052C037F053C038F054C012
:1055800039F0320E566E576A586A596AA4EC71F0B7
:105590004DC036F04EC037F04FC038F050C039F033
:1055A0004DC0F4F74EC0F5F7E66A13EC72F0E55221
:1055B000F3CFC4F8F4CFC5F8010EE66E0701EC5145
:1055C0000801F324366E0701ED510801F420376E0F
:1055D00036C0E6FFE66E35EC45F0E552E552E552A1
:1055E000F3CFECF7F4CFEDF70701F450F119E8AE83
:1055F00002D0F13504D0F051EC5DF151ED5902E3E8
:10560000000E01D0010E010B0A013A9BE8B03A8B63
:1056100012006F5001E1BDD06F6A0A013A51200BB0
:1056200011E13A51080B0EE13A51010B06E03B51F2
:10563000400B03E04151100B05E1030E6C5C02E0EE
:10564000000E01D0010E4093E8B0408340A392D0F9
:105650003AAB0AD00601580EFC6F020EFD6F580ED1
:10566000FE6F020EFF6F21D03A51010B0CE03B514F
:10567000400B09E04151100B06E0C80E0601FC6F1B
:10568000FD6B140E10D0030E6C5C07E106018E0E4C
:10569000FC6F120EFD6FFA0E06D03AA706D07D0EF3
:1056A0000601FC6FFD6BFE6FFF6B70EC67F05250F4
:1056B0000601A35D5350A4595450A5596AE274AE33
:1056C0002CD0FCC636F0FDC637F0386A37BE3868D5
:1056D00036C0E6FF37C0E6FF38C0E6FF70EC67F083
:1056E000E552E7CF38F0E552E7CF37F0E552E7CFA4
:1056F00036F0525036240601A36F53503720A46F62
:1057000054503820A56F800EE66E7DEC70F0E552A7
:10571000040EE66E7DEC70F02BD0FEC636F0FFC6B0
:1057200037F0386A37BE386836C0E6FF37C0E6FF64
:1057300038C0E6FF70EC67F0E552E7CF38F0E5528D
:10574000E7CF37F0E552E7CF36F052503624060166
:10575000A36F53503720A46F54503820A56F800E8C
:10576000E66E71EC70F0E552040EE66E71EC70F0CE
:10577000E552120070EC67F0525006016D5D535017
:105780006E5954506F5905E2800EE66E7DEC70F054
:10579000E5521200D9CFE6FFE1CFD9FFF70EDBCFFC
:1057A0003AF0F80EDBCF3BF0F90EDBCF3CF0FA0E0F
:1057B000DBCF3DF0E150FB0FE96EFF0EDA20EA6E21
:1057C000030EEB503D18E8AE02D03D3408D03A50FD
:1057D000EE5C3B50EE583C50EE583D50EE580BE21C
:1057E000F70EDBCF36F0F80EDBCF37F0F90EDBCF5C
:1057F00038F0FA0E39D0F30EDBCF3EF0F40EDBCFEB
:105800003FF0F50EDBCF40F0F60EDBCF41F0D95084
:10581000FB0FE96EFF0EDA20EA6E030EEBCFF3FF0B
:105820004150F318E8AE02D0F33408D0EE503E5C9D
:10583000EE503F58EE504058EE5041580BE2F30EF8
:10584000DBCF36F0F40EDBCF37F0F50EDBCF38F0E0
:10585000F60E0AD0FB0EDBCF36F0FC0EDBCF37F0B6
:10586000FD0EDBCF38F0FE0EDBCF39F036C051F045
:1058700037C052F038C053F039C054F0E552E7CF8A
:10588000D9FF1200D9CFE6FFE1CFD9FFFE0EDBCF63
:1058900037F0800E37141EE0FB0EDBCF36F0FC0E27
:1058A000DBCF37F0D950FD0FE96EFF0EDA20EA6E3C
:1058B0003650EE263750ED22FD0EDBCF36F0FE0ED1
:1058C000DBCF37F037342EE236500008000E375465
:1058D00029E224D0FD0EDBCF36F0FE0EDBCF37F011
:1058E000373420E236500008000E37541BE2FB0E1E
:1058F000DBCF36F0FC0EDBCF37F0D950FD0FE96E71
:10590000FF0EDA20EA6E3650EE5E3750ED5AFD0E8D
:10591000FE0EDBCF37F0800E371404E0FD0EDB6A9D
:10592000FE0EDB6AFD0EDBCF36F0FE0EDBCF37F06E
:1059300036C0F3FF37C0F4FFE552E7CFD9FF1200BE
:10594000D9CFE6FFE1CFD9FFF90EDBCF36F0FA0E63
:10595000DBCF37F0386A396A37AE02D03868396839
:10596000D950FB0FE96EFF0EDA20EA6E030EEBCF83
:10597000F3FF3950F318E8AE02D0F33408D0EE50FC
:10598000365CEE503758EE503858EE5039581BE21E
:10599000F90EDBCF36F0FA0EDBCF37F0386A396A12
:1059A00037AE02D038683968D950FB0FE96EFF0E68
:1059B000DA20EA6E3650EE5E3750EE5A3850EE5A24
:1059C0003950EE5A49D0F90EDBCF36F0FA0EDBCF64
:1059D00037F0366C371E000E3722386A396A37AE18
:1059E00002D038683968D950FB0FE96EFF0EDA2013
:1059F000EA6E030EEB503918E8AE02D0393408D005
:105A00003650EE5C3750EE583850EE583950EE585C
:105A10001BE2F90EDBCF36F0FA0EDBCF37F0386A37
:105A2000396A37AE02D038683968D950FB0FE96E51
:105A3000FF0EDA20EA6E3650EE263750EE2238504E
:105A4000EE223950EE2208D0FB0EDB6AFC0EDB6A38
:105A5000FD0EDB6AFE0EDB6AFB0EDBCF36F0FC0EC2
:105A6000DBCF37F0FD0EDBCF38F0FE0EDBCF39F0A9
:105A700036C051F037C052F038C053F039C054F03E
:105A8000E552E7CFD9FF1200D9CFE6FFE1CFD9FF2A
:105A9000F60EDBCF39F0800E39140BE0F50EDBCFBC
:105AA00036F0F60EDBCF37F0366C371E000E37229D
