:020000040000FA
:06000000E1EF76F01200B2
:020006001200E6
:0600080096EF6DF01200FE
:02000E00475059
:080010004747414750524D43A0
:060018008FEF6DF01200F5
:02001E000F00D1
:10002000E1EE0000C60A00000A000000E0EE000059
:10003000FE0A000001000000D9EE0000F70A0000EF
:1000400007000000D5EE0000150B000004000000C2
:10005000D3EE0000FE0700000200000095EA000059
:10006000FF08000001000000CEEE00000C0B0000B5
:1000700005000000B0EE0000200A00001E00000095
:1000800096EE0000E40700001A00000074EE000085
:10009000CC090000220000006CEE0000D90A00002C
:1000A0000800000060EE0000A40A00000C00000040
:1000B0004CEE00005B0A0000140000002AEE000075
:1000C000DD0800002200000024EE0000000B00000C
:0400D0000600000026
:0C00D400B80EE66E760EE66E73EC58F087
:1000E000E552E55212000A0189A704D0A70EE66E78
:1000F000760E03D0930EE66E760EE66E73EC58F035
:10010000E552E5521200E6C7E6FFE7C7E6FF73ECEB
:1001100058F0E552E55212005CEC59F03E0EE66EE6
:10012000E60EE66E73EC58F0E552E552440EE66ECC
:10013000760EE66E73EC58F0E552E552370EE66E39
:10014000760EE66E73EC58F0E552E552DCDF240ED5
:10015000E66E760EE66E73EC58F0E552E552200E30
:10016000E66EE66A00CF36F0376A386A396A00CF41
:10017000E6FF37C0E6FF38C0E6FF39C0E6FF36ECE1
:100180005AF03A6E060EE15E3A505CEC59F0110EF0
:10019000E66E760EE66E73EC58F0E552E552E66ACE
:1001A000010EE66EF0C936F0376A36BE3768386A37
:1001B000396A37AE02D0386839684B0E5D6E5E6AB8
:1001C0005F6A606A36C058F037C059F038C05AF0DC
:1001D00039C05BF04BEC75F054C036F055C037F0C9
:1001E00056C038F057C039F054C0E6FF55C0E6FF9E
:1001F00056C0E6FF57C0E6FF36EC5AF03A6E060EE0
:10020000E15E3A50F90EE66E750EE66E73EC58F04C
:10021000E552E552F00EE66E750EE66E73EC58F0A0
:10022000E552E552FFEC4BF0E60EE66E750EE66E1B
:1002300073EC58F0E552E55256C9E6FF90EC5CF0DD
:10024000E552DD0EE66E750EE66E73EC58F0E55283
:10025000E5522DEC2EF0D10EE66E750EE66E73ECC7
:1002600058F0E552E5528BEC62F00A018651400BE2
:1002700020E00801BA511DE0C80EE66E750EE66E6C
:1002800073EC58F0E552E552E66AE66A0E0EE66E49
:10029000E66AE66AE66A36EC5AF0366E060EE15E0B
:1002A0003650C30EE66E750EE66E73EC58F0E552EE
:1002B000E552BA0EE66E750EE66E73EC58F0E55236
:1002C000E55278EC26F00801235131E0B70EE66ED6
:1002D000750EE66E73EC58F0E552E5520701DE6BE1
:1002E000040EDE5D1CE2DE51E96EEA6AD890E93662
:1002F000EA36B40EE926000EEA22EE50ED1004E0D4
:10030000B10EE66E750E03D0AD0EE66E750EE66E9E
:1003100073EC58F0E552E5520701DE2BE1D7AA0E47
:10032000E66E750EE66E73EC58F0E552E552A00EDF
:10033000E66E750EE66E73EC58F0E552E552D3DECC
:10034000970EE66E750EE66E73EC58F0E552E552C8
:1003500008010351010A02E0010A06E1310E0325FA
:10036000E66E93EC58F007D08F0EE66E750EE66ED3
:1003700073EC58F0E552E552810EE66E750EE66EAE
:1003800073EC58F0E552E552300E0901EE25E66EA9
:1003900093EC58F0E5526C0EE66E750EE66E73EC5B
:1003A00058F0E552E5520A0184A904D0620EE66EC7
:1003B000750E03D0570EE66E750EE66E73EC58F0B0
:1003C000E552E5520A0182A304D0490EE66E750E8D
:1003D00003D0390EE66E750EE66E73EC58F0E552FA
:1003E000E5520A0185B108D01E0EE66E750EE66E66
:1003F00073EC58F0E552E5520A0EE66E750EE66EA5
:1004000073EC58F0E552E552010E1614010823E092
:100410000A018951080B1FE1D50EE66E740EE66ED7
:1004200073EC58F0E552E552E66AE66A1650366E0D
:10043000376A386A396A16C0E6FF37C0E6FF38C047
:10044000E6FF39C0E6FF36EC5AF03A6E060EE15E82
:100450003A505CEC59F00A0187BF08D0B60EE66E40
:10046000740EE66E73EC58F0E552E5529D0EE66EA2
:10047000740EE66E73EC58F0E552E5520A0186B54B
:1004800008D07D0EE66E740EE66E73EC58F0E55201
:10049000E5520A0189AD08D0600EE66E740EE66E74
:1004A00073EC58F0E552E5520A0184BB08D0520EB5
:1004B000E66E740EE66E73EC58F0E552E5520A01F2
:1004C00084BD08D03B0EE66E740EE66E73EC58F0F9
:1004D000E552E552090E0901565D04E00A01825118
:1004E000040B08E02E0EE66E740EE66E73EC58F008
:1004F000E552E552040E0901AC5D04E00A018651A3
:10050000200B08E1200EE66E740EE66E73EC58F0D8
:10051000E552E5520A0186BD08D00D0EE66E740E56
:10052000E66E73EC58F0E552E5520A0186B108D048
:10053000ED0EE66E730EE66E73EC58F0E552E55282
:100540008050100B0BE00901005108E0D20EE66E5E
:10055000730EE66E73EC58F0E552E5520A018451D1
:10056000010B03E18351800B08E0B20EE66E730EBF
:10057000E66E73EC58F0E552E55240C636F041C6DF
:1005800037F0386A396A37AE02D038683968D8909F
:100590003950000A08E6180E365C000E3758000E77
:1005A0003858000E395808E39F0EE66E730EE66E5B
:1005B00073EC58F0E552E5526AEF00F080B82DEF89
:1005C0000BF0A7EC59F00701DF6FE85002E12DEFC7
:1005D0000BF0DFC7E6FFE8EC75F0E552F3CF36F03D
:1005E000F4CF37F0F350F41007E0DFC7E6FFFAEC82
:1005F00075F0E552F3CFDFF70701DF513F0A02E163
:1006000023EF0BF0690A02E120EF0BF0060A02E18A
:100610001DEF0BF01E0A02E11AEF0BF0050A02E1D2
:1006200017EF0BF0020A02E114EF0BF0010A02E1EE
:1006300011EF0BF00B0A02E10EEF0BF0170A02E1CB
:10064000EDEF0AF0130A02E1EAEF0AF01F0A02E1F5
:10065000E7EF0AF00B0A02E1E5EF0AF0010A01E117
:1006600052D1050A01E14DD10D0A01E138D1170A35
:1006700001E17CD0010A33E0080A06E0060A01E045
:100680001200F29E80EC7EF0820EE66E730EE66E35
:1006900073EC58F0E552E5525C0EE66E730EE66EB2
:1006A00073EC58F0E552E552A7EC59F00701DF6F03
:1006B000780EDF5D03E07A0EDF5DF6E1780EDF5D38
:1006C00004E180EC35F02BEF0BF0500EE66E730E6C
:1006D000E66E73EC58F0E552E5522BEF0BF0350E59
:1006E000E66E730EE66E73EC58F0E552E552300E8E
:1006F0000901EE25E66E93EC58F0E55257EC32F026
:100700000701E06B400EE05D02E32BEF0BF0290EDA
:10071000E66E730EE66E73EC58F0E552E552070193
:10072000E029E66EE66ABFEC58F0E552E552250E88
:10073000E66E730EE66E73EC58F0E552E552070173
:10074000E051EA6A000FE96E080EEA22EFCF36F0B8
:10075000376A36BE376836C0E6FF37C0E6FF28EC9A
:1007600059F0E552E5520701E02BCCD7020EE66EB8
:1007700018EC74F0E552290EE66E730EE66E73EC1B
:1007800058F0E552E552CDEC59F0FF0F0701E06F4C
:10079000250EE66E730EE66E73EC58F0E552E552E8
:1007A000E8EC59F0F3CFE2F7F4CFE3F70701D88094
:1007B000F45004E7800EE25DFF0EE35904E2800E80
:1007C000366E37680FD0E33509E2E2517F08000E3C
:1007D000E35504E27F0E366E376A04D0E2C736F086
:1007E000E3C737F036C0E1F72B0EE05D09E1E051D9
:1007F000EA6A9E0FE96E070EEA22010EEF6E08D03C
:10080000E051EA6A9E0FE96E070EEA22E1C7EFFFA8
:100810003F0EE05D5EE1080100515BE00701010E63
:10082000C96F030EAA6FE06B400EE05D4DE2090157
:10083000EE0524E10701E051EA6A9E0FE96E070E1A
:10084000EA22EF50E66EE051E66EE66A1EEC71F0C9
:10085000E552E552E5520701E051F66EF76AD8908D
:10086000F636F736150EF626EA0EF722010EF626B4
:10087000000EF7220800F55024E012D00701E051E5
:10088000F66EF76AD890F636F736150EF626EA0EAB
:10089000F722010EF626000EF7220800F55011E1AE
:1008A000E051EA6A9E0FE96E070EEA22EF50E66E0B
:1008B000400EE025E66EE66A1EEC71F0E552E55268
:1008C000E5520701E02BB0D70A0186850901010E28
:1008D000EF6F020EE66E24EC74F02AEF0BF0CDEC15
:1008E00059F00701E06F0901EE510701E05D02E1F7
:1008F0002DEF0BF0E0C7EEF90901010EEF6F57EF96
:1009000032F0A6EF6CF0200EE66E730EE66E73EC1E
:1009100058F0E552E55212C658F013C659F05A6A1B
:100920005B6A59AE02D05A685B68F40E5D6E010EC8
:100930005E6E5F6A606A4BEC75F054C058F055C04B
:1009400059F056C05AF057C05BF0F00E5D6E5E6A0B
:100950005F6A606A1FEC6FF0D8805B50FF0A08E6A0
:10096000190E585CFC0E5958FF0E5A58FF0E5B5872
:1009700007E2190E366EFC0E376E386839686FD094
:1009800012C658F013C659F05A6A5B6A59AE02D0C3
:100990005A685B68F40E5D6E010E5E6E5F6A606A97
:1009A0004BEC75F054C058F055C059F056C05AF091
:1009B00057C05BF0F00E5D6E5E6A5F6A606A1FECA6
:1009C0006FF05B34000E5B1809E6D880E70E5854D0
:1009D000030E5954000E5A54000E5B5407E2E70E02
:1009E000366E030E376E386A396A39D012C636F061
:1009F00013C637F0386A396A37AE02D038683968BA
:100A0000F40E5D6E010E5E6E5F6A606A36C058F06D
:100A100037C059F038C05AF039C05BF04BEC75F074
:100A200054C036F055C037F056C038F057C039F0D2
:100A3000F00E5D6E5E6A5F6A606A54C058F055C021
:100A400059F056C05AF057C05BF01FEC6FF058C019
:100A500036F059C037F05AC038F05BC039F036C0B4
:100A6000E6FF37C0E6FF28EC59F0E552E5521C0ED0
:100A7000E66E730EE66E73EC58F0E552E55214C65E
:100A800058F015C659F05A6A5B6A59AE02D05A68D6
:100A90005B68F40E5D6E010E5E6E5F6A606A4BEC21
:100AA00075F054C058F055C059F056C05AF057C0B0
:100AB0005BF0F00E5D6E5E6A5F6A606A1FEC6FF05D
:100AC000D8805B50FF0A08E6190E585CFC0E595896
:100AD000FF0E5A58FF0E5B5807E2190E366EFC0ED9
:100AE000376E386839686FD014C658F015C659F09B
:100AF0005A6A5B6A59AE02D05A685B68F40E5D6E42
:100B0000010E5E6E5F6A606A4BEC75F054C058F07F
:100B100055C059F056C05AF057C05BF0F00E5D6EEC
:100B20005E6A5F6A606A1FEC6FF05B34000E5B18F0
:100B300009E6D880E70E5854030E5954000E5A5453
:100B4000000E5B5407E2E70E366E030E376E386A0E
:100B5000396A39D014C636F015C637F0386A396AA2
:100B600037AE02D038683968F40E5D6E010E5E6EE5
:100B70005F6A606A36C058F037C059F038C05AF022
:100B800039C05BF04BEC75F054C036F055C037F00F
:100B900056C038F057C039F0F00E5D6E5E6A5F6A7D
:100BA000606A54C058F055C059F056C05AF057C04A
:100BB0005BF01FEC6FF058C036F059C037F05AC0E8
:100BC00038F05BC039F036C0E6FF37C0E6FF28ECEE
:100BD00059F0E552E552180EE66E730EE66E73ECB0
:100BE00058F0E552E55216C658F017C659F05A6A41
:100BF0005B6A59AE02D05A685B68F40E5D6E010EF6
:100C00005E6E5F6A606A4BEC75F054C058F055C078
:100C100059F056C05AF057C05BF0F00E5D6E5E6A38
:100C20005F6A606A1FEC6FF0D8805B50FF0A08E6CD
:100C3000190E585CFC0E5958FF0E5A58FF0E5B589F
:100C400007E2190E366EFC0E376E386839686FD0C1
:100C500016C658F017C659F05A6A5B6A59AE02D0E8
:100C60005A685B68F40E5D6E010E5E6E5F6A606AC4
:100C70004BEC75F054C058F055C059F056C05AF0BE
:100C800057C05BF0F00E5D6E5E6A5F6A606A1FECD3
:100C90006FF05B34000E5B1809E6D880E70E5854FD
:100CA000030E5954000E5A54000E5B5407E2E70E2F
:100CB000366E030E376E386A396A39D016C636F08A
:100CC00017C637F0386A396A37AE02D038683968E3
:100CD000F40E5D6E010E5E6E5F6A606A36C058F09B
:100CE00037C059F038C05AF039C05BF04BEC75F0A2
:100CF00054C036F055C037F056C038F057C039F000
:100D0000F00E5D6E5E6A5F6A606A54C058F055C04E
:100D100059F056C05AF057C05BF01FEC6FF058C046
:100D200036F059C037F05AC038F05BC039F036C0E1
:100D3000E6FF37C0E6FF28EC59F0E552E552140E05
:100D4000E66E730EE66E73EC58F0E552E55218C687
:100D500058F019C659F05A6A5B6A59AE02D05A68FF
:100D60005B68F40E5D6E010E5E6E5F6A606A4BEC4E
:100D700075F054C058F055C059F056C05AF057C0DD
:100D80005BF0F00E5D6E5E6A5F6A606A1FEC6FF08A
:100D9000D8805B50FF0A08E6190E585CFC0E5958C3
:100DA000FF0E5A58FF0E5B5807E2190E366EFC0E06
:100DB000376E386839686FD018C658F019C659F0C0
:100DC0005A6A5B6A59AE02D05A685B68F40E5D6E6F
:100DD000010E5E6E5F6A606A4BEC75F054C058F0AD
:100DE00055C059F056C05AF057C05BF0F00E5D6E1A
:100DF0005E6A5F6A606A1FEC6FF05B34000E5B181E
:100E000009E6D880E70E5854030E5954000E5A5480
:100E1000000E5B5407E2E70E366E030E376E386A3B
:100E2000396A39D018C636F019C637F0386A396AC7
:100E300037AE02D038683968F40E5D6E010E5E6E12
:100E40005F6A606A36C058F037C059F038C05AF04F
:100E500039C05BF04BEC75F054C036F055C037F03C
:100E600056C038F057C039F0F00E5D6E5E6A5F6AAA
:100E7000606A54C058F055C059F056C05AF057C077
:100E80005BF01FEC6FF058C036F059C037F05AC015
:100E900038F05BC039F036C0E6FF37C0E6FF28EC1B
:100EA00059F0E552E552100EE66E730EE66E73ECE5
:100EB00058F0E552E5521AC658F01BC659F05A6A66
:100EC0005B6A59AE02D05A685B68F40E5D6E010E23
:100ED0005E6E5F6A606A4BEC75F054C058F055C0A6
:100EE00059F056C05AF057C05BF0F00E5D6E5E6A66
:100EF0005F6A606A1FEC6FF0D8805B50FF0A08E6FB
:100F0000190E585CFC0E5958FF0E5A58FF0E5B58CC
:100F100007E2190E366EFC0E376E386839686FD0EE
:100F20001AC658F01BC659F05A6A5B6A59AE02D00D
:100F30005A685B68F40E5D6E010E5E6E5F6A606AF1
:100F40004BEC75F054C058F055C059F056C05AF0EB
:100F500057C05BF0F00E5D6E5E6A5F6A606A1FEC00
:100F60006FF05B34000E5B1809E6D880E70E58542A
:100F7000030E5954000E5A54000E5B5407E2E70E5C
:100F8000366E030E376E386A396A39D01AC636F0B3
:100F90001BC637F0386A396A37AE02D0386839680C
:100FA000F40E5D6E010E5E6E5F6A606A36C058F0C8
:100FB00037C059F038C05AF039C05BF04BEC75F0CF
:100FC00054C036F055C037F056C038F057C039F02D
:100FD000F00E5D6E5E6A5F6A606A54C058F055C07C
:100FE00059F056C05AF057C05BF01FEC6FF058C074
:100FF00036F059C037F05AC038F05BC039F036C00F
:10100000E6FF37C0E6FF28EC59F0E552E5520C0E3A
:10101000E66E730EE66E73EC58F0E552E5521CC6B0
:1010200058F01DC659F05A6A5B6A59AE02D05A6828
:101030005B68F40E5D6E010E5E6E5F6A606A4BEC7B
:1010400075F054C058F055C059F056C05AF057C00A
:101050005BF0F00E5D6E5E6A5F6A606A1FEC6FF0B7
:10106000D8805B50FF0A08E6190E585CFC0E5958F0
:10107000FF0E5A58FF0E5B5807E2190E366EFC0E33
:10108000376E386839686FD01CC658F01DC659F0E5
:101090005A6A5B6A59AE02D05A685B68F40E5D6E9C
:1010A000010E5E6E5F6A606A4BEC75F054C058F0DA
:1010B00055C059F056C05AF057C05BF0F00E5D6E47
:1010C0005E6A5F6A606A1FEC6FF05B34000E5B184B
:1010D00009E6D880E70E5854030E5954000E5A54AE
:1010E000000E5B5407E2E70E366E030E376E386A69
:1010F000396A39D01CC636F01DC637F0386A396AED
:1011000037AE02D038683968F40E5D6E010E5E6E3F
:101110005F6A606A36C058F037C059F038C05AF07C
:1011200039C05BF04BEC75F054C036F055C037F069
:1011300056C038F057C039F0F00E5D6E5E6A5F6AD7
:10114000606A54C058F055C059F056C05AF057C0A4
:101150005BF01FEC6FF058C036F059C037F05AC042
:1011600038F05BC039F036C0E6FF37C0E6FF28EC48
:1011700059F0E552E552080EE66E730EE66E73EC1A
:1011800058F0E552E5521EC658F01FC659F05A6A8B
:101190005B6A59AE02D05A685B68F40E5D6E010E50
:1011A0005E6E5F6A606A4BEC75F054C058F055C0D3
:1011B00059F056C05AF057C05BF0F00E5D6E5E6A93
:1011C0005F6A606A1FEC6FF0D8805B50FF0A08E628
:1011D000190E585CFC0E5958FF0E5A58FF0E5B58FA
:1011E00007E2190E366EFC0E376E386839686FD01C
:1011F0001EC658F01FC659F05A6A5B6A59AE02D033
:101200005A685B68F40E5D6E010E5E6E5F6A606A1E
:101210004BEC75F054C058F055C059F056C05AF018
:1012200057C05BF0F00E5D6E5E6A5F6A606A1FEC2D
:101230006FF05B34000E5B1809E6D880E70E585457
:10124000030E5954000E5A54000E5B5407E2E70E89
:10125000366E030E376E386A396A39D01EC636F0DC
:101260001FC637F0386A396A37AE02D03868396835
:10127000F40E5D6E010E5E6E5F6A606A36C058F0F5
:1012800037C059F038C05AF039C05BF04BEC75F0FC
:1012900054C036F055C037F056C038F057C039F05A
:1012A000F00E5D6E5E6A5F6A606A54C058F055C0A9
:1012B00059F056C05AF057C05BF01FEC6FF058C0A1
:1012C00036F059C037F05AC038F05BC039F036C03C
:1012D000E6FF37C0E6FF28EC59F0E552E552040E70
:1012E000E66E730EE66E73EC58F0E552E55220C6DA
:1012F00058F021C659F05A6A5B6A59AE02D05A6852
:101300005B68F40E5D6E010E5E6E5F6A606A4BECA8
:1013100075F054C058F055C059F056C05AF057C037
:101320005BF0F00E5D6E5E6A5F6A606A1FEC6FF0E4
:10133000D8805B50FF0A08E6190E585CFC0E59581D
:10134000FF0E5A58FF0E5B5807E2190E366EFC0E60
:10135000376E386839686FD020C658F021C659F00A
:101360005A6A5B6A59AE02D05A685B68F40E5D6EC9
:10137000010E5E6E5F6A606A4BEC75F054C058F007
:1013800055C059F056C05AF057C05BF0F00E5D6E74
:101390005E6A5F6A606A1FEC6FF05B34000E5B1878
:1013A00009E6D880E70E5854030E5954000E5A54DB
:1013B000000E5B5407E2E70E366E030E376E386A96
:1013C000396A39D020C636F021C637F0386A396A12
:1013D00037AE02D038683968F40E5D6E010E5E6E6D
:1013E0005F6A606A36C058F037C059F038C05AF0AA
:1013F00039C05BF04BEC75F054C036F055C037F097
:1014000056C038F057C039F0F00E5D6E5E6A5F6A04
:10141000606A54C058F055C059F056C05AF057C0D1
:101420005BF01FEC6FF058C036F059C037F05AC06F
:1014300038F05BC039F036C0E6FF37C0E6FF28EC75
:1014400059F0E552E552000EE66E730EE66E73EC4F
:1014500058F0E552E55222C658F023C659F05A6AB0
:101460005B6A59AE02D05A685B68F40E5D6E010E7D
:101470005E6E5F6A606A4BEC75F054C058F055C000
:1014800059F056C05AF057C05BF0F00E5D6E5E6AC0
:101490005F6A606A1FEC6FF0D8805B50FF0A08E655
:1014A000190E585CFC0E5958FF0E5A58FF0E5B5827
:1014B00007E2190E366EFC0E376E386839686FD049
:1014C00022C658F023C659F05A6A5B6A59AE02D058
:1014D0005A685B68F40E5D6E010E5E6E5F6A606A4C
:1014E0004BEC75F054C058F055C059F056C05AF046
:1014F00057C05BF0F00E5D6E5E6A5F6A606A1FEC5B
:101500006FF05B34000E5B1809E6D880E70E585484
:10151000030E5954000E5A54000E5B5407E2E70EB6
:10152000366E030E376E386A396A39D022C636F005
:1015300023C637F0386A396A37AE02D0386839685E
:10154000F40E5D6E010E5E6E5F6A606A36C058F022
:1015500037C059F038C05AF039C05BF04BEC75F029
:1015600054C036F055C037F056C038F057C039F087
:10157000F00E5D6E5E6A5F6A606A54C058F055C0D6
:1015800059F056C05AF057C05BF01FEC6FF058C0CE
:1015900036F059C037F05AC038F05BC039F036C069
:1015A000E6FF37C0E6FF28EC59F0E552E552FC0EA5
:1015B000E66E720EE66E73EC58F0E552E552000EE0
:1015C000E66EE66A28EC59F044D08CEF00F04BEC64
:1015D0003EF041D050EC1FF03ED0E80EE66E720EA9
:1015E000E66E73EC58F0E552E552E66AE66A31ECD5
:1015F00062F0366E376A386A396AE66E37C0E6FFDF
:1016000038C0E6FF39C0E6FF36EC5AF03A6E060EF7
:10161000E15E3A50D50EE66E720E18D09EEC63F085
:101620001AD041EC2EF017D075EC44F014D0B4EC85
:1016300063F011D0F1EC4CF00ED05DEC68F00BD003
:1016400037EC6AF008D0DD0EE66EE60EE66E73EC5F
:0C16500058F0E552E5526AEF00F012007D
:04165C00D9CFE6FFFD
:10166000E1CFD9FF060EE126730EDE6E030EDD6EAE
:10167000760EF36E020EF3CFDBFF010EF36E030E58
:10168000F3CFDBFF040EDB6A010EF36E050EF3CF22
:10169000DBFF0F0111510E5D2C6F12510F592D6F91
:1016A000135110592E6F040EDBCF36F0050EDBCF31
:1016B00037F0386A37BE38682CCF59F02DCF5AF042
:1016C0002ECF5BF036C05EF037C05FF038C060F000
:1016D00080EC6FF056C023FF57C024FF58C025FF91
:1016E000DECF3FF0DDCF40F0416A40BE416815CB10
:1016F0003CF016CB3DF03E6A3DBE3E68020EDBCFAD
:1017000039F0030EDBCF3AF03B6A3ABE3B682CCF90
:1017100059F02DCF5AF02ECF5BF039C05EF03AC0B1
:101720005FF03BC060F080EC6FF000013C50565C15
:10173000366E3D505758376E3E505858386E36C04A
:1017400059F037C05AF05B6E3FC05EF040C05FF0AA
:1017500041C060F080EC6FF056C026FF57C027FFF5
:1017600058C028FF15CB5AF016CB5BF0DECF5FF0E8
:10177000DDCF60F053EC6FF058500B011527595036
:1017800016230F0123512625296F245127212A6F63
:10179000255128212B6F080EE66E29CFE6FF2ACFB0
:1017A000E6FF3DEC47F0E552E552E552F3CF29FF65
:1017B000F4CF2AFF0F012B6B2ABF2B691CCF39F006
:1017C0001DCF3AF03B6A3ABE3B682B513B18E8AE5E
:1017D00002D03B3406D03950295D3A502A593B504B
:1017E0002B5909E21CCF36F01DCF37F0386A37AEDF
:1017F0001AD0386818D02B35000E2B1907E6D88080
:10180000F40E2955010E2A55000E2B5506E2F40E52
:10181000366E010E376E386A06D029CF36F02ACFE1
:1018200037F02BCF38F036C031FF37C032FF1A51B6
:10183000365C2F6F1B513758306F1DC836F0376A32
:1018400036BE376836502F03F3CF33FFF4CF34FF63
:101850003003F350342737502F03F3503427090E49
:10186000E66E33CFE6FF34CFE6FF3DEC47F0E552BE
:10187000E552E552F3CF33FFF4CF34FF0F01F450BC
:101880001F19E8AE02D01F3504D01E51335D1F5121
:10189000345909E21ECF36F01FCF37F0386A396A63
:1018A00037AE23D022D033CF3AF034CF3BF03C6A6E
:1018B0003D6A3BAE02D03C683D683D34000E3D18A9
:1018C00009E6D8800C0E3A54000E3B54000E3C54EE
:1018D000000E3D5404E20C0E366E376A04D033CF4E
:1018E00036F034CF37F0386A396A36C016FF37C061
:1018F00017FF060EE15C02E2E16AE552E16EE55295
:10190000E7CFD9FF12000A0188A165D18891ECECDC
:1019100071F014EC58F00A0184AF0DD0B0CA11FF79
:10192000B1CA12FF0F01136B12BF1369B2CA1AFFBB
:10193000B3CA1BFF16D00601C3510601C65D0F01D5
:10194000116F0601C4510601C7590F01126F06013C
:10195000C5510601C8590F01136FC9C61AFFCAC67F
:101960001BFF030EE66E070E5A6E5B6A17CB5FF025
:1019700018CB60F053EC6FF058500F011A25366EFB
:1019800059501B21376E36C0E6FFE66E3DEC47F03E
:10199000E552E552E552F3CF17FBF4CF18FB0A01ED
:1019A00082A1F8D08551800B05E1745006E0855185
:1019B000010B03E0838D2EEF0BF08351200B1CE114
:1019C0000B01800E181509E017CB36F018CB37F055
:1019D000366C371E000E372204D017CB36F018CBEA
:1019E00037F037342AE236503E08000E375425E2ED
:1019F0000A018351400B21E1839D11CF0EFF12CFCD
:101A00000FFF13CF10FF0F01800E171507E0010E17
:101A10001625166F000E1721176F120017350AE2F0
:101A200016510008000E175505E2010E165F000E54
:101A3000175B1200166B176B12000A01838D0B01E6
:101A4000176B186B0BDE06013C510F011625356F25
:101A500006013D510F011721366F800E1B1509E05D
:101A60001ACF36F01BCF37F0366C371E000E3722F8
:101A700004D01ACF36F01BCF37F0386A396A37AE48
:101A800002D038683968D8903950000A08E6320E1A
:101A9000365C000E3758000E3858000E395801E3F6
:101AA0009AD035CF3AF036CF3BF03C6A3D6A3BAE38
:101AB00002D03C683D683D34000E3D1809E6D880F0
:101AC000480E3A54000E3B54000E3C54000E3D5458
:101AD00001E381D0030EE66E070E5A6E5B6A38C6CC
:101AE0005FF039C660F053EC6FF058500F013525A8
:101AF000366E59503621376E36C0E6FFE66E3DEC45
:101B000047F0E552E552E552F3CF38F6F4CF39F617
:101B1000F3CF3AF0F4CF3BF03C6A3D6A3BAE02D0E3
:101B20003C683D68D8903D50000A08E6480E3A5C93
:101B3000000E3B58000E3C58000E3D5802E2480E85
:101B400019D038C63EF039C63FF0406A416A3FAE10
:101B500002D0406841684134000E411809E6D8803F
:101B6000900E3E54000E3F54000E4054000E41545F
:101B700004E2900E366E376A04D038C636F039C6A5
:101B800037F036C038F637C039F636C036F637C0CB
:101B900037F61200C6C611FFC7C612FFC8C613FF2C
:101BA0000F01800E171507E0010E1625166F000EA7
:101BB0001721176F0ED017350AE216510008000ED4
:101BC000175505E2010E165F000E175B02D0166B6B
:101BD000176B0A01839D120012000A018551040B44
:101BE0004FE08551400B4CE007019A35000E9A19E1
:101BF00007E6D880960E9855000E9955000E9A5516
:101C00003FE20801B4510701965D366E9751080115
:101C1000B555376E36C0E6FFE66E15EC48F0E55276
:101C2000E552F3CF37FFF4CF38FFF3CFE6FFF4CF21
:101C3000E6FF12C436F013C437F0386A37BE38688E
:101C400036C0E6FF37C0E6FF38C0E6FF5AC439F0B9
:101C50005BC43AF03B6A3ABE3B6839C0E6FF3AC023
:101C6000E6FF3BC0E6FF380EE66E040EE66E800E21
:101C7000E66E040EE66E42EC24F03C6E0C0E28D0AC
:101C8000F0C9E6FF12C436F013C437F0386A37BE25
:101C9000386836C0E6FF37C0E6FF38C0E6FF5AC4F2
:101CA00039F05BC43AF03B6A3ABE3B6839C0E6FFA4
:101CB0003AC0E6FF3BC0E6FF380EE66E040EE66E65
:101CC000800EE66E040EE66E5DEC25F03C6E0B0EAB
:101CD000E15E3C500A0185BD02D0C3EC6BF077C4D5
:101CE00038F0396A38BE396804013850825D366E82
:101CF00039508359376E36508027375081232FC48F
:101D000038F0396A38BE39683A513824366E3B515A
:101D10003920376E3650382737503923A251CA251B
:101D2000C86FA351CB21C96F1200D9CFE6FFE1CF15
:101D3000D9FF010EE66EFB0EDBCF3AF0FC0EDBCFD7
:101D40003BF0FD0EDBCFE9FFFE0EDBCFEAFF220EFC
:101D5000E926000EEA223A50EE24366E3B50EE2081
:101D6000376E386A396A37AE02D03868396836C09B
:101D7000E6FF37C0E6FF38C0E6FF39C0E6FF8DEC6E
:101D800047F03C6E050EE15E3C5058C039FF59C02B
:101D90003AFF5AC03BFF5BC03CFFFD0EDBCFE9FFC3
:101DA000FE0EDBCFEAFF220EE926000EEA22EECF7E
:101DB0003AF0EFCF3BF03C6A3D6A3BAE02D03C6864
:101DC0003D683A500F01395D366E3B503A59376ED7
:101DD0003C503B593D503C59FD0EDBCFE9FFFE0E18
:101DE000DBCFEAFF240EE926000EEA2236C0EEFF22
:101DF00037C0EDFFFD0EDBCFE9FFFE0EDBCFEAFFC4
:101E0000220EE926000EEA2239CFEEFF3ACFEDFF8F
:101E1000010EE66EFD0EDBCFE9FFFE0EDBCFEAFF23
:101E2000260EE926000EEA22EECF3CF0EFCF3DF081
:101E3000FD0EDBCFE9FFFE0EDBCFEAFF240EE92625
:101E4000000EEA223C50EE24386E3D50EE20396EF2
:101E50003A6A3B6A39AE02D03A683B6838C0E6FF5E
:101E600039C0E6FF3AC0E6FF3BC0E6FF8DEC47F025
:101E70003E6E050EE15E3E5059C037F0FD0EDBCFE1
:101E8000E9FFFE0EDBCFEAFF240EE926000EEA2270
:101E900058C0EEFF37C0EDFFFD0EDBCFE9FFFE0EB1
:101EA000DBCFEAFF240EE926000EEA22EECF36F061
:101EB000EFCF37F0FD0EDBCFE9FFFE0EDBCFEAFF01
:101EC000260EE926000EEA2236C0EEFF37C0EDFFEF
:101ED000E552E7CFD9FF1200D9CFE6FFE1CFD9FF16
:101EE000FD0EDBCFE9FFFE0EDBCFEAFF200EE92679
:101EF000000EEA22EECFE6FFEFCFE6FFFD0EDBCFCE
:101F0000E6FFFE0EDBCFE6FF10DFE552E552E552BD
:101F1000E552050EE66EFD0EDBCFE9FFFE0EDBCFD0
:101F2000EAFF240EE926000EEA22EECF46F0EFCFBC
:101F300047F0FD0EDBCFE9FFFE0EDBCFEAFF0C0E14
:101F4000E926000EEA22EECF48F0EFCF49F000017B
:101F500048504602F3CF42F0F4CF43F04702F3502B
:101F6000432649504602F3504326446A456A43AE2D
:101F700002D044684568FD0EDBCFE9FFFE0EDBCFE3
:101F8000EAFF080EE926000EEA22EECF3EF0EFCF80
:101F90003FF0406A416A3FAE02D040684168FD0EA2
:101FA000DBCFE9FFFE0EDBCFEAFF200EE926000EB5
:101FB000EA22EECF3AF0EFCF3BF03C6A3D6A3BAE0F
:101FC00002D03C683D683AC058F03BC059F03CC074
:101FD0005AF03DC05BF03EC05DF03FC05EF040C0D7
:101FE0005FF041C060F04BEC75F0545000014224AA
:101FF000366E55504320376E56504420386E575039
:102000004520396E36C0E6FF37C0E6FF38C0E6FF30
:10201000E66E8DEC47F04A6E050EE15E4A5058C000
:1020200041FF59C042FF5AC043FF5BC044FFFD0E51
:10203000DBCFE9FFFE0EDBCFEAFF0A0EE926000E3A
:10204000EA22EE50ED1010E10F01456B466B476B35
:10205000486BFD0EDBCFE9FFFE0EDBCFEAFF1A0E69
:10206000EB6A1B0EEB6AC9D0090EE66EFD0EDBCFE4
:10207000E9FFFE0EDBCFEAFF0A0EE926000EEA2298
:10208000EECF3EF0EFCF3FF0406A416A3FAE02D064
:1020900040684168FD0EDBCFE9FFFE0EDBCFEAFFB3
:1020A0001A0EE926000EEA22EECF3AF0EFCF3BF00F
:1020B0003C6A3D6A3BAE02D03C683D683AC058F08D
:1020C0003BC059F03CC05AF03DC05BF03EC05DF0F3
:1020D0003FC05EF040C05FF041C060F04BEC75F077
:1020E00054C036F055C037F056C038F057C039F0FC
:1020F00054C0E6FF55C0E6FF56C0E6FF57C0E6FFF6
:102100008DEC47F0426E050EE15E425058C03DFF37
:1021100059C03EFF5AC03FFF5BC040FFFD0EDBCF02
:10212000E9FFFE0EDBCFEAFFEECF36F0EFCF37F060
:10213000366C371E000E3722386A396A37AE02D045
:10214000386839680F0140513918E8AE02D0393487
:1021500008D036503D5D37503E5938503F593950C0
:10216000405913E2FD0EDBCFE9FFFE0EDBCFEAFFA5
:10217000EECF45FFEFCF46FF456D461F000E4623CD
:10218000476B486B46AF39D02DD0FD0EDBCFE9FF52
:10219000FE0EDBCFEAFFEECF3AF0EFCF3BF03C6A2A
:1021A0003D6A3BAE02D03C683D683D504019E8AE08
:1021B00002D0403508D03D513A5C3E513B583F512A
:1021C0003C5840513D5811E2FD0EDBCFE9FFFE0EB9
:1021D000DBCFEAFFEECF45FFEFCF46FF476B486B03
:1021E00046AF0BD04769486908D03DCF45FF3ECF89
:1021F00046FF3FCF47FF40CF48FF450EE96E0F0E29
:10220000EA6E4151EE243A6E4251EE203B6E43514C
:10221000EE203C6E4451EE203D6EFD0EDBCFE9FF1B
:10222000FE0EDBCFEAFF380EE926000EEA22EECFE3
:102230003EF0EFCF3FF0406A416A3FAE02D04068C7
:1022400041683E503A5C366E3F503B58376E4050C6
:102250003C58386E41503D58396EFD0EDBCFE9FFDA
:10226000FE0EDBCFEAFF440EE926000EEA2236C05E
:10227000EEFF37C0EDFFE552E7CFD9FF1200D9CF0F
:10228000E6FFE1CFD9FFFD0EDBCFE9FFFE0EDBCF8E
:10229000EAFF1A0EE926000EEA22EECF36F0EFCF63
:1022A00037F0386A396A37AE02D038683968FD0EBF
:1022B000DBCFE9FFFE0EDBCFEAFF380EE926000E8A
:1022C000EA22EECF58F0EFCF59F05A6A5B6A59AE66
:1022D00002D05A685B68300E5D6E5E6A5F6A606A43
:1022E0004BEC75F03650545C0F01596F3750555810
:1022F0005A6F385056585B6F395057585C6FFD0E07
:10230000DBCFE9FFFE0EDBCFEAFF080EE926000E69
:10231000EA22EECF36F0EFCF37F0386A396A37AEBF
:1023200002D03868396859CF58F05ACF59F05BCF8E
:102330005AF05CCF5BF036C05DF037C05EF038C05D
:102340005FF039C060F04BEC75F054C049FF55C0E8
:102350004AFF56C04BFF57C04CFF0F014D6B4E6BF1
:102360004F6B506B0A0EE66E4D0EE96E0F0EEA6E65
:102370005450EE24366E5550EE20376E5650EE20F7
:10238000386E5750EE20396E36C0E6FF37C0E6FF94
:1023900038C0E6FFE66E8DEC47F03A6E050EE15E62
:1023A0003A5058C055FF59C056FF5AC057FF5BC03E
:1023B00058FFFD0EDBCFE9FFFE0EDBCFEAFF200E5C
:1023C000E926000EEA22EECF36F0EFCF37F0386A7A
:1023D000396A37AE02D038683968550EE96E0F0E8B
:1023E000EA6E3650EE5C0F015D6F3750EE585E6F4F
:1023F0003850EE585F6F3950EE58606F5DCFE6FF92
:102400005ECFE6FFFD0EDBCFE6FFFE0EDBCFE6FF85
:102410008CDCE552E552E552E552050EE66EFD0E06
:10242000DBCFE9FFFE0EDBCFEAFF240EE926000E2C
:10243000EA22EECF42F0EFCF43F0FD0EDBCFE9FF13
:10244000FE0EDBCFEAFF0C0EE926000EEA22EECFED
:1024500044F0EFCF45F0000144504202F3CF3EF08C
:10246000F4CF3FF04302F3503F2645504202F35071
:102470003F26406A416A3FAE02D040684168FD0E87
:10248000DBCFE9FFFE0EDBCFEAFF080EE926000EE8
:10249000EA22EECF3AF0EFCF3BF03C6A3D6A3BAE2A
:1024A00002D03C683D685DCF58F05ECF59F05FCFF9
:1024B0005AF060CF5BF03AC05DF03BC05EF03CC0CC
:1024C0005FF03DC060F04BEC75F0545000013E24CD
:1024D000366E55503F20376E56504020386E57505C
:1024E0004120396E36C0E6FF37C0E6FF38C0E6FF50
:1024F000E66E8DEC47F0466E050EE15E465058C024
:1025000051FF59C052FF5AC053FF5BC054FF000E29
:102510000F01516D521F5223531F5323541F542335
:10252000FD0EDBCFE9FFFE0EDBCFEAFF440EE9260E
:10253000000EEA2251CFEEFF52CFEDFFE552E7CF7A
:10254000D9FF12000A0186AD1DD0A0C436F0A1C487
:1025500037F0386A396A37AE02D0386839683934AA
:10256000000E391809E6D880180E3654000E37547C
:10257000000E3854000E395409E2B4C8B6F8B5C894
:10258000B7F81200B4C8B6F8B5C8B7F81200DADF69
:102590000801B4510801B65D366EB7510801B55552
:1025A000376E36C0E6FFE66E1AEC63F0E552E55290
:1025B000F3CF08FFF4CF09FF0F01D880F45004E7F0
:1025C000E40E085DFF0E095904E2E40E086F096984
:1025D0000DD0093509E208511C08000E095504E226
:1025E0001C0E086F096B02D009CF09FF060EE66EBC
:1025F00094C43DF095C43EF03F6A3EBE3F6808CFAC
:102600003AF009CF3BF03C6A3BBE3C683AC059F017
:102610003BC05AF03CC05BF03DC05EF03EC05FF096
:102620003FC060F080EC6FF056C036F057C037F016
:1026300058C038F0396A38BE396836C0E6FF37C04E
:10264000E6FF38C0E6FF39C0E6FF8DEC47F0406E8C
:10265000050EE15E405058C061FF59C062FF5AC08C
:1026600063FFB0C436F0B1C437F0386A37BE38689B
:1026700036500F01615F3750625B3850635B050E67
:10268000E66E98C43AF099C43BF03C6A3BBE3C68A5
:1026900061CF59F062CF5AF063CF5BF03AC05EF081
:1026A0003BC05FF03CC060F080EC6FF056C036F08D
:1026B00057C037F058C038F0396A38BE396836C06C
:1026C000E6FF37C0E6FF38C0E6FF39C0E6FF8DEC15
:1026D00047F03D6E050EE15E3D5058C061FF59C0A8
:1026E00062FF5AC063FF92C436F093C437F0366C71
:1026F000371E000E3722386A37BE38680F01635123
:102700003818E8AE02D0383406D03650615D375004
:102710006259385063590CE292C461FF93C462FF5E
:10272000616D621F000E6223636B62AF20D01BD00D
:1027300092C439F093C43AF03B6A3ABE3B683B50CE
:102740006319E8AE02D0633506D06151395C62513D
:102750003A5863513B5809E292C461FF93C462FF47
:10276000636B62AF04D0636902D063CF63FF04017F
:10277000800EC91509E0C8C436F0C9C437F0366CFC
:10278000371E000E372204D0C8C436F0C9C437F053
:10279000386A396A37AE02D0386839683934000E81
:1027A000391809E6D880020E3654000E3754000E50
:1027B0003854000E395402E374500EE0C8C436F0A9
:1027C000C9C437F0386A37BE386836500F01615FC8
:1027D0003750625B3850635B61CFD4F462CFD5F47D
:1027E000120004011E6B1F6B666B676B12006EECB0
:1027F00044F0ECEC0DF02AEC2FF0A7EC62F0EDECDD
:102800000DF00F01646B645101082AE30A0187A1EE
:1028100011D00F016451480DF3CF36F0F4CF37F0EB
:10282000000E3626040E372236C0E6FF37C0E6FF1C
:1028300026DD11D00F016451480DF3CF36F0F4CFEF
:1028400037F0000E3626040E372236C0E6FF37C0BA
:10285000E6FF6CEC0FF0E552E5520F01642BD3D785
:1028600096DE44C466F045C467F08CC468F08DC43D
:1028700069F0D4C46AF0D5C46BF00401800E1B1556
:1028800009E01AC43AF01BC43BF03A6C3B1E000E40
:102890003B2204D01AC43AF01BC43BF0800E6315EF
:1028A00009E062C43CF063C43DF03C6C3D1E000E88
:1028B0003D2204D062C43CF063C43DF03B503D185F
:1028C000E8AE02D03D3404D03C503A5C3D503B5819
:1028D0000DE2800E631505E062C436F063C437F084
:1028E0000CD062C436F063C437F010D0800E1B15D4
:1028F00009E01AC436F01BC437F0366C371E000EE0
:10290000372204D01AC436F01BC437F0386A396A4B
:1029100037AE02D038683968D8903950000A08E6D6
:10292000E80E365C030E3758000E3858000E395842
:1029300002E3000E01D0010E0A018299E8B08289FB
:1029400016EF2CF004012F6B2FC477F42FC418FF5F
:102950000F01196B18BF196918CF16FF19CF17FF90
:10296000F40E1E6F1F69656B655102083EE36551E9
:10297000480DF3CF66FFF4CF67FF000E6627040E05
:10298000672366CFE9FF67CFEAFF220EE926000E34
:10299000EA22EE6AED6A66CFE9FF67CFEAFF460EEC
:1029A000E926000EEA22EE6AED6A66CFE9FF67CFFC
:1029B000EAFF1A0EE926000EEA22EE6AED6A66CFF9
:1029C000E9FF67CFEAFF240EE926000EEA22EE6A4D
:1029D000ED6A66CFE9FF67CFEAFF260EE926000E13
:0E29E000EA22EE6AED6A652BBFD7F1EF13F025
:0229EE00D9CF3F
:1029F000E6FFE1CFD9FFFB0EDBCF58F0FC0EDBCFBB
:102A000059F0FD0EDBCF5AF0FE0EDBCF5BF03F0E30
:102A10005D6E070E5E6E5F6A606A4BEC75F054C0C7
:102A200058F055C059F056C05AF057C05BF0100E20
:102A30005D6E270E5E6E5F6A606A1FEC6FF0E55296
:102A4000E7CFD9FF1200D9CFE6FFE1CFD9FFFB0EC8
:102A5000DBCF58F0FC0EDBCF59F0FD0EDBCF5AF088
:102A6000FE0EDBCF5BF03F0E5D6E070E5E6E5F6AA3
:102A7000606A4BEC75F054C058F055C059F056C020
:102A80005AF057C05BF0A00E5D6E860E5E6E010EB2
:102A90005F6E606A1FEC6FF0E552E7CFD9FF12005E
:102AA000D9CFE6FFE1CFD9FFFB0EDBCF58F0FC0E0C
:102AB000DBCF59F0FD0EDBCF5AF0FE0EDBCF5BF023
:102AC000A00E5D6E860E5E6E010E5F6E606A4BEC50
:102AD00075F054C058F055C059F056C05AF057C060
:102AE0005BF03F0E5D6E070E5E6E5F6A606A1FEC04
:102AF0006FF0E552E7CFD9FF1200D9CFE6FFE1CF63
:102B0000D9FF09017F6B806B816B0A01D65136E1D9
:102B1000FE0EDBCF7EF9FD0EDB500901D8807E551D
:102B20002DE37FC936F080C937F081C938F00A0E2D
:102B30005E6E5F6A606A7FC959F080C95AF081C9C8
:102B40005BF080EC6FF009017E51EA6A000FE96EDC
:102B5000070EEA22EFCF39F03A6A3B6A5650392421
:102B60007F6F57503A20806F58503B20816F300E56
:102B70007F5F000E805B815B7E2BCDD77FC959F0D4
:102B800080C95AF081C95BF0E552E7CFD9FF120046
:102B9000D9CFE6FFE1CFD9FF09018E6B8F6B906B28
:102BA000916B0A01D65101E0CBD0FE0EDB50040F31
:102BB0000901926F9251EA6A000FE96E070EEA224C
:102BC000EF502E0802E0922BF5D7030E925DE66ED1
:102BD000FE0EDBCFE6FF91DFE552E55259C082F9E8
:102BE0005AC083F95BC084F90901856B84BF85698C
:102BF0009205E66E020E925DE66E7FDFE552E552CB
:102C000059C086F95AC087F95BC088F90901896BF8
:102C100088BF8969FD0EDB50D8809255040814E204
:102C2000050E9225E66E9229E66E67DFE552E552C3
:102C300059C08AF95AC08BF95BC08CF909018D6BB8
:102C40008CAF2BD08D6929D0040E9225E66E922987
:102C5000E66E53DFE552E55259C08AF95AC08BF946
:102C60005BC08CF909018D6B8CBF8D690A0E5D6E9E
:102C70005E6A5F6A606A8AC958F08BC959F08CC96C
:102C80005AF08DC95BF04BEC75F054C08AF955C011
:102C90008BF956C08CF957C08DF982C936F083C9BB
:102CA00037F084C938F085C939F0800E5D6E8D0E1D
:102CB0005E6E5B0E5F6E606A82C958F083C959F020
:102CC00084C95AF085C95BF04BEC75F054C036F0FE
:102CD00055C037F056C038F057C039F086C93AF0C1
:102CE00087C93BF088C93CF089C93DF0A00E5D6EF4
:102CF000860E5E6E010E5F6E606A86C958F087C9E7
:102D000059F088C95AF089C95BF04BEC75F0545002
:102D100036265550372256503822575039228A0EBF
:102D2000E96E090EEA6E3650EE2409018E6F3750B7
:102D3000EE208F6F3850EE20906F3950EE20916F5B
:102D40008EC958F08FC959F090C95AF091C95BF0FB
:102D5000E552E7CFD9FF1200D9CFE6FFE1CFD9FF87
:102D60000901936B946B956B966B0A01D65101E048
:102D70009AD0FE0EDB28E66EFE0EDBCFE6FFBDDE50
:102D8000E552E55259C036F05AC037F05BC038F012
:102D9000396A38BE3968100E5D6E0E0E5E6E5F6A5F
:102DA000606A36C058F037C059F038C05AF039C0A0
:102DB0005BF04BEC75F054C036F055C037F056C0A0
:102DC00038F057C039F054C0E6FF55C0E6FF56C092
:102DD000E6FF57C0E6FFFE0EDB50030FE66EFE0E69
:102DE000DB50020FE66E89DEE552E552E552E7CF91
:102DF00039F0E552E7CF38F0E552E7CF37F0E5524A
:102E0000E7CF36F059C03AF05AC03BF05BC03CF017
:102E10003C0E5E6E5F6A606A80EC6FF056C03AF0FE
:102E200057C03BF058C03CF03D6A3CBE3D683A504C
:102E300036263B5037223C5038223D50392236C08E
:102E4000E6FF37C0E6FF38C0E6FF39C0E6FFFD0EFB
:102E5000DBCFE6FFFE0EDB50040FE66E4EDEE552E2
:102E6000E552E552E7CF39F0E552E7CF38F0E552C9
:102E7000E7CF37F0E552E7CF36F059C03EF05AC001
:102E80003FF05BC040F0416A40BE416836503E248E
:102E90000901936F37503F20946F38504020956F51
:102EA00039504120966F93C958F094C959F095C98B
:102EB0005AF096C95BF0E552E7CFD9FF1200D3CAAA
:102EC000D4FA0A01D351EA6A000FE96E070EEA222A
:102ED000EFCF97F92C0E0901975D09E02A0E975D57
:102EE00006E00A01D251D35D02E2D32BEBD70A01EF
:102EF000D305D56FD32BD451D55D02E3000E01D09D
:102F0000010ED66F12000A01D36B50C7D2FAD7DF79
:102F1000D6DFD5CAE6FFD4CAE6FF1EDFE552E5528A
:102F200058C0D8F459C0D9F45AC0DAF45BC0DBF405
:102F3000C6DFD5CAE6FFD4CAE6FF2ADEE552E5526F
:102F400058C0E6F459C0E7F45AC0E8F45BC0E9F4AD
:102F5000B6DF0A01D451EA6A000FE96E070EEA22D1
:102F6000EF50530809E1000E0401E66DE71FE72367
:102F7000E81FE823E91FE923A2DFD5CAE6FFD4CA88
:102F8000E6FF06DEE552E55258C0EAF459C0EBF41C
:102F90005AC0ECF45BC0EDF492DF0A01D451EA6A46
:102FA000000FE96E070EEA22EF50570809E1000E04
:102FB0000401EA6DEB1FEB23EC1FEC23ED1FED2367
:102FC0007EDFD5CAE6FFD4CAE6FF97DDE552E552BB
:102FD00059C0FDF474DFD5CAE6FFD4CAE6FF8DDD23
:102FE000E552E55259C0FCF46ADF030E0A01D55DD3
:102FF000E66ED4CAE6FF81DDE552E55259C039F0EC
:103000005AC03AF05BC03BF00A0E5E6E5F6A606ABF
:1030100080EC6FF056C039F057C03AF058C03BF022
:1030200056C0E6FF57C0E6FF58C0E6FF0A01D505C7
:10303000E66ED505E66E61DDE552E552E552E7CF75
:103040003BF0E552E7CF3AF0E552E7CF39F039509F
:103050005924366E3A505A20376E3B505B20386EFA
:1030600036C0FEF437C0FFF42ADF020E0A01D55D38
:10307000E66ED4CAE6FF41DDE552E55259C036F0AE
:103080005AC037F05BC038F0396A38BE39680A0E6A
:103090005D6E5E6A5F6A606A36C058F037C059F08C
:1030A00038C05AF039C05BF04BEC75F054C036F0C4
:1030B00055C037F056C038F057C039F054C0E6FF5D
:1030C00055C0E6FF56C0E6FF57C0E6FFD5CAE6FF8B
:1030D000D5CAE6FF12DDE552E552E552E7CF39F0F9
:1030E000E552E7CF38F0E552E7CF37F0E552E7CFCA
:1030F00036F059C03AF05AC03BF05BC03CF00A0EC3
:103100005E6E5F6A606A80EC6FF056C03AF057C03E
:103110003BF058C03CF03D6A3CBE3D683A50362614
:103120003B5037223C5038223D50392236C0E0F423
:1031300037C0E1F438C0E2F4010E0401FD5D03E3A1
:10314000060EFC5D02E2000E01D0010E0A01829D16
:10315000E8B0828D040E735C63E10501DD5104016A
:10316000FF19E8AE02D0FF3507D0FE510501DC5D46
:103170000401FF510501DD5905E2FEC4DCF5FFC481
:10318000DDF514D00401FF510501DB19E8AE02D0D2
:10319000DB3507D0DA510401FE5D0501DB51040186
:1031A000FF5904E2FEC4DAF5FFC4DBF50401FC516B
:1031B000366E376A0501D7513718E8AE02D037347A
:1031C00004D03650D65D3750D75906E20401FC5181
:1031D0000501D66FD76B15D00401FC51366E376AE6
:1031E00005013750C719E8AE02D0C73504D0C65123
:1031F000365CC751375805E20401FC510501C66F22
:10320000C76B0401FF3504E2FE510F08000EFF55A5
:1032100002E3000E01D0010E0A018397E8B0838714
:1032200012000A01D36B50C7D2FA49DE48DE47DEEE
:103230000A01D451EA6A000FE96E070EEA22EF5044
:10324000410801E03FD10A01828D39DED5CAE6FF8F
:10325000D4CAE6FF9DDCE552E55258C0E6F459C0F9
:10326000E7F45AC0E8F45BC0E9F429DE0A01D4515E
:10327000EA6A000FE96E070EEA22EF50530809E1EF
:10328000000E0401E66DE71FE723E81FE823E91FAE
:10329000E92315DED5CAE6FFD4CAE6FF79DCE5529C
:1032A000E55258C0EAF459C0EBF45AC0ECF45BC0E4
:1032B000EDF405DE0A01D451EA6A000FE96E070E4B
:1032C000EA22EF50570809E1000E0401EA6DEB1FF6
:1032D000EB23EC1FEC23ED1FED23F1DD080EE66E72
:1032E000D5CAE6FF0A01D505E66E7DEC15F0E5527C
:1032F000E55259C03AF05AC03BF05BC03CF03D6A21
:103300003CBE3D683AC0E6FF3BC0E6FF3CC0E6FF7E
:103310003DC0E6FF030E0A01D55DE66ED4CAE6FFA6
:103320007DEC15F0E552E552E552E7CF3DF0E55270
:10333000E7CF3CF0E552E7CF3BF0E552E7CF3AF07C
:1033400059C058F05AC059F05BC05AF05B6A5ABE77
:103350005B68640E5D6E5E6A5F6A606A4BEC75F076
:10336000545000013A24366E55503B20376E56506B
:103370003C20386E57503D20396E0D0E5D6E5E6AF2
:103380005F6A606A36C058F037C059F038C05AF0EA
:1033900039C05BF04BEC75F054C036F055C037F0D7
:1033A00056C038F057C039F054C0E6FF55C0E6FFAC
:1033B00056C0E6FF57C0E6FF8DEC47F03E6E050EA7
:1033C000E15E3E5058C0FAF459C0FBF478DD080EB7
:1033D000E66ED5CAE6FF0A01D505E66E7DEC15F06E
:1033E000E552E55259C03AF05AC03BF05BC03CF0A0
:1033F0003D6A3CBE3D683AC0E6FF3BC0E6FF3CC0CC
:10340000E6FF3DC0E6FF030E0A01D55DE66ED4CAB5
:10341000E6FF7DEC15F0E552E552E552E7CF3DF0D1
:10342000E552E7CF3CF0E552E7CF3BF0E552E7CF7E
:103430003AF059C058F05AC059F05BC05AF05B6A74
:103440005ABE5B68640E5D6E5E6A5F6A606A4BECD2
:1034500075F0545000013A24366E55503B20376EBB
:1034600056503C20386E57503D20396E2D0E5D6E03
:103470005E6A5F6A606A36C058F037C059F038C07B
:103480005AF039C05BF04BEC75F054C036F055C0C3
:1034900037F056C038F057C039F054C0E6FF55C079
:1034A000E6FF56C0E6FF57C0E6FF8DEC47F03E6EE4
:1034B000050EE15E3E5058C0F8F459C0F9F40A0117
:1034C000888912000A0188991200D9CFE6FFE1CF5E
:1034D000D9FF245001E198D0020A55E0040A33E0F4
:1034E000010A01E09CD0020E2B5C15E22C38F00B97
:1034F0002C6E410EF36EFE0EDBCFF4FFF350F45C46
:1035000004E3FE0EDB50C90F03D0FE0EDB50D00FDC
:103510002C262B2A84D025C050F729502C5C02E0A1
:10352000000E01D0010E0A018A93E8B08A838AA3B3
:1035300069D00A01D051010A04E0010A63E1E3DC29
:1035400061D06FDE5FD0FE0EDB502A0804E12C6AEA
:103550002B6A070E63D0FE0EDB50240803E1000E39
:10356000296E59D0FE0EDB50291A2550252AEA6A09
:10357000000FE96E070EEA22FE0EDBCFEFFF2550AB
:103580004F084DE23FD0FE0EDB50291A2650050DA4
:10359000F3CF36F0F4CF37F00E0E3626000E37227A
:1035A00027503624F66E000E3720F76E0800F550CF
:1035B000F36EFE0EDB50F35C05E0020E265C02E2C9
:1035C000262AE4D72650050DF3CF36F0F4CF37F096
:1035D0000E0E3626000E372227503624F66E000EC9
:1035E0003720F76E0800F550F36EFE0EDB50F35CEB
:1035F00009E1040E275C04E126C0D0FA060E0ED0C5
:10360000272A0DD0246A0BD0FE0EDB50240807E1D8
:10361000000E296E266E276E256E020E246EE55270
:10362000E7CFD9FF1200D7CA36F0D8CA37F0386AC8
:10363000396A37AE02D0386839681E0E361801E094
:10364000FED0375001E0FBD0385001E0F8D03950BF
:1036500001E0F5D00A018251400B01E1F0D080EC8D
:103660006DF059C07FF65AC080F65BC081F6D8C4B1
:10367000DCF4D9C4DDF4DAC4DEF4DBC4DFF4E6C480
:10368000EEF4E7C4EFF4E8C4F0F4E9C4F1F4EAC4FA
:10369000F2F4EBC4F3F4ECC4F4F4EDC4F5F4E6C4D2
:1036A0009CF9E7C49DF9E8C49EF9E9C49FF9C00EEE
:1036B0005D6E270E5E6E090E5F6E606AE6C458F09E
:1036C000E7C459F0E8C45AF0E9C45BF01FEC6FF0AE
:1036D00058C09CF959C09DF95AC09EF95BC09FF92A
:1036E0000901800E5B1409E0000E9C6D9D1F9D2357
:1036F0009E1F9E239F1F9F2302D09FC99FF99CC995
:1037000036F09DC937F09EC938F09FC939F0F60EE2
:103710005D6E0D0E5E6E5F6A606A9CC958F09DC951
:1037200059F09EC95AF09FC95BF04BEC75F054C03C
:1037300036F055C037F056C038F057C039F00B0E90
:10374000D8903932383237323632E806F9E136C0AD
:103750009CF937C09DF938C09EF939C09FF936C031
:10376000E6FF37C0E6FF7DEC49F0E552E552F3CFC6
:10377000F6F4F4CFF7F4E0C4E3F4E1C4E4F4E2C413
:10378000E5F40401FA6BFB6BE0C436F0E1C437F0FA
:10379000E2C438F0640E5E6E5F6A606AE0C459F09D
:1037A000E1C45AF0E2C45BF0F2EC6EF059C036F0BE
:1037B0005AC037F05BC038F059C0E6FF5AC0E6FF88
:1037C0000C0EE66E010EE66E5AEC71F0E552E55213
:1037D000E552E552E6C4E6FFE7C4E6FFE8C4E6FFCB
:1037E000E9C4E6FF0E0EE66E010EE66E8AEC71F09D
:1037F000366E060EE15E3650EAC4E6FFEBC4E6FF25
:10380000ECC4E6FFEDC4E6FF120EE66E010EE66EB6
:103810008AEC71F0366E060EE15E36500A0182BF08
:103820000DD0E66A080EE66EB6EC20F0E552E552E1
:10383000010E0501D86FD96B0A01828F85891200AC
:103840000A0182AD1DD180EC6DF059C0A0F95AC0BB
:10385000A1F95BC0A2F97F0EE96E060EEA6EEE508A
:10386000595C366EEE505A58376EEE505B5836C083
:10387000A3F937C0A4F959C07FF65AC080F65BC0DF
:1038800081F6D7CA36F0D8CA37F0386A396A37AE07
:1038900002D038683968D8903950000A08E61E0E00
:1038A000365C000E3758000E3858000E395822E2A8
:1038B0000A01829DFEC436F0FFC437F0386A396AC7
:1038C00037AE02D0386839683934000E391809E645
:1038D000D8800F0E3654000E3754000E3854000EA8
:1038E000395405E30A01D72B000ED82303D00A016F
:1038F000D76BD86B0A0182AF92D0EE0EE96E040E40
:10390000EA6EEE500401E65D366EEE50E759376E12
:10391000EE50E859386EEE50E959396E36C0E6FF80
:1039200037C0E6FF38C0E6FFE66EF7EC14F0E5526C
:10393000E552E552E55258C057F759C058F75AC0FA
:1039400059F7080EE66EF6C43EF0F7C43FF0406A41
:10395000416A3FAE02D0406841683EC0E6FF3FC0CA
:10396000E6FF40C0E6FF41C0E6FFF20EE96E040E3E
:10397000EA6EEE500401EA5D3A6EEE50EB593B6E92
:10398000EE50EC593C6EEE50ED593D6E3AC0E6FFFC
:103990003BC0E6FF3CC0E6FFE66EF7EC14F0E552F4
:1039A000E552E552E552E552E7CF41F0E552E7CF67
:1039B00040F0E552E7CF3FF0E552E7CF3EF03EC0A2
:1039C0005DF03FC05EF040C05FF041C060F04BEC86
:1039D00075F054C036F055C037F056C038F057C0B7
:1039E00039F054C0E6FF55C0E6FF56C0E6FF57C0A9
:1039F000E6FF8DEC47F0050EE15E58C068F759C050
:103A000069F75AC06AF757C75DF758C75EF759C7D5
:103A10005FF758C06EF759C06FF75AC070F7040EC1
:103A2000735C37E1C0C536F0C1C537F0386A37BEC0
:103A3000386838500401E219E8AE02D0E23506D009
:103A4000E051365CE1513758E251385804E2E0C4A5
:103A5000C0F5E1C4C1F50501CD510401FB19E8AE83
:103A600002D0FB3507D0FA510501CC5D0401FB51B2
:103A70000501CD590EE2FAC4CCF5FBC4CDF5120018
:103A8000D7CAFCF4040E735C04E10501D42B000ECC
:103A9000D52312000A018A51020B1BE12F502D1869
:103AA00002E130502E1815E0000E2F24E96E020EB0
:103AB0003020EA6EEFCFA5F9010E2F26000E30223E
:103AC000FF0E2F16000E3016A5C9E6FFFEDCE552EC
:103AD000E1D78AA330D0020EE66E18EC74F0E552FE
:103AE000040EE66E24EC74F0E5520A018A93A8DE17
:103AF0000A0182AD1ED0040EE66E24EC74F0E5528D
:103B00000A01879780EC6DF059C036F05AC037F043
:103B10005BC038F0396AD00E3626070E3722000E09
:103B20003822392236C088F637C089F638C08AF67E
:103B300013D0859D0CD080EC6DF059500601885D46
:103B40005A5089595B508A5907E20A01829D040E36
:103B5000E66E18EC74F0E552020EE66E24EC74F09A
:103B6000E55212000A01D36B0401F66B010EF76FE8
:103B7000FE6BFF6BFC6BFCC4FDF4FCC4D8F4D96B8A
:103B8000DA6BDB6B000EFA6FFB6BF86FF96BE06FB3
:103B9000E16BE26BE1BFE269E66BE76BE86BE96B57
:103BA000E6C4EEF4E7C4EFF4E8C4F0F4E9C4F1F4D9
:103BB000EA6BEB6BEC6BED6BEAC4F2F4EBC4F3F481
:103BC000ECC4F4F4EDC4F5F4E66AE66AE66AE66A83
:103BD0000E0EE66E010EE66E8AEC71F0366E060E83
:103BE000E15E3650E66AE66AE66AE66A120EE66E5C
:103BF000010EE66E8AEC71F0366E060EE15E36500E
:103C0000000EE66EE66A0C0EE66E010EE66E5AECEB
:103C100071F0E552E552E552E5520A01D76BD86BD7
:0C3C20000A018A93829D829F246A120090
:043C2C007BBA05D08A
:103C3000200EE66E18EC74F004D0200EE66E24EC34
:103C400074F0E5520A0186A105D0080EE66E18EC64
:103C500074F004D0080EE66E24EC74F0E552800E89
:103C6000E66E24EC74F0E55280EC6DF059C005F975
:103C70005AC006F95BC007F9F40E09010527010EC9
:103C80000623000E0723DEEC02F0010E766EA7EC91
:103C900062F0010E766E2AEC2FF00A01839D86A158
:103CA0005CD0080EE66E18EC74F0E5520A0186A7A7
:103CB0005ED058EC56F042C640F643C641F6000EC0
:103CC00006013C6F3D6B0601426F436B16EC2CF016
:103CD00080EC6DF059500901055D5A5006595B5052
:103CE000075932E20A018551020B2EE138EC37F018
:103CF0000A018695E8B086858451010B06E183515F
:103D0000800B03E18651040B13E17BBE05D0800ECE
:103D1000E66E18EC74F004D0800EE66E24EC74F0BD
:103D2000E5527BB405D0040EE66E18EC74F004D0B6
:103D3000040EE66E24EC74F0E552F40E090105273A
:103D4000010E0623000E07230B010C0710E145ECC2
:103D500036F00B01010E0C6F0AD0040EE66E18EC63
:103D600074F0E552080EE66E24EC74F0E55257EC60
:103D700032F00A018651010B01E185D78050100B0A
:103D800004E00901005101E07ED70A018951400B8E
:103D900001E079D78451010B01E075D78351800B85
:103DA00001E071D78251040B01E06DD740C636F0B7
:103DB00041C637F0386A396A37AE02D03868396898
:103DC000D8903950000A08E6180E365C000E3758B5
:103DD000000E3858000E395801E355D78651040BB0
:103DE00001E151D70901006B800EE66E24EC74F0FE
:103DF000E552040EE66E24EC74F0E552080EE66E11
:103E000018EC74F0E5520A0186AB05D0200EE66E80
:103E100018EC74F004D0200EE66E24EC74F0E55239
:103E200080EC6DF059C001F95AC002F95BC003F98A
:103E30000901046B59C094F65AC095F65BC096F61A
:103E400059C036F05AC037F05BC038F004C939F0B9
:103E5000E80E3626030E3722000E3822392236C0ED
:103E600070F637C071F638C072F600CF36F0376A98
:103E7000386A396A010EE96E090EEA6EEE5036268E
:103E8000EE503722EE503822EE50392236C0AFF6CF
:103E900037C0B0F638C0B1F60A018297756A1200D1
:103EA000780EE66E790EE66E73EC58F0E552E55248
:103EB0008CEC00F031EC62F075EC44F09EEC63F0B9
:103EC00041EC2EF05DEC68F037EC6AF04BEC3EF024
:103ED0006A0EE66E790EE66E73EC58F0E552E55226
:103EE0000901096B400E095D62E2660EE66E790E0D
:103EF000E66E73EC58F0E552E55209010929E66EC9
:103F0000E66ABFEC58F0E552E552620EE66E790EB5
:103F1000E66E73EC58F0E552E55209010951EA6A80
:103F2000000FE96E080EEA22EFCF36F0376A36BE90
:103F3000376836C0E6FF37C0E6FF28EC59F0E55297
:103F4000E55209010951F66EF76AD890F636F73650
:103F5000150EF626EA0EF722010EF626000EF722BF
:103F60000800F55007E05F0EE66E790EE66E73EC22
:103F700058F018D0200EE66E93EC58F0E552400E43
:103F800009010925E66EE66A81EC70F0E552E5521A
:103F9000366E376A36BE376836C0E6FF37C0E6FF92
:103FA00028EC59F0E552E5520901092B9BD7120084
:103FB0003F0E926E020EC16EC00E816E400E936E69
:103FC000600E826E840E946EC78CF19E410EE66E7A
:103FD000E66A3C0EE66EC3EC74F0E552E552E5523B
:103FE0001200736A09010A6B0A0E0A5D09E20A519E
:103FF000EA6A820FE96E0A0EEA22EF6A0A2BF4D708
:104000000A018581858986850A017A6B7B6B7C6BC9
:104010007D6B060148697F0E496F48C646F6E8CFBA
:1040200047F648C64AF6E8CF4BF6140E06013E6F37
:104030003F6BF00E0601406F416BD00E0001BF6F69
:10404000C06B7B6A2E0EE66E24EC74F0E552040E13
:10405000E66E18EC74F0E552800EE66E24EC74F017
:10406000E5521200D9CFE6FFE1CFD9FFFD0EDBCF3D
:1040700036F0FE0EDBCF37F0386A37BE386836C010
:10408000E6FF37C0E6FF38C0E6FF80EC6DF0E55292
:10409000E7CF38F0E552E7CF37F0E552E7CF36F01B
:1040A0005950362409010B6F5A5037200C6F5B5062
:1040B00038200D6F0B2B000E0C230D2380EC6DF0C0
:1040C00009010B51595C0C515A580D515B58F6E3DC
:1040D000E552E7CFD9FF1200D9CFE6FFE1CFD9FFF4
:1040E000FD0EDBCF36F0FE0EDBCF37F0640E37026D
:1040F000F3CF37F03602F3CF36F0F4503726386A74
:1041000037BE386836C0E6FF37C0E6FF38C0E6FF86
:1041100080EC6DF0E552E7CF38F0E552E7CF37F0AD
:10412000E552E7CF36F05950362409010E6F5A5048
:1041300037200F6F5B503820106F80EC6DF0090155
:104140000E51595C0F515A5810515B580BE2020E38
:104150000F01005DE66EE66A85DFE552E55216EC7A
:104160002CF0EBD7E552E7CFD9FF1200D9CFE6FF0D
:10417000E1CFD9FF800EE66E18EC74F0E552FE0E2A
:10418000DBCFE6FFE66AA8DFE552E552800EE66E79
:1041900024EC74F0E552FD0EDBCFE6FFE66A9CDF0F
:1041A000E552E552E552E7CFD9FF1200D9CFE6FF3D
:1041B000E1CFD9FF0901116BFE0EDB50115D0AE260
:1041C000080EE66E020EE66ED1DFE552E5520901F9
:1041D000112BF2D7E66A080EE66EC8DFE552E5520B
:1041E000E552E7CFD9FF120080EC6DF059C012F90B
:1041F0005AC013F95BC014F9120EE96E090EEA6E8B
:1042000006019751EE5C9851EE589951EE5801E233
:10421000BFD0765001E1BCD012C997F613C998F609
:1042200014C999F6E80E9727030E9823000E9923D8
:10423000766ABCC058F0BDC059F05A6A5B6A59AE84
:1042400002D05A685B68040E5D6E5E6A5F6A606ADF
:104250004BEC75F054C072FA55C073FA940EE96EC7
:10426000060EEA6EEE500901125D3D6EEE501359D6
:104270003E6EEE5014593F6E54C03AF055C03BF0BC
:104280003C6A3BBE3C683AC059F03BC05AF03CC067
:104290005BF03DC05EF03EC05FF03FC060F080EC80
:1042A0006FF0396A56500A017A2757507B235850CD
:1042B0007C2339507D2312C994F613C995F614C98D
:1042C00096F67ACA36F07BCA37F07CCA38F07DCAD7
:1042D00039F05D6A400E5E6E380E5F6E606A7ACAB3
:1042E00058F07BCA59F07CCA5AF07DCA5BF01FECCB
:1042F0006FF058C036F059C037F05AC038F05BC084
:1043000039F0320E5D6E5E6A5F6A606A4BEC75F082
:1043100054C036F055C037F056C038F057C039F0A9
:1043200054C078FA55C079FAE66ABAEC75F0E552ED
:10433000F3CF15F9F4CF16F9010EE66E0A017051AC
:104340000901F324366E0A0171510901F420376E18
:1043500036C0E6FFE66E3DEC47F0E552E552E55229
:10436000F3CF70FAF4CF71FA0A01F4507519E8AE80
:1043700002D0753504D07451705D7551715902E3E6
:10438000000E01D0010E010B0A01829BE8B0828B66
:104390001200765001E1BDD0766A0A018251200BED
:1043A00011E18251080B0EE18251010B06E08351AD
:1043B000400B03E08951100B05E1030E735C02E032
:1043C000000E01D0010E8893E8B0888388A392D0B4
:1043D00082AB0AD00B01580E0D6F020E0E6F580EF5
:1043E0000F6F020E106F21D08251010B0CE0835130
:1043F000400B09E08951100B06E0C80E0B010D6F50
:104400000E6B140E10D0030E735C07E10B018E0EC1
:104410000D6F120E0E6FFA0E06D082A706D07D0E1B
:104420000B010D6F0E6B0F6F106B80EC6DF0595020
:104430000601A05D5A50A1595B50A2596AE27BAEB9
:104440002CD00DCB36F00ECB37F0386A37BE38683B
:1044500036C0E6FF37C0E6FF38C0E6FF80EC6DF0FF
:10446000E552E7CF38F0E552E7CF37F0E552E7CF36
:1044700036F0595036240601A06F5A503720A16FEC
:104480005B503820A26F800EE66E24EC74F0E5528B
:10449000040EE66E24EC74F02BD00FCB36F010CB6C
:1044A00037F0386A37BE386836C0E6FF37C0E6FFF7
:1044B00038C0E6FF80EC6DF0E552E7CF38F0E5520A
:1044C000E7CF37F0E552E7CF36F0595036240601F2
:1044D000A06F5A503720A16F5B503820A26F800E1A
:1044E000E66E18EC74F0E552040EE66E18EC74F00B
:1044F000E552120080EC6DF0595006016A5D5A5089
:104500006B595B506C5905E2800EE66E24EC74F03A
:10451000E5521200D9CFE6FFE1CFD9FFFE0EDBCF87
:1045200037F0800E37141EE0FB0EDBCF36F0FC0EAA
:10453000DBCF37F0D950FD0FE96EFF0EDA20EA6EBF
:104540003650EE263750ED22FD0EDBCF36F0FE0E54
:10455000DBCF37F037342EE236500008000E3754E8
:1045600029E224D0FD0EDBCF36F0FE0EDBCF37F094
:10457000373420E236500008000E37541BE2FB0EA1
:10458000DBCF36F0FC0EDBCF37F0D950FD0FE96EF4
:10459000FF0EDA20EA6E3650EE5E3750ED5AFD0E11
:1045A000FE0EDBCF37F0800E371404E0FD0EDB6A21
:1045B000FE0EDB6AFD0EDBCF36F0FE0EDBCF37F0F2
:1045C00036C0F3FF37C0F4FFE552E7CFD9FF120042
:1045D000D9CFE6FFE1CFD9FFF90EDBCF36F0FA0EE7
:1045E000DBCF37F0386A396A37AE02D038683968BD
:1045F000D950FB0FE96EFF0EDA20EA6E030EEBCF07
:10460000F3FF3950F318E8AE02D0F33408D0EE507F
:10461000365CEE503758EE503858EE5039581BE2A1
:10462000F90EDBCF36F0FA0EDBCF37F0386A396A95
:1046300037AE02D038683968D950FB0FE96EFF0EEB
:10464000DA20EA6E3650EE5E3750EE5A3850EE5AA7
:104650003950EE5A49D0F90EDBCF36F0FA0EDBCFE7
:1046600037F0366C371E000E3722386A396A37AE9B
:1046700002D038683968D950FB0FE96EFF0EDA2096
:10468000EA6E030EEB503918E8AE02D0393408D088
:104690003650EE5C3750EE583850EE583950EE58E0
:1046A0001BE2F90EDBCF36F0FA0EDBCF37F0386ABB
:1046B000396A37AE02D038683968D950FB0FE96ED5
:1046C000FF0EDA20EA6E3650EE263750EE223850D2
:1046D000EE223950EE2208D0FB0EDB6AFC0EDB6ABC
:1046E000FD0EDB6AFE0EDB6AFB0EDBCF36F0FC0E46
:1046F000DBCF37F0FD0EDBCF38F0FE0EDBCF39F02D
:1047000036C058F037C059F038C05AF039C05BF0A5
:10471000E552E7CFD9FF1200D9CFE6FFE1CFD9FFAD
:10472000F60EDBCF39F0800E39140BE0F50EDBCF3F
:1047300036F0F60EDBCF37F0366C371E000E372220
:1047400006D0F50EDBCF36F0F60EDBCF37F0F50EE8
:1047500036C0DBFFF60E37C0DBFFF50EDBCF36F0E1
:10476000F60EDBCF37F0386A396A37AE02D03868D8
:104770003968D950FB0FE96EFF0EDA20EA6E365029
:10478000EE5C0901176F3750EE58186F3850EE582D
:10479000196F3950EE581A6FF50EDBCF36F0F60E62
:1047A000DBCF37F0386A396A37AE02D038683968FB
:1047B000D950FB0FE96EFF0EDA20EA6EEE50362478
:1047C0001B6FEE5037201C6FEE5038201D6FEE50DF
:1047D00039201E6FD950F70FE96EFF0EDA20EA6E0E
:1047E000030EEB501A19E8AE02D01A3508D0175153
:1047F000EE5C1851EE581951EE581A51EE5809E274
:1048000017C936F018C937F019C938F01AC939F084
:104810002DD0D950F70FE96EFF0EDA20EA6E030EA5
:10482000EBCFF3FF1E51F318E8AE02D0F33408D0FB
:10483000EE501B5DEE501C59EE501D59EE501E59A6
:1048400009E21BC936F01CC937F01DC938F01EC972
:1048500039F00CD0F70EDBCF36F0F80EDBCF37F0A7
:10486000F90EDBCF38F0FA0EDBCF39F036C058F056
:1048700037C059F038C05AF039C05BF0E552E7CF85
:10488000D9FF1200D9CFE6FFE1CFD9FFE150F30FF6
:10489000E96EFF0EDA20EA6EEE50ED1019E1FD0E22
:1048A000DBCFE9FFFE0EDBCFEAFFF80EDBCFEEFF3A
:1048B000F90EDBCFEDFFFB0EDBCFE9FFFC0EDBCF0C
:1048C000EAFFF50EDBCFEEFFF60EDBCFEDFFF1D00A
:1048D000F30EDBCFE6FFF40EDBCFE6FF7DEC49F015
:1048E000E552E552F3CF1FF9F4CF20F9F30EDBCFF9
:1048F000E6FFF40EDBCFE6FF04EC49F0E552E552AB
:10490000F3CF21F9F4CF22F9080EE66E1FC93DF06E
:1049100020C93EF03F6A3EBE3F683DC059F03EC0F0
:104920005AF03FC05BF0F80EDBCF5EF0F90EDBCF44
:104930005FF0FA0EDBCF60F080EC6FF056C03AF01B
:1049400057C03BF058C03CF021C940F022C941F0AB
:10495000426A41BE426840C059F041C05AF042C06C
:104960005BF0F50EDBCF5EF0F60EDBCF5FF0F70EFF
:10497000DBCF60F080EC6FF03A505624366E3B503F
:104980005720376E3C505820386E396A38BE396827
:1049900036C0E6FF37C0E6FF38C0E6FF39C0E6FFA5
:1049A0008DEC47F0436E050EE15E435058C023F98D
:1049B00059C024F9080EE66E21C942F022C943F01D
:1049C000446A43BE4468F80EDBCF3FF0F90EDBCFFC
:1049D00040F0FA0EDBCF41F05E685F6860683FC070
:1049E00059F040C05AF041C05BF080EC6FF056C007
:1049F0003FF057C040F058C041F056C059F057C082
:104A00005AF058C05BF042C05EF043C05FF044C053
:104A100060F080EC6FF056C03CF057C03DF058C0DD
:104A20003EF01FC945F020C946F0476A46BE4768B8
:104A300045C059F046C05AF047C05BF0F50EDBCFD9
:104A40005EF0F60EDBCF5FF0F70EDBCF60F080ECB0
:104A50006FF03C505624386E3D505720396E3E5012
:104A600058203A6E3B6A3ABE3B6838C0E6FF39C010
:104A7000E6FF3AC0E6FF3BC0E6FF8DEC47F0486E2C
:104A8000050EE15E485059C037F0FB0EDBCFE9FF61
:104A9000FC0EDBCFEAFF58C0EEFF37C0EDFFFD0E86
:104AA000DBCFE9FFFE0EDBCFEAFF23C9EEFF24C90F
:104AB000EDFFE552E7CFD9FF1200D9CFE6FFE1CFF6
:104AC000D9FFF40EDB5019E1FD0EDBCFE9FFFE0E3E
:104AD000DBCFEAFFF80EDBCFEEFFF90EDBCFEDFF09
:104AE000FB0EDBCFE9FFFC0EDBCFEAFFF50EDBCFE1
:104AF000EEFFF60EDBCFEDFFF7D0F40EDBCFE9FFD4
:104B0000EA6AE9BEEA68D890E936EA36000EE92694
:104B1000050EEA22EECF25F9EDCF26F9F40EDBCF14
:104B2000E9FFEA6AE9BEEA68D890E936EA36600E3B
:104B3000E926050EEA22EECF27F9EDCF28F9080E77
:104B4000E66E27C93DF028C93EF03F6A3EBE3F6889
:104B50003DC059F03EC05AF03FC05BF0F80EDBCFCD
:104B60005EF0F90EDBCF5FF0FA0EDBCF60F080EC89
:104B70006FF056C03AF057C03BF058C03CF025C922
:104B800040F026C941F0426A41BE426840C059F037
:104B900041C05AF042C05BF0F50EDBCF5EF0F60E7E
:104BA000DBCF5FF0F70EDBCF60F080EC6FF03A50B8
:104BB0005624366E3B505720376E3C505820386E86
:104BC000396A38BE396836C0E6FF37C0E6FF38C0FC
:104BD000E6FF39C0E6FF8DEC47F0436E050EE15E5F
:104BE000435058C029F959C02AF9080EE66E25C964
:104BF00042F026C943F0446A43BE4468F80EDBCF56
:104C00003FF0F90EDBCF40F0FA0EDBCF41F05E68EB
:104C10005F6860683FC059F040C05AF041C05BF027
:104C200080EC6FF056C03FF057C040F058C041F0E4
:104C300056C059F057C05AF058C05BF042C05EF001
:104C400043C05FF044C060F080EC6FF056C03CF0B1
:104C500057C03DF058C03EF027C945F028C946F07E
:104C6000476A46BE476845C059F046C05AF047C03B
:104C70005BF0F50EDBCF5EF0F60EDBCF5FF0F70EEC
:104C8000DBCF60F080EC6FF03C505624386E3D5026
:104C90005720396E3E5058203A6E3B6A3ABE3B6808
:104CA00038C0E6FF39C0E6FF3AC0E6FF3BC0E6FF8A
:104CB0008DEC47F0486E050EE15E485059C037F064
:104CC000FB0EDBCFE9FFFC0EDBCFEAFF58C0EEFFA7
:104CD00037C0EDFFFD0EDBCFE9FFFE0EDBCFEAFFB5
:104CE00029C9EEFF2AC9EDFFE552E7CFD9FF12002F
:104CF00023C8E9FFEA6AE9BEEA68D890E936EA36ED
:104D0000A40EE9260A0EEA22EECFE6FFEFCFE6FF79
:104D100073EC58F0E552E5521200D9CFE6FFE1CF2F
:104D2000D9FFFD0EDBCF38F0FE0EDBCF39F0D89087
:104D3000395004E6010E385C000E395802E2010ECB
:104D40000ED0FD0EDBCF3AF0FE0EDBCF3BF03B3456
:104D500009E23A50D008000E3B5404E2D00E366E01
:104D6000376A04D0FD0EDBCF36F0FE0E3650E5522A
:104D7000E7CFD9FF1200D9CFE6FFE1CFD9FFFE0E72
:104D8000DBCF39F0800E391402E0366A19D0FD0EFF
:104D9000DBCF3AF0FE0EDBCF3BF00001C0513B18F9
:104DA000E8AE02D03B3404D03A50BF5D3B50C0590E
:104DB00003E2BFC036F004D0FD0EDBCF36F0FE0EAE
:104DC0003650E552E7CFD9FF1200D9CFE6FFE1CF49
:104DD000D9FFFD0EDBCF86F0FE0EDBCF87F086C05D
:104DE00084F087C085F086C082F087C083F086C0DB
:104DF00080F087C081F05A685B6866C05FF067C06A
:104E000060F053EC6FF06A50585C366E6B50595836
:104E1000376E365000018227375083236A50665C14
:104E2000366E6B506758376E36508427375085235F
:104E30005A685B6868C05FF069C060F053EC6FF05F
:104E400058506A24366E59506B20376E3650000128
:104E500080273750812368506A24366E69506B2052
:104E6000376E3650862737508723E552E7CFD9FF74
:104E70001200D9CFE6FFE1CFD9FF0001815183199C
:104E8000E8AE02D0833504D08251805D83518159D0
:104E900005E282C0CFF083C0D0F004D080C0CFF054
:104EA00081C0D0F0D16BD0BFD16984C036F085C04D
:104EB00037F0386A37BE3868D1513818E8AE02D0BA
:104EC000383406D03650CF5D3750D0593850D1598C
:104ED00009E284C0CFF085C0D0F0D16BD0AF04D050
:104EE000D16902D0D1C0D1F086C036F087C037F08A
:104EF000386A37BE3868D1513818E8AE02D0383435
:104F000006D03650CF5D3750D0593850D15909E2CC
:104F100086C0CFF087C0D0F0D16BD0AF04D0D169BC
:104F200002D0D1C0D1F0FD0EDBCF36F0FE0EDBCFCC
:104F300037F0386A37BE3868CF0EE96E000EEA6E79
:104F40003650EE5CD26F3750EE58D36F3850EE5873
:104F5000D46FE834000ED41907E6D880000ED2557D
:104F6000000ED355000ED45501E3DCD1D00E396EBE
:104F70003A6A3B6AFD0EDBCF3CF0FE0EDBCF3DF024
:104F80003E6A3DBE3E683C50395C366E3D503A58F4
:104F9000376E3E503B5837C038F036C037F0366A6F
:104FA00036C059F037C05AF038C05BF0D2C05EF05E
:104FB000D3C05FF0D4C060F0F2EC6EF0D8905B50DC
:104FC000000A06E6000E595C000E5A58000E5B58A7
:104FD0003AE2D00E426E436A446AFD0EDBCF45F0E2
:104FE000FE0EDBCF46F0476A46BE47684550425C3E
:104FF0003F6E46504358406E4750445840C041F0C1
:105000003FC040F03F6A3FC059F040C05AF041C035
:105010005BF0D2C05EF0D3C05FF0D4C060F0F2ECC1
:105020006EF059C0C9F05AC0CAF05BC0CBF05E68E0
:105030005F68606880EC6FF056C0C9F057C0CAF076
:1050400058C0CBF02ED0D00E4B6E4C6A4D6AFD0E80
:10505000DBCF4EF0FE0EDBCF4FF0506A4FBE5068F4
:105060004E504B5C486E4F504C58496E50504D5806
:1050700049C04AF048C049F0486A48C059F049C0A0
:105080005AF04AC05BF0D2C05EF0D3C05FF0D4C02B
:1050900060F0F2EC6EF059C0C9F05AC0CAF05BC0C3
:1050A000CBF0FD0EDBCF39F0FE0EDBCF3AF03B6AE2
:1050B0003ABE3B683EC63CF03FC63DF03E6A3DBE50
:1050C0003E683C50395C366E3D503A58376E3E5023
:1050D0003B5837C038F036C037F0366A36C059F022
:1050E00037C05AF038C05BF0D2C05EF0D3C05FF07A
:1050F000D4C060F0F2EC6EF0D8905B50000A06E687
:10510000000E595C000E5A58000E5B583DE2FD0E31
:10511000DBCF42F0FE0EDBCF43F0446A43BE44686F
:105120003EC645F03FC646F0476A46BE4768455012
:10513000425C3F6E46504358406E4750445840C012
:1051400041F03FC040F03F6A3FC059F040C05AF0C4
:1051500041C05BF0D2C05EF0D3C05FF0D4C060F05D
:10516000F2EC6EF059C0CCF05AC0CDF05BC0CEF07E
:105170005E685F68606880EC6FF056C0CCF057C026
:10518000CDF058C0CEF031D0FD0EDBCF4BF0FE0E8F
:10519000DBCF4CF04D6A4CBE4D683EC64EF03FC66C
:1051A0004FF0506A4FBE50684E504B5C486E4F50A7
:1051B0004C58496E50504D5849C04AF048C049F0CB
:1051C000486A48C059F049C05AF04AC05BF0D2C0A2
:1051D0005EF0D3C05FF0D4C060F0F2EC6EF059C066
:1051E000CCF05AC0CDF05BC0CEF0C90EE96E000E17
:1051F000EA6E020EEB500001CE19E8AE02D0CE35B9
:1052000006D0CC51EE5CCD51EE58CE51EE5807E2AF
:10521000C9C0C6F0CAC0C7F0CBC0C8F006D0CCC069
:10522000C6F0CDC0C7F0CEC0C8F0C835000EC81952
:1052300007E6D880000EC655000EC755000EC855AB
:1052400004E3010EC66FC76BC86BD890C851000A43
:1052500006E6000EC65D010EC759000EC85960E291
:10526000010EC56F66C036F067C037F0386A37BECA
:10527000386836C059F037C05AF038C05BF0C6C045
:105280005EF0C7C05FF0C8C060F080EC6FF056C041
:10529000D5F057C0D6F058C0D7F057C066F058C008
:1052A00067F068C036F069C037F0386A37BE3868D2
:1052B00036C059F037C05AF038C05BF0C6C05EF057
:1052C000C7C05FF0C8C060F080EC6FF056C0D5F08A
:1052D00057C0D6F058C0D7F057C068F058C069F032
:1052E0006AC036F06BC037F0386A37BE386836C0EF
:1052F00059F037C05AF038C05BF0C6C05EF0C7C086
:105300005FF0C8C060F080EC6FF056C0D5F057C0B9
:10531000D6F058C0D7F057C06AF058C06BF003D031
:10532000C56B01D0C56BE552E7CFD9FF120006016E
:105330003D5106013F19E8AE02D03F3507D03E513E
:1053400006013C5D06013F5106013D5903E20001A3
:10535000BC6B2DD03CC6BCF03DC6BDF0040E735CEA
:105360002AE10F0116510001BC270F01175100015E
:10537000BD23BD5106013F19E8AE02D03F3507D02D
:105380003E510001BC5D06013F510001BD5905E2DF
:105390003EC6BCF03FC6BDF00ED00001BD3509E2EF
:1053A000BC51BB08000EBD5504E2BB0EBC6FBD6B0B
:1053B00002D0BDC0BDF006013F510001BD19E8AEED
:1053C00002D0BD3507D0BC5106013E5D0001BD5184
:1053D00006013F5919E2BCC0E6FFBDC0E6FFF5DC9F
:1053E000E552E552BCC0E6FFBDC0E6FF42DDE55236
:1053F000E5520001C55118E0BCC0E6FFBDC0E6FFA4
:10540000E4DCE552E5521200BCC084F0BDC085F07A
:10541000BCC082F0BDC083F0BCC080F0BDC081F0D4
:10542000BCC086F0BDC087F01200F0C9E6FF1AC408
:1054300036F01BC437F0386A37BE386836C0E6FF2E
:1054400037C0E6FF38C0E6FF62C439F063C43AF003
:105450003B6A3ABE3B6839C0E6FF3AC0E6FF3BC054
:10546000E6FF020EE66E0F0EE66E040EE66E0F0EFF
:10547000E66E5DEC25F03C6E0B0EE15E3C5012C812
:1054800039F03A6A3B6A39AE02D03A683B6802CFDB
:1054900036F003CF37F0386A37BE386836C059F077
:1054A00037C05AF038C05BF039C05EF03AC05FF0E8
:1054B0003BC060F080EC6FF056C0DFF057C0E0F00A
:1054C00058C0E1F027C836F0376A36BE37680001A9
:1054D000E0513624E26FE1513720E36FE46BE56B76
:1054E000E3AF02D0E469E569B0C036F0B1C037F08F
:1054F000386A396A37AE02D03868396836C058F031
:1055000037C059F038C05AF039C05BF0E2C05DF0E6
:10551000E3C05EF0E4C05FF0E5C060F04BEC75F016
:1055200054C0E2F055C0E3F056C0E4F057C0E5F0D7
:105530006F0E0001E227000EE323E423E523020EB1
:10554000E66EE66AE2C0E6FFE3C0E6FFE4C0E6FF1F
:10555000E5C0E6FF88C036F089C037F0386A396A9E
:1055600037AE02D03868396836C0E6FF37C0E6FF8C
:1055700038C0E6FF39C0E6FF8CEC23F03A6E0A0E25
:10558000E15E3A5058C088F059C089F019C839F026
:105590003A6A3B6A39AE02D03A683B6804CF36F0CB
:1055A00005CF37F0386A37BE386836C059F037C093
:1055B0005AF038C05BF039C05EF03AC05FF03BC0D3
:1055C00060F080EC6FF056C0DFF057C0E0F058C0DC
:1055D000E1F0010EE66E44C636F045C637F0030E24
:1055E0003702F3CF37F03602F3CF36F0F4503726D8
:1055F000F3CFE6FF37C0E6FF3DEC47F0E552E5525A
:10560000E5520001E051F324E66FE151F420E76F29
:10561000E86BE96BE7AF02D0E869E969B2C036F040
:10562000B3C037F0386A396A37AE02D038683968A3
:1056300036C058F037C059F038C05AF039C05BF066
:10564000E6C05DF0E7C05EF0E8C05FF0E9C060F082
:105650004BEC75F054C0E6F055C0E7F056C0E8F0EA
:1056600057C0E9F06F0E0001E627000EE723E8239C
:10567000E923020EE66EE66AE6C0E6FFE7C0E6FF53
:10568000E8C0E6FFE9C0E6FF8AC036F08BC037F01D
:10569000386A396A37AE02D03868396836C0E6FFF2
:1056A00037C0E6FF38C0E6FF39C0E6FF8CEC23F0D8
:1056B0000A0EE15E58C08AF059C08BF01200080152
:1056C0002351010A74E0020A31E0010A01E01200EC
:1056D000ADEC61F0100EE66EC9EC61F0E552000130
:1056E000EB6FEA6B040EEA5D1AE2EA51E96EEA6AD0
:1056F000D890E936EA36800EE926000EEA22EECF8F
:10570000E6FFEFCFE6FFBBEC26F0E552E552E66E92
:10571000C9EC61F0E5520001EB27EA2BE3D7BCECC2
:1057200061F00001EB51B46FB56B12000001EA6B40
:10573000040EEA5D01E379D0ADEC61F00001EA51BD
:10574000E824620FE66EC9EC61F0E5520001EB6FF0
:10575000EA51E96EEA6AD890E936EA36800EE9261F
:10576000000EEA22EECFE6FFEFCFE6FFBBEC26F01D
:10577000E552E552E8407F0BE66EC9EC61F0E55278
:105780000001EB27BCEC61F00001EB51E66EEA5141
:10579000E96EEA6AD890E936EA36B40EE926000ED8
:1057A000EA22E552E750EE6EED6AEA2BC1D700011E
:1057B000EA6B040EEA5D39E2ADEC61F00001EA51FA
:1057C000E824520FE66EC9EC61F0E5520001EB6F80
:1057D000EA51E96EEA6AD890E936EA36800EE9269F
:1057E000000EEA22EECFE6FFEFCFE6FFBBEC26F09D
:1057F000E552E552E66EC9EC61F0E5520001EB2797
:10580000BCEC61F00001EB51E66EEA51E96EEA6A28
:10581000D890E936EA36B40EE926000EEA22E552BF
:10582000E750EE6EED6AEA2BC4D712000A0185AB91
:1058300020D80A018551020B03E18050100B16E1BC
:1058400012C466F013C467F0666C671E000E672210
:105850005AC468F05BC469F0686C691E6922A2C40E
:105860006AF0A3C46BF06A6C6B1E6B2260DD15EFEF
:105870002AF0000E0001846F856B826F836B806F4E
:10588000816B866B876B0A01859B12000001F46BAC
:105890000A0EF45D1AE2F451E96EEA6AD890E9362C
:1058A000EA36940EE926000EEA22EE6AED6AF45119
:1058B000E96EEA6AD890E936EA36800EE926000EEB
:1058C000EA22EE6AED6AF42BE3D7D3DF6F0E000114
:0A58D000886F896B8A6F8B6B1200E2
:0658DA00D9CFE6FFE1CF8B
:1058E000D9FF0A01F75119E0FB0EDBCFD6F6FC0E0B
:1058F000DBCFD7F6FD0EDBCFD8F6D6C6D1F6D7C6AE
:10590000D2F6D8C6D3F6000E0601D46FD56B0F01C0
:10591000146F156B0A01F76B8CD1FB0EDBCF14FFF4
:10592000FC0EDBCF15FF190EE66EE66AD950FB0FB1
:10593000E96EFF0EDA20EA6EEECFE6FFEECFE6FF6D
:10594000EECFE6FFEFCFE6FFD1C636F0D2C637F096
:10595000D3C638F0396A38BE396836C0E6FF37C07A
:10596000E6FF38C0E6FF39C0E6FF8CEC23F03A6E64
:105970000A0EE15E3A5058C0D6F659C0D7F65AC062
:10598000D8F6030EE66ED1C63AF0D2C63BF0D3C6C7
:105990003CF0070E5E6E5F6A606AD1C659F0D2C6EF
:1059A0005AF0D3C65BF080EC6FF056C03AF057C0A7
:1059B0003BF058C03CF056500601D625366E575085
:1059C000D721376E5850D821386E396A38BE3968B9
:1059D00036C0E6FF37C0E6FF38C0E6FF39C0E6FF55
:1059E0008DEC47F03D6E050EE15E3D5058C0D6F699
:1059F00059C0D7F65AC0D8F6060158500F01145FA7
:105A0000060159500F01155BD10EE96E060EEA6EC4
:105A1000EE500601585C366EEE505958376EEE5017
:105A20005A58386E280E5E6E5F6A606A36C059F04A
:105A300037C05AF038C05BF080EC6FF056C036F0DB
:105A400057C037F056C0C9F657C0CAF60C0EE66EFE
:105A5000E66A386A396A37AE02D03868396836C0C3
:105A6000E6FF37C0E6FF38C0E6FF39C0E6FFD4C620
:105A70003AF0D5C63BF03C6A3D6A3BAE02D03C688A
:105A80003D683AC0E6FF3BC0E6FF3CC0E6FF3DC0D4
:105A9000E6FF8CEC23F03E6E0A0EE15E3E5058C0ED
:105AA000C9F659C0CAF6020EE66ED4C636F0D5C69F
