:020000040000FA
:06000000D7EF75F01200BD
:020006001200E6
:0600080041EF6AF0120056
:02000E00475059
:080010004747414750524D43A0
:060018003AEF6AF012004D
:02001E000E00D2
:10002000AEEC0000A30A00000A000000B9E50000E1
:10003000FF08000001000000A7EC0000CD0A00004E
:1000400007000000A3EC0000E80A00000400000024
:10005000A1EC0000FE0700000200000081E80000A3
:10006000FF000000010000009CEC0000FB06000007
:100070000500000082EC0000200A00001A000000C9
:1000800060EC0000C20900002200000058EC0000F3
:10009000B60A0000080000004CEC0000810A0000D5
:1000A0000C00000038EC0000EB0000001400000021
:1000B00016EC0000A00900002200000010EC000077
:0800C000D40A00000600000054
:0800C8000901836B0A013D816F
:1000D0003A810001300E8E6FF80E8F6F906900012B
:1000E000100E9E6F9F690A013CAB4BD036CF3CFF90
:1000F00037CF3DFF91C036F092C037F093C038F053
:10010000396A38BE39683934000E391809E6D880A2
:100110002C0E3654010E3754000E3854000E39544C
:1001200016E22BEC6AF052C036F053C037F054C0E0
:1001300038F0396A980E36263A0E3722000E3822E9
:10014000392236C079F637C07AF638C07BF62BEC08
:100150006AF052500601795D53507A5954507B59D8
:100160000AE20A013D51800B08E1040E6D5C05E0D6
:10017000030E6E5C02E0000E01D0010E0901836FD8
:100180006BD009017B510F01365D366E3751090185
:100190007C55376E0001800E371403E00F013C6B75
:1001A00013D009017B510F01365D386E37510901BB
:1001B0007C55396EE8340AE23850D008000E3954C4
:1001C00005E20F01D00E3C6F3D6B0BD07B510F0150
:1001D000365D0F013C6F09017C510F0137590F014A
:1001E0003D6F2BEC6AF0525006017C5D53507D59F7
:1001F00054507E5931E22BEC6AF052C036F053C0B5
:1002000037F054C038F0396AE80E3626030E37222C
:10021000000E3822392236C07CF637C07DF638C051
:100220007EF60F013D510F013F19E8AE02D03F3578
:1002300007D03E510F013C5D0F013F510F013D5969
:1002400002E3000E01D0010E0901836FE85004E1C2
:10025000050E7B27000E7C2309018351120099ECC7
:1002600050F02E0EE66E1AEC73F0E5526D6A030E36
:100270006C6E1200050EE66EE66A3AC4E6FF3BC4F9
:10028000E6FFE2EC2EF0E552E552E552E552F3CFFF
:100290003AF4F4CF3BF4050EE66EE66A82C4E6FF5C
:1002A00083C4E6FFE2EC2EF0E552E552E552E5525A
:1002B000F3CF82F4F4CF83F40401CA6BCB6B12004A
:1002C000000E0401A26FA36B5A6F5B6B126F136B6E
:1002D00062C7E6FF63C7E6FF64C7E6FF51C7E6FFF4
:1002E00052C7E6FF53C7E6FFDAD8366E060EE15E68
:1002F0003650120099EC50F00A013A87030E6C6EEA
:100300006E6ED4EC2CF0A9EC2DF0B8EC44F034EC8B
:1003100029F0C6EC50F0F5D70A013F9757C754F7BC
:1003200058C755F759C756F768C765F769C766F7DD
:100330006AC767F73D993C953C933F9D6D6A1200F3
:10034000D9CFE6FFE1CFD9FF0701926B936B946B96
:10035000FD0EDBCF36F0FE0EDBCF37F036C0F3FFFD
:1003600037C0F4FFE552E7CFD9FF12000A0163510D
:1003700009017F5D366E80510A016455376E36C0C3
:10038000E6FFE66EE9EC48F0E552E552F3CF84F97A
:10039000F4CF85F90901D880F45004E7E40E845DB8
:1003A000FF0E855904E2E40E846F85690DD0853512
:1003B00009E284511C08000E855504E21C0E846F6E
:1003C000856B02D085C985F9090EE66E81C946F0B4
:1003D00082C947F0486A496A47AE02D0486849680E
:1003E0009DC742F0436A446A456A42AE03D04368FF
:1003F0004468456884C93EF085C93FF0406A416A57
:100400003FAE02D0406841683EC051F03FC052F05C
:1004100040C053F041C054F042C056F043C057F0C2
:1004200044C058F045C059F041EC74F04DC03AF06A
:100430004EC03BF04FC03CF050C03DF04DC051F0BD
:100440004EC052F04FC053F050C054F046C056F06A
:1004500047C057F048C058F049C059F041EC74F01B
:100460004DC036F04EC037F04FC038F050C039F0B4
:100470004DC0E6FF4EC0E6FF4FC0E6FF50C0E6FFAE
:1004800025EC48F04A6E050EE15E4A5051C084F9F1
:1004900052C085F951C0F3FF52C0F4FF1200D9CF0A
:1004A000E6FFE1CFD9FF2BEC6AF052C086F953C0CA
:1004B00087F954C088F90901896B85C63AF086C668
:1004C0003BF087C63CF03D6A3A50525C366E3B507A
:1004D0005358376E3C505458386E3D508959396ED8
:1004E00036C07CFF37C07DFF38C07EFF52C085F626
:1004F00053C086F654C087F684C736F085C737F0F8
:10050000386A396A37AE02D038683968480E365EC4
:10051000000E375A385A395A36C081F937C082F935
:10052000800E371403E0816B826B0DD0823509E2B7
:1005300081510008010E825504E2816B010E826F29
:1005400002D082C982F9FC0EDBCF51F7FD0EDBCF62
:1005500052F7FE0EDBCF53F7F90EDBCF62F7FA0E40
:10056000DBCF63F7FB0EDBCF64F707015751515D1B
:100570005A6F585152595B6F595153595C6F6851BA
:10058000625D6B6F695163596C6F6A5164596D6F2D
:10059000800E5C1518E05AC792F95BC793F95CC7E7
:1005A00094F95768586859685AC752F05BC753F0B6
:1005B0005CC754F0FAEC6DF04FC092F950C093F95B
:1005C00051C094F906D05AC792F95BC793F95CC73A
:1005D00094F90701800E6D1518E06BC795F96CC78B
:1005E00096F96DC797F95768586859686BC752F004
:1005F0006CC753F06DC754F0FAEC6DF04FC095F92D
:1006000050C096F951C097F906D06BC795F96CC7E1
:1006100096F96DC797F9920EE96E090EEA6E020E11
:10062000EB5009019719E8AE02D0973506D09551E5
:10063000EE5C9651EE589751EE5807E295C972FF5D
:1006400096C973FF97C974FF06D092C972FF93C908
:1006500073FF94C974FF72CF36F073CF37F074CF45
:1006600038F0396A38BE3968D8903950000A08E63F
:10067000500E365C0B0E3758000E3858000E3958A5
:1006800042E295C952F096C953F097C954F095C902
:1006900057F096C958F097C959F0FAEC6DF04FC071
:1006A0003AF050C03BF051C03CF092C952F093C9AF
:1006B00053F094C954F092C957F093C958F094C9B3
:1006C00059F0FAEC6DF03A504F24366E3B50502002
:1006D000376E3C505120386E396A38BE396836C0A2
:1006E000E6FF37C0E6FF38C0E6FF39C0E6FF2AEC78
:1006F0004CF0E552E552E552E55251C072FF52C04E
:1007000073FF53C074FF5AC738F05BC739F05CC73A
:100710003AF03B6A3ABE3B6838C0E6FF39C0E6FFB4
:100720003AC0E6FF3BC0E6FF6BC73CF06CC73DF04C
:100730006DC73EF03F6A3EBE3F683CC0E6FF3DC02D
:10074000E6FF3EC0E6FF3FC0E6FF2EEC4AF0406EFB
:10075000080EE15E4050F3CF36F0F4CF37F0F3CF20
:10076000E6FFF4CFE6FFECDDE552E552F3CF77FF8D
:10077000F4CF78FFFEC436F0FFC437F0D890363699
:100780003736386A37BE386807019A513818E8AEEC
:1007900002D0383406D03650985D375099593850C9
:1007A0009A5902E3000E01D0010E0A013C95E8B00F
:1007B0003C853C51040B53E0910EE96E000EEA6E4D
:1007C000EE5000018E5D396EEE508F593A6EEE504C
:1007D00090593B6E0001800E3B141FE0910EE96EB4
:1007E000000EEA6EEE5000018E5D366EEE508F59AF
:1007F000376EEE509059386E57685868596836C051
:1008000052F037C053F0546EFAEC6DF04FC036F032
:1008100050C037F051C038F00ED0910EE96E000E86
:10082000EA6EEE5000018E5D366EEE508F59376ED7
:10083000EE509059386E86C73CF087C73DF03E6A4F
:100840003DBE3E6838503E18E8AE02D03E3406D079
:100850003C50365C3D5037583E50385802E3000E4D
:1008600001D0010E0A013C93E8B03C8309018235B6
:1008700001E381D281510008000E825501E37BD251
:100880000801DF510F01775D366E78510801E055A0
:10089000376E36C0E6FFE66EE9EC48F0E552E55209
:1008A000F3CF7FF9F4CF80F99BC739F03A6A3B6AFE
:1008B00039AE02D03A683B6872CF52F073CF53F032
:1008C00074CF54F039C057F03AC058F03BC059F0DB
:1008D000FAEC6DF0D8905150000A06E6000E4F5C1D
:1008E000000E5058000E515804E2366A376A386AD2
:1008F0004FD08AC73FF08BC740F0416A40BE416885
:100900009BC73CF03D6A3E6A3CAE02D03D683E6803
:1009100072CF52F073CF53F074CF54F03CC057F005
:100920003DC058F03EC059F0FAEC6DF041505118FE
:10093000E8AE02D0513406D04F503F5C5050405882
:100940005150415809E28AC736F08BC737F0386AF0
:1009500037AE1ED038681CD09BC742F0436A446A49
:1009600042AE02D04368446872CF52F073CF53F066
:1009700074CF54F042C057F043C058F044C059F00F
:10098000FAEC6DF04FC036F050C037F051C038F07F
:1009900036C08EF937C08FF90401FA510901365C6F
:1009A0008C6F0401FB51090137588D6F090EE66EFB
:1009B00081C946F082C947F0486A496A47AE02D009
:1009C000486849689CC742F0436A446A456A42AE37
:1009D00003D04368446845688CC93EF08DC93FF038
:1009E000406A416A3FAE02D0406841683EC051F063
:1009F0003FC052F040C053F041C054F042C056F0E6
:100A000043C057F044C058F045C059F041EC74F071
:100A10004DC03AF04EC03BF04FC03CF050C03DF0EE
:100A20004DC051F04EC052F04FC053F050C054F082
:100A300046C056F047C057F048C058F049C059F07A
:100A400041EC74F04DC036F04EC037F04FC038F076
:100A500050C039F04DC0E6FF4EC0E6FF4FC0E6FF84
:100A600050C0E6FF25EC48F04A6E050EE15E4A50A4
:100A700051C090F952C091F951C03AF052C03BF0C8
:100A80003C6A3D6A3BAE02D03C683D68D8803D5030
:100A9000FF0A08E6C00E3A5CFF0E3B58FF0E3C58BA
:100AA000FF0E3D5804E2C00E366E376826D090C95E
:100AB0003EF091C93FF0406A416A3FAE02D04068C3
:100AC00041684134000E411809E6D880400E3E547A
:100AD000000E3F54000E4054000E415406E2400EFA
:100AE000366E376A386A396A0AD090C936F091C9C9
:100AF00037F0386A396A37AE02D03868396836C09C
:100B000090F937C091F98CC7E6FF8DC7E6FF386AC8
:100B1000396A37AE02D03868396836C0E6FF37C068
:100B2000E6FF38C0E6FF39C0E6FF90C73AF091C74C
:100B30003BF03C6A3D6A3BAE02D03C683D683AC03F
:100B4000E6FF3BC0E6FF3CC0E6FF3DC0E6FFE4EC4D
:100B50002FF03E6E0A0EE15E3E5051C090F752C03B
:100B600091F7080EE66E7FC9E6FF80C9E6FF15EC37
:100B70004AF0E552E552F3CF3EF0F4CF3FF0406A41
:100B8000416A3FAE02D04068416890C73AF091C7D1
:100B90003BF03C6A3D6A3BAE02D03C683D683AC0DF
:100BA00051F03BC052F03CC053F03DC054F03EC049
:100BB00056F03FC057F040C058F041C059F041ECEA
:100BC00074F04DC036F04EC037F04FC038F050C012
:100BD00039F04DC0E6FF4EC0E6FF4FC0E6FF50C003
:100BE000E6FF25EC48F0426E050EE15E4250566885
:100BF00057685868596841EC74F04DC082F44EC093
:100C000083F4080EE66E7FC9E6FF80C9E6FF9CEC20
:100C100049F0E552E552F3CF3EF0F4CF3FF0406AA1
:100C2000416A3FAE02D04068416890C73AF091C730
:100C30003BF03C6A3D6A3BAE02D03C683D683AC03E
:100C400051F03BC052F03CC053F03DC054F03EC0A8
:100C500056F03FC057F040C058F041C059F041EC49
:100C600074F04DC036F04EC037F04FC038F050C071
:100C700039F04DC0E6FF4EC0E6FF4FC0E6FF50C062
:100C8000E6FF25EC48F0426E050EE15E425051C091
:100C90003AF452C03BF40A013A51020B68E088C7AB
:100CA00036F089C737F0386A37BE386838500F01D8
:100CB0007419E8AE02D0743506D07251365C7351A7
:100CC00037587451385853E2B6EC01F0F3CF90F92D
:100CD000F4CF91F90901906D911F000E9123040149
:100CE000800ECB1502E0FF0E01D0010E366E090119
:100CF000800E911502E0FF0E01D0010E365C04E07B
:100D000090C9CAF491C9CBF48EC7E6FF8FC7E6FF3E
:100D100090C936F091C937F0386A396A37AE02D0D7
:100D20003868396836C0E6FF37C0E6FF38C0E6FFEE
:100D300039C0E6FFCAC43AF0CBC43BF03C6A3D6A16
:100D40003BAE02D03C683D683AC0E6FF3BC0E6FFE0
:100D50003CC0E6FF3DC0E6FFE4EC2FF03E6E0A0E1D
:100D6000E15E3E5051C0CAF452C0CBF406D004013B
:100D7000CA6BCB6B02D03AEC01F00A013F87E55217
:100D8000E7CFD9FF12000A013A51400B13E03A5164
:100D9000800B10E03E51400B0DE03E51200B0AE06D
:100DA0002BEC6AF052500601A05D5350A1595450EB
:100DB000A25902E3000E01D0010E0A013D9DE8B0E8
:100DC0003D8D3DADD5D13D9F3A973F51080B01E098
:100DD000E1D16F5001E1DED168C752F069C753F02D
:100DE0006AC754F068C757F069C758F06AC759F026
:100DF000FAEC6DF04FC03AF050C03BF051C03CF0FF
:100E000057C752F058C753F059C754F057C757F057
:100E100058C758F059C759F0FAEC6DF03A504F24C2
:100E2000366E3B505020376E3C505120386E396A38
:100E300038BE396836C0E6FF37C0E6FF38C0E6FF87
:100E400039C0E6FF2AEC4CF0E552E552E552E55296
:100E500051C098F752C099F753C09AF757C736F068
:100E600058C737F059C738F0396A38BE396836C0C4
:100E7000E6FF37C0E6FF38C0E6FF39C0E6FF68C7C7
:100E80003AF069C73BF06AC73CF03D6A3CBE3D683A
:100E90003AC0E6FF3BC0E6FF3CC0E6FF3DC0E6FFD0
:100EA0002EEC4AF03E6E080EE15E3E50F3CF96F710
:100EB000F4CF97F76D5001E12AD1050A01E1F4D092
:100EC000030A01E1BCD0070A01E18AD0030A49E024
:100ED000010A15E0070A01E05DD1E66AE66AE66A02
:100EE000E66AE66AE66A4FEC02F0366E060EE15EEE
:100EF000365064EC00F0000901E14CD146D1E66ABD
:100F0000E66AE66AE66AE66AE66A4FEC02F0366E80
:100F1000060EE15E36500A013C51010B04E13B51E3
:100F2000800B01E1F1D091C036F092C037F093C050
:100F300038F0396A38BE3968D8903950000A08E666
:100F40002C0E365C010E3758000E3858000E3958FA
:100F500002E2040E6D6E64EC00F0000901E11AD1AA
:100F600014D1E66AE66AE66AE66AE66AE66A4FEC81
:100F700002F0366E060EE15E36500A013C51010B5E
:100F800004E13B51800B01E1BFD03CA327D03C5191
:100F9000100B01E1FFD02BEC6AF052500601795D95
:100FA00053507A5954507B5901E3F4D02BEC6AF03A
:100FB00052C036F053C037F054C038F0396A980E3A
:100FC00036263A0E3722000E3822392236C079F6FC
:100FD00037C07AF638C07BF6030EB1D03F9DAED055
:100FE000E66AE66AE66AE66AE66AE66A4FEC02F0F4
:100FF000366E060EE15E36500A013C51010B04E1EB
:101000003B51800B01E180D03CA3C4D02BEC6AF0B3
:1010100052500F0179250601796F53500F017A2143
:1010200006017A6F54500F017B2106017B6FA0C02F
:101030008EF0A1C08FF0A2C090F0020E80D06BCFD6
:10104000E6FF6CCFE6FF6DCFE6FF67CFE6FF68CF28
:10105000E6FF69CFE6FF4FEC02F0366E060EE15E6A
:1010600036500A013BAF50D03C51020B01E192D007
:101070002BEC6AF052500601795D53507A59545066
:101080007B5901E387D00F016351625D0BE1010ED3
:10109000626FA0C08EF0A1C08FF0A2C090F00A01D4
:1010A0003F9D4DD0622B36D06BCFE6FF6CCFE6FF75
:1010B0006DCFE6FF67CFE6FF68CFE6FF69CFE6FFBB
:1010C0004FEC02F0366E060EE15E36500A013BAF81
:1010D0001BD03CA35FD02BEC6AF052500F016F2560
:1010E0000601796F53500F01702106017A6F545039
:1010F0000F01712106017B6F64CF8EF065CF8FF0F9
:1011000066CF90F0060E1BD08CEC01F043D00A01A4
:101110003BAF0CD062CFE6FF58DAE55264CF8EF0D9
:1011200065CF8FF066CF90F0050E09D03CA109D0B5
:10113000A0C08EF0A1C08FF0A2C090F0010E6D6E25
:1011400029D03BB902D08CEC01F065C7E6FF66C739
:10115000E6FF67C7E6FF54C7E6FF55C7E6FF56C779
:10116000E6FF4FEC02F0366E060EE15E365012D00E
:101170003D51800B06E13C51010B03E13B51800BDB
:1011800009E064EC00F0000903E07AEC01F002D021
:101190003AEC01F00A013E9912002BEC6AF0525031
:1011A0000601765D535077595450785925E20A016B
:1011B0003EA128D0080EE66E0EEC73F0E552060153
:1011C000796B7A6B7B6B2BEC6AF052C036F053C0B4
:1011D00037F054C038F0396AE80E3626030E37224D
:1011E000000E3822392236C073F637C074F638C084
:1011F00075F66D6A6E6A1200E80E7627030E772385
:10120000000E7823120067EC0DF06E50040A01E125
:10121000D0D0040A61E0010A2DE0030A0BE0010AC4
:1012200001E0120060EC01F064EC00F0000901E163
:10123000C0D0BAD060EC01F091C036F092C037F067
:1012400093C038F0396A38BE3968D8903950000AEE
:1012500008E62C0E365C010E3758000E3858000E8A
:10126000395802E2030E6E6E64EC00F0000901E1F1
:10127000A0D09AD060EC01F00A013A81A0C08EF0B3
:10128000A1C08FF0A2C090F02BEC6AF05250060182
:10129000795D53507A5954507B591CE20A013A87C0
:1012A0002BEC6AF052C036F053C037F054C038F01F
:1012B000396A980E36263A0E3722000E3822392225
:1012C00036C079F637C07AF638C07BF6030E6D6EFD
:1012D000020E6DD0CDEF08F02BEC6AF052500601F3
:1012E000735D535074595450755963E20501E42BF2
:1012F000000EE5230A013A51400B17E03E51400B26
:1013000014E03E51200B11E02BEC6AF052C036F095
:1013100053C037F054C038F0396A880E3626130EA1
:101320003722000E3822392209D02BEC6AF052C045
:1013300036F053C037F054C038F0396A36C079F609
:1013400037C07AF638C07BF62BEC6AF052C036F024
:1013500053C037F054C038F0396AE80E3626030E11
:101360003722000E3822392236C076F637C077F69B
:1013700038C078F691C036F092C037F093C038F09C
:10138000396A38BE3968D8903950000A08E62C0E00
:10139000365C010E3758000E3858000E395806E2F8
:1013A0000A013C51200B02E07AEF01F0010E6E6E53
:1013B0001200120027EC56F009019B6F020EE66E38
:1013C0000EEC73F0E55209019B51330A01E1ACD0F8
:1013D000010A5CE0030A04E0010A01E0F0D0EAD06F
:1013E0009D6B996B9A6BD8909A5104E6000E995DAB
:1013F000010E9A5912E227EC56F009019C6FE85051
:101400009D1B000E9925E96E030E9A21EA6E9CC978
:10141000EFFF992B000E9A23E6D79D5130E1996B8F
:101420009A6BD8909A5104E6000E995D010E9A5974
:1014300024E2000E9925E96E030E9A21EA6EEF5020
:10144000E66E99C936F09AC937F0386A396A37AE0C
:1014500002D038683968372A000E3822392236C05F
:10146000E6FF37C0E6FF98EC6FF0E552E552E55233
:101470000901992B000E9A23D4D7060E01D0150E20
:10148000E66EFCEC54F0E55280D999D09D6B996BD7
:101490009A6BFF0E9AAF02D0D89003D0995D000EE0
:1014A0009A5926E299C936F09AC937F0386A396AEA
:1014B00037AE02D038683968372A000E3822392210
:1014C00036C0E6FF37C0E6FFFBEC6EF0E552E552B2
:1014D00009019C6FE8509D1B000E9925E96E030ED3
:1014E0009A21EA6E9CC9EFFF992B000E9A23D1D75F
:1014F0009DC9FFF3996B9A6BD8909A5104E6000E40
:10150000995D010E9A5956E2000E9925E96E030E77
:101510009A21EA6EEF50E66EFCEC54F0E5520901B8
:10152000992B000E9A23E8D79D6B996B9A6B3F0E0F
:101530009AAF02D0D89003D0995D000E9A591DE25F
:10154000800E9925366EFF0E9A21376E36C0E6FF63
:10155000E66EFBEC6EF0E552E55209019C6FE85037
:101560009D1B000E9925E96E030E9A21EA6E9CC917
:10157000EFFF992B000E9A23DAD79DC93FF3996BA1
:101580009A6B400E9AAF02D0D89003D0995D000EAE
:101590009A5910E2000E9925E96E030E9A21EA6E1F
:1015A000EF50E66EFCEC54F0E5520901992B000E69
:1015B0009A23E7D7060EE66EFCEC54F0E552020ED5
:1015C000E66E1AEC73F0E5521200D9CFE6FFE1CFD8
:1015D000D9FFFE0EDBCF36F00F016351E76E3618F0
:1015E000E8AE02D0363403D0E750D880365403E258
:1015F000FE0EDB6A626BFE0EDB5014E1676B686BFC
:10160000696B6A6B6B6B6C6B6D6B6E6BA0C064FF10
:10161000A1C065FFA2C066FF300E6F6F750E706FC0
:10162000716BABD0FE0EDB040B0DF3CF36F0376AD7
:10163000386A396A36AE03D0376838683968180EA8
:101640003626010E3722000E3822392236C09EF986
:1016500037C09FF936C0E6FF37C0E6FF3FEC6FF0BA
:10166000E552E55251C067FF52C068FF53C069FFA1
:1016700054C06AFF040E0901376A9E25366E9F51D9
:10168000372236C0E6FF37C0E6FF3FEC6FF0E55289
:10169000E55251C06BFF52C06CFF53C06DFF54C088
:1016A0006EFF080E0901376A9E25366E9F5137225C
:1016B00036C0E6FF37C0E6FF14EC6FF0E552E552A6
:1016C000F3CF64FFF4CF65FF0F01666B65BF6669FA
:1016D000640E576E586A596A64CF52F065CF53F062
:1016E00066CF54F0FAEC6DF04FC064FF50C065FF58
:1016F00051C066FF4FC036F050C037F051C038F0CF
:10170000396A38BE39683934000E391809E6D8808C
:10171000780E3654000E3754000E3854000E3954EB
:1017200005E20F01780E646F656B666B0A0E0901A6
:10173000376A9E25366E9F51372236C0E6FF37C086
:10174000E6FFFBEC6EF0E552E552516E526A51BE77
:101750005268536A546A52AE02D053685468E80E15
:10176000566E030E576E586A596A41EC74F04DC0BC
:101770006FFF4EC070FF4FC071FF0A013C933C9554
:101780003F9DE552E7CFD9FF12000F01776B786BD1
:10179000000E0401CA6FCB6B826F836B3A6F3B6B99
:1017A0000701906F916B6B6B6C6B6D6B6BC75AF72E
:1017B0006CC75BF76DC75CF7926B936B946B000122
:1017C0008E6B8F6B906B6D6A00018C6B8D6B000163
:1017D0008A6B8B6B0A013C953C933F97320E070155
:1017E000886F896B1E0E866F876B090EE66E010E81
:1017F000E66EFBEC6EF0E552E5520F01636F000EF2
:10180000E76E6319E8AE02D0633503D0E750D880A5
:10181000635502E3626B02D0010E626FE66AD5DEA9
:04182000E55212007B
:0C182400D9CFE6FFE1CFD9FF060EE12688
:10183000730EDE6E030EDD6E760EF36E020EF3CFC8
:10184000DBFF010EF36E030EF3CFDBFF040EDB6A4A
:10185000010EF36E050EF3CFDBFF000191518E5D9B
:10186000AC6F92518F59AD6F93519059AE6F040E7A
:10187000DBCF36F0050EDBCF37F0386A37BE38687D
:10188000ACC052F0ADC053F0AEC054F036C057F00B
:1018900037C058F038C059F0FAEC6DF04FC0A3F0E3
:1018A00050C0A4F051C0A5F0DECF3FF0DDCF40F036
:1018B000416A40BE4168E8CA3CF0E9CA3DF03E6A70
:1018C0003DBE3E68020EDBCF39F0030EDBCF3AF0AF
:1018D0003B6A3ABE3B68ACC052F0ADC053F0AEC0FC
:1018E00054F039C057F03AC058F03BC059F0FAEC08
:1018F0006DF000013C504F5C366E3D505058376ED5
:101900003E505158386E36C052F037C053F0546EC6
:101910003FC057F040C058F041C059F0FAEC6DF0AC
:101920004FC0A6F050C0A7F051C0A8F0E8CA53F0CD
:10193000E9CA54F0DECF58F0DDCF59F0CDEC6DF0B0
:1019400051500A01E8275250E9230001A351A6256E
:10195000A96FA451A721AA6FA551A821AB6F080EAA
:10196000E66EA9C0E6FFAAC0E6FFD5EC47F0E55257
:10197000E552E552F3CFA9F0F4CFAAF00001AB6B2A
:10198000AABFAB699CC039F09DC03AF03B6A3ABE31
:101990003B68AB513B18E8AE02D03B3406D039501F
:1019A000A95D3A50AA593B50AB5909E29CC036F0A8
:1019B0009DC037F0386A37AE1AD0386818D0AB35CA
:1019C000000EAB1907E6D880F40EA955010EAA55F2
:1019D000000EAB5506E2F40E366E010E376E386A15
:1019E00006D0A9C036F0AAC037F0ABC038F036C078
:1019F000B1F037C0B2F09A51365CAF6F9B51375897
:101A0000B06F1DC836F0376A36BE37683650AF0340
:101A1000F3CFB3F0F4CFB4F0B003F350B4273750A2
:101A2000AF03F350B427090EE66EB3C0E6FFB4C0AF
:101A3000E6FFD5EC47F0E552E552E552F3CFB3F0BF
:101A4000F4CFB4F00001F4509F19E8AE02D09F35F6
:101A500004D09E51B35D9F51B45909E29EC036F047
:101A60009FC037F0386A396A37AE23D022D0B3C06E
:101A70003AF0B4C03BF03C6A3D6A3BAE02D03C68F1
:101A80003D683D34000E3D1809E6D8800C0E3A54EE
:101A9000000E3B54000E3C54000E3D5404E20C0E6C
:101AA000366E376A04D0B3C036F0B4C037F0386A47
:101AB000396A36C096F037C097F0060EE15C02E254
:101AC000E16AE552E16EE552E7CFD9FF12000A0163
:101AD00040A165D1409166EC70F0FFEC37F00A014F
:101AE0003CAF0DD08DCA91F08ECA92F00001936B7D
:101AF00092BF93698FCA9AF090CA9BF016D00701E3
:101B0000AF510701B25D0001916F0701B0510701AC
:101B1000B3590001926F0701B1510701B459000197
:101B2000936FB5C79AF0B6C79BF0030EE66E070E2B
:101B3000536E546AEACA58F0EBCA59F0CDEC6DF016
:101B4000515000019A25366E52509B21376E36C097
:101B5000E6FFE66ED5EC47F0E552E552E552F3CFED
:101B6000EAFAF4CFEBFA0A013AA1F8D03D51800B22
:101B700005E16D5006E03D51010B03E03B8D12EF96
:101B80000CF03B51200B1CE10A01800EEB1509E023
:101B9000EACA36F0EBCA37F0366C371E000E372231
:101BA00004D0EACA36F0EBCA37F037342AE23650AE
:101BB0003E08000E375425E20A013B51400B21E15B
:101BC0003B9D91C08EF092C08FF093C090F00001C9
:101BD000800E971507E0010E9625966F000E97214F
:101BE000976F120097350AE296510008000E97553C
:101BF00005E2010E965F000E975B1200966B976BE5
:101C000012000A013B8D0A01EA6BEB6B0BDE0F0140
:101C10003C5100019625B56F0F013D510001972100
:101C2000B66F800E9B1509E09AC036F09BC037F066
:101C3000366C371E000E372204D09AC036F09BC097
:101C400037F0386A396A37AE02D038683968D890C8
:101C50003950000A08E6320E365C000E3758000E86
:101C60003858000E395801E39AD0B5C03AF0B6C0E2
:101C70003BF03C6A3D6A3BAE02D03C683D683D3477
:101C8000000E3D1809E6D880480E3A54000E3B5429
:101C9000000E3C54000E3D5401E381D0030EE66E6D
:101CA000070E536E546A38CF58F039CF59F0CDEC47
:101CB0006DF051500001B525366E5250B621376E89
:101CC00036C0E6FFE66ED5EC47F0E552E552E55248
:101CD000F3CF38FFF4CF39FFF3CF3AF0F4CF3BF036
:101CE0003C6A3D6A3BAE02D03C683D68D8903D50AE
:101CF000000A08E6480E3A5C000E3B58000E3C58BD
:101D0000000E3D5802E2480E19D038CF3EF039CFD0
:101D10003FF0406A416A3FAE02D0406841684134BA
:101D2000000E411809E6D880900E3E54000E3F5434
:101D3000000E4054000E415404E2900E366E376A95
:101D400004D038CF36F039CF37F036C038FF37C03F
:101D500039FF36C036FF37C037FF1200B2C791F0E7
:101D6000B3C792F0B4C793F00001800E971507E057
:101D7000010E9625966F000E9721976F0ED097351E
:101D80000AE296510008000E975505E2010E965F93
:101D9000000E975B02D0966B976B0A013B9D120079
:101DA0000A013A51100B01E1D3D03D51400B01E043
:101DB000CFD00001B96BB951010801E2CDD0030EBB
:101DC000E66E3EC83FF0406A416A426A3FAE03D0C9
:101DD0004068416842683FC0E6FF40C0E6FF41C03E
:101DE000E6FF42C0E6FF660EE66EE66AB951480DB0
:101DF000F3CFE9FFF4CFEAFF000EE926040EEA2252
:101E0000280EE926000EEA22EECF3AF0EFCF3BF0A3
:101E10003C6A3D6A3BAE02D03C683D683AC0E6FF92
:101E20003BC0E6FF3CC0E6FF3DC0E6FF40EC2FF0C4
:101E30003E6E060EE15E3E50E552E7CF42F0E552BF
:101E4000E7CF41F0E552E7CF40F0E552E7CF3FF072
:101E50003FC056F040C057F041C058F042C059F062
:101E600041EC74F04DC036F04EC037F04FC038F042
:101E700050C039F04DC0E6FF4EC0E6FF4FC0E6FF50
:101E800050C0E6FF25EC48F0436E050EE15E43507E
:101E9000566857685868596841EC74F04DC0B7F0FF
:101EA0004EC0B8F04DC03AF04EC03BF03C6A3D6ABF
:101EB0003BAE02D03C683D68D8803D50FF0A08E642
:101EC000E80E3A5CFF0E3B58FF0E3C58FF0E3D58A3
:101ED00004E2E80E366E376826D0B7C03EF0B8C0D0
:101EE0003FF0406A416A3FAE02D0406841684134E9
:101EF000000E411809E6D880180E3E54000E3F54DB
:101F0000000E4054000E415406E2180E366E376A39
:101F1000386A396A0AD0B7C036F0B8C037F0386AC4
:101F2000396A37AE02D0386839680001B951480DB6
:101F3000F3CFE9FFF4CFEAFF000EE926040EEA2210
:101F40002F0EE926000EEA2236C0EFFFB92B33D759
:101F50000401776B77C42FF412000A013D51040B82
:101F60004FE03D51400B4CE007019A35000E9A19A5
:101F700007E6D880960E9855000E9955000E9A5592
:101F80003FE20801DF510701965D366E9751080167
:101F9000E055376E36C0E6FFE66EADEC48F0E55230
:101FA000E552F3CFBAF0F4CFBBF0F3CFE6FFF4CFB6
:101FB000E6FF12C436F013C437F0386A37BE38680B
:101FC00036C0E6FF37C0E6FF38C0E6FF5AC439F036
:101FD0005BC43AF03B6A3ABE3B6839C0E6FF3AC0A0
:101FE000E6FF3BC0E6FF380EE66E040EE66E800E9E
:101FF000E66E040EE66E9AEC30F03C6E0C0E28D0C5
:1020000062CAE6FF12C436F013C437F0386A37BE2E
:10201000386836C0E6FF37C0E6FF38C0E6FF5AC46E
:1020200039F05BC43AF03B6A3ABE3B6839C0E6FF20
:102030003AC0E6FF3BC0E6FF380EE66E040EE66EE1
:10204000800EE66E040EE66EB5EC31F03C6E0B0EC3
:10205000E15E3C500A013DBD02D03AEC01F077C48C
:1020600038F0396A38BE396804013850825D366EFE
:1020700039508359376E36508027375081232FC40B
:1020800038F0396A38BE39683A513824366E3B51D7
:102090003920376E3650382737503923A251CA2598
:1020A000C86FA351CB21C96F1200D9CFE6FFE1CF92
:1020B000D9FF010EE66EFB0EDBCF3AF0FC0EDBCF54
:1020C0003BF0FD0EDBCFE9FFFE0EDBCFEAFF220E79
:1020D000E926000EEA223A50EE24366E3B50EE20FE
:1020E000376E386A396A37AE02D03868396836C018
:1020F000E6FF37C0E6FF38C0E6FF39C0E6FF25EC53
:1021000048F03C6E050EE15E3C5051C0BCF052C040
:10211000BDF053C0BEF054C0BFF0FD0EDBCFE9FFF1
:10212000FE0EDBCFEAFF220EE926000EEA22EECFFA
:102130003AF0EFCF3BF03C6A3D6A3BAE02D03C68E0
:102140003D683A500001BC5D366E3B50BD59376E5C
:102150003C50BE593D50BF59FD0EDBCFE9FFFE0E8E
:10216000DBCFEAFF240EE926000EEA2236C0EEFF9E
:1021700037C0EDFFFD0EDBCFE9FFFE0EDBCFEAFF40
:10218000220EE926000EEA22BCC0EEFFBDC0EDFF24
:10219000010EE66EFD0EDBCFE9FFFE0EDBCFEAFFA0
:1021A000260EE926000EEA22EECF3CF0EFCF3DF0FE
:1021B000FD0EDBCFE9FFFE0EDBCFEAFF240EE926A2
:1021C000000EEA223C50EE24386E3D50EE20396E6F
:1021D0003A6A3B6A39AE02D03A683B6838C0E6FFDB
:1021E00039C0E6FF3AC0E6FF3BC0E6FF25EC48F009
:1021F0003E6E050EE15E3E5052C037F0FD0EDBCF65
:10220000E9FFFE0EDBCFEAFF240EE926000EEA22EC
:1022100051C0EEFF37C0EDFFFD0EDBCFE9FFFE0E34
:10222000DBCFEAFF240EE926000EEA22EECF36F0DD
:10223000EFCF37F0FD0EDBCFE9FFFE0EDBCFEAFF7D
:10224000260EE926000EEA2236C0EEFF37C0EDFF6B
:10225000E552E7CFD9FF1200D9CFE6FFE1CFD9FF92
:10226000FD0EDBCFE9FFFE0EDBCFEAFF200EE926F5
:10227000000EEA22EECFE6FFEFCFE6FFFD0EDBCF4A
:10228000E6FFFE0EDBCFE6FF10DFE552E552E5523A
:10229000E552050EE66EFD0EDBCFE9FFFE0EDBCF4D
:1022A000EAFF240EE926000EEA22EECF46F0EFCF39
:1022B00047F0FD0EDBCFE9FFFE0EDBCFEAFF0C0E91
:1022C000E926000EEA22EECF48F0EFCF49F00001F8
:1022D00048504602F3CF42F0F4CF43F04702F350A8
:1022E000432649504602F3504326446A456A43AEAA
:1022F00002D044684568FD0EDBCFE9FFFE0EDBCF60
:10230000EAFF080EE926000EEA22EECF3EF0EFCFFC
:102310003FF0406A416A3FAE02D040684168FD0E1E
:10232000DBCFE9FFFE0EDBCFEAFF200EE926000E31
:10233000EA22EECF3AF0EFCF3BF03C6A3D6A3BAE8B
:1023400002D03C683D683AC051F03BC052F03CC0FE
:1023500053F03DC054F03EC056F03FC057F040C06F
:1023600058F041C059F041EC74F04D500001422446
:10237000366E4E504320376E4F504420386E5050CA
:102380004520396E36C0E6FF37C0E6FF38C0E6FFAD
:10239000E66E25EC48F04A6E050EE15E4A5051C0EB
:1023A000C4F052C0C5F053C0C6F054C0C7F0FD0E13
:1023B000DBCFE9FFFE0EDBCFEAFF0A0EE926000EB7
:1023C000EA22EE50ED1010E10001C86BC96BCA6B38
:1023D000CB6BFD0EDBCFE9FFFE0EDBCFEAFF1A0E63
:1023E000EB6A1B0EEB6AC9D0090EE66EFD0EDBCF61
:1023F000E9FFFE0EDBCFEAFF0A0EE926000EEA2215
:10240000EECF3EF0EFCF3FF0406A416A3FAE02D0E0
:1024100040684168FD0EDBCFE9FFFE0EDBCFEAFF2F
:102420001A0EE926000EEA22EECF3AF0EFCF3BF08B
:102430003C6A3D6A3BAE02D03C683D683AC051F010
:102440003BC052F03CC053F03DC054F03EC056F08B
:102450003FC057F040C058F041C059F041EC74F013
:102460004DC036F04EC037F04FC038F050C039F094
:102470004DC0E6FF4EC0E6FF4FC0E6FF50C0E6FF8E
:1024800025EC48F0426E050EE15E425051C0C0F0AE
:1024900052C0C1F053C0C2F054C0C3F0FD0EDBCF38
:1024A000E9FFFE0EDBCFEAFFEECF36F0EFCF37F0DD
:1024B000366C371E000E3722386A396A37AE02D0C2
:1024C000386839680001C3513918E8AE02D0393490
:1024D00008D03650C05D3750C1593850C2593950B4
:1024E000C35913E2FD0EDBCFE9FFFE0EDBCFEAFF9F
:1024F000EECFC8F0EFCFC9F0C86DC91F000EC923D9
:10250000CA6BCB6BC9AF39D02DD0FD0EDBCFE9FF45
:10251000FE0EDBCFEAFFEECF3AF0EFCF3BF03C6AA6
:102520003D6A3BAE02D03C683D683D50C319E8AE01
:1025300002D0C33508D0C0513A5CC1513B58C2519A
:102540003C58C3513D5811E2FD0EDBCFE9FFFE0EB2
:10255000DBCFEAFFEECFC8F0EFCFC9F0CA6BCB6B91
:10256000C9AF0BD0CA69CB6908D0C0C0C8F0C1C020
:10257000C9F0C2C0CAF0C3C0CBF0C80EE96E000EED
:10258000EA6EC451EE243A6EC551EE203B6EC65140
:10259000EE203C6EC751EE203D6EFD0EDBCFE9FF15
:1025A000FE0EDBCFEAFF380EE926000EEA22EECF60
:1025B0003EF0EFCF3FF0406A416A3FAE02D0406844
:1025C00041683E503A5C366E3F503B58376E405043
:1025D0003C58386E41503D58396EFD0EDBCFE9FF57
:1025E000FE0EDBCFEAFF440EE926000EEA2236C0DB
:1025F000EEFF37C0EDFFE552E7CFD9FF1200D9CF8C
:10260000E6FFE1CFD9FFFD0EDBCFE9FFFE0EDBCF0A
:10261000EAFF1A0EE926000EEA22EECF36F0EFCFDF
:1026200037F0386A396A37AE02D038683968FD0E3B
:10263000DBCFE9FFFE0EDBCFEAFF380EE926000E06
:10264000EA22EECF51F0EFCF52F0536A546A52AE05
:1026500002D053685468300E566E576A586A596AE9
:1026600041EC74F036504D5C0001DC6F37504E5831
:10267000DD6F38504F58DE6F39505058DF6FFD0E08
:10268000DBCFE9FFFE0EDBCFEAFF080EE926000EE6
:10269000EA22EECF36F0EFCF37F0386A396A37AE3C
:1026A00002D038683968DCC051F0DDC052F0DEC0BD
:1026B00053F0DFC054F036C056F037C057F038C082
:1026C00058F039C059F041EC74F04DC0CCF04EC018
:1026D000CDF04FC0CEF050C0CFF00001D06BD16B29
:1026E000D26BD36B0A0EE66ED00EE96E000EEA6E68
:1026F0004D50EE24366E4E50EE20376E4F50EE2089
:10270000386E5050EE20396E36C0E6FF37C0E6FF17
:1027100038C0E6FFE66E25EC48F03A6E050EE15E45
:102720003A5051C0D8F052C0D9F053C0DAF054C07A
:10273000DBF0FD0EDBCFE9FFFE0EDBCFEAFF200E64
:10274000E926000EEA22EECF36F0EFCF37F0386AF6
:10275000396A37AE02D038683968D80EE96E000E93
:10276000EA6E3650EE5C0001E06F3750EE58E16FD4
:102770003850EE58E26F3950EE58E36FE0C0E6FF94
:10278000E1C0E6FFFD0EDBCFE6FFFE0EDBCFE6FF8E
:102790008CDCE552E552E552E552050EE66EFD0E83
:1027A000DBCFE9FFFE0EDBCFEAFF240EE926000EA9
:1027B000EA22EECF42F0EFCF43F0FD0EDBCFE9FF90
:1027C000FE0EDBCFEAFF0C0EE926000EEA22EECF6A
:1027D00044F0EFCF45F0000144504202F3CF3EF009
:1027E000F4CF3FF04302F3503F2645504202F350EE
:1027F0003F26406A416A3FAE02D040684168FD0E04
:10280000DBCFE9FFFE0EDBCFEAFF080EE926000E64
:10281000EA22EECF3AF0EFCF3BF03C6A3D6A3BAEA6
:1028200002D03C683D68E0C051F0E1C052F0E2C027
:1028300053F0E3C054F03AC056F03BC057F03CC0F0
:1028400058F03DC059F041EC74F04D5000013E2469
:10285000366E4E503F20376E4F504020386E5050ED
:102860004120396E36C0E6FF37C0E6FF38C0E6FFCC
:10287000E66E25EC48F0466E050EE15E465051C00E
:10288000D4F052C0D5F053C0D6F054C0D7F0000EEB
:102890000001D46DD51FD523D61FD623D71FD7232C
:1028A000FD0EDBCFE9FFFE0EDBCFEAFF440EE9268B
:1028B000000EEA22D4C0EEFFD5C0EDFFE552E7CF0F
:1028C000D9FF12000A013EAD1DD0A0C436F0A1C44C
:1028D00037F0386A396A37AE02D038683968393427
:1028E000000E391809E6D880180E3654000E3754F9
:1028F000000E3854000E395409E2DFC8E1F8E0C890
:10290000E2F81200DFC8E1F8E0C8E2F81200DADF0E
:102910000801DF510801E15D366EE2510801E05522
:10292000376E36C0E6FFE66E14EC6CF0E552E55209
:10293000F3CF88F0F4CF89F00001D880F45004E799
:10294000E40E885DFF0E895904E2E40E886F896900
:102950000DD0893509E288511C08000E895504E222
:102960001C0E886F896B02D089C089F0060EE66E56
:1029700094C43DF095C43EF03F6A3EBE3F6888C0B7
:102980003AF089C03BF03C6A3BBE3C683AC052F02A
:102990003BC053F03CC054F03DC057F03EC058F02F
:1029A0003FC059F0FAEC6DF04FC036F050C037F030
:1029B00051C038F0396A38BE396836C0E6FF37C0D2
:1029C000E6FF38C0E6FF39C0E6FF25EC48F0406E70
:1029D000050EE15E405051C0E4F052C0E5F053C036
:1029E000E6F0B0C436F0B1C437F0386A37BE3868A4
:1029F00036500001E45F3750E55B3850E65B050E6A
:102A0000E66E98C43AF099C43BF03C6A3BBE3C6821
:102A1000E4C052F0E5C053F0E6C054F03AC057F0BD
:102A20003BC058F03CC059F0FAEC6DF04FC036F0A6
:102A300050C037F051C038F0396A38BE396836C0F6
:102A4000E6FF37C0E6FF38C0E6FF39C0E6FF25ECF9
:102A500048F03D6E050EE15E3D5051C0E4F052C0BD
:102A6000E5F053C0E6F092C436F093C437F0366C0C
:102A7000371E000E3722386A37BE38680001E6512B
:102A80003818E8AE02D0383406D03650E45D3750FE
:102A9000E5593850E6590CE292C4E4F093C4E5F0ED
:102AA000E46DE51F000EE523E66BE5AF20D01BD0FB
:102AB00092C439F093C43AF03B6A3ABE3B683B504B
:102AC000E619E8AE02D0E63506D0E451395CE551AE
:102AD0003A58E6513B5809E292C4E4F093C4E5F059
:102AE000E66BE5AF04D0E66902D0E6C0E6F004018B
:102AF000800EC91509E0C8C436F0C9C437F0366C79
:102B0000371E000E372204D0C8C436F0C9C437F0CF
:102B1000386A396A37AE02D0386839683934000EFD
:102B2000391809E6D880020E3654000E3754000ECC
:102B30003854000E395402E36D500EE0C8C436F02C
:102B4000C9C437F0386A37BE386836500001E45FD0
:102B50003750E55B3850E65BE4C0D4F4E5C0D5F40B
:102B6000120004011E6B1F6B666B676B1200A2ECF8
:102B700069F0D0EC0EF0B8EC44F0A1EC6BF0ADECE9
:102B80000FF00001E76BE75101082AE30A013FA1BA
:102B900011D00001E751480DF3CF36F0F4CF37F0F4
:102BA000000E3626040E372236C0E6FF37C0E6FF99
:102BB00026DD11D00001E751480DF3CF36F0F4CFF8
:102BC00037F0000E3626040E372236C0E6FF37C037
:102BD000E6FF2CEC11F0E552E5520001E72BD3D7CC
:102BE00096DE44C45FF045C460F08CC461F08DC4CF
:102BF00062F0D4C463F0D5C464F00401800E1B15E8
:102C000009E01AC43AF01BC43BF03A6C3B1E000EBC
:102C10003B2204D01AC43AF01BC43BF0800E63156B
:102C200009E062C43CF063C43DF03C6C3D1E000E04
:102C30003D2204D062C43CF063C43DF03B503D18DB
:102C4000E8AE02D03D3404D03C503A5C3D503B5895
:102C50000DE2800E631505E062C436F063C437F000
:102C60000CD062C436F063C437F010D0800E1B1550
:102C700009E01AC436F01BC437F0366C371E000E5C
:102C8000372204D01AC436F01BC437F0386A396AC8
:102C900037AE02D038683968D8903950000A08E653
:102CA000E80E365C030E3758000E3858000E3958BF
:102CB00002E3000E01D0010E0A013A99E8B03A8908
:102CC0006BEF4FF004012F6B2FC477F42FC498F0F3
:102CD0000001996B98BF996998C096F099C097F0D8
:102CE000F40E9E6F9F69E86BE85102083EE3E851DD
:102CF000480DF3CFE9F0F4CFEAF0000EE927040E17
:102D0000EA23E9C0E9FFEAC0EAFF220EE926000E45
:102D1000EA22EE6AED6AE9C0E9FFEAC0EAFF460E80
:102D2000E926000EEA22EE6AED6AE9C0E9FFEAC090
:102D3000EAFF1A0EE926000EEA22EE6AED6AE9C001
:102D4000E9FFEAC0EAFF240EE926000EEA22EE6A55
:102D5000ED6AE9C0E9FFEAC0EAFF260EE926000EA7
:0E2D6000EA22EE6AED6AE82BBFD7B1EF15F05C
:022D6E003F0E16
:102D7000E66EC30EE66EDCEC54F0E552E55212004E
:102D80000A0141A704D02E0EE66EC30E03D01A0E20
:102D9000E66EC30EE66EDCEC54F0E552E55212002E
:102DA00034CAE6FF35CAE6FFDCEC54F0E552E552E2
:102DB0001200C5EC55F09E0EE66EE40EE66EDCECFD
:102DC00054F0E552E552CB0EE66EC20EE66EDCEC38
:102DD00054F0E552E552BE0EE66EC20EE66EDCEC35
:102DE00054F0E552E552DCDFAB0EE66EC20EE66E45
:102DF000DCEC54F0E552E552200EE66EE66A80C047
:102E000036F0376A386A396A80C0E6FF37C0E6FFB5
:102E100038C0E6FF39C0E6FF9FEC56F03A6E060E6A
:102E2000E15E3A50C5EC55F0A20EE66EC20EE66EBB
:102E3000DCEC54F0E552E552D9EC5BF0980EE66E0E
:102E4000C20EE66EDCEC54F0E552E5522BC9E6FF0B
:102E5000F9EC58F0E5528F0EE66EC20EE66EDCEC31
:102E600054F0E552E552A4EC44F0830EE66EC20E37
:102E7000E66EDCEC54F0E552E55285EC6BF00A01AD
:102E80003E51400B20E00801E5511DE07A0EE66E50
:102E9000C20EE66EDCEC54F0E552E552E66AE66AF4
:102EA0000E0EE66EE66AE66AE66A9FEC56F0366E4D
:102EB000060EE15E3650750EE66EC20EE66EDCEC76
:102EC00054F0E552E5526C0EE66EC20EE66EDCEC96
:102ED00054F0E552E55297EC4CF00801235131E0F3
:102EE000690EE66EC20EE66EDCEC54F0E552E55279
:102EF0000601F56B040EF55D1CE2F551E96EEA6A18
:102F0000D890E936EA36340EE926060EEA22EE506B
:102F1000ED1004E0630EE66EC20E03D05F0EE66EA7
:102F2000C20EE66EDCEC54F0E552E5520601F52BDC
:102F3000E1D75C0EE66EC20EE66EDCEC54F0E552B4
:102F4000E552520EE66EC20EE66EDCEC54F0E5522F
:102F5000E55216DF490EE66EC20EE66EDCEC54F06A
:102F6000E552E55208010351010A02E0010A06E1B7
:102F7000310E0325E66EFCEC54F007D0410EE66EF0
:102F8000C20EE66EDCEC54F0E552E552330EE66E0E
:102F9000C20EE66EDCEC54F0E552E552300E0A014A
:102FA0006025E66EFCEC54F0E5521E0EE66EC20E95
:102FB000E66EDCEC54F0E552E5520A013CA904D07F
:102FC000140EE66EC20E03D0090EE66EC20EE66E59
:102FD000DCEC54F0E552E5520A013AA304D0FB0EB2
:102FE000E66EC10E03D0EB0EE66EC10EE66EDCECB3
:102FF00054F0E552E5520A013DB108D0D00EE66E1C
:10300000C10EE66EDCEC54F0E552E552BC0EE66E05
:10301000C10EE66EDCEC54F0E552E552010E1614DA
:10302000010823E00A014151080B1FE1870EE66EFB
:10303000C10EE66EDCEC54F0E552E552E66AE66A53
:103040001650366E376A386A396A16C0E6FF37C0DE
:10305000E6FF38C0E6FF39C0E6FF9FEC56F03A6E57
:10306000060EE15E3A50C5EC55F00A013FBF08D0AC
:10307000680EE66EC10EE66EDCEC54F0E552E552E9
:103080000A013EB508D0480EE66EC10EE66EDCECD5
:1030900054F0E552E5520A0141AD08D02B0EE66E20
:1030A000C10EE66EDCEC54F0E552E5520A013CBB81
:1030B00008D01D0EE66EC10EE66EDCEC54F0E55253
:1030C000E5520A013CBD08D0060EE66EC10EE66E62
:1030D000DCEC54F0E552E552090E09012B5D04E0E9
:1030E0000A013A51040B08E0F90EE66EC00EE66ED6
:1030F000DCEC54F0E552E552040E0901EA5D04E00F
:103100000A013E51200B08E1EB0EE66EC00EE66EA2
:10311000DCEC54F0E552E5520A013EBD08D0D80E71
:10312000E66EC00EE66EDCEC54F0E552E5520A01A4
:103130003EB108D0B80EE66EC00EE66EDCEC54F080
:10314000E552E5528050100B0BE00801AF5108E04A
:103150009D0EE66EC00EE66EDCEC54F0E552E552D4
:103160000A013C51010B03E13B51800B08E07D0E4D
:10317000E66EC00EE66EDCEC54F0E552E55240CF50
:1031800036F041CF37F0386A396A37AE02D0386846
:103190003968D8903950000A08E6180E365C000EDF
:1031A0003758000E3858000E395808E36A0EE66E9C
:1031B000C00EE66EDCEC54F0E552E552B7EF16F0C7
:1031C00080B8E0EF20F010EC56F00601F66FE85002
:1031D00002E1E0EF20F0F6C6E6FFDEEC74F0E55227
:1031E000F3CF36F0F4CF37F0F350F41007E0F6C623
:1031F000E6FFF0EC74F0E552F3CFF6F60601F65177
:103200003F0A02E1D6EF20F0690A02E1D3EF20F095
:10321000110A02E1D0EF20F01F0A02E1CDEF20F009
:103220000B0A02E1CBEF20F0010A01E152D1050ABD
:1032300001E14DD10D0A01E138D1170A01E17CD03D
:10324000010A33E0080A06E0060A01E01200F29ED5
:1032500080EC7EF04D0EE66EC00EE66EDCEC54F0B7
:10326000E552E552270EE66EC00EE66EDCEC54F039
:10327000E552E55210EC56F00601F66F780EF65D59
:1032800003E07A0EF65DF6E1780EF65D04E15DECA2
:103290003BF0DEEF20F01B0EE66EC00EE66EDCECBF
:1032A00054F0E552E552DEEF20F0000EE66EC00E5F
:1032B000E66EDCEC54F0E552E552300E0A01602572
:1032C000E66EFCEC54F0E5526DEC38F00601F76B5D
:1032D000400EF75D02E3DEEF20F0F40EE66EBF0E67
:1032E000E66EDCEC54F0E552E5520601F729E66E95
:1032F000E66A28EC55F0E552E552F00EE66EBF0E98
:10330000E66EDCEC54F0E552E5520601F751EA6A4C
:10331000000FE96E080EEA22EFCF36F0376A36BEAC
:10332000376836C0E6FF37C0E6FF91EC55F0E5524E
:10333000E5520601F72BCCD7020EE66E0EEC73F0C9
:10334000E552F40EE66EBF0EE66EDCEC54F0E5528C
:10335000E55236EC56F0FF0F0601F76FF00EE66E01
:10336000BF0EE66EDCEC54F0E552E55251EC56F03F
:10337000F3CFF9F6F4CFFAF60601D880F45004E75B
:10338000800EF95DFF0EFA5904E2800E366E376842
:103390000FD0FA3509E2F9517F08000EFA5504E220
:1033A0007F0E366E376A04D0F9C636F0FAC637F0AB
:1033B00036C0F8F62B0EF75D09E1F751EA6AB50F52
:1033C000E96E060EEA220A0EEF6E08D0F751EA6A9D
:1033D000B50FE96E060EEA22F8C6EFFF3F0EF75D65
:1033E0005EE1080100515BE006010A0EE06F030E8A
:1033F000C16FF76B400EF75D4DE20A01600524E1F5
:103400000601F751EA6AB50FE96E060EEA22EF509F
:10341000E66EF751E66EE66A98EC6FF0E552E5521B
:10342000E5520601F751F66EF76AD890F636F73690
:10343000010EF626E80EF722010EF626000EF72200
:103440000800F55024E012D00601F751F66EF76A35
:10345000D890F636F736010EF626E80EF722010E62
:10346000F626000EF7220800F55011E1F751EA6A3E
:10347000B50FE96E060EEA22EF50E66E400EF72514
:10348000E66EE66A98EC6FF0E552E552E552060109
:10349000F72BB0D70A013E850A01010E616F020EBB
:1034A000E66E1AEC73F0DDEF20F036EC56F0060114
:1034B000F76F0A0160510601F75D02E1E0EF20F0CD
:1034C000F7C660FA0A01010E616F6DEF38F0DAEFAE
:1034D00009F0EB0EE66EBF0EE66EDCEC54F0E55242
:1034E000E55212CF51F013CF52F0536A546A52AEE4
:1034F00002D053685468F40E566E010E576E586A27
:10350000596A41EC74F04DC051F04EC052F04FC0BA
:1035100053F050C054F0F00E566E576A586A596A0C
:1035200099EC6DF0D8805450FF0A08E6190E515CF2
:10353000FC0E5258FF0E5358FF0E545807E2190E56
:10354000366EFC0E376E386839686FD012CF51F086
:1035500013CF52F0536A546A52AE02D05368546883
:10356000F40E566E010E576E586A596A41EC74F0AB
:103570004DC051F04EC052F04FC053F050C054F007
:10358000F00E566E576A586A596A99EC6DF05434C9
:10359000000E541809E6D880E70E5154030E525419
:1035A000000E5354000E545407E2E70E366E030E1D
:1035B000376E386A396A39D012CF36F013CF37F008
:1035C000386A396A37AE02D038683968F40E566EF8
:1035D000010E576E586A596A36C051F037C052F022
:1035E00038C053F039C054F041EC74F04DC036F09F
:1035F0004EC037F04FC038F050C039F0F00E566E64
:10360000576A586A596A4DC051F04EC052F04FC0C7
:1036100053F050C054F099EC6DF051C036F052C0E8
:1036200037F053C038F054C039F036C0E6FF37C029
:10363000E6FF91EC55F0E552E552E70EE66EBF0E5F
:10364000E66EDCEC54F0E552E55214CF51F015CFA4
:1036500052F0536A546A52AE02D053685468F40E62
:10366000566E010E576E586A596A41EC74F04DC09F
:1036700051F04EC052F04FC053F050C054F0F00E15
:10368000566E576A586A596A99EC6DF0D880545052
:10369000FF0A08E6190E515CFC0E5258FF0E5358F3
:1036A000FF0E545807E2190E366EFC0E376E38685E
:1036B00039686FD014CF51F015CF52F0536A546A65
:1036C00052AE02D053685468F40E566E010E576E17
:1036D000586A596A41EC74F04DC051F04EC052F036
:1036E0004FC053F050C054F0F00E566E576A586AEF
:1036F000596A99EC6DF05434000E541809E6D880DC
:10370000E70E5154030E5254000E5354000E5454FD
:1037100007E2E70E366E030E376E386A396A39D023
:1037200014CF36F015CF37F0386A396A37AE02D089
:1037300038683968F40E566E010E576E586A596A29
:1037400036C051F037C052F038C053F039C054F091
:1037500041EC74F04DC036F04EC037F04FC038F039
:1037600050C039F0F00E566E576A586A596A4DC00B
:1037700051F04EC052F04FC053F050C054F099EC8D
:103780006DF051C036F052C037F053C038F054C01D
:1037900039F036C0E6FF37C0E6FF91EC55F0E55250
:1037A000E552E30EE66EBF0EE66EDCEC54F0E55239
:1037B000E55216CF51F017CF52F0536A546A52AE09
:1037C00002D053685468F40E566E010E576E586A54
:1037D000596A41EC74F04DC051F04EC052F04FC0E8
:1037E00053F050C054F0F00E566E576A586A596A3A
:1037F00099EC6DF0D8805450FF0A08E6190E515C20
:10380000FC0E5258FF0E5358FF0E545807E2190E83
:10381000366EFC0E376E386839686FD016CF51F0AF
:1038200017CF52F0536A546A52AE02D053685468AC
:10383000F40E566E010E576E586A596A41EC74F0D8
:103840004DC051F04EC052F04FC053F050C054F034
:10385000F00E566E576A586A596A99EC6DF05434F6
:10386000000E541809E6D880E70E5154030E525446
:10387000000E5354000E545407E2E70E366E030E4A
:10388000376E386A396A39D016CF36F017CF37F02D
:10389000386A396A37AE02D038683968F40E566E25
:1038A000010E576E586A596A36C051F037C052F04F
:1038B00038C053F039C054F041EC74F04DC036F0CC
:1038C0004EC037F04FC038F050C039F0F00E566E91
:1038D000576A586A596A4DC051F04EC052F04FC0F5
:1038E00053F050C054F099EC6DF051C036F052C016
:1038F00037F053C038F054C039F036C0E6FF37C057
:10390000E6FF91EC55F0E552E552DF0EE66EBF0E94
:10391000E66EDCEC54F0E552E55218CF51F019CFC9
:1039200052F0536A546A52AE02D053685468F40E8F
:10393000566E010E576E586A596A41EC74F04DC0CC
:1039400051F04EC052F04FC053F050C054F0F00E42
:10395000566E576A586A596A99EC6DF0D88054507F
:10396000FF0A08E6190E515CFC0E5258FF0E535820
:10397000FF0E545807E2190E366EFC0E376E38688B
:1039800039686FD018CF51F019CF52F0536A546A8A
:1039900052AE02D053685468F40E566E010E576E44
:1039A000586A596A41EC74F04DC051F04EC052F063
:1039B0004FC053F050C054F0F00E566E576A586A1C
:1039C000596A99EC6DF05434000E541809E6D88009
:1039D000E70E5154030E5254000E5354000E54542B
:1039E00007E2E70E366E030E376E386A396A39D051
:1039F00018CF36F019CF37F0386A396A37AE02D0AF
:103A000038683968F40E566E010E576E586A596A56
:103A100036C051F037C052F038C053F039C054F0BE
:103A200041EC74F04DC036F04EC037F04FC038F066
:103A300050C039F0F00E566E576A586A596A4DC038
:103A400051F04EC052F04FC053F050C054F099ECBA
:103A50006DF051C036F052C037F053C038F054C04A
:103A600039F036C0E6FF37C0E6FF91EC55F0E5527D
:103A7000E552DB0EE66EBF0EE66EDCEC54F0E5526E
:103A8000E5521ACF51F01BCF52F0536A546A52AE2E
:103A900002D053685468F40E566E010E576E586A81
:103AA000596A41EC74F04DC051F04EC052F04FC015
:103AB00053F050C054F0F00E566E576A586A596A67
:103AC00099EC6DF0D8805450FF0A08E6190E515C4D
:103AD000FC0E5258FF0E5358FF0E545807E2190EB1
:103AE000366EFC0E376E386839686FD01ACF51F0D9
:103AF0001BCF52F0536A546A52AE02D053685468D6
:103B0000F40E566E010E576E586A596A41EC74F005
:103B10004DC051F04EC052F04FC053F050C054F061
:103B2000F00E566E576A586A596A99EC6DF0543423
:103B3000000E541809E6D880E70E5154030E525473
:103B4000000E5354000E545407E2E70E366E030E77
:103B5000376E386A396A39D01ACF36F01BCF37F052
:103B6000386A396A37AE02D038683968F40E566E52
:103B7000010E576E586A596A36C051F037C052F07C
:103B800038C053F039C054F041EC74F04DC036F0F9
:103B90004EC037F04FC038F050C039F0F00E566EBE
:103BA000576A586A596A4DC051F04EC052F04FC022
:103BB00053F050C054F099EC6DF051C036F052C043
:103BC00037F053C038F054C039F036C0E6FF37C084
:103BD000E6FF91EC55F0E552E552D70EE66EBF0ECA
:103BE000E66EDCEC54F0E552E5521CCF51F01DCFEF
:103BF00052F0536A546A52AE02D053685468F40EBD
:103C0000566E010E576E586A596A41EC74F04DC0F9
:103C100051F04EC052F04FC053F050C054F0F00E6F
:103C2000566E576A586A596A99EC6DF0D8805450AC
:103C3000FF0A08E6190E515CFC0E5258FF0E53584D
:103C4000FF0E545807E2190E366EFC0E376E3868B8
:103C500039686FD01CCF51F01DCF52F0536A546AAF
:103C600052AE02D053685468F40E566E010E576E71
:103C7000586A596A41EC74F04DC051F04EC052F090
:103C80004FC053F050C054F0F00E566E576A586A49
:103C9000596A99EC6DF05434000E541809E6D88036
:103CA000E70E5154030E5254000E5354000E545458
:103CB00007E2E70E366E030E376E386A396A39D07E
:103CC0001CCF36F01DCF37F0386A396A37AE02D0D4
:103CD00038683968F40E566E010E576E586A596A84
:103CE00036C051F037C052F038C053F039C054F0EC
:103CF00041EC74F04DC036F04EC037F04FC038F094
:103D000050C039F0F00E566E576A586A596A4DC065
:103D100051F04EC052F04FC053F050C054F099ECE7
:103D20006DF051C036F052C037F053C038F054C077
:103D300039F036C0E6FF37C0E6FF91EC55F0E552AA
:103D4000E552D30EE66EBF0EE66EDCEC54F0E552A3
:103D5000E5521ECF51F01FCF52F0536A546A52AE53
:103D600002D053685468F40E566E010E576E586AAE
:103D7000596A41EC74F04DC051F04EC052F04FC042
:103D800053F050C054F0F00E566E576A586A596A94
:103D900099EC6DF0D8805450FF0A08E6190E515C7A
:103DA000FC0E5258FF0E5358FF0E545807E2190EDE
:103DB000366EFC0E376E386839686FD01ECF51F002
:103DC0001FCF52F0536A546A52AE02D053685468FF
:103DD000F40E566E010E576E586A596A41EC74F033
:103DE0004DC051F04EC052F04FC053F050C054F08F
:103DF000F00E566E576A586A596A99EC6DF0543451
:103E0000000E541809E6D880E70E5154030E5254A0
:103E1000000E5354000E545407E2E70E366E030EA4
:103E2000376E386A396A39D01ECF36F01FCF37F077
:103E3000386A396A37AE02D038683968F40E566E7F
:103E4000010E576E586A596A36C051F037C052F0A9
:103E500038C053F039C054F041EC74F04DC036F026
:103E60004EC037F04FC038F050C039F0F00E566EEB
:103E7000576A586A596A4DC051F04EC052F04FC04F
:103E800053F050C054F099EC6DF051C036F052C070
:103E900037F053C038F054C039F036C0E6FF37C0B1
:103EA000E6FF91EC55F0E552E552CF0EE66EBF0EFF
:103EB000E66EDCEC54F0E552E55220CF51F021CF14
:103EC00052F0536A546A52AE02D053685468F40EEA
:103ED000566E010E576E586A596A41EC74F04DC027
:103EE00051F04EC052F04FC053F050C054F0F00E9D
:103EF000566E576A586A596A99EC6DF0D8805450DA
:103F0000FF0A08E6190E515CFC0E5258FF0E53587A
:103F1000FF0E545807E2190E366EFC0E376E3868E5
:103F200039686FD020CF51F021CF52F0536A546AD4
:103F300052AE02D053685468F40E566E010E576E9E
:103F4000586A596A41EC74F04DC051F04EC052F0BD
:103F50004FC053F050C054F0F00E566E576A586A76
:103F6000596A99EC6DF05434000E541809E6D88063
:103F7000E70E5154030E5254000E5354000E545485
:103F800007E2E70E366E030E376E386A396A39D0AB
:103F900020CF36F021CF37F0386A396A37AE02D0F9
:103FA00038683968F40E566E010E576E586A596AB1
:103FB00036C051F037C052F038C053F039C054F019
:103FC00041EC74F04DC036F04EC037F04FC038F0C1
:103FD00050C039F0F00E566E576A586A596A4DC093
:103FE00051F04EC052F04FC053F050C054F099EC15
:103FF0006DF051C036F052C037F053C038F054C0A5
:1040000039F036C0E6FF37C0E6FF91EC55F0E552D7
:10401000E552CB0EE66EBF0EE66EDCEC54F0E552D8
:10402000E55222CF51F023CF52F0536A546A52AE78
:1040300002D053685468F40E566E010E576E586ADB
:10404000596A41EC74F04DC051F04EC052F04FC06F
:1040500053F050C054F0F00E566E576A586A596AC1
:1040600099EC6DF0D8805450FF0A08E6190E515CA7
:10407000FC0E5258FF0E5358FF0E545807E2190E0B
:10408000366EFC0E376E386839686FD022CF51F02B
:1040900023CF52F0536A546A52AE02D05368546828
:1040A000F40E566E010E576E586A596A41EC74F060
:1040B0004DC051F04EC052F04FC053F050C054F0BC
:1040C000F00E566E576A586A596A99EC6DF054347E
:1040D000000E541809E6D880E70E5154030E5254CE
:1040E000000E5354000E545407E2E70E366E030ED2
:1040F000376E386A396A39D022CF36F023CF37F09D
:10410000386A396A37AE02D038683968F40E566EAC
:10411000010E576E586A596A36C051F037C052F0D6
:1041200038C053F039C054F041EC74F04DC036F053
:104130004EC037F04FC038F050C039F0F00E566E18
:10414000576A586A596A4DC051F04EC052F04FC07C
:1041500053F050C054F099EC6DF051C036F052C09D
:1041600037F053C038F054C039F036C0E6FF37C0DE
:10417000E6FF91EC55F0E552E552C70EE66EBF0E34
:10418000E66EDCEC54F0E552E552000EE66EE66AAF
:1041900091EC55F011D0D9EF16F0E3EC3EF00ED0D3
:1041A0003AEC2BF00BD099EC71F008D0380EE66E9B
:1041B000E50EE66EDCEC54F0E552E552B7EF16F092
:0241C0001200EB
:0E41C200D9CFE6FFE1CFD9FFFB0EDBCF51F0E6
:1041D000FC0EDBCF52F0FD0EDBCF53F0FE0EDBCF3B
:1041E00054F03F0E566E070E576E586A596A41ECEE
:1041F00074F04DC051F04EC052F04FC053F050C05B
:1042000054F0100E566E270E576E586A596A99EC84
:104210006DF0E552E7CFD9FF1200D9CFE6FFE1CF2D
:10422000D9FFFB0EDBCF51F0FC0EDBCF52F0FD0EC1
:10423000DBCF53F0FE0EDBCF54F03F0E566E070E71
:10424000576E586A596A41EC74F04DC051F04EC037
:1042500052F04FC053F050C054F0A00E566E860E70
:10426000576E010E586E596A99EC6DF0E552E7CF22
:10427000D9FF1200D9CFE6FFE1CFD9FFFB0EDBCF8C
:1042800051F0FC0EDBCF52F0FD0EDBCF53F0FE0EF3
:10429000DBCF54F0A00E566E860E576E010E586E90
:1042A000596A41EC74F04DC051F04EC052F04FC00D
:1042B00053F050C054F03F0E566E070E576E586ABA
:1042C000596A99EC6DF0E552E7CFD9FF1200D9CFCA
:1042D000E6FFE1CFD9FF0901546B556B566B0A011C
:1042E000B35136E1FE0EDBCF53F9FD0EDB50090171
:1042F000D88053552DE354C936F055C937F056C907
:1043000038F00A0E576E586A596A54C952F055C9A6
:1043100053F056C954F0FAEC6DF009015351EA6AB2
:10432000000FE96E070EEA22EFCF39F03A6A3B6AD6
:104330004F503924546F50503A20556F51503B2004
:10434000566F300E545F000E555B565B532BCDD726
:1043500054C952F055C953F056C954F0E552E7CF4D
:10436000D9FF1200D9CFE6FFE1CFD9FF0901636B76
:10437000646B656B666B0A01B35101E0CBD0FE0E36
:10438000DB50040F0901676F6751EA6A000FE96E9D
:10439000070EEA22EF502E0802E0672BF5D7030E36
:1043A000675DE66EFE0EDBCFE6FF91DFE552E5527C
:1043B00052C057F953C058F954C059F909015A6B02
:1043C00059BF5A696705E66E020E675DE66E7FDFCC
:1043D000E552E55252C05BF953C05CF954C05DF937
:1043E00009015E6B5DBF5E69FD0EDB50D8806755CD
:1043F000040814E2050E6725E66E6729E66E67DF9E
:10440000E552E55252C05FF953C060F954C061F9FA
:104410000901626B61AF2BD0626929D0040E672558
:10442000E66E6729E66E53DFE552E55252C05FF94A
:1044300053C060F954C061F90901626B61BF6269E0
:104440000A0E566E576A586A596A5FC951F060C9B8
:1044500052F061C953F062C954F041EC74F04DC0A0
:104460005FF94EC060F94FC061F950C062F957C999
:1044700036F058C937F059C938F05AC939F0800EAA
:10448000566E8D0E576E5B0E586E596A57C951F0B5
:1044900058C952F059C953F05AC954F041EC74F05C
:1044A0004DC036F04EC037F04FC038F050C039F034
:1044B0005BC93AF05CC93BF05DC93CF05EC93DF0B8
:1044C000A00E566E860E576E010E586E596A5BC965
:1044D00051F05CC952F05DC953F05EC954F041EC33
:1044E00074F04D5036264E5037224F5038225050DF
:1044F00039225F0EE96E090EEA6E3650EE2409018C
:10450000636F3750EE20646F3850EE20656F39507E
:10451000EE20666F63C951F064C952F065C953F06B
:1045200066C954F0E552E7CFD9FF1200D9CFE6FFB4
:10453000E1CFD9FF0901686B696B6A6B6B6B0A018C
:10454000B35101E09AD0FE0EDB28E66EFE0EDBCF03
:10455000E6FFBDDEE552E55252C036F053C037F0FB
:1045600054C038F0396A38BE3968100E566E0E0ED7
:10457000576E586A596A36C051F037C052F038C089
:1045800053F039C054F041EC74F04DC036F04EC0D9
:1045900037F04FC038F050C039F04DC0E6FF4EC084
:1045A000E6FF4FC0E6FF50C0E6FFFE0EDB50030FF4
:1045B000E66EFE0EDB50020FE66E89DEE552E55236
:1045C000E552E7CF39F0E552E7CF38F0E552E7CFD3
:1045D00037F0E552E7CF36F052C03AF053C03BF027
:1045E00054C03CF03C0E576E586A596AFAEC6DF0B4
:1045F0004FC03AF050C03BF051C03CF03D6A3CBE69
:104600003D683A5036263B5037223C5038223D50C8
:10461000392236C0E6FF37C0E6FF38C0E6FF39C0B2
:10462000E6FFFD0EDBCFE6FFFE0EDB50040FE66E6D
:104630004EDEE552E552E552E7CF39F0E552E7CFDD
:1046400038F0E552E7CF37F0E552E7CF36F052C009
:104650003EF053C03FF054C040F0416A40BE416854
:1046600036503E240901686F37503F20696F38503B
:1046700040206A6F395041206B6F68C951F069C999
:1046800052F06AC953F06BC954F0E552E7CFD9FF35
:104690001200B0CAB1FA0A01B051EA6A000FE96E1D
:1046A000070EEA22EFCF6CF92C0E09016C5D09E0D0
:1046B0002A0E6C5D06E00A01AF51B05D02E2B02B3C
:1046C000EBD70A01B005B26FB02BB151B25D02E376
:1046D000000E01D0010EB36F12000A01B06B50C77B
:1046E000AFFAD7DFD6DFB2CAE6FFB1CAE6FF1EDFF8
:1046F000E552E55251C0D8F452C0D9F453C0DAF4AF
:1047000054C0DBF4C6DFB2CAE6FFB1CAE6FF2ADE58
:10471000E552E55251C0E6F452C0E7F453C0E8F464
:1047200054C0E9F4B6DF0A01B151EA6A000FE96E3C
:10473000070EEA22EF50530809E1000E0401E66D6E
:10474000E71FE723E81FE823E91FE923A2DFB2CA36
:10475000E6FFB1CAE6FF06DEE552E55251C0EAF4D3
:1047600052C0EBF453C0ECF454C0EDF492DF0A01F4
:10477000B151EA6A000FE96E070EEA22EF505708BE
:1047800009E1000E0401EA6DEB1FEB23EC1FEC23A3
:10479000ED1FED237EDFB2CAE6FFB1CAE6FF97DD6B
:1047A000E552E55252C0FDF474DFB2CAE6FFB1CA69
:1047B000E6FF8DDDE552E55252C0FCF46ADF030EE0
:1047C0000A01B25DE66EB1CAE6FF81DDE552E5524F
:1047D00052C039F053C03AF054C03BF00A0E576E45
:1047E000586A596AFAEC6DF04FC039F050C03AF08F
:1047F00051C03BF04FC0E6FF50C0E6FF51C0E6FF9E
:104800000A01B205E66EB205E66E61DDE552E552DB
:10481000E552E7CF3BF0E552E7CF3AF0E552E7CF7C
:1048200039F039505224366E3A505320376E3B508F
:104830005420386E36C0FEF437C0FFF42ADF020E73
:104840000A01B25DE66EB1CAE6FF41DDE552E5520E
:1048500052C036F053C037F054C038F0396A38BE11
:1048600039680A0E566E576A586A596A36C051F04E
:1048700037C052F038C053F039C054F041EC74F0F6
:104880004DC036F04EC037F04FC038F050C039F050
:104890004DC0E6FF4EC0E6FF4FC0E6FF50C0E6FF4A
:1048A000B2CAE6FFB2CAE6FF12DDE552E552E552B2
:1048B000E7CF39F0E552E7CF38F0E552E7CF37F0F0
:1048C000E552E7CF36F052C03AF053C03BF054C047
:1048D0003CF00A0E576E586A596AFAEC6DF04FC0F8
:1048E0003AF050C03BF051C03CF03D6A3CBE3D68E0
:1048F0003A5036263B5037223C5038223D50392220
:1049000036C0E0F437C0E1F438C0E2F4010E04012F
:10491000FD5D03E3060EFC5D02E2000E01D0010E18
:104920000A013A9DE8B03A8D040E6C5C63E1050122
:10493000DD510401FF19E8AE02D0FF3507D0FE516A
:104940000501DC5D0401FF510501DD5905E2FEC4EE
:10495000DCF5FFC4DDF514D00401FF510501DB19BE
:10496000E8AE02D0DB3507D0DA510401FE5D050167
:10497000DB510401FF5904E2FEC4DAF5FFC4DBF5A4
:104980000401FC51366E376A0501D7513718E8AE7D
:1049900002D0373404D03650D65D3750D75906E2AE
:1049A0000401FC510501D66FD76B15D00401FC51F1
:1049B000366E376A05013750C719E8AE02D0C735E1
:1049C00004D0C651365CC751375805E20401FC518A
:1049D0000501C66FC76B0401FF3504E2FE510F08E5
:1049E000000EFF5502E3000E01D0010E0A013B97B5
:1049F000E8B03B8712000A01B06B50C7AFFA49DE3E
:104A000048DE47DE0A01B151EA6A000FE96E070E7F
:104A1000EA22EF50410801E03FD10A013A8D39DE28
:104A2000B2CAE6FFB1CAE6FF9DDCE552E55251C0CD
:104A3000E6F452C0E7F453C0E8F454C0E9F429DEC8
:104A40000A01B151EA6A000FE96E070EEA22EF503F
:104A5000530809E1000E0401E66DE71FE723E81F94
:104A6000E823E91FE92315DEB2CAE6FFB1CAE6FF73
:104A700079DCE552E55251C0EAF452C0EBF453C080
:104A8000ECF454C0EDF405DE0A01B151EA6A000FFE
:104A9000E96E070EEA22EF50570809E1000E040103
:104AA000EA6DEB1FEB23EC1FEC23ED1FED23F1DD93
:104AB000080EE66EB2CAE6FF0A01B205E66E67ECC2
:104AC00021F0E552E55252C03AF053C03BF054C0D9
:104AD0003CF03D6A3CBE3D683AC0E6FF3BC0E6FFA5
:104AE0003CC0E6FF3DC0E6FF030E0A01B25DE66E84
:104AF000B1CAE6FF67EC21F0E552E552E552E7CF97
:104B00003DF0E552E7CF3CF0E552E7CF3BF0E55210
:104B1000E7CF3AF052C051F053C052F054C053F0B6
:104B2000546A53BE5468640E566E576A586A596A7E
:104B300041EC74F04D5000013A24366E4E503B204B
:104B4000376E4F503C20386E50503D20396E0D0E60
:104B5000566E576A586A596A36C051F037C052F0DB
:104B600038C053F039C054F041EC74F04DC036F009
:104B70004EC037F04FC038F050C039F04DC0E6FF9E
:104B80004EC0E6FF4FC0E6FF50C0E6FF25EC48F000
:104B90003E6E050EE15E3E5051C0FAF452C0FBF489
:104BA00078DD080EE66EB2CAE6FF0A01B205E66ECF
:104BB00067EC21F0E552E55252C03AF053C03BF0A9
:104BC00054C03CF03D6A3CBE3D683AC0E6FF3BC085
:104BD000E6FF3CC0E6FF3DC0E6FF030E0A01B25D02
:104BE000E66EB1CAE6FF67EC21F0E552E552E55208
:104BF000E7CF3DF0E552E7CF3CF0E552E7CF3BF0A1
:104C0000E552E7CF3AF052C051F053C052F054C0D1
:104C100053F0546A53BE5468640E566E576A586A0D
:104C2000596A41EC74F04D5000013A24366E4E50F2
:104C30003B20376E4F503C20386E50503D20396E2F
:104C40002D0E566E576A586A596A36C051F037C0F1
:104C500052F038C053F039C054F041EC74F04DC0FC
:104C600036F04EC037F04FC038F050C039F04DC06C
:104C7000E6FF4EC0E6FF4FC0E6FF50C0E6FF25EC62
:104C800048F03E6E050EE15E3E5051C0F8F452C051
:104C9000F9F40A01408912000A0140991200D9CFA3
:104CA000E6FFE1CFD9FF245001E198D0020A55E098
:104CB000040A33E0010A01E09CD0020E2B5C15E2ED
:104CC0002C38F00B2C6E410EF36EFE0EDBCFF4FF92
:104CD000F350F45C04E3FE0EDB50C90F03D0FE0E6C
:104CE000DB50D00F2C262B2A84D025C050F729501A
:104CF0002C5C02E0000E01D0010E0A014293E8B0E4
:104D0000428342A369D00A01AD51010A04E0010ABD
:104D100063E1E3DC61D06FDE5FD0FE0EDB502A087A
:104D200004E12C6A2B6A070E63D0FE0EDB502408C8
:104D300003E1000E296E59D0FE0EDB50291A2550D2
:104D4000252AEA6A000FE96E070EEA22FE0EDBCF83
:104D5000EFFF25504F084DE23FD0FE0EDB50291AE1
:104D60002650050DF3CF36F0F4CF37F00E0E362671
:104D7000000E372227503624F66E000E3720F76ECD
:104D80000800F550F36EFE0EDB50F35C05E0020EFA
:104D9000265C02E2262AE4D72650050DF3CF36F032
:104DA000F4CF37F00E0E3626000E37222750362469
:104DB000F66E000E3720F76E0800F550F36EFE0E0B
:104DC000DB50F35C09E1040E275C04E126C0ADFA78
:104DD000060E0ED0272A0DD0246A0BD0FE0EDB5013
:104DE000240807E1000E296E266E276E256E020E3E
:104DF000246EE552E7CFD9FF1200B4CA36F0B5CA27
:104E000037F0386A396A37AE02D0386839681E0E12
:104E1000361801E0FED0375001E0FBD0385001E0F9
:104E2000F8D0395001E0F5D00A013A51400B01E1C8
:104E3000F0D02BEC6AF052C082F653C083F654C017
:104E400084F6D8C4DCF4D9C4DDF4DAC4DEF4DBC4FF
:104E5000DFF4E6C4EEF4E7C4EFF4E8C4F0F4E9C428
:104E6000F1F4EAC4F2F4EBC4F3F4ECC4F4F4EDC4EA
:104E7000F5F4E6C471F9E7C472F9E8C473F9E9C45A
:104E800074F9C00E566E270E576E090E586E596A89
:104E9000E6C451F0E7C452F0E8C453F0E9C454F05A
:104EA00099EC6DF051C071F952C072F953C073F9A9
:104EB00054C074F90901800E541409E0000E716D9C
:104EC000721F7223731F7323741F742302D074C95B
:104ED00074F971C936F072C937F073C938F074C902
:104EE00039F0F60E566E0D0E576E586A596A71C932
:104EF00051F072C952F073C953F074C954F041ECC7
:104F000074F04DC036F04EC037F04FC038F050C08E
:104F100039F00B0ED8903932383237323632E80653
:104F2000F9E136C071F937C072F938C073F939C088
:104F300074F936C0E6FF37C0E6FF15EC4AF0E552DB
:104F4000E552F3CFF6F4F4CFF7F4E0C4E3F4E1C4B0
:104F5000E4F4E2C4E5F40401FA6BFB6BE0C436F060
:104F6000E1C437F0E2C438F0640E576E586A596AEB
:104F7000E0C452F0E1C453F0E2C454F06CEC6DF0C4
:104F800052C036F053C037F054C038F052C0E6FF7C
:104F900053C0E6FF0C0EE66E010EE66ED4EC6FF029
:104FA000E552E552E552E552E6C4E6FFE7C4E6FF06
:104FB000E8C4E6FFE9C4E6FF0E0EE66E010EE66EFB
:104FC00004EC70F0366E060EE15E3650EAC4E6FF81
:104FD000EBC4E6FFECC4E6FFEDC4E6FF120EE66E9E
:104FE000010EE66E04EC70F0366E060EE15E365091
:104FF0000A013ABF0DD0E66A080EE66E96EC2CF078
:10500000E552E552010E0501D86FD96B0A013A8FBE
:105010003D8912000A013AAD1DD12BEC6AF052C055
:1050200075F953C076F954C077F9820EE96E060E11
:10503000EA6EEE50525C366EEE505358376EEE50BC
:10504000545836C078F937C079F952C082F653C047
:1050500083F654C084F6B4CA36F0B5CA37F0386A5D
:10506000396A37AE02D038683968D8903950000AAA
:1050700008E61E0E365C000E3758000E3858000E3B
:10508000395822E20A013A9DFEC436F0FFC437F0D7
:10509000386A396A37AE02D0386839683934000E58
:1050A000391809E6D8800F0E3654000E3754000E1A
:1050B0003854000E395405E30A01B42B000EB52311
:1050C00003D00A01B46BB56B0A013AAF92D0EE0E71
:1050D000E96E040EEA6EEE500401E65D366EEE50A7
:1050E000E759376EEE50E859386EEE50E959396E8F
:1050F00036C0E6FF37C0E6FF38C0E6FFE66EE1ECFB
:1051000020F0E552E552E552E55251C057F752C042
:1051100058F753C059F7080EE66EF6C43EF0F7C4D0
:105120003FF0406A416A3FAE02D0406841683EC0ED
:10513000E6FF3FC0E6FF40C0E6FF41C0E6FFF20EDB
:10514000E96E040EEA6EEE500401EA5D3A6EEE502E
:10515000EB593B6EEE50EC593C6EEE50ED593D6E06
:105160003AC0E6FF3BC0E6FF3CC0E6FFE66EE1EC7E
:1051700020F0E552E552E552E552E552E7CF41F025
:10518000E552E7CF40F0E552E7CF3FF0E552E7CFF9
:105190003EF03EC056F03FC057F040C058F041C00E
:1051A00059F041EC74F04DC036F04EC037F04FC0AE
:1051B00038F050C039F04DC0E6FF4EC0E6FF4FC09A
:1051C000E6FF50C0E6FF25EC48F0050EE15E51C059
:1051D00068F752C069F753C06AF757C75DF758C7F9
:1051E0005EF759C75FF751C06EF752C06FF753C0F3
:1051F00070F7040E6C5C37E1C0C536F0C1C537F0FE
:10520000386A37BE386838500401E219E8AE02D077
:10521000E23506D0E051365CE1513758E25138585A
:1052200004E2E0C4C0F5E1C4C1F50501CD510401BB
:10523000FB19E8AE02D0FB3507D0FA510501CC5D71
:105240000401FB510501CD590EE2FAC4CCF5FBC4B3
:10525000CDF51200B4CAFCF4040E6C5C04E1050147
:10526000D42B000ED52312000A014251020B1BE180
:105270002F502D1802E130502E1815E0000E2F246B
:10528000E96E020E3020EA6EEFCF7AF9010E2F267A
:10529000000E3022FF0E2F16000E30167AC9E6FFE0
:1052A000FEDCE552E1D742A330D0020EE66E0EECF2
:1052B00073F0E552040EE66E1AEC73F0E5520A0143
:1052C0004293A8DE0A013AAD1ED0040EE66E1AEC37
:1052D00073F0E5520A013F972BEC6AF052C036F0AA
:1052E00053C037F054C038F0396AD00E3626070E56
:1052F0003722000E3822392236C08BF637C08CF6A2
:1053000038C08DF613D03D9D0CD02BEC6AF0525076
:1053100006018B5D53508C5954508D5907E20A0198
:105320003A9D040EE66E0EEC73F0E552020EE66E48
:105330001AEC73F0E55212000A01B06B0401F66B2F
:10534000010EF76FFE6BFF6BFC6BFCC4FDF4FCC43D
:10535000D8F4D96BDA6BDB6B000EFA6FFB6BF86F6E
:10536000F96BE06FE16BE26BE1BFE269E66BE76B63
:10537000E86BE96BE6C4EEF4E7C4EFF4E8C4F0F4DC
:10538000E9C4F1F4EA6BEB6BEC6BED6BEAC4F2F49D
:10539000EBC4F3F4ECC4F4F4EDC4F5F4E66AE66AA5
:1053A000E66AE66A0E0EE66E010EE66E04EC70F03A
:1053B000366E060EE15E3650E66AE66AE66AE66A30
:1053C000120EE66E010EE66E04EC70F0366E060EFE
:1053D000E15E3650000EE66EE66A0C0EE66E010ED9
:1053E000E66ED4EC6FF0E552E552E552E5520A0163
:1053F000B46BB56B0A0142933A9D3A9F246A12003E
:1054000074BA05D0200EE66E0EEC73F004D0200EB8
:10541000E66E1AEC73F0E5520A013EA105D0080EC3
:10542000E66E0EEC73F004D0080EE66E1AEC73F024
:10543000E552800EE66E1AEC73F0E5522BEC6AF042
:1054400052C0B4F853C0B5F854C0B6F8F40E080111
:10545000B427010EB523000EB623E0EC18F0010EC0
:105460006F6EA1EC6BF0010E6F6EB8EC44F00A01A8
:105470003B9D3EA15CD0080EE66E0EEC73F0E5524B
:105480000A013EA75ED0C2EC35F042CF40FF43CFC9
:1054900041FF000E0F013C6F3D6B0F01426F436BEC
:1054A0006BEC4FF02BEC6AF052500801B45D535096
:1054B000B5595450B65932E20A013D51020B2EE162
:1054C00015EC3DF00A013E95E8B03E853C51010BDC
:1054D00006E13B51800B03E13E51040B13E174BE26
:1054E00005D0800EE66E0EEC73F004D0800EE66EF2
:1054F0001AEC73F0E55274B405D0040EE66E0EECAF
:1055000073F004D0040EE66E1AEC73F0E552F40E5C
:105510000801B427010EB523000EB6230601FB07D0
:1055200010E122EC3CF00601010EFB6F0AD0040EE4
:10553000E66E0EEC73F0E552080EE66E1AEC73F0B0
:10554000E5526DEC38F00A013E51010B01E185D7BF
:105550008050100B04E00801AF5101E07ED70A0132
:105560004151400B01E079D73C51010B01E075D767
:105570003B51800B01E071D73A51040B01E06DD72C
:1055800040CF36F041CF37F0386A396A37AE02D0B3
:1055900038683968D8903950000A08E6180E365C29
:1055A000000E3758000E3858000E395801E355D711
:1055B0003E51040B01E151D70801AF6B800EE66E3E
:1055C0001AEC73F0E552040EE66E1AEC73F0E55235
:1055D000080EE66E0EEC73F0E5520A013EAB05D004
:1055E000200EE66E0EEC73F004D0200EE66E1AEC80
:1055F00073F0E5522BEC6AF052C0B0F853C0B1F82A
:1056000054C0B2F80801B36B52C097F653C098F675
:1056100054C099F652C036F053C037F054C038F039
:10562000B3C839F0E80E3626030E3722000E3822B2
:10563000392236C073F637C074F638C075F680C0AC
:1056400036F0376A386A396AB00EE96E080EEA6ECB
:10565000EE503626EE503722EE503822EE503922E8
:1056600036C0B2F637C0B3F638C0B4F60A013A977E
:105670006E6A1200080EE66EC40EE66EDCEC54F0A4
:10568000E552E552D9EC16F0E3EC3EF099EC71F0FE
:10569000FA0EE66EC30EE66EDCEC54F0E552E5520F
:1056A0000801B86B400EB85D62E2F60EE66EC30EFE
:1056B000E66EDCEC54F0E552E5520801B829E66EDE
:1056C000E66A28EC55F0E552E552F20EE66EC30E9E
:1056D000E66EDCEC54F0E552E5520801B851EA6A96
:1056E000000FE96E080EEA22EFCF36F0376A36BEB9
:1056F000376836C0E6FF37C0E6FF91EC55F0E5525B
:10570000E5520801B851F66EF76AD890F636F736CA
:10571000010EF626E80EF722010EF626000EF722FD
:105720000800F55007E0EF0EE66EC30EE66EDCEC07
:1057300054F018D0200EE66EFCEC54F0E552400E0A
:105740000801B825E66EE66AFBEC6EF0E552E5521C
:10575000366E376A36BE376836C0E6FF37C0E6FFBA
:1057600091EC55F0E552E5520801B82B9BD7120099
:105770003F0E926E020EC16EC00E816E400E936E91
:10578000600E826E840E946EC78CF19E410EE66EA2
:10579000E66A3C0EE66EB9EC73F0E552E552E5526E
:1057A00012006C6A0801B96B0A0EB95D09E2B951C1
:1057B000EA6A3A0FE96E0A0EEA22EF6AB92BF4D7C9
:1057C0000A013D813D893E850701F66BF76BF86B59
:1057D000F96B0F0148697F0E496F48CF46FFE8CF4C
:1057E00047FF48CF4AFFE8CF4BFF140E0F013E6F33
:1057F0003F6BF00E0F01406F416BD00E06013F6F03
:10580000406B746A2E0EE66E1AEC73F0E552040ECD
:10581000E66E0EEC73F0E552800EE66E1AEC73F055
:10582000E5521200D9CFE6FFE1CFD9FFFD0EDBCF65
:1058300036F0FE0EDBCF37F0386A37BE386836C038
:10584000E6FF37C0E6FF38C0E6FF2BEC6AF0E55212
:10585000E7CF38F0E552E7CF37F0E552E7CF36F043
:10586000525036240801BA6F53503720BB6F545042
:105870003820BC6FBA2B000EBB23BC232BEC6AF084
:105880000801BA51525CBB515358BC515458F6E30D
:10589000E552E7CFD9FF1200D9CFE6FFE1CFD9FF1C
:1058A000FD0EDBCF36F0FE0EDBCF37F0640E370295
:1058B000F3CF37F03602F3CF36F0F4503726386A9C
:1058C00037BE386836C0E6FF37C0E6FF38C0E6FFAF
:1058D0002BEC6AF0E552E7CF38F0E552E7CF37F02E
:1058E000E552E7CF36F0525036240801BD6F5350D1
:1058F0003720BE6F54503820BF6F2BEC6AF0080180
:10590000BD51525CBE515358BF5154580BE2020E68
:105910000001805DE66EE66A85DFE552E5526BECDC
:105920004FF0EBD7E552E7CFD9FF1200D9CFE6FF12
:10593000E1CFD9FF800EE66E0EEC73F0E552FE0E5D
:10594000DBCFE6FFE66AA8DFE552E552800EE66EA1
:105950001AEC73F0E552FD0EDBCFE6FFE66A9CDF42
:10596000E552E552E552E7CFD9FF1200D9CFE6FF65
:10597000E1CFD9FF0801C06BFE0EDB50C05D0AE22B
:10598000080EE66E020EE66ED1DFE552E552080122
:10599000C02BF2D7E66A080EE66EC8DFE552E55284
:1059A000E552E7CFD9FF12002BEC6AF052C0C1F8E4
:1059B00053C0C2F854C0C3F8C10EE96E080EEA6EB7
:1059C00006019A51EE5C9B51EE589C51EE5801E253
:1059D000BFD06F5001E1BCD0C1C89AF6C2C89BF6D7
:1059E000C3C89CF6E80E9A27030E9B23000E9C2347
:1059F0006F6A3CC651F03DC652F0536A546A52AECB
:105A000002D053685468040E566E576A586A596A31
:105A100041EC74F04DC0EEF74EC0EFF7970EE96E13
:105A2000060EEA6EEE500801C15D3D6EEE50C259A1
:105A30003E6EEE50C3593F6E4DC03AF04EC03BF043
:105A40003C6A3BBE3C683AC052F03BC053F03CC09D
:105A500054F03DC057F03EC058F03FC059F0FAEC4A
:105A60006DF0396A4F500701F6275050F723515017
:105A7000F8233950F923C1C897F6C2C898F6C3C8AD
:105A800099F6F6C736F0F7C737F0F8C738F0F9C718
:105A900039F0566A400E576E380E586E596AF6C77E
:105AA00051F0F7C752F0F8C753F0F9C754F099EC2A
